{
    "contractName": "Token",
    "abi": [
        {
            "inputs": [
                {
                    "internalType": "address",
                    "name": "gameAddress_",
                    "type": "address"
                },
                {
                    "internalType": "address",
                    "name": "nftAddress_",
                    "type": "address"
                },
                {
                    "internalType": "address",
                    "name": "rewardsAddress_",
                    "type": "address"
                },
                {
                    "internalType": "address",
                    "name": "marketingAddress_",
                    "type": "address"
                },
                {
                    "internalType": "address",
                    "name": "routerAddress_",
                    "type": "address"
                }
            ],
            "stateMutability": "nonpayable",
            "type": "constructor"
        },
        {
            "anonymous": false,
            "inputs": [
                {
                    "indexed": true,
                    "internalType": "address",
                    "name": "owner",
                    "type": "address"
                },
                {
                    "indexed": true,
                    "internalType": "address",
                    "name": "spender",
                    "type": "address"
                },
                {
                    "indexed": false,
                    "internalType": "uint256",
                    "name": "value",
                    "type": "uint256"
                }
            ],
            "name": "Approval",
            "type": "event"
        },
        {
            "anonymous": false,
            "inputs": [
                {
                    "indexed": false,
                    "internalType": "address",
                    "name": "address_",
                    "type": "address"
                },
                {
                    "indexed": false,
                    "internalType": "uint256",
                    "name": "block",
                    "type": "uint256"
                },
                {
                    "indexed": false,
                    "internalType": "uint256",
                    "name": "timestamp",
                    "type": "uint256"
                }
            ],
            "name": "Blacklisted",
            "type": "event"
        },
        {
            "anonymous": false,
            "inputs": [
                {
                    "indexed": false,
                    "internalType": "address",
                    "name": "sender",
                    "type": "address"
                },
                {
                    "indexed": false,
                    "internalType": "uint256",
                    "name": "amountETH",
                    "type": "uint256"
                },
                {
                    "indexed": false,
                    "internalType": "uint256",
                    "name": "amountToken",
                    "type": "uint256"
                }
            ],
            "name": "LiquidityAdded",
            "type": "event"
        },
        {
            "anonymous": false,
            "inputs": [
                {
                    "indexed": true,
                    "internalType": "address",
                    "name": "adder",
                    "type": "address"
                },
                {
                    "indexed": true,
                    "internalType": "address",
                    "name": "owner",
                    "type": "address"
                },
                {
                    "indexed": true,
                    "internalType": "uint256",
                    "name": "timestamp",
                    "type": "uint256"
                }
            ],
            "name": "OwnerAdded",
            "type": "event"
        },
        {
            "anonymous": false,
            "inputs": [
                {
                    "indexed": true,
                    "internalType": "address",
                    "name": "remover",
                    "type": "address"
                },
                {
                    "indexed": true,
                    "internalType": "address",
                    "name": "owner",
                    "type": "address"
                },
                {
                    "indexed": true,
                    "internalType": "uint256",
                    "name": "timestamp",
                    "type": "uint256"
                }
            ],
            "name": "OwnerRemoved",
            "type": "event"
        },
        {
            "anonymous": false,
            "inputs": [
                {
                    "indexed": false,
                    "internalType": "uint256",
                    "name": "timestamp",
                    "type": "uint256"
                }
            ],
            "name": "OwnershipRenounced",
            "type": "event"
        },
        {
            "anonymous": false,
            "inputs": [
                {
                    "indexed": true,
                    "internalType": "address",
                    "name": "from",
                    "type": "address"
                },
                {
                    "indexed": true,
                    "internalType": "address",
                    "name": "to",
                    "type": "address"
                },
                {
                    "indexed": false,
                    "internalType": "uint256",
                    "name": "value",
                    "type": "uint256"
                }
            ],
            "name": "Transfer",
            "type": "event"
        },
        {
            "inputs": [],
            "name": "MAX_TOTAL_FEE",
            "outputs": [
                {
                    "internalType": "uint256",
                    "name": "",
                    "type": "uint256"
                }
            ],
            "stateMutability": "view",
            "type": "function"
        },
        {
            "inputs": [],
            "name": "activateTradeWithAntibot",
            "outputs": [],
            "stateMutability": "nonpayable",
            "type": "function"
        },
        {
            "inputs": [
                {
                    "internalType": "uint256",
                    "name": "amountToken",
                    "type": "uint256"
                }
            ],
            "name": "addInitialLiquidity",
            "outputs": [],
            "stateMutability": "payable",
            "type": "function"
        },
        {
            "inputs": [
                {
                    "internalType": "address",
                    "name": "owner",
                    "type": "address"
                }
            ],
            "name": "addOwner",
            "outputs": [],
            "stateMutability": "nonpayable",
            "type": "function"
        },
        {
            "inputs": [
                {
                    "internalType": "address",
                    "name": "address_",
                    "type": "address"
                }
            ],
            "name": "addTaxExcludedAddress",
            "outputs": [],
            "stateMutability": "nonpayable",
            "type": "function"
        },
        {
            "inputs": [
                {
                    "internalType": "address",
                    "name": "owner",
                    "type": "address"
                },
                {
                    "internalType": "address",
                    "name": "spender",
                    "type": "address"
                }
            ],
            "name": "allowance",
            "outputs": [
                {
                    "internalType": "uint256",
                    "name": "",
                    "type": "uint256"
                }
            ],
            "stateMutability": "view",
            "type": "function"
        },
        {
            "inputs": [
                {
                    "internalType": "address",
                    "name": "",
                    "type": "address"
                }
            ],
            "name": "antiBotBlacklist",
            "outputs": [
                {
                    "internalType": "bool",
                    "name": "",
                    "type": "bool"
                }
            ],
            "stateMutability": "view",
            "type": "function"
        },
        {
            "inputs": [],
            "name": "antiBotSellDevelopmentTax",
            "outputs": [
                {
                    "internalType": "uint256",
                    "name": "",
                    "type": "uint256"
                }
            ],
            "stateMutability": "view",
            "type": "function"
        },
        {
            "inputs": [],
            "name": "antiBotSellLiquidityTax",
            "outputs": [
                {
                    "internalType": "uint256",
                    "name": "",
                    "type": "uint256"
                }
            ],
            "stateMutability": "view",
            "type": "function"
        },
        {
            "inputs": [],
            "name": "antiBotSellMarketingTax",
            "outputs": [
                {
                    "internalType": "uint256",
                    "name": "",
                    "type": "uint256"
                }
            ],
            "stateMutability": "view",
            "type": "function"
        },
        {
            "inputs": [],
            "name": "antiBotSellRewardsTax",
            "outputs": [
                {
                    "internalType": "uint256",
                    "name": "",
                    "type": "uint256"
                }
            ],
            "stateMutability": "view",
            "type": "function"
        },
        {
            "inputs": [
                {
                    "internalType": "address",
                    "name": "spender",
                    "type": "address"
                },
                {
                    "internalType": "uint256",
                    "name": "amount",
                    "type": "uint256"
                }
            ],
            "name": "approve",
            "outputs": [
                {
                    "internalType": "bool",
                    "name": "",
                    "type": "bool"
                }
            ],
            "stateMutability": "nonpayable",
            "type": "function"
        },
        {
            "inputs": [
                {
                    "internalType": "address",
                    "name": "account",
                    "type": "address"
                }
            ],
            "name": "balanceOf",
            "outputs": [
                {
                    "internalType": "uint256",
                    "name": "",
                    "type": "uint256"
                }
            ],
            "stateMutability": "view",
            "type": "function"
        },
        {
            "inputs": [],
            "name": "buyDevelopmentTax",
            "outputs": [
                {
                    "internalType": "uint256",
                    "name": "",
                    "type": "uint256"
                }
            ],
            "stateMutability": "view",
            "type": "function"
        },
        {
            "inputs": [],
            "name": "buyLiquidityTax",
            "outputs": [
                {
                    "internalType": "uint256",
                    "name": "",
                    "type": "uint256"
                }
            ],
            "stateMutability": "view",
            "type": "function"
        },
        {
            "inputs": [],
            "name": "buyMarketingTax",
            "outputs": [
                {
                    "internalType": "uint256",
                    "name": "",
                    "type": "uint256"
                }
            ],
            "stateMutability": "view",
            "type": "function"
        },
        {
            "inputs": [],
            "name": "buyRewardsTax",
            "outputs": [
                {
                    "internalType": "uint256",
                    "name": "",
                    "type": "uint256"
                }
            ],
            "stateMutability": "view",
            "type": "function"
        },
        {
            "inputs": [],
            "name": "decimals",
            "outputs": [
                {
                    "internalType": "uint8",
                    "name": "",
                    "type": "uint8"
                }
            ],
            "stateMutability": "view",
            "type": "function"
        },
        {
            "inputs": [
                {
                    "internalType": "address",
                    "name": "spender",
                    "type": "address"
                },
                {
                    "internalType": "uint256",
                    "name": "subtractedValue",
                    "type": "uint256"
                }
            ],
            "name": "decreaseAllowance",
            "outputs": [
                {
                    "internalType": "bool",
                    "name": "",
                    "type": "bool"
                }
            ],
            "stateMutability": "nonpayable",
            "type": "function"
        },
        {
            "inputs": [],
            "name": "developmentAddress",
            "outputs": [
                {
                    "internalType": "address payable",
                    "name": "",
                    "type": "address"
                }
            ],
            "stateMutability": "view",
            "type": "function"
        },
        {
            "inputs": [],
            "name": "emergencyMintRewards",
            "outputs": [],
            "stateMutability": "nonpayable",
            "type": "function"
        },
        {
            "inputs": [],
            "name": "gameAddress",
            "outputs": [
                {
                    "internalType": "address payable",
                    "name": "",
                    "type": "address"
                }
            ],
            "stateMutability": "view",
            "type": "function"
        },
        {
            "inputs": [],
            "name": "getOwners",
            "outputs": [
                {
                    "internalType": "address[]",
                    "name": "",
                    "type": "address[]"
                }
            ],
            "stateMutability": "view",
            "type": "function"
        },
        {
            "inputs": [
                {
                    "internalType": "address",
                    "name": "spender",
                    "type": "address"
                },
                {
                    "internalType": "uint256",
                    "name": "addedValue",
                    "type": "uint256"
                }
            ],
            "name": "increaseAllowance",
            "outputs": [
                {
                    "internalType": "bool",
                    "name": "",
                    "type": "bool"
                }
            ],
            "stateMutability": "nonpayable",
            "type": "function"
        },
        {
            "inputs": [
                {
                    "internalType": "address",
                    "name": "",
                    "type": "address"
                }
            ],
            "name": "isExcludedFromTax",
            "outputs": [
                {
                    "internalType": "bool",
                    "name": "",
                    "type": "bool"
                }
            ],
            "stateMutability": "view",
            "type": "function"
        },
        {
            "inputs": [
                {
                    "internalType": "address",
                    "name": "owner",
                    "type": "address"
                }
            ],
            "name": "isOwner",
            "outputs": [
                {
                    "internalType": "bool",
                    "name": "",
                    "type": "bool"
                }
            ],
            "stateMutability": "view",
            "type": "function"
        },
        {
            "inputs": [],
            "name": "isPaused",
            "outputs": [
                {
                    "internalType": "bool",
                    "name": "",
                    "type": "bool"
                }
            ],
            "stateMutability": "view",
            "type": "function"
        },
        {
            "inputs": [],
            "name": "liquidityTaxEnabled",
            "outputs": [
                {
                    "internalType": "bool",
                    "name": "",
                    "type": "bool"
                }
            ],
            "stateMutability": "view",
            "type": "function"
        },
        {
            "inputs": [],
            "name": "marketingAddress",
            "outputs": [
                {
                    "internalType": "address payable",
                    "name": "",
                    "type": "address"
                }
            ],
            "stateMutability": "view",
            "type": "function"
        },
        {
            "inputs": [],
            "name": "name",
            "outputs": [
                {
                    "internalType": "string",
                    "name": "",
                    "type": "string"
                }
            ],
            "stateMutability": "view",
            "type": "function"
        },
        {
            "inputs": [],
            "name": "nftAddress",
            "outputs": [
                {
                    "internalType": "address payable",
                    "name": "",
                    "type": "address"
                }
            ],
            "stateMutability": "view",
            "type": "function"
        },
        {
            "inputs": [
                {
                    "internalType": "address",
                    "name": "address_",
                    "type": "address"
                }
            ],
            "name": "removeBlacklistedAddress",
            "outputs": [],
            "stateMutability": "nonpayable",
            "type": "function"
        },
        {
            "inputs": [
                {
                    "internalType": "address",
                    "name": "owner",
                    "type": "address"
                }
            ],
            "name": "removeOwner",
            "outputs": [],
            "stateMutability": "nonpayable",
            "type": "function"
        },
        {
            "inputs": [
                {
                    "internalType": "address",
                    "name": "address_",
                    "type": "address"
                }
            ],
            "name": "removeTaxExcludedAddress",
            "outputs": [],
            "stateMutability": "nonpayable",
            "type": "function"
        },
        {
            "inputs": [],
            "name": "renounceOwnership",
            "outputs": [],
            "stateMutability": "nonpayable",
            "type": "function"
        },
        {
            "inputs": [],
            "name": "renounced",
            "outputs": [
                {
                    "internalType": "bool",
                    "name": "",
                    "type": "bool"
                }
            ],
            "stateMutability": "view",
            "type": "function"
        },
        {
            "inputs": [],
            "name": "rewardsAddress",
            "outputs": [
                {
                    "internalType": "address payable",
                    "name": "",
                    "type": "address"
                }
            ],
            "stateMutability": "view",
            "type": "function"
        },
        {
            "inputs": [],
            "name": "sellDevelopmentTax",
            "outputs": [
                {
                    "internalType": "uint256",
                    "name": "",
                    "type": "uint256"
                }
            ],
            "stateMutability": "view",
            "type": "function"
        },
        {
            "inputs": [],
            "name": "sellLiquidityTax",
            "outputs": [
                {
                    "internalType": "uint256",
                    "name": "",
                    "type": "uint256"
                }
            ],
            "stateMutability": "view",
            "type": "function"
        },
        {
            "inputs": [],
            "name": "sellMarketingTax",
            "outputs": [
                {
                    "internalType": "uint256",
                    "name": "",
                    "type": "uint256"
                }
            ],
            "stateMutability": "view",
            "type": "function"
        },
        {
            "inputs": [],
            "name": "sellRewardsTax",
            "outputs": [
                {
                    "internalType": "uint256",
                    "name": "",
                    "type": "uint256"
                }
            ],
            "stateMutability": "view",
            "type": "function"
        },
        {
            "inputs": [
                {
                    "internalType": "uint256",
                    "name": "sellDevelopmentTax_",
                    "type": "uint256"
                },
                {
                    "internalType": "uint256",
                    "name": "sellMarketingTax_",
                    "type": "uint256"
                },
                {
                    "internalType": "uint256",
                    "name": "sellLiquidityTax_",
                    "type": "uint256"
                },
                {
                    "internalType": "uint256",
                    "name": "sellRewardsTax_",
                    "type": "uint256"
                }
            ],
            "name": "setAntiBotSellTaxes",
            "outputs": [],
            "stateMutability": "nonpayable",
            "type": "function"
        },
        {
            "inputs": [
                {
                    "internalType": "uint256",
                    "name": "buyDevelopmentTax_",
                    "type": "uint256"
                },
                {
                    "internalType": "uint256",
                    "name": "buyMarketingTax_",
                    "type": "uint256"
                },
                {
                    "internalType": "uint256",
                    "name": "buyLiquidityTax_",
                    "type": "uint256"
                },
                {
                    "internalType": "uint256",
                    "name": "buyRewardsTax_",
                    "type": "uint256"
                }
            ],
            "name": "setBuyTaxes",
            "outputs": [],
            "stateMutability": "nonpayable",
            "type": "function"
        },
        {
            "inputs": [
                {
                    "internalType": "uint256",
                    "name": "emergencyMintAmount_",
                    "type": "uint256"
                }
            ],
            "name": "setEmergencyMintAmount",
            "outputs": [],
            "stateMutability": "nonpayable",
            "type": "function"
        },
        {
            "inputs": [
                {
                    "internalType": "address",
                    "name": "gameAddress_",
                    "type": "address"
                },
                {
                    "internalType": "address",
                    "name": "nftAddress_",
                    "type": "address"
                }
            ],
            "name": "setInternalAddresses",
            "outputs": [],
            "stateMutability": "nonpayable",
            "type": "function"
        },
        {
            "inputs": [
                {
                    "internalType": "bool",
                    "name": "isPaused_",
                    "type": "bool"
                }
            ],
            "name": "setIsPaused",
            "outputs": [],
            "stateMutability": "nonpayable",
            "type": "function"
        },
        {
            "inputs": [
                {
                    "internalType": "bool",
                    "name": "liquidityTaxEnabled_",
                    "type": "bool"
                }
            ],
            "name": "setLiquidityTaxEnabled",
            "outputs": [],
            "stateMutability": "nonpayable",
            "type": "function"
        },
        {
            "inputs": [
                {
                    "internalType": "uint256",
                    "name": "minBalanceForSwapAndTransfer_",
                    "type": "uint256"
                }
            ],
            "name": "setMinBalanceForSwapAndTransfer",
            "outputs": [],
            "stateMutability": "nonpayable",
            "type": "function"
        },
        {
            "inputs": [
                {
                    "internalType": "address",
                    "name": "routerAddress",
                    "type": "address"
                }
            ],
            "name": "setRouter",
            "outputs": [],
            "stateMutability": "nonpayable",
            "type": "function"
        },
        {
            "inputs": [
                {
                    "internalType": "uint256",
                    "name": "sellDevelopmentTax_",
                    "type": "uint256"
                },
                {
                    "internalType": "uint256",
                    "name": "sellMarketingTax_",
                    "type": "uint256"
                },
                {
                    "internalType": "uint256",
                    "name": "sellLiquidityTax_",
                    "type": "uint256"
                },
                {
                    "internalType": "uint256",
                    "name": "sellRewardsTax_",
                    "type": "uint256"
                }
            ],
            "name": "setSellTaxes",
            "outputs": [],
            "stateMutability": "nonpayable",
            "type": "function"
        },
        {
            "inputs": [
                {
                    "internalType": "address",
                    "name": "developmentAddress_",
                    "type": "address"
                },
                {
                    "internalType": "address",
                    "name": "marketingAddress_",
                    "type": "address"
                },
                {
                    "internalType": "address",
                    "name": "rewardsAddress_",
                    "type": "address"
                }
            ],
            "name": "setTaxAddresses",
            "outputs": [],
            "stateMutability": "nonpayable",
            "type": "function"
        },
        {
            "inputs": [],
            "name": "symbol",
            "outputs": [
                {
                    "internalType": "string",
                    "name": "",
                    "type": "string"
                }
            ],
            "stateMutability": "view",
            "type": "function"
        },
        {
            "inputs": [],
            "name": "totalSupply",
            "outputs": [
                {
                    "internalType": "uint256",
                    "name": "",
                    "type": "uint256"
                }
            ],
            "stateMutability": "view",
            "type": "function"
        },
        {
            "inputs": [
                {
                    "internalType": "address",
                    "name": "to",
                    "type": "address"
                },
                {
                    "internalType": "uint256",
                    "name": "amount",
                    "type": "uint256"
                }
            ],
            "name": "transfer",
            "outputs": [
                {
                    "internalType": "bool",
                    "name": "",
                    "type": "bool"
                }
            ],
            "stateMutability": "nonpayable",
            "type": "function"
        },
        {
            "inputs": [
                {
                    "internalType": "address",
                    "name": "from",
                    "type": "address"
                },
                {
                    "internalType": "address",
                    "name": "to",
                    "type": "address"
                },
                {
                    "internalType": "uint256",
                    "name": "amount",
                    "type": "uint256"
                }
            ],
            "name": "transferFrom",
            "outputs": [
                {
                    "internalType": "bool",
                    "name": "",
                    "type": "bool"
                }
            ],
            "stateMutability": "nonpayable",
            "type": "function"
        },
        {
            "stateMutability": "payable",
            "type": "receive"
        }
    ],
    "bytecode": "60a06040526109c4608052610e10600c556002600d5568056bc75e2d63100000600e819055610384600f819055601055610190601181905561012c60128190556014805460ff19166001179055678ac7230489e80000601555601781905560185560195560c8601a819055601b819055601c819055601d556064601e556025553480156200008c57600080fd5b5060405162003c1338038062003c13833981016040819052620000af9162000771565b604051806040016040528060058152602001642a37b5b2b760d91b815250604051806040016040528060038152602001622a25a760e91b815250816003908051906020019062000101929190620006ae565b50805162000117906004906020840190620006ae565b50505033620001785760405162461bcd60e51b815260206004820152602260248201527f43616e277420696e697469616c697a652077697468207a65726f206164647265604482015261737360f01b60648201526084015b60405180910390fd5b60058054610100600160a81b031916336101008102919091179091556000818152600660205260408120805460ff1916600190811790915560078054808301825592527fa66cc928b5edb82af9bd49922954155ab7b0942694bea4ce44661d9a8736c68890910180546001600160a01b031916909217909155620001fc9062000347565b601f8054336001600160a01b031991821681179092556020805482166001600160a01b0386811691909117909155602180548316878316179055602280548316898316179055602380549092169087161790556200027e906200025d601290565b6200026a90600a620008f6565b6200027890610d056200090e565b62000410565b602154620002ab906001600160a01b03166200029d6012600a620008f6565b6200027890611a0b6200090e565b601f546001600160a01b0390811660009081526024602090815260408083208054600160ff199182168117909255925485168452818420805484168217905560215485168452818420805484168217905560225485168452818420805484168217905560235490941683528083208054831685179055308352909120805490911690911790556200033c81620004f5565b5050505050620009a6565b60055460ff16156200039c5760405162461bcd60e51b815260206004820152601360248201527f4f776e6572736869702072656e6f756e6365640000000000000000000000000060448201526064016200016f565b3360009081526006602052604090205460ff16620003fd5760405162461bcd60e51b815260206004820152601660248201527f43616c6c6572206973206e6f7420616e206f776e65720000000000000000000060448201526064016200016f565b6008805460ff1916911515919091179055565b6001600160a01b038216620004685760405162461bcd60e51b815260206004820152601f60248201527f45524332303a206d696e7420746f20746865207a65726f20616464726573730060448201526064016200016f565b80600260008282546200047c919062000930565b90915550506001600160a01b03821660009081526020819052604081208054839290620004ab90849062000930565b90915550506040518181526001600160a01b038316906000907fddf252ad1be2c89b69c2b068fc378daa952ba7f163c4a11628f55a4df523b3ef9060200160405180910390a35050565b602680546001600160a01b0319166001600160a01b0383169081179091556040805163c45a015560e01b8152905163c45a0155916004808201926020929091908290030181865afa1580156200054f573d6000803e3d6000fd5b505050506040513d601f19601f820116820180604052508101906200057591906200094b565b6001600160a01b031663c9c6539630602660009054906101000a90046001600160a01b03166001600160a01b031663ad5c46486040518163ffffffff1660e01b8152600401602060405180830381865afa158015620005d8573d6000803e3d6000fd5b505050506040513d601f19601f82011682018060405250810190620005fe91906200094b565b6040516001600160e01b031960e085901b1681526001600160a01b039283166004820152911660248201526044016020604051808303816000875af11580156200064c573d6000803e3d6000fd5b505050506040513d601f19601f820116820180604052508101906200067291906200094b565b602780546001600160a01b0319166001600160a01b03928316179055602654166000908152602460205260409020805460ff1916600117905550565b828054620006bc9062000969565b90600052602060002090601f016020900481019282620006e057600085556200072b565b82601f10620006fb57805160ff19168380011785556200072b565b828001600101855582156200072b579182015b828111156200072b5782518255916020019190600101906200070e565b50620007399291506200073d565b5090565b5b808211156200073957600081556001016200073e565b80516001600160a01b03811681146200076c57600080fd5b919050565b600080600080600060a086880312156200078a57600080fd5b620007958662000754565b9450620007a56020870162000754565b9350620007b56040870162000754565b9250620007c56060870162000754565b9150620007d56080870162000754565b90509295509295909350565b634e487b7160e01b600052601160045260246000fd5b600181815b80851115620008385781600019048211156200081c576200081c620007e1565b808516156200082a57918102915b93841c9390800290620007fc565b509250929050565b6000826200085157506001620008f0565b816200086057506000620008f0565b81600181146200087957600281146200088457620008a4565b6001915050620008f0565b60ff841115620008985762000898620007e1565b50506001821b620008f0565b5060208310610133831016604e8410600b8410161715620008c9575081810a620008f0565b620008d58383620007f7565b8060001904821115620008ec57620008ec620007e1565b0290505b92915050565b60006200090760ff84168362000840565b9392505050565b60008160001904831182151516156200092b576200092b620007e1565b500290565b60008219821115620009465762000946620007e1565b500190565b6000602082840312156200095e57600080fd5b620009078262000754565b600181811c908216806200097e57607f821691505b60208210811415620009a057634e487b7160e01b600052602260045260246000fd5b50919050565b60805161323c620009d7600039600081816106d6015281816114ce0152818161197f0152611b2f015261323c6000f3fe6080604052600436106103545760003560e01c80637f635cc0116101c6578063c0d78655116100f7578063dd62ed3e11610095578063e6c032951161006f578063e6c03295146109a7578063e96db1ef146109bc578063f480fec2146109d2578063fd0b8449146109f257600080fd5b8063dd62ed3e14610951578063de439fcc14610971578063e4bf1bed1461098757600080fd5b8063cc9c49a6116100d1578063cc9c49a6146108e1578063cdca708314610901578063d16c99c014610921578063d232c2201461093757600080fd5b8063c0d786551461087b578063cb1485b41461089b578063cb4ca631146108b157600080fd5b8063a2cbba2811610164578063a9059cbb1161013e578063a9059cbb1461080b578063ad8052bb1461082b578063b187bd2614610841578063c0973eed1461085b57600080fd5b8063a2cbba28146107b5578063a457c2d7146107cb578063a5ece941146107eb57600080fd5b806395d89b41116101a057806395d89b4114610748578063993df94e1461075d578063a0e67e2b14610773578063a168d8731461079557600080fd5b80637f635cc0146106c4578063810a71a3146106f8578063887d63171461072857600080fd5b806339509351116102a05780636ab912061161023e57806370a082311161021857806370a0823114610643578063715018a614610679578063738c865c1461068e5780637c546d80146106a457600080fd5b80636ab91206146105f85780636eee2b461461060e5780637065cb481461062357600080fd5b80635a686d541161027a5780635a686d54146105745780635bf8633a1461058a5780636053b881146105c2578063638b1b14146105d857600080fd5b8063395093511461052157806341a22cc21461054157806358fd44a51461055457600080fd5b806323b872dd1161030d5780632f54bf6e116102e75780632f54bf6e14610496578063313ce567146104cf57806333012411146104eb5780633328b7211461050157600080fd5b806323b872dd1461043c578063240976bf1461045c5780632c505fb31461047c57600080fd5b806306fdde0314610360578063095ea7b31461038b5780631267f2a6146103bb578063173825d9146103dd57806318160ddd146103fd5780631a9431a91461041c57600080fd5b3661035b57005b600080fd5b34801561036c57600080fd5b50610375610a12565b6040516103829190612d8f565b60405180910390f35b34801561039757600080fd5b506103ab6103a6366004612df9565b610aa4565b6040519015158152602001610382565b3480156103c757600080fd5b506103db6103d6366004612e25565b610abc565b005b3480156103e957600080fd5b506103db6103f8366004612e3e565b610b1c565b34801561040957600080fd5b506002545b604051908152602001610382565b34801561042857600080fd5b506103db610437366004612e62565b610e21565b34801561044857600080fd5b506103ab610457366004612e84565b610e86565b34801561046857600080fd5b506103db610477366004612e62565b610eaa565b34801561048857600080fd5b506014546103ab9060ff1681565b3480156104a257600080fd5b506103ab6104b1366004612e3e565b6001600160a01b031660009081526006602052604090205460ff1690565b3480156104db57600080fd5b5060405160128152602001610382565b3480156104f757600080fd5b5061040e601c5481565b34801561050d57600080fd5b506103db61051c366004612e3e565b610f0f565b34801561052d57600080fd5b506103ab61053c366004612df9565b610f82565b6103db61054f366004612e25565b610fc1565b34801561056057600080fd5b506103db61056f366004612ec5565b611162565b34801561058057600080fd5b5061040e601d5481565b34801561059657600080fd5b506023546105aa906001600160a01b031681565b6040516001600160a01b039091168152602001610382565b3480156105ce57600080fd5b5061040e60195481565b3480156105e457600080fd5b50601f546105aa906001600160a01b031681565b34801561060457600080fd5b5061040e601a5481565b34801561061a57600080fd5b506103db611219565b34801561062f57600080fd5b506103db61063e366004612e3e565b611287565b34801561064f57600080fd5b5061040e61065e366004612e3e565b6001600160a01b031660009081526020819052604090205490565b34801561068557600080fd5b506103db61136a565b34801561069a57600080fd5b5061040e600f5481565b3480156106b057600080fd5b506103db6106bf366004612efe565b611423565b3480156106d057600080fd5b5061040e7f000000000000000000000000000000000000000000000000000000000000000081565b34801561070457600080fd5b506103ab610713366004612e3e565b60136020526000908152604090205460ff1681565b34801561073457600080fd5b506103db610743366004612f30565b61153f565b34801561075457600080fd5b506103756116a9565b34801561076957600080fd5b5061040e601b5481565b34801561077f57600080fd5b506107886116b8565b6040516103829190612fbf565b3480156107a157600080fd5b506022546105aa906001600160a01b031681565b3480156107c157600080fd5b5061040e601e5481565b3480156107d757600080fd5b506103ab6107e6366004612df9565b611719565b3480156107f757600080fd5b506020546105aa906001600160a01b031681565b34801561081757600080fd5b506103ab610826366004612df9565b6117ab565b34801561083757600080fd5b5061040e60175481565b34801561084d57600080fd5b506008546103ab9060ff1681565b34801561086757600080fd5b506021546105aa906001600160a01b031681565b34801561088757600080fd5b506103db610896366004612e3e565b6117b9565b3480156108a757600080fd5b5061040e60105481565b3480156108bd57600080fd5b506103ab6108cc366004612e3e565b60246020526000908152604090205460ff1681565b3480156108ed57600080fd5b506103db6108fc366004612e3e565b611817565b34801561090d57600080fd5b506103db61091c366004612e3e565b61188a565b34801561092d57600080fd5b5061040e60115481565b34801561094357600080fd5b506005546103ab9060ff1681565b34801561095d57600080fd5b5061040e61096c366004612ec5565b611900565b34801561097d57600080fd5b5061040e60125481565b34801561099357600080fd5b506103db6109a2366004612efe565b61192b565b3480156109b357600080fd5b506103db6119f0565b3480156109c857600080fd5b5061040e60185481565b3480156109de57600080fd5b506103db6109ed366004612efe565b611adb565b3480156109fe57600080fd5b506103db610a0d366004612e25565b611ba0565b606060038054610a2190612fd2565b80601f0160208091040260200160405190810160405280929190818152602001828054610a4d90612fd2565b8015610a9a5780601f10610a6f57610100808354040283529160200191610a9a565b820191906000526020600020905b815481529060010190602001808311610a7d57829003601f168201915b5050505050905090565b600033610ab2818585611bf7565b5060019392505050565b60055460ff1615610ae85760405162461bcd60e51b8152600401610adf9061300d565b60405180910390fd5b3360009081526006602052604090205460ff16610b175760405162461bcd60e51b8152600401610adf9061303a565b602555565b60055460ff1615610b3f5760405162461bcd60e51b8152600401610adf9061300d565b3360009081526006602052604090205460ff16610b6e5760405162461bcd60e51b8152600401610adf9061303a565b6001600160a01b03811660009081526006602052604090205460ff16610bd65760405162461bcd60e51b815260206004820152601760248201527f41646472657373206973206e6f7420616e206f776e65720000000000000000006044820152606401610adf565b60055461010090046001600160a01b0316331415610c365760405162461bcd60e51b815260206004820152601d60248201527f4d6173746572206f776e65722063616e27742062652072656d6f7665640000006044820152606401610adf565b60075460005b600754811015610dbd57826001600160a01b031660078281548110610c6357610c6361306a565b6000918252602090912001546001600160a01b03161415610dab576001600160a01b0383166000908152600660205260409020805460ff19169055805b600754610caf90600190613096565b811015610d3a576007610cc38360016130ad565b81548110610cd357610cd361306a565b600091825260209091200154600780546001600160a01b039092169184908110610cff57610cff61306a565b600091825260209091200180546001600160a01b0319166001600160a01b039290921691909117905580610d32816130c5565b915050610ca0565b506007805480610d4c57610d4c6130e0565b600082815260208120820160001990810180546001600160a01b031916905590910190915560405142916001600160a01b0386169133917fecc5dd9888b87e7ed252d66b9c086ab819de6c8f8b96c8e5458e105bacfbb02791a4610dbd565b80610db5816130c5565b915050610c3c565b50600754818110610e1c5760405162461bcd60e51b8152602060048201526024808201527f536f6d657468696e672077656e742077726f6e672072656d6f76696e67206f776044820152636e65727360e01b6064820152608401610adf565b505050565b60055460ff1615610e445760405162461bcd60e51b8152600401610adf9061300d565b3360009081526006602052604090205460ff16610e735760405162461bcd60e51b8152600401610adf9061303a565b6014805460ff1916911515919091179055565b600033610e94858285611d1b565b610e9f858585611d95565b506001949350505050565b60055460ff1615610ecd5760405162461bcd60e51b8152600401610adf9061300d565b3360009081526006602052604090205460ff16610efc5760405162461bcd60e51b8152600401610adf9061303a565b6008805460ff1916911515919091179055565b60055460ff1615610f325760405162461bcd60e51b8152600401610adf9061300d565b3360009081526006602052604090205460ff16610f615760405162461bcd60e51b8152600401610adf9061303a565b6001600160a01b03166000908152601360205260409020805460ff19169055565b3360008181526001602090815260408083206001600160a01b0387168452909152812054909190610ab29082908690610fbc9087906130ad565b611bf7565b60055460ff1615610fe45760405162461bcd60e51b8152600401610adf9061300d565b3360009081526006602052604090205460ff166110135760405162461bcd60e51b8152600401610adf9061303a565b6026546001600160a01b0316806110615760405162461bcd60e51b8152602060048201526012602482015271149bdd5d195c881b9bdd081cd95d081e595d60721b6044820152606401610adf565b336000908152602081905260409020548211156110d25760405162461bcd60e51b815260206004820152602960248201527f53656e64657220646f6573206e6f74206861766520656e6f75676820746f6b656044820152686e2062616c616e636560b81b6064820152608401610adf565b816110dd3330611900565b101561113e5760405162461bcd60e51b815260206004820152602a60248201527f4e6f7420656e6f75676820616c6c6f77616e636520676976656e20746f207468604482015269194818dbdb9d1c9858dd60b21b6064820152608401610adf565b611149338284611bf7565b611154333084611fbe565b61115e348361218c565b5050565b60055460ff16156111855760405162461bcd60e51b8152600401610adf9061300d565b3360009081526006602052604090205460ff166111b45760405162461bcd60e51b8152600401610adf9061303a565b602280546001600160a01b039384166001600160a01b031991821681179092556023805493851693909116929092178255600090815260246020526040808220805460ff19908116600190811790925593549094168252902080549091169091179055565b6021546001600160a01b0316331461126c5760405162461bcd60e51b81526020600482015260166024820152751059191c995cdcc81b9bdd08185d5d1a1bdc9a5e995960521b6044820152606401610adf565b602154602554611285916001600160a01b0316906122ad565b565b60055460ff16156112aa5760405162461bcd60e51b8152600401610adf9061300d565b3360009081526006602052604090205460ff166112d95760405162461bcd60e51b8152600401610adf9061303a565b6001600160a01b038116600081815260066020526040808220805460ff1916600190811790915560078054918201815583527fa66cc928b5edb82af9bd49922954155ab7b0942694bea4ce44661d9a8736c6880180546001600160a01b031916841790555142929133917fa0b18fca933618876351ba2ef88bf4505c184d3e55064bec0d7fe236dd706d849190a450565b60055461010090046001600160a01b031633146113da5760405162461bcd60e51b815260206004820152602860248201527f4f6e6c79206d6173746572206f776e65722063616e2072656e6f756e6365206f6044820152670776e6572736869760c41b6064820152608401610adf565b6005805460ff191660011790556040517f7738dc8b7a10a5636dceada812073a582b717ce047d82cd0e4918662b2e7c773906114199042815260200190565b60405180910390a1565b60055460ff16156114465760405162461bcd60e51b8152600401610adf9061300d565b3360009081526006602052604090205460ff166114755760405162461bcd60e51b8152600401610adf9061303a565b600854610100900460ff166114cc5760405162461bcd60e51b815260206004820152601960248201527f416e7469626f7420706572696f642068617320706173736564000000000000006044820152606401610adf565b7f000000000000000000000000000000000000000000000000000000000000000081836114f986886130ad565b61150391906130ad565b61150d91906130ad565b111561152b5760405162461bcd60e51b8152600401610adf906130f6565b600f93909355601091909155601255601155565b60055460ff16156115625760405162461bcd60e51b8152600401610adf9061300d565b3360009081526006602052604090205460ff166115915760405162461bcd60e51b8152600401610adf9061303a565b6001600160a01b03831615806115ae57506001600160a01b038216155b806115c057506001600160a01b038116155b156116235760405162461bcd60e51b815260206004820152602d60248201527f4e6f6e65206f6620746865206164647265737365732063616e2774206265207a60448201526c65726f2061646472657373657360981b6064820152608401610adf565b601f80546001600160a01b03199081166001600160a01b03958616908117909255602080548216948616949094178455602180549091169285169290921782556000908152602483526040808220805460ff1990811660019081179092559454861683528183208054861682179055925490941681529290922080549091169091179055565b606060048054610a2190612fd2565b60606007805480602002602001604051908101604052809291908181526020018280548015610a9a57602002820191906000526020600020905b81546001600160a01b031681526001909101906020018083116116f2575050505050905090565b3360008181526001602090815260408083206001600160a01b03871684529091528120549091908381101561179e5760405162461bcd60e51b815260206004820152602560248201527f45524332303a2064656372656173656420616c6c6f77616e63652062656c6f77604482015264207a65726f60d81b6064820152608401610adf565b610e9f8286868403611bf7565b600033610ab2818585611d95565b60055460ff16156117dc5760405162461bcd60e51b8152600401610adf9061300d565b3360009081526006602052604090205460ff1661180b5760405162461bcd60e51b8152600401610adf9061303a565b6118148161238c565b50565b60055460ff161561183a5760405162461bcd60e51b8152600401610adf9061300d565b3360009081526006602052604090205460ff166118695760405162461bcd60e51b8152600401610adf9061303a565b6001600160a01b03166000908152602460205260409020805460ff19169055565b60055460ff16156118ad5760405162461bcd60e51b8152600401610adf9061300d565b3360009081526006602052604090205460ff166118dc5760405162461bcd60e51b8152600401610adf9061303a565b6001600160a01b03166000908152602460205260409020805460ff19166001179055565b6001600160a01b03918216600090815260016020908152604080832093909416825291909152205490565b60055460ff161561194e5760405162461bcd60e51b8152600401610adf9061300d565b3360009081526006602052604090205460ff1661197d5760405162461bcd60e51b8152600401610adf9061303a565b7f000000000000000000000000000000000000000000000000000000000000000081836119aa86886130ad565b6119b491906130ad565b6119be91906130ad565b11156119dc5760405162461bcd60e51b8152600401610adf906130f6565b601b93909355601c91909155601e55601d55565b60055460ff1615611a135760405162461bcd60e51b8152600401610adf9061300d565b3360009081526006602052604090205460ff16611a425760405162461bcd60e51b8152600401610adf9061303a565b60085462010000900460ff1615611a9b5760405162461bcd60e51b815260206004820152601c60248201527f416e7469626f742068617320616c7265616479206265656e2072616e000000006044820152606401610adf565b6008805462ffff00191662010100179055426009819055600c54611abe916130ad565b600a55600d54611ace90436130ad565b600b556112856000610eaa565b60055460ff1615611afe5760405162461bcd60e51b8152600401610adf9061300d565b3360009081526006602052604090205460ff16611b2d5760405162461bcd60e51b8152600401610adf9061303a565b7f00000000000000000000000000000000000000000000000000000000000000008183611b5a86886130ad565b611b6491906130ad565b611b6e91906130ad565b1115611b8c5760405162461bcd60e51b8152600401610adf906130f6565b601793909355601891909155601a55601955565b60055460ff1615611bc35760405162461bcd60e51b8152600401610adf9061300d565b3360009081526006602052604090205460ff16611bf25760405162461bcd60e51b8152600401610adf9061303a565b601555565b6001600160a01b038316611c595760405162461bcd60e51b8152602060048201526024808201527f45524332303a20617070726f76652066726f6d20746865207a65726f206164646044820152637265737360e01b6064820152608401610adf565b6001600160a01b038216611cba5760405162461bcd60e51b815260206004820152602260248201527f45524332303a20617070726f766520746f20746865207a65726f206164647265604482015261737360f01b6064820152608401610adf565b6001600160a01b0383811660008181526001602090815260408083209487168084529482529182902085905590518481527f8c5be1e5ebec7d5bd14f71427d1e84f3dd0314c0f7b2291e5b200ac8c7c3b925910160405180910390a3505050565b6000611d278484611900565b90506000198114611d8f5781811015611d825760405162461bcd60e51b815260206004820152601d60248201527f45524332303a20696e73756666696369656e7420616c6c6f77616e63650000006044820152606401610adf565b611d8f8484848403611bf7565b50505050565b3260008181526006602052604090205460ff16611df15760085460ff1615611df15760405162461bcd60e51b815260206004820152600f60248201526e10dbdb9d1c9858dd081c185d5cd959608a1b6044820152606401610adf565b6000806000806000611e0489898961253c565b945094509450945094508015611e1e575050505050611d8f565b86611e3957611e2f89896000611fbe565b5050505050611d8f565b6001600160a01b03891660009081526024602052604081205460ff16158015611e7b57506001600160a01b03891660009081526024602052604090205460ff16155b306000908152602081905260409020546016549192509060ff16158015611ea457506015548110155b8015611ebd57506027546001600160a01b038b81169116145b8015611ec65750815b15611ed757611ed781888888612766565b60165460009060ff16158015611eea5750825b90508015611fa55760408051600480825260a08201909252600091602082016080803683370190505090508881600081518110611f2957611f2961306a565b6020026020010181815250508781600181518110611f4957611f4961306a565b6020026020010181815250508681600281518110611f6957611f6961306a565b6020026020010181815250508581600381518110611f8957611f8961306a565b602002602001018181525050611fa18b8e8e84612818565b9a50505b611fb08c8c8c611fbe565b505050505050505050505050565b6001600160a01b0383166120225760405162461bcd60e51b815260206004820152602560248201527f45524332303a207472616e736665722066726f6d20746865207a65726f206164604482015264647265737360d81b6064820152608401610adf565b6001600160a01b0382166120845760405162461bcd60e51b815260206004820152602360248201527f45524332303a207472616e7366657220746f20746865207a65726f206164647260448201526265737360e81b6064820152608401610adf565b6001600160a01b038316600090815260208190526040902054818110156120fc5760405162461bcd60e51b815260206004820152602660248201527f45524332303a207472616e7366657220616d6f756e7420657863656564732062604482015265616c616e636560d01b6064820152608401610adf565b6001600160a01b038085166000908152602081905260408082208585039055918516815290812080548492906121339084906130ad565b92505081905550826001600160a01b0316846001600160a01b03167fddf252ad1be2c89b69c2b068fc378daa952ba7f163c4a11628f55a4df523b3ef8460405161217f91815260200190565b60405180910390a3611d8f565b6026546121a49030906001600160a01b031683611bf7565b602654601f546001600160a01b039182169163f305d719918591309186916000918291166121d342603c6130ad565b60405160e089901b6001600160e01b03191681526001600160a01b039687166004820152602481019590955260448501939093526064840191909152909216608482015260a481019190915260c40160606040518083038185885af1158015612240573d6000803e3d6000fd5b50505050506040513d601f19601f82011682018060405250810190612265919061313e565b505060408051328152602081018590529081018390527fac1d76749e5447b7b16f5ab61447e1bd502f3bb4807af3b28e620d1700a6ee45915060600160405180910390a15050565b6001600160a01b0382166123035760405162461bcd60e51b815260206004820152601f60248201527f45524332303a206d696e7420746f20746865207a65726f2061646472657373006044820152606401610adf565b806002600082825461231591906130ad565b90915550506001600160a01b038216600090815260208190526040812080548392906123429084906130ad565b90915550506040518181526001600160a01b038316906000907fddf252ad1be2c89b69c2b068fc378daa952ba7f163c4a11628f55a4df523b3ef9060200160405180910390a35050565b602680546001600160a01b0319166001600160a01b0383169081179091556040805163c45a015560e01b8152905163c45a0155916004808201926020929091908290030181865afa1580156123e5573d6000803e3d6000fd5b505050506040513d601f19601f82011682018060405250810190612409919061316c565b6001600160a01b031663c9c6539630602660009054906101000a90046001600160a01b03166001600160a01b031663ad5c46486040518163ffffffff1660e01b8152600401602060405180830381865afa15801561246b573d6000803e3d6000fd5b505050506040513d601f19601f8201168201806040525081019061248f919061316c565b6040516001600160e01b031960e085901b1681526001600160a01b039283166004820152911660248201526044016020604051808303816000875af11580156124dc573d6000803e3d6000fd5b505050506040513d601f19601f82011682018060405250810190612500919061316c565b602780546001600160a01b0319166001600160a01b03928316179055602654166000908152602460205260409020805460ff1916600117905550565b601754601854601a546019543260009081526006602052604081205460ff1661275b576001600160a01b03881660009081526013602052604090205460ff161580156125a157506001600160a01b03871660009081526013602052604090205460ff16155b6125ed5760405162461bcd60e51b815260206004820152601f60248201527f53656e646572206f7220726563697069656e7420626c61636b6c6973746564006044820152606401610adf565b600854610100900460ff161561275b57600e5486111561264f5760405162461bcd60e51b815260206004820152601f60248201527f5472616e73616374696f6e206578636565646564206d617820616d6f756e74006044820152606401610adf565b600b5443116126cb57506001600160a01b038716600081815260136020908152604091829020805460ff19166001908117909155825193845243918401919091524291830191909152907f7aec99f3e4d2abbc174b60cf76fe98b889aed9caec7f65d42215573c5dd230649060600160405180910390a161275b565b600a54421161274f576009546000906126e54260016130ad565b6126ef9190613096565b9050612705816001600c54601754600f54612a05565b955061271b816001600c54601854601054612a05565b9450612731816001600c54601a54601254612a05565b9350612747816001600c54601954601154612a05565b92505061275b565b6008805461ff00191690555b939792965093509350565b6016805460ff19166001179055600061277f83856130ad565b60145490915060ff161561279a5761279782826130ad565b90505b6000816127a78688613189565b6127b191906131a8565b90506000826127c08689613189565b6127ca91906131a8565b90506127d68282612a62565b60145460ff1615612805576000836127ee868a613189565b6127f891906131a8565b905061280381612bda565b505b50506016805460ff191690555050505050565b602754600090819081908190819081906001600160a01b038981169116141561291457612710876000815181106128515761285161306a565b60200260200101518b6128649190613189565b61286e91906131a8565b9350612710876001815181106128865761288661306a565b60200260200101518b6128999190613189565b6128a391906131a8565b9250612710876002815181106128bb576128bb61306a565b60200260200101518b6128ce9190613189565b6128d891906131a8565b9150612710876003815181106128f0576128f061306a565b60200260200101518b6129039190613189565b61290d91906131a8565b905061299f565b6027546001600160a01b038a81169116141561299f57612710601b548b61293b9190613189565b61294591906131a8565b9350612710601c548b6129589190613189565b61296291906131a8565b9250612710601e548b6129759190613189565b61297f91906131a8565b9150612710601d548b6129929190613189565b61299c91906131a8565b90505b80826129ab85876130ad565b6129b591906130ad565b6129bf91906130ad565b945084156129f7576129d2893087611fbe565b6021546129ea9030906001600160a01b031683611fbe565b6129f4858b613096565b99505b509798975050505050505050565b600082612a128686613096565b612a1c8789613096565b612a2691906131a8565b612a308585613096565b612a3a9190613189565b612a4491906130ad565b612a4e83856130ad565b612a589190613096565b9695505050505050565b6000612a6e82846130ad565b90506000612a7b82612c25565b9050600082612a8a8684613189565b612a9491906131a8565b9050600083612aa38685613189565b612aad91906131a8565b601f546040519192506000916001600160a01b039091169084908381818185875af1925050503d8060008114612aff576040519150601f19603f3d011682016040523d82523d6000602084013e612b04565b606091505b50506020546040519192506000916001600160a01b039091169084908381818185875af1925050503d8060008114612b58576040519150601f19603f3d011682016040523d82523d6000602084013e612b5d565b606091505b50509050818015612b6b5750805b612bd05760405162461bcd60e51b815260206004820152603060248201527f436f756c646e27742073656e6420746f20646576656c6f706d656e74206f722060448201526f1b585c9ad95d1a5b99c81dd85b1b195d60821b6064820152608401610adf565b5050505050505050565b6000612be76002836131a8565b90506000612bf58284613096565b9050476000612c0383612c25565b90506000612c118383613096565b9050612c1d818661218c565b505050505050565b604080516002808252606082018352600092839291906020830190803683370190505090503081600081518110612c5e57612c5e61306a565b6001600160a01b03928316602091820292909201810191909152602654604080516315ab88c960e31b81529051919093169263ad5c46489260048083019391928290030181865afa158015612cb7573d6000803e3d6000fd5b505050506040513d601f19601f82011682018060405250810190612cdb919061316c565b81600181518110612cee57612cee61306a565b6001600160a01b039283166020918202929092010152602654612d149130911685611bf7565b6026546001600160a01b031663791ac9478460008430612d3542603c6130ad565b6040518663ffffffff1660e01b8152600401612d559594939291906131ca565b600060405180830381600087803b158015612d6f57600080fd5b505af1158015612d83573d6000803e3d6000fd5b50479695505050505050565b600060208083528351808285015260005b81811015612dbc57858101830151858201604001528201612da0565b81811115612dce576000604083870101525b50601f01601f1916929092016040019392505050565b6001600160a01b038116811461181457600080fd5b60008060408385031215612e0c57600080fd5b8235612e1781612de4565b946020939093013593505050565b600060208284031215612e3757600080fd5b5035919050565b600060208284031215612e5057600080fd5b8135612e5b81612de4565b9392505050565b600060208284031215612e7457600080fd5b81358015158114612e5b57600080fd5b600080600060608486031215612e9957600080fd5b8335612ea481612de4565b92506020840135612eb481612de4565b929592945050506040919091013590565b60008060408385031215612ed857600080fd5b8235612ee381612de4565b91506020830135612ef381612de4565b809150509250929050565b60008060008060808587031215612f1457600080fd5b5050823594602084013594506040840135936060013592509050565b600080600060608486031215612f4557600080fd5b8335612f5081612de4565b92506020840135612f6081612de4565b91506040840135612f7081612de4565b809150509250925092565b600081518084526020808501945080840160005b83811015612fb45781516001600160a01b031687529582019590820190600101612f8f565b509495945050505050565b602081526000612e5b6020830184612f7b565b600181811c90821680612fe657607f821691505b6020821081141561300757634e487b7160e01b600052602260045260246000fd5b50919050565b60208082526013908201527213dddb995c9cda1a5c081c995b9bdd5b98d959606a1b604082015260600190565b60208082526016908201527521b0b63632b91034b9903737ba1030b71037bbb732b960511b604082015260600190565b634e487b7160e01b600052603260045260246000fd5b634e487b7160e01b600052601160045260246000fd5b6000828210156130a8576130a8613080565b500390565b600082198211156130c0576130c0613080565b500190565b60006000198214156130d9576130d9613080565b5060010190565b634e487b7160e01b600052603160045260246000fd5b60208082526028908201527f546f74616c207461786573206172652061626f76652074686520616c6c6f77656040820152671908185b5bdd5b9d60c21b606082015260800190565b60008060006060848603121561315357600080fd5b8351925060208401519150604084015190509250925092565b60006020828403121561317e57600080fd5b8151612e5b81612de4565b60008160001904831182151516156131a3576131a3613080565b500290565b6000826131c557634e487b7160e01b600052601260045260246000fd5b500490565b85815284602082015260a0604082015260006131e960a0830186612f7b565b6001600160a01b039490941660608301525060800152939250505056fea2646970667358221220e002f6a42a243b623b23aad272f2455862227d81d4a65383865484c886d7f92964736f6c634300080c0033",
    "sourcePath": "c:/Users/sants/Desktop/slimekeeper/slimekeeper_contracts/contracts/Token.sol",
    "compiler": {
        "name": "solc",
        "version": "0.8.12+commit.f00d7308"
    },
    "functionHashes": {
        "MAX_TOTAL_FEE()": "7f635cc0",
        "activateTradeWithAntibot()": "e6c03295",
        "addInitialLiquidity(uint256)": "41a22cc2",
        "addOwner(address)": "7065cb48",
        "addTaxExcludedAddress(address)": "cdca7083",
        "allowance(address,address)": "dd62ed3e",
        "antiBotBlacklist(address)": "810a71a3",
        "antiBotSellDevelopmentTax()": "738c865c",
        "antiBotSellLiquidityTax()": "de439fcc",
        "antiBotSellMarketingTax()": "cb1485b4",
        "antiBotSellRewardsTax()": "d16c99c0",
        "approve(address,uint256)": "095ea7b3",
        "balanceOf(address)": "70a08231",
        "buyDevelopmentTax()": "993df94e",
        "buyLiquidityTax()": "a2cbba28",
        "buyMarketingTax()": "33012411",
        "buyRewardsTax()": "5a686d54",
        "decimals()": "313ce567",
        "decreaseAllowance(address,uint256)": "a457c2d7",
        "developmentAddress()": "638b1b14",
        "emergencyMintRewards()": "6eee2b46",
        "gameAddress()": "a168d873",
        "getOwners()": "a0e67e2b",
        "increaseAllowance(address,uint256)": "39509351",
        "isExcludedFromTax(address)": "cb4ca631",
        "isOwner(address)": "2f54bf6e",
        "isPaused()": "b187bd26",
        "liquidityTaxEnabled()": "2c505fb3",
        "marketingAddress()": "a5ece941",
        "name()": "06fdde03",
        "nftAddress()": "5bf8633a",
        "removeBlacklistedAddress(address)": "3328b721",
        "removeOwner(address)": "173825d9",
        "removeTaxExcludedAddress(address)": "cc9c49a6",
        "renounceOwnership()": "715018a6",
        "renounced()": "d232c220",
        "rewardsAddress()": "c0973eed",
        "sellDevelopmentTax()": "ad8052bb",
        "sellLiquidityTax()": "6ab91206",
        "sellMarketingTax()": "e96db1ef",
        "sellRewardsTax()": "6053b881",
        "setAntiBotSellTaxes(uint256,uint256,uint256,uint256)": "7c546d80",
        "setBuyTaxes(uint256,uint256,uint256,uint256)": "e4bf1bed",
        "setEmergencyMintAmount(uint256)": "1267f2a6",
        "setInternalAddresses(address,address)": "58fd44a5",
        "setIsPaused(bool)": "240976bf",
        "setLiquidityTaxEnabled(bool)": "1a9431a9",
        "setMinBalanceForSwapAndTransfer(uint256)": "fd0b8449",
        "setRouter(address)": "c0d78655",
        "setSellTaxes(uint256,uint256,uint256,uint256)": "f480fec2",
        "setTaxAddresses(address,address,address)": "887d6317",
        "symbol()": "95d89b41",
        "totalSupply()": "18160ddd",
        "transfer(address,uint256)": "a9059cbb",
        "transferFrom(address,address,uint256)": "23b872dd"
    },
    "gasEstimates": {
        "creation": {
            "codeDepositCost": "2572000",
            "executionCost": "infinite",
            "totalCost": "infinite"
        },
        "external": {
            "MAX_TOTAL_FEE()": "infinite",
            "activateTradeWithAntibot()": "infinite",
            "addInitialLiquidity(uint256)": "infinite",
            "addOwner(address)": "79413",
            "addTaxExcludedAddress(address)": "29010",
            "allowance(address,address)": "infinite",
            "antiBotBlacklist(address)": "2616",
            "antiBotSellDevelopmentTax()": "2406",
            "antiBotSellLiquidityTax()": "2384",
            "antiBotSellMarketingTax()": "2385",
            "antiBotSellRewardsTax()": "2406",
            "approve(address,uint256)": "24664",
            "balanceOf(address)": "2601",
            "buyDevelopmentTax()": "2385",
            "buyLiquidityTax()": "2363",
            "buyMarketingTax()": "2407",
            "buyRewardsTax()": "2363",
            "decimals()": "267",
            "decreaseAllowance(address,uint256)": "26984",
            "developmentAddress()": "2471",
            "emergencyMintRewards()": "infinite",
            "gameAddress()": "2471",
            "getOwners()": "infinite",
            "increaseAllowance(address,uint256)": "27008",
            "isExcludedFromTax(address)": "2637",
            "isOwner(address)": "2611",
            "isPaused()": "2421",
            "liquidityTaxEnabled()": "2423",
            "marketingAddress()": "2449",
            "name()": "infinite",
            "nftAddress()": "2427",
            "removeBlacklistedAddress(address)": "29049",
            "removeOwner(address)": "infinite",
            "removeTaxExcludedAddress(address)": "28982",
            "renounceOwnership()": "27682",
            "renounced()": "2443",
            "rewardsAddress()": "2470",
            "sellDevelopmentTax()": "2384",
            "sellLiquidityTax()": "2363",
            "sellMarketingTax()": "2383",
            "sellRewardsTax()": "2407",
            "setAntiBotSellTaxes(uint256,uint256,uint256,uint256)": "infinite",
            "setBuyTaxes(uint256,uint256,uint256,uint256)": "infinite",
            "setEmergencyMintAmount(uint256)": "26732",
            "setInternalAddresses(address,address)": "infinite",
            "setIsPaused(bool)": "28902",
            "setLiquidityTaxEnabled(bool)": "28968",
            "setMinBalanceForSwapAndTransfer(uint256)": "26773",
            "setRouter(address)": "infinite",
            "setSellTaxes(uint256,uint256,uint256,uint256)": "infinite",
            "setTaxAddresses(address,address,address)": "infinite",
            "symbol()": "infinite",
            "totalSupply()": "2416",
            "transfer(address,uint256)": "infinite",
            "transferFrom(address,address,uint256)": "infinite"
        },
        "internal": {
            "_transfer(address,address,uint256)": "infinite",
            "addLiquidity(uint256,uint256)": "infinite",
            "antiBotGuard(address,address,uint256)": "infinite",
            "createRouterPair(address)": "infinite",
            "scaleToRangeAndReverse(uint256,uint256,uint256,uint256,uint256)": "infinite",
            "swapAndLiquify(uint256)": "infinite",
            "swapAndTransfer(uint256,uint256,uint256,uint256)": "infinite",
            "swapAndTransferFees(uint256,uint256)": "infinite",
            "swapTokensToETH(uint256)": "infinite",
            "takeFees(uint256,address,address,uint256[] memory)": "infinite"
        }
    }
}