{
  "contractName": "Game",
  "abi": [
    {
      "anonymous": false,
      "inputs": [
        {
          "indexed": true,
          "internalType": "address",
          "name": "adder",
          "type": "address"
        },
        {
          "indexed": true,
          "internalType": "address",
          "name": "owner",
          "type": "address"
        },
        {
          "indexed": true,
          "internalType": "uint256",
          "name": "timestamp",
          "type": "uint256"
        }
      ],
      "name": "OwnerAdded",
      "type": "event"
    },
    {
      "anonymous": false,
      "inputs": [
        {
          "indexed": true,
          "internalType": "address",
          "name": "remover",
          "type": "address"
        },
        {
          "indexed": true,
          "internalType": "address",
          "name": "removed",
          "type": "address"
        },
        {
          "indexed": true,
          "internalType": "uint256",
          "name": "timestamp",
          "type": "uint256"
        }
      ],
      "name": "OwnerRemoved",
      "type": "event"
    },
    {
      "anonymous": false,
      "inputs": [],
      "name": "OwnershipRenounced",
      "type": "event"
    },
    {
      "inputs": [
        {
          "internalType": "address",
          "name": "owner",
          "type": "address"
        }
      ],
      "name": "addOwner",
      "outputs": [],
      "stateMutability": "nonpayable",
      "type": "function"
    },
    {
      "inputs": [],
      "name": "getOwners",
      "outputs": [
        {
          "internalType": "address[]",
          "name": "",
          "type": "address[]"
        }
      ],
      "stateMutability": "view",
      "type": "function",
      "constant": true
    },
    {
      "inputs": [
        {
          "internalType": "address",
          "name": "owner",
          "type": "address"
        }
      ],
      "name": "isOwner",
      "outputs": [
        {
          "internalType": "bool",
          "name": "",
          "type": "bool"
        }
      ],
      "stateMutability": "view",
      "type": "function",
      "constant": true
    },
    {
      "inputs": [],
      "name": "isPaused",
      "outputs": [
        {
          "internalType": "bool",
          "name": "",
          "type": "bool"
        }
      ],
      "stateMutability": "view",
      "type": "function",
      "constant": true
    },
    {
      "inputs": [
        {
          "internalType": "address",
          "name": "owner",
          "type": "address"
        }
      ],
      "name": "removeOwner",
      "outputs": [],
      "stateMutability": "nonpayable",
      "type": "function"
    },
    {
      "inputs": [],
      "name": "renounceOwnership",
      "outputs": [],
      "stateMutability": "nonpayable",
      "type": "function"
    },
    {
      "inputs": [],
      "name": "renounced",
      "outputs": [
        {
          "internalType": "bool",
          "name": "",
          "type": "bool"
        }
      ],
      "stateMutability": "view",
      "type": "function",
      "constant": true
    },
    {
      "inputs": [
        {
          "internalType": "bool",
          "name": "isPaused_",
          "type": "bool"
        }
      ],
      "name": "setIsPaused",
      "outputs": [],
      "stateMutability": "nonpayable",
      "type": "function"
    },
    {
      "inputs": [
        {
          "internalType": "address",
          "name": "newNftAddress",
          "type": "address"
        }
      ],
      "name": "setNftAddress",
      "outputs": [],
      "stateMutability": "nonpayable",
      "type": "function"
    },
    {
      "inputs": [
        {
          "internalType": "address",
          "name": "newTokenAddress",
          "type": "address"
        }
      ],
      "name": "setTokenAddress",
      "outputs": [],
      "stateMutability": "nonpayable",
      "type": "function"
    }
  ],
  "bytecode": "0x608060405234801561001057600080fd5b503361006d5760405162461bcd60e51b815260206004820152602260248201527f43616e277420696e697469616c697a652077697468207a65726f206164647265604482015261737360f01b606482015260840160405180910390fd5b60008054610100600160a81b0319163361010081029190911782558082526001602081905260408320805460ff1916821790556002805491820181559092527f405787fa12a823e0f2b7631cc41b3ba8828b3321ca811111fa75cd3aa3bb5ace90910180546001600160a01b0319169091179055610922806100f06000396000f3fe608060405234801561001057600080fd5b506004361061009e5760003560e01c80637065cb48116100665780637065cb4814610132578063715018a614610145578063a0e67e2b1461014d578063b187bd2614610162578063d232c2201461016f57600080fd5b80630b102d1a146100a3578063173825d9146100b8578063240976bf146100cb57806326a4e8d2146100de5780632f54bf6e146100f1575b600080fd5b6100b66100b1366004610764565b61017c565b005b6100b66100c6366004610764565b6101ff565b6100b66100d9366004610794565b6104a0565b6100b66100ec366004610764565b610505565b61011d6100ff366004610764565b6001600160a01b031660009081526001602052604090205460ff1690565b60405190151581526020015b60405180910390f35b6100b6610140366004610764565b610579565b6100b661065c565b610155610702565b60405161012991906107b6565b60035461011d9060ff1681565b60005461011d9060ff1681565b60005460ff16156101a85760405162461bcd60e51b815260040161019f90610803565b60405180910390fd5b3360009081526001602052604090205460ff166101d75760405162461bcd60e51b815260040161019f90610830565b600380546001600160a01b0390921661010002610100600160a81b0319909216919091179055565b60005460ff16156102225760405162461bcd60e51b815260040161019f90610803565b3360009081526001602052604090205460ff166102515760405162461bcd60e51b815260040161019f90610830565b6001600160a01b03811660009081526001602052604090205460ff166102b95760405162461bcd60e51b815260206004820152601760248201527f41646472657373206973206e6f7420616e206f776e6572000000000000000000604482015260640161019f565b60005461010090046001600160a01b03163314156103195760405162461bcd60e51b815260206004820152601d60248201527f4d6173746572206f776e65722063616e27742062652072656d6f766564000000604482015260640161019f565b60005b60025481101561049c57816001600160a01b03166002828154811061034357610343610860565b6000918252602090912001546001600160a01b0316141561048a576001600160a01b0382166000908152600160205260409020805460ff19169055805b60025461038f9060019061088c565b81101561041a5760026103a38360016108a3565b815481106103b3576103b3610860565b600091825260209091200154600280546001600160a01b0390921691849081106103df576103df610860565b600091825260209091200180546001600160a01b0319166001600160a01b039290921691909117905580610412816108bb565b915050610380565b50600280548061042c5761042c6108d6565b600082815260208120820160001990810180546001600160a01b031916905590910190915560405142916001600160a01b0385169133917fecc5dd9888b87e7ed252d66b9c086ab819de6c8f8b96c8e5458e105bacfbb02791a45050565b80610494816108bb565b91505061031c565b5050565b60005460ff16156104c35760405162461bcd60e51b815260040161019f90610803565b3360009081526001602052604090205460ff166104f25760405162461bcd60e51b815260040161019f90610830565b6003805460ff1916911515919091179055565b60005460ff16156105285760405162461bcd60e51b815260040161019f90610803565b3360009081526001602052604090205460ff166105575760405162461bcd60e51b815260040161019f90610830565b600480546001600160a01b0319166001600160a01b0392909216919091179055565b60005460ff161561059c5760405162461bcd60e51b815260040161019f90610803565b3360009081526001602052604090205460ff166105cb5760405162461bcd60e51b815260040161019f90610830565b6001600160a01b0381166000818152600160208190526040808320805460ff19168317905560028054928301815583527f405787fa12a823e0f2b7631cc41b3ba8828b3321ca811111fa75cd3aa3bb5ace90910180546001600160a01b031916841790555142929133917fa0b18fca933618876351ba2ef88bf4505c184d3e55064bec0d7fe236dd706d849190a450565b60005461010090046001600160a01b031633146106cc5760405162461bcd60e51b815260206004820152602860248201527f4f6e6c79206d6173746572206f776e65722063616e2072656e6f756e6365206f6044820152670776e6572736869760c41b606482015260840161019f565b6000805460ff191660011781556040517fd1f66c3d2bc1993a86be5e3d33709d98f0442381befcedd29f578b9b2506b1ce9190a1565b6060600280548060200260200160405190810160405280929190818152602001828054801561075a57602002820191906000526020600020905b81546001600160a01b0316815260019091019060200180831161073c575b5050505050905090565b60006020828403121561077657600080fd5b81356001600160a01b038116811461078d57600080fd5b9392505050565b6000602082840312156107a657600080fd5b8135801515811461078d57600080fd5b6020808252825182820181905260009190848201906040850190845b818110156107f75783516001600160a01b0316835292840192918401916001016107d2565b50909695505050505050565b60208082526013908201527213dddb995c9cda1a5c081c995b9bdd5b98d959606a1b604082015260600190565b60208082526016908201527521b0b63632b91034b9903737ba1030b71037bbb732b960511b604082015260600190565b634e487b7160e01b600052603260045260246000fd5b634e487b7160e01b600052601160045260246000fd5b60008282101561089e5761089e610876565b500390565b600082198211156108b6576108b6610876565b500190565b60006000198214156108cf576108cf610876565b5060010190565b634e487b7160e01b600052603160045260246000fdfea2646970667358221220c86b6cc7c540a075c6997dab35f08a50d910adb1c23d31c155fbbb2ff331fab564736f6c634300080b0033",
  "immutableReferences": {},
  "source": "// SPDX-License-Identifier: MIT\n\npragma solidity >=0.4.22 <0.9.0;\n\nimport \"./PauseOwners.sol\";\nimport \"./NFT.sol\";\nimport \"./Token.sol\";\n\ncontract Game is PauseOwners {\n\tNFT private nft;\n\tToken private token;\n\n\tfunction setNftAddress(address newNftAddress) external onlyOwners {\n\t\tnft = NFT(newNftAddress);\n\t}\n\n\tfunction setTokenAddress(address newTokenAddress) external onlyOwners {\n\t\ttoken = Token(payable(newTokenAddress));\n\t}\n}\n",
  "sourcePath": "C:\\Users\\sants\\Desktop\\slimekeeper\\slimekeeper_contracts\\contracts\\Game.sol",
  "compiler": {
    "name": "solc",
    "version": "0.8.11+commit.d7f03943.Emscripten.clang"
  },
  "schemaVersion": "3.4.4",
  "updatedAt": "2022-02-23T00:12:46.486Z",
  "networkType": "ethereum",
  "devdoc": {
    "kind": "dev",
    "methods": {},
    "version": 1
  },
  "userdoc": {
    "kind": "user",
    "methods": {},
    "version": 1
  }
}