{
  "contractName": "Game",
  "abi": [
    {
      "anonymous": false,
      "inputs": [
        {
          "indexed": true,
          "internalType": "address",
          "name": "adder",
          "type": "address"
        },
        {
          "indexed": true,
          "internalType": "address",
          "name": "owner",
          "type": "address"
        },
        {
          "indexed": true,
          "internalType": "uint256",
          "name": "timestamp",
          "type": "uint256"
        }
      ],
      "name": "OwnerAdded",
      "type": "event"
    },
    {
      "anonymous": false,
      "inputs": [
        {
          "indexed": true,
          "internalType": "address",
          "name": "remover",
          "type": "address"
        },
        {
          "indexed": true,
          "internalType": "address",
          "name": "removed",
          "type": "address"
        },
        {
          "indexed": true,
          "internalType": "uint256",
          "name": "timestamp",
          "type": "uint256"
        }
      ],
      "name": "OwnerRemoved",
      "type": "event"
    },
    {
      "inputs": [
        {
          "internalType": "address",
          "name": "owner",
          "type": "address"
        }
      ],
      "name": "addOwner",
      "outputs": [],
      "stateMutability": "nonpayable",
      "type": "function"
    },
    {
      "inputs": [],
      "name": "getOwners",
      "outputs": [
        {
          "internalType": "address[]",
          "name": "",
          "type": "address[]"
        }
      ],
      "stateMutability": "view",
      "type": "function",
      "constant": true
    },
    {
      "inputs": [
        {
          "internalType": "address",
          "name": "owner",
          "type": "address"
        }
      ],
      "name": "isOwner",
      "outputs": [
        {
          "internalType": "bool",
          "name": "",
          "type": "bool"
        }
      ],
      "stateMutability": "view",
      "type": "function",
      "constant": true
    },
    {
      "inputs": [
        {
          "internalType": "address",
          "name": "owner",
          "type": "address"
        }
      ],
      "name": "removeOwner",
      "outputs": [],
      "stateMutability": "nonpayable",
      "type": "function"
    },
    {
      "inputs": [
        {
          "internalType": "bool",
          "name": "newPaused",
          "type": "bool"
        }
      ],
      "name": "setIsPaused",
      "outputs": [],
      "stateMutability": "nonpayable",
      "type": "function"
    },
    {
      "inputs": [
        {
          "internalType": "address",
          "name": "newNftAddress",
          "type": "address"
        }
      ],
      "name": "setNftAddress",
      "outputs": [],
      "stateMutability": "nonpayable",
      "type": "function"
    },
    {
      "inputs": [
        {
          "internalType": "address",
          "name": "newTokenAddress",
          "type": "address"
        }
      ],
      "name": "setTokenAddress",
      "outputs": [],
      "stateMutability": "nonpayable",
      "type": "function"
    }
  ],
  "bytecode": "0x608060405234801561001057600080fd5b503361006d5760405162461bcd60e51b815260206004820152602260248201527f43616e277420696e697469616c697a652077697468207a65726f206164647265604482015261737360f01b606482015260840160405180910390fd5b336000818152602081905260408120805460ff191660019081179091558054808201825591527fb10e2d527612073b26eecdfd717e6a320cf44b4afac2b0732d9fcbe2b7fa0cf60180546001600160a01b0319169091179055610718806100d56000396000f3fe608060405234801561001057600080fd5b506004361061007d5760003560e01c806326a4e8d21161005b57806326a4e8d2146100bd5780632f54bf6e146100d05780637065cb4814610111578063a0e67e2b1461012457600080fd5b80630b102d1a14610082578063173825d914610097578063240976bf146100aa575b600080fd5b610095610090366004610587565b610139565b005b6100956100a5366004610587565b61019e565b6100956100b83660046105b7565b6103c4565b6100956100cb366004610587565b61040b565b6100fc6100de366004610587565b6001600160a01b031660009081526020819052604090205460ff1690565b60405190151581526020015b60405180910390f35b61009561011f366004610587565b610461565b61012c610525565b60405161010891906105d9565b3360009081526020819052604090205460ff1615156001146101765760405162461bcd60e51b815260040161016d90610626565b60405180910390fd5b600280546001600160a01b0390921661010002610100600160a81b0319909216919091179055565b3360009081526020819052604090205460ff1615156001146101d25760405162461bcd60e51b815260040161016d90610626565b6001600160a01b03811660009081526020819052604090205460ff16151560011461023f5760405162461bcd60e51b815260206004820152601760248201527f41646472657373206973206e6f7420616e206f776e6572000000000000000000604482015260640161016d565b60005b6001548110156103c057816001600160a01b03166001828154811061026957610269610656565b6000918252602090912001546001600160a01b031614156103ae576001600160a01b0382166000908152602081905260409020805460ff19169055805b600180546102b49190610682565b81101561033e5760016102c78382610699565b815481106102d7576102d7610656565b600091825260209091200154600180546001600160a01b03909216918490811061030357610303610656565b600091825260209091200180546001600160a01b0319166001600160a01b039290921691909117905580610336816106b1565b9150506102a6565b506001805480610350576103506106cc565b600082815260208120820160001990810180546001600160a01b031916905590910190915560405142916001600160a01b0385169133917fecc5dd9888b87e7ed252d66b9c086ab819de6c8f8b96c8e5458e105bacfbb02791a45050565b806103b8816106b1565b915050610242565b5050565b3360009081526020819052604090205460ff1615156001146103f85760405162461bcd60e51b815260040161016d90610626565b6002805460ff1916911515919091179055565b3360009081526020819052604090205460ff16151560011461043f5760405162461bcd60e51b815260040161016d90610626565b600380546001600160a01b0319166001600160a01b0392909216919091179055565b3360009081526020819052604090205460ff1615156001146104955760405162461bcd60e51b815260040161016d90610626565b6001600160a01b038116600081815260208190526040808220805460ff19166001908117909155805480820182559083527fb10e2d527612073b26eecdfd717e6a320cf44b4afac2b0732d9fcbe2b7fa0cf60180546001600160a01b031916841790555142929133917fa0b18fca933618876351ba2ef88bf4505c184d3e55064bec0d7fe236dd706d849190a450565b6060600180548060200260200160405190810160405280929190818152602001828054801561057d57602002820191906000526020600020905b81546001600160a01b0316815260019091019060200180831161055f575b5050505050905090565b60006020828403121561059957600080fd5b81356001600160a01b03811681146105b057600080fd5b9392505050565b6000602082840312156105c957600080fd5b813580151581146105b057600080fd5b6020808252825182820181905260009190848201906040850190845b8181101561061a5783516001600160a01b0316835292840192918401916001016105f5565b50909695505050505050565b60208082526016908201527521b0b63632b91034b9903737ba1030b71037bbb732b960511b604082015260600190565b634e487b7160e01b600052603260045260246000fd5b634e487b7160e01b600052601160045260246000fd5b6000828210156106945761069461066c565b500390565b600082198211156106ac576106ac61066c565b500190565b60006000198214156106c5576106c561066c565b5060010190565b634e487b7160e01b600052603160045260246000fdfea2646970667358221220b787c4c1e1eee27f050c5173123124f080b3eeaf7ae195c4ecbc3349d2bb25d564736f6c634300080b0033",
  "immutableReferences": {},
  "source": "// SPDX-License-Identifier: MIT\n\npragma solidity >=0.4.22 <0.9.0;\n\nimport \"./PauseOwners.sol\";\nimport \"./NFT.sol\";\nimport \"./Token.sol\";\n\ncontract Game is PauseOwners {\n\tNFT private nft;\n\tToken private token;\n\n\tfunction setNftAddress(address newNftAddress) external onlyOwners {\n\t\tnft = NFT(newNftAddress);\n\t}\n\n\tfunction setTokenAddress(address newTokenAddress) external onlyOwners {\n\t\ttoken = Token(payable(newTokenAddress));\n\t}\n}\n",
  "sourcePath": "C:\\Users\\sants\\Desktop\\slimekeeper\\slimekeeper_contracts\\contracts\\Game.sol",
  "compiler": {
    "name": "solc",
    "version": "0.8.11+commit.d7f03943.Emscripten.clang"
  },
  "schemaVersion": "3.4.4",
  "updatedAt": "2022-02-15T23:49:17.786Z",
  "networkType": "ethereum",
  "devdoc": {
    "kind": "dev",
    "methods": {},
    "version": 1
  },
  "userdoc": {
    "kind": "user",
    "methods": {},
    "version": 1
  }
}