{
  "contractName": "Game",
  "abi": [
    {
      "anonymous": false,
      "inputs": [
        {
          "indexed": true,
          "internalType": "address",
          "name": "adder",
          "type": "address"
        },
        {
          "indexed": true,
          "internalType": "address",
          "name": "owner",
          "type": "address"
        },
        {
          "indexed": true,
          "internalType": "uint256",
          "name": "timestamp",
          "type": "uint256"
        }
      ],
      "name": "OwnerAdded",
      "type": "event"
    },
    {
      "anonymous": false,
      "inputs": [
        {
          "indexed": true,
          "internalType": "address",
          "name": "remover",
          "type": "address"
        },
        {
          "indexed": true,
          "internalType": "address",
          "name": "removed",
          "type": "address"
        },
        {
          "indexed": true,
          "internalType": "uint256",
          "name": "timestamp",
          "type": "uint256"
        }
      ],
      "name": "OwnerRemoved",
      "type": "event"
    },
    {
      "inputs": [
        {
          "internalType": "address",
          "name": "owner",
          "type": "address"
        }
      ],
      "name": "addOwner",
      "outputs": [],
      "stateMutability": "nonpayable",
      "type": "function"
    },
    {
      "inputs": [],
      "name": "getOwners",
      "outputs": [
        {
          "internalType": "address[]",
          "name": "",
          "type": "address[]"
        }
      ],
      "stateMutability": "view",
      "type": "function",
      "constant": true
    },
    {
      "inputs": [
        {
          "internalType": "address",
          "name": "owner",
          "type": "address"
        }
      ],
      "name": "isOwner",
      "outputs": [
        {
          "internalType": "bool",
          "name": "",
          "type": "bool"
        }
      ],
      "stateMutability": "view",
      "type": "function",
      "constant": true
    },
    {
      "inputs": [],
      "name": "isPaused",
      "outputs": [
        {
          "internalType": "bool",
          "name": "",
          "type": "bool"
        }
      ],
      "stateMutability": "view",
      "type": "function",
      "constant": true
    },
    {
      "inputs": [
        {
          "internalType": "address",
          "name": "owner",
          "type": "address"
        }
      ],
      "name": "removeOwner",
      "outputs": [],
      "stateMutability": "nonpayable",
      "type": "function"
    },
    {
      "inputs": [
        {
          "internalType": "bool",
          "name": "newPaused",
          "type": "bool"
        }
      ],
      "name": "setIsPaused",
      "outputs": [],
      "stateMutability": "nonpayable",
      "type": "function"
    },
    {
      "inputs": [
        {
          "internalType": "address",
          "name": "newNftAddress",
          "type": "address"
        }
      ],
      "name": "setNftAddress",
      "outputs": [],
      "stateMutability": "nonpayable",
      "type": "function"
    },
    {
      "inputs": [
        {
          "internalType": "address",
          "name": "newTokenAddress",
          "type": "address"
        }
      ],
      "name": "setTokenAddress",
      "outputs": [],
      "stateMutability": "nonpayable",
      "type": "function"
    }
  ],
  "bytecode": "0x60806040526002805460ff1916905534801561001a57600080fd5b50336100775760405162461bcd60e51b815260206004820152602260248201527f43616e277420696e697469616c697a652077697468207a65726f206164647265604482015261737360f01b606482015260840160405180910390fd5b336000818152602081905260408120805460ff191660019081179091558054808201825591527fb10e2d527612073b26eecdfd717e6a320cf44b4afac2b0732d9fcbe2b7fa0cf60180546001600160a01b0319169091179055610730806100df6000396000f3fe608060405234801561001057600080fd5b50600436106100885760003560e01c80632f54bf6e1161005b5780632f54bf6e146100db5780637065cb481461011c578063a0e67e2b1461012f578063b187bd261461014457600080fd5b80630b102d1a1461008d578063173825d9146100a2578063240976bf146100b557806326a4e8d2146100c8575b600080fd5b6100a061009b36600461059f565b610151565b005b6100a06100b036600461059f565b6101b6565b6100a06100c33660046105cf565b6103dc565b6100a06100d636600461059f565b610423565b6101076100e936600461059f565b6001600160a01b031660009081526020819052604090205460ff1690565b60405190151581526020015b60405180910390f35b6100a061012a36600461059f565b610479565b61013761053d565b60405161011391906105f1565b6002546101079060ff1681565b3360009081526020819052604090205460ff16151560011461018e5760405162461bcd60e51b81526004016101859061063e565b60405180910390fd5b600280546001600160a01b0390921661010002610100600160a81b0319909216919091179055565b3360009081526020819052604090205460ff1615156001146101ea5760405162461bcd60e51b81526004016101859061063e565b6001600160a01b03811660009081526020819052604090205460ff1615156001146102575760405162461bcd60e51b815260206004820152601760248201527f41646472657373206973206e6f7420616e206f776e65720000000000000000006044820152606401610185565b60005b6001548110156103d857816001600160a01b0316600182815481106102815761028161066e565b6000918252602090912001546001600160a01b031614156103c6576001600160a01b0382166000908152602081905260409020805460ff19169055805b600180546102cc919061069a565b8110156103565760016102df83826106b1565b815481106102ef576102ef61066e565b600091825260209091200154600180546001600160a01b03909216918490811061031b5761031b61066e565b600091825260209091200180546001600160a01b0319166001600160a01b03929092169190911790558061034e816106c9565b9150506102be565b506001805480610368576103686106e4565b600082815260208120820160001990810180546001600160a01b031916905590910190915560405142916001600160a01b0385169133917fecc5dd9888b87e7ed252d66b9c086ab819de6c8f8b96c8e5458e105bacfbb02791a45050565b806103d0816106c9565b91505061025a565b5050565b3360009081526020819052604090205460ff1615156001146104105760405162461bcd60e51b81526004016101859061063e565b6002805460ff1916911515919091179055565b3360009081526020819052604090205460ff1615156001146104575760405162461bcd60e51b81526004016101859061063e565b600380546001600160a01b0319166001600160a01b0392909216919091179055565b3360009081526020819052604090205460ff1615156001146104ad5760405162461bcd60e51b81526004016101859061063e565b6001600160a01b038116600081815260208190526040808220805460ff19166001908117909155805480820182559083527fb10e2d527612073b26eecdfd717e6a320cf44b4afac2b0732d9fcbe2b7fa0cf60180546001600160a01b031916841790555142929133917fa0b18fca933618876351ba2ef88bf4505c184d3e55064bec0d7fe236dd706d849190a450565b6060600180548060200260200160405190810160405280929190818152602001828054801561059557602002820191906000526020600020905b81546001600160a01b03168152600190910190602001808311610577575b5050505050905090565b6000602082840312156105b157600080fd5b81356001600160a01b03811681146105c857600080fd5b9392505050565b6000602082840312156105e157600080fd5b813580151581146105c857600080fd5b6020808252825182820181905260009190848201906040850190845b818110156106325783516001600160a01b03168352928401929184019160010161060d565b50909695505050505050565b60208082526016908201527521b0b63632b91034b9903737ba1030b71037bbb732b960511b604082015260600190565b634e487b7160e01b600052603260045260246000fd5b634e487b7160e01b600052601160045260246000fd5b6000828210156106ac576106ac610684565b500390565b600082198211156106c4576106c4610684565b500190565b60006000198214156106dd576106dd610684565b5060010190565b634e487b7160e01b600052603160045260246000fdfea2646970667358221220f1e77859eb0c4c3922a85994cef826ea967f94a24b84ab798fdf34967c47db0e64736f6c634300080b0033",
  "immutableReferences": {},
  "source": "// SPDX-License-Identifier: MIT\n\npragma solidity >=0.4.22 <0.9.0;\n\nimport \"./PauseOwners.sol\";\nimport \"./NFT.sol\";\nimport \"./Token.sol\";\n\ncontract Game is PauseOwners {\n\tNFT private nft;\n\tToken private token;\n\n\tfunction setNftAddress(address newNftAddress) external onlyOwners {\n\t\tnft = NFT(newNftAddress);\n\t}\n\n\tfunction setTokenAddress(address newTokenAddress) external onlyOwners {\n\t\ttoken = Token(payable(newTokenAddress));\n\t}\n}\n",
  "sourcePath": "C:\\Users\\sants\\Desktop\\slimekeeper\\slimekeeper_contracts\\contracts\\Game.sol",
  "compiler": {
    "name": "solc",
    "version": "0.8.11+commit.d7f03943.Emscripten.clang"
  },
  "schemaVersion": "3.4.4",
  "updatedAt": "2022-02-20T21:33:15.575Z",
  "networkType": "ethereum",
  "devdoc": {
    "kind": "dev",
    "methods": {},
    "version": 1
  },
  "userdoc": {
    "kind": "user",
    "methods": {},
    "version": 1
  }
}