{
  "contractName": "Game",
  "abi": [
    {
      "anonymous": false,
      "inputs": [
        {
          "indexed": true,
          "internalType": "address",
          "name": "adder",
          "type": "address"
        },
        {
          "indexed": true,
          "internalType": "address",
          "name": "owner",
          "type": "address"
        },
        {
          "indexed": true,
          "internalType": "uint256",
          "name": "timestamp",
          "type": "uint256"
        }
      ],
      "name": "OwnerAdded",
      "type": "event"
    },
    {
      "anonymous": false,
      "inputs": [
        {
          "indexed": true,
          "internalType": "address",
          "name": "remover",
          "type": "address"
        },
        {
          "indexed": true,
          "internalType": "address",
          "name": "owner",
          "type": "address"
        },
        {
          "indexed": true,
          "internalType": "uint256",
          "name": "timestamp",
          "type": "uint256"
        }
      ],
      "name": "OwnerRemoved",
      "type": "event"
    },
    {
      "anonymous": false,
      "inputs": [
        {
          "indexed": false,
          "internalType": "uint256",
          "name": "timestamp",
          "type": "uint256"
        }
      ],
      "name": "OwnershipRenounced",
      "type": "event"
    },
    {
      "inputs": [
        {
          "internalType": "address",
          "name": "owner",
          "type": "address"
        }
      ],
      "name": "addOwner",
      "outputs": [],
      "stateMutability": "nonpayable",
      "type": "function"
    },
    {
      "inputs": [],
      "name": "getOwners",
      "outputs": [
        {
          "internalType": "address[]",
          "name": "",
          "type": "address[]"
        }
      ],
      "stateMutability": "view",
      "type": "function"
    },
    {
      "inputs": [
        {
          "internalType": "address",
          "name": "owner",
          "type": "address"
        }
      ],
      "name": "isOwner",
      "outputs": [
        {
          "internalType": "bool",
          "name": "",
          "type": "bool"
        }
      ],
      "stateMutability": "view",
      "type": "function"
    },
    {
      "inputs": [],
      "name": "isPaused",
      "outputs": [
        {
          "internalType": "bool",
          "name": "",
          "type": "bool"
        }
      ],
      "stateMutability": "view",
      "type": "function"
    },
    {
      "inputs": [
        {
          "internalType": "address",
          "name": "owner",
          "type": "address"
        }
      ],
      "name": "removeOwner",
      "outputs": [],
      "stateMutability": "nonpayable",
      "type": "function"
    },
    {
      "inputs": [],
      "name": "renounceOwnership",
      "outputs": [],
      "stateMutability": "nonpayable",
      "type": "function"
    },
    {
      "inputs": [],
      "name": "renounced",
      "outputs": [
        {
          "internalType": "bool",
          "name": "",
          "type": "bool"
        }
      ],
      "stateMutability": "view",
      "type": "function"
    },
    {
      "inputs": [
        {
          "internalType": "bool",
          "name": "isPaused_",
          "type": "bool"
        }
      ],
      "name": "setIsPaused",
      "outputs": [],
      "stateMutability": "nonpayable",
      "type": "function"
    },
    {
      "inputs": [
        {
          "internalType": "address",
          "name": "nftAddress",
          "type": "address"
        },
        {
          "internalType": "address",
          "name": "tokenAddress",
          "type": "address"
        }
      ],
      "name": "setAddresses",
      "outputs": [],
      "stateMutability": "nonpayable",
      "type": "function"
    }
  ],
  "bytecode": "0x608060405234801561001057600080fd5b503361006d5760405162461bcd60e51b815260206004820152602260248201527f43616e277420696e697469616c697a652077697468207a65726f206164647265604482015261737360f01b606482015260840160405180910390fd5b60008054610100600160a81b0319163361010081029190911782558082526001602081905260408320805460ff1916821790556002805491820181559092527f405787fa12a823e0f2b7631cc41b3ba8828b3321ca811111fa75cd3aa3bb5ace90910180546001600160a01b0319169091179055610942806100f06000396000f3fe608060405234801561001057600080fd5b50600436106100835760003560e01c8063173825d914610088578063240976bf1461009d5780632f54bf6e146100b05780637065cb48146100f1578063715018a61461010457806390107afe1461010c578063a0e67e2b1461011f578063b187bd2614610134578063d232c22014610141575b600080fd5b61009b61009636600461075f565b61014e565b005b61009b6100ab366004610781565b610456565b6100dc6100be36600461075f565b6001600160a01b031660009081526001602052604090205460ff1690565b60405190151581526020015b60405180910390f35b61009b6100ff36600461075f565b6104bb565b61009b61059e565b61009b61011a3660046107a3565b610657565b6101276106e1565b6040516100e891906107d6565b6003546100dc9060ff1681565b6000546100dc9060ff1681565b60005460ff161561017a5760405162461bcd60e51b815260040161017190610823565b60405180910390fd5b3360009081526001602052604090205460ff166101a95760405162461bcd60e51b815260040161017190610850565b6001600160a01b03811660009081526001602052604090205460ff1661020b5760405162461bcd60e51b815260206004820152601760248201527620b2323932b9b99034b9903737ba1030b71037bbb732b960491b6044820152606401610171565b60005461010090046001600160a01b031633141561026b5760405162461bcd60e51b815260206004820152601d60248201527f4d6173746572206f776e65722063616e27742062652072656d6f7665640000006044820152606401610171565b60025460005b6002548110156103f257826001600160a01b03166002828154811061029857610298610880565b6000918252602090912001546001600160a01b031614156103e0576001600160a01b0383166000908152600160205260409020805460ff19169055805b6002546102e4906001906108ac565b81101561036f5760026102f88360016108c3565b8154811061030857610308610880565b600091825260209091200154600280546001600160a01b03909216918490811061033457610334610880565b600091825260209091200180546001600160a01b0319166001600160a01b039290921691909117905580610367816108db565b9150506102d5565b506002805480610381576103816108f6565b600082815260208120820160001990810180546001600160a01b031916905590910190915560405142916001600160a01b0386169133917fecc5dd9888b87e7ed252d66b9c086ab819de6c8f8b96c8e5458e105bacfbb02791a46103f2565b806103ea816108db565b915050610271565b506002548181106104515760405162461bcd60e51b8152602060048201526024808201527f536f6d657468696e672077656e742077726f6e672072656d6f76696e67206f776044820152636e65727360e01b6064820152608401610171565b505050565b60005460ff16156104795760405162461bcd60e51b815260040161017190610823565b3360009081526001602052604090205460ff166104a85760405162461bcd60e51b815260040161017190610850565b6003805460ff1916911515919091179055565b60005460ff16156104de5760405162461bcd60e51b815260040161017190610823565b3360009081526001602052604090205460ff1661050d5760405162461bcd60e51b815260040161017190610850565b6001600160a01b0381166000818152600160208190526040808320805460ff19168317905560028054928301815583527f405787fa12a823e0f2b7631cc41b3ba8828b3321ca811111fa75cd3aa3bb5ace90910180546001600160a01b031916841790555142929133917fa0b18fca933618876351ba2ef88bf4505c184d3e55064bec0d7fe236dd706d849190a450565b60005461010090046001600160a01b0316331461060e5760405162461bcd60e51b815260206004820152602860248201527f4f6e6c79206d6173746572206f776e65722063616e2072656e6f756e6365206f6044820152670776e6572736869760c41b6064820152608401610171565b6000805460ff191660011790556040517f7738dc8b7a10a5636dceada812073a582b717ce047d82cd0e4918662b2e7c7739061064d9042815260200190565b60405180910390a1565b60005460ff161561067a5760405162461bcd60e51b815260040161017190610823565b3360009081526001602052604090205460ff166106a95760405162461bcd60e51b815260040161017190610850565b60038054610100600160a81b0319166101006001600160a01b0394851602179055600480546001600160a01b03191691909216179055565b6060600280548060200260200160405190810160405280929190818152602001828054801561073957602002820191906000526020600020905b81546001600160a01b0316815260019091019060200180831161071b575b5050505050905090565b80356001600160a01b038116811461075a57600080fd5b919050565b60006020828403121561077157600080fd5b61077a82610743565b9392505050565b60006020828403121561079357600080fd5b8135801515811461077a57600080fd5b600080604083850312156107b657600080fd5b6107bf83610743565b91506107cd60208401610743565b90509250929050565b6020808252825182820181905260009190848201906040850190845b818110156108175783516001600160a01b0316835292840192918401916001016107f2565b50909695505050505050565b60208082526013908201527213dddb995c9cda1a5c081c995b9bdd5b98d959606a1b604082015260600190565b60208082526016908201527521b0b63632b91034b9903737ba1030b71037bbb732b960511b604082015260600190565b634e487b7160e01b600052603260045260246000fd5b634e487b7160e01b600052601160045260246000fd5b6000828210156108be576108be610896565b500390565b600082198211156108d6576108d6610896565b500190565b60006000198214156108ef576108ef610896565b5060010190565b634e487b7160e01b600052603160045260246000fdfea2646970667358221220e604fc7cd0893bdd6439bcb6b588bd0a9f2867d8dbcb69a4616bebc7bd6aff9164736f6c634300080b0033",
  "immutableReferences": {},
  "source": "// SPDX-License-Identifier: MIT\n// @boughtthetopkms on Telegram\n\npragma solidity >=0.4.22 <0.9.0;\n\nimport \"./PauseOwners.sol\";\nimport \"./NFT.sol\";\nimport \"./Token.sol\";\n\ncontract Game is PauseOwners {\n\tNFT private nft;\n\tToken private token;\n\n\tfunction setAddresses(address nftAddress, address tokenAddress)\n\t\texternal\n\t\tonlyOwners\n\t{\n\t\tnft = NFT(payable(nftAddress));\n\t\ttoken = Token(payable(tokenAddress));\n\t}\n}\n",
  "sourcePath": "C:\\Users\\sants\\Desktop\\slimekeeper\\slimekeeper_contracts\\contracts\\Game.sol",
  "compiler": {
    "name": "solc",
    "version": "0.8.11+commit.d7f03943.Emscripten.clang"
  },
  "schemaVersion": "3.4.5",
  "updatedAt": "2022-03-02T18:54:07.122Z",
  "devdoc": {
    "kind": "dev",
    "methods": {},
    "version": 1
  },
  "userdoc": {
    "kind": "user",
    "methods": {},
    "version": 1
  }
}