{
  "contractName": "NFT",
  "abi": [
    {
      "inputs": [],
      "stateMutability": "nonpayable",
      "type": "constructor"
    },
    {
      "anonymous": false,
      "inputs": [
        {
          "indexed": true,
          "internalType": "address",
          "name": "owner",
          "type": "address"
        },
        {
          "indexed": true,
          "internalType": "address",
          "name": "approved",
          "type": "address"
        },
        {
          "indexed": true,
          "internalType": "uint256",
          "name": "tokenId",
          "type": "uint256"
        }
      ],
      "name": "Approval",
      "type": "event"
    },
    {
      "anonymous": false,
      "inputs": [
        {
          "indexed": true,
          "internalType": "address",
          "name": "owner",
          "type": "address"
        },
        {
          "indexed": true,
          "internalType": "address",
          "name": "operator",
          "type": "address"
        },
        {
          "indexed": false,
          "internalType": "bool",
          "name": "approved",
          "type": "bool"
        }
      ],
      "name": "ApprovalForAll",
      "type": "event"
    },
    {
      "anonymous": false,
      "inputs": [
        {
          "indexed": false,
          "internalType": "address",
          "name": "claimer",
          "type": "address"
        },
        {
          "indexed": false,
          "internalType": "uint256",
          "name": "amount",
          "type": "uint256"
        },
        {
          "indexed": false,
          "internalType": "uint256",
          "name": "date",
          "type": "uint256"
        }
      ],
      "name": "Claimed",
      "type": "event"
    },
    {
      "anonymous": false,
      "inputs": [
        {
          "indexed": false,
          "internalType": "address",
          "name": "compounder",
          "type": "address"
        },
        {
          "indexed": false,
          "internalType": "uint256",
          "name": "amount",
          "type": "uint256"
        },
        {
          "indexed": false,
          "internalType": "uint256",
          "name": "date",
          "type": "uint256"
        }
      ],
      "name": "Compounded",
      "type": "event"
    },
    {
      "anonymous": false,
      "inputs": [
        {
          "indexed": false,
          "internalType": "address",
          "name": "minter",
          "type": "address"
        },
        {
          "indexed": false,
          "internalType": "uint256",
          "name": "amount",
          "type": "uint256"
        },
        {
          "indexed": false,
          "internalType": "uint256",
          "name": "date",
          "type": "uint256"
        }
      ],
      "name": "Minted",
      "type": "event"
    },
    {
      "anonymous": false,
      "inputs": [
        {
          "indexed": true,
          "internalType": "address",
          "name": "adder",
          "type": "address"
        },
        {
          "indexed": true,
          "internalType": "address",
          "name": "owner",
          "type": "address"
        },
        {
          "indexed": true,
          "internalType": "uint256",
          "name": "timestamp",
          "type": "uint256"
        }
      ],
      "name": "OwnerAdded",
      "type": "event"
    },
    {
      "anonymous": false,
      "inputs": [
        {
          "indexed": true,
          "internalType": "address",
          "name": "remover",
          "type": "address"
        },
        {
          "indexed": true,
          "internalType": "address",
          "name": "removed",
          "type": "address"
        },
        {
          "indexed": true,
          "internalType": "uint256",
          "name": "timestamp",
          "type": "uint256"
        }
      ],
      "name": "OwnerRemoved",
      "type": "event"
    },
    {
      "anonymous": false,
      "inputs": [
        {
          "indexed": true,
          "internalType": "address",
          "name": "from",
          "type": "address"
        },
        {
          "indexed": true,
          "internalType": "address",
          "name": "to",
          "type": "address"
        },
        {
          "indexed": true,
          "internalType": "uint256",
          "name": "tokenId",
          "type": "uint256"
        }
      ],
      "name": "Transfer",
      "type": "event"
    },
    {
      "inputs": [
        {
          "internalType": "address",
          "name": "owner",
          "type": "address"
        }
      ],
      "name": "addOwner",
      "outputs": [],
      "stateMutability": "nonpayable",
      "type": "function"
    },
    {
      "inputs": [],
      "name": "addressMax",
      "outputs": [
        {
          "internalType": "uint256",
          "name": "",
          "type": "uint256"
        }
      ],
      "stateMutability": "view",
      "type": "function",
      "constant": true
    },
    {
      "inputs": [
        {
          "internalType": "address",
          "name": "to",
          "type": "address"
        },
        {
          "internalType": "uint256",
          "name": "tokenId",
          "type": "uint256"
        }
      ],
      "name": "approve",
      "outputs": [],
      "stateMutability": "nonpayable",
      "type": "function"
    },
    {
      "inputs": [
        {
          "internalType": "address",
          "name": "owner",
          "type": "address"
        }
      ],
      "name": "balanceOf",
      "outputs": [
        {
          "internalType": "uint256",
          "name": "",
          "type": "uint256"
        }
      ],
      "stateMutability": "view",
      "type": "function",
      "constant": true
    },
    {
      "inputs": [
        {
          "internalType": "uint256",
          "name": "tokenId",
          "type": "uint256"
        }
      ],
      "name": "getApproved",
      "outputs": [
        {
          "internalType": "address",
          "name": "",
          "type": "address"
        }
      ],
      "stateMutability": "view",
      "type": "function",
      "constant": true
    },
    {
      "inputs": [],
      "name": "getOwners",
      "outputs": [
        {
          "internalType": "address[]",
          "name": "",
          "type": "address[]"
        }
      ],
      "stateMutability": "view",
      "type": "function",
      "constant": true
    },
    {
      "inputs": [
        {
          "internalType": "address",
          "name": "owner",
          "type": "address"
        },
        {
          "internalType": "address",
          "name": "operator",
          "type": "address"
        }
      ],
      "name": "isApprovedForAll",
      "outputs": [
        {
          "internalType": "bool",
          "name": "",
          "type": "bool"
        }
      ],
      "stateMutability": "view",
      "type": "function",
      "constant": true
    },
    {
      "inputs": [
        {
          "internalType": "address",
          "name": "owner",
          "type": "address"
        }
      ],
      "name": "isOwner",
      "outputs": [
        {
          "internalType": "bool",
          "name": "",
          "type": "bool"
        }
      ],
      "stateMutability": "view",
      "type": "function",
      "constant": true
    },
    {
      "inputs": [],
      "name": "isPaused",
      "outputs": [
        {
          "internalType": "bool",
          "name": "",
          "type": "bool"
        }
      ],
      "stateMutability": "view",
      "type": "function",
      "constant": true
    },
    {
      "inputs": [],
      "name": "maxTokenLevel",
      "outputs": [
        {
          "internalType": "uint256",
          "name": "",
          "type": "uint256"
        }
      ],
      "stateMutability": "view",
      "type": "function",
      "constant": true
    },
    {
      "inputs": [],
      "name": "mintPrice",
      "outputs": [
        {
          "internalType": "uint256",
          "name": "",
          "type": "uint256"
        }
      ],
      "stateMutability": "view",
      "type": "function",
      "constant": true
    },
    {
      "inputs": [],
      "name": "name",
      "outputs": [
        {
          "internalType": "string",
          "name": "",
          "type": "string"
        }
      ],
      "stateMutability": "view",
      "type": "function",
      "constant": true
    },
    {
      "inputs": [
        {
          "internalType": "uint256",
          "name": "tokenId",
          "type": "uint256"
        }
      ],
      "name": "ownerOf",
      "outputs": [
        {
          "internalType": "address",
          "name": "",
          "type": "address"
        }
      ],
      "stateMutability": "view",
      "type": "function",
      "constant": true
    },
    {
      "inputs": [
        {
          "internalType": "address",
          "name": "owner",
          "type": "address"
        }
      ],
      "name": "removeOwner",
      "outputs": [],
      "stateMutability": "nonpayable",
      "type": "function"
    },
    {
      "inputs": [],
      "name": "rewardDivisor",
      "outputs": [
        {
          "internalType": "uint256",
          "name": "",
          "type": "uint256"
        }
      ],
      "stateMutability": "view",
      "type": "function",
      "constant": true
    },
    {
      "inputs": [
        {
          "internalType": "address",
          "name": "from",
          "type": "address"
        },
        {
          "internalType": "address",
          "name": "to",
          "type": "address"
        },
        {
          "internalType": "uint256",
          "name": "tokenId",
          "type": "uint256"
        }
      ],
      "name": "safeTransferFrom",
      "outputs": [],
      "stateMutability": "nonpayable",
      "type": "function"
    },
    {
      "inputs": [
        {
          "internalType": "address",
          "name": "from",
          "type": "address"
        },
        {
          "internalType": "address",
          "name": "to",
          "type": "address"
        },
        {
          "internalType": "uint256",
          "name": "tokenId",
          "type": "uint256"
        },
        {
          "internalType": "bytes",
          "name": "_data",
          "type": "bytes"
        }
      ],
      "name": "safeTransferFrom",
      "outputs": [],
      "stateMutability": "nonpayable",
      "type": "function"
    },
    {
      "inputs": [
        {
          "internalType": "address",
          "name": "operator",
          "type": "address"
        },
        {
          "internalType": "bool",
          "name": "approved",
          "type": "bool"
        }
      ],
      "name": "setApprovalForAll",
      "outputs": [],
      "stateMutability": "nonpayable",
      "type": "function"
    },
    {
      "inputs": [
        {
          "internalType": "bool",
          "name": "newPaused",
          "type": "bool"
        }
      ],
      "name": "setIsPaused",
      "outputs": [],
      "stateMutability": "nonpayable",
      "type": "function"
    },
    {
      "inputs": [],
      "name": "supplyMax",
      "outputs": [
        {
          "internalType": "uint256",
          "name": "",
          "type": "uint256"
        }
      ],
      "stateMutability": "view",
      "type": "function",
      "constant": true
    },
    {
      "inputs": [],
      "name": "symbol",
      "outputs": [
        {
          "internalType": "string",
          "name": "",
          "type": "string"
        }
      ],
      "stateMutability": "view",
      "type": "function",
      "constant": true
    },
    {
      "inputs": [
        {
          "internalType": "uint256",
          "name": "index",
          "type": "uint256"
        }
      ],
      "name": "tokenByIndex",
      "outputs": [
        {
          "internalType": "uint256",
          "name": "",
          "type": "uint256"
        }
      ],
      "stateMutability": "view",
      "type": "function",
      "constant": true
    },
    {
      "inputs": [
        {
          "internalType": "address",
          "name": "owner",
          "type": "address"
        },
        {
          "internalType": "uint256",
          "name": "index",
          "type": "uint256"
        }
      ],
      "name": "tokenOfOwnerByIndex",
      "outputs": [
        {
          "internalType": "uint256",
          "name": "",
          "type": "uint256"
        }
      ],
      "stateMutability": "view",
      "type": "function",
      "constant": true
    },
    {
      "inputs": [],
      "name": "tokensPerLevel",
      "outputs": [
        {
          "internalType": "uint256",
          "name": "",
          "type": "uint256"
        }
      ],
      "stateMutability": "view",
      "type": "function",
      "constant": true
    },
    {
      "inputs": [
        {
          "internalType": "address",
          "name": "from",
          "type": "address"
        },
        {
          "internalType": "address",
          "name": "to",
          "type": "address"
        },
        {
          "internalType": "uint256",
          "name": "tokenId",
          "type": "uint256"
        }
      ],
      "name": "transferFrom",
      "outputs": [],
      "stateMutability": "nonpayable",
      "type": "function"
    },
    {
      "inputs": [
        {
          "internalType": "address",
          "name": "to",
          "type": "address"
        },
        {
          "internalType": "uint256",
          "name": "amount",
          "type": "uint256"
        }
      ],
      "name": "mint",
      "outputs": [],
      "stateMutability": "nonpayable",
      "type": "function"
    },
    {
      "inputs": [
        {
          "internalType": "uint256",
          "name": "tokenId",
          "type": "uint256"
        },
        {
          "internalType": "uint256",
          "name": "amountToken",
          "type": "uint256"
        }
      ],
      "name": "compound",
      "outputs": [],
      "stateMutability": "nonpayable",
      "type": "function"
    },
    {
      "inputs": [
        {
          "internalType": "uint256",
          "name": "tokenId",
          "type": "uint256"
        }
      ],
      "name": "claimReward",
      "outputs": [],
      "stateMutability": "nonpayable",
      "type": "function"
    },
    {
      "inputs": [
        {
          "internalType": "uint256",
          "name": "tokenId",
          "type": "uint256"
        }
      ],
      "name": "getReward",
      "outputs": [
        {
          "internalType": "uint256",
          "name": "",
          "type": "uint256"
        }
      ],
      "stateMutability": "view",
      "type": "function",
      "constant": true
    },
    {
      "inputs": [
        {
          "internalType": "uint256",
          "name": "level",
          "type": "uint256"
        }
      ],
      "name": "approxAPR",
      "outputs": [
        {
          "internalType": "uint256",
          "name": "",
          "type": "uint256"
        }
      ],
      "stateMutability": "view",
      "type": "function",
      "constant": true
    },
    {
      "inputs": [
        {
          "internalType": "uint256",
          "name": "time",
          "type": "uint256"
        },
        {
          "internalType": "uint256",
          "name": "level",
          "type": "uint256"
        }
      ],
      "name": "calculateReward",
      "outputs": [
        {
          "internalType": "uint256",
          "name": "",
          "type": "uint256"
        }
      ],
      "stateMutability": "view",
      "type": "function",
      "constant": true
    },
    {
      "inputs": [
        {
          "internalType": "uint256",
          "name": "tokenId",
          "type": "uint256"
        }
      ],
      "name": "getNFTData",
      "outputs": [
        {
          "internalType": "uint256",
          "name": "",
          "type": "uint256"
        },
        {
          "internalType": "uint256",
          "name": "",
          "type": "uint256"
        },
        {
          "internalType": "uint256",
          "name": "",
          "type": "uint256"
        },
        {
          "internalType": "uint256",
          "name": "",
          "type": "uint256"
        }
      ],
      "stateMutability": "view",
      "type": "function",
      "constant": true
    },
    {
      "inputs": [
        {
          "internalType": "uint256",
          "name": "newMax",
          "type": "uint256"
        }
      ],
      "name": "setAddressMax",
      "outputs": [],
      "stateMutability": "nonpayable",
      "type": "function"
    },
    {
      "inputs": [
        {
          "internalType": "uint256",
          "name": "newMax",
          "type": "uint256"
        }
      ],
      "name": "setSupplyMax",
      "outputs": [],
      "stateMutability": "nonpayable",
      "type": "function"
    },
    {
      "inputs": [
        {
          "internalType": "uint256",
          "name": "newPrice",
          "type": "uint256"
        }
      ],
      "name": "setMintPrice",
      "outputs": [],
      "stateMutability": "nonpayable",
      "type": "function"
    },
    {
      "inputs": [
        {
          "internalType": "uint256",
          "name": "newLevel",
          "type": "uint256"
        }
      ],
      "name": "setMaxTokenLevel",
      "outputs": [],
      "stateMutability": "nonpayable",
      "type": "function"
    },
    {
      "inputs": [
        {
          "internalType": "uint256",
          "name": "newTokensPerLevel",
          "type": "uint256"
        }
      ],
      "name": "setTokensPerLevel",
      "outputs": [],
      "stateMutability": "nonpayable",
      "type": "function"
    },
    {
      "inputs": [
        {
          "internalType": "uint256",
          "name": "newRewardDivisor",
          "type": "uint256"
        }
      ],
      "name": "setRewardDivisor",
      "outputs": [],
      "stateMutability": "nonpayable",
      "type": "function"
    },
    {
      "inputs": [
        {
          "internalType": "address",
          "name": "newTokenAddress",
          "type": "address"
        }
      ],
      "name": "setTokenAddress",
      "outputs": [],
      "stateMutability": "nonpayable",
      "type": "function"
    },
    {
      "inputs": [
        {
          "internalType": "string",
          "name": "newBaseURI",
          "type": "string"
        }
      ],
      "name": "setBaseUri",
      "outputs": [],
      "stateMutability": "nonpayable",
      "type": "function"
    },
    {
      "inputs": [],
      "name": "totalSupply",
      "outputs": [
        {
          "internalType": "uint256",
          "name": "",
          "type": "uint256"
        }
      ],
      "stateMutability": "view",
      "type": "function",
      "constant": true
    },
    {
      "inputs": [
        {
          "internalType": "uint256",
          "name": "tokenId",
          "type": "uint256"
        }
      ],
      "name": "tokenURI",
      "outputs": [
        {
          "internalType": "string",
          "name": "",
          "type": "string"
        }
      ],
      "stateMutability": "view",
      "type": "function",
      "constant": true
    },
    {
      "inputs": [
        {
          "internalType": "bytes4",
          "name": "interfaceId",
          "type": "bytes4"
        }
      ],
      "name": "supportsInterface",
      "outputs": [
        {
          "internalType": "bool",
          "name": "",
          "type": "bool"
        }
      ],
      "stateMutability": "view",
      "type": "function",
      "constant": true
    }
  ],
  "bytecode": "0x600d805460ff191690556005600e556103e8600f5560646010819055600a601155601255632920908060135560e06040526037608081815290620038f360a039805162000055916016916020909101906200017a565b503480156200006357600080fd5b5060408051808201825260038082526213919560ea1b602080840182815285518087019096529285528401528151919291620000a2916000916200017a565b508051620000b89060019060208401906200017a565b50505033620001185760405162461bcd60e51b815260206004820152602260248201527f43616e277420696e697469616c697a652077697468207a65726f206164647265604482015261737360f01b606482015260840160405180910390fd5b336000818152600b60205260408120805460ff19166001908117909155600c805491820181559091527fdf6966c971051c3d54ec59162606531493a51404a002842f56009d7e5cf4a8c70180546001600160a01b03191690911790556200025d565b828054620001889062000220565b90600052602060002090601f016020900481019282620001ac5760008555620001f7565b82601f10620001c757805160ff1916838001178555620001f7565b82800160010185558215620001f7579182015b82811115620001f7578251825591602001919060010190620001da565b506200020592915062000209565b5090565b5b808211156200020557600081556001016200020a565b600181811c908216806200023557607f821691505b602082108114156200025757634e487b7160e01b600052602260045260246000fd5b50919050565b613686806200026d6000396000f3fe608060405234801561001057600080fd5b50600436106102695760003560e01c80636352211e11610151578063aa29c331116100c3578063b88d4fde11610087578063b88d4fde14610559578063bff1208d1461056c578063c87b56dd1461057f578063e985e9c514610592578063f49c87e7146105ce578063f4a0a5281461050057600080fd5b8063aa29c33114610500578063aae64f8614610513578063ae169a5014610526578063b187bd2614610539578063b1de42021461054657600080fd5b806396636fe11161011557806396636fe1146104a0578063a0bcfc7f146104a9578063a0e67e2b146104bc578063a1a7a423146104d1578063a22cb465146104da578063a3db1105146104ed57600080fd5b80636352211e146104565780636817c76c146104695780637065cb481461047257806370a082311461048557806395d89b411461049857600080fd5b806318160ddd116101ea5780632f54bf6e116101ae5780632f54bf6e146103d55780632f745c591461040157806331bcbaed1461041457806340c10f191461041d57806342842e0e146104305780634f6ccce71461044357600080fd5b806318160ddd146103815780631c4b774b1461038957806323b872dd1461039c578063240976bf146103af57806326a4e8d2146103c257600080fd5b80630ad4c4f4116102315780630ad4c4f4146103025780630cef1fbf1461033557806313ed0846146103485780631632070c1461035b578063173825d91461036e57600080fd5b806301ffc9a71461026e57806304e275821461029657806306fdde03146102ad578063081812fc146102c2578063095ea7b3146102ed575b600080fd5b61028161027c366004612e40565b6105d7565b60405190151581526020015b60405180910390f35b61029f600f5481565b60405190815260200161028d565b6102b56105e8565b60405161028d9190612eb5565b6102d56102d0366004612ec8565b61067a565b6040516001600160a01b03909116815260200161028d565b6103006102fb366004612efd565b610707565b005b610315610310366004612ec8565b61081d565b60408051948552602085019390935291830152606082015260800161028d565b610300610343366004612ec8565b6108a4565b61029f610356366004612f27565b6108dd565b610300610369366004612ec8565b61097f565b61030061037c366004612f49565b6109b8565b61029f610be0565b61029f610397366004612ec8565b610bf0565b6103006103aa366004612f64565b610c7f565b6103006103bd366004612fae565b610cb0565b6103006103d0366004612f49565b610cf7565b6102816103e3366004612f49565b6001600160a01b03166000908152600b602052604090205460ff1690565b61029f61040f366004612efd565b610d4d565b61029f60125481565b61030061042b366004612efd565b610de3565b61030061043e366004612f64565b61134a565b61029f610451366004612ec8565b611365565b6102d5610464366004612ec8565b6113f8565b61029f60105481565b610300610480366004612f49565b61146f565b61029f610493366004612f49565b611534565b6102b56115bb565b61029f600e5481565b6103006104b7366004613057565b6115ca565b6104c4611611565b60405161028d91906130a0565b61029f60115481565b6103006104e83660046130ed565b611672565b6103006104fb366004612ec8565b61167d565b61030061050e366004612ec8565b6116b6565b61029f610521366004612ec8565b6116ef565b610300610534366004612ec8565b611780565b600d546102819060ff1681565b610300610554366004612ec8565b611add565b610300610567366004613124565b611b16565b61030061057a366004612f27565b611b4e565b6102b561058d366004612ec8565b61200a565b6102816105a03660046131a0565b6001600160a01b03918216600090815260056020908152604080832093909416825291909152205460ff1690565b61029f60135481565b60006105e282612015565b92915050565b6060600080546105f7906131d3565b80601f0160208091040260200160405190810160405280929190818152602001828054610623906131d3565b80156106705780601f1061064557610100808354040283529160200191610670565b820191906000526020600020905b81548152906001019060200180831161065357829003601f168201915b5050505050905090565b60006106858261203a565b6106eb5760405162461bcd60e51b815260206004820152602c60248201527f4552433732313a20617070726f76656420717565727920666f72206e6f6e657860448201526b34b9ba32b73a103a37b5b2b760a11b60648201526084015b60405180910390fd5b506000908152600460205260409020546001600160a01b031690565b6000610712826113f8565b9050806001600160a01b0316836001600160a01b031614156107805760405162461bcd60e51b815260206004820152602160248201527f4552433732313a20617070726f76616c20746f2063757272656e74206f776e656044820152603960f91b60648201526084016106e2565b336001600160a01b038216148061079c575061079c81336105a0565b61080e5760405162461bcd60e51b815260206004820152603860248201527f4552433732313a20617070726f76652063616c6c6572206973206e6f74206f7760448201527f6e6572206e6f7220617070726f76656420666f7220616c6c000000000000000060648201526084016106e2565b6108188383612057565b505050565b60008060008061082c8561203a565b6108785760405162461bcd60e51b815260206004820152601c60248201527f5468697320746f6b656e20494420646f6573206e6f742065786973740000000060448201526064016106e2565b505050600091825250601860205260409020805460018201546002830154600390930154919390929190565b336000908152600b602052604090205460ff1615156001146108d85760405162461bcd60e51b81526004016106e29061320e565b600f55565b601354601454604080516318160ddd60e01b81529051600093926001600160a01b0316916318160ddd9160048083019260209291908290030181865afa15801561092b573d6000803e3d6000fd5b505050506040513d601f19601f8201168201806040525081019061094f919061323e565b61095a84600161326d565b6109649086613285565b61096e9190613285565b61097891906132ba565b9392505050565b336000908152600b602052604090205460ff1615156001146109b35760405162461bcd60e51b81526004016106e29061320e565b601355565b336000908152600b602052604090205460ff1615156001146109ec5760405162461bcd60e51b81526004016106e29061320e565b6001600160a01b0381166000908152600b602052604090205460ff161515600114610a595760405162461bcd60e51b815260206004820152601760248201527f41646472657373206973206e6f7420616e206f776e657200000000000000000060448201526064016106e2565b60005b600c54811015610bdc57816001600160a01b0316600c8281548110610a8357610a836132ce565b6000918252602090912001546001600160a01b03161415610bca576001600160a01b0382166000908152600b60205260409020805460ff19169055805b600c54610acf906001906132e4565b811015610b5a57600c610ae383600161326d565b81548110610af357610af36132ce565b600091825260209091200154600c80546001600160a01b039092169184908110610b1f57610b1f6132ce565b600091825260209091200180546001600160a01b0319166001600160a01b039290921691909117905580610b52816132fb565b915050610ac0565b50600c805480610b6c57610b6c613316565b600082815260208120820160001990810180546001600160a01b031916905590910190915560405142916001600160a01b0385169133917fecc5dd9888b87e7ed252d66b9c086ab819de6c8f8b96c8e5458e105bacfbb02791a45050565b80610bd4816132fb565b915050610a5c565b5050565b6000610beb60155490565b905090565b6000610bfb8261203a565b610c475760405162461bcd60e51b815260206004820152601c60248201527f5468697320746f6b656e20494420646f6573206e6f742065786973740000000060448201526064016106e2565b60008281526018602052604081206003810154909190610c6790426132e4565b9050610c778183600001546108dd565b949350505050565b610c8933826120c5565b610ca55760405162461bcd60e51b81526004016106e29061332c565b6108188383836121ab565b336000908152600b602052604090205460ff161515600114610ce45760405162461bcd60e51b81526004016106e29061320e565b600d805460ff1916911515919091179055565b336000908152600b602052604090205460ff161515600114610d2b5760405162461bcd60e51b81526004016106e29061320e565b601480546001600160a01b0319166001600160a01b0392909216919091179055565b6000610d5883611534565b8210610dba5760405162461bcd60e51b815260206004820152602b60248201527f455243373231456e756d657261626c653a206f776e657220696e646578206f7560448201526a74206f6620626f756e647360a81b60648201526084016106e2565b506001600160a01b03919091166000908152600660209081526040808320938352929052205490565b336000908152600b602052604090205460ff16610e1d57600d5460ff1615610e1d5760405162461bcd60e51b81526004016106e29061337d565b600f54610e28610be0565b10610e755760405162461bcd60e51b815260206004820152601b60248201527f4d617820737570706c7920686173206265656e2072656163686564000000000060448201526064016106e2565b600e546001600160a01b038316600090815260176020526040902054610e9c90839061326d565b1115610ef55760405162461bcd60e51b815260206004820152602260248201527f4d6178206d696e7420657863656564656420666f722074686973206164647265604482015261737360f01b60648201526084016106e2565b600f546001600160a01b038316600090815260176020526040902054610f1c90839061326d565b1115610f745760405162461bcd60e51b815260206004820152602160248201527f54686973206d696e7420776f756c642065786365656420737570706c792063616044820152600760fc1b60648201526084016106e2565b6014546040805163313ce56760e01b815290516000926001600160a01b03169163313ce5679160048083019260209291908290030181865afa158015610fbe573d6000803e3d6000fd5b505050506040513d601f19601f82011682018060405250810190610fe291906133a6565b610fed90600a6134ad565b601054610ffa9084613285565b6110049190613285565b6014546040516370a0823160e01b815233600482015291925082916001600160a01b03909116906370a0823190602401602060405180830381865afa158015611051573d6000803e3d6000fd5b505050506040513d601f19601f82011682018060405250810190611075919061323e565b10156110bb5760405162461bcd60e51b8152602060048201526015602482015274546f6b656e2062616c616e636520746f6f206c6f7760581b60448201526064016106e2565b601454604051636eb1769f60e11b815233600482015230602482015282916001600160a01b03169063dd62ed3e90604401602060405180830381865afa158015611109573d6000803e3d6000fd5b505050506040513d601f19601f8201168201806040525081019061112d919061323e565b10156111725760405162461bcd60e51b81526020600482015260146024820152734e6f7420656e6f75676820616c6c6f77616e636560601b60448201526064016106e2565b4260005b8381101561120e57600061118960155490565b90506111958682612356565b6111a3818460016000612370565b60408051608081018252600080825260208083018781528385018381526060850189815287855260189093529490922092518355905160018301559151600282015590516003909101556111fb601580546001019055565b5080611206816132fb565b915050611176565b506001600160a01b0384166000908152601760205260408120805485929061123790849061326d565b90915550506014546040516323b872dd60e01b8152336004820152306024820152604481018490526001600160a01b03909116906323b872dd906064016020604051808303816000875af1158015611293573d6000803e3d6000fd5b505050506040513d601f19601f820116820180604052508101906112b791906134bc565b6112fa5760405162461bcd60e51b8152602060048201526014602482015273151bdad95b881c185e5b595b9d0819985a5b195960621b60448201526064016106e2565b604080516001600160a01b0386168152602081018590529081018290527f25b428dfde728ccfaddad7e29e4ac23c24ed7fd1a6e3e3f91894a9a073f5dfff9060600160405180910390a150505050565b61081883838360405180602001604052806000815250611b16565b600061137060085490565b82106113d35760405162461bcd60e51b815260206004820152602c60248201527f455243373231456e756d657261626c653a20676c6f62616c20696e646578206f60448201526b7574206f6620626f756e647360a01b60648201526084016106e2565b600882815481106113e6576113e66132ce565b90600052602060002001549050919050565b6000818152600260205260408120546001600160a01b0316806105e25760405162461bcd60e51b815260206004820152602960248201527f4552433732313a206f776e657220717565727920666f72206e6f6e657869737460448201526832b73a103a37b5b2b760b91b60648201526084016106e2565b336000908152600b602052604090205460ff1615156001146114a35760405162461bcd60e51b81526004016106e29061320e565b6001600160a01b0381166000818152600b6020526040808220805460ff19166001908117909155600c8054918201815583527fdf6966c971051c3d54ec59162606531493a51404a002842f56009d7e5cf4a8c70180546001600160a01b031916841790555142929133917fa0b18fca933618876351ba2ef88bf4505c184d3e55064bec0d7fe236dd706d849190a450565b60006001600160a01b03821661159f5760405162461bcd60e51b815260206004820152602a60248201527f4552433732313a2062616c616e636520717565727920666f7220746865207a65604482015269726f206164647265737360b01b60648201526084016106e2565b506001600160a01b031660009081526003602052604090205490565b6060600180546105f7906131d3565b336000908152600b602052604090205460ff1615156001146115fe5760405162461bcd60e51b81526004016106e29061320e565b8051610bdc906016906020840190612d8e565b6060600c80548060200260200160405190810160405280929190818152602001828054801561067057602002820191906000526020600020905b81546001600160a01b0316815260019091019060200180831161164b575050505050905090565b610bdc3383836123b5565b336000908152600b602052604090205460ff1615156001146116b15760405162461bcd60e51b81526004016106e29061320e565b601255565b336000908152600b602052604090205460ff1615156001146116ea5760405162461bcd60e51b81526004016106e29061320e565b601055565b601454604080516318160ddd60e01b815290516000926001600160a01b0316916318160ddd9160048083019260209291908290030181865afa158015611739573d6000803e3d6000fd5b505050506040513d601f19601f8201168201806040525081019061175d919061323e565b61176b6301e13380846108dd565b611776906064613285565b6105e291906132ba565b336000908152600b602052604090205460ff166117ba57600d5460ff16156117ba5760405162461bcd60e51b81526004016106e29061337d565b6117c38161203a565b61180f5760405162461bcd60e51b815260206004820152601760248201527f546f6b656e20494420646f6573206e6f7420657869737400000000000000000060448201526064016106e2565b33611819826113f8565b6001600160a01b03161461186f5760405162461bcd60e51b815260206004820152601e60248201527f53656e64657220646f6573206e6f74206f776e207468697320746f6b656e000060448201526064016106e2565b600061187a82610bf0565b90508015610bdc57600082815260186020526040908190204260039091015560145490516370a0823160e01b815230600482015282916001600160a01b0316906370a0823190602401602060405180830381865afa1580156118e0573d6000803e3d6000fd5b505050506040513d601f19601f82011682018060405250810190611904919061323e565b10156119655760405162461bcd60e51b815260206004820152602a60248201527f4e6f7420656e6f75676820636f6e747261637420746f6b656e2062616c616e636044820152696520746f20636c61696d60b01b60648201526084016106e2565b60145460405163095ea7b360e01b8152306004820152602481018390526001600160a01b039091169063095ea7b3906044016020604051808303816000875af11580156119b6573d6000803e3d6000fd5b505050506040513d601f19601f820116820180604052508101906119da91906134bc565b506014546040516323b872dd60e01b8152306004820152336024820152604481018390526001600160a01b03909116906323b872dd906064016020604051808303816000875af1158015611a32573d6000803e3d6000fd5b505050506040513d601f19601f82011682018060405250810190611a5691906134bc565b611a9a5760405162461bcd60e51b8152602060048201526015602482015274151bdad95b881d1c985b9cd9995c8819985a5b1959605a1b60448201526064016106e2565b6040805133815260208101839052428183015290517f987d620f307ff6b94d58743cb7a7509f24071586a77759b77c2d4e29f75a2f9a9181900360600190a15050565b336000908152600b602052604090205460ff161515600114611b115760405162461bcd60e51b81526004016106e29061320e565b600e55565b611b2033836120c5565b611b3c5760405162461bcd60e51b81526004016106e29061332c565b611b4884848484612484565b50505050565b336000908152600b602052604090205460ff16611b8857600d5460ff1615611b885760405162461bcd60e51b81526004016106e29061337d565b601460009054906101000a90046001600160a01b03166001600160a01b031663313ce5676040518163ffffffff1660e01b8152600401602060405180830381865afa158015611bdb573d6000803e3d6000fd5b505050506040513d601f19601f82011682018060405250810190611bff91906133a6565b611c0a90600a6134ad565b611c149082613285565b6014546040516370a0823160e01b815233600482015291925082916001600160a01b03909116906370a0823190602401602060405180830381865afa158015611c61573d6000803e3d6000fd5b505050506040513d601f19601f82011682018060405250810190611c85919061323e565b1015611ccb5760405162461bcd60e51b8152602060048201526015602482015274546f6b656e2062616c616e636520746f6f206c6f7760581b60448201526064016106e2565b601454604051636eb1769f60e11b815233600482015230602482015282916001600160a01b03169063dd62ed3e90604401602060405180830381865afa158015611d19573d6000803e3d6000fd5b505050506040513d601f19601f82011682018060405250810190611d3d919061323e565b1015611d825760405162461bcd60e51b81526020600482015260146024820152734e6f7420656e6f75676820616c6c6f77616e636560601b60448201526064016106e2565b611d8b82611780565b6000828152601860205260409020601154815410611deb5760405162461bcd60e51b815260206004820152601d60248201527f54686973204e465420697320616c7265616479206d6178206c6576656c00000060448201526064016106e2565b6014546040805163313ce56760e01b815290516000926001600160a01b03169163313ce5679160048083019260209291908290030181865afa158015611e35573d6000803e3d6000fd5b505050506040513d601f19601f82011682018060405250810190611e5991906133a6565b611e6490600a6134ad565b601254611e719190613285565b90506000838360020154611e85919061326d565b90506000611e9383836132ba565b905060006011548210611ed35783601154611eae9190613285565b611eb890846132e4565b9050611ec481846132e4565b60028601556011548555611ede565b600285018390558185555b611ef687866000015487600101548860020154612370565b6000611f0282886132e4565b6014546040516323b872dd60e01b8152336004820152306024820152604481018390529192506001600160a01b0316906323b872dd906064016020604051808303816000875af1158015611f5a573d6000803e3d6000fd5b505050506040513d601f19601f82011682018060405250810190611f7e91906134bc565b611fc15760405162461bcd60e51b8152602060048201526014602482015273151bdad95b881c185e5b595b9d0819985a5b195960621b60448201526064016106e2565b6040805133815260208101839052428183015290517f820cea42e8517cf1ec6d4e9db93909255f07c45f7eb0a7c7b5a0f8bdcfc2e5bf9181900360600190a15050505050505050565b60606105e2826124b7565b60006001600160e01b0319821663780e9d6360e01b14806105e257506105e282612619565b6000908152600260205260409020546001600160a01b0316151590565b600081815260046020526040902080546001600160a01b0319166001600160a01b038416908117909155819061208c826113f8565b6001600160a01b03167f8c5be1e5ebec7d5bd14f71427d1e84f3dd0314c0f7b2291e5b200ac8c7c3b92560405160405180910390a45050565b60006120d08261203a565b6121315760405162461bcd60e51b815260206004820152602c60248201527f4552433732313a206f70657261746f7220717565727920666f72206e6f6e657860448201526b34b9ba32b73a103a37b5b2b760a11b60648201526084016106e2565b600061213c836113f8565b9050806001600160a01b0316846001600160a01b031614806121775750836001600160a01b031661216c8461067a565b6001600160a01b0316145b80610c7757506001600160a01b0380821660009081526005602090815260408083209388168352929052205460ff16610c77565b826001600160a01b03166121be826113f8565b6001600160a01b0316146122265760405162461bcd60e51b815260206004820152602960248201527f4552433732313a207472616e73666572206f6620746f6b656e2074686174206960448201526839903737ba1037bbb760b91b60648201526084016106e2565b6001600160a01b0382166122885760405162461bcd60e51b8152602060048201526024808201527f4552433732313a207472616e7366657220746f20746865207a65726f206164646044820152637265737360e01b60648201526084016106e2565b612293838383612669565b61229e600082612057565b6001600160a01b03831660009081526003602052604081208054600192906122c79084906132e4565b90915550506001600160a01b03821660009081526003602052604081208054600192906122f590849061326d565b909155505060008181526002602052604080822080546001600160a01b0319166001600160a01b0386811691821790925591518493918716917fddf252ad1be2c89b69c2b068fc378daa952ba7f163c4a11628f55a4df523b3ef91a4505050565b610bdc828260405180602001604052806000815250612674565b611b488461237d856126a7565b612386856126a7565b61238f856126a7565b6040516020016123a1939291906134d9565b6040516020818303038152906040526127a5565b816001600160a01b0316836001600160a01b031614156124175760405162461bcd60e51b815260206004820152601960248201527f4552433732313a20617070726f766520746f2063616c6c65720000000000000060448201526064016106e2565b6001600160a01b03838116600081815260056020908152604080832094871680845294825291829020805460ff191686151590811790915591519182527f17307eab39ab6107e8899845ad3d59bd9653f200f220920489ca2b5937696c31910160405180910390a3505050565b61248f8484846121ab565b61249b84848484612830565b611b485760405162461bcd60e51b81526004016106e290613561565b60606124c28261203a565b6125285760405162461bcd60e51b815260206004820152603160248201527f45524337323155524953746f726167653a2055524920717565727920666f72206044820152703737b732bc34b9ba32b73a103a37b5b2b760791b60648201526084016106e2565b6000828152600a602052604081208054612541906131d3565b80601f016020809104026020016040519081016040528092919081815260200182805461256d906131d3565b80156125ba5780601f1061258f576101008083540402835291602001916125ba565b820191906000526020600020905b81548152906001019060200180831161259d57829003601f168201915b5050505050905060006125cb61292e565b90508051600014156125de575092915050565b8151156126105780826040516020016125f89291906135b3565b60405160208183030381529060405292505050919050565b610c778461293d565b60006001600160e01b031982166380ac58cd60e01b148061264a57506001600160e01b03198216635b5e139f60e01b145b806105e257506301ffc9a760e01b6001600160e01b03198316146105e2565b610818838383612a07565b61267e8383612abf565b61268b6000848484612830565b6108185760405162461bcd60e51b81526004016106e290613561565b6060816126cb5750506040805180820190915260018152600360fc1b602082015290565b8160005b81156126f557806126df816132fb565b91506126ee9050600a836132ba565b91506126cf565b60008167ffffffffffffffff81111561271057612710612fcb565b6040519080825280601f01601f19166020018201604052801561273a576020820181803683370190505b5090505b8415610c775761274f6001836132e4565b915061275c600a866135e2565b61276790603061326d565b60f81b81838151811061277c5761277c6132ce565b60200101906001600160f81b031916908160001a90535061279e600a866132ba565b945061273e565b6127ae8261203a565b6128115760405162461bcd60e51b815260206004820152602e60248201527f45524337323155524953746f726167653a2055524920736574206f66206e6f6e60448201526d32bc34b9ba32b73a103a37b5b2b760911b60648201526084016106e2565b6000828152600a60209081526040909120825161081892840190612d8e565b60006001600160a01b0384163b1561292357604051630a85bd0160e11b81526001600160a01b0385169063150b7a02906128749033908990889088906004016135f6565b6020604051808303816000875af19250505080156128af575060408051601f3d908101601f191682019092526128ac91810190613633565b60015b612909573d8080156128dd576040519150601f19603f3d011682016040523d82523d6000602084013e6128e2565b606091505b5080516129015760405162461bcd60e51b81526004016106e290613561565b805181602001fd5b6001600160e01b031916630a85bd0160e11b149050610c77565b506001949350505050565b6060601680546105f7906131d3565b60606129488261203a565b6129ac5760405162461bcd60e51b815260206004820152602f60248201527f4552433732314d657461646174613a2055524920717565727920666f72206e6f60448201526e3732bc34b9ba32b73a103a37b5b2b760891b60648201526084016106e2565b60006129b661292e565b905060008151116129d65760405180602001604052806000815250610978565b806129e0846126a7565b6040516020016129f19291906135b3565b6040516020818303038152906040529392505050565b6001600160a01b038316612a6257612a5d81600880546000838152600960205260408120829055600182018355919091527ff3f7a9fe364faab93b216da50a3214154f22a0a2b415b23a84c8169e8b636ee30155565b612a85565b816001600160a01b0316836001600160a01b031614612a8557612a858382612bfe565b6001600160a01b038216612a9c5761081881612c9b565b826001600160a01b0316826001600160a01b031614610818576108188282612d4a565b6001600160a01b038216612b155760405162461bcd60e51b815260206004820181905260248201527f4552433732313a206d696e7420746f20746865207a65726f206164647265737360448201526064016106e2565b612b1e8161203a565b15612b6b5760405162461bcd60e51b815260206004820152601c60248201527f4552433732313a20746f6b656e20616c7265616479206d696e7465640000000060448201526064016106e2565b612b7760008383612669565b6001600160a01b0382166000908152600360205260408120805460019290612ba090849061326d565b909155505060008181526002602052604080822080546001600160a01b0319166001600160a01b03861690811790915590518392907fddf252ad1be2c89b69c2b068fc378daa952ba7f163c4a11628f55a4df523b3ef908290a45050565b60006001612c0b84611534565b612c1591906132e4565b600083815260076020526040902054909150808214612c68576001600160a01b03841660009081526006602090815260408083208584528252808320548484528184208190558352600790915290208190555b5060009182526007602090815260408084208490556001600160a01b039094168352600681528383209183525290812055565b600854600090612cad906001906132e4565b60008381526009602052604081205460088054939450909284908110612cd557612cd56132ce565b906000526020600020015490508060088381548110612cf657612cf66132ce565b6000918252602080832090910192909255828152600990915260408082208490558582528120556008805480612d2e57612d2e613316565b6001900381819060005260206000200160009055905550505050565b6000612d5583611534565b6001600160a01b039093166000908152600660209081526040808320868452825280832085905593825260079052919091209190915550565b828054612d9a906131d3565b90600052602060002090601f016020900481019282612dbc5760008555612e02565b82601f10612dd557805160ff1916838001178555612e02565b82800160010185558215612e02579182015b82811115612e02578251825591602001919060010190612de7565b50612e0e929150612e12565b5090565b5b80821115612e0e5760008155600101612e13565b6001600160e01b031981168114612e3d57600080fd5b50565b600060208284031215612e5257600080fd5b813561097881612e27565b60005b83811015612e78578181015183820152602001612e60565b83811115611b485750506000910152565b60008151808452612ea1816020860160208601612e5d565b601f01601f19169290920160200192915050565b6020815260006109786020830184612e89565b600060208284031215612eda57600080fd5b5035919050565b80356001600160a01b0381168114612ef857600080fd5b919050565b60008060408385031215612f1057600080fd5b612f1983612ee1565b946020939093013593505050565b60008060408385031215612f3a57600080fd5b50508035926020909101359150565b600060208284031215612f5b57600080fd5b61097882612ee1565b600080600060608486031215612f7957600080fd5b612f8284612ee1565b9250612f9060208501612ee1565b9150604084013590509250925092565b8015158114612e3d57600080fd5b600060208284031215612fc057600080fd5b813561097881612fa0565b634e487b7160e01b600052604160045260246000fd5b600067ffffffffffffffff80841115612ffc57612ffc612fcb565b604051601f8501601f19908116603f0116810190828211818310171561302457613024612fcb565b8160405280935085815286868601111561303d57600080fd5b858560208301376000602087830101525050509392505050565b60006020828403121561306957600080fd5b813567ffffffffffffffff81111561308057600080fd5b8201601f8101841361309157600080fd5b610c7784823560208401612fe1565b6020808252825182820181905260009190848201906040850190845b818110156130e15783516001600160a01b0316835292840192918401916001016130bc565b50909695505050505050565b6000806040838503121561310057600080fd5b61310983612ee1565b9150602083013561311981612fa0565b809150509250929050565b6000806000806080858703121561313a57600080fd5b61314385612ee1565b935061315160208601612ee1565b925060408501359150606085013567ffffffffffffffff81111561317457600080fd5b8501601f8101871361318557600080fd5b61319487823560208401612fe1565b91505092959194509250565b600080604083850312156131b357600080fd5b6131bc83612ee1565b91506131ca60208401612ee1565b90509250929050565b600181811c908216806131e757607f821691505b6020821081141561320857634e487b7160e01b600052602260045260246000fd5b50919050565b60208082526016908201527521b0b63632b91034b9903737ba1030b71037bbb732b960511b604082015260600190565b60006020828403121561325057600080fd5b5051919050565b634e487b7160e01b600052601160045260246000fd5b6000821982111561328057613280613257565b500190565b600081600019048311821515161561329f5761329f613257565b500290565b634e487b7160e01b600052601260045260246000fd5b6000826132c9576132c96132a4565b500490565b634e487b7160e01b600052603260045260246000fd5b6000828210156132f6576132f6613257565b500390565b600060001982141561330f5761330f613257565b5060010190565b634e487b7160e01b600052603160045260246000fd5b60208082526031908201527f4552433732313a207472616e736665722063616c6c6572206973206e6f74206f6040820152701ddb995c881b9bdc88185c1c1c9bdd9959607a1b606082015260800190565b6020808252600f908201526e10dbdb9d1c9858dd081c185d5cd959608a1b604082015260600190565b6000602082840312156133b857600080fd5b815160ff8116811461097857600080fd5b600181815b808511156134045781600019048211156133ea576133ea613257565b808516156133f757918102915b93841c93908002906133ce565b509250929050565b60008261341b575060016105e2565b81613428575060006105e2565b816001811461343e576002811461344857613464565b60019150506105e2565b60ff84111561345957613459613257565b50506001821b6105e2565b5060208310610133831016604e8410600b8410161715613487575081810a6105e2565b61349183836133c9565b80600019048211156134a5576134a5613257565b029392505050565b600061097860ff84168361340c565b6000602082840312156134ce57600080fd5b815161097881612fa0565b656c6576656c3d60d01b8152600084516134fa816006850160208901612e5d565b6a266269727468446174653d60a81b6006918401918201528451613525816011840160208901612e5d565b6d266c6f636b6564416d6f756e743d60901b60119290910191820152835161355481601f840160208801612e5d565b01601f0195945050505050565b60208082526032908201527f4552433732313a207472616e7366657220746f206e6f6e20455243373231526560408201527131b2b4bb32b91034b6b83632b6b2b73a32b960711b606082015260800190565b600083516135c5818460208801612e5d565b8351908301906135d9818360208801612e5d565b01949350505050565b6000826135f1576135f16132a4565b500690565b6001600160a01b038581168252841660208201526040810183905260806060820181905260009061362990830184612e89565b9695505050505050565b60006020828403121561364557600080fd5b815161097881612e2756fea2646970667358221220b9434c61ebcb549425f49c03307cc3ed4b116b709c189af40a6c8b27cb311d0264736f6c634300080b003368747470733a2f2f736c696d656b65657065722d7765622d6465762e6865726f6b756170702e636f6d2f6170692f6e66742f646174613f",
  "immutableReferences": {},
  "source": "// SPDX-License-Identifier: MIT\n\npragma solidity >=0.4.22 <0.9.0;\n\nimport \"./PauseOwners.sol\";\nimport \"./Token.sol\";\nimport \"@openzeppelin/contracts/token/ERC721/ERC721.sol\";\nimport \"@openzeppelin/contracts/token/ERC721/extensions/ERC721Enumerable.sol\";\nimport \"@openzeppelin/contracts/token/ERC721/extensions/ERC721URIStorage.sol\";\nimport \"@openzeppelin/contracts/utils/Counters.sol\";\nimport \"@openzeppelin/contracts/utils/Strings.sol\";\n\ncontract NFT is ERC721, ERC721Enumerable, ERC721URIStorage, PauseOwners {\n\tusing Counters for Counters.Counter;\n\tusing Strings for uint256;\n\n\tevent Minted(address minter, uint256 amount, uint256 date);\n\tevent Compounded(address compounder, uint256 amount, uint256 date);\n\tevent Claimed(address claimer, uint256 amount, uint256 date);\n\n\tuint256 public addressMax = 5; // Max NFTs per address\n\tuint256 public supplyMax = 1000; // Max total supply cap\n\tuint256 public mintPrice = 100; // Mint price of one NFT in tokens\n\tuint256 public maxTokenLevel = 10; // Amount of levels an individual NFT can be upgraded\n\tuint256 public tokensPerLevel = 100; // Amount of tokens needed to upgrade an NFT (one level)\n\tuint256 public rewardDivisor = 690000000; // Divisor variable for affecting token generation rate\n\n\tToken private token;\n\n\tCounters.Counter private tokenIds;\n\n\tstring private nftBaseURI =\n\t\t\"https://slimekeeper-web-dev.herokuapp.com/api/nft/data?\";\n\n\tmapping(address => uint256) private amountMinted;\n\tmapping(uint256 => NFTData) private nftData; // Store NFT Data for invidividual token\n\n\t// Represents in-game properties\n\tstruct NFTData {\n\t\tuint256 level; // Current level of NFT\n\t\tuint256 birthDate; // Date this NFT was minted\n\t\tuint256 lockedAmount; // Amount of tokens currently locked in this NFT\n\t\tuint256 lastClaimedDate; // Date last rewards were last claimed, if not claimed once, same as birth\n\n\t\t// Other in-game properties here and API configured to show them\n\t}\n\n\tconstructor() ERC721(\"NFT\", \"NFT\") {}\n\n\tfunction mint(address to, uint256 amount) public checkPaused {\n\t\trequire(totalSupply() < supplyMax, \"Max supply has been reached\");\n\t\trequire(\n\t\t\tamountMinted[to] + amount <= addressMax,\n\t\t\t\"Max mint exceeded for this address\"\n\t\t);\n\t\trequire(\n\t\t\tamountMinted[to] + amount <= supplyMax,\n\t\t\t\"This mint would exceed supply cap\"\n\t\t);\n\t\tuint256 totalMintPrice = amount * mintPrice * 10**token.decimals();\n\t\trequire(\n\t\t\ttoken.balanceOf(msg.sender) >= totalMintPrice,\n\t\t\t\"Token balance too low\"\n\t\t);\n\t\trequire(\n\t\t\ttoken.allowance(msg.sender, address(this)) >= totalMintPrice,\n\t\t\t\"Not enough allowance\"\n\t\t);\n\t\tuint256 birthDate = block.timestamp;\n\t\tfor (uint256 i = 0; i < amount; i++) {\n\t\t\tuint256 currTokenId = tokenIds.current();\n\t\t\t_safeMint(to, currTokenId);\n\t\t\tupdateTokenUri(currTokenId, birthDate, 1, 0);\n\t\t\tnftData[currTokenId] = NFTData({\n\t\t\t\tlevel: 0,\n\t\t\t\tbirthDate: birthDate,\n\t\t\t\tlockedAmount: 0,\n\t\t\t\tlastClaimedDate: birthDate\n\t\t\t});\n\t\t\ttokenIds.increment();\n\t\t}\n\t\tamountMinted[to] += amount;\n\t\trequire(\n\t\t\ttoken.transferFrom(msg.sender, address(this), totalMintPrice),\n\t\t\t\"Token payment failed\"\n\t\t);\n\t\temit Minted(to, amount, birthDate);\n\t}\n\n\tfunction compound(uint256 tokenId, uint256 amountToken) public checkPaused {\n\t\tamountToken *= 10**token.decimals();\n\t\trequire(\n\t\t\ttoken.balanceOf(msg.sender) >= amountToken,\n\t\t\t\"Token balance too low\"\n\t\t);\n\t\trequire(\n\t\t\ttoken.allowance(msg.sender, address(this)) >= amountToken,\n\t\t\t\"Not enough allowance\"\n\t\t);\n\t\tclaimReward(tokenId); // Claim before compounding\n\t\tNFTData storage data = nftData[tokenId];\n\t\trequire(data.level < maxTokenLevel, \"This NFT is already max level\");\n\t\tuint256 tokensPerLevelDecimals = tokensPerLevel * 10**token.decimals();\n\t\tuint256 newLocked = data.lockedAmount + amountToken;\n\t\tuint256 newLevel = newLocked / tokensPerLevelDecimals;\n\t\tuint256 excessAmount = 0;\n\t\tif (newLevel >= maxTokenLevel) {\n\t\t\texcessAmount = newLocked - (maxTokenLevel * tokensPerLevelDecimals);\n\t\t\tdata.lockedAmount = newLocked - excessAmount;\n\t\t\tdata.level = maxTokenLevel;\n\t\t} else {\n\t\t\tdata.lockedAmount = newLocked;\n\t\t\tdata.level = newLevel;\n\t\t}\n\t\tupdateTokenUri(tokenId, data.level, data.birthDate, data.lockedAmount);\n\t\tuint256 finalAmountToken = amountToken - excessAmount;\n\t\trequire(\n\t\t\ttoken.transferFrom(msg.sender, address(this), finalAmountToken),\n\t\t\t\"Token payment failed\"\n\t\t);\n\t\temit Compounded(msg.sender, finalAmountToken, block.timestamp);\n\t}\n\n\tfunction claimReward(uint256 tokenId) public checkPaused {\n\t\trequire(_exists(tokenId), \"Token ID does not exist\");\n\t\trequire(\n\t\t\townerOf(tokenId) == msg.sender,\n\t\t\t\"Sender does not own this token\"\n\t\t);\n\t\tuint256 amountReward = getReward(tokenId);\n\t\tif (amountReward > 0) {\n\t\t\tnftData[tokenId].lastClaimedDate = block.timestamp;\n\t\t\trequire(\n\t\t\t\ttoken.balanceOf(address(this)) >= amountReward,\n\t\t\t\t\"Not enough contract token balance to claim\"\n\t\t\t);\n\t\t\ttoken.approve(address(this), amountReward);\n\t\t\trequire(\n\t\t\t\ttoken.transferFrom(address(this), msg.sender, amountReward),\n\t\t\t\t\"Token transfer failed\"\n\t\t\t);\n\t\t\temit Claimed(msg.sender, amountReward, block.timestamp);\n\t\t}\n\t}\n\n\tfunction getReward(uint256 tokenId) public view returns (uint256) {\n\t\trequire(_exists(tokenId), \"This token ID does not exist\");\n\t\tNFTData storage data = nftData[tokenId];\n\t\tuint256 timeSinceLastClaim = block.timestamp - data.lastClaimedDate;\n\t\treturn calculateReward(timeSinceLastClaim, data.level);\n\t}\n\n\t// Return the approximate APR considering certain level\n\tfunction approxAPR(uint256 level) external view returns (uint256) {\n\t\treturn (calculateReward(365 days, level) * 100) / token.totalSupply();\n\t}\n\n\tfunction calculateReward(uint256 time, uint256 level)\n\t\tpublic\n\t\tview\n\t\treturns (uint256)\n\t{\n\t\treturn (time * (level + 1) * token.totalSupply()) / rewardDivisor;\n\t}\n\n\tfunction getNFTData(uint256 tokenId)\n\t\texternal\n\t\tview\n\t\treturns (\n\t\t\tuint256,\n\t\t\tuint256,\n\t\t\tuint256,\n\t\t\tuint256\n\t\t)\n\t{\n\t\trequire(_exists(tokenId), \"This token ID does not exist\");\n\t\tNFTData storage data = nftData[tokenId];\n\t\treturn (\n\t\t\tdata.level,\n\t\t\tdata.birthDate,\n\t\t\tdata.lockedAmount,\n\t\t\tdata.lastClaimedDate\n\t\t);\n\t}\n\n\tfunction setAddressMax(uint256 newMax) external onlyOwners {\n\t\taddressMax = newMax;\n\t}\n\n\tfunction setSupplyMax(uint256 newMax) external onlyOwners {\n\t\tsupplyMax = newMax;\n\t}\n\n\tfunction setMintPrice(uint256 newPrice) external onlyOwners {\n\t\tmintPrice = newPrice;\n\t}\n\n\tfunction setMaxTokenLevel(uint256 newLevel) external onlyOwners {\n\t\tmintPrice = newLevel;\n\t}\n\n\tfunction setTokensPerLevel(uint256 newTokensPerLevel) external onlyOwners {\n\t\ttokensPerLevel = newTokensPerLevel;\n\t}\n\n\tfunction setRewardDivisor(uint256 newRewardDivisor) external onlyOwners {\n\t\trewardDivisor = newRewardDivisor;\n\t}\n\n\tfunction setTokenAddress(address newTokenAddress) external onlyOwners {\n\t\ttoken = Token(payable(newTokenAddress));\n\t}\n\n\tfunction setBaseUri(string memory newBaseURI) external onlyOwners {\n\t\tnftBaseURI = newBaseURI;\n\t}\n\n\tfunction totalSupply() public view override returns (uint256) {\n\t\treturn tokenIds.current();\n\t}\n\n\tfunction updateTokenUri(\n\t\tuint256 tokenId,\n\t\tuint256 level,\n\t\tuint256 birthDate,\n\t\tuint256 lockedAmount\n\t) private {\n\t\t_setTokenURI(\n\t\t\ttokenId,\n\t\t\tstring(\n\t\t\t\tabi.encodePacked(\n\t\t\t\t\t\"level=\",\n\t\t\t\t\tlevel.toString(),\n\t\t\t\t\t\"&birthDate=\",\n\t\t\t\t\tbirthDate.toString(),\n\t\t\t\t\t\"&lockedAmount=\",\n\t\t\t\t\tlockedAmount.toString()\n\t\t\t\t)\n\t\t\t)\n\t\t);\n\t}\n\n\tfunction _baseURI() internal view override returns (string memory) {\n\t\treturn nftBaseURI;\n\t}\n\n\t// The following functions are overrides required by Solidity.\n\tfunction _beforeTokenTransfer(\n\t\taddress from,\n\t\taddress to,\n\t\tuint256 tokenId\n\t) internal override(ERC721, ERC721Enumerable) {\n\t\tsuper._beforeTokenTransfer(from, to, tokenId);\n\t}\n\n\tfunction _burn(uint256 tokenId)\n\t\tinternal\n\t\toverride(ERC721, ERC721URIStorage)\n\t{\n\t\tsuper._burn(tokenId);\n\t}\n\n\tfunction tokenURI(uint256 tokenId)\n\t\tpublic\n\t\tview\n\t\toverride(ERC721, ERC721URIStorage)\n\t\treturns (string memory)\n\t{\n\t\treturn super.tokenURI(tokenId);\n\t}\n\n\tfunction supportsInterface(bytes4 interfaceId)\n\t\tpublic\n\t\tview\n\t\toverride(ERC721, ERC721Enumerable)\n\t\treturns (bool)\n\t{\n\t\treturn super.supportsInterface(interfaceId);\n\t}\n}\n",
  "sourcePath": "C:\\Users\\sants\\Desktop\\slimekeeper\\slimekeeper_contracts\\contracts\\NFT.sol",
  "compiler": {
    "name": "solc",
    "version": "0.8.11+commit.d7f03943.Emscripten.clang"
  },
  "schemaVersion": "3.4.4",
  "updatedAt": "2022-02-20T21:33:15.593Z",
  "networkType": "ethereum",
  "devdoc": {
    "kind": "dev",
    "methods": {
      "approve(address,uint256)": {
        "details": "See {IERC721-approve}."
      },
      "balanceOf(address)": {
        "details": "See {IERC721-balanceOf}."
      },
      "getApproved(uint256)": {
        "details": "See {IERC721-getApproved}."
      },
      "isApprovedForAll(address,address)": {
        "details": "See {IERC721-isApprovedForAll}."
      },
      "name()": {
        "details": "See {IERC721Metadata-name}."
      },
      "ownerOf(uint256)": {
        "details": "See {IERC721-ownerOf}."
      },
      "safeTransferFrom(address,address,uint256)": {
        "details": "See {IERC721-safeTransferFrom}."
      },
      "safeTransferFrom(address,address,uint256,bytes)": {
        "details": "See {IERC721-safeTransferFrom}."
      },
      "setApprovalForAll(address,bool)": {
        "details": "See {IERC721-setApprovalForAll}."
      },
      "symbol()": {
        "details": "See {IERC721Metadata-symbol}."
      },
      "tokenByIndex(uint256)": {
        "details": "See {IERC721Enumerable-tokenByIndex}."
      },
      "tokenOfOwnerByIndex(address,uint256)": {
        "details": "See {IERC721Enumerable-tokenOfOwnerByIndex}."
      },
      "totalSupply()": {
        "details": "See {IERC721Enumerable-totalSupply}."
      },
      "transferFrom(address,address,uint256)": {
        "details": "See {IERC721-transferFrom}."
      }
    },
    "version": 1
  },
  "userdoc": {
    "kind": "user",
    "methods": {},
    "version": 1
  }
}