{
  "contractName": "NFT",
  "abi": [
    {
      "inputs": [],
      "stateMutability": "nonpayable",
      "type": "constructor"
    },
    {
      "anonymous": false,
      "inputs": [
        {
          "indexed": true,
          "internalType": "address",
          "name": "owner",
          "type": "address"
        },
        {
          "indexed": true,
          "internalType": "address",
          "name": "approved",
          "type": "address"
        },
        {
          "indexed": true,
          "internalType": "uint256",
          "name": "tokenId",
          "type": "uint256"
        }
      ],
      "name": "Approval",
      "type": "event"
    },
    {
      "anonymous": false,
      "inputs": [
        {
          "indexed": true,
          "internalType": "address",
          "name": "owner",
          "type": "address"
        },
        {
          "indexed": true,
          "internalType": "address",
          "name": "operator",
          "type": "address"
        },
        {
          "indexed": false,
          "internalType": "bool",
          "name": "approved",
          "type": "bool"
        }
      ],
      "name": "ApprovalForAll",
      "type": "event"
    },
    {
      "anonymous": false,
      "inputs": [
        {
          "indexed": false,
          "internalType": "address",
          "name": "claimer",
          "type": "address"
        },
        {
          "indexed": false,
          "internalType": "uint256",
          "name": "amount",
          "type": "uint256"
        },
        {
          "indexed": false,
          "internalType": "uint256",
          "name": "date",
          "type": "uint256"
        }
      ],
      "name": "Claimed",
      "type": "event"
    },
    {
      "anonymous": false,
      "inputs": [
        {
          "indexed": false,
          "internalType": "address",
          "name": "compounder",
          "type": "address"
        },
        {
          "indexed": false,
          "internalType": "uint256",
          "name": "amount",
          "type": "uint256"
        },
        {
          "indexed": false,
          "internalType": "uint256",
          "name": "date",
          "type": "uint256"
        }
      ],
      "name": "Compounded",
      "type": "event"
    },
    {
      "anonymous": false,
      "inputs": [
        {
          "indexed": false,
          "internalType": "address",
          "name": "minter",
          "type": "address"
        },
        {
          "indexed": false,
          "internalType": "uint256",
          "name": "amount",
          "type": "uint256"
        },
        {
          "indexed": false,
          "internalType": "uint256",
          "name": "date",
          "type": "uint256"
        }
      ],
      "name": "Minted",
      "type": "event"
    },
    {
      "anonymous": false,
      "inputs": [
        {
          "indexed": true,
          "internalType": "address",
          "name": "adder",
          "type": "address"
        },
        {
          "indexed": true,
          "internalType": "address",
          "name": "owner",
          "type": "address"
        },
        {
          "indexed": true,
          "internalType": "uint256",
          "name": "timestamp",
          "type": "uint256"
        }
      ],
      "name": "OwnerAdded",
      "type": "event"
    },
    {
      "anonymous": false,
      "inputs": [
        {
          "indexed": true,
          "internalType": "address",
          "name": "remover",
          "type": "address"
        },
        {
          "indexed": true,
          "internalType": "address",
          "name": "owner",
          "type": "address"
        },
        {
          "indexed": true,
          "internalType": "uint256",
          "name": "timestamp",
          "type": "uint256"
        }
      ],
      "name": "OwnerRemoved",
      "type": "event"
    },
    {
      "anonymous": false,
      "inputs": [
        {
          "indexed": false,
          "internalType": "uint256",
          "name": "timestamp",
          "type": "uint256"
        }
      ],
      "name": "OwnershipRenounced",
      "type": "event"
    },
    {
      "anonymous": false,
      "inputs": [
        {
          "indexed": true,
          "internalType": "address",
          "name": "from",
          "type": "address"
        },
        {
          "indexed": true,
          "internalType": "address",
          "name": "to",
          "type": "address"
        },
        {
          "indexed": true,
          "internalType": "uint256",
          "name": "tokenId",
          "type": "uint256"
        }
      ],
      "name": "Transfer",
      "type": "event"
    },
    {
      "inputs": [
        {
          "internalType": "address",
          "name": "owner",
          "type": "address"
        }
      ],
      "name": "addOwner",
      "outputs": [],
      "stateMutability": "nonpayable",
      "type": "function"
    },
    {
      "inputs": [],
      "name": "addressMax",
      "outputs": [
        {
          "internalType": "uint256",
          "name": "",
          "type": "uint256"
        }
      ],
      "stateMutability": "view",
      "type": "function"
    },
    {
      "inputs": [
        {
          "internalType": "address",
          "name": "to",
          "type": "address"
        },
        {
          "internalType": "uint256",
          "name": "tokenId",
          "type": "uint256"
        }
      ],
      "name": "approve",
      "outputs": [],
      "stateMutability": "nonpayable",
      "type": "function"
    },
    {
      "inputs": [
        {
          "internalType": "address",
          "name": "owner",
          "type": "address"
        }
      ],
      "name": "balanceOf",
      "outputs": [
        {
          "internalType": "uint256",
          "name": "",
          "type": "uint256"
        }
      ],
      "stateMutability": "view",
      "type": "function"
    },
    {
      "inputs": [
        {
          "internalType": "uint256",
          "name": "tokenId",
          "type": "uint256"
        }
      ],
      "name": "getApproved",
      "outputs": [
        {
          "internalType": "address",
          "name": "",
          "type": "address"
        }
      ],
      "stateMutability": "view",
      "type": "function"
    },
    {
      "inputs": [],
      "name": "getOwners",
      "outputs": [
        {
          "internalType": "address[]",
          "name": "",
          "type": "address[]"
        }
      ],
      "stateMutability": "view",
      "type": "function"
    },
    {
      "inputs": [
        {
          "internalType": "address",
          "name": "owner",
          "type": "address"
        },
        {
          "internalType": "address",
          "name": "operator",
          "type": "address"
        }
      ],
      "name": "isApprovedForAll",
      "outputs": [
        {
          "internalType": "bool",
          "name": "",
          "type": "bool"
        }
      ],
      "stateMutability": "view",
      "type": "function"
    },
    {
      "inputs": [
        {
          "internalType": "address",
          "name": "owner",
          "type": "address"
        }
      ],
      "name": "isOwner",
      "outputs": [
        {
          "internalType": "bool",
          "name": "",
          "type": "bool"
        }
      ],
      "stateMutability": "view",
      "type": "function"
    },
    {
      "inputs": [],
      "name": "isPaused",
      "outputs": [
        {
          "internalType": "bool",
          "name": "",
          "type": "bool"
        }
      ],
      "stateMutability": "view",
      "type": "function"
    },
    {
      "inputs": [],
      "name": "maxTokenLevel",
      "outputs": [
        {
          "internalType": "uint256",
          "name": "",
          "type": "uint256"
        }
      ],
      "stateMutability": "view",
      "type": "function"
    },
    {
      "inputs": [],
      "name": "mintPrice",
      "outputs": [
        {
          "internalType": "uint256",
          "name": "",
          "type": "uint256"
        }
      ],
      "stateMutability": "view",
      "type": "function"
    },
    {
      "inputs": [],
      "name": "name",
      "outputs": [
        {
          "internalType": "string",
          "name": "",
          "type": "string"
        }
      ],
      "stateMutability": "view",
      "type": "function"
    },
    {
      "inputs": [
        {
          "internalType": "uint256",
          "name": "tokenId",
          "type": "uint256"
        }
      ],
      "name": "ownerOf",
      "outputs": [
        {
          "internalType": "address",
          "name": "",
          "type": "address"
        }
      ],
      "stateMutability": "view",
      "type": "function"
    },
    {
      "inputs": [],
      "name": "presaleEnded",
      "outputs": [
        {
          "internalType": "bool",
          "name": "",
          "type": "bool"
        }
      ],
      "stateMutability": "view",
      "type": "function"
    },
    {
      "inputs": [],
      "name": "presalePaused",
      "outputs": [
        {
          "internalType": "bool",
          "name": "",
          "type": "bool"
        }
      ],
      "stateMutability": "view",
      "type": "function"
    },
    {
      "inputs": [],
      "name": "presalePrice",
      "outputs": [
        {
          "internalType": "uint256",
          "name": "",
          "type": "uint256"
        }
      ],
      "stateMutability": "view",
      "type": "function"
    },
    {
      "inputs": [],
      "name": "presaleSupply",
      "outputs": [
        {
          "internalType": "uint256",
          "name": "",
          "type": "uint256"
        }
      ],
      "stateMutability": "view",
      "type": "function"
    },
    {
      "inputs": [
        {
          "internalType": "address",
          "name": "owner",
          "type": "address"
        }
      ],
      "name": "removeOwner",
      "outputs": [],
      "stateMutability": "nonpayable",
      "type": "function"
    },
    {
      "inputs": [],
      "name": "renounceOwnership",
      "outputs": [],
      "stateMutability": "nonpayable",
      "type": "function"
    },
    {
      "inputs": [],
      "name": "renounced",
      "outputs": [
        {
          "internalType": "bool",
          "name": "",
          "type": "bool"
        }
      ],
      "stateMutability": "view",
      "type": "function"
    },
    {
      "inputs": [],
      "name": "rewardRatePercentage",
      "outputs": [
        {
          "internalType": "uint256",
          "name": "",
          "type": "uint256"
        }
      ],
      "stateMutability": "view",
      "type": "function"
    },
    {
      "inputs": [
        {
          "internalType": "address",
          "name": "from",
          "type": "address"
        },
        {
          "internalType": "address",
          "name": "to",
          "type": "address"
        },
        {
          "internalType": "uint256",
          "name": "tokenId",
          "type": "uint256"
        }
      ],
      "name": "safeTransferFrom",
      "outputs": [],
      "stateMutability": "nonpayable",
      "type": "function"
    },
    {
      "inputs": [
        {
          "internalType": "address",
          "name": "from",
          "type": "address"
        },
        {
          "internalType": "address",
          "name": "to",
          "type": "address"
        },
        {
          "internalType": "uint256",
          "name": "tokenId",
          "type": "uint256"
        },
        {
          "internalType": "bytes",
          "name": "_data",
          "type": "bytes"
        }
      ],
      "name": "safeTransferFrom",
      "outputs": [],
      "stateMutability": "nonpayable",
      "type": "function"
    },
    {
      "inputs": [
        {
          "internalType": "address",
          "name": "operator",
          "type": "address"
        },
        {
          "internalType": "bool",
          "name": "approved",
          "type": "bool"
        }
      ],
      "name": "setApprovalForAll",
      "outputs": [],
      "stateMutability": "nonpayable",
      "type": "function"
    },
    {
      "inputs": [
        {
          "internalType": "bool",
          "name": "isPaused_",
          "type": "bool"
        }
      ],
      "name": "setIsPaused",
      "outputs": [],
      "stateMutability": "nonpayable",
      "type": "function"
    },
    {
      "inputs": [],
      "name": "supplyMax",
      "outputs": [
        {
          "internalType": "uint256",
          "name": "",
          "type": "uint256"
        }
      ],
      "stateMutability": "view",
      "type": "function"
    },
    {
      "inputs": [],
      "name": "symbol",
      "outputs": [
        {
          "internalType": "string",
          "name": "",
          "type": "string"
        }
      ],
      "stateMutability": "view",
      "type": "function"
    },
    {
      "inputs": [
        {
          "internalType": "uint256",
          "name": "index",
          "type": "uint256"
        }
      ],
      "name": "tokenByIndex",
      "outputs": [
        {
          "internalType": "uint256",
          "name": "",
          "type": "uint256"
        }
      ],
      "stateMutability": "view",
      "type": "function"
    },
    {
      "inputs": [
        {
          "internalType": "address",
          "name": "owner",
          "type": "address"
        },
        {
          "internalType": "uint256",
          "name": "index",
          "type": "uint256"
        }
      ],
      "name": "tokenOfOwnerByIndex",
      "outputs": [
        {
          "internalType": "uint256",
          "name": "",
          "type": "uint256"
        }
      ],
      "stateMutability": "view",
      "type": "function"
    },
    {
      "inputs": [],
      "name": "tokensPerLevel",
      "outputs": [
        {
          "internalType": "uint256",
          "name": "",
          "type": "uint256"
        }
      ],
      "stateMutability": "view",
      "type": "function"
    },
    {
      "inputs": [
        {
          "internalType": "address",
          "name": "from",
          "type": "address"
        },
        {
          "internalType": "address",
          "name": "to",
          "type": "address"
        },
        {
          "internalType": "uint256",
          "name": "tokenId",
          "type": "uint256"
        }
      ],
      "name": "transferFrom",
      "outputs": [],
      "stateMutability": "nonpayable",
      "type": "function"
    },
    {
      "inputs": [
        {
          "internalType": "address",
          "name": "to",
          "type": "address"
        },
        {
          "internalType": "uint256",
          "name": "amount",
          "type": "uint256"
        }
      ],
      "name": "mintPresale",
      "outputs": [],
      "stateMutability": "payable",
      "type": "function"
    },
    {
      "inputs": [
        {
          "internalType": "address",
          "name": "to",
          "type": "address"
        },
        {
          "internalType": "uint256",
          "name": "amount",
          "type": "uint256"
        }
      ],
      "name": "mint",
      "outputs": [],
      "stateMutability": "nonpayable",
      "type": "function"
    },
    {
      "inputs": [
        {
          "internalType": "uint256",
          "name": "tokenId",
          "type": "uint256"
        },
        {
          "internalType": "uint256",
          "name": "amountToken",
          "type": "uint256"
        }
      ],
      "name": "compound",
      "outputs": [],
      "stateMutability": "nonpayable",
      "type": "function"
    },
    {
      "inputs": [
        {
          "internalType": "uint256",
          "name": "tokenId",
          "type": "uint256"
        }
      ],
      "name": "claimReward",
      "outputs": [],
      "stateMutability": "nonpayable",
      "type": "function"
    },
    {
      "inputs": [
        {
          "internalType": "uint256",
          "name": "tokenId",
          "type": "uint256"
        }
      ],
      "name": "getRewardAmount",
      "outputs": [
        {
          "internalType": "uint256",
          "name": "",
          "type": "uint256"
        }
      ],
      "stateMutability": "view",
      "type": "function"
    },
    {
      "inputs": [
        {
          "internalType": "uint256",
          "name": "timeInSeconds",
          "type": "uint256"
        },
        {
          "internalType": "uint256",
          "name": "tokenLevel",
          "type": "uint256"
        }
      ],
      "name": "calculateReward",
      "outputs": [
        {
          "internalType": "uint256",
          "name": "",
          "type": "uint256"
        }
      ],
      "stateMutability": "view",
      "type": "function"
    },
    {
      "inputs": [],
      "name": "claimPresaleETH",
      "outputs": [],
      "stateMutability": "nonpayable",
      "type": "function"
    },
    {
      "inputs": [
        {
          "internalType": "uint256",
          "name": "tokenId",
          "type": "uint256"
        }
      ],
      "name": "getNFTData",
      "outputs": [
        {
          "internalType": "uint256",
          "name": "",
          "type": "uint256"
        },
        {
          "internalType": "uint256",
          "name": "",
          "type": "uint256"
        },
        {
          "internalType": "uint256",
          "name": "",
          "type": "uint256"
        },
        {
          "internalType": "uint256",
          "name": "",
          "type": "uint256"
        }
      ],
      "stateMutability": "view",
      "type": "function"
    },
    {
      "inputs": [
        {
          "internalType": "uint256",
          "name": "addressMax_",
          "type": "uint256"
        }
      ],
      "name": "setAddressMax",
      "outputs": [],
      "stateMutability": "nonpayable",
      "type": "function"
    },
    {
      "inputs": [
        {
          "internalType": "uint256",
          "name": "supplyMax_",
          "type": "uint256"
        }
      ],
      "name": "setSupplyMax",
      "outputs": [],
      "stateMutability": "nonpayable",
      "type": "function"
    },
    {
      "inputs": [
        {
          "internalType": "uint256",
          "name": "mintPrice_",
          "type": "uint256"
        }
      ],
      "name": "setMintPrice",
      "outputs": [],
      "stateMutability": "nonpayable",
      "type": "function"
    },
    {
      "inputs": [
        {
          "internalType": "uint256",
          "name": "maxTokenLevel_",
          "type": "uint256"
        }
      ],
      "name": "setMaxTokenLevel",
      "outputs": [],
      "stateMutability": "nonpayable",
      "type": "function"
    },
    {
      "inputs": [
        {
          "internalType": "uint256",
          "name": "tokensPerLevel_",
          "type": "uint256"
        }
      ],
      "name": "setTokensPerLevel",
      "outputs": [],
      "stateMutability": "nonpayable",
      "type": "function"
    },
    {
      "inputs": [
        {
          "internalType": "uint256",
          "name": "rewardRatePercentage_",
          "type": "uint256"
        }
      ],
      "name": "setRewardRatePercentage",
      "outputs": [],
      "stateMutability": "nonpayable",
      "type": "function"
    },
    {
      "inputs": [
        {
          "internalType": "bool",
          "name": "presaleEnded_",
          "type": "bool"
        }
      ],
      "name": "setPresaleEnded",
      "outputs": [],
      "stateMutability": "nonpayable",
      "type": "function"
    },
    {
      "inputs": [
        {
          "internalType": "bool",
          "name": "presalePaused_",
          "type": "bool"
        }
      ],
      "name": "setPresalePaused",
      "outputs": [],
      "stateMutability": "nonpayable",
      "type": "function"
    },
    {
      "inputs": [
        {
          "internalType": "uint256",
          "name": "presaleSupply_",
          "type": "uint256"
        }
      ],
      "name": "setPresaleSupply",
      "outputs": [],
      "stateMutability": "nonpayable",
      "type": "function"
    },
    {
      "inputs": [
        {
          "internalType": "uint256",
          "name": "presalePrice_",
          "type": "uint256"
        }
      ],
      "name": "setPresalePrice",
      "outputs": [],
      "stateMutability": "nonpayable",
      "type": "function"
    },
    {
      "inputs": [
        {
          "internalType": "address",
          "name": "tokenAddress",
          "type": "address"
        },
        {
          "internalType": "address",
          "name": "rewardsAddress",
          "type": "address"
        }
      ],
      "name": "setAddresses",
      "outputs": [],
      "stateMutability": "nonpayable",
      "type": "function"
    },
    {
      "inputs": [
        {
          "internalType": "string",
          "name": "baseURI_",
          "type": "string"
        }
      ],
      "name": "setBaseUri",
      "outputs": [],
      "stateMutability": "nonpayable",
      "type": "function"
    },
    {
      "inputs": [],
      "name": "totalSupply",
      "outputs": [
        {
          "internalType": "uint256",
          "name": "",
          "type": "uint256"
        }
      ],
      "stateMutability": "view",
      "type": "function"
    },
    {
      "inputs": [
        {
          "internalType": "uint256",
          "name": "tokenId",
          "type": "uint256"
        }
      ],
      "name": "tokenURI",
      "outputs": [
        {
          "internalType": "string",
          "name": "",
          "type": "string"
        }
      ],
      "stateMutability": "view",
      "type": "function"
    },
    {
      "inputs": [
        {
          "internalType": "bytes4",
          "name": "interfaceId",
          "type": "bytes4"
        }
      ],
      "name": "supportsInterface",
      "outputs": [
        {
          "internalType": "bool",
          "name": "",
          "type": "bool"
        }
      ],
      "stateMutability": "view",
      "type": "function"
    }
  ],
  "bytecode": "0x6005600f556103e860105560646011819055600a60125560138190556101f46014556015805461ff0019166101001790556016556706f05b59d3b2000060175560e06040526037608081815290620042f260a03980516200006991601b9160209091019062000280565b503480156200007757600080fd5b5060408051808201825260038082526213919560ea1b602080840182815285518087019096529285528401528151919291620000b69160009162000280565b508051620000cc90600190602084019062000280565b505050336200012d5760405162461bcd60e51b815260206004820152602260248201527f43616e277420696e697469616c697a652077697468207a65726f206164647265604482015261737360f01b60648201526084015b60405180910390fd5b600b8054610100600160a81b031916336101008102919091179091556000818152600c60205260408120805460ff19166001908117909155600d8054808301825592527fd7b6990105719101dabeb77144f2a3385c8033acd3af97e9423a695e81ad1eb590910180546001600160a01b031916909217909155620001b190620001b7565b62000363565b600b5460ff16156200020c5760405162461bcd60e51b815260206004820152601360248201527f4f776e6572736869702072656e6f756e63656400000000000000000000000000604482015260640162000124565b336000908152600c602052604090205460ff166200026d5760405162461bcd60e51b815260206004820152601660248201527f43616c6c6572206973206e6f7420616e206f776e657200000000000000000000604482015260640162000124565b600e805460ff1916911515919091179055565b8280546200028e9062000326565b90600052602060002090601f016020900481019282620002b25760008555620002fd565b82601f10620002cd57805160ff1916838001178555620002fd565b82800160010185558215620002fd579182015b82811115620002fd578251825591602001919060010190620002e0565b506200030b9291506200030f565b5090565b5b808211156200030b576000815560010162000310565b600181811c908216806200033b57607f821691505b602082108114156200035d57634e487b7160e01b600052602260045260246000fd5b50919050565b613f7f80620003736000396000f3fe6080604052600436106102645760003560e01c80620e7fa81461026957806301ffc9a71461029257806304e27582146102c257806306fdde03146102d8578063081812fc146102fa578063095ea7b3146103275780630ad4c4f4146103495780630cef1fbf1461038957806313ed0846146103a9578063173825d9146103c9578063177f16b4146103e957806318160ddd146103ff5780631c5057171461041457806323b872dd14610434578063240976bf146104545780632f54bf6e146104745780632f745c591461049457806331bcbaed146104b45780633549345e146104ca57806340c10f19146104ea57806342842e0e1461050a5780634f6ccce71461052a5780636352211e1461054a5780636817c76c1461056a57806368d52b68146105805780637065cb481461059557806370a08231146105b5578063715018a6146105d557806373fac0e2146105ea57806390107afe1461060a57806395d89b411461062a57806396636fe11461063f578063a0bcfc7f14610655578063a0e67e2b14610675578063a1a7a42314610697578063a22cb465146106ad578063a3db1105146106cd578063a79fdbb4146106ed578063aa29c3311461070c578063ae169a501461072c578063b187bd261461074c578063b1de420214610766578063b3a196e914610786578063b88d4fde1461079c578063b96502cb146107bc578063bee53534146107dc578063bff1208d146107fc578063c84993af1461081c578063c87b56dd1461083c578063d232c2201461085c578063e4f20fb214610876578063e580b2b014610889578063e985e9c5146108a3578063f4a0a528146108c3575b600080fd5b34801561027557600080fd5b5061027f60175481565b6040519081526020015b60405180910390f35b34801561029e57600080fd5b506102b26102ad3660046135be565b6108e3565b6040519015158152602001610289565b3480156102ce57600080fd5b5061027f60105481565b3480156102e457600080fd5b506102ed6108f4565b6040516102899190613633565b34801561030657600080fd5b5061031a610315366004613646565b610986565b604051610289919061365f565b34801561033357600080fd5b5061034761034236600461368f565b610a13565b005b34801561035557600080fd5b50610369610364366004613646565b610b24565b604080519485526020850193909352918301526060820152608001610289565b34801561039557600080fd5b506103476103a4366004613646565b610baa565b3480156103b557600080fd5b5061027f6103c43660046136b9565b610c01565b3480156103d557600080fd5b506103476103e43660046136db565b610cc2565b3480156103f557600080fd5b5061027f60145481565b34801561040b57600080fd5b5061027f610fbc565b34801561042057600080fd5b5061034761042f366004613704565b610fcc565b34801561044057600080fd5b5061034761044f366004613721565b611031565b34801561046057600080fd5b5061034761046f366004613704565b611062565b34801561048057600080fd5b506102b261048f3660046136db565b6110c7565b3480156104a057600080fd5b5061027f6104af36600461368f565b6110e5565b3480156104c057600080fd5b5061027f60135481565b3480156104d657600080fd5b506103476104e5366004613646565b61117b565b3480156104f657600080fd5b5061034761050536600461368f565b6111d2565b34801561051657600080fd5b50610347610525366004613721565b6114c3565b34801561053657600080fd5b5061027f610545366004613646565b6114de565b34801561055657600080fd5b5061031a610565366004613646565b611571565b34801561057657600080fd5b5061027f60115481565b34801561058c57600080fd5b506103476115e8565b3480156105a157600080fd5b506103476105b03660046136db565b61171f565b3480156105c157600080fd5b5061027f6105d03660046136db565b611802565b3480156105e157600080fd5b50610347611889565b3480156105f657600080fd5b50610347610605366004613646565b611942565b34801561061657600080fd5b5061034761062536600461375d565b611999565b34801561063657600080fd5b506102ed611a19565b34801561064b57600080fd5b5061027f600f5481565b34801561066157600080fd5b5061034761067036600461381b565b611a28565b34801561068157600080fd5b5061068a611a91565b6040516102899190613863565b3480156106a357600080fd5b5061027f60125481565b3480156106b957600080fd5b506103476106c83660046138b0565b611af2565b3480156106d957600080fd5b506103476106e8366004613646565b611afd565b3480156106f957600080fd5b506015546102b290610100900460ff1681565b34801561071857600080fd5b50610347610727366004613646565b611b54565b34801561073857600080fd5b50610347610747366004613646565b611bab565b34801561075857600080fd5b50600e546102b29060ff1681565b34801561077257600080fd5b50610347610781366004613646565b611d09565b34801561079257600080fd5b5061027f60165481565b3480156107a857600080fd5b506103476107b73660046138e7565b611d60565b3480156107c857600080fd5b506103476107d7366004613646565b611d92565b3480156107e857600080fd5b506103476107f7366004613704565b611de9565b34801561080857600080fd5b506103476108173660046136b9565b611e55565b34801561082857600080fd5b5061027f610837366004613646565b6122d7565b34801561084857600080fd5b506102ed610857366004613646565b612358565b34801561086857600080fd5b50600b546102b29060ff1681565b61034761088436600461368f565b612363565b34801561089557600080fd5b506015546102b29060ff1681565b3480156108af57600080fd5b506102b26108be36600461375d565b612540565b3480156108cf57600080fd5b506103476108de366004613646565b61256e565b60006108ee826125c5565b92915050565b60606000805461090390613962565b80601f016020809104026020016040519081016040528092919081815260200182805461092f90613962565b801561097c5780601f106109515761010080835404028352916020019161097c565b820191906000526020600020905b81548152906001019060200180831161095f57829003601f168201915b5050505050905090565b6000610991826125ea565b6109f75760405162461bcd60e51b815260206004820152602c60248201527f4552433732313a20617070726f76656420717565727920666f72206e6f6e657860448201526b34b9ba32b73a103a37b5b2b760a11b60648201526084015b60405180910390fd5b506000908152600460205260409020546001600160a01b031690565b6000610a1e82611571565b9050806001600160a01b0316836001600160a01b03161415610a8c5760405162461bcd60e51b815260206004820152602160248201527f4552433732313a20617070726f76616c20746f2063757272656e74206f776e656044820152603960f91b60648201526084016109ee565b336001600160a01b0382161480610aa85750610aa88133612540565b610b155760405162461bcd60e51b815260206004820152603860248201527f4552433732313a20617070726f76652063616c6c6572206973206e6f74206f776044820152771b995c881b9bdc88185c1c1c9bdd995908199bdc88185b1b60421b60648201526084016109ee565b610b1f8383612607565b505050565b600080600080610b33856125ea565b610b7e5760405162461bcd60e51b815260206004820152601c60248201527b151a1a5cc81d1bdad95b88125108191bd95cc81b9bdd08195e1a5cdd60221b60448201526064016109ee565b505050600091825250601d60205260409020805460018201546002830154600390930154919390929190565b600b5460ff1615610bcd5760405162461bcd60e51b81526004016109ee9061399d565b336000908152600c602052604090205460ff16610bfc5760405162461bcd60e51b81526004016109ee906139ca565b601055565b6000806301e13380601860009054906101000a90046001600160a01b03166001600160a01b031663313ce5676040518163ffffffff1660e01b8152600401602060405180830381865afa158015610c5c573d6000803e3d6000fd5b505050506040513d601f19601f82011682018060405250810190610c8091906139fa565b610c8b90600a613b17565b610c959086613b26565b610c9f9190613b5b565b90508060145484610cb09190613b26565b610cba9190613b26565b949350505050565b600b5460ff1615610ce55760405162461bcd60e51b81526004016109ee9061399d565b336000908152600c602052604090205460ff16610d145760405162461bcd60e51b81526004016109ee906139ca565b6001600160a01b0381166000908152600c602052604090205460ff16610d765760405162461bcd60e51b815260206004820152601760248201527620b2323932b9b99034b9903737ba1030b71037bbb732b960491b60448201526064016109ee565b600b5461010090046001600160a01b0316331415610dd65760405162461bcd60e51b815260206004820152601d60248201527f4d6173746572206f776e65722063616e27742062652072656d6f76656400000060448201526064016109ee565b600d5460005b600d54811015610f5d57826001600160a01b0316600d8281548110610e0357610e03613b6f565b6000918252602090912001546001600160a01b03161415610f4b576001600160a01b0383166000908152600c60205260409020805460ff19169055805b600d54610e4f90600190613b85565b811015610eda57600d610e63836001613b9c565b81548110610e7357610e73613b6f565b600091825260209091200154600d80546001600160a01b039092169184908110610e9f57610e9f613b6f565b600091825260209091200180546001600160a01b0319166001600160a01b039290921691909117905580610ed281613bb4565b915050610e40565b50600d805480610eec57610eec613bcf565b600082815260208120820160001990810180546001600160a01b031916905590910190915560405142916001600160a01b0386169133917fecc5dd9888b87e7ed252d66b9c086ab819de6c8f8b96c8e5458e105bacfbb02791a4610f5d565b80610f5581613bb4565b915050610ddc565b50600d54818110610b1f5760405162461bcd60e51b8152602060048201526024808201527f536f6d657468696e672077656e742077726f6e672072656d6f76696e67206f776044820152636e65727360e01b60648201526084016109ee565b6000610fc7601a5490565b905090565b600b5460ff1615610fef5760405162461bcd60e51b81526004016109ee9061399d565b336000908152600c602052604090205460ff1661101e5760405162461bcd60e51b81526004016109ee906139ca565b6015805460ff1916911515919091179055565b61103b3382612675565b6110575760405162461bcd60e51b81526004016109ee90613be5565b610b1f838383612737565b600b5460ff16156110855760405162461bcd60e51b81526004016109ee9061399d565b336000908152600c602052604090205460ff166110b45760405162461bcd60e51b81526004016109ee906139ca565b600e805460ff1916911515919091179055565b6001600160a01b03166000908152600c602052604090205460ff1690565b60006110f083611802565b82106111525760405162461bcd60e51b815260206004820152602b60248201527f455243373231456e756d657261626c653a206f776e657220696e646578206f7560448201526a74206f6620626f756e647360a81b60648201526084016109ee565b506001600160a01b03919091166000908152600660209081526040808320938352929052205490565b600b5460ff161561119e5760405162461bcd60e51b81526004016109ee9061399d565b336000908152600c602052604090205460ff166111cd5760405162461bcd60e51b81526004016109ee906139ca565b601755565b336111dc816110c7565b61120357600e5460ff16156112035760405162461bcd60e51b81526004016109ee90613c36565b60105461120e610fbc565b106112595760405162461bcd60e51b815260206004820152601b60248201527a13585e081cdd5c1c1b1e481a185cc81899595b881c995858da1959602a1b60448201526064016109ee565b61126683836010546128cc565b6018546040805163313ce56760e01b815290516000926001600160a01b03169163313ce5679160048083019260209291908290030181865afa1580156112b0573d6000803e3d6000fd5b505050506040513d601f19601f820116820180604052508101906112d491906139fa565b6112df90600a613b17565b6011546112ec9085613b26565b6112f69190613b26565b6018546040516370a0823160e01b815291925082916001600160a01b03909116906370a082319061132b90339060040161365f565b602060405180830381865afa158015611348573d6000803e3d6000fd5b505050506040513d601f19601f8201168201806040525081019061136c9190613c5f565b101561138a5760405162461bcd60e51b81526004016109ee90613c78565b601854604051636eb1769f60e11b815282916001600160a01b03169063dd62ed3e906113bc9033903090600401613ca7565b602060405180830381865afa1580156113d9573d6000803e3d6000fd5b505050506040513d601f19601f820116820180604052508101906113fd9190613c5f565b101561141b5760405162461bcd60e51b81526004016109ee90613cc1565b61142584846129d2565b6018546019546040516323b872dd60e01b81526001600160a01b03928316926323b872dd9261145e923392909116908690600401613cef565b6020604051808303816000875af115801561147d573d6000803e3d6000fd5b505050506040513d601f19601f820116820180604052508101906114a19190613d13565b6114bd5760405162461bcd60e51b81526004016109ee90613d30565b50505050565b610b1f83838360405180602001604052806000815250611d60565b60006114e960085490565b821061154c5760405162461bcd60e51b815260206004820152602c60248201527f455243373231456e756d657261626c653a20676c6f62616c20696e646578206f60448201526b7574206f6620626f756e647360a01b60648201526084016109ee565b6008828154811061155f5761155f613b6f565b90600052602060002001549050919050565b6000818152600260205260408120546001600160a01b0316806108ee5760405162461bcd60e51b815260206004820152602960248201527f4552433732313a206f776e657220717565727920666f72206e6f6e657869737460448201526832b73a103a37b5b2b760b91b60648201526084016109ee565b600b5460ff161561160b5760405162461bcd60e51b81526004016109ee9061399d565b336000908152600c602052604090205460ff1661163a5760405162461bcd60e51b81526004016109ee906139ca565b60155460ff166116845760405162461bcd60e51b8152602060048201526015602482015274141c995cd85b19481b9bdd08195b991959081e595d605a1b60448201526064016109ee565b604051600090339047908381818185875af1925050503d80600081146116c6576040519150601f19603f3d011682016040523d82523d6000602084013e6116cb565b606091505b505090508061171c5760405162461bcd60e51b815260206004820152601d60248201527f536f6d657468696e672077656e742077726f6e6720636c61696d696e6700000060448201526064016109ee565b50565b600b5460ff16156117425760405162461bcd60e51b81526004016109ee9061399d565b336000908152600c602052604090205460ff166117715760405162461bcd60e51b81526004016109ee906139ca565b6001600160a01b0381166000818152600c6020526040808220805460ff19166001908117909155600d8054918201815583527fd7b6990105719101dabeb77144f2a3385c8033acd3af97e9423a695e81ad1eb50180546001600160a01b031916841790555142929133917fa0b18fca933618876351ba2ef88bf4505c184d3e55064bec0d7fe236dd706d849190a450565b60006001600160a01b03821661186d5760405162461bcd60e51b815260206004820152602a60248201527f4552433732313a2062616c616e636520717565727920666f7220746865207a65604482015269726f206164647265737360b01b60648201526084016109ee565b506001600160a01b031660009081526003602052604090205490565b600b5461010090046001600160a01b031633146118f95760405162461bcd60e51b815260206004820152602860248201527f4f6e6c79206d6173746572206f776e65722063616e2072656e6f756e6365206f6044820152670776e6572736869760c41b60648201526084016109ee565b600b805460ff191660011790556040517f7738dc8b7a10a5636dceada812073a582b717ce047d82cd0e4918662b2e7c773906119389042815260200190565b60405180910390a1565b600b5460ff16156119655760405162461bcd60e51b81526004016109ee9061399d565b336000908152600c602052604090205460ff166119945760405162461bcd60e51b81526004016109ee906139ca565b601455565b600b5460ff16156119bc5760405162461bcd60e51b81526004016109ee9061399d565b336000908152600c602052604090205460ff166119eb5760405162461bcd60e51b81526004016109ee906139ca565b601880546001600160a01b039384166001600160a01b03199182161790915560198054929093169116179055565b60606001805461090390613962565b600b5460ff1615611a4b5760405162461bcd60e51b81526004016109ee9061399d565b336000908152600c602052604090205460ff16611a7a5760405162461bcd60e51b81526004016109ee906139ca565b8051611a8d90601b90602084019061350f565b5050565b6060600d80548060200260200160405190810160405280929190818152602001828054801561097c57602002820191906000526020600020905b81546001600160a01b03168152600190910190602001808311611acb575050505050905090565b611a8d338383612ad4565b600b5460ff1615611b205760405162461bcd60e51b81526004016109ee9061399d565b336000908152600c602052604090205460ff16611b4f5760405162461bcd60e51b81526004016109ee906139ca565b601355565b600b5460ff1615611b775760405162461bcd60e51b81526004016109ee9061399d565b336000908152600c602052604090205460ff16611ba65760405162461bcd60e51b81526004016109ee906139ca565b601255565b33611bb5816110c7565b611bdc57600e5460ff1615611bdc5760405162461bcd60e51b81526004016109ee90613c36565b6000611be7836122d7565b905033611bf384611571565b6001600160a01b031614611c495760405162461bcd60e51b815260206004820152601e60248201527f53656e64657220646f6573206e6f74206f776e207468697320746f6b656e000060448201526064016109ee565b8015610b1f576000838152601d60205260409081902042600390910155601954905163f3fef3a360e01b8152336004820152602481018390526001600160a01b039091169063f3fef3a390604401600060405180830381600087803b158015611cb157600080fd5b505af1158015611cc5573d6000803e3d6000fd5b505050507f987d620f307ff6b94d58743cb7a7509f24071586a77759b77c2d4e29f75a2f9a338242604051611cfc93929190613d5e565b60405180910390a1505050565b600b5460ff1615611d2c5760405162461bcd60e51b81526004016109ee9061399d565b336000908152600c602052604090205460ff16611d5b5760405162461bcd60e51b81526004016109ee906139ca565b600f55565b611d6a3383612675565b611d865760405162461bcd60e51b81526004016109ee90613be5565b6114bd84848484612b9f565b600b5460ff1615611db55760405162461bcd60e51b81526004016109ee9061399d565b336000908152600c602052604090205460ff16611de45760405162461bcd60e51b81526004016109ee906139ca565b601655565b600b5460ff1615611e0c5760405162461bcd60e51b81526004016109ee9061399d565b336000908152600c602052604090205460ff16611e3b5760405162461bcd60e51b81526004016109ee906139ca565b601580549115156101000261ff0019909216919091179055565b33611e5f816110c7565b611e8657600e5460ff1615611e865760405162461bcd60e51b81526004016109ee90613c36565b601860009054906101000a90046001600160a01b03166001600160a01b031663313ce5676040518163ffffffff1660e01b8152600401602060405180830381865afa158015611ed9573d6000803e3d6000fd5b505050506040513d601f19601f82011682018060405250810190611efd91906139fa565b611f0890600a613b17565b611f129083613b26565b6018546040516370a0823160e01b815291935083916001600160a01b03909116906370a0823190611f4790339060040161365f565b602060405180830381865afa158015611f64573d6000803e3d6000fd5b505050506040513d601f19601f82011682018060405250810190611f889190613c5f565b1015611fa65760405162461bcd60e51b81526004016109ee90613c78565b601854604051636eb1769f60e11b815283916001600160a01b03169063dd62ed3e90611fd89033903090600401613ca7565b602060405180830381865afa158015611ff5573d6000803e3d6000fd5b505050506040513d601f19601f820116820180604052508101906120199190613c5f565b10156120375760405162461bcd60e51b81526004016109ee90613cc1565b61204083611bab565b6000838152601d602052604090206012548154106120a05760405162461bcd60e51b815260206004820152601d60248201527f54686973204e465420697320616c7265616479206d6178206c6576656c00000060448201526064016109ee565b6018546040805163313ce56760e01b815290516000926001600160a01b03169163313ce5679160048083019260209291908290030181865afa1580156120ea573d6000803e3d6000fd5b505050506040513d601f19601f8201168201806040525081019061210e91906139fa565b61211990600a613b17565b6013546121269190613b26565b90506000826000015460011461213d57600061213f565b815b85846002015461214f9190613b9c565b6121599190613b9c565b905060006121678383613b5b565b9050600060125482106121a757836012546121829190613b26565b61218c9084613b85565b90506121988184613b85565b600286015560125485556121b2565b600285018390558185555b604080516080810182528654815260018701546020820152600287015491810191909152600386015460608201526121eb908990612bd2565b60006121f78289613b85565b6018546019546040516323b872dd60e01b81529293506001600160a01b03918216926323b872dd926122329233929116908690600401613cef565b6020604051808303816000875af1158015612251573d6000803e3d6000fd5b505050506040513d601f19601f820116820180604052508101906122759190613d13565b6122915760405162461bcd60e51b81526004016109ee90613d30565b7f820cea42e8517cf1ec6d4e9db93909255f07c45f7eb0a7c7b5a0f8bdcfc2e5bf3382426040516122c493929190613d5e565b60405180910390a1505050505050505050565b60006122e2826125ea565b6123285760405162461bcd60e51b8152602060048201526017602482015276151bdad95b88125108191bd95cc81b9bdd08195e1a5cdd604a1b60448201526064016109ee565b6000828152601d6020526040812060038101549091906123489042613b85565b9050610cba818360000154610c01565b60606108ee82612c31565b60155460ff16156123b25760405162461bcd60e51b815260206004820152601960248201527850726573616c652068617320656e64656420616c726561647960381b60448201526064016109ee565b601554610100900460ff16156124055760405162461bcd60e51b8152602060048201526018602482015277141c995cd85b194818dd5c9c995b9d1b1e481c185d5cd95960421b60448201526064016109ee565b601654612410610fbc565b106124265750506015805460ff19166001179055565b61243382826016546128cc565b6000601754826124439190613b26565b90508034101561248d5760405162461bcd60e51b8152602060048201526015602482015274139bdd08195b9bdd59da08195d1a195c881cd95b9d605a1b60448201526064016109ee565b61249783836129d2565b60006124a38234613b85565b905080156114bd57604051600090339083908381818185875af1925050503d80600081146124ed576040519150601f19603f3d011682016040523d82523d6000602084013e6124f2565b606091505b50509050806125395760405162461bcd60e51b81526020600482015260136024820152721499599d5b99081d5b9cdd58d8d95cdcd99d5b606a1b60448201526064016109ee565b5050505050565b6001600160a01b03918216600090815260056020908152604080832093909416825291909152205460ff1690565b600b5460ff16156125915760405162461bcd60e51b81526004016109ee9061399d565b336000908152600c602052604090205460ff166125c05760405162461bcd60e51b81526004016109ee906139ca565b601155565b60006001600160e01b0319821663780e9d6360e01b14806108ee57506108ee82612d93565b6000908152600260205260409020546001600160a01b0316151590565b600081815260046020526040902080546001600160a01b0319166001600160a01b038416908117909155819061263c82611571565b6001600160a01b03167f8c5be1e5ebec7d5bd14f71427d1e84f3dd0314c0f7b2291e5b200ac8c7c3b92560405160405180910390a45050565b6000612680826125ea565b6126e15760405162461bcd60e51b815260206004820152602c60248201527f4552433732313a206f70657261746f7220717565727920666f72206e6f6e657860448201526b34b9ba32b73a103a37b5b2b760a11b60648201526084016109ee565b60006126ec83611571565b9050806001600160a01b0316846001600160a01b031614806127275750836001600160a01b031661271c84610986565b6001600160a01b0316145b80610cba5750610cba8185612540565b826001600160a01b031661274a82611571565b6001600160a01b0316146127ae5760405162461bcd60e51b815260206004820152602560248201527f4552433732313a207472616e736665722066726f6d20696e636f72726563742060448201526437bbb732b960d91b60648201526084016109ee565b6001600160a01b0382166128105760405162461bcd60e51b8152602060048201526024808201527f4552433732313a207472616e7366657220746f20746865207a65726f206164646044820152637265737360e01b60648201526084016109ee565b61281b838383612de3565b612826600082612607565b6001600160a01b038316600090815260036020526040812080546001929061284f908490613b85565b90915550506001600160a01b038216600090815260036020526040812080546001929061287d908490613b9c565b909155505060008181526002602052604080822080546001600160a01b0319166001600160a01b038681169182179092559151849391871691600080516020613f2a83398151915291a4505050565b600f546001600160a01b0384166000908152601c60205260409020546128f3908490613b9c565b111561294c5760405162461bcd60e51b815260206004820152602260248201527f4d6178206d696e7420657863656564656420666f722074686973206164647265604482015261737360f01b60648201526084016109ee565b6001600160a01b0383166000908152601c60205260409020548190612972908490613b9c565b1115610b1f5760405162461bcd60e51b815260206004820152602960248201527f54686973206d696e7420776f756c64206578636565642070726573616c65207360448201526807570706c79206361760bc1b60648201526084016109ee565b4260005b82811015612a725760006129e9601a5490565b90506129f58582612dee565b60408051608081018252600180825260208083018781526000848601818152606086018a8152888352601d90945295902084518155905192810192909255925160028201559151600390920191909155612a4f8282612bd2565b612a5d601a80546001019055565b50508080612a6a90613bb4565b9150506129d6565b506001600160a01b0383166000908152601c602052604081208054849290612a9b908490613b9c565b90915550506040517f25b428dfde728ccfaddad7e29e4ac23c24ed7fd1a6e3e3f91894a9a073f5dfff90611cfc90859085908590613d5e565b816001600160a01b0316836001600160a01b03161415612b325760405162461bcd60e51b815260206004820152601960248201527822a9219b99189d1030b8383937bb32903a379031b0b63632b960391b60448201526064016109ee565b6001600160a01b03838116600081815260056020908152604080832094871680845294825291829020805460ff191686151590811790915591519182527f17307eab39ab6107e8899845ad3d59bd9653f200f220920489ca2b5937696c31910160405180910390a3505050565b612baa848484612737565b612bb684848484612e08565b6114bd5760405162461bcd60e51b81526004016109ee90613d7f565b611a8d82612be38360000151612f06565b612bf08460200151612f06565b612bfd8560400151612f06565b612c0a8660600151612f06565b604051602001612c1d9493929190613dd1565b604051602081830303815290604052613003565b6060612c3c826125ea565b612ca25760405162461bcd60e51b815260206004820152603160248201527f45524337323155524953746f726167653a2055524920717565727920666f72206044820152703737b732bc34b9ba32b73a103a37b5b2b760791b60648201526084016109ee565b6000828152600a602052604081208054612cbb90613962565b80601f0160208091040260200160405190810160405280929190818152602001828054612ce790613962565b8015612d345780601f10612d0957610100808354040283529160200191612d34565b820191906000526020600020905b815481529060010190602001808311612d1757829003601f168201915b505050505090506000612d4561308e565b9050805160001415612d58575092915050565b815115612d8a578082604051602001612d72929190613e8c565b60405160208183030381529060405292505050919050565b610cba8461309d565b60006001600160e01b031982166380ac58cd60e01b1480612dc457506001600160e01b03198216635b5e139f60e01b145b806108ee57506301ffc9a760e01b6001600160e01b03198316146108ee565b610b1f838383613168565b611a8d828260405180602001604052806000815250613220565b60006001600160a01b0384163b15612efb57604051630a85bd0160e11b81526001600160a01b0385169063150b7a0290612e4c903390899088908890600401613ebb565b6020604051808303816000875af1925050508015612e87575060408051601f3d908101601f19168201909252612e8491810190613ef8565b60015b612ee1573d808015612eb5576040519150601f19603f3d011682016040523d82523d6000602084013e612eba565b606091505b508051612ed95760405162461bcd60e51b81526004016109ee90613d7f565b805181602001fd5b6001600160e01b031916630a85bd0160e11b149050610cba565b506001949350505050565b606081612f2a5750506040805180820190915260018152600360fc1b602082015290565b8160005b8115612f545780612f3e81613bb4565b9150612f4d9050600a83613b5b565b9150612f2e565b6000816001600160401b03811115612f6e57612f6e613790565b6040519080825280601f01601f191660200182016040528015612f98576020820181803683370190505b5090505b8415610cba57612fad600183613b85565b9150612fba600a86613f15565b612fc5906030613b9c565b60f81b818381518110612fda57612fda613b6f565b60200101906001600160f81b031916908160001a905350612ffc600a86613b5b565b9450612f9c565b61300c826125ea565b61306f5760405162461bcd60e51b815260206004820152602e60248201527f45524337323155524953746f726167653a2055524920736574206f66206e6f6e60448201526d32bc34b9ba32b73a103a37b5b2b760911b60648201526084016109ee565b6000828152600a602090815260409091208251610b1f9284019061350f565b6060601b805461090390613962565b60606130a8826125ea565b61310c5760405162461bcd60e51b815260206004820152602f60248201527f4552433732314d657461646174613a2055524920717565727920666f72206e6f60448201526e3732bc34b9ba32b73a103a37b5b2b760891b60648201526084016109ee565b600061311661308e565b905060008151116131365760405180602001604052806000815250613161565b8061314084612f06565b604051602001613151929190613e8c565b6040516020818303038152906040525b9392505050565b6001600160a01b0383166131c3576131be81600880546000838152600960205260408120829055600182018355919091527ff3f7a9fe364faab93b216da50a3214154f22a0a2b415b23a84c8169e8b636ee30155565b6131e6565b816001600160a01b0316836001600160a01b0316146131e6576131e68382613253565b6001600160a01b0382166131fd57610b1f816132f0565b826001600160a01b0316826001600160a01b031614610b1f57610b1f828261339f565b61322a83836133e3565b6132376000848484612e08565b610b1f5760405162461bcd60e51b81526004016109ee90613d7f565b6000600161326084611802565b61326a9190613b85565b6000838152600760205260409020549091508082146132bd576001600160a01b03841660009081526006602090815260408083208584528252808320548484528184208190558352600790915290208190555b5060009182526007602090815260408084208490556001600160a01b039094168352600681528383209183525290812055565b60085460009061330290600190613b85565b6000838152600960205260408120546008805493945090928490811061332a5761332a613b6f565b90600052602060002001549050806008838154811061334b5761334b613b6f565b600091825260208083209091019290925582815260099091526040808220849055858252812055600880548061338357613383613bcf565b6001900381819060005260206000200160009055905550505050565b60006133aa83611802565b6001600160a01b039093166000908152600660209081526040808320868452825280832085905593825260079052919091209190915550565b6001600160a01b0382166134395760405162461bcd60e51b815260206004820181905260248201527f4552433732313a206d696e7420746f20746865207a65726f206164647265737360448201526064016109ee565b613442816125ea565b1561348e5760405162461bcd60e51b815260206004820152601c60248201527b115490cdcc8c4e881d1bdad95b88185b1c9958591e481b5a5b9d195960221b60448201526064016109ee565b61349a60008383612de3565b6001600160a01b03821660009081526003602052604081208054600192906134c3908490613b9c565b909155505060008181526002602052604080822080546001600160a01b0319166001600160a01b0386169081179091559051839290600080516020613f2a833981519152908290a45050565b82805461351b90613962565b90600052602060002090601f01602090048101928261353d5760008555613583565b82601f1061355657805160ff1916838001178555613583565b82800160010185558215613583579182015b82811115613583578251825591602001919060010190613568565b5061358f929150613593565b5090565b5b8082111561358f5760008155600101613594565b6001600160e01b03198116811461171c57600080fd5b6000602082840312156135d057600080fd5b8135613161816135a8565b60005b838110156135f65781810151838201526020016135de565b838111156114bd5750506000910152565b6000815180845261361f8160208601602086016135db565b601f01601f19169290920160200192915050565b6020815260006131616020830184613607565b60006020828403121561365857600080fd5b5035919050565b6001600160a01b0391909116815260200190565b80356001600160a01b038116811461368a57600080fd5b919050565b600080604083850312156136a257600080fd5b6136ab83613673565b946020939093013593505050565b600080604083850312156136cc57600080fd5b50508035926020909101359150565b6000602082840312156136ed57600080fd5b61316182613673565b801515811461171c57600080fd5b60006020828403121561371657600080fd5b8135613161816136f6565b60008060006060848603121561373657600080fd5b61373f84613673565b925061374d60208501613673565b9150604084013590509250925092565b6000806040838503121561377057600080fd5b61377983613673565b915061378760208401613673565b90509250929050565b634e487b7160e01b600052604160045260246000fd5b60006001600160401b03808411156137c0576137c0613790565b604051601f8501601f19908116603f011681019082821181831017156137e8576137e8613790565b8160405280935085815286868601111561380157600080fd5b858560208301376000602087830101525050509392505050565b60006020828403121561382d57600080fd5b81356001600160401b0381111561384357600080fd5b8201601f8101841361385457600080fd5b610cba848235602084016137a6565b6020808252825182820181905260009190848201906040850190845b818110156138a45783516001600160a01b03168352928401929184019160010161387f565b50909695505050505050565b600080604083850312156138c357600080fd5b6138cc83613673565b915060208301356138dc816136f6565b809150509250929050565b600080600080608085870312156138fd57600080fd5b61390685613673565b935061391460208601613673565b92506040850135915060608501356001600160401b0381111561393657600080fd5b8501601f8101871361394757600080fd5b613956878235602084016137a6565b91505092959194509250565b600181811c9082168061397657607f821691505b6020821081141561399757634e487b7160e01b600052602260045260246000fd5b50919050565b60208082526013908201527213dddb995c9cda1a5c081c995b9bdd5b98d959606a1b604082015260600190565b60208082526016908201527521b0b63632b91034b9903737ba1030b71037bbb732b960511b604082015260600190565b600060208284031215613a0c57600080fd5b815160ff8116811461316157600080fd5b634e487b7160e01b600052601160045260246000fd5b600181815b80851115613a6e578160001904821115613a5457613a54613a1d565b80851615613a6157918102915b93841c9390800290613a38565b509250929050565b600082613a85575060016108ee565b81613a92575060006108ee565b8160018114613aa85760028114613ab257613ace565b60019150506108ee565b60ff841115613ac357613ac3613a1d565b50506001821b6108ee565b5060208310610133831016604e8410600b8410161715613af1575081810a6108ee565b613afb8383613a33565b8060001904821115613b0f57613b0f613a1d565b029392505050565b600061316160ff841683613a76565b6000816000190483118215151615613b4057613b40613a1d565b500290565b634e487b7160e01b600052601260045260246000fd5b600082613b6a57613b6a613b45565b500490565b634e487b7160e01b600052603260045260246000fd5b600082821015613b9757613b97613a1d565b500390565b60008219821115613baf57613baf613a1d565b500190565b6000600019821415613bc857613bc8613a1d565b5060010190565b634e487b7160e01b600052603160045260246000fd5b60208082526031908201527f4552433732313a207472616e736665722063616c6c6572206973206e6f74206f6040820152701ddb995c881b9bdc88185c1c1c9bdd9959607a1b606082015260800190565b6020808252600f908201526e10dbdb9d1c9858dd081c185d5cd959608a1b604082015260600190565b600060208284031215613c7157600080fd5b5051919050565b602080825260159082015274546f6b656e2062616c616e636520746f6f206c6f7760581b604082015260600190565b6001600160a01b0392831681529116602082015260400190565b6020808252601490820152734e6f7420656e6f75676820616c6c6f77616e636560601b604082015260600190565b6001600160a01b039384168152919092166020820152604081019190915260600190565b600060208284031215613d2557600080fd5b8151613161816136f6565b602080825260149082015273151bdad95b881c185e5b595b9d0819985a5b195960621b604082015260600190565b6001600160a01b039390931683526020830191909152604082015260600190565b60208082526032908201527f4552433732313a207472616e7366657220746f206e6f6e20455243373231526560408201527131b2b4bb32b91034b6b83632b6b2b73a32b960711b606082015260800190565b656c6576656c3d60d01b815260008551613df2816006850160208a016135db565b6a266269727468446174653d60a81b6006918401918201528551613e1d816011840160208a016135db565b6d266c6f636b6564416d6f756e743d60901b601192909101918201528451613e4c81601f8401602089016135db565b70266c617374436c61696d6564446174653d60781b601f92909101918201528351613e7e8160308401602088016135db565b016030019695505050505050565b60008351613e9e8184602088016135db565b835190830190613eb28183602088016135db565b01949350505050565b6001600160a01b0385811682528416602082015260408101839052608060608201819052600090613eee90830184613607565b9695505050505050565b600060208284031215613f0a57600080fd5b8151613161816135a8565b600082613f2457613f24613b45565b50069056feddf252ad1be2c89b69c2b068fc378daa952ba7f163c4a11628f55a4df523b3efa2646970667358221220b19667dd91071a4a1123d9734a93da322ab5a98827e032fa4b029879b9714f5c64736f6c634300080b003368747470733a2f2f736c696d656b65657065722d7765622d6465762e6865726f6b756170702e636f6d2f6170692f6e66742f646174613f",
  "immutableReferences": {},
  "source": "// SPDX-License-Identifier: MIT\n// @boughtthetopkms on Telegram\n\npragma solidity >=0.4.22 <0.9.0;\n\nimport \"./PauseOwners.sol\";\nimport \"./Token.sol\";\nimport \"./Rewards.sol\";\nimport \"@openzeppelin/contracts/token/ERC721/ERC721.sol\";\nimport \"@openzeppelin/contracts/token/ERC721/extensions/ERC721Enumerable.sol\";\nimport \"@openzeppelin/contracts/token/ERC721/extensions/ERC721URIStorage.sol\";\nimport \"@openzeppelin/contracts/utils/Counters.sol\";\nimport \"@openzeppelin/contracts/utils/Strings.sol\";\n\ncontract NFT is ERC721, ERC721Enumerable, ERC721URIStorage, PauseOwners {\n\tusing Counters for Counters.Counter;\n\tusing Strings for uint256;\n\n\tevent Minted(address minter, uint256 amount, uint256 date);\n\tevent Compounded(address compounder, uint256 amount, uint256 date);\n\tevent Claimed(address claimer, uint256 amount, uint256 date);\n\n\tuint256 public addressMax = 5; // Max NFTs per address\n\tuint256 public supplyMax = 1000; // Max total supply cap\n\tuint256 public mintPrice = 100; // Mint price of one NFT in tokens\n\tuint256 public maxTokenLevel = 10; // Amount of levels an individual NFT can be upgraded\n\tuint256 public tokensPerLevel = 100; // Amount of tokens needed to upgrade an NFT (one level)\n\tuint256 public rewardRatePercentage = 500; // Reward rate in percentage per year (APR)\n\n\tbool public presaleEnded;\n\tbool public presalePaused = true;\n\tuint256 public presaleSupply = 100;\n\tuint256 public presalePrice = 0.5 ether;\n\n\tToken private token;\n\tRewards private rewards;\n\n\tCounters.Counter private tokenIds;\n\n\tstring private nftBaseURI =\n\t\t\"https://slimekeeper-web-dev.herokuapp.com/api/nft/data?\";\n\n\tmapping(address => uint256) private amountMinted;\n\tmapping(uint256 => NFTData) private nftData; // Store NFT Data for individual token\n\n\t// Represents in-game properties\n\tstruct NFTData {\n\t\tuint256 level; // Current level of NFT\n\t\tuint256 birthDate; // Date this NFT was minted\n\t\tuint256 lockedAmount; // Amount of tokens currently locked in this NFT\n\t\tuint256 lastClaimedDate; // Date last rewards were last claimed, if not claimed once, same as birth\n\n\t\t// Other in-game properties here and API configured to show them\n\t}\n\n\tconstructor() ERC721(\"NFT\", \"NFT\") {\n\t\tsetIsPaused(true);\n\t}\n\n\tfunction mintPresale(address to, uint256 amount) external payable {\n\t\trequire(!presaleEnded, \"Presale has ended already\");\n\t\trequire(!presalePaused, \"Presale currently paused\");\n\t\tif (totalSupply() >= presaleSupply) {\n\t\t\tpresaleEnded = true;\n\t\t\treturn;\n\t\t}\n\t\tcheckAmountMinted(to, amount, presaleSupply);\n\t\tuint256 totalMintPrice = amount * presalePrice;\n\t\trequire(msg.value >= totalMintPrice, \"Not enough ether sent\");\n\t\tcreateNFT(to, amount);\n\t\tuint256 excess = msg.value - totalMintPrice;\n\t\tif (excess > 0) {\n\t\t\t// Refund excess ether\n\t\t\t(bool refundSuccess, ) = msg.sender.call{ value: excess }(\"\");\n\t\t\trequire(refundSuccess, \"Refund unsuccessful\");\n\t\t}\n\t}\n\n\tfunction mint(address to, uint256 amount) external checkPaused(msg.sender) {\n\t\trequire(totalSupply() < supplyMax, \"Max supply has been reached\");\n\t\tcheckAmountMinted(to, amount, supplyMax);\n\t\tuint256 totalMintPrice = amount * mintPrice * 10**token.decimals();\n\t\trequire(\n\t\t\ttoken.balanceOf(msg.sender) >= totalMintPrice,\n\t\t\t\"Token balance too low\"\n\t\t);\n\t\trequire(\n\t\t\ttoken.allowance(msg.sender, address(this)) >= totalMintPrice,\n\t\t\t\"Not enough allowance\"\n\t\t);\n\t\tcreateNFT(to, amount);\n\t\trequire(\n\t\t\ttoken.transferFrom(msg.sender, address(rewards), totalMintPrice),\n\t\t\t\"Token payment failed\"\n\t\t);\n\t}\n\n\tfunction checkAmountMinted(\n\t\taddress to,\n\t\tuint256 amount,\n\t\tuint256 supply\n\t) private view {\n\t\trequire(\n\t\t\tamountMinted[to] + amount <= addressMax,\n\t\t\t\"Max mint exceeded for this address\"\n\t\t);\n\t\trequire(\n\t\t\tamountMinted[to] + amount <= supply,\n\t\t\t\"This mint would exceed presale supply cap\"\n\t\t);\n\t}\n\n\tfunction createNFT(address to, uint256 amount) private {\n\t\tuint256 birthDate = block.timestamp;\n\t\tfor (uint256 i = 0; i < amount; i++) {\n\t\t\tuint256 currTokenId = tokenIds.current();\n\t\t\t_safeMint(to, currTokenId);\n\t\t\tNFTData memory data = NFTData({\n\t\t\t\tlevel: 1,\n\t\t\t\tbirthDate: birthDate,\n\t\t\t\tlockedAmount: 0,\n\t\t\t\tlastClaimedDate: birthDate\n\t\t\t});\n\t\t\tnftData[currTokenId] = data;\n\t\t\tupdateTokenUri(currTokenId, data);\n\t\t\ttokenIds.increment();\n\t\t}\n\t\tamountMinted[to] += amount;\n\t\temit Minted(to, amount, birthDate);\n\t}\n\n\tfunction compound(uint256 tokenId, uint256 amountToken)\n\t\texternal\n\t\tcheckPaused(msg.sender)\n\t{\n\t\tamountToken *= 10**token.decimals();\n\t\trequire(\n\t\t\ttoken.balanceOf(msg.sender) >= amountToken,\n\t\t\t\"Token balance too low\"\n\t\t);\n\t\trequire(\n\t\t\ttoken.allowance(msg.sender, address(this)) >= amountToken,\n\t\t\t\"Not enough allowance\"\n\t\t);\n\t\tclaimReward(tokenId); // Claim before compounding\n\t\tNFTData storage data = nftData[tokenId];\n\t\trequire(data.level < maxTokenLevel, \"This NFT is already max level\");\n\t\tuint256 tokensPerLevelDecimals = tokensPerLevel * 10**token.decimals();\n\t\tuint256 newLocked = data.lockedAmount +\n\t\t\tamountToken +\n\t\t\t(data.level == 1 ? tokensPerLevelDecimals : 0);\n\t\tuint256 newLevel = newLocked / tokensPerLevelDecimals;\n\t\tuint256 excessAmount = 0;\n\t\tif (newLevel >= maxTokenLevel) {\n\t\t\texcessAmount = newLocked - (maxTokenLevel * tokensPerLevelDecimals);\n\t\t\tdata.lockedAmount = newLocked - excessAmount;\n\t\t\tdata.level = maxTokenLevel;\n\t\t} else {\n\t\t\tdata.lockedAmount = newLocked;\n\t\t\tdata.level = newLevel;\n\t\t}\n\t\tupdateTokenUri(tokenId, data);\n\t\tuint256 finalAmountToken = amountToken - excessAmount;\n\t\trequire(\n\t\t\ttoken.transferFrom(msg.sender, address(rewards), finalAmountToken),\n\t\t\t\"Token payment failed\"\n\t\t);\n\t\temit Compounded(msg.sender, finalAmountToken, block.timestamp);\n\t}\n\n\tfunction updateTokenUri(uint256 tokenId, NFTData memory data) private {\n\t\t_setTokenURI(\n\t\t\ttokenId,\n\t\t\tstring(\n\t\t\t\tabi.encodePacked(\n\t\t\t\t\t\"level=\",\n\t\t\t\t\tdata.level.toString(),\n\t\t\t\t\t\"&birthDate=\",\n\t\t\t\t\tdata.birthDate.toString(),\n\t\t\t\t\t\"&lockedAmount=\",\n\t\t\t\t\tdata.lockedAmount.toString(),\n\t\t\t\t\t\"&lastClaimedDate=\",\n\t\t\t\t\tdata.lastClaimedDate.toString()\n\t\t\t\t)\n\t\t\t)\n\t\t);\n\t}\n\n\tfunction claimReward(uint256 tokenId) public checkPaused(msg.sender) {\n\t\tuint256 amountReward = getRewardAmount(tokenId);\n\t\trequire(\n\t\t\townerOf(tokenId) == msg.sender,\n\t\t\t\"Sender does not own this token\"\n\t\t);\n\t\tif (amountReward > 0) {\n\t\t\tnftData[tokenId].lastClaimedDate = block.timestamp;\n\t\t\trewards.withdraw(msg.sender, amountReward);\n\t\t\temit Claimed(msg.sender, amountReward, block.timestamp);\n\t\t}\n\t}\n\n\tfunction getRewardAmount(uint256 tokenId) public view returns (uint256) {\n\t\trequire(_exists(tokenId), \"Token ID does not exist\");\n\t\tNFTData storage data = nftData[tokenId];\n\t\tuint256 timeSinceLastClaim = block.timestamp - data.lastClaimedDate;\n\t\treturn calculateReward(timeSinceLastClaim, data.level);\n\t}\n\n\tfunction calculateReward(uint256 timeInSeconds, uint256 tokenLevel)\n\t\tpublic\n\t\tview\n\t\treturns (uint256)\n\t{\n\t\tuint256 timeInYears = (timeInSeconds * 10**token.decimals()) / 365 days;\n\t\treturn tokenLevel * rewardRatePercentage * timeInYears;\n\t}\n\n\tfunction claimPresaleETH() external onlyOwners {\n\t\t// Allows contract owner to retrieve presale ether\n\t\trequire(presaleEnded, \"Presale not ended yet\");\n\t\t(bool claimSuccess, ) = msg.sender.call{ value: address(this).balance }(\n\t\t\t\"\"\n\t\t);\n\t\trequire(claimSuccess, \"Something went wrong claiming\");\n\t}\n\n\tfunction getNFTData(uint256 tokenId)\n\t\texternal\n\t\tview\n\t\treturns (\n\t\t\tuint256,\n\t\t\tuint256,\n\t\t\tuint256,\n\t\t\tuint256\n\t\t)\n\t{\n\t\trequire(_exists(tokenId), \"This token ID does not exist\");\n\t\tNFTData storage data = nftData[tokenId];\n\t\treturn (\n\t\t\tdata.level,\n\t\t\tdata.birthDate,\n\t\t\tdata.lockedAmount,\n\t\t\tdata.lastClaimedDate\n\t\t);\n\t}\n\n\tfunction setAddressMax(uint256 addressMax_) external onlyOwners {\n\t\taddressMax = addressMax_;\n\t}\n\n\tfunction setSupplyMax(uint256 supplyMax_) external onlyOwners {\n\t\tsupplyMax = supplyMax_;\n\t}\n\n\tfunction setMintPrice(uint256 mintPrice_) external onlyOwners {\n\t\tmintPrice = mintPrice_;\n\t}\n\n\tfunction setMaxTokenLevel(uint256 maxTokenLevel_) external onlyOwners {\n\t\tmaxTokenLevel = maxTokenLevel_;\n\t}\n\n\tfunction setTokensPerLevel(uint256 tokensPerLevel_) external onlyOwners {\n\t\ttokensPerLevel = tokensPerLevel_;\n\t}\n\n\tfunction setRewardRatePercentage(uint256 rewardRatePercentage_)\n\t\texternal\n\t\tonlyOwners\n\t{\n\t\trewardRatePercentage = rewardRatePercentage_;\n\t}\n\n\tfunction setPresaleEnded(bool presaleEnded_) external onlyOwners {\n\t\tpresaleEnded = presaleEnded_;\n\t}\n\n\tfunction setPresalePaused(bool presalePaused_) external onlyOwners {\n\t\tpresalePaused = presalePaused_;\n\t}\n\n\tfunction setPresaleSupply(uint256 presaleSupply_) external onlyOwners {\n\t\tpresaleSupply = presaleSupply_;\n\t}\n\n\tfunction setPresalePrice(uint256 presalePrice_) external onlyOwners {\n\t\tpresalePrice = presalePrice_;\n\t}\n\n\tfunction setAddresses(address tokenAddress, address rewardsAddress)\n\t\texternal\n\t\tonlyOwners\n\t{\n\t\ttoken = Token(payable(tokenAddress));\n\t\trewards = Rewards(rewardsAddress);\n\t}\n\n\tfunction setBaseUri(string memory baseURI_) external onlyOwners {\n\t\tnftBaseURI = baseURI_;\n\t}\n\n\tfunction totalSupply() public view override returns (uint256) {\n\t\treturn tokenIds.current();\n\t}\n\n\tfunction _baseURI() internal view override returns (string memory) {\n\t\treturn nftBaseURI;\n\t}\n\n\t// The following functions are overrides required by Solidity.\n\tfunction _beforeTokenTransfer(\n\t\taddress from,\n\t\taddress to,\n\t\tuint256 tokenId\n\t) internal override(ERC721, ERC721Enumerable) {\n\t\tsuper._beforeTokenTransfer(from, to, tokenId);\n\t}\n\n\tfunction _burn(uint256 tokenId)\n\t\tinternal\n\t\toverride(ERC721, ERC721URIStorage)\n\t{\n\t\tsuper._burn(tokenId);\n\t}\n\n\tfunction tokenURI(uint256 tokenId)\n\t\tpublic\n\t\tview\n\t\toverride(ERC721, ERC721URIStorage)\n\t\treturns (string memory)\n\t{\n\t\treturn super.tokenURI(tokenId);\n\t}\n\n\tfunction supportsInterface(bytes4 interfaceId)\n\t\tpublic\n\t\tview\n\t\toverride(ERC721, ERC721Enumerable)\n\t\treturns (bool)\n\t{\n\t\treturn super.supportsInterface(interfaceId);\n\t}\n}\n",
  "sourcePath": "C:\\Users\\sants\\Desktop\\slimekeeper\\slimekeeper_contracts\\contracts\\NFT.sol",
  "compiler": {
    "name": "solc",
    "version": "0.8.11+commit.d7f03943.Emscripten.clang"
  },
  "schemaVersion": "3.4.5",
  "updatedAt": "2022-03-02T18:54:07.136Z",
  "devdoc": {
    "kind": "dev",
    "methods": {
      "approve(address,uint256)": {
        "details": "See {IERC721-approve}."
      },
      "balanceOf(address)": {
        "details": "See {IERC721-balanceOf}."
      },
      "getApproved(uint256)": {
        "details": "See {IERC721-getApproved}."
      },
      "isApprovedForAll(address,address)": {
        "details": "See {IERC721-isApprovedForAll}."
      },
      "name()": {
        "details": "See {IERC721Metadata-name}."
      },
      "ownerOf(uint256)": {
        "details": "See {IERC721-ownerOf}."
      },
      "safeTransferFrom(address,address,uint256)": {
        "details": "See {IERC721-safeTransferFrom}."
      },
      "safeTransferFrom(address,address,uint256,bytes)": {
        "details": "See {IERC721-safeTransferFrom}."
      },
      "setApprovalForAll(address,bool)": {
        "details": "See {IERC721-setApprovalForAll}."
      },
      "symbol()": {
        "details": "See {IERC721Metadata-symbol}."
      },
      "tokenByIndex(uint256)": {
        "details": "See {IERC721Enumerable-tokenByIndex}."
      },
      "tokenOfOwnerByIndex(address,uint256)": {
        "details": "See {IERC721Enumerable-tokenOfOwnerByIndex}."
      },
      "totalSupply()": {
        "details": "See {IERC721Enumerable-totalSupply}."
      },
      "transferFrom(address,address,uint256)": {
        "details": "See {IERC721-transferFrom}."
      }
    },
    "version": 1
  },
  "userdoc": {
    "kind": "user",
    "methods": {},
    "version": 1
  }
}