{
  "contractName": "NFT",
  "abi": [
    {
      "inputs": [],
      "stateMutability": "nonpayable",
      "type": "constructor"
    },
    {
      "anonymous": false,
      "inputs": [
        {
          "indexed": true,
          "internalType": "address",
          "name": "owner",
          "type": "address"
        },
        {
          "indexed": true,
          "internalType": "address",
          "name": "approved",
          "type": "address"
        },
        {
          "indexed": true,
          "internalType": "uint256",
          "name": "tokenId",
          "type": "uint256"
        }
      ],
      "name": "Approval",
      "type": "event"
    },
    {
      "anonymous": false,
      "inputs": [
        {
          "indexed": true,
          "internalType": "address",
          "name": "owner",
          "type": "address"
        },
        {
          "indexed": true,
          "internalType": "address",
          "name": "operator",
          "type": "address"
        },
        {
          "indexed": false,
          "internalType": "bool",
          "name": "approved",
          "type": "bool"
        }
      ],
      "name": "ApprovalForAll",
      "type": "event"
    },
    {
      "anonymous": false,
      "inputs": [
        {
          "indexed": false,
          "internalType": "address",
          "name": "claimer",
          "type": "address"
        },
        {
          "indexed": false,
          "internalType": "uint256",
          "name": "amount",
          "type": "uint256"
        },
        {
          "indexed": false,
          "internalType": "uint256",
          "name": "date",
          "type": "uint256"
        }
      ],
      "name": "Claimed",
      "type": "event"
    },
    {
      "anonymous": false,
      "inputs": [
        {
          "indexed": false,
          "internalType": "address",
          "name": "compounder",
          "type": "address"
        },
        {
          "indexed": false,
          "internalType": "uint256",
          "name": "amount",
          "type": "uint256"
        },
        {
          "indexed": false,
          "internalType": "uint256",
          "name": "date",
          "type": "uint256"
        }
      ],
      "name": "Compounded",
      "type": "event"
    },
    {
      "anonymous": false,
      "inputs": [
        {
          "indexed": false,
          "internalType": "address",
          "name": "minter",
          "type": "address"
        },
        {
          "indexed": false,
          "internalType": "uint256",
          "name": "amount",
          "type": "uint256"
        },
        {
          "indexed": false,
          "internalType": "uint256",
          "name": "date",
          "type": "uint256"
        }
      ],
      "name": "Minted",
      "type": "event"
    },
    {
      "anonymous": false,
      "inputs": [
        {
          "indexed": true,
          "internalType": "address",
          "name": "adder",
          "type": "address"
        },
        {
          "indexed": true,
          "internalType": "address",
          "name": "owner",
          "type": "address"
        },
        {
          "indexed": true,
          "internalType": "uint256",
          "name": "timestamp",
          "type": "uint256"
        }
      ],
      "name": "OwnerAdded",
      "type": "event"
    },
    {
      "anonymous": false,
      "inputs": [
        {
          "indexed": true,
          "internalType": "address",
          "name": "remover",
          "type": "address"
        },
        {
          "indexed": true,
          "internalType": "address",
          "name": "removed",
          "type": "address"
        },
        {
          "indexed": true,
          "internalType": "uint256",
          "name": "timestamp",
          "type": "uint256"
        }
      ],
      "name": "OwnerRemoved",
      "type": "event"
    },
    {
      "anonymous": false,
      "inputs": [
        {
          "indexed": true,
          "internalType": "address",
          "name": "from",
          "type": "address"
        },
        {
          "indexed": true,
          "internalType": "address",
          "name": "to",
          "type": "address"
        },
        {
          "indexed": true,
          "internalType": "uint256",
          "name": "tokenId",
          "type": "uint256"
        }
      ],
      "name": "Transfer",
      "type": "event"
    },
    {
      "inputs": [
        {
          "internalType": "address",
          "name": "owner",
          "type": "address"
        }
      ],
      "name": "addOwner",
      "outputs": [],
      "stateMutability": "nonpayable",
      "type": "function"
    },
    {
      "inputs": [],
      "name": "addressMax",
      "outputs": [
        {
          "internalType": "uint256",
          "name": "",
          "type": "uint256"
        }
      ],
      "stateMutability": "view",
      "type": "function",
      "constant": true
    },
    {
      "inputs": [
        {
          "internalType": "address",
          "name": "to",
          "type": "address"
        },
        {
          "internalType": "uint256",
          "name": "tokenId",
          "type": "uint256"
        }
      ],
      "name": "approve",
      "outputs": [],
      "stateMutability": "nonpayable",
      "type": "function"
    },
    {
      "inputs": [
        {
          "internalType": "address",
          "name": "owner",
          "type": "address"
        }
      ],
      "name": "balanceOf",
      "outputs": [
        {
          "internalType": "uint256",
          "name": "",
          "type": "uint256"
        }
      ],
      "stateMutability": "view",
      "type": "function",
      "constant": true
    },
    {
      "inputs": [
        {
          "internalType": "uint256",
          "name": "tokenId",
          "type": "uint256"
        }
      ],
      "name": "getApproved",
      "outputs": [
        {
          "internalType": "address",
          "name": "",
          "type": "address"
        }
      ],
      "stateMutability": "view",
      "type": "function",
      "constant": true
    },
    {
      "inputs": [],
      "name": "getOwners",
      "outputs": [
        {
          "internalType": "address[]",
          "name": "",
          "type": "address[]"
        }
      ],
      "stateMutability": "view",
      "type": "function",
      "constant": true
    },
    {
      "inputs": [
        {
          "internalType": "address",
          "name": "owner",
          "type": "address"
        },
        {
          "internalType": "address",
          "name": "operator",
          "type": "address"
        }
      ],
      "name": "isApprovedForAll",
      "outputs": [
        {
          "internalType": "bool",
          "name": "",
          "type": "bool"
        }
      ],
      "stateMutability": "view",
      "type": "function",
      "constant": true
    },
    {
      "inputs": [
        {
          "internalType": "address",
          "name": "owner",
          "type": "address"
        }
      ],
      "name": "isOwner",
      "outputs": [
        {
          "internalType": "bool",
          "name": "",
          "type": "bool"
        }
      ],
      "stateMutability": "view",
      "type": "function",
      "constant": true
    },
    {
      "inputs": [],
      "name": "maxTokenLevel",
      "outputs": [
        {
          "internalType": "uint256",
          "name": "",
          "type": "uint256"
        }
      ],
      "stateMutability": "view",
      "type": "function",
      "constant": true
    },
    {
      "inputs": [],
      "name": "mintPrice",
      "outputs": [
        {
          "internalType": "uint256",
          "name": "",
          "type": "uint256"
        }
      ],
      "stateMutability": "view",
      "type": "function",
      "constant": true
    },
    {
      "inputs": [],
      "name": "name",
      "outputs": [
        {
          "internalType": "string",
          "name": "",
          "type": "string"
        }
      ],
      "stateMutability": "view",
      "type": "function",
      "constant": true
    },
    {
      "inputs": [
        {
          "internalType": "uint256",
          "name": "",
          "type": "uint256"
        }
      ],
      "name": "nftData",
      "outputs": [
        {
          "internalType": "uint256",
          "name": "level",
          "type": "uint256"
        },
        {
          "internalType": "uint256",
          "name": "birth",
          "type": "uint256"
        },
        {
          "internalType": "uint256",
          "name": "locked",
          "type": "uint256"
        },
        {
          "internalType": "uint256",
          "name": "claimed",
          "type": "uint256"
        }
      ],
      "stateMutability": "view",
      "type": "function",
      "constant": true
    },
    {
      "inputs": [
        {
          "internalType": "uint256",
          "name": "tokenId",
          "type": "uint256"
        }
      ],
      "name": "ownerOf",
      "outputs": [
        {
          "internalType": "address",
          "name": "",
          "type": "address"
        }
      ],
      "stateMutability": "view",
      "type": "function",
      "constant": true
    },
    {
      "inputs": [
        {
          "internalType": "address",
          "name": "owner",
          "type": "address"
        }
      ],
      "name": "removeOwner",
      "outputs": [],
      "stateMutability": "nonpayable",
      "type": "function"
    },
    {
      "inputs": [],
      "name": "rewardDivisor",
      "outputs": [
        {
          "internalType": "uint256",
          "name": "",
          "type": "uint256"
        }
      ],
      "stateMutability": "view",
      "type": "function",
      "constant": true
    },
    {
      "inputs": [
        {
          "internalType": "address",
          "name": "from",
          "type": "address"
        },
        {
          "internalType": "address",
          "name": "to",
          "type": "address"
        },
        {
          "internalType": "uint256",
          "name": "tokenId",
          "type": "uint256"
        }
      ],
      "name": "safeTransferFrom",
      "outputs": [],
      "stateMutability": "nonpayable",
      "type": "function"
    },
    {
      "inputs": [
        {
          "internalType": "address",
          "name": "from",
          "type": "address"
        },
        {
          "internalType": "address",
          "name": "to",
          "type": "address"
        },
        {
          "internalType": "uint256",
          "name": "tokenId",
          "type": "uint256"
        },
        {
          "internalType": "bytes",
          "name": "_data",
          "type": "bytes"
        }
      ],
      "name": "safeTransferFrom",
      "outputs": [],
      "stateMutability": "nonpayable",
      "type": "function"
    },
    {
      "inputs": [
        {
          "internalType": "address",
          "name": "operator",
          "type": "address"
        },
        {
          "internalType": "bool",
          "name": "approved",
          "type": "bool"
        }
      ],
      "name": "setApprovalForAll",
      "outputs": [],
      "stateMutability": "nonpayable",
      "type": "function"
    },
    {
      "inputs": [
        {
          "internalType": "bool",
          "name": "newPaused",
          "type": "bool"
        }
      ],
      "name": "setIsPaused",
      "outputs": [],
      "stateMutability": "nonpayable",
      "type": "function"
    },
    {
      "inputs": [],
      "name": "supplyMax",
      "outputs": [
        {
          "internalType": "uint256",
          "name": "",
          "type": "uint256"
        }
      ],
      "stateMutability": "view",
      "type": "function",
      "constant": true
    },
    {
      "inputs": [],
      "name": "symbol",
      "outputs": [
        {
          "internalType": "string",
          "name": "",
          "type": "string"
        }
      ],
      "stateMutability": "view",
      "type": "function",
      "constant": true
    },
    {
      "inputs": [
        {
          "internalType": "uint256",
          "name": "index",
          "type": "uint256"
        }
      ],
      "name": "tokenByIndex",
      "outputs": [
        {
          "internalType": "uint256",
          "name": "",
          "type": "uint256"
        }
      ],
      "stateMutability": "view",
      "type": "function",
      "constant": true
    },
    {
      "inputs": [
        {
          "internalType": "address",
          "name": "owner",
          "type": "address"
        },
        {
          "internalType": "uint256",
          "name": "index",
          "type": "uint256"
        }
      ],
      "name": "tokenOfOwnerByIndex",
      "outputs": [
        {
          "internalType": "uint256",
          "name": "",
          "type": "uint256"
        }
      ],
      "stateMutability": "view",
      "type": "function",
      "constant": true
    },
    {
      "inputs": [],
      "name": "tokensPerLevel",
      "outputs": [
        {
          "internalType": "uint256",
          "name": "",
          "type": "uint256"
        }
      ],
      "stateMutability": "view",
      "type": "function",
      "constant": true
    },
    {
      "inputs": [
        {
          "internalType": "address",
          "name": "from",
          "type": "address"
        },
        {
          "internalType": "address",
          "name": "to",
          "type": "address"
        },
        {
          "internalType": "uint256",
          "name": "tokenId",
          "type": "uint256"
        }
      ],
      "name": "transferFrom",
      "outputs": [],
      "stateMutability": "nonpayable",
      "type": "function"
    },
    {
      "inputs": [
        {
          "internalType": "address",
          "name": "to",
          "type": "address"
        },
        {
          "internalType": "uint256",
          "name": "amount",
          "type": "uint256"
        }
      ],
      "name": "mint",
      "outputs": [],
      "stateMutability": "nonpayable",
      "type": "function"
    },
    {
      "inputs": [
        {
          "internalType": "uint256",
          "name": "tokenId",
          "type": "uint256"
        },
        {
          "internalType": "uint256",
          "name": "amount",
          "type": "uint256"
        }
      ],
      "name": "compound",
      "outputs": [],
      "stateMutability": "nonpayable",
      "type": "function"
    },
    {
      "inputs": [
        {
          "internalType": "uint256",
          "name": "tokenId",
          "type": "uint256"
        }
      ],
      "name": "claim",
      "outputs": [],
      "stateMutability": "nonpayable",
      "type": "function"
    },
    {
      "inputs": [
        {
          "internalType": "uint256",
          "name": "tokenId",
          "type": "uint256"
        }
      ],
      "name": "getNFTData",
      "outputs": [
        {
          "internalType": "uint256",
          "name": "",
          "type": "uint256"
        },
        {
          "internalType": "uint256",
          "name": "",
          "type": "uint256"
        },
        {
          "internalType": "uint256",
          "name": "",
          "type": "uint256"
        },
        {
          "internalType": "uint256",
          "name": "",
          "type": "uint256"
        }
      ],
      "stateMutability": "view",
      "type": "function",
      "constant": true
    },
    {
      "inputs": [
        {
          "internalType": "uint256",
          "name": "newMax",
          "type": "uint256"
        }
      ],
      "name": "setAddressMax",
      "outputs": [],
      "stateMutability": "nonpayable",
      "type": "function"
    },
    {
      "inputs": [
        {
          "internalType": "uint256",
          "name": "newMax",
          "type": "uint256"
        }
      ],
      "name": "setSupplyMax",
      "outputs": [],
      "stateMutability": "nonpayable",
      "type": "function"
    },
    {
      "inputs": [
        {
          "internalType": "uint256",
          "name": "newLevel",
          "type": "uint256"
        }
      ],
      "name": "setMaxTokenLevel",
      "outputs": [],
      "stateMutability": "nonpayable",
      "type": "function"
    },
    {
      "inputs": [
        {
          "internalType": "uint256",
          "name": "newPrice",
          "type": "uint256"
        }
      ],
      "name": "setMintPrice",
      "outputs": [],
      "stateMutability": "nonpayable",
      "type": "function"
    },
    {
      "inputs": [
        {
          "internalType": "uint256",
          "name": "newTokensPerLevel",
          "type": "uint256"
        }
      ],
      "name": "setTokensPerLevel",
      "outputs": [],
      "stateMutability": "nonpayable",
      "type": "function"
    },
    {
      "inputs": [
        {
          "internalType": "uint256",
          "name": "newRewardDivisor",
          "type": "uint256"
        }
      ],
      "name": "setRewardDivisor",
      "outputs": [],
      "stateMutability": "nonpayable",
      "type": "function"
    },
    {
      "inputs": [
        {
          "internalType": "address",
          "name": "newTokenAddress",
          "type": "address"
        }
      ],
      "name": "setTokenAddress",
      "outputs": [],
      "stateMutability": "nonpayable",
      "type": "function"
    },
    {
      "inputs": [
        {
          "internalType": "string",
          "name": "newBaseURI",
          "type": "string"
        }
      ],
      "name": "setBaseUri",
      "outputs": [],
      "stateMutability": "nonpayable",
      "type": "function"
    },
    {
      "inputs": [],
      "name": "totalSupply",
      "outputs": [
        {
          "internalType": "uint256",
          "name": "",
          "type": "uint256"
        }
      ],
      "stateMutability": "view",
      "type": "function",
      "constant": true
    },
    {
      "inputs": [
        {
          "internalType": "uint256",
          "name": "tokenId",
          "type": "uint256"
        }
      ],
      "name": "tokenURI",
      "outputs": [
        {
          "internalType": "string",
          "name": "",
          "type": "string"
        }
      ],
      "stateMutability": "view",
      "type": "function",
      "constant": true
    },
    {
      "inputs": [
        {
          "internalType": "bytes4",
          "name": "interfaceId",
          "type": "bytes4"
        }
      ],
      "name": "supportsInterface",
      "outputs": [
        {
          "internalType": "bool",
          "name": "",
          "type": "bool"
        }
      ],
      "stateMutability": "view",
      "type": "function",
      "constant": true
    }
  ],
  "bytecode": "0x60806040526005600e556103e8600f556103e8601055600a6011556103e8601255600a60135560405180606001604052806037815260200162005fa260379139601690805190602001906200005692919062000239565b503480156200006457600080fd5b506040518060400160405280600381526020017f4e465400000000000000000000000000000000000000000000000000000000008152506040518060400160405280600381526020017f4e465400000000000000000000000000000000000000000000000000000000008152508160009080519060200190620000e992919062000239565b5080600190805190602001906200010292919062000239565b505050600073ffffffffffffffffffffffffffffffffffffffff163373ffffffffffffffffffffffffffffffffffffffff16141562000178576040517f08c379a00000000000000000000000000000000000000000000000000000000081526004016200016f9062000370565b60405180910390fd5b6001600b60003373ffffffffffffffffffffffffffffffffffffffff1673ffffffffffffffffffffffffffffffffffffffff16815260200190815260200160002060006101000a81548160ff021916908315150217905550600c339080600181540180825580915050600190039060005260206000200160009091909190916101000a81548173ffffffffffffffffffffffffffffffffffffffff021916908373ffffffffffffffffffffffffffffffffffffffff160217905550620003f7565b8280546200024790620003c1565b90600052602060002090601f0160209004810192826200026b5760008555620002b7565b82601f106200028657805160ff1916838001178555620002b7565b82800160010185558215620002b7579182015b82811115620002b657825182559160200191906001019062000299565b5b509050620002c69190620002ca565b5090565b5b80821115620002e5576000816000905550600101620002cb565b5090565b600082825260208201905092915050565b7f43616e277420696e697469616c697a652077697468207a65726f20616464726560008201527f7373000000000000000000000000000000000000000000000000000000000000602082015250565b600062000358602283620002e9565b91506200036582620002fa565b604082019050919050565b600060208201905081810360008301526200038b8162000349565b9050919050565b7f4e487b7100000000000000000000000000000000000000000000000000000000600052602260045260246000fd5b60006002820490506001821680620003da57607f821691505b60208210811415620003f157620003f062000392565b5b50919050565b615b9b80620004076000396000f3fe608060405234801561001057600080fd5b50600436106102485760003560e01c80636352211e1161013b578063a22cb465116100b8578063bff1208d1161007c578063bff1208d146106ed578063c87b56dd14610709578063e985e9c514610739578063f49c87e714610769578063f4a0a5281461078757610248565b8063a22cb46514610661578063a3db11051461067d578063aa29c33114610699578063b1de4202146106b5578063b88d4fde146106d157610248565b806395d89b41116100ff57806395d89b41146105cd57806396636fe1146105eb578063a0bcfc7f14610609578063a0e67e2b14610625578063a1a7a4231461064357610248565b80636352211e146105005780636817c76c146105305780637065cb481461054e57806370a082311461056a5780638c2109751461059a57610248565b806323b872dd116101c957806331bcbaed1161018d57806331bcbaed1461045e578063379607f51461047c57806340c10f191461049857806342842e0e146104b45780634f6ccce7146104d057610248565b806323b872dd146103aa578063240976bf146103c657806326a4e8d2146103e25780632f54bf6e146103fe5780632f745c591461042e57610248565b80630ad4c4f4116102105780630ad4c4f4146103055780630cef1fbf146103385780631632070c14610354578063173825d91461037057806318160ddd1461038c57610248565b806301ffc9a71461024d57806304e275821461027d57806306fdde031461029b578063081812fc146102b9578063095ea7b3146102e9575b600080fd5b61026760048036038101906102629190613e24565b6107a3565b6040516102749190613e6c565b60405180910390f35b6102856107b5565b6040516102929190613ea0565b60405180910390f35b6102a36107bb565b6040516102b09190613f54565b60405180910390f35b6102d360048036038101906102ce9190613fa2565b61084d565b6040516102e09190614010565b60405180910390f35b61030360048036038101906102fe9190614057565b6108d2565b005b61031f600480360381019061031a9190613fa2565b6109ea565b60405161032f9493929190614097565b60405180910390f35b610352600480360381019061034d9190613fa2565b610a73565b005b61036e60048036038101906103699190613fa2565b610b10565b005b61038a600480360381019061038591906140dc565b610bad565b005b610394610f45565b6040516103a19190613ea0565b60405180910390f35b6103c460048036038101906103bf9190614109565b610f56565b005b6103e060048036038101906103db9190614188565b610fb6565b005b6103fc60048036038101906103f791906140dc565b611066565b005b610418600480360381019061041391906140dc565b61113d565b6040516104259190613e6c565b60405180910390f35b61044860048036038101906104439190614057565b611193565b6040516104559190613ea0565b60405180910390f35b610466611238565b6040516104739190613ea0565b60405180910390f35b61049660048036038101906104919190613fa2565b61123e565b005b6104b260048036038101906104ad9190614057565b611543565b005b6104ce60048036038101906104c99190614109565b611add565b005b6104ea60048036038101906104e59190613fa2565b611afd565b6040516104f79190613ea0565b60405180910390f35b61051a60048036038101906105159190613fa2565b611b6e565b6040516105279190614010565b60405180910390f35b610538611c20565b6040516105459190613ea0565b60405180910390f35b610568600480360381019061056391906140dc565b611c26565b005b610584600480360381019061057f91906140dc565b611dd2565b6040516105919190613ea0565b60405180910390f35b6105b460048036038101906105af9190613fa2565b611e8a565b6040516105c49493929190614097565b60405180910390f35b6105d5611eba565b6040516105e29190613f54565b60405180910390f35b6105f3611f4c565b6040516106009190613ea0565b60405180910390f35b610623600480360381019061061e91906142ea565b611f52565b005b61062d611fff565b60405161063a91906143f1565b60405180910390f35b61064b61208d565b6040516106589190613ea0565b60405180910390f35b61067b60048036038101906106769190614413565b612093565b005b61069760048036038101906106929190613fa2565b6120a9565b005b6106b360048036038101906106ae9190613fa2565b612146565b005b6106cf60048036038101906106ca9190613fa2565b6121e3565b005b6106eb60048036038101906106e691906144f4565b612280565b005b61070760048036038101906107029190614577565b6122e2565b005b610723600480360381019061071e9190613fa2565b6126e9565b6040516107309190613f54565b60405180910390f35b610753600480360381019061074e91906145b7565b6126fb565b6040516107609190613e6c565b60405180910390f35b61077161278f565b60405161077e9190613ea0565b60405180910390f35b6107a1600480360381019061079c9190613fa2565b612795565b005b60006107ae82612832565b9050919050565b600f5481565b6060600080546107ca90614626565b80601f01602080910402602001604051908101604052809291908181526020018280546107f690614626565b80156108435780601f1061081857610100808354040283529160200191610843565b820191906000526020600020905b81548152906001019060200180831161082657829003601f168201915b5050505050905090565b6000610858826128ac565b610897576040517f08c379a000000000000000000000000000000000000000000000000000000000815260040161088e906146ca565b60405180910390fd5b6004600083815260200190815260200160002060009054906101000a900473ffffffffffffffffffffffffffffffffffffffff169050919050565b60006108dd82611b6e565b90508073ffffffffffffffffffffffffffffffffffffffff168373ffffffffffffffffffffffffffffffffffffffff16141561094e576040517f08c379a00000000000000000000000000000000000000000000000000000000081526004016109459061475c565b60405180910390fd5b8073ffffffffffffffffffffffffffffffffffffffff1661096d612918565b73ffffffffffffffffffffffffffffffffffffffff16148061099c575061099b81610996612918565b6126fb565b5b6109db576040517f08c379a00000000000000000000000000000000000000000000000000000000081526004016109d2906147ee565b60405180910390fd5b6109e58383612920565b505050565b6000806000806109f9856128ac565b610a38576040517f08c379a0000000000000000000000000000000000000000000000000000000008152600401610a2f9061485a565b60405180910390fd5b600060146000878152602001908152602001600020905080600001548160010154826002015483600301549450945094509450509193509193565b60011515600b60003373ffffffffffffffffffffffffffffffffffffffff1673ffffffffffffffffffffffffffffffffffffffff16815260200190815260200160002060009054906101000a900460ff16151514610b06576040517f08c379a0000000000000000000000000000000000000000000000000000000008152600401610afd906148c6565b60405180910390fd5b80600f8190555050565b60011515600b60003373ffffffffffffffffffffffffffffffffffffffff1673ffffffffffffffffffffffffffffffffffffffff16815260200190815260200160002060009054906101000a900460ff16151514610ba3576040517f08c379a0000000000000000000000000000000000000000000000000000000008152600401610b9a906148c6565b60405180910390fd5b8060138190555050565b60011515600b60003373ffffffffffffffffffffffffffffffffffffffff1673ffffffffffffffffffffffffffffffffffffffff16815260200190815260200160002060009054906101000a900460ff16151514610c40576040517f08c379a0000000000000000000000000000000000000000000000000000000008152600401610c37906148c6565b60405180910390fd5b60011515600b60008373ffffffffffffffffffffffffffffffffffffffff1673ffffffffffffffffffffffffffffffffffffffff16815260200190815260200160002060009054906101000a900460ff16151514610cd3576040517f08c379a0000000000000000000000000000000000000000000000000000000008152600401610cca90614932565b60405180910390fd5b60005b600c80549050811015610f41578173ffffffffffffffffffffffffffffffffffffffff16600c8281548110610d0e57610d0d614952565b5b9060005260206000200160009054906101000a900473ffffffffffffffffffffffffffffffffffffffff1673ffffffffffffffffffffffffffffffffffffffff161415610f2e576000600b60008473ffffffffffffffffffffffffffffffffffffffff1673ffffffffffffffffffffffffffffffffffffffff16815260200190815260200160002060006101000a81548160ff02191690831515021790555060008190505b6001600c80549050610dc591906149b0565b811015610e8657600c600183610ddb91906149e4565b81548110610dec57610deb614952565b5b9060005260206000200160009054906101000a900473ffffffffffffffffffffffffffffffffffffffff16600c8381548110610e2b57610e2a614952565b5b9060005260206000200160006101000a81548173ffffffffffffffffffffffffffffffffffffffff021916908373ffffffffffffffffffffffffffffffffffffffff1602179055508080610e7e90614a3a565b915050610db3565b50600c805480610e9957610e98614a83565b5b6001900381819060005260206000200160006101000a81549073ffffffffffffffffffffffffffffffffffffffff02191690559055428273ffffffffffffffffffffffffffffffffffffffff163373ffffffffffffffffffffffffffffffffffffffff167fecc5dd9888b87e7ed252d66b9c086ab819de6c8f8b96c8e5458e105bacfbb02760405160405180910390a4610f41565b8080610f3990614a3a565b915050610cd6565b5050565b6000610f5160186129d9565b905090565b610f67610f61612918565b826129e7565b610fa6576040517f08c379a0000000000000000000000000000000000000000000000000000000008152600401610f9d90614b24565b60405180910390fd5b610fb1838383612ac5565b505050565b60011515600b60003373ffffffffffffffffffffffffffffffffffffffff1673ffffffffffffffffffffffffffffffffffffffff16815260200190815260200160002060009054906101000a900460ff16151514611049576040517f08c379a0000000000000000000000000000000000000000000000000000000008152600401611040906148c6565b60405180910390fd5b80600d60006101000a81548160ff02191690831515021790555050565b60011515600b60003373ffffffffffffffffffffffffffffffffffffffff1673ffffffffffffffffffffffffffffffffffffffff16815260200190815260200160002060009054906101000a900460ff161515146110f9576040517f08c379a00000000000000000000000000000000000000000000000000000000081526004016110f0906148c6565b60405180910390fd5b80601560006101000a81548173ffffffffffffffffffffffffffffffffffffffff021916908373ffffffffffffffffffffffffffffffffffffffff16021790555050565b6000600b60008373ffffffffffffffffffffffffffffffffffffffff1673ffffffffffffffffffffffffffffffffffffffff16815260200190815260200160002060009054906101000a900460ff169050919050565b600061119e83611dd2565b82106111df576040517f08c379a00000000000000000000000000000000000000000000000000000000081526004016111d690614bb6565b60405180910390fd5b600660008473ffffffffffffffffffffffffffffffffffffffff1673ffffffffffffffffffffffffffffffffffffffff168152602001908152602001600020600083815260200190815260200160002054905092915050565b60125481565b6112473361113d565b61129c57600d60009054906101000a900460ff161561129b576040517f08c379a000000000000000000000000000000000000000000000000000000000815260040161129290614c22565b60405180910390fd5b5b6112a5816128ac565b6112e4576040517f08c379a00000000000000000000000000000000000000000000000000000000081526004016112db9061485a565b60405180910390fd5b3373ffffffffffffffffffffffffffffffffffffffff1661130482611b6e565b73ffffffffffffffffffffffffffffffffffffffff161461135a576040517f08c379a000000000000000000000000000000000000000000000000000000000815260040161135190614c8e565b60405180910390fd5b60006014600083815260200190815260200160002090506000670de0b6b3a7640000826000015460135484600301544261139491906149b0565b61139e9190614cdd565b6113a89190614d0e565b6113b29190614d0e565b905042826003018190555080601560009054906101000a900473ffffffffffffffffffffffffffffffffffffffff1673ffffffffffffffffffffffffffffffffffffffff166370a08231306040518263ffffffff1660e01b81526004016114199190614010565b602060405180830381865afa158015611436573d6000803e3d6000fd5b505050506040513d601f19601f8201168201806040525081019061145a9190614d7d565b101561149b576040517f08c379a000000000000000000000000000000000000000000000000000000000815260040161149290614df6565b60405180910390fd5b601560009054906101000a900473ffffffffffffffffffffffffffffffffffffffff1673ffffffffffffffffffffffffffffffffffffffff166323b872dd3033846040518463ffffffff1660e01b81526004016114fa93929190614e16565b6020604051808303816000875af1158015611519573d6000803e3d6000fd5b505050506040513d601f19601f8201168201806040525081019061153d9190614e62565b50505050565b61154c3361113d565b6115a157600d60009054906101000a900460ff16156115a0576040517f08c379a000000000000000000000000000000000000000000000000000000000815260040161159790614c22565b60405180910390fd5b5b600f546115ac610f45565b106115ec576040517f08c379a00000000000000000000000000000000000000000000000000000000081526004016115e390614edb565b60405180910390fd5b600e5481601760008573ffffffffffffffffffffffffffffffffffffffff1673ffffffffffffffffffffffffffffffffffffffff1681526020019081526020016000205461163a91906149e4565b111561167b576040517f08c379a000000000000000000000000000000000000000000000000000000000815260040161167290614f6d565b60405180910390fd5b600f5481601760008573ffffffffffffffffffffffffffffffffffffffff1673ffffffffffffffffffffffffffffffffffffffff168152602001908152602001600020546116c991906149e4565b111561170a576040517f08c379a000000000000000000000000000000000000000000000000000000000815260040161170190614fff565b60405180910390fd5b6000670de0b6b3a7640000601054836117239190614d0e565b61172d9190614d0e565b905080601560009054906101000a900473ffffffffffffffffffffffffffffffffffffffff1673ffffffffffffffffffffffffffffffffffffffff166370a08231856040518263ffffffff1660e01b815260040161178b9190614010565b602060405180830381865afa1580156117a8573d6000803e3d6000fd5b505050506040513d601f19601f820116820180604052508101906117cc9190614d7d565b101561180d576040517f08c379a00000000000000000000000000000000000000000000000000000000081526004016118049061506b565b60405180910390fd5b80601560009054906101000a900473ffffffffffffffffffffffffffffffffffffffff1673ffffffffffffffffffffffffffffffffffffffff1663dd62ed3e85306040518363ffffffff1660e01b815260040161186b92919061508b565b602060405180830381865afa158015611888573d6000803e3d6000fd5b505050506040513d601f19601f820116820180604052508101906118ac9190614d7d565b10156118ed576040517f08c379a00000000000000000000000000000000000000000000000000000000081526004016118e490615100565b60405180910390fd5b600042905060005b838110156119a257600061190960186129d9565b90506119158682612d21565b611923818460016000612d3f565b6040518060800160405280600181526020018481526020016000815260200184815250601460008381526020019081526020016000206000820151816000015560208201518160010155604082015181600201556060820151816003015590505061198e6018612d8a565b50808061199a90614a3a565b9150506118f5565b5082601760008673ffffffffffffffffffffffffffffffffffffffff1673ffffffffffffffffffffffffffffffffffffffff16815260200190815260200160002060008282546119f291906149e4565b92505081905550601560009054906101000a900473ffffffffffffffffffffffffffffffffffffffff1673ffffffffffffffffffffffffffffffffffffffff166323b872dd8530856040518463ffffffff1660e01b8152600401611a5893929190614e16565b6020604051808303816000875af1158015611a77573d6000803e3d6000fd5b505050506040513d601f19601f82011682018060405250810190611a9b9190614e62565b507f25b428dfde728ccfaddad7e29e4ac23c24ed7fd1a6e3e3f91894a9a073f5dfff848483604051611acf93929190615120565b60405180910390a150505050565b611af883838360405180602001604052806000815250612280565b505050565b6000611b07612da0565b8210611b48576040517f08c379a0000000000000000000000000000000000000000000000000000000008152600401611b3f906151c9565b60405180910390fd5b60088281548110611b5c57611b5b614952565b5b90600052602060002001549050919050565b6000806002600084815260200190815260200160002060009054906101000a900473ffffffffffffffffffffffffffffffffffffffff169050600073ffffffffffffffffffffffffffffffffffffffff168173ffffffffffffffffffffffffffffffffffffffff161415611c17576040517f08c379a0000000000000000000000000000000000000000000000000000000008152600401611c0e9061525b565b60405180910390fd5b80915050919050565b60105481565b60011515600b60003373ffffffffffffffffffffffffffffffffffffffff1673ffffffffffffffffffffffffffffffffffffffff16815260200190815260200160002060009054906101000a900460ff16151514611cb9576040517f08c379a0000000000000000000000000000000000000000000000000000000008152600401611cb0906148c6565b60405180910390fd5b6001600b60008373ffffffffffffffffffffffffffffffffffffffff1673ffffffffffffffffffffffffffffffffffffffff16815260200190815260200160002060006101000a81548160ff021916908315150217905550600c819080600181540180825580915050600190039060005260206000200160009091909190916101000a81548173ffffffffffffffffffffffffffffffffffffffff021916908373ffffffffffffffffffffffffffffffffffffffff160217905550428173ffffffffffffffffffffffffffffffffffffffff163373ffffffffffffffffffffffffffffffffffffffff167fa0b18fca933618876351ba2ef88bf4505c184d3e55064bec0d7fe236dd706d8460405160405180910390a450565b60008073ffffffffffffffffffffffffffffffffffffffff168273ffffffffffffffffffffffffffffffffffffffff161415611e43576040517f08c379a0000000000000000000000000000000000000000000000000000000008152600401611e3a906152ed565b60405180910390fd5b600360008373ffffffffffffffffffffffffffffffffffffffff1673ffffffffffffffffffffffffffffffffffffffff168152602001908152602001600020549050919050565b60146020528060005260406000206000915090508060000154908060010154908060020154908060030154905084565b606060018054611ec990614626565b80601f0160208091040260200160405190810160405280929190818152602001828054611ef590614626565b8015611f425780601f10611f1757610100808354040283529160200191611f42565b820191906000526020600020905b815481529060010190602001808311611f2557829003601f168201915b5050505050905090565b600e5481565b60011515600b60003373ffffffffffffffffffffffffffffffffffffffff1673ffffffffffffffffffffffffffffffffffffffff16815260200190815260200160002060009054906101000a900460ff16151514611fe5576040517f08c379a0000000000000000000000000000000000000000000000000000000008152600401611fdc906148c6565b60405180910390fd5b8060169080519060200190611ffb929190613d15565b5050565b6060600c80548060200260200160405190810160405280929190818152602001828054801561208357602002820191906000526020600020905b8160009054906101000a900473ffffffffffffffffffffffffffffffffffffffff1673ffffffffffffffffffffffffffffffffffffffff1681526020019060010190808311612039575b5050505050905090565b60115481565b6120a561209e612918565b8383612dad565b5050565b60011515600b60003373ffffffffffffffffffffffffffffffffffffffff1673ffffffffffffffffffffffffffffffffffffffff16815260200190815260200160002060009054906101000a900460ff1615151461213c576040517f08c379a0000000000000000000000000000000000000000000000000000000008152600401612133906148c6565b60405180910390fd5b8060128190555050565b60011515600b60003373ffffffffffffffffffffffffffffffffffffffff1673ffffffffffffffffffffffffffffffffffffffff16815260200190815260200160002060009054906101000a900460ff161515146121d9576040517f08c379a00000000000000000000000000000000000000000000000000000000081526004016121d0906148c6565b60405180910390fd5b8060108190555050565b60011515600b60003373ffffffffffffffffffffffffffffffffffffffff1673ffffffffffffffffffffffffffffffffffffffff16815260200190815260200160002060009054906101000a900460ff16151514612276576040517f08c379a000000000000000000000000000000000000000000000000000000000815260040161226d906148c6565b60405180910390fd5b80600e8190555050565b61229161228b612918565b836129e7565b6122d0576040517f08c379a00000000000000000000000000000000000000000000000000000000081526004016122c790614b24565b60405180910390fd5b6122dc84848484612f1a565b50505050565b6122eb3361113d565b61234057600d60009054906101000a900460ff161561233f576040517f08c379a000000000000000000000000000000000000000000000000000000000815260040161233690614c22565b60405180910390fd5b5b6000670de0b6b3a7640000826123569190614d0e565b905080601560009054906101000a900473ffffffffffffffffffffffffffffffffffffffff1673ffffffffffffffffffffffffffffffffffffffff166370a08231336040518263ffffffff1660e01b81526004016123b49190614010565b602060405180830381865afa1580156123d1573d6000803e3d6000fd5b505050506040513d601f19601f820116820180604052508101906123f59190614d7d565b1015612436576040517f08c379a000000000000000000000000000000000000000000000000000000000815260040161242d9061506b565b60405180910390fd5b80601560009054906101000a900473ffffffffffffffffffffffffffffffffffffffff1673ffffffffffffffffffffffffffffffffffffffff1663dd62ed3e33306040518363ffffffff1660e01b815260040161249492919061508b565b602060405180830381865afa1580156124b1573d6000803e3d6000fd5b505050506040513d601f19601f820116820180604052508101906124d59190614d7d565b1015612516576040517f08c379a000000000000000000000000000000000000000000000000000000000815260040161250d90615100565b60405180910390fd5b61251f8361123e565b600060146000858152602001908152602001600020905060115481600001541061257e576040517f08c379a000000000000000000000000000000000000000000000000000000000815260040161257590615359565b60405180910390fd5b6000670de0b6b3a76400006012546125969190614d0e565b905060008383600201546125aa91906149e4565b9050600082826125ba9190614cdd565b90506000601154821061260657836011546125d59190614d0e565b836125e091906149b0565b9050601154856000018190555080836125f991906149b0565b8560020181905550612619565b8285600201819055508185600001819055505b61263188866000015487600101548860020154612d3f565b601560009054906101000a900473ffffffffffffffffffffffffffffffffffffffff1673ffffffffffffffffffffffffffffffffffffffff166323b872dd3330848a61267d91906149b0565b6040518463ffffffff1660e01b815260040161269b93929190614e16565b6020604051808303816000875af11580156126ba573d6000803e3d6000fd5b505050506040513d601f19601f820116820180604052508101906126de9190614e62565b505050505050505050565b60606126f482612f76565b9050919050565b6000600560008473ffffffffffffffffffffffffffffffffffffffff1673ffffffffffffffffffffffffffffffffffffffff16815260200190815260200160002060008373ffffffffffffffffffffffffffffffffffffffff1673ffffffffffffffffffffffffffffffffffffffff16815260200190815260200160002060009054906101000a900460ff16905092915050565b60135481565b60011515600b60003373ffffffffffffffffffffffffffffffffffffffff1673ffffffffffffffffffffffffffffffffffffffff16815260200190815260200160002060009054906101000a900460ff16151514612828576040517f08c379a000000000000000000000000000000000000000000000000000000000815260040161281f906148c6565b60405180910390fd5b8060108190555050565b60007f780e9d63000000000000000000000000000000000000000000000000000000007bffffffffffffffffffffffffffffffffffffffffffffffffffffffff1916827bffffffffffffffffffffffffffffffffffffffffffffffffffffffff191614806128a557506128a4826130c8565b5b9050919050565b60008073ffffffffffffffffffffffffffffffffffffffff166002600084815260200190815260200160002060009054906101000a900473ffffffffffffffffffffffffffffffffffffffff1673ffffffffffffffffffffffffffffffffffffffff1614159050919050565b600033905090565b816004600083815260200190815260200160002060006101000a81548173ffffffffffffffffffffffffffffffffffffffff021916908373ffffffffffffffffffffffffffffffffffffffff160217905550808273ffffffffffffffffffffffffffffffffffffffff1661299383611b6e565b73ffffffffffffffffffffffffffffffffffffffff167f8c5be1e5ebec7d5bd14f71427d1e84f3dd0314c0f7b2291e5b200ac8c7c3b92560405160405180910390a45050565b600081600001549050919050565b60006129f2826128ac565b612a31576040517f08c379a0000000000000000000000000000000000000000000000000000000008152600401612a28906153eb565b60405180910390fd5b6000612a3c83611b6e565b90508073ffffffffffffffffffffffffffffffffffffffff168473ffffffffffffffffffffffffffffffffffffffff161480612aab57508373ffffffffffffffffffffffffffffffffffffffff16612a938461084d565b73ffffffffffffffffffffffffffffffffffffffff16145b80612abc5750612abb81856126fb565b5b91505092915050565b8273ffffffffffffffffffffffffffffffffffffffff16612ae582611b6e565b73ffffffffffffffffffffffffffffffffffffffff1614612b3b576040517f08c379a0000000000000000000000000000000000000000000000000000000008152600401612b329061547d565b60405180910390fd5b600073ffffffffffffffffffffffffffffffffffffffff168273ffffffffffffffffffffffffffffffffffffffff161415612bab576040517f08c379a0000000000000000000000000000000000000000000000000000000008152600401612ba29061550f565b60405180910390fd5b612bb68383836131aa565b612bc1600082612920565b6001600360008573ffffffffffffffffffffffffffffffffffffffff1673ffffffffffffffffffffffffffffffffffffffff1681526020019081526020016000206000828254612c1191906149b0565b925050819055506001600360008473ffffffffffffffffffffffffffffffffffffffff1673ffffffffffffffffffffffffffffffffffffffff1681526020019081526020016000206000828254612c6891906149e4565b92505081905550816002600083815260200190815260200160002060006101000a81548173ffffffffffffffffffffffffffffffffffffffff021916908373ffffffffffffffffffffffffffffffffffffffff160217905550808273ffffffffffffffffffffffffffffffffffffffff168473ffffffffffffffffffffffffffffffffffffffff167fddf252ad1be2c89b69c2b068fc378daa952ba7f163c4a11628f55a4df523b3ef60405160405180910390a4505050565b612d3b8282604051806020016040528060008152506131ba565b5050565b612d8484612d4c85613215565b612d5585613215565b612d5e85613215565b604051602001612d709392919061564f565b604051602081830303815290604052613376565b50505050565b6001816000016000828254019250508190555050565b6000600880549050905090565b8173ffffffffffffffffffffffffffffffffffffffff168373ffffffffffffffffffffffffffffffffffffffff161415612e1c576040517f08c379a0000000000000000000000000000000000000000000000000000000008152600401612e13906156ed565b60405180910390fd5b80600560008573ffffffffffffffffffffffffffffffffffffffff1673ffffffffffffffffffffffffffffffffffffffff16815260200190815260200160002060008473ffffffffffffffffffffffffffffffffffffffff1673ffffffffffffffffffffffffffffffffffffffff16815260200190815260200160002060006101000a81548160ff0219169083151502179055508173ffffffffffffffffffffffffffffffffffffffff168373ffffffffffffffffffffffffffffffffffffffff167f17307eab39ab6107e8899845ad3d59bd9653f200f220920489ca2b5937696c3183604051612f0d9190613e6c565b60405180910390a3505050565b612f25848484612ac5565b612f31848484846133ea565b612f70576040517f08c379a0000000000000000000000000000000000000000000000000000000008152600401612f679061577f565b60405180910390fd5b50505050565b6060612f81826128ac565b612fc0576040517f08c379a0000000000000000000000000000000000000000000000000000000008152600401612fb790615811565b60405180910390fd5b6000600a60008481526020019081526020016000208054612fe090614626565b80601f016020809104026020016040519081016040528092919081815260200182805461300c90614626565b80156130595780601f1061302e57610100808354040283529160200191613059565b820191906000526020600020905b81548152906001019060200180831161303c57829003601f168201915b50505050509050600061306a613572565b90506000815114156130805781925050506130c3565b6000825111156130b557808260405160200161309d929190615831565b604051602081830303815290604052925050506130c3565b6130be84613604565b925050505b919050565b60007f80ac58cd000000000000000000000000000000000000000000000000000000007bffffffffffffffffffffffffffffffffffffffffffffffffffffffff1916827bffffffffffffffffffffffffffffffffffffffffffffffffffffffff1916148061319357507f5b5e139f000000000000000000000000000000000000000000000000000000007bffffffffffffffffffffffffffffffffffffffffffffffffffffffff1916827bffffffffffffffffffffffffffffffffffffffffffffffffffffffff1916145b806131a357506131a2826136ab565b5b9050919050565b6131b5838383613715565b505050565b6131c48383613829565b6131d160008484846133ea565b613210576040517f08c379a00000000000000000000000000000000000000000000000000000000081526004016132079061577f565b60405180910390fd5b505050565b6060600082141561325d576040518060400160405280600181526020017f30000000000000000000000000000000000000000000000000000000000000008152509050613371565b600082905060005b6000821461328f57808061327890614a3a565b915050600a826132889190614cdd565b9150613265565b60008167ffffffffffffffff8111156132ab576132aa6141bf565b5b6040519080825280601f01601f1916602001820160405280156132dd5781602001600182028036833780820191505090505b5090505b6000851461336a576001826132f691906149b0565b9150600a856133059190615855565b603061331191906149e4565b60f81b81838151811061332757613326614952565b5b60200101907effffffffffffffffffffffffffffffffffffffffffffffffffffffffffffff1916908160001a905350600a856133639190614cdd565b94506132e1565b8093505050505b919050565b61337f826128ac565b6133be576040517f08c379a00000000000000000000000000000000000000000000000000000000081526004016133b5906158f8565b60405180910390fd5b80600a600084815260200190815260200160002090805190602001906133e5929190613d15565b505050565b600061340b8473ffffffffffffffffffffffffffffffffffffffff166139f7565b15613565578373ffffffffffffffffffffffffffffffffffffffff1663150b7a02613434612918565b8786866040518563ffffffff1660e01b8152600401613456949392919061596d565b6020604051808303816000875af192505050801561349257506040513d601f19601f8201168201806040525081019061348f91906159ce565b60015b613515573d80600081146134c2576040519150601f19603f3d011682016040523d82523d6000602084013e6134c7565b606091505b5060008151141561350d576040517f08c379a00000000000000000000000000000000000000000000000000000000081526004016135049061577f565b60405180910390fd5b805181602001fd5b63150b7a0260e01b7bffffffffffffffffffffffffffffffffffffffffffffffffffffffff1916817bffffffffffffffffffffffffffffffffffffffffffffffffffffffff19161491505061356a565b600190505b949350505050565b60606016805461358190614626565b80601f01602080910402602001604051908101604052809291908181526020018280546135ad90614626565b80156135fa5780601f106135cf576101008083540402835291602001916135fa565b820191906000526020600020905b8154815290600101906020018083116135dd57829003601f168201915b5050505050905090565b606061360f826128ac565b61364e576040517f08c379a000000000000000000000000000000000000000000000000000000000815260040161364590615a6d565b60405180910390fd5b6000613658613572565b9050600081511161367857604051806020016040528060008152506136a3565b8061368284613215565b604051602001613693929190615831565b6040516020818303038152906040525b915050919050565b60007f01ffc9a7000000000000000000000000000000000000000000000000000000007bffffffffffffffffffffffffffffffffffffffffffffffffffffffff1916827bffffffffffffffffffffffffffffffffffffffffffffffffffffffff1916149050919050565b613720838383613a0a565b600073ffffffffffffffffffffffffffffffffffffffff168373ffffffffffffffffffffffffffffffffffffffff1614156137635761375e81613a0f565b6137a2565b8173ffffffffffffffffffffffffffffffffffffffff168373ffffffffffffffffffffffffffffffffffffffff16146137a1576137a08382613a58565b5b5b600073ffffffffffffffffffffffffffffffffffffffff168273ffffffffffffffffffffffffffffffffffffffff1614156137e5576137e081613bc5565b613824565b8273ffffffffffffffffffffffffffffffffffffffff168273ffffffffffffffffffffffffffffffffffffffff1614613823576138228282613c96565b5b5b505050565b600073ffffffffffffffffffffffffffffffffffffffff168273ffffffffffffffffffffffffffffffffffffffff161415613899576040517f08c379a000000000000000000000000000000000000000000000000000000000815260040161389090615ad9565b60405180910390fd5b6138a2816128ac565b156138e2576040517f08c379a00000000000000000000000000000000000000000000000000000000081526004016138d990615b45565b60405180910390fd5b6138ee600083836131aa565b6001600360008473ffffffffffffffffffffffffffffffffffffffff1673ffffffffffffffffffffffffffffffffffffffff168152602001908152602001600020600082825461393e91906149e4565b92505081905550816002600083815260200190815260200160002060006101000a81548173ffffffffffffffffffffffffffffffffffffffff021916908373ffffffffffffffffffffffffffffffffffffffff160217905550808273ffffffffffffffffffffffffffffffffffffffff16600073ffffffffffffffffffffffffffffffffffffffff167fddf252ad1be2c89b69c2b068fc378daa952ba7f163c4a11628f55a4df523b3ef60405160405180910390a45050565b600080823b905060008111915050919050565b505050565b6008805490506009600083815260200190815260200160002081905550600881908060018154018082558091505060019003906000526020600020016000909190919091505550565b60006001613a6584611dd2565b613a6f91906149b0565b9050600060076000848152602001908152602001600020549050818114613b54576000600660008673ffffffffffffffffffffffffffffffffffffffff1673ffffffffffffffffffffffffffffffffffffffff168152602001908152602001600020600084815260200190815260200160002054905080600660008773ffffffffffffffffffffffffffffffffffffffff1673ffffffffffffffffffffffffffffffffffffffff168152602001908152602001600020600084815260200190815260200160002081905550816007600083815260200190815260200160002081905550505b6007600084815260200190815260200160002060009055600660008573ffffffffffffffffffffffffffffffffffffffff1673ffffffffffffffffffffffffffffffffffffffff16815260200190815260200160002060008381526020019081526020016000206000905550505050565b60006001600880549050613bd991906149b0565b9050600060096000848152602001908152602001600020549050600060088381548110613c0957613c08614952565b5b906000526020600020015490508060088381548110613c2b57613c2a614952565b5b906000526020600020018190555081600960008381526020019081526020016000208190555060096000858152602001908152602001600020600090556008805480613c7a57613c79614a83565b5b6001900381819060005260206000200160009055905550505050565b6000613ca183611dd2565b905081600660008573ffffffffffffffffffffffffffffffffffffffff1673ffffffffffffffffffffffffffffffffffffffff168152602001908152602001600020600083815260200190815260200160002081905550806007600084815260200190815260200160002081905550505050565b828054613d2190614626565b90600052602060002090601f016020900481019282613d435760008555613d8a565b82601f10613d5c57805160ff1916838001178555613d8a565b82800160010185558215613d8a579182015b82811115613d89578251825591602001919060010190613d6e565b5b509050613d979190613d9b565b5090565b5b80821115613db4576000816000905550600101613d9c565b5090565b6000604051905090565b600080fd5b600080fd5b60007fffffffff0000000000000000000000000000000000000000000000000000000082169050919050565b613e0181613dcc565b8114613e0c57600080fd5b50565b600081359050613e1e81613df8565b92915050565b600060208284031215613e3a57613e39613dc2565b5b6000613e4884828501613e0f565b91505092915050565b60008115159050919050565b613e6681613e51565b82525050565b6000602082019050613e816000830184613e5d565b92915050565b6000819050919050565b613e9a81613e87565b82525050565b6000602082019050613eb56000830184613e91565b92915050565b600081519050919050565b600082825260208201905092915050565b60005b83811015613ef5578082015181840152602081019050613eda565b83811115613f04576000848401525b50505050565b6000601f19601f8301169050919050565b6000613f2682613ebb565b613f308185613ec6565b9350613f40818560208601613ed7565b613f4981613f0a565b840191505092915050565b60006020820190508181036000830152613f6e8184613f1b565b905092915050565b613f7f81613e87565b8114613f8a57600080fd5b50565b600081359050613f9c81613f76565b92915050565b600060208284031215613fb857613fb7613dc2565b5b6000613fc684828501613f8d565b91505092915050565b600073ffffffffffffffffffffffffffffffffffffffff82169050919050565b6000613ffa82613fcf565b9050919050565b61400a81613fef565b82525050565b60006020820190506140256000830184614001565b92915050565b61403481613fef565b811461403f57600080fd5b50565b6000813590506140518161402b565b92915050565b6000806040838503121561406e5761406d613dc2565b5b600061407c85828601614042565b925050602061408d85828601613f8d565b9150509250929050565b60006080820190506140ac6000830187613e91565b6140b96020830186613e91565b6140c66040830185613e91565b6140d36060830184613e91565b95945050505050565b6000602082840312156140f2576140f1613dc2565b5b600061410084828501614042565b91505092915050565b60008060006060848603121561412257614121613dc2565b5b600061413086828701614042565b935050602061414186828701614042565b925050604061415286828701613f8d565b9150509250925092565b61416581613e51565b811461417057600080fd5b50565b6000813590506141828161415c565b92915050565b60006020828403121561419e5761419d613dc2565b5b60006141ac84828501614173565b91505092915050565b600080fd5b600080fd5b7f4e487b7100000000000000000000000000000000000000000000000000000000600052604160045260246000fd5b6141f782613f0a565b810181811067ffffffffffffffff82111715614216576142156141bf565b5b80604052505050565b6000614229613db8565b905061423582826141ee565b919050565b600067ffffffffffffffff821115614255576142546141bf565b5b61425e82613f0a565b9050602081019050919050565b82818337600083830152505050565b600061428d6142888461423a565b61421f565b9050828152602081018484840111156142a9576142a86141ba565b5b6142b484828561426b565b509392505050565b600082601f8301126142d1576142d06141b5565b5b81356142e184826020860161427a565b91505092915050565b600060208284031215614300576142ff613dc2565b5b600082013567ffffffffffffffff81111561431e5761431d613dc7565b5b61432a848285016142bc565b91505092915050565b600081519050919050565b600082825260208201905092915050565b6000819050602082019050919050565b61436881613fef565b82525050565b600061437a838361435f565b60208301905092915050565b6000602082019050919050565b600061439e82614333565b6143a8818561433e565b93506143b38361434f565b8060005b838110156143e45781516143cb888261436e565b97506143d683614386565b9250506001810190506143b7565b5085935050505092915050565b6000602082019050818103600083015261440b8184614393565b905092915050565b6000806040838503121561442a57614429613dc2565b5b600061443885828601614042565b925050602061444985828601614173565b9150509250929050565b600067ffffffffffffffff82111561446e5761446d6141bf565b5b61447782613f0a565b9050602081019050919050565b600061449761449284614453565b61421f565b9050828152602081018484840111156144b3576144b26141ba565b5b6144be84828561426b565b509392505050565b600082601f8301126144db576144da6141b5565b5b81356144eb848260208601614484565b91505092915050565b6000806000806080858703121561450e5761450d613dc2565b5b600061451c87828801614042565b945050602061452d87828801614042565b935050604061453e87828801613f8d565b925050606085013567ffffffffffffffff81111561455f5761455e613dc7565b5b61456b878288016144c6565b91505092959194509250565b6000806040838503121561458e5761458d613dc2565b5b600061459c85828601613f8d565b92505060206145ad85828601613f8d565b9150509250929050565b600080604083850312156145ce576145cd613dc2565b5b60006145dc85828601614042565b92505060206145ed85828601614042565b9150509250929050565b7f4e487b7100000000000000000000000000000000000000000000000000000000600052602260045260246000fd5b6000600282049050600182168061463e57607f821691505b60208210811415614652576146516145f7565b5b50919050565b7f4552433732313a20617070726f76656420717565727920666f72206e6f6e657860008201527f697374656e7420746f6b656e0000000000000000000000000000000000000000602082015250565b60006146b4602c83613ec6565b91506146bf82614658565b604082019050919050565b600060208201905081810360008301526146e3816146a7565b9050919050565b7f4552433732313a20617070726f76616c20746f2063757272656e74206f776e6560008201527f7200000000000000000000000000000000000000000000000000000000000000602082015250565b6000614746602183613ec6565b9150614751826146ea565b604082019050919050565b6000602082019050818103600083015261477581614739565b9050919050565b7f4552433732313a20617070726f76652063616c6c6572206973206e6f74206f7760008201527f6e6572206e6f7220617070726f76656420666f7220616c6c0000000000000000602082015250565b60006147d8603883613ec6565b91506147e38261477c565b604082019050919050565b60006020820190508181036000830152614807816147cb565b9050919050565b7f5468697320746f6b656e20494420646f6573206e6f7420657869737400000000600082015250565b6000614844601c83613ec6565b915061484f8261480e565b602082019050919050565b6000602082019050818103600083015261487381614837565b9050919050565b7f43616c6c6572206973206e6f7420616e206f776e657200000000000000000000600082015250565b60006148b0601683613ec6565b91506148bb8261487a565b602082019050919050565b600060208201905081810360008301526148df816148a3565b9050919050565b7f41646472657373206973206e6f7420616e206f776e6572000000000000000000600082015250565b600061491c601783613ec6565b9150614927826148e6565b602082019050919050565b6000602082019050818103600083015261494b8161490f565b9050919050565b7f4e487b7100000000000000000000000000000000000000000000000000000000600052603260045260246000fd5b7f4e487b7100000000000000000000000000000000000000000000000000000000600052601160045260246000fd5b60006149bb82613e87565b91506149c683613e87565b9250828210156149d9576149d8614981565b5b828203905092915050565b60006149ef82613e87565b91506149fa83613e87565b9250827fffffffffffffffffffffffffffffffffffffffffffffffffffffffffffffffff03821115614a2f57614a2e614981565b5b828201905092915050565b6000614a4582613e87565b91507fffffffffffffffffffffffffffffffffffffffffffffffffffffffffffffffff821415614a7857614a77614981565b5b600182019050919050565b7f4e487b7100000000000000000000000000000000000000000000000000000000600052603160045260246000fd5b7f4552433732313a207472616e736665722063616c6c6572206973206e6f74206f60008201527f776e6572206e6f7220617070726f766564000000000000000000000000000000602082015250565b6000614b0e603183613ec6565b9150614b1982614ab2565b604082019050919050565b60006020820190508181036000830152614b3d81614b01565b9050919050565b7f455243373231456e756d657261626c653a206f776e657220696e646578206f7560008201527f74206f6620626f756e6473000000000000000000000000000000000000000000602082015250565b6000614ba0602b83613ec6565b9150614bab82614b44565b604082019050919050565b60006020820190508181036000830152614bcf81614b93565b9050919050565b7f436f6e7472616374207061757365640000000000000000000000000000000000600082015250565b6000614c0c600f83613ec6565b9150614c1782614bd6565b602082019050919050565b60006020820190508181036000830152614c3b81614bff565b9050919050565b7f53656e64657220646f6573206e6f74206f776e207468697320746f6b656e0000600082015250565b6000614c78601e83613ec6565b9150614c8382614c42565b602082019050919050565b60006020820190508181036000830152614ca781614c6b565b9050919050565b7f4e487b7100000000000000000000000000000000000000000000000000000000600052601260045260246000fd5b6000614ce882613e87565b9150614cf383613e87565b925082614d0357614d02614cae565b5b828204905092915050565b6000614d1982613e87565b9150614d2483613e87565b9250817fffffffffffffffffffffffffffffffffffffffffffffffffffffffffffffffff0483118215151615614d5d57614d5c614981565b5b828202905092915050565b600081519050614d7781613f76565b92915050565b600060208284031215614d9357614d92613dc2565b5b6000614da184828501614d68565b91505092915050565b7f4e6f7420656e6f7567682062616c616e636520746f2077697468647261770000600082015250565b6000614de0601e83613ec6565b9150614deb82614daa565b602082019050919050565b60006020820190508181036000830152614e0f81614dd3565b9050919050565b6000606082019050614e2b6000830186614001565b614e386020830185614001565b614e456040830184613e91565b949350505050565b600081519050614e5c8161415c565b92915050565b600060208284031215614e7857614e77613dc2565b5b6000614e8684828501614e4d565b91505092915050565b7f4d617820737570706c7920686173206265656e20726561636865640000000000600082015250565b6000614ec5601b83613ec6565b9150614ed082614e8f565b602082019050919050565b60006020820190508181036000830152614ef481614eb8565b9050919050565b7f4d6178206d696e7420657863656564656420666f72207468697320616464726560008201527f7373000000000000000000000000000000000000000000000000000000000000602082015250565b6000614f57602283613ec6565b9150614f6282614efb565b604082019050919050565b60006020820190508181036000830152614f8681614f4a565b9050919050565b7f54686973206d696e7420776f756c642065786365656420737570706c7920636160008201527f7000000000000000000000000000000000000000000000000000000000000000602082015250565b6000614fe9602183613ec6565b9150614ff482614f8d565b604082019050919050565b6000602082019050818103600083015261501881614fdc565b9050919050565b7f546f6b656e2062616c616e636520746f6f206c6f770000000000000000000000600082015250565b6000615055601583613ec6565b91506150608261501f565b602082019050919050565b6000602082019050818103600083015261508481615048565b9050919050565b60006040820190506150a06000830185614001565b6150ad6020830184614001565b9392505050565b7f4e6f7420656e6f75676820616c6c6f77616e6365000000000000000000000000600082015250565b60006150ea601483613ec6565b91506150f5826150b4565b602082019050919050565b60006020820190508181036000830152615119816150dd565b9050919050565b60006060820190506151356000830186614001565b6151426020830185613e91565b61514f6040830184613e91565b949350505050565b7f455243373231456e756d657261626c653a20676c6f62616c20696e646578206f60008201527f7574206f6620626f756e64730000000000000000000000000000000000000000602082015250565b60006151b3602c83613ec6565b91506151be82615157565b604082019050919050565b600060208201905081810360008301526151e2816151a6565b9050919050565b7f4552433732313a206f776e657220717565727920666f72206e6f6e657869737460008201527f656e7420746f6b656e0000000000000000000000000000000000000000000000602082015250565b6000615245602983613ec6565b9150615250826151e9565b604082019050919050565b6000602082019050818103600083015261527481615238565b9050919050565b7f4552433732313a2062616c616e636520717565727920666f7220746865207a6560008201527f726f206164647265737300000000000000000000000000000000000000000000602082015250565b60006152d7602a83613ec6565b91506152e28261527b565b604082019050919050565b60006020820190508181036000830152615306816152ca565b9050919050565b7f54686973204e465420697320616c7265616479206d6178206c6576656c000000600082015250565b6000615343601d83613ec6565b915061534e8261530d565b602082019050919050565b6000602082019050818103600083015261537281615336565b9050919050565b7f4552433732313a206f70657261746f7220717565727920666f72206e6f6e657860008201527f697374656e7420746f6b656e0000000000000000000000000000000000000000602082015250565b60006153d5602c83613ec6565b91506153e082615379565b604082019050919050565b60006020820190508181036000830152615404816153c8565b9050919050565b7f4552433732313a207472616e73666572206f6620746f6b656e2074686174206960008201527f73206e6f74206f776e0000000000000000000000000000000000000000000000602082015250565b6000615467602983613ec6565b91506154728261540b565b604082019050919050565b600060208201905081810360008301526154968161545a565b9050919050565b7f4552433732313a207472616e7366657220746f20746865207a65726f2061646460008201527f7265737300000000000000000000000000000000000000000000000000000000602082015250565b60006154f9602483613ec6565b91506155048261549d565b604082019050919050565b60006020820190508181036000830152615528816154ec565b9050919050565b600081905092915050565b7f6c6576656c3d0000000000000000000000000000000000000000000000000000600082015250565b600061557060068361552f565b915061557b8261553a565b600682019050919050565b600061559182613ebb565b61559b818561552f565b93506155ab818560208601613ed7565b80840191505092915050565b7f2662697274683d00000000000000000000000000000000000000000000000000600082015250565b60006155ed60078361552f565b91506155f8826155b7565b600782019050919050565b7f266c6f636b65643d000000000000000000000000000000000000000000000000600082015250565b600061563960088361552f565b915061564482615603565b600882019050919050565b600061565a82615563565b91506156668286615586565b9150615671826155e0565b915061567d8285615586565b91506156888261562c565b91506156948284615586565b9150819050949350505050565b7f4552433732313a20617070726f766520746f2063616c6c657200000000000000600082015250565b60006156d7601983613ec6565b91506156e2826156a1565b602082019050919050565b60006020820190508181036000830152615706816156ca565b9050919050565b7f4552433732313a207472616e7366657220746f206e6f6e20455243373231526560008201527f63656976657220696d706c656d656e7465720000000000000000000000000000602082015250565b6000615769603283613ec6565b91506157748261570d565b604082019050919050565b600060208201905081810360008301526157988161575c565b9050919050565b7f45524337323155524953746f726167653a2055524920717565727920666f722060008201527f6e6f6e6578697374656e7420746f6b656e000000000000000000000000000000602082015250565b60006157fb603183613ec6565b91506158068261579f565b604082019050919050565b6000602082019050818103600083015261582a816157ee565b9050919050565b600061583d8285615586565b91506158498284615586565b91508190509392505050565b600061586082613e87565b915061586b83613e87565b92508261587b5761587a614cae565b5b828206905092915050565b7f45524337323155524953746f726167653a2055524920736574206f66206e6f6e60008201527f6578697374656e7420746f6b656e000000000000000000000000000000000000602082015250565b60006158e2602e83613ec6565b91506158ed82615886565b604082019050919050565b60006020820190508181036000830152615911816158d5565b9050919050565b600081519050919050565b600082825260208201905092915050565b600061593f82615918565b6159498185615923565b9350615959818560208601613ed7565b61596281613f0a565b840191505092915050565b60006080820190506159826000830187614001565b61598f6020830186614001565b61599c6040830185613e91565b81810360608301526159ae8184615934565b905095945050505050565b6000815190506159c881613df8565b92915050565b6000602082840312156159e4576159e3613dc2565b5b60006159f2848285016159b9565b91505092915050565b7f4552433732314d657461646174613a2055524920717565727920666f72206e6f60008201527f6e6578697374656e7420746f6b656e0000000000000000000000000000000000602082015250565b6000615a57602f83613ec6565b9150615a62826159fb565b604082019050919050565b60006020820190508181036000830152615a8681615a4a565b9050919050565b7f4552433732313a206d696e7420746f20746865207a65726f2061646472657373600082015250565b6000615ac3602083613ec6565b9150615ace82615a8d565b602082019050919050565b60006020820190508181036000830152615af281615ab6565b9050919050565b7f4552433732313a20746f6b656e20616c7265616479206d696e74656400000000600082015250565b6000615b2f601c83613ec6565b9150615b3a82615af9565b602082019050919050565b60006020820190508181036000830152615b5e81615b22565b905091905056fea2646970667358221220811d2209508107a3b8f10dda498eea820373eefaf0d1db333bae0a1e9e33e3b064736f6c634300080b003368747470733a2f2f736c696d656b65657065722d7765622d6465762e6865726f6b756170702e636f6d2f6170692f6e66742f646174613f",
  "immutableReferences": {},
  "source": "// SPDX-License-Identifier: MIT\n\npragma solidity ^0.8.11;\n\nimport \"./PauseOwners.sol\";\nimport \"./Token.sol\";\nimport \"@openzeppelin/contracts/token/ERC721/ERC721.sol\";\nimport \"@openzeppelin/contracts/token/ERC721/extensions/ERC721Enumerable.sol\";\nimport \"@openzeppelin/contracts/token/ERC721/extensions/ERC721URIStorage.sol\";\nimport \"@openzeppelin/contracts/utils/Counters.sol\";\nimport \"@openzeppelin/contracts/utils/Strings.sol\";\n\ncontract NFT is ERC721, ERC721Enumerable, ERC721URIStorage, PauseOwners {\n\tusing Counters for Counters.Counter;\n\tusing Strings for uint256;\n\n\tevent Minted(address minter, uint256 amount, uint256 date);\n\tevent Compounded(address compounder, uint256 amount, uint256 date);\n\tevent Claimed(address claimer, uint256 amount, uint256 date);\n\n\tuint256 public addressMax = 5;\n\tuint256 public supplyMax = 1000;\n\tuint256 public mintPrice = 1000; // Mint price of one NFT in tokens\n\tuint256 public maxTokenLevel = 10;\n\tuint256 public tokensPerLevel = 1000;\n\tuint256 public rewardDivisor = 10;\n\tmapping(uint256 => NFTData) public nftData;\n\n\tToken private token;\n\tstring private nftBaseURI =\n\t\t\"https://slimekeeper-web-dev.herokuapp.com/api/nft/data?\";\n\tmapping(address => uint256) private amountMinted;\n\tCounters.Counter private tokenIds;\n\n\t// Represents in-game properties\n\tstruct NFTData {\n\t\tuint256 level; // Current level of NFT\n\t\tuint256 birth; // Date this NFT was minted\n\t\tuint256 locked; // Tokens currently locked in this NFT\n\t\tuint256 claimed; // Date last rewards were last claimed, if not claimed once, same as birth\n\n\t\t// Other in-game properties here and API configured to show them\n\t}\n\n\tconstructor() ERC721(\"NFT\", \"NFT\") {}\n\n\tfunction mint(address to, uint256 amount) public checkPaused {\n\t\trequire(totalSupply() < supplyMax, \"Max supply has been reached\");\n\t\trequire(\n\t\t\tamountMinted[to] + amount <= addressMax,\n\t\t\t\"Max mint exceeded for this address\"\n\t\t);\n\t\trequire(\n\t\t\tamountMinted[to] + amount <= supplyMax,\n\t\t\t\"This mint would exceed supply cap\"\n\t\t);\n\t\tuint256 totalMintPrice = (amount * mintPrice) * (10**18);\n\t\trequire(token.balanceOf(to) >= totalMintPrice, \"Token balance too low\");\n\t\trequire(\n\t\t\ttoken.allowance(to, address(this)) >= totalMintPrice,\n\t\t\t\"Not enough allowance\"\n\t\t);\n\t\tuint256 birth = block.timestamp;\n\t\tfor (uint256 i = 0; i < amount; i++) {\n\t\t\tuint256 currTokenId = tokenIds.current();\n\t\t\t_safeMint(to, currTokenId);\n\t\t\tupdateTokenUri(currTokenId, birth, 1, 0);\n\t\t\tnftData[currTokenId] = NFTData({\n\t\t\t\tlevel: 1,\n\t\t\t\tbirth: birth,\n\t\t\t\tlocked: 0,\n\t\t\t\tclaimed: birth\n\t\t\t});\n\t\t\ttokenIds.increment();\n\t\t}\n\t\tamountMinted[to] += amount;\n\t\ttoken.transferFrom(to, address(this), totalMintPrice);\n\t\temit Minted(to, amount, birth);\n\t}\n\n\tfunction compound(uint256 tokenId, uint256 amount) public checkPaused {\n\t\tuint256 tokenAmount = amount * (10**18);\n\t\trequire(\n\t\t\ttoken.balanceOf(msg.sender) >= tokenAmount,\n\t\t\t\"Token balance too low\"\n\t\t);\n\t\trequire(\n\t\t\ttoken.allowance(msg.sender, address(this)) >= tokenAmount,\n\t\t\t\"Not enough allowance\"\n\t\t);\n\t\tclaim(tokenId); // Claim before compounding\n\t\tNFTData storage data = nftData[tokenId];\n\t\trequire(data.level < maxTokenLevel, \"This NFT is already max level\");\n\t\tuint256 tokensPerLevelDec = tokensPerLevel * (10**18);\n\t\tuint256 newLocked = data.locked + tokenAmount;\n\t\tuint256 newLevel = newLocked / tokensPerLevelDec;\n\t\tuint256 excessAmount = 0;\n\t\tif (newLevel >= maxTokenLevel) {\n\t\t\texcessAmount = newLocked - (maxTokenLevel * tokensPerLevelDec);\n\t\t\tdata.level = maxTokenLevel;\n\t\t\tdata.locked = newLocked - excessAmount;\n\t\t} else {\n\t\t\tdata.locked = newLocked;\n\t\t\tdata.level = newLevel;\n\t\t}\n\t\tupdateTokenUri(tokenId, data.level, data.birth, data.locked);\n\t\ttoken.transferFrom(\n\t\t\tmsg.sender,\n\t\t\taddress(this),\n\t\t\ttokenAmount - excessAmount\n\t\t);\n\t}\n\n\tfunction claim(uint256 tokenId) public checkPaused {\n\t\trequire(_exists(tokenId), \"This token ID does not exist\");\n\t\trequire(\n\t\t\townerOf(tokenId) == msg.sender,\n\t\t\t\"Sender does not own this token\"\n\t\t);\n\t\tNFTData storage data = nftData[tokenId];\n\t\tuint256 rewardAmount = (((block.timestamp - data.claimed) /\n\t\t\trewardDivisor) * data.level) * (10**18);\n\t\tdata.claimed = block.timestamp;\n\t\trequire(\n\t\t\ttoken.balanceOf(address(this)) >= rewardAmount,\n\t\t\t\"Not enough balance to withdraw\"\n\t\t);\n\t\ttoken.transferFrom(address(this), msg.sender, rewardAmount);\n\t}\n\n\tfunction getNFTData(uint256 tokenId)\n\t\tpublic\n\t\tview\n\t\treturns (\n\t\t\tuint256,\n\t\t\tuint256,\n\t\t\tuint256,\n\t\t\tuint256\n\t\t)\n\t{\n\t\trequire(_exists(tokenId), \"This token ID does not exist\");\n\t\tNFTData storage data = nftData[tokenId];\n\t\treturn (data.level, data.birth, data.locked, data.claimed);\n\t}\n\n\tfunction setAddressMax(uint256 newMax) external onlyOwners {\n\t\taddressMax = newMax;\n\t}\n\n\tfunction setSupplyMax(uint256 newMax) external onlyOwners {\n\t\tsupplyMax = newMax;\n\t}\n\n\tfunction setMaxTokenLevel(uint256 newLevel) external onlyOwners {\n\t\tmintPrice = newLevel;\n\t}\n\n\tfunction setMintPrice(uint256 newPrice) external onlyOwners {\n\t\tmintPrice = newPrice;\n\t}\n\n\tfunction setTokensPerLevel(uint256 newTokensPerLevel) external onlyOwners {\n\t\ttokensPerLevel = newTokensPerLevel;\n\t}\n\n\tfunction setRewardDivisor(uint256 newRewardDivisor) external onlyOwners {\n\t\trewardDivisor = newRewardDivisor;\n\t}\n\n\tfunction setTokenAddress(address newTokenAddress) external onlyOwners {\n\t\ttoken = Token(newTokenAddress);\n\t}\n\n\tfunction setBaseUri(string memory newBaseURI) external onlyOwners {\n\t\tnftBaseURI = newBaseURI;\n\t}\n\n\tfunction totalSupply() public view override returns (uint256) {\n\t\treturn tokenIds.current();\n\t}\n\n\tfunction _baseURI() internal view override returns (string memory) {\n\t\treturn nftBaseURI;\n\t}\n\n\tfunction updateTokenUri(\n\t\tuint256 tokenId,\n\t\tuint256 level,\n\t\tuint256 birth,\n\t\tuint256 locked\n\t) private {\n\t\t_setTokenURI(\n\t\t\ttokenId,\n\t\t\tstring(\n\t\t\t\tabi.encodePacked(\n\t\t\t\t\t\"level=\",\n\t\t\t\t\tlevel.toString(),\n\t\t\t\t\t\"&birth=\",\n\t\t\t\t\tbirth.toString(),\n\t\t\t\t\t\"&locked=\",\n\t\t\t\t\tlocked.toString()\n\t\t\t\t)\n\t\t\t)\n\t\t);\n\t}\n\n\t// The following functions are overrides required by Solidity.\n\tfunction _beforeTokenTransfer(\n\t\taddress from,\n\t\taddress to,\n\t\tuint256 tokenId\n\t) internal override(ERC721, ERC721Enumerable) {\n\t\tsuper._beforeTokenTransfer(from, to, tokenId);\n\t}\n\n\tfunction _burn(uint256 tokenId)\n\t\tinternal\n\t\toverride(ERC721, ERC721URIStorage)\n\t{\n\t\tsuper._burn(tokenId);\n\t}\n\n\tfunction tokenURI(uint256 tokenId)\n\t\tpublic\n\t\tview\n\t\toverride(ERC721, ERC721URIStorage)\n\t\treturns (string memory)\n\t{\n\t\treturn super.tokenURI(tokenId);\n\t}\n\n\tfunction supportsInterface(bytes4 interfaceId)\n\t\tpublic\n\t\tview\n\t\toverride(ERC721, ERC721Enumerable)\n\t\treturns (bool)\n\t{\n\t\treturn super.supportsInterface(interfaceId);\n\t}\n}\n",
  "sourcePath": "C:\\Users\\sants\\Desktop\\slimekeeper\\slimekeeper_contracts\\contracts\\NFT.sol",
  "compiler": {
    "name": "solc",
    "version": "0.8.11+commit.d7f03943.Emscripten.clang"
  },
  "schemaVersion": "3.4.4",
  "updatedAt": "2022-02-09T01:17:28.606Z",
  "networkType": "ethereum",
  "devdoc": {
    "kind": "dev",
    "methods": {
      "approve(address,uint256)": {
        "details": "See {IERC721-approve}."
      },
      "balanceOf(address)": {
        "details": "See {IERC721-balanceOf}."
      },
      "getApproved(uint256)": {
        "details": "See {IERC721-getApproved}."
      },
      "isApprovedForAll(address,address)": {
        "details": "See {IERC721-isApprovedForAll}."
      },
      "name()": {
        "details": "See {IERC721Metadata-name}."
      },
      "ownerOf(uint256)": {
        "details": "See {IERC721-ownerOf}."
      },
      "safeTransferFrom(address,address,uint256)": {
        "details": "See {IERC721-safeTransferFrom}."
      },
      "safeTransferFrom(address,address,uint256,bytes)": {
        "details": "See {IERC721-safeTransferFrom}."
      },
      "setApprovalForAll(address,bool)": {
        "details": "See {IERC721-setApprovalForAll}."
      },
      "symbol()": {
        "details": "See {IERC721Metadata-symbol}."
      },
      "tokenByIndex(uint256)": {
        "details": "See {IERC721Enumerable-tokenByIndex}."
      },
      "tokenOfOwnerByIndex(address,uint256)": {
        "details": "See {IERC721Enumerable-tokenOfOwnerByIndex}."
      },
      "totalSupply()": {
        "details": "See {IERC721Enumerable-totalSupply}."
      },
      "transferFrom(address,address,uint256)": {
        "details": "See {IERC721-transferFrom}."
      }
    },
    "version": 1
  },
  "userdoc": {
    "kind": "user",
    "methods": {},
    "version": 1
  }
}