{
  "contractName": "NFT",
  "abi": [
    {
      "inputs": [],
      "stateMutability": "nonpayable",
      "type": "constructor"
    },
    {
      "anonymous": false,
      "inputs": [
        {
          "indexed": true,
          "internalType": "address",
          "name": "owner",
          "type": "address"
        },
        {
          "indexed": true,
          "internalType": "address",
          "name": "approved",
          "type": "address"
        },
        {
          "indexed": true,
          "internalType": "uint256",
          "name": "tokenId",
          "type": "uint256"
        }
      ],
      "name": "Approval",
      "type": "event"
    },
    {
      "anonymous": false,
      "inputs": [
        {
          "indexed": true,
          "internalType": "address",
          "name": "owner",
          "type": "address"
        },
        {
          "indexed": true,
          "internalType": "address",
          "name": "operator",
          "type": "address"
        },
        {
          "indexed": false,
          "internalType": "bool",
          "name": "approved",
          "type": "bool"
        }
      ],
      "name": "ApprovalForAll",
      "type": "event"
    },
    {
      "anonymous": false,
      "inputs": [
        {
          "indexed": false,
          "internalType": "address",
          "name": "claimer",
          "type": "address"
        },
        {
          "indexed": false,
          "internalType": "uint256",
          "name": "amount",
          "type": "uint256"
        },
        {
          "indexed": false,
          "internalType": "uint256",
          "name": "date",
          "type": "uint256"
        }
      ],
      "name": "Claimed",
      "type": "event"
    },
    {
      "anonymous": false,
      "inputs": [
        {
          "indexed": false,
          "internalType": "address",
          "name": "compounder",
          "type": "address"
        },
        {
          "indexed": false,
          "internalType": "uint256",
          "name": "amount",
          "type": "uint256"
        },
        {
          "indexed": false,
          "internalType": "uint256",
          "name": "date",
          "type": "uint256"
        }
      ],
      "name": "Compounded",
      "type": "event"
    },
    {
      "anonymous": false,
      "inputs": [
        {
          "indexed": false,
          "internalType": "address",
          "name": "minter",
          "type": "address"
        },
        {
          "indexed": false,
          "internalType": "uint256",
          "name": "amount",
          "type": "uint256"
        },
        {
          "indexed": false,
          "internalType": "uint256",
          "name": "date",
          "type": "uint256"
        }
      ],
      "name": "Minted",
      "type": "event"
    },
    {
      "anonymous": false,
      "inputs": [
        {
          "indexed": true,
          "internalType": "address",
          "name": "adder",
          "type": "address"
        },
        {
          "indexed": true,
          "internalType": "address",
          "name": "owner",
          "type": "address"
        },
        {
          "indexed": true,
          "internalType": "uint256",
          "name": "timestamp",
          "type": "uint256"
        }
      ],
      "name": "OwnerAdded",
      "type": "event"
    },
    {
      "anonymous": false,
      "inputs": [
        {
          "indexed": true,
          "internalType": "address",
          "name": "remover",
          "type": "address"
        },
        {
          "indexed": true,
          "internalType": "address",
          "name": "removed",
          "type": "address"
        },
        {
          "indexed": true,
          "internalType": "uint256",
          "name": "timestamp",
          "type": "uint256"
        }
      ],
      "name": "OwnerRemoved",
      "type": "event"
    },
    {
      "anonymous": false,
      "inputs": [
        {
          "indexed": true,
          "internalType": "address",
          "name": "from",
          "type": "address"
        },
        {
          "indexed": true,
          "internalType": "address",
          "name": "to",
          "type": "address"
        },
        {
          "indexed": true,
          "internalType": "uint256",
          "name": "tokenId",
          "type": "uint256"
        }
      ],
      "name": "Transfer",
      "type": "event"
    },
    {
      "inputs": [
        {
          "internalType": "address",
          "name": "owner",
          "type": "address"
        }
      ],
      "name": "addOwner",
      "outputs": [],
      "stateMutability": "nonpayable",
      "type": "function"
    },
    {
      "inputs": [],
      "name": "addressMax",
      "outputs": [
        {
          "internalType": "uint256",
          "name": "",
          "type": "uint256"
        }
      ],
      "stateMutability": "view",
      "type": "function"
    },
    {
      "inputs": [
        {
          "internalType": "address",
          "name": "to",
          "type": "address"
        },
        {
          "internalType": "uint256",
          "name": "tokenId",
          "type": "uint256"
        }
      ],
      "name": "approve",
      "outputs": [],
      "stateMutability": "nonpayable",
      "type": "function"
    },
    {
      "inputs": [
        {
          "internalType": "address",
          "name": "owner",
          "type": "address"
        }
      ],
      "name": "balanceOf",
      "outputs": [
        {
          "internalType": "uint256",
          "name": "",
          "type": "uint256"
        }
      ],
      "stateMutability": "view",
      "type": "function"
    },
    {
      "inputs": [
        {
          "internalType": "uint256",
          "name": "tokenId",
          "type": "uint256"
        }
      ],
      "name": "getApproved",
      "outputs": [
        {
          "internalType": "address",
          "name": "",
          "type": "address"
        }
      ],
      "stateMutability": "view",
      "type": "function"
    },
    {
      "inputs": [],
      "name": "getOwners",
      "outputs": [
        {
          "internalType": "address[]",
          "name": "",
          "type": "address[]"
        }
      ],
      "stateMutability": "view",
      "type": "function"
    },
    {
      "inputs": [
        {
          "internalType": "address",
          "name": "owner",
          "type": "address"
        },
        {
          "internalType": "address",
          "name": "operator",
          "type": "address"
        }
      ],
      "name": "isApprovedForAll",
      "outputs": [
        {
          "internalType": "bool",
          "name": "",
          "type": "bool"
        }
      ],
      "stateMutability": "view",
      "type": "function"
    },
    {
      "inputs": [
        {
          "internalType": "address",
          "name": "owner",
          "type": "address"
        }
      ],
      "name": "isOwner",
      "outputs": [
        {
          "internalType": "bool",
          "name": "",
          "type": "bool"
        }
      ],
      "stateMutability": "view",
      "type": "function"
    },
    {
      "inputs": [],
      "name": "isPaused",
      "outputs": [
        {
          "internalType": "bool",
          "name": "",
          "type": "bool"
        }
      ],
      "stateMutability": "view",
      "type": "function"
    },
    {
      "inputs": [],
      "name": "maxTokenLevel",
      "outputs": [
        {
          "internalType": "uint256",
          "name": "",
          "type": "uint256"
        }
      ],
      "stateMutability": "view",
      "type": "function"
    },
    {
      "inputs": [],
      "name": "mintPrice",
      "outputs": [
        {
          "internalType": "uint256",
          "name": "",
          "type": "uint256"
        }
      ],
      "stateMutability": "view",
      "type": "function"
    },
    {
      "inputs": [],
      "name": "name",
      "outputs": [
        {
          "internalType": "string",
          "name": "",
          "type": "string"
        }
      ],
      "stateMutability": "view",
      "type": "function"
    },
    {
      "inputs": [
        {
          "internalType": "uint256",
          "name": "tokenId",
          "type": "uint256"
        }
      ],
      "name": "ownerOf",
      "outputs": [
        {
          "internalType": "address",
          "name": "",
          "type": "address"
        }
      ],
      "stateMutability": "view",
      "type": "function"
    },
    {
      "inputs": [
        {
          "internalType": "address",
          "name": "owner",
          "type": "address"
        }
      ],
      "name": "removeOwner",
      "outputs": [],
      "stateMutability": "nonpayable",
      "type": "function"
    },
    {
      "inputs": [],
      "name": "rewardDivisor",
      "outputs": [
        {
          "internalType": "uint256",
          "name": "",
          "type": "uint256"
        }
      ],
      "stateMutability": "view",
      "type": "function"
    },
    {
      "inputs": [
        {
          "internalType": "address",
          "name": "from",
          "type": "address"
        },
        {
          "internalType": "address",
          "name": "to",
          "type": "address"
        },
        {
          "internalType": "uint256",
          "name": "tokenId",
          "type": "uint256"
        }
      ],
      "name": "safeTransferFrom",
      "outputs": [],
      "stateMutability": "nonpayable",
      "type": "function"
    },
    {
      "inputs": [
        {
          "internalType": "address",
          "name": "from",
          "type": "address"
        },
        {
          "internalType": "address",
          "name": "to",
          "type": "address"
        },
        {
          "internalType": "uint256",
          "name": "tokenId",
          "type": "uint256"
        },
        {
          "internalType": "bytes",
          "name": "_data",
          "type": "bytes"
        }
      ],
      "name": "safeTransferFrom",
      "outputs": [],
      "stateMutability": "nonpayable",
      "type": "function"
    },
    {
      "inputs": [
        {
          "internalType": "address",
          "name": "operator",
          "type": "address"
        },
        {
          "internalType": "bool",
          "name": "approved",
          "type": "bool"
        }
      ],
      "name": "setApprovalForAll",
      "outputs": [],
      "stateMutability": "nonpayable",
      "type": "function"
    },
    {
      "inputs": [
        {
          "internalType": "bool",
          "name": "newPaused",
          "type": "bool"
        }
      ],
      "name": "setIsPaused",
      "outputs": [],
      "stateMutability": "nonpayable",
      "type": "function"
    },
    {
      "inputs": [],
      "name": "supplyMax",
      "outputs": [
        {
          "internalType": "uint256",
          "name": "",
          "type": "uint256"
        }
      ],
      "stateMutability": "view",
      "type": "function"
    },
    {
      "inputs": [],
      "name": "symbol",
      "outputs": [
        {
          "internalType": "string",
          "name": "",
          "type": "string"
        }
      ],
      "stateMutability": "view",
      "type": "function"
    },
    {
      "inputs": [
        {
          "internalType": "uint256",
          "name": "index",
          "type": "uint256"
        }
      ],
      "name": "tokenByIndex",
      "outputs": [
        {
          "internalType": "uint256",
          "name": "",
          "type": "uint256"
        }
      ],
      "stateMutability": "view",
      "type": "function"
    },
    {
      "inputs": [
        {
          "internalType": "address",
          "name": "owner",
          "type": "address"
        },
        {
          "internalType": "uint256",
          "name": "index",
          "type": "uint256"
        }
      ],
      "name": "tokenOfOwnerByIndex",
      "outputs": [
        {
          "internalType": "uint256",
          "name": "",
          "type": "uint256"
        }
      ],
      "stateMutability": "view",
      "type": "function"
    },
    {
      "inputs": [],
      "name": "tokensPerLevel",
      "outputs": [
        {
          "internalType": "uint256",
          "name": "",
          "type": "uint256"
        }
      ],
      "stateMutability": "view",
      "type": "function"
    },
    {
      "inputs": [
        {
          "internalType": "address",
          "name": "from",
          "type": "address"
        },
        {
          "internalType": "address",
          "name": "to",
          "type": "address"
        },
        {
          "internalType": "uint256",
          "name": "tokenId",
          "type": "uint256"
        }
      ],
      "name": "transferFrom",
      "outputs": [],
      "stateMutability": "nonpayable",
      "type": "function"
    },
    {
      "inputs": [
        {
          "internalType": "address",
          "name": "to",
          "type": "address"
        },
        {
          "internalType": "uint256",
          "name": "amount",
          "type": "uint256"
        }
      ],
      "name": "mint",
      "outputs": [],
      "stateMutability": "nonpayable",
      "type": "function"
    },
    {
      "inputs": [
        {
          "internalType": "uint256",
          "name": "tokenId",
          "type": "uint256"
        },
        {
          "internalType": "uint256",
          "name": "amountToken",
          "type": "uint256"
        }
      ],
      "name": "compound",
      "outputs": [],
      "stateMutability": "nonpayable",
      "type": "function"
    },
    {
      "inputs": [
        {
          "internalType": "uint256",
          "name": "tokenId",
          "type": "uint256"
        }
      ],
      "name": "claimReward",
      "outputs": [],
      "stateMutability": "nonpayable",
      "type": "function"
    },
    {
      "inputs": [
        {
          "internalType": "uint256",
          "name": "tokenId",
          "type": "uint256"
        }
      ],
      "name": "getReward",
      "outputs": [
        {
          "internalType": "uint256",
          "name": "",
          "type": "uint256"
        }
      ],
      "stateMutability": "view",
      "type": "function"
    },
    {
      "inputs": [
        {
          "internalType": "uint256",
          "name": "level",
          "type": "uint256"
        }
      ],
      "name": "approxAPR",
      "outputs": [
        {
          "internalType": "uint256",
          "name": "",
          "type": "uint256"
        }
      ],
      "stateMutability": "view",
      "type": "function"
    },
    {
      "inputs": [
        {
          "internalType": "uint256",
          "name": "time",
          "type": "uint256"
        },
        {
          "internalType": "uint256",
          "name": "level",
          "type": "uint256"
        }
      ],
      "name": "calculateReward",
      "outputs": [
        {
          "internalType": "uint256",
          "name": "",
          "type": "uint256"
        }
      ],
      "stateMutability": "view",
      "type": "function"
    },
    {
      "inputs": [
        {
          "internalType": "uint256",
          "name": "tokenId",
          "type": "uint256"
        }
      ],
      "name": "getNFTData",
      "outputs": [
        {
          "internalType": "uint256",
          "name": "",
          "type": "uint256"
        },
        {
          "internalType": "uint256",
          "name": "",
          "type": "uint256"
        },
        {
          "internalType": "uint256",
          "name": "",
          "type": "uint256"
        },
        {
          "internalType": "uint256",
          "name": "",
          "type": "uint256"
        }
      ],
      "stateMutability": "view",
      "type": "function"
    },
    {
      "inputs": [
        {
          "internalType": "uint256",
          "name": "newMax",
          "type": "uint256"
        }
      ],
      "name": "setAddressMax",
      "outputs": [],
      "stateMutability": "nonpayable",
      "type": "function"
    },
    {
      "inputs": [
        {
          "internalType": "uint256",
          "name": "newMax",
          "type": "uint256"
        }
      ],
      "name": "setSupplyMax",
      "outputs": [],
      "stateMutability": "nonpayable",
      "type": "function"
    },
    {
      "inputs": [
        {
          "internalType": "uint256",
          "name": "newPrice",
          "type": "uint256"
        }
      ],
      "name": "setMintPrice",
      "outputs": [],
      "stateMutability": "nonpayable",
      "type": "function"
    },
    {
      "inputs": [
        {
          "internalType": "uint256",
          "name": "newLevel",
          "type": "uint256"
        }
      ],
      "name": "setMaxTokenLevel",
      "outputs": [],
      "stateMutability": "nonpayable",
      "type": "function"
    },
    {
      "inputs": [
        {
          "internalType": "uint256",
          "name": "newTokensPerLevel",
          "type": "uint256"
        }
      ],
      "name": "setTokensPerLevel",
      "outputs": [],
      "stateMutability": "nonpayable",
      "type": "function"
    },
    {
      "inputs": [
        {
          "internalType": "uint256",
          "name": "newRewardDivisor",
          "type": "uint256"
        }
      ],
      "name": "setRewardDivisor",
      "outputs": [],
      "stateMutability": "nonpayable",
      "type": "function"
    },
    {
      "inputs": [
        {
          "internalType": "address",
          "name": "newTokenAddress",
          "type": "address"
        }
      ],
      "name": "setTokenAddress",
      "outputs": [],
      "stateMutability": "nonpayable",
      "type": "function"
    },
    {
      "inputs": [
        {
          "internalType": "string",
          "name": "newBaseURI",
          "type": "string"
        }
      ],
      "name": "setBaseUri",
      "outputs": [],
      "stateMutability": "nonpayable",
      "type": "function"
    },
    {
      "inputs": [],
      "name": "totalSupply",
      "outputs": [
        {
          "internalType": "uint256",
          "name": "",
          "type": "uint256"
        }
      ],
      "stateMutability": "view",
      "type": "function"
    },
    {
      "inputs": [
        {
          "internalType": "uint256",
          "name": "tokenId",
          "type": "uint256"
        }
      ],
      "name": "tokenURI",
      "outputs": [
        {
          "internalType": "string",
          "name": "",
          "type": "string"
        }
      ],
      "stateMutability": "view",
      "type": "function"
    },
    {
      "inputs": [
        {
          "internalType": "bytes4",
          "name": "interfaceId",
          "type": "bytes4"
        }
      ],
      "name": "supportsInterface",
      "outputs": [
        {
          "internalType": "bool",
          "name": "",
          "type": "bool"
        }
      ],
      "stateMutability": "view",
      "type": "function"
    }
  ],
  "bytecode": "0x600d805460ff191690556005600e556103e8600f5560646010819055600a601155601255632920908060135560e06040526037608081815290620038bf60a039805162000055916016916020909101906200017a565b503480156200006357600080fd5b5060408051808201825260038082526213919560ea1b602080840182815285518087019096529285528401528151919291620000a2916000916200017a565b508051620000b89060019060208401906200017a565b50505033620001185760405162461bcd60e51b815260206004820152602260248201527f43616e277420696e697469616c697a652077697468207a65726f206164647265604482015261737360f01b606482015260840160405180910390fd5b336000818152600b60205260408120805460ff19166001908117909155600c805491820181559091527fdf6966c971051c3d54ec59162606531493a51404a002842f56009d7e5cf4a8c70180546001600160a01b03191690911790556200025d565b828054620001889062000220565b90600052602060002090601f016020900481019282620001ac5760008555620001f7565b82601f10620001c757805160ff1916838001178555620001f7565b82800160010185558215620001f7579182015b82811115620001f7578251825591602001919060010190620001da565b506200020592915062000209565b5090565b5b808211156200020557600081556001016200020a565b600181811c908216806200023557607f821691505b602082108114156200025757634e487b7160e01b600052602260045260246000fd5b50919050565b613652806200026d6000396000f3fe608060405234801561001057600080fd5b50600436106102695760003560e01c80636352211e11610151578063aa29c331116100c3578063b88d4fde11610087578063b88d4fde14610559578063bff1208d1461056c578063c87b56dd1461057f578063e985e9c514610592578063f49c87e7146105ce578063f4a0a5281461050057600080fd5b8063aa29c33114610500578063aae64f8614610513578063ae169a5014610526578063b187bd2614610539578063b1de42021461054657600080fd5b806396636fe11161011557806396636fe1146104a0578063a0bcfc7f146104a9578063a0e67e2b146104bc578063a1a7a423146104d1578063a22cb465146104da578063a3db1105146104ed57600080fd5b80636352211e146104565780636817c76c146104695780637065cb481461047257806370a082311461048557806395d89b411461049857600080fd5b806318160ddd116101ea5780632f54bf6e116101ae5780632f54bf6e146103d55780632f745c591461040157806331bcbaed1461041457806340c10f191461041d57806342842e0e146104305780634f6ccce71461044357600080fd5b806318160ddd146103815780631c4b774b1461038957806323b872dd1461039c578063240976bf146103af57806326a4e8d2146103c257600080fd5b80630ad4c4f4116102315780630ad4c4f4146103025780630cef1fbf1461033557806313ed0846146103485780631632070c1461035b578063173825d91461036e57600080fd5b806301ffc9a71461026e57806304e275821461029657806306fdde03146102ad578063081812fc146102c2578063095ea7b3146102ed575b600080fd5b61028161027c366004612e0c565b6105d7565b60405190151581526020015b60405180910390f35b61029f600f5481565b60405190815260200161028d565b6102b56105e8565b60405161028d9190612e81565b6102d56102d0366004612e94565b61067a565b6040516001600160a01b03909116815260200161028d565b6103006102fb366004612ec9565b610707565b005b610315610310366004612e94565b61081d565b60408051948552602085019390935291830152606082015260800161028d565b610300610343366004612e94565b6108a4565b61029f610356366004612ef3565b6108d8565b610300610369366004612e94565b61097a565b61030061037c366004612f15565b6109ae565b61029f610bcc565b61029f610397366004612e94565b610bdc565b6103006103aa366004612f30565b610c6b565b6103006103bd366004612f7a565b610c9c565b6103006103d0366004612f15565b610cde565b6102816103e3366004612f15565b6001600160a01b03166000908152600b602052604090205460ff1690565b61029f61040f366004612ec9565b610d2f565b61029f60125481565b61030061042b366004612ec9565b610dc5565b61030061043e366004612f30565b61132d565b61029f610451366004612e94565b611348565b6102d5610464366004612e94565b6113db565b61029f60105481565b610300610480366004612f15565b611452565b61029f610493366004612f15565b611512565b6102b5611599565b61029f600e5481565b6103006104b7366004613023565b6115a8565b6104c46115ea565b60405161028d919061306c565b61029f60115481565b6103006104e83660046130b9565b61164b565b6103006104fb366004612e94565b611656565b61030061050e366004612e94565b61168a565b61029f610521366004612e94565b6116be565b610300610534366004612e94565b61174f565b600d546102819060ff1681565b610300610554366004612e94565b611aad565b6103006105673660046130f0565b611ae1565b61030061057a366004612ef3565b611b19565b6102b561058d366004612e94565b611fd6565b6102816105a036600461316c565b6001600160a01b03918216600090815260056020908152604080832093909416825291909152205460ff1690565b61029f60135481565b60006105e282611fe1565b92915050565b6060600080546105f79061319f565b80601f01602080910402602001604051908101604052809291908181526020018280546106239061319f565b80156106705780601f1061064557610100808354040283529160200191610670565b820191906000526020600020905b81548152906001019060200180831161065357829003601f168201915b5050505050905090565b600061068582612006565b6106eb5760405162461bcd60e51b815260206004820152602c60248201527f4552433732313a20617070726f76656420717565727920666f72206e6f6e657860448201526b34b9ba32b73a103a37b5b2b760a11b60648201526084015b60405180910390fd5b506000908152600460205260409020546001600160a01b031690565b6000610712826113db565b9050806001600160a01b0316836001600160a01b031614156107805760405162461bcd60e51b815260206004820152602160248201527f4552433732313a20617070726f76616c20746f2063757272656e74206f776e656044820152603960f91b60648201526084016106e2565b336001600160a01b038216148061079c575061079c81336105a0565b61080e5760405162461bcd60e51b815260206004820152603860248201527f4552433732313a20617070726f76652063616c6c6572206973206e6f74206f7760448201527f6e6572206e6f7220617070726f76656420666f7220616c6c000000000000000060648201526084016106e2565b6108188383612023565b505050565b60008060008061082c85612006565b6108785760405162461bcd60e51b815260206004820152601c60248201527f5468697320746f6b656e20494420646f6573206e6f742065786973740000000060448201526064016106e2565b505050600091825250601860205260409020805460018201546002830154600390930154919390929190565b336000908152600b602052604090205460ff166108d35760405162461bcd60e51b81526004016106e2906131da565b600f55565b601354601454604080516318160ddd60e01b81529051600093926001600160a01b0316916318160ddd9160048083019260209291908290030181865afa158015610926573d6000803e3d6000fd5b505050506040513d601f19601f8201168201806040525081019061094a919061320a565b610955846001613239565b61095f9086613251565b6109699190613251565b6109739190613286565b9392505050565b336000908152600b602052604090205460ff166109a95760405162461bcd60e51b81526004016106e2906131da565b601355565b336000908152600b602052604090205460ff166109dd5760405162461bcd60e51b81526004016106e2906131da565b6001600160a01b0381166000908152600b602052604090205460ff16610a455760405162461bcd60e51b815260206004820152601760248201527f41646472657373206973206e6f7420616e206f776e657200000000000000000060448201526064016106e2565b60005b600c54811015610bc857816001600160a01b0316600c8281548110610a6f57610a6f61329a565b6000918252602090912001546001600160a01b03161415610bb6576001600160a01b0382166000908152600b60205260409020805460ff19169055805b600c54610abb906001906132b0565b811015610b4657600c610acf836001613239565b81548110610adf57610adf61329a565b600091825260209091200154600c80546001600160a01b039092169184908110610b0b57610b0b61329a565b600091825260209091200180546001600160a01b0319166001600160a01b039290921691909117905580610b3e816132c7565b915050610aac565b50600c805480610b5857610b586132e2565b600082815260208120820160001990810180546001600160a01b031916905590910190915560405142916001600160a01b0385169133917fecc5dd9888b87e7ed252d66b9c086ab819de6c8f8b96c8e5458e105bacfbb02791a45050565b80610bc0816132c7565b915050610a48565b5050565b6000610bd760155490565b905090565b6000610be782612006565b610c335760405162461bcd60e51b815260206004820152601c60248201527f5468697320746f6b656e20494420646f6573206e6f742065786973740000000060448201526064016106e2565b60008281526018602052604081206003810154909190610c5390426132b0565b9050610c638183600001546108d8565b949350505050565b610c753382612091565b610c915760405162461bcd60e51b81526004016106e2906132f8565b610818838383612177565b336000908152600b602052604090205460ff16610ccb5760405162461bcd60e51b81526004016106e2906131da565b600d805460ff1916911515919091179055565b336000908152600b602052604090205460ff16610d0d5760405162461bcd60e51b81526004016106e2906131da565b601480546001600160a01b0319166001600160a01b0392909216919091179055565b6000610d3a83611512565b8210610d9c5760405162461bcd60e51b815260206004820152602b60248201527f455243373231456e756d657261626c653a206f776e657220696e646578206f7560448201526a74206f6620626f756e647360a81b60648201526084016106e2565b506001600160a01b03919091166000908152600660209081526040808320938352929052205490565b336000818152600b602052604090205460ff16610dff57600d5460ff1615610dff5760405162461bcd60e51b81526004016106e290613349565b600f54610e0a610bcc565b10610e575760405162461bcd60e51b815260206004820152601b60248201527f4d617820737570706c7920686173206265656e2072656163686564000000000060448201526064016106e2565b600e546001600160a01b038416600090815260176020526040902054610e7e908490613239565b1115610ed75760405162461bcd60e51b815260206004820152602260248201527f4d6178206d696e7420657863656564656420666f722074686973206164647265604482015261737360f01b60648201526084016106e2565b600f546001600160a01b038416600090815260176020526040902054610efe908490613239565b1115610f565760405162461bcd60e51b815260206004820152602160248201527f54686973206d696e7420776f756c642065786365656420737570706c792063616044820152600760fc1b60648201526084016106e2565b6014546040805163313ce56760e01b815290516000926001600160a01b03169163313ce5679160048083019260209291908290030181865afa158015610fa0573d6000803e3d6000fd5b505050506040513d601f19601f82011682018060405250810190610fc49190613372565b610fcf90600a613479565b601054610fdc9085613251565b610fe69190613251565b6014546040516370a0823160e01b815233600482015291925082916001600160a01b03909116906370a0823190602401602060405180830381865afa158015611033573d6000803e3d6000fd5b505050506040513d601f19601f82011682018060405250810190611057919061320a565b101561109d5760405162461bcd60e51b8152602060048201526015602482015274546f6b656e2062616c616e636520746f6f206c6f7760581b60448201526064016106e2565b601454604051636eb1769f60e11b815233600482015230602482015282916001600160a01b03169063dd62ed3e90604401602060405180830381865afa1580156110eb573d6000803e3d6000fd5b505050506040513d601f19601f8201168201806040525081019061110f919061320a565b10156111545760405162461bcd60e51b81526020600482015260146024820152734e6f7420656e6f75676820616c6c6f77616e636560601b60448201526064016106e2565b4260005b848110156111f057600061116b60155490565b90506111778782612322565b61118581846001600061233c565b60408051608081018252600080825260208083018781528385018381526060850189815287855260189093529490922092518355905160018301559151600282015590516003909101556111dd601580546001019055565b50806111e8816132c7565b915050611158565b506001600160a01b03851660009081526017602052604081208054869290611219908490613239565b90915550506014546040516323b872dd60e01b8152336004820152306024820152604481018490526001600160a01b03909116906323b872dd906064016020604051808303816000875af1158015611275573d6000803e3d6000fd5b505050506040513d601f19601f820116820180604052508101906112999190613488565b6112dc5760405162461bcd60e51b8152602060048201526014602482015273151bdad95b881c185e5b595b9d0819985a5b195960621b60448201526064016106e2565b604080516001600160a01b0387168152602081018690529081018290527f25b428dfde728ccfaddad7e29e4ac23c24ed7fd1a6e3e3f91894a9a073f5dfff9060600160405180910390a15050505050565b61081883838360405180602001604052806000815250611ae1565b600061135360085490565b82106113b65760405162461bcd60e51b815260206004820152602c60248201527f455243373231456e756d657261626c653a20676c6f62616c20696e646578206f60448201526b7574206f6620626f756e647360a01b60648201526084016106e2565b600882815481106113c9576113c961329a565b90600052602060002001549050919050565b6000818152600260205260408120546001600160a01b0316806105e25760405162461bcd60e51b815260206004820152602960248201527f4552433732313a206f776e657220717565727920666f72206e6f6e657869737460448201526832b73a103a37b5b2b760b91b60648201526084016106e2565b336000908152600b602052604090205460ff166114815760405162461bcd60e51b81526004016106e2906131da565b6001600160a01b0381166000818152600b6020526040808220805460ff19166001908117909155600c8054918201815583527fdf6966c971051c3d54ec59162606531493a51404a002842f56009d7e5cf4a8c70180546001600160a01b031916841790555142929133917fa0b18fca933618876351ba2ef88bf4505c184d3e55064bec0d7fe236dd706d849190a450565b60006001600160a01b03821661157d5760405162461bcd60e51b815260206004820152602a60248201527f4552433732313a2062616c616e636520717565727920666f7220746865207a65604482015269726f206164647265737360b01b60648201526084016106e2565b506001600160a01b031660009081526003602052604090205490565b6060600180546105f79061319f565b336000908152600b602052604090205460ff166115d75760405162461bcd60e51b81526004016106e2906131da565b8051610bc8906016906020840190612d5a565b6060600c80548060200260200160405190810160405280929190818152602001828054801561067057602002820191906000526020600020905b81546001600160a01b03168152600190910190602001808311611624575050505050905090565b610bc8338383612381565b336000908152600b602052604090205460ff166116855760405162461bcd60e51b81526004016106e2906131da565b601255565b336000908152600b602052604090205460ff166116b95760405162461bcd60e51b81526004016106e2906131da565b601055565b601454604080516318160ddd60e01b815290516000926001600160a01b0316916318160ddd9160048083019260209291908290030181865afa158015611708573d6000803e3d6000fd5b505050506040513d601f19601f8201168201806040525081019061172c919061320a565b61173a6301e13380846108d8565b611745906064613251565b6105e29190613286565b336000818152600b602052604090205460ff1661178957600d5460ff16156117895760405162461bcd60e51b81526004016106e290613349565b61179282612006565b6117de5760405162461bcd60e51b815260206004820152601760248201527f546f6b656e20494420646f6573206e6f7420657869737400000000000000000060448201526064016106e2565b336117e8836113db565b6001600160a01b03161461183e5760405162461bcd60e51b815260206004820152601e60248201527f53656e64657220646f6573206e6f74206f776e207468697320746f6b656e000060448201526064016106e2565b600061184983610bdc565b9050801561081857600083815260186020526040908190204260039091015560145490516370a0823160e01b815230600482015282916001600160a01b0316906370a0823190602401602060405180830381865afa1580156118af573d6000803e3d6000fd5b505050506040513d601f19601f820116820180604052508101906118d3919061320a565b10156119345760405162461bcd60e51b815260206004820152602a60248201527f4e6f7420656e6f75676820636f6e747261637420746f6b656e2062616c616e636044820152696520746f20636c61696d60b01b60648201526084016106e2565b60145460405163095ea7b360e01b8152306004820152602481018390526001600160a01b039091169063095ea7b3906044016020604051808303816000875af1158015611985573d6000803e3d6000fd5b505050506040513d601f19601f820116820180604052508101906119a99190613488565b506014546040516323b872dd60e01b8152306004820152336024820152604481018390526001600160a01b03909116906323b872dd906064016020604051808303816000875af1158015611a01573d6000803e3d6000fd5b505050506040513d601f19601f82011682018060405250810190611a259190613488565b611a695760405162461bcd60e51b8152602060048201526015602482015274151bdad95b881d1c985b9cd9995c8819985a5b1959605a1b60448201526064016106e2565b6040805133815260208101839052428183015290517f987d620f307ff6b94d58743cb7a7509f24071586a77759b77c2d4e29f75a2f9a9181900360600190a1505050565b336000908152600b602052604090205460ff16611adc5760405162461bcd60e51b81526004016106e2906131da565b600e55565b611aeb3383612091565b611b075760405162461bcd60e51b81526004016106e2906132f8565b611b1384848484612450565b50505050565b336000818152600b602052604090205460ff16611b5357600d5460ff1615611b535760405162461bcd60e51b81526004016106e290613349565b601460009054906101000a90046001600160a01b03166001600160a01b031663313ce5676040518163ffffffff1660e01b8152600401602060405180830381865afa158015611ba6573d6000803e3d6000fd5b505050506040513d601f19601f82011682018060405250810190611bca9190613372565b611bd590600a613479565b611bdf9083613251565b6014546040516370a0823160e01b815233600482015291935083916001600160a01b03909116906370a0823190602401602060405180830381865afa158015611c2c573d6000803e3d6000fd5b505050506040513d601f19601f82011682018060405250810190611c50919061320a565b1015611c965760405162461bcd60e51b8152602060048201526015602482015274546f6b656e2062616c616e636520746f6f206c6f7760581b60448201526064016106e2565b601454604051636eb1769f60e11b815233600482015230602482015283916001600160a01b03169063dd62ed3e90604401602060405180830381865afa158015611ce4573d6000803e3d6000fd5b505050506040513d601f19601f82011682018060405250810190611d08919061320a565b1015611d4d5760405162461bcd60e51b81526020600482015260146024820152734e6f7420656e6f75676820616c6c6f77616e636560601b60448201526064016106e2565b611d568361174f565b6000838152601860205260409020601154815410611db65760405162461bcd60e51b815260206004820152601d60248201527f54686973204e465420697320616c7265616479206d6178206c6576656c00000060448201526064016106e2565b6014546040805163313ce56760e01b815290516000926001600160a01b03169163313ce5679160048083019260209291908290030181865afa158015611e00573d6000803e3d6000fd5b505050506040513d601f19601f82011682018060405250810190611e249190613372565b611e2f90600a613479565b601254611e3c9190613251565b90506000848360020154611e509190613239565b90506000611e5e8383613286565b905060006011548210611e9e5783601154611e799190613251565b611e8390846132b0565b9050611e8f81846132b0565b60028601556011548555611ea9565b600285018390558185555b611ec18886600001548760010154886002015461233c565b6000611ecd82896132b0565b6014546040516323b872dd60e01b8152336004820152306024820152604481018390529192506001600160a01b0316906323b872dd906064016020604051808303816000875af1158015611f25573d6000803e3d6000fd5b505050506040513d601f19601f82011682018060405250810190611f499190613488565b611f8c5760405162461bcd60e51b8152602060048201526014602482015273151bdad95b881c185e5b595b9d0819985a5b195960621b60448201526064016106e2565b6040805133815260208101839052428183015290517f820cea42e8517cf1ec6d4e9db93909255f07c45f7eb0a7c7b5a0f8bdcfc2e5bf9181900360600190a1505050505050505050565b60606105e282612483565b60006001600160e01b0319821663780e9d6360e01b14806105e257506105e2826125e5565b6000908152600260205260409020546001600160a01b0316151590565b600081815260046020526040902080546001600160a01b0319166001600160a01b0384169081179091558190612058826113db565b6001600160a01b03167f8c5be1e5ebec7d5bd14f71427d1e84f3dd0314c0f7b2291e5b200ac8c7c3b92560405160405180910390a45050565b600061209c82612006565b6120fd5760405162461bcd60e51b815260206004820152602c60248201527f4552433732313a206f70657261746f7220717565727920666f72206e6f6e657860448201526b34b9ba32b73a103a37b5b2b760a11b60648201526084016106e2565b6000612108836113db565b9050806001600160a01b0316846001600160a01b031614806121435750836001600160a01b03166121388461067a565b6001600160a01b0316145b80610c6357506001600160a01b0380821660009081526005602090815260408083209388168352929052205460ff16610c63565b826001600160a01b031661218a826113db565b6001600160a01b0316146121f25760405162461bcd60e51b815260206004820152602960248201527f4552433732313a207472616e73666572206f6620746f6b656e2074686174206960448201526839903737ba1037bbb760b91b60648201526084016106e2565b6001600160a01b0382166122545760405162461bcd60e51b8152602060048201526024808201527f4552433732313a207472616e7366657220746f20746865207a65726f206164646044820152637265737360e01b60648201526084016106e2565b61225f838383612635565b61226a600082612023565b6001600160a01b03831660009081526003602052604081208054600192906122939084906132b0565b90915550506001600160a01b03821660009081526003602052604081208054600192906122c1908490613239565b909155505060008181526002602052604080822080546001600160a01b0319166001600160a01b0386811691821790925591518493918716917fddf252ad1be2c89b69c2b068fc378daa952ba7f163c4a11628f55a4df523b3ef91a4505050565b610bc8828260405180602001604052806000815250612640565b611b138461234985612673565b61235285612673565b61235b85612673565b60405160200161236d939291906134a5565b604051602081830303815290604052612771565b816001600160a01b0316836001600160a01b031614156123e35760405162461bcd60e51b815260206004820152601960248201527f4552433732313a20617070726f766520746f2063616c6c65720000000000000060448201526064016106e2565b6001600160a01b03838116600081815260056020908152604080832094871680845294825291829020805460ff191686151590811790915591519182527f17307eab39ab6107e8899845ad3d59bd9653f200f220920489ca2b5937696c31910160405180910390a3505050565b61245b848484612177565b612467848484846127fc565b611b135760405162461bcd60e51b81526004016106e29061352d565b606061248e82612006565b6124f45760405162461bcd60e51b815260206004820152603160248201527f45524337323155524953746f726167653a2055524920717565727920666f72206044820152703737b732bc34b9ba32b73a103a37b5b2b760791b60648201526084016106e2565b6000828152600a60205260408120805461250d9061319f565b80601f01602080910402602001604051908101604052809291908181526020018280546125399061319f565b80156125865780601f1061255b57610100808354040283529160200191612586565b820191906000526020600020905b81548152906001019060200180831161256957829003601f168201915b5050505050905060006125976128fa565b90508051600014156125aa575092915050565b8151156125dc5780826040516020016125c492919061357f565b60405160208183030381529060405292505050919050565b610c6384612909565b60006001600160e01b031982166380ac58cd60e01b148061261657506001600160e01b03198216635b5e139f60e01b145b806105e257506301ffc9a760e01b6001600160e01b03198316146105e2565b6108188383836129d3565b61264a8383612a8b565b61265760008484846127fc565b6108185760405162461bcd60e51b81526004016106e29061352d565b6060816126975750506040805180820190915260018152600360fc1b602082015290565b8160005b81156126c157806126ab816132c7565b91506126ba9050600a83613286565b915061269b565b60008167ffffffffffffffff8111156126dc576126dc612f97565b6040519080825280601f01601f191660200182016040528015612706576020820181803683370190505b5090505b8415610c635761271b6001836132b0565b9150612728600a866135ae565b612733906030613239565b60f81b8183815181106127485761274861329a565b60200101906001600160f81b031916908160001a90535061276a600a86613286565b945061270a565b61277a82612006565b6127dd5760405162461bcd60e51b815260206004820152602e60248201527f45524337323155524953746f726167653a2055524920736574206f66206e6f6e60448201526d32bc34b9ba32b73a103a37b5b2b760911b60648201526084016106e2565b6000828152600a60209081526040909120825161081892840190612d5a565b60006001600160a01b0384163b156128ef57604051630a85bd0160e11b81526001600160a01b0385169063150b7a02906128409033908990889088906004016135c2565b6020604051808303816000875af192505050801561287b575060408051601f3d908101601f19168201909252612878918101906135ff565b60015b6128d5573d8080156128a9576040519150601f19603f3d011682016040523d82523d6000602084013e6128ae565b606091505b5080516128cd5760405162461bcd60e51b81526004016106e29061352d565b805181602001fd5b6001600160e01b031916630a85bd0160e11b149050610c63565b506001949350505050565b6060601680546105f79061319f565b606061291482612006565b6129785760405162461bcd60e51b815260206004820152602f60248201527f4552433732314d657461646174613a2055524920717565727920666f72206e6f60448201526e3732bc34b9ba32b73a103a37b5b2b760891b60648201526084016106e2565b60006129826128fa565b905060008151116129a25760405180602001604052806000815250610973565b806129ac84612673565b6040516020016129bd92919061357f565b6040516020818303038152906040529392505050565b6001600160a01b038316612a2e57612a2981600880546000838152600960205260408120829055600182018355919091527ff3f7a9fe364faab93b216da50a3214154f22a0a2b415b23a84c8169e8b636ee30155565b612a51565b816001600160a01b0316836001600160a01b031614612a5157612a518382612bca565b6001600160a01b038216612a685761081881612c67565b826001600160a01b0316826001600160a01b031614610818576108188282612d16565b6001600160a01b038216612ae15760405162461bcd60e51b815260206004820181905260248201527f4552433732313a206d696e7420746f20746865207a65726f206164647265737360448201526064016106e2565b612aea81612006565b15612b375760405162461bcd60e51b815260206004820152601c60248201527f4552433732313a20746f6b656e20616c7265616479206d696e7465640000000060448201526064016106e2565b612b4360008383612635565b6001600160a01b0382166000908152600360205260408120805460019290612b6c908490613239565b909155505060008181526002602052604080822080546001600160a01b0319166001600160a01b03861690811790915590518392907fddf252ad1be2c89b69c2b068fc378daa952ba7f163c4a11628f55a4df523b3ef908290a45050565b60006001612bd784611512565b612be191906132b0565b600083815260076020526040902054909150808214612c34576001600160a01b03841660009081526006602090815260408083208584528252808320548484528184208190558352600790915290208190555b5060009182526007602090815260408084208490556001600160a01b039094168352600681528383209183525290812055565b600854600090612c79906001906132b0565b60008381526009602052604081205460088054939450909284908110612ca157612ca161329a565b906000526020600020015490508060088381548110612cc257612cc261329a565b6000918252602080832090910192909255828152600990915260408082208490558582528120556008805480612cfa57612cfa6132e2565b6001900381819060005260206000200160009055905550505050565b6000612d2183611512565b6001600160a01b039093166000908152600660209081526040808320868452825280832085905593825260079052919091209190915550565b828054612d669061319f565b90600052602060002090601f016020900481019282612d885760008555612dce565b82601f10612da157805160ff1916838001178555612dce565b82800160010185558215612dce579182015b82811115612dce578251825591602001919060010190612db3565b50612dda929150612dde565b5090565b5b80821115612dda5760008155600101612ddf565b6001600160e01b031981168114612e0957600080fd5b50565b600060208284031215612e1e57600080fd5b813561097381612df3565b60005b83811015612e44578181015183820152602001612e2c565b83811115611b135750506000910152565b60008151808452612e6d816020860160208601612e29565b601f01601f19169290920160200192915050565b6020815260006109736020830184612e55565b600060208284031215612ea657600080fd5b5035919050565b80356001600160a01b0381168114612ec457600080fd5b919050565b60008060408385031215612edc57600080fd5b612ee583612ead565b946020939093013593505050565b60008060408385031215612f0657600080fd5b50508035926020909101359150565b600060208284031215612f2757600080fd5b61097382612ead565b600080600060608486031215612f4557600080fd5b612f4e84612ead565b9250612f5c60208501612ead565b9150604084013590509250925092565b8015158114612e0957600080fd5b600060208284031215612f8c57600080fd5b813561097381612f6c565b634e487b7160e01b600052604160045260246000fd5b600067ffffffffffffffff80841115612fc857612fc8612f97565b604051601f8501601f19908116603f01168101908282118183101715612ff057612ff0612f97565b8160405280935085815286868601111561300957600080fd5b858560208301376000602087830101525050509392505050565b60006020828403121561303557600080fd5b813567ffffffffffffffff81111561304c57600080fd5b8201601f8101841361305d57600080fd5b610c6384823560208401612fad565b6020808252825182820181905260009190848201906040850190845b818110156130ad5783516001600160a01b031683529284019291840191600101613088565b50909695505050505050565b600080604083850312156130cc57600080fd5b6130d583612ead565b915060208301356130e581612f6c565b809150509250929050565b6000806000806080858703121561310657600080fd5b61310f85612ead565b935061311d60208601612ead565b925060408501359150606085013567ffffffffffffffff81111561314057600080fd5b8501601f8101871361315157600080fd5b61316087823560208401612fad565b91505092959194509250565b6000806040838503121561317f57600080fd5b61318883612ead565b915061319660208401612ead565b90509250929050565b600181811c908216806131b357607f821691505b602082108114156131d457634e487b7160e01b600052602260045260246000fd5b50919050565b60208082526016908201527521b0b63632b91034b9903737ba1030b71037bbb732b960511b604082015260600190565b60006020828403121561321c57600080fd5b5051919050565b634e487b7160e01b600052601160045260246000fd5b6000821982111561324c5761324c613223565b500190565b600081600019048311821515161561326b5761326b613223565b500290565b634e487b7160e01b600052601260045260246000fd5b60008261329557613295613270565b500490565b634e487b7160e01b600052603260045260246000fd5b6000828210156132c2576132c2613223565b500390565b60006000198214156132db576132db613223565b5060010190565b634e487b7160e01b600052603160045260246000fd5b60208082526031908201527f4552433732313a207472616e736665722063616c6c6572206973206e6f74206f6040820152701ddb995c881b9bdc88185c1c1c9bdd9959607a1b606082015260800190565b6020808252600f908201526e10dbdb9d1c9858dd081c185d5cd959608a1b604082015260600190565b60006020828403121561338457600080fd5b815160ff8116811461097357600080fd5b600181815b808511156133d05781600019048211156133b6576133b6613223565b808516156133c357918102915b93841c939080029061339a565b509250929050565b6000826133e7575060016105e2565b816133f4575060006105e2565b816001811461340a576002811461341457613430565b60019150506105e2565b60ff84111561342557613425613223565b50506001821b6105e2565b5060208310610133831016604e8410600b8410161715613453575081810a6105e2565b61345d8383613395565b806000190482111561347157613471613223565b029392505050565b600061097360ff8416836133d8565b60006020828403121561349a57600080fd5b815161097381612f6c565b656c6576656c3d60d01b8152600084516134c6816006850160208901612e29565b6a266269727468446174653d60a81b60069184019182015284516134f1816011840160208901612e29565b6d266c6f636b6564416d6f756e743d60901b60119290910191820152835161352081601f840160208801612e29565b01601f0195945050505050565b60208082526032908201527f4552433732313a207472616e7366657220746f206e6f6e20455243373231526560408201527131b2b4bb32b91034b6b83632b6b2b73a32b960711b606082015260800190565b60008351613591818460208801612e29565b8351908301906135a5818360208801612e29565b01949350505050565b6000826135bd576135bd613270565b500690565b6001600160a01b03858116825284166020820152604081018390526080606082018190526000906135f590830184612e55565b9695505050505050565b60006020828403121561361157600080fd5b815161097381612df356fea26469706673582212201ba73597e0cd05e1fb597aece5843e504da2892470c88a26642a92895e75acc164736f6c634300080b003368747470733a2f2f736c696d656b65657065722d7765622d6465762e6865726f6b756170702e636f6d2f6170692f6e66742f646174613f",
  "immutableReferences": {},
  "source": "// SPDX-License-Identifier: MIT\n\npragma solidity >=0.4.22 <0.9.0;\n\nimport \"./PauseOwners.sol\";\nimport \"./Token.sol\";\nimport \"@openzeppelin/contracts/token/ERC721/ERC721.sol\";\nimport \"@openzeppelin/contracts/token/ERC721/extensions/ERC721Enumerable.sol\";\nimport \"@openzeppelin/contracts/token/ERC721/extensions/ERC721URIStorage.sol\";\nimport \"@openzeppelin/contracts/utils/Counters.sol\";\nimport \"@openzeppelin/contracts/utils/Strings.sol\";\n\ncontract NFT is ERC721, ERC721Enumerable, ERC721URIStorage, PauseOwners {\n\tusing Counters for Counters.Counter;\n\tusing Strings for uint256;\n\n\tevent Minted(address minter, uint256 amount, uint256 date);\n\tevent Compounded(address compounder, uint256 amount, uint256 date);\n\tevent Claimed(address claimer, uint256 amount, uint256 date);\n\n\tuint256 public addressMax = 5; // Max NFTs per address\n\tuint256 public supplyMax = 1000; // Max total supply cap\n\tuint256 public mintPrice = 100; // Mint price of one NFT in tokens\n\tuint256 public maxTokenLevel = 10; // Amount of levels an individual NFT can be upgraded\n\tuint256 public tokensPerLevel = 100; // Amount of tokens needed to upgrade an NFT (one level)\n\tuint256 public rewardDivisor = 690000000; // Divisor variable for affecting token generation rate\n\n\tToken private token;\n\n\tCounters.Counter private tokenIds;\n\n\tstring private nftBaseURI =\n\t\t\"https://slimekeeper-web-dev.herokuapp.com/api/nft/data?\";\n\n\tmapping(address => uint256) private amountMinted;\n\tmapping(uint256 => NFTData) private nftData; // Store NFT Data for invidividual token\n\n\t// Represents in-game properties\n\tstruct NFTData {\n\t\tuint256 level; // Current level of NFT\n\t\tuint256 birthDate; // Date this NFT was minted\n\t\tuint256 lockedAmount; // Amount of tokens currently locked in this NFT\n\t\tuint256 lastClaimedDate; // Date last rewards were last claimed, if not claimed once, same as birth\n\n\t\t// Other in-game properties here and API configured to show them\n\t}\n\n\tconstructor() ERC721(\"NFT\", \"NFT\") {}\n\n\tfunction mint(address to, uint256 amount) public checkPaused(msg.sender) {\n\t\trequire(totalSupply() < supplyMax, \"Max supply has been reached\");\n\t\trequire(\n\t\t\tamountMinted[to] + amount <= addressMax,\n\t\t\t\"Max mint exceeded for this address\"\n\t\t);\n\t\trequire(\n\t\t\tamountMinted[to] + amount <= supplyMax,\n\t\t\t\"This mint would exceed supply cap\"\n\t\t);\n\t\tuint256 totalMintPrice = amount * mintPrice * 10**token.decimals();\n\t\trequire(\n\t\t\ttoken.balanceOf(msg.sender) >= totalMintPrice,\n\t\t\t\"Token balance too low\"\n\t\t);\n\t\trequire(\n\t\t\ttoken.allowance(msg.sender, address(this)) >= totalMintPrice,\n\t\t\t\"Not enough allowance\"\n\t\t);\n\t\tuint256 birthDate = block.timestamp;\n\t\tfor (uint256 i = 0; i < amount; i++) {\n\t\t\tuint256 currTokenId = tokenIds.current();\n\t\t\t_safeMint(to, currTokenId);\n\t\t\tupdateTokenUri(currTokenId, birthDate, 1, 0);\n\t\t\tnftData[currTokenId] = NFTData({\n\t\t\t\tlevel: 0,\n\t\t\t\tbirthDate: birthDate,\n\t\t\t\tlockedAmount: 0,\n\t\t\t\tlastClaimedDate: birthDate\n\t\t\t});\n\t\t\ttokenIds.increment();\n\t\t}\n\t\tamountMinted[to] += amount;\n\t\trequire(\n\t\t\ttoken.transferFrom(msg.sender, address(this), totalMintPrice),\n\t\t\t\"Token payment failed\"\n\t\t);\n\t\temit Minted(to, amount, birthDate);\n\t}\n\n\tfunction compound(uint256 tokenId, uint256 amountToken)\n\t\tpublic\n\t\tcheckPaused(msg.sender)\n\t{\n\t\tamountToken *= 10**token.decimals();\n\t\trequire(\n\t\t\ttoken.balanceOf(msg.sender) >= amountToken,\n\t\t\t\"Token balance too low\"\n\t\t);\n\t\trequire(\n\t\t\ttoken.allowance(msg.sender, address(this)) >= amountToken,\n\t\t\t\"Not enough allowance\"\n\t\t);\n\t\tclaimReward(tokenId); // Claim before compounding\n\t\tNFTData storage data = nftData[tokenId];\n\t\trequire(data.level < maxTokenLevel, \"This NFT is already max level\");\n\t\tuint256 tokensPerLevelDecimals = tokensPerLevel * 10**token.decimals();\n\t\tuint256 newLocked = data.lockedAmount + amountToken;\n\t\tuint256 newLevel = newLocked / tokensPerLevelDecimals;\n\t\tuint256 excessAmount = 0;\n\t\tif (newLevel >= maxTokenLevel) {\n\t\t\texcessAmount = newLocked - (maxTokenLevel * tokensPerLevelDecimals);\n\t\t\tdata.lockedAmount = newLocked - excessAmount;\n\t\t\tdata.level = maxTokenLevel;\n\t\t} else {\n\t\t\tdata.lockedAmount = newLocked;\n\t\t\tdata.level = newLevel;\n\t\t}\n\t\tupdateTokenUri(tokenId, data.level, data.birthDate, data.lockedAmount);\n\t\tuint256 finalAmountToken = amountToken - excessAmount;\n\t\trequire(\n\t\t\ttoken.transferFrom(msg.sender, address(this), finalAmountToken),\n\t\t\t\"Token payment failed\"\n\t\t);\n\t\temit Compounded(msg.sender, finalAmountToken, block.timestamp);\n\t}\n\n\tfunction claimReward(uint256 tokenId) public checkPaused(msg.sender) {\n\t\trequire(_exists(tokenId), \"Token ID does not exist\");\n\t\trequire(\n\t\t\townerOf(tokenId) == msg.sender,\n\t\t\t\"Sender does not own this token\"\n\t\t);\n\t\tuint256 amountReward = getReward(tokenId);\n\t\tif (amountReward > 0) {\n\t\t\tnftData[tokenId].lastClaimedDate = block.timestamp;\n\t\t\trequire(\n\t\t\t\ttoken.balanceOf(address(this)) >= amountReward,\n\t\t\t\t\"Not enough contract token balance to claim\"\n\t\t\t);\n\t\t\ttoken.approve(address(this), amountReward);\n\t\t\trequire(\n\t\t\t\ttoken.transferFrom(address(this), msg.sender, amountReward),\n\t\t\t\t\"Token transfer failed\"\n\t\t\t);\n\t\t\temit Claimed(msg.sender, amountReward, block.timestamp);\n\t\t}\n\t}\n\n\tfunction getReward(uint256 tokenId) public view returns (uint256) {\n\t\trequire(_exists(tokenId), \"This token ID does not exist\");\n\t\tNFTData storage data = nftData[tokenId];\n\t\tuint256 timeSinceLastClaim = block.timestamp - data.lastClaimedDate;\n\t\treturn calculateReward(timeSinceLastClaim, data.level);\n\t}\n\n\t// Return the approximate APR considering certain level\n\tfunction approxAPR(uint256 level) external view returns (uint256) {\n\t\treturn (calculateReward(365 days, level) * 100) / token.totalSupply();\n\t}\n\n\tfunction calculateReward(uint256 time, uint256 level)\n\t\tpublic\n\t\tview\n\t\treturns (uint256)\n\t{\n\t\treturn (time * (level + 1) * token.totalSupply()) / rewardDivisor;\n\t}\n\n\tfunction getNFTData(uint256 tokenId)\n\t\texternal\n\t\tview\n\t\treturns (\n\t\t\tuint256,\n\t\t\tuint256,\n\t\t\tuint256,\n\t\t\tuint256\n\t\t)\n\t{\n\t\trequire(_exists(tokenId), \"This token ID does not exist\");\n\t\tNFTData storage data = nftData[tokenId];\n\t\treturn (\n\t\t\tdata.level,\n\t\t\tdata.birthDate,\n\t\t\tdata.lockedAmount,\n\t\t\tdata.lastClaimedDate\n\t\t);\n\t}\n\n\tfunction setAddressMax(uint256 newMax) external onlyOwners {\n\t\taddressMax = newMax;\n\t}\n\n\tfunction setSupplyMax(uint256 newMax) external onlyOwners {\n\t\tsupplyMax = newMax;\n\t}\n\n\tfunction setMintPrice(uint256 newPrice) external onlyOwners {\n\t\tmintPrice = newPrice;\n\t}\n\n\tfunction setMaxTokenLevel(uint256 newLevel) external onlyOwners {\n\t\tmintPrice = newLevel;\n\t}\n\n\tfunction setTokensPerLevel(uint256 newTokensPerLevel) external onlyOwners {\n\t\ttokensPerLevel = newTokensPerLevel;\n\t}\n\n\tfunction setRewardDivisor(uint256 newRewardDivisor) external onlyOwners {\n\t\trewardDivisor = newRewardDivisor;\n\t}\n\n\tfunction setTokenAddress(address newTokenAddress) external onlyOwners {\n\t\ttoken = Token(payable(newTokenAddress));\n\t}\n\n\tfunction setBaseUri(string memory newBaseURI) external onlyOwners {\n\t\tnftBaseURI = newBaseURI;\n\t}\n\n\tfunction totalSupply() public view override returns (uint256) {\n\t\treturn tokenIds.current();\n\t}\n\n\tfunction updateTokenUri(\n\t\tuint256 tokenId,\n\t\tuint256 level,\n\t\tuint256 birthDate,\n\t\tuint256 lockedAmount\n\t) private {\n\t\t_setTokenURI(\n\t\t\ttokenId,\n\t\t\tstring(\n\t\t\t\tabi.encodePacked(\n\t\t\t\t\t\"level=\",\n\t\t\t\t\tlevel.toString(),\n\t\t\t\t\t\"&birthDate=\",\n\t\t\t\t\tbirthDate.toString(),\n\t\t\t\t\t\"&lockedAmount=\",\n\t\t\t\t\tlockedAmount.toString()\n\t\t\t\t)\n\t\t\t)\n\t\t);\n\t}\n\n\tfunction _baseURI() internal view override returns (string memory) {\n\t\treturn nftBaseURI;\n\t}\n\n\t// The following functions are overrides required by Solidity.\n\tfunction _beforeTokenTransfer(\n\t\taddress from,\n\t\taddress to,\n\t\tuint256 tokenId\n\t) internal override(ERC721, ERC721Enumerable) {\n\t\tsuper._beforeTokenTransfer(from, to, tokenId);\n\t}\n\n\tfunction _burn(uint256 tokenId)\n\t\tinternal\n\t\toverride(ERC721, ERC721URIStorage)\n\t{\n\t\tsuper._burn(tokenId);\n\t}\n\n\tfunction tokenURI(uint256 tokenId)\n\t\tpublic\n\t\tview\n\t\toverride(ERC721, ERC721URIStorage)\n\t\treturns (string memory)\n\t{\n\t\treturn super.tokenURI(tokenId);\n\t}\n\n\tfunction supportsInterface(bytes4 interfaceId)\n\t\tpublic\n\t\tview\n\t\toverride(ERC721, ERC721Enumerable)\n\t\treturns (bool)\n\t{\n\t\treturn super.supportsInterface(interfaceId);\n\t}\n}\n",
  "sourcePath": "C:\\Users\\sants\\Desktop\\slimekeeper\\slimekeeper_contracts\\contracts\\NFT.sol",
  "compiler": {
    "name": "solc",
    "version": "0.8.11+commit.d7f03943.Emscripten.clang"
  },
  "schemaVersion": "3.4.4",
  "updatedAt": "2022-02-21T14:45:22.654Z",
  "devdoc": {
    "kind": "dev",
    "methods": {
      "approve(address,uint256)": {
        "details": "See {IERC721-approve}."
      },
      "balanceOf(address)": {
        "details": "See {IERC721-balanceOf}."
      },
      "getApproved(uint256)": {
        "details": "See {IERC721-getApproved}."
      },
      "isApprovedForAll(address,address)": {
        "details": "See {IERC721-isApprovedForAll}."
      },
      "name()": {
        "details": "See {IERC721Metadata-name}."
      },
      "ownerOf(uint256)": {
        "details": "See {IERC721-ownerOf}."
      },
      "safeTransferFrom(address,address,uint256)": {
        "details": "See {IERC721-safeTransferFrom}."
      },
      "safeTransferFrom(address,address,uint256,bytes)": {
        "details": "See {IERC721-safeTransferFrom}."
      },
      "setApprovalForAll(address,bool)": {
        "details": "See {IERC721-setApprovalForAll}."
      },
      "symbol()": {
        "details": "See {IERC721Metadata-symbol}."
      },
      "tokenByIndex(uint256)": {
        "details": "See {IERC721Enumerable-tokenByIndex}."
      },
      "tokenOfOwnerByIndex(address,uint256)": {
        "details": "See {IERC721Enumerable-tokenOfOwnerByIndex}."
      },
      "totalSupply()": {
        "details": "See {IERC721Enumerable-totalSupply}."
      },
      "transferFrom(address,address,uint256)": {
        "details": "See {IERC721-transferFrom}."
      }
    },
    "version": 1
  },
  "userdoc": {
    "kind": "user",
    "methods": {},
    "version": 1
  }
}