{
  "contractName": "NFT",
  "abi": [
    {
      "inputs": [],
      "stateMutability": "nonpayable",
      "type": "constructor"
    },
    {
      "anonymous": false,
      "inputs": [
        {
          "indexed": true,
          "internalType": "address",
          "name": "owner",
          "type": "address"
        },
        {
          "indexed": true,
          "internalType": "address",
          "name": "approved",
          "type": "address"
        },
        {
          "indexed": true,
          "internalType": "uint256",
          "name": "tokenId",
          "type": "uint256"
        }
      ],
      "name": "Approval",
      "type": "event"
    },
    {
      "anonymous": false,
      "inputs": [
        {
          "indexed": true,
          "internalType": "address",
          "name": "owner",
          "type": "address"
        },
        {
          "indexed": true,
          "internalType": "address",
          "name": "operator",
          "type": "address"
        },
        {
          "indexed": false,
          "internalType": "bool",
          "name": "approved",
          "type": "bool"
        }
      ],
      "name": "ApprovalForAll",
      "type": "event"
    },
    {
      "anonymous": false,
      "inputs": [
        {
          "indexed": false,
          "internalType": "address",
          "name": "claimer",
          "type": "address"
        },
        {
          "indexed": false,
          "internalType": "uint256",
          "name": "amount",
          "type": "uint256"
        },
        {
          "indexed": false,
          "internalType": "uint256",
          "name": "date",
          "type": "uint256"
        }
      ],
      "name": "Claimed",
      "type": "event"
    },
    {
      "anonymous": false,
      "inputs": [
        {
          "indexed": false,
          "internalType": "address",
          "name": "compounder",
          "type": "address"
        },
        {
          "indexed": false,
          "internalType": "uint256",
          "name": "amount",
          "type": "uint256"
        },
        {
          "indexed": false,
          "internalType": "uint256",
          "name": "date",
          "type": "uint256"
        }
      ],
      "name": "Compounded",
      "type": "event"
    },
    {
      "anonymous": false,
      "inputs": [
        {
          "indexed": false,
          "internalType": "address",
          "name": "minter",
          "type": "address"
        },
        {
          "indexed": false,
          "internalType": "uint256",
          "name": "amount",
          "type": "uint256"
        },
        {
          "indexed": false,
          "internalType": "uint256",
          "name": "date",
          "type": "uint256"
        }
      ],
      "name": "Minted",
      "type": "event"
    },
    {
      "anonymous": false,
      "inputs": [
        {
          "indexed": true,
          "internalType": "address",
          "name": "adder",
          "type": "address"
        },
        {
          "indexed": true,
          "internalType": "address",
          "name": "owner",
          "type": "address"
        },
        {
          "indexed": true,
          "internalType": "uint256",
          "name": "timestamp",
          "type": "uint256"
        }
      ],
      "name": "OwnerAdded",
      "type": "event"
    },
    {
      "anonymous": false,
      "inputs": [
        {
          "indexed": true,
          "internalType": "address",
          "name": "remover",
          "type": "address"
        },
        {
          "indexed": true,
          "internalType": "address",
          "name": "removed",
          "type": "address"
        },
        {
          "indexed": true,
          "internalType": "uint256",
          "name": "timestamp",
          "type": "uint256"
        }
      ],
      "name": "OwnerRemoved",
      "type": "event"
    },
    {
      "anonymous": false,
      "inputs": [
        {
          "indexed": true,
          "internalType": "address",
          "name": "from",
          "type": "address"
        },
        {
          "indexed": true,
          "internalType": "address",
          "name": "to",
          "type": "address"
        },
        {
          "indexed": true,
          "internalType": "uint256",
          "name": "tokenId",
          "type": "uint256"
        }
      ],
      "name": "Transfer",
      "type": "event"
    },
    {
      "inputs": [
        {
          "internalType": "address",
          "name": "owner",
          "type": "address"
        }
      ],
      "name": "addOwner",
      "outputs": [],
      "stateMutability": "nonpayable",
      "type": "function"
    },
    {
      "inputs": [],
      "name": "addressMax",
      "outputs": [
        {
          "internalType": "uint256",
          "name": "",
          "type": "uint256"
        }
      ],
      "stateMutability": "view",
      "type": "function",
      "constant": true
    },
    {
      "inputs": [
        {
          "internalType": "address",
          "name": "to",
          "type": "address"
        },
        {
          "internalType": "uint256",
          "name": "tokenId",
          "type": "uint256"
        }
      ],
      "name": "approve",
      "outputs": [],
      "stateMutability": "nonpayable",
      "type": "function"
    },
    {
      "inputs": [
        {
          "internalType": "address",
          "name": "owner",
          "type": "address"
        }
      ],
      "name": "balanceOf",
      "outputs": [
        {
          "internalType": "uint256",
          "name": "",
          "type": "uint256"
        }
      ],
      "stateMutability": "view",
      "type": "function",
      "constant": true
    },
    {
      "inputs": [],
      "name": "baseRewardDivisor",
      "outputs": [
        {
          "internalType": "uint256",
          "name": "",
          "type": "uint256"
        }
      ],
      "stateMutability": "view",
      "type": "function",
      "constant": true
    },
    {
      "inputs": [
        {
          "internalType": "uint256",
          "name": "tokenId",
          "type": "uint256"
        }
      ],
      "name": "getApproved",
      "outputs": [
        {
          "internalType": "address",
          "name": "",
          "type": "address"
        }
      ],
      "stateMutability": "view",
      "type": "function",
      "constant": true
    },
    {
      "inputs": [],
      "name": "getOwners",
      "outputs": [
        {
          "internalType": "address[]",
          "name": "",
          "type": "address[]"
        }
      ],
      "stateMutability": "view",
      "type": "function",
      "constant": true
    },
    {
      "inputs": [
        {
          "internalType": "address",
          "name": "owner",
          "type": "address"
        },
        {
          "internalType": "address",
          "name": "operator",
          "type": "address"
        }
      ],
      "name": "isApprovedForAll",
      "outputs": [
        {
          "internalType": "bool",
          "name": "",
          "type": "bool"
        }
      ],
      "stateMutability": "view",
      "type": "function",
      "constant": true
    },
    {
      "inputs": [
        {
          "internalType": "address",
          "name": "owner",
          "type": "address"
        }
      ],
      "name": "isOwner",
      "outputs": [
        {
          "internalType": "bool",
          "name": "",
          "type": "bool"
        }
      ],
      "stateMutability": "view",
      "type": "function",
      "constant": true
    },
    {
      "inputs": [],
      "name": "levelRewardDivisor",
      "outputs": [
        {
          "internalType": "uint256",
          "name": "",
          "type": "uint256"
        }
      ],
      "stateMutability": "view",
      "type": "function",
      "constant": true
    },
    {
      "inputs": [],
      "name": "maxTokenLevel",
      "outputs": [
        {
          "internalType": "uint256",
          "name": "",
          "type": "uint256"
        }
      ],
      "stateMutability": "view",
      "type": "function",
      "constant": true
    },
    {
      "inputs": [],
      "name": "mintPrice",
      "outputs": [
        {
          "internalType": "uint256",
          "name": "",
          "type": "uint256"
        }
      ],
      "stateMutability": "view",
      "type": "function",
      "constant": true
    },
    {
      "inputs": [],
      "name": "name",
      "outputs": [
        {
          "internalType": "string",
          "name": "",
          "type": "string"
        }
      ],
      "stateMutability": "view",
      "type": "function",
      "constant": true
    },
    {
      "inputs": [
        {
          "internalType": "uint256",
          "name": "",
          "type": "uint256"
        }
      ],
      "name": "nftData",
      "outputs": [
        {
          "internalType": "uint256",
          "name": "level",
          "type": "uint256"
        },
        {
          "internalType": "uint256",
          "name": "birthDate",
          "type": "uint256"
        },
        {
          "internalType": "uint256",
          "name": "lockedAmount",
          "type": "uint256"
        },
        {
          "internalType": "uint256",
          "name": "lastClaimedDate",
          "type": "uint256"
        }
      ],
      "stateMutability": "view",
      "type": "function",
      "constant": true
    },
    {
      "inputs": [
        {
          "internalType": "uint256",
          "name": "tokenId",
          "type": "uint256"
        }
      ],
      "name": "ownerOf",
      "outputs": [
        {
          "internalType": "address",
          "name": "",
          "type": "address"
        }
      ],
      "stateMutability": "view",
      "type": "function",
      "constant": true
    },
    {
      "inputs": [
        {
          "internalType": "address",
          "name": "owner",
          "type": "address"
        }
      ],
      "name": "removeOwner",
      "outputs": [],
      "stateMutability": "nonpayable",
      "type": "function"
    },
    {
      "inputs": [
        {
          "internalType": "address",
          "name": "from",
          "type": "address"
        },
        {
          "internalType": "address",
          "name": "to",
          "type": "address"
        },
        {
          "internalType": "uint256",
          "name": "tokenId",
          "type": "uint256"
        }
      ],
      "name": "safeTransferFrom",
      "outputs": [],
      "stateMutability": "nonpayable",
      "type": "function"
    },
    {
      "inputs": [
        {
          "internalType": "address",
          "name": "from",
          "type": "address"
        },
        {
          "internalType": "address",
          "name": "to",
          "type": "address"
        },
        {
          "internalType": "uint256",
          "name": "tokenId",
          "type": "uint256"
        },
        {
          "internalType": "bytes",
          "name": "_data",
          "type": "bytes"
        }
      ],
      "name": "safeTransferFrom",
      "outputs": [],
      "stateMutability": "nonpayable",
      "type": "function"
    },
    {
      "inputs": [
        {
          "internalType": "address",
          "name": "operator",
          "type": "address"
        },
        {
          "internalType": "bool",
          "name": "approved",
          "type": "bool"
        }
      ],
      "name": "setApprovalForAll",
      "outputs": [],
      "stateMutability": "nonpayable",
      "type": "function"
    },
    {
      "inputs": [
        {
          "internalType": "bool",
          "name": "newPaused",
          "type": "bool"
        }
      ],
      "name": "setIsPaused",
      "outputs": [],
      "stateMutability": "nonpayable",
      "type": "function"
    },
    {
      "inputs": [],
      "name": "supplyMax",
      "outputs": [
        {
          "internalType": "uint256",
          "name": "",
          "type": "uint256"
        }
      ],
      "stateMutability": "view",
      "type": "function",
      "constant": true
    },
    {
      "inputs": [],
      "name": "symbol",
      "outputs": [
        {
          "internalType": "string",
          "name": "",
          "type": "string"
        }
      ],
      "stateMutability": "view",
      "type": "function",
      "constant": true
    },
    {
      "inputs": [
        {
          "internalType": "uint256",
          "name": "index",
          "type": "uint256"
        }
      ],
      "name": "tokenByIndex",
      "outputs": [
        {
          "internalType": "uint256",
          "name": "",
          "type": "uint256"
        }
      ],
      "stateMutability": "view",
      "type": "function",
      "constant": true
    },
    {
      "inputs": [
        {
          "internalType": "address",
          "name": "owner",
          "type": "address"
        },
        {
          "internalType": "uint256",
          "name": "index",
          "type": "uint256"
        }
      ],
      "name": "tokenOfOwnerByIndex",
      "outputs": [
        {
          "internalType": "uint256",
          "name": "",
          "type": "uint256"
        }
      ],
      "stateMutability": "view",
      "type": "function",
      "constant": true
    },
    {
      "inputs": [],
      "name": "tokensPerLevel",
      "outputs": [
        {
          "internalType": "uint256",
          "name": "",
          "type": "uint256"
        }
      ],
      "stateMutability": "view",
      "type": "function",
      "constant": true
    },
    {
      "inputs": [
        {
          "internalType": "address",
          "name": "from",
          "type": "address"
        },
        {
          "internalType": "address",
          "name": "to",
          "type": "address"
        },
        {
          "internalType": "uint256",
          "name": "tokenId",
          "type": "uint256"
        }
      ],
      "name": "transferFrom",
      "outputs": [],
      "stateMutability": "nonpayable",
      "type": "function"
    },
    {
      "inputs": [
        {
          "internalType": "address",
          "name": "to",
          "type": "address"
        },
        {
          "internalType": "uint256",
          "name": "amount",
          "type": "uint256"
        }
      ],
      "name": "mint",
      "outputs": [],
      "stateMutability": "nonpayable",
      "type": "function"
    },
    {
      "inputs": [
        {
          "internalType": "uint256",
          "name": "tokenId",
          "type": "uint256"
        },
        {
          "internalType": "uint256",
          "name": "amount",
          "type": "uint256"
        }
      ],
      "name": "compound",
      "outputs": [],
      "stateMutability": "nonpayable",
      "type": "function"
    },
    {
      "inputs": [
        {
          "internalType": "uint256",
          "name": "tokenId",
          "type": "uint256"
        }
      ],
      "name": "claim",
      "outputs": [],
      "stateMutability": "nonpayable",
      "type": "function"
    },
    {
      "inputs": [
        {
          "internalType": "uint256",
          "name": "tokenId",
          "type": "uint256"
        }
      ],
      "name": "reward",
      "outputs": [
        {
          "internalType": "uint256",
          "name": "",
          "type": "uint256"
        }
      ],
      "stateMutability": "view",
      "type": "function",
      "constant": true
    },
    {
      "inputs": [
        {
          "internalType": "uint256",
          "name": "tokenId",
          "type": "uint256"
        }
      ],
      "name": "getNFTData",
      "outputs": [
        {
          "internalType": "uint256",
          "name": "",
          "type": "uint256"
        },
        {
          "internalType": "uint256",
          "name": "",
          "type": "uint256"
        },
        {
          "internalType": "uint256",
          "name": "",
          "type": "uint256"
        },
        {
          "internalType": "uint256",
          "name": "",
          "type": "uint256"
        }
      ],
      "stateMutability": "view",
      "type": "function",
      "constant": true
    },
    {
      "inputs": [
        {
          "internalType": "uint256",
          "name": "newMax",
          "type": "uint256"
        }
      ],
      "name": "setAddressMax",
      "outputs": [],
      "stateMutability": "nonpayable",
      "type": "function"
    },
    {
      "inputs": [
        {
          "internalType": "uint256",
          "name": "newMax",
          "type": "uint256"
        }
      ],
      "name": "setSupplyMax",
      "outputs": [],
      "stateMutability": "nonpayable",
      "type": "function"
    },
    {
      "inputs": [
        {
          "internalType": "uint256",
          "name": "newPrice",
          "type": "uint256"
        }
      ],
      "name": "setMintPrice",
      "outputs": [],
      "stateMutability": "nonpayable",
      "type": "function"
    },
    {
      "inputs": [
        {
          "internalType": "uint256",
          "name": "newLevel",
          "type": "uint256"
        }
      ],
      "name": "setMaxTokenLevel",
      "outputs": [],
      "stateMutability": "nonpayable",
      "type": "function"
    },
    {
      "inputs": [
        {
          "internalType": "uint256",
          "name": "newTokensPerLevel",
          "type": "uint256"
        }
      ],
      "name": "setTokensPerLevel",
      "outputs": [],
      "stateMutability": "nonpayable",
      "type": "function"
    },
    {
      "inputs": [
        {
          "internalType": "uint256",
          "name": "newbaseRewardDivisor",
          "type": "uint256"
        }
      ],
      "name": "setbaseRewardDivisor",
      "outputs": [],
      "stateMutability": "nonpayable",
      "type": "function"
    },
    {
      "inputs": [
        {
          "internalType": "address",
          "name": "newTokenAddress",
          "type": "address"
        }
      ],
      "name": "setTokenAddress",
      "outputs": [],
      "stateMutability": "nonpayable",
      "type": "function"
    },
    {
      "inputs": [
        {
          "internalType": "string",
          "name": "newBaseURI",
          "type": "string"
        }
      ],
      "name": "setBaseUri",
      "outputs": [],
      "stateMutability": "nonpayable",
      "type": "function"
    },
    {
      "inputs": [],
      "name": "totalSupply",
      "outputs": [
        {
          "internalType": "uint256",
          "name": "",
          "type": "uint256"
        }
      ],
      "stateMutability": "view",
      "type": "function",
      "constant": true
    },
    {
      "inputs": [
        {
          "internalType": "uint256",
          "name": "tokenId",
          "type": "uint256"
        }
      ],
      "name": "tokenURI",
      "outputs": [
        {
          "internalType": "string",
          "name": "",
          "type": "string"
        }
      ],
      "stateMutability": "view",
      "type": "function",
      "constant": true
    },
    {
      "inputs": [
        {
          "internalType": "bytes4",
          "name": "interfaceId",
          "type": "bytes4"
        }
      ],
      "name": "supportsInterface",
      "outputs": [
        {
          "internalType": "bool",
          "name": "",
          "type": "bool"
        }
      ],
      "stateMutability": "view",
      "type": "function",
      "constant": true
    }
  ],
  "bytecode": "0x60806040526005600e556103e8600f556103e8601055600a6011556103e8601255600a60135560026014556040518060600160405280603781526020016200610660379139601790805190602001906200005b9291906200023e565b503480156200006957600080fd5b506040518060400160405280600381526020017f4e465400000000000000000000000000000000000000000000000000000000008152506040518060400160405280600381526020017f4e465400000000000000000000000000000000000000000000000000000000008152508160009080519060200190620000ee9291906200023e565b508060019080519060200190620001079291906200023e565b505050600073ffffffffffffffffffffffffffffffffffffffff163373ffffffffffffffffffffffffffffffffffffffff1614156200017d576040517f08c379a0000000000000000000000000000000000000000000000000000000008152600401620001749062000375565b60405180910390fd5b6001600b60003373ffffffffffffffffffffffffffffffffffffffff1673ffffffffffffffffffffffffffffffffffffffff16815260200190815260200160002060006101000a81548160ff021916908315150217905550600c339080600181540180825580915050600190039060005260206000200160009091909190916101000a81548173ffffffffffffffffffffffffffffffffffffffff021916908373ffffffffffffffffffffffffffffffffffffffff160217905550620003fc565b8280546200024c90620003c6565b90600052602060002090601f016020900481019282620002705760008555620002bc565b82601f106200028b57805160ff1916838001178555620002bc565b82800160010185558215620002bc579182015b82811115620002bb5782518255916020019190600101906200029e565b5b509050620002cb9190620002cf565b5090565b5b80821115620002ea576000816000905550600101620002d0565b5090565b600082825260208201905092915050565b7f43616e277420696e697469616c697a652077697468207a65726f20616464726560008201527f7373000000000000000000000000000000000000000000000000000000000000602082015250565b60006200035d602283620002ee565b91506200036a82620002ff565b604082019050919050565b6000602082019050818103600083015262000390816200034e565b9050919050565b7f4e487b7100000000000000000000000000000000000000000000000000000000600052602260045260246000fd5b60006002820490506001821680620003df57607f821691505b60208210811415620003f657620003f562000397565b5b50919050565b615cfa806200040c6000396000f3fe608060405234801561001057600080fd5b506004361061025e5760003560e01c80635da5128b11610146578063a1a7a423116100c3578063b1de420211610087578063b1de420214610737578063b88d4fde14610753578063bff1208d1461076f578063c87b56dd1461078b578063e985e9c5146107bb578063f4a0a528146107eb5761025e565b8063a1a7a42314610695578063a22cb465146106b3578063a3db1105146106cf578063a9fb763c146106eb578063aa29c3311461071b5761025e565b80638c2109751161010a5780638c210975146105ec57806395d89b411461061f57806396636fe11461063d578063a0bcfc7f1461065b578063a0e67e2b146106775761025e565b80635da5128b146105345780636352211e146105525780636817c76c146105825780637065cb48146105a057806370a08231146105bc5761025e565b8063240976bf116101df57806331bcbaed116101a357806331bcbaed14610474578063379607f51461049257806340c10f19146104ae57806342842e0e146104ca5780634f6ccce7146104e65780635ae1ab11146105165761025e565b8063240976bf146103c057806326a4e8d2146103dc57806327620aaa146103f85780632f54bf6e146104145780632f745c59146104445761025e565b80630ad4c4f4116102265780630ad4c4f41461031b5780630cef1fbf1461034e578063173825d91461036a57806318160ddd1461038657806323b872dd146103a45761025e565b806301ffc9a71461026357806304e275821461029357806306fdde03146102b1578063081812fc146102cf578063095ea7b3146102ff575b600080fd5b61027d60048036038101906102789190613f83565b610807565b60405161028a9190613fcb565b60405180910390f35b61029b610819565b6040516102a89190613fff565b60405180910390f35b6102b961081f565b6040516102c691906140b3565b60405180910390f35b6102e960048036038101906102e49190614101565b6108b1565b6040516102f6919061416f565b60405180910390f35b610319600480360381019061031491906141b6565b610936565b005b61033560048036038101906103309190614101565b610a4e565b60405161034594939291906141f6565b60405180910390f35b61036860048036038101906103639190614101565b610ad7565b005b610384600480360381019061037f919061423b565b610b74565b005b61038e610f0c565b60405161039b9190613fff565b60405180910390f35b6103be60048036038101906103b99190614268565b610f1d565b005b6103da60048036038101906103d591906142e7565b610f7d565b005b6103f660048036038101906103f1919061423b565b61102d565b005b610412600480360381019061040d9190614101565b611104565b005b61042e6004803603810190610429919061423b565b6111a1565b60405161043b9190613fcb565b60405180910390f35b61045e600480360381019061045991906141b6565b6111f7565b60405161046b9190613fff565b60405180910390f35b61047c61129c565b6040516104899190613fff565b60405180910390f35b6104ac60048036038101906104a79190614101565b6112a2565b005b6104c860048036038101906104c391906141b6565b6115ac565b005b6104e460048036038101906104df9190614268565b611b46565b005b61050060048036038101906104fb9190614101565b611b66565b60405161050d9190613fff565b60405180910390f35b61051e611bd7565b60405161052b9190613fff565b60405180910390f35b61053c611bdd565b6040516105499190613fff565b60405180910390f35b61056c60048036038101906105679190614101565b611be3565b604051610579919061416f565b60405180910390f35b61058a611c95565b6040516105979190613fff565b60405180910390f35b6105ba60048036038101906105b5919061423b565b611c9b565b005b6105d660048036038101906105d1919061423b565b611e47565b6040516105e39190613fff565b60405180910390f35b61060660048036038101906106019190614101565b611eff565b60405161061694939291906141f6565b60405180910390f35b610627611f2f565b60405161063491906140b3565b60405180910390f35b610645611fc1565b6040516106529190613fff565b60405180910390f35b61067560048036038101906106709190614449565b611fc7565b005b61067f612074565b60405161068c9190614550565b60405180910390f35b61069d612102565b6040516106aa9190613fff565b60405180910390f35b6106cd60048036038101906106c89190614572565b612108565b005b6106e960048036038101906106e49190614101565b61211e565b005b61070560048036038101906107009190614101565b6121bb565b6040516107129190613fff565b60405180910390f35b61073560048036038101906107309190614101565b612270565b005b610751600480360381019061074c9190614101565b61230d565b005b61076d60048036038101906107689190614653565b6123aa565b005b610789600480360381019061078491906146d6565b61240c565b005b6107a560048036038101906107a09190614101565b61284e565b6040516107b291906140b3565b60405180910390f35b6107d560048036038101906107d09190614716565b612860565b6040516107e29190613fcb565b60405180910390f35b61080560048036038101906108009190614101565b6128f4565b005b600061081282612991565b9050919050565b600f5481565b60606000805461082e90614785565b80601f016020809104026020016040519081016040528092919081815260200182805461085a90614785565b80156108a75780601f1061087c576101008083540402835291602001916108a7565b820191906000526020600020905b81548152906001019060200180831161088a57829003601f168201915b5050505050905090565b60006108bc82612a0b565b6108fb576040517f08c379a00000000000000000000000000000000000000000000000000000000081526004016108f290614829565b60405180910390fd5b6004600083815260200190815260200160002060009054906101000a900473ffffffffffffffffffffffffffffffffffffffff169050919050565b600061094182611be3565b90508073ffffffffffffffffffffffffffffffffffffffff168373ffffffffffffffffffffffffffffffffffffffff1614156109b2576040517f08c379a00000000000000000000000000000000000000000000000000000000081526004016109a9906148bb565b60405180910390fd5b8073ffffffffffffffffffffffffffffffffffffffff166109d1612a77565b73ffffffffffffffffffffffffffffffffffffffff161480610a0057506109ff816109fa612a77565b612860565b5b610a3f576040517f08c379a0000000000000000000000000000000000000000000000000000000008152600401610a369061494d565b60405180910390fd5b610a498383612a7f565b505050565b600080600080610a5d85612a0b565b610a9c576040517f08c379a0000000000000000000000000000000000000000000000000000000008152600401610a93906149b9565b60405180910390fd5b600060156000878152602001908152602001600020905080600001548160010154826002015483600301549450945094509450509193509193565b60011515600b60003373ffffffffffffffffffffffffffffffffffffffff1673ffffffffffffffffffffffffffffffffffffffff16815260200190815260200160002060009054906101000a900460ff16151514610b6a576040517f08c379a0000000000000000000000000000000000000000000000000000000008152600401610b6190614a25565b60405180910390fd5b80600f8190555050565b60011515600b60003373ffffffffffffffffffffffffffffffffffffffff1673ffffffffffffffffffffffffffffffffffffffff16815260200190815260200160002060009054906101000a900460ff16151514610c07576040517f08c379a0000000000000000000000000000000000000000000000000000000008152600401610bfe90614a25565b60405180910390fd5b60011515600b60008373ffffffffffffffffffffffffffffffffffffffff1673ffffffffffffffffffffffffffffffffffffffff16815260200190815260200160002060009054906101000a900460ff16151514610c9a576040517f08c379a0000000000000000000000000000000000000000000000000000000008152600401610c9190614a91565b60405180910390fd5b60005b600c80549050811015610f08578173ffffffffffffffffffffffffffffffffffffffff16600c8281548110610cd557610cd4614ab1565b5b9060005260206000200160009054906101000a900473ffffffffffffffffffffffffffffffffffffffff1673ffffffffffffffffffffffffffffffffffffffff161415610ef5576000600b60008473ffffffffffffffffffffffffffffffffffffffff1673ffffffffffffffffffffffffffffffffffffffff16815260200190815260200160002060006101000a81548160ff02191690831515021790555060008190505b6001600c80549050610d8c9190614b0f565b811015610e4d57600c600183610da29190614b43565b81548110610db357610db2614ab1565b5b9060005260206000200160009054906101000a900473ffffffffffffffffffffffffffffffffffffffff16600c8381548110610df257610df1614ab1565b5b9060005260206000200160006101000a81548173ffffffffffffffffffffffffffffffffffffffff021916908373ffffffffffffffffffffffffffffffffffffffff1602179055508080610e4590614b99565b915050610d7a565b50600c805480610e6057610e5f614be2565b5b6001900381819060005260206000200160006101000a81549073ffffffffffffffffffffffffffffffffffffffff02191690559055428273ffffffffffffffffffffffffffffffffffffffff163373ffffffffffffffffffffffffffffffffffffffff167fecc5dd9888b87e7ed252d66b9c086ab819de6c8f8b96c8e5458e105bacfbb02760405160405180910390a4610f08565b8080610f0090614b99565b915050610c9d565b5050565b6000610f186019612b38565b905090565b610f2e610f28612a77565b82612b46565b610f6d576040517f08c379a0000000000000000000000000000000000000000000000000000000008152600401610f6490614c83565b60405180910390fd5b610f78838383612c24565b505050565b60011515600b60003373ffffffffffffffffffffffffffffffffffffffff1673ffffffffffffffffffffffffffffffffffffffff16815260200190815260200160002060009054906101000a900460ff16151514611010576040517f08c379a000000000000000000000000000000000000000000000000000000000815260040161100790614a25565b60405180910390fd5b80600d60006101000a81548160ff02191690831515021790555050565b60011515600b60003373ffffffffffffffffffffffffffffffffffffffff1673ffffffffffffffffffffffffffffffffffffffff16815260200190815260200160002060009054906101000a900460ff161515146110c0576040517f08c379a00000000000000000000000000000000000000000000000000000000081526004016110b790614a25565b60405180910390fd5b80601660006101000a81548173ffffffffffffffffffffffffffffffffffffffff021916908373ffffffffffffffffffffffffffffffffffffffff16021790555050565b60011515600b60003373ffffffffffffffffffffffffffffffffffffffff1673ffffffffffffffffffffffffffffffffffffffff16815260200190815260200160002060009054906101000a900460ff16151514611197576040517f08c379a000000000000000000000000000000000000000000000000000000000815260040161118e90614a25565b60405180910390fd5b8060138190555050565b6000600b60008373ffffffffffffffffffffffffffffffffffffffff1673ffffffffffffffffffffffffffffffffffffffff16815260200190815260200160002060009054906101000a900460ff169050919050565b600061120283611e47565b8210611243576040517f08c379a000000000000000000000000000000000000000000000000000000000815260040161123a90614d15565b60405180910390fd5b600660008473ffffffffffffffffffffffffffffffffffffffff1673ffffffffffffffffffffffffffffffffffffffff168152602001908152602001600020600083815260200190815260200160002054905092915050565b60125481565b6112ab336111a1565b61130057600d60009054906101000a900460ff16156112ff576040517f08c379a00000000000000000000000000000000000000000000000000000000081526004016112f690614d81565b60405180910390fd5b5b61130981612a0b565b611348576040517f08c379a000000000000000000000000000000000000000000000000000000000815260040161133f906149b9565b60405180910390fd5b3373ffffffffffffffffffffffffffffffffffffffff1661136882611be3565b73ffffffffffffffffffffffffffffffffffffffff16146113be576040517f08c379a00000000000000000000000000000000000000000000000000000000081526004016113b590614ded565b60405180910390fd5b600060156000838152602001908152602001600020905060006113e0836121bb565b905042826003018190555080601660009054906101000a900473ffffffffffffffffffffffffffffffffffffffff1673ffffffffffffffffffffffffffffffffffffffff166370a08231306040518263ffffffff1660e01b8152600401611447919061416f565b602060405180830381865afa158015611464573d6000803e3d6000fd5b505050506040513d601f19601f820116820180604052508101906114889190614e22565b10156114c9576040517f08c379a00000000000000000000000000000000000000000000000000000000081526004016114c090614e9b565b60405180910390fd5b601660009054906101000a900473ffffffffffffffffffffffffffffffffffffffff1673ffffffffffffffffffffffffffffffffffffffff166323b872dd3033846040518463ffffffff1660e01b815260040161152893929190614ebb565b6020604051808303816000875af1158015611547573d6000803e3d6000fd5b505050506040513d601f19601f8201168201806040525081019061156b9190614f07565b507f987d620f307ff6b94d58743cb7a7509f24071586a77759b77c2d4e29f75a2f9a33824260405161159f93929190614f34565b60405180910390a1505050565b6115b5336111a1565b61160a57600d60009054906101000a900460ff1615611609576040517f08c379a000000000000000000000000000000000000000000000000000000000815260040161160090614d81565b60405180910390fd5b5b600f54611615610f0c565b10611655576040517f08c379a000000000000000000000000000000000000000000000000000000000815260040161164c90614fb7565b60405180910390fd5b600e5481601860008573ffffffffffffffffffffffffffffffffffffffff1673ffffffffffffffffffffffffffffffffffffffff168152602001908152602001600020546116a39190614b43565b11156116e4576040517f08c379a00000000000000000000000000000000000000000000000000000000081526004016116db90615049565b60405180910390fd5b600f5481601860008573ffffffffffffffffffffffffffffffffffffffff1673ffffffffffffffffffffffffffffffffffffffff168152602001908152602001600020546117329190614b43565b1115611773576040517f08c379a000000000000000000000000000000000000000000000000000000000815260040161176a906150db565b60405180910390fd5b6000670de0b6b3a76400006010548361178c91906150fb565b61179691906150fb565b905080601660009054906101000a900473ffffffffffffffffffffffffffffffffffffffff1673ffffffffffffffffffffffffffffffffffffffff166370a08231856040518263ffffffff1660e01b81526004016117f4919061416f565b602060405180830381865afa158015611811573d6000803e3d6000fd5b505050506040513d601f19601f820116820180604052508101906118359190614e22565b1015611876576040517f08c379a000000000000000000000000000000000000000000000000000000000815260040161186d906151a1565b60405180910390fd5b80601660009054906101000a900473ffffffffffffffffffffffffffffffffffffffff1673ffffffffffffffffffffffffffffffffffffffff1663dd62ed3e85306040518363ffffffff1660e01b81526004016118d49291906151c1565b602060405180830381865afa1580156118f1573d6000803e3d6000fd5b505050506040513d601f19601f820116820180604052508101906119159190614e22565b1015611956576040517f08c379a000000000000000000000000000000000000000000000000000000000815260040161194d90615236565b60405180910390fd5b600042905060005b83811015611a0b5760006119726019612b38565b905061197e8682612e80565b61198c818460016000612e9e565b604051806080016040528060018152602001848152602001600081526020018481525060156000838152602001908152602001600020600082015181600001556020820151816001015560408201518160020155606082015181600301559050506119f76019612ee9565b508080611a0390614b99565b91505061195e565b5082601860008673ffffffffffffffffffffffffffffffffffffffff1673ffffffffffffffffffffffffffffffffffffffff1681526020019081526020016000206000828254611a5b9190614b43565b92505081905550601660009054906101000a900473ffffffffffffffffffffffffffffffffffffffff1673ffffffffffffffffffffffffffffffffffffffff166323b872dd8530856040518463ffffffff1660e01b8152600401611ac193929190614ebb565b6020604051808303816000875af1158015611ae0573d6000803e3d6000fd5b505050506040513d601f19601f82011682018060405250810190611b049190614f07565b507f25b428dfde728ccfaddad7e29e4ac23c24ed7fd1a6e3e3f91894a9a073f5dfff848483604051611b3893929190614f34565b60405180910390a150505050565b611b61838383604051806020016040528060008152506123aa565b505050565b6000611b70612eff565b8210611bb1576040517f08c379a0000000000000000000000000000000000000000000000000000000008152600401611ba8906152c8565b60405180910390fd5b60088281548110611bc557611bc4614ab1565b5b90600052602060002001549050919050565b60135481565b60145481565b6000806002600084815260200190815260200160002060009054906101000a900473ffffffffffffffffffffffffffffffffffffffff169050600073ffffffffffffffffffffffffffffffffffffffff168173ffffffffffffffffffffffffffffffffffffffff161415611c8c576040517f08c379a0000000000000000000000000000000000000000000000000000000008152600401611c839061535a565b60405180910390fd5b80915050919050565b60105481565b60011515600b60003373ffffffffffffffffffffffffffffffffffffffff1673ffffffffffffffffffffffffffffffffffffffff16815260200190815260200160002060009054906101000a900460ff16151514611d2e576040517f08c379a0000000000000000000000000000000000000000000000000000000008152600401611d2590614a25565b60405180910390fd5b6001600b60008373ffffffffffffffffffffffffffffffffffffffff1673ffffffffffffffffffffffffffffffffffffffff16815260200190815260200160002060006101000a81548160ff021916908315150217905550600c819080600181540180825580915050600190039060005260206000200160009091909190916101000a81548173ffffffffffffffffffffffffffffffffffffffff021916908373ffffffffffffffffffffffffffffffffffffffff160217905550428173ffffffffffffffffffffffffffffffffffffffff163373ffffffffffffffffffffffffffffffffffffffff167fa0b18fca933618876351ba2ef88bf4505c184d3e55064bec0d7fe236dd706d8460405160405180910390a450565b60008073ffffffffffffffffffffffffffffffffffffffff168273ffffffffffffffffffffffffffffffffffffffff161415611eb8576040517f08c379a0000000000000000000000000000000000000000000000000000000008152600401611eaf906153ec565b60405180910390fd5b600360008373ffffffffffffffffffffffffffffffffffffffff1673ffffffffffffffffffffffffffffffffffffffff168152602001908152602001600020549050919050565b60156020528060005260406000206000915090508060000154908060010154908060020154908060030154905084565b606060018054611f3e90614785565b80601f0160208091040260200160405190810160405280929190818152602001828054611f6a90614785565b8015611fb75780601f10611f8c57610100808354040283529160200191611fb7565b820191906000526020600020905b815481529060010190602001808311611f9a57829003601f168201915b5050505050905090565b600e5481565b60011515600b60003373ffffffffffffffffffffffffffffffffffffffff1673ffffffffffffffffffffffffffffffffffffffff16815260200190815260200160002060009054906101000a900460ff1615151461205a576040517f08c379a000000000000000000000000000000000000000000000000000000000815260040161205190614a25565b60405180910390fd5b8060179080519060200190612070929190613e74565b5050565b6060600c8054806020026020016040519081016040528092919081815260200182805480156120f857602002820191906000526020600020905b8160009054906101000a900473ffffffffffffffffffffffffffffffffffffffff1673ffffffffffffffffffffffffffffffffffffffff16815260200190600101908083116120ae575b5050505050905090565b60115481565b61211a612113612a77565b8383612f0c565b5050565b60011515600b60003373ffffffffffffffffffffffffffffffffffffffff1673ffffffffffffffffffffffffffffffffffffffff16815260200190815260200160002060009054906101000a900460ff161515146121b1576040517f08c379a00000000000000000000000000000000000000000000000000000000081526004016121a890614a25565b60405180910390fd5b8060128190555050565b60006121c682612a0b565b612205576040517f08c379a00000000000000000000000000000000000000000000000000000000081526004016121fc906149b9565b60405180910390fd5b6000601560008481526020019081526020016000209050670de0b6b3a76400006014548260000154612237919061543b565b60135483600301544261224a9190614b0f565b612254919061543b565b61225e91906150fb565b61226891906150fb565b915050919050565b60011515600b60003373ffffffffffffffffffffffffffffffffffffffff1673ffffffffffffffffffffffffffffffffffffffff16815260200190815260200160002060009054906101000a900460ff16151514612303576040517f08c379a00000000000000000000000000000000000000000000000000000000081526004016122fa90614a25565b60405180910390fd5b8060108190555050565b60011515600b60003373ffffffffffffffffffffffffffffffffffffffff1673ffffffffffffffffffffffffffffffffffffffff16815260200190815260200160002060009054906101000a900460ff161515146123a0576040517f08c379a000000000000000000000000000000000000000000000000000000000815260040161239790614a25565b60405180910390fd5b80600e8190555050565b6123bb6123b5612a77565b83612b46565b6123fa576040517f08c379a00000000000000000000000000000000000000000000000000000000081526004016123f190614c83565b60405180910390fd5b61240684848484613079565b50505050565b612415336111a1565b61246a57600d60009054906101000a900460ff1615612469576040517f08c379a000000000000000000000000000000000000000000000000000000000815260040161246090614d81565b60405180910390fd5b5b6000670de0b6b3a76400008261248091906150fb565b905080601660009054906101000a900473ffffffffffffffffffffffffffffffffffffffff1673ffffffffffffffffffffffffffffffffffffffff166370a08231336040518263ffffffff1660e01b81526004016124de919061416f565b602060405180830381865afa1580156124fb573d6000803e3d6000fd5b505050506040513d601f19601f8201168201806040525081019061251f9190614e22565b1015612560576040517f08c379a0000000000000000000000000000000000000000000000000000000008152600401612557906151a1565b60405180910390fd5b80601660009054906101000a900473ffffffffffffffffffffffffffffffffffffffff1673ffffffffffffffffffffffffffffffffffffffff1663dd62ed3e33306040518363ffffffff1660e01b81526004016125be9291906151c1565b602060405180830381865afa1580156125db573d6000803e3d6000fd5b505050506040513d601f19601f820116820180604052508101906125ff9190614e22565b1015612640576040517f08c379a000000000000000000000000000000000000000000000000000000000815260040161263790615236565b60405180910390fd5b612649836112a2565b60006015600085815260200190815260200160002090506011548160000154106126a8576040517f08c379a000000000000000000000000000000000000000000000000000000000815260040161269f906154b8565b60405180910390fd5b6000670de0b6b3a76400006012546126c091906150fb565b905060008383600201546126d49190614b43565b9050600082826126e4919061543b565b90506000601154821061273057836011546126ff91906150fb565b8361270a9190614b0f565b9050601154856000018190555080836127239190614b0f565b8560020181905550612743565b8285600201819055508185600001819055505b61275b88866000015487600101548860020154612e9e565b601660009054906101000a900473ffffffffffffffffffffffffffffffffffffffff1673ffffffffffffffffffffffffffffffffffffffff166323b872dd3330848a6127a79190614b0f565b6040518463ffffffff1660e01b81526004016127c593929190614ebb565b6020604051808303816000875af11580156127e4573d6000803e3d6000fd5b505050506040513d601f19601f820116820180604052508101906128089190614f07565b507f820cea42e8517cf1ec6d4e9db93909255f07c45f7eb0a7c7b5a0f8bdcfc2e5bf33874260405161283c93929190614f34565b60405180910390a15050505050505050565b6060612859826130d5565b9050919050565b6000600560008473ffffffffffffffffffffffffffffffffffffffff1673ffffffffffffffffffffffffffffffffffffffff16815260200190815260200160002060008373ffffffffffffffffffffffffffffffffffffffff1673ffffffffffffffffffffffffffffffffffffffff16815260200190815260200160002060009054906101000a900460ff16905092915050565b60011515600b60003373ffffffffffffffffffffffffffffffffffffffff1673ffffffffffffffffffffffffffffffffffffffff16815260200190815260200160002060009054906101000a900460ff16151514612987576040517f08c379a000000000000000000000000000000000000000000000000000000000815260040161297e90614a25565b60405180910390fd5b8060108190555050565b60007f780e9d63000000000000000000000000000000000000000000000000000000007bffffffffffffffffffffffffffffffffffffffffffffffffffffffff1916827bffffffffffffffffffffffffffffffffffffffffffffffffffffffff19161480612a045750612a0382613227565b5b9050919050565b60008073ffffffffffffffffffffffffffffffffffffffff166002600084815260200190815260200160002060009054906101000a900473ffffffffffffffffffffffffffffffffffffffff1673ffffffffffffffffffffffffffffffffffffffff1614159050919050565b600033905090565b816004600083815260200190815260200160002060006101000a81548173ffffffffffffffffffffffffffffffffffffffff021916908373ffffffffffffffffffffffffffffffffffffffff160217905550808273ffffffffffffffffffffffffffffffffffffffff16612af283611be3565b73ffffffffffffffffffffffffffffffffffffffff167f8c5be1e5ebec7d5bd14f71427d1e84f3dd0314c0f7b2291e5b200ac8c7c3b92560405160405180910390a45050565b600081600001549050919050565b6000612b5182612a0b565b612b90576040517f08c379a0000000000000000000000000000000000000000000000000000000008152600401612b879061554a565b60405180910390fd5b6000612b9b83611be3565b90508073ffffffffffffffffffffffffffffffffffffffff168473ffffffffffffffffffffffffffffffffffffffff161480612c0a57508373ffffffffffffffffffffffffffffffffffffffff16612bf2846108b1565b73ffffffffffffffffffffffffffffffffffffffff16145b80612c1b5750612c1a8185612860565b5b91505092915050565b8273ffffffffffffffffffffffffffffffffffffffff16612c4482611be3565b73ffffffffffffffffffffffffffffffffffffffff1614612c9a576040517f08c379a0000000000000000000000000000000000000000000000000000000008152600401612c91906155dc565b60405180910390fd5b600073ffffffffffffffffffffffffffffffffffffffff168273ffffffffffffffffffffffffffffffffffffffff161415612d0a576040517f08c379a0000000000000000000000000000000000000000000000000000000008152600401612d019061566e565b60405180910390fd5b612d15838383613309565b612d20600082612a7f565b6001600360008573ffffffffffffffffffffffffffffffffffffffff1673ffffffffffffffffffffffffffffffffffffffff1681526020019081526020016000206000828254612d709190614b0f565b925050819055506001600360008473ffffffffffffffffffffffffffffffffffffffff1673ffffffffffffffffffffffffffffffffffffffff1681526020019081526020016000206000828254612dc79190614b43565b92505081905550816002600083815260200190815260200160002060006101000a81548173ffffffffffffffffffffffffffffffffffffffff021916908373ffffffffffffffffffffffffffffffffffffffff160217905550808273ffffffffffffffffffffffffffffffffffffffff168473ffffffffffffffffffffffffffffffffffffffff167fddf252ad1be2c89b69c2b068fc378daa952ba7f163c4a11628f55a4df523b3ef60405160405180910390a4505050565b612e9a828260405180602001604052806000815250613319565b5050565b612ee384612eab85613374565b612eb485613374565b612ebd85613374565b604051602001612ecf939291906157ae565b6040516020818303038152906040526134d5565b50505050565b6001816000016000828254019250508190555050565b6000600880549050905090565b8173ffffffffffffffffffffffffffffffffffffffff168373ffffffffffffffffffffffffffffffffffffffff161415612f7b576040517f08c379a0000000000000000000000000000000000000000000000000000000008152600401612f729061584c565b60405180910390fd5b80600560008573ffffffffffffffffffffffffffffffffffffffff1673ffffffffffffffffffffffffffffffffffffffff16815260200190815260200160002060008473ffffffffffffffffffffffffffffffffffffffff1673ffffffffffffffffffffffffffffffffffffffff16815260200190815260200160002060006101000a81548160ff0219169083151502179055508173ffffffffffffffffffffffffffffffffffffffff168373ffffffffffffffffffffffffffffffffffffffff167f17307eab39ab6107e8899845ad3d59bd9653f200f220920489ca2b5937696c318360405161306c9190613fcb565b60405180910390a3505050565b613084848484612c24565b61309084848484613549565b6130cf576040517f08c379a00000000000000000000000000000000000000000000000000000000081526004016130c6906158de565b60405180910390fd5b50505050565b60606130e082612a0b565b61311f576040517f08c379a000000000000000000000000000000000000000000000000000000000815260040161311690615970565b60405180910390fd5b6000600a6000848152602001908152602001600020805461313f90614785565b80601f016020809104026020016040519081016040528092919081815260200182805461316b90614785565b80156131b85780601f1061318d576101008083540402835291602001916131b8565b820191906000526020600020905b81548152906001019060200180831161319b57829003601f168201915b5050505050905060006131c96136d1565b90506000815114156131df578192505050613222565b6000825111156132145780826040516020016131fc929190615990565b60405160208183030381529060405292505050613222565b61321d84613763565b925050505b919050565b60007f80ac58cd000000000000000000000000000000000000000000000000000000007bffffffffffffffffffffffffffffffffffffffffffffffffffffffff1916827bffffffffffffffffffffffffffffffffffffffffffffffffffffffff191614806132f257507f5b5e139f000000000000000000000000000000000000000000000000000000007bffffffffffffffffffffffffffffffffffffffffffffffffffffffff1916827bffffffffffffffffffffffffffffffffffffffffffffffffffffffff1916145b8061330257506133018261380a565b5b9050919050565b613314838383613874565b505050565b6133238383613988565b6133306000848484613549565b61336f576040517f08c379a0000000000000000000000000000000000000000000000000000000008152600401613366906158de565b60405180910390fd5b505050565b606060008214156133bc576040518060400160405280600181526020017f300000000000000000000000000000000000000000000000000000000000000081525090506134d0565b600082905060005b600082146133ee5780806133d790614b99565b915050600a826133e7919061543b565b91506133c4565b60008167ffffffffffffffff81111561340a5761340961431e565b5b6040519080825280601f01601f19166020018201604052801561343c5781602001600182028036833780820191505090505b5090505b600085146134c9576001826134559190614b0f565b9150600a8561346491906159b4565b60306134709190614b43565b60f81b81838151811061348657613485614ab1565b5b60200101907effffffffffffffffffffffffffffffffffffffffffffffffffffffffffffff1916908160001a905350600a856134c2919061543b565b9450613440565b8093505050505b919050565b6134de82612a0b565b61351d576040517f08c379a000000000000000000000000000000000000000000000000000000000815260040161351490615a57565b60405180910390fd5b80600a60008481526020019081526020016000209080519060200190613544929190613e74565b505050565b600061356a8473ffffffffffffffffffffffffffffffffffffffff16613b56565b156136c4578373ffffffffffffffffffffffffffffffffffffffff1663150b7a02613593612a77565b8786866040518563ffffffff1660e01b81526004016135b59493929190615acc565b6020604051808303816000875af19250505080156135f157506040513d601f19601f820116820180604052508101906135ee9190615b2d565b60015b613674573d8060008114613621576040519150601f19603f3d011682016040523d82523d6000602084013e613626565b606091505b5060008151141561366c576040517f08c379a0000000000000000000000000000000000000000000000000000000008152600401613663906158de565b60405180910390fd5b805181602001fd5b63150b7a0260e01b7bffffffffffffffffffffffffffffffffffffffffffffffffffffffff1916817bffffffffffffffffffffffffffffffffffffffffffffffffffffffff1916149150506136c9565b600190505b949350505050565b6060601780546136e090614785565b80601f016020809104026020016040519081016040528092919081815260200182805461370c90614785565b80156137595780601f1061372e57610100808354040283529160200191613759565b820191906000526020600020905b81548152906001019060200180831161373c57829003601f168201915b5050505050905090565b606061376e82612a0b565b6137ad576040517f08c379a00000000000000000000000000000000000000000000000000000000081526004016137a490615bcc565b60405180910390fd5b60006137b76136d1565b905060008151116137d75760405180602001604052806000815250613802565b806137e184613374565b6040516020016137f2929190615990565b6040516020818303038152906040525b915050919050565b60007f01ffc9a7000000000000000000000000000000000000000000000000000000007bffffffffffffffffffffffffffffffffffffffffffffffffffffffff1916827bffffffffffffffffffffffffffffffffffffffffffffffffffffffff1916149050919050565b61387f838383613b69565b600073ffffffffffffffffffffffffffffffffffffffff168373ffffffffffffffffffffffffffffffffffffffff1614156138c2576138bd81613b6e565b613901565b8173ffffffffffffffffffffffffffffffffffffffff168373ffffffffffffffffffffffffffffffffffffffff1614613900576138ff8382613bb7565b5b5b600073ffffffffffffffffffffffffffffffffffffffff168273ffffffffffffffffffffffffffffffffffffffff1614156139445761393f81613d24565b613983565b8273ffffffffffffffffffffffffffffffffffffffff168273ffffffffffffffffffffffffffffffffffffffff1614613982576139818282613df5565b5b5b505050565b600073ffffffffffffffffffffffffffffffffffffffff168273ffffffffffffffffffffffffffffffffffffffff1614156139f8576040517f08c379a00000000000000000000000000000000000000000000000000000000081526004016139ef90615c38565b60405180910390fd5b613a0181612a0b565b15613a41576040517f08c379a0000000000000000000000000000000000000000000000000000000008152600401613a3890615ca4565b60405180910390fd5b613a4d60008383613309565b6001600360008473ffffffffffffffffffffffffffffffffffffffff1673ffffffffffffffffffffffffffffffffffffffff1681526020019081526020016000206000828254613a9d9190614b43565b92505081905550816002600083815260200190815260200160002060006101000a81548173ffffffffffffffffffffffffffffffffffffffff021916908373ffffffffffffffffffffffffffffffffffffffff160217905550808273ffffffffffffffffffffffffffffffffffffffff16600073ffffffffffffffffffffffffffffffffffffffff167fddf252ad1be2c89b69c2b068fc378daa952ba7f163c4a11628f55a4df523b3ef60405160405180910390a45050565b600080823b905060008111915050919050565b505050565b6008805490506009600083815260200190815260200160002081905550600881908060018154018082558091505060019003906000526020600020016000909190919091505550565b60006001613bc484611e47565b613bce9190614b0f565b9050600060076000848152602001908152602001600020549050818114613cb3576000600660008673ffffffffffffffffffffffffffffffffffffffff1673ffffffffffffffffffffffffffffffffffffffff168152602001908152602001600020600084815260200190815260200160002054905080600660008773ffffffffffffffffffffffffffffffffffffffff1673ffffffffffffffffffffffffffffffffffffffff168152602001908152602001600020600084815260200190815260200160002081905550816007600083815260200190815260200160002081905550505b6007600084815260200190815260200160002060009055600660008573ffffffffffffffffffffffffffffffffffffffff1673ffffffffffffffffffffffffffffffffffffffff16815260200190815260200160002060008381526020019081526020016000206000905550505050565b60006001600880549050613d389190614b0f565b9050600060096000848152602001908152602001600020549050600060088381548110613d6857613d67614ab1565b5b906000526020600020015490508060088381548110613d8a57613d89614ab1565b5b906000526020600020018190555081600960008381526020019081526020016000208190555060096000858152602001908152602001600020600090556008805480613dd957613dd8614be2565b5b6001900381819060005260206000200160009055905550505050565b6000613e0083611e47565b905081600660008573ffffffffffffffffffffffffffffffffffffffff1673ffffffffffffffffffffffffffffffffffffffff168152602001908152602001600020600083815260200190815260200160002081905550806007600084815260200190815260200160002081905550505050565b828054613e8090614785565b90600052602060002090601f016020900481019282613ea25760008555613ee9565b82601f10613ebb57805160ff1916838001178555613ee9565b82800160010185558215613ee9579182015b82811115613ee8578251825591602001919060010190613ecd565b5b509050613ef69190613efa565b5090565b5b80821115613f13576000816000905550600101613efb565b5090565b6000604051905090565b600080fd5b600080fd5b60007fffffffff0000000000000000000000000000000000000000000000000000000082169050919050565b613f6081613f2b565b8114613f6b57600080fd5b50565b600081359050613f7d81613f57565b92915050565b600060208284031215613f9957613f98613f21565b5b6000613fa784828501613f6e565b91505092915050565b60008115159050919050565b613fc581613fb0565b82525050565b6000602082019050613fe06000830184613fbc565b92915050565b6000819050919050565b613ff981613fe6565b82525050565b60006020820190506140146000830184613ff0565b92915050565b600081519050919050565b600082825260208201905092915050565b60005b83811015614054578082015181840152602081019050614039565b83811115614063576000848401525b50505050565b6000601f19601f8301169050919050565b60006140858261401a565b61408f8185614025565b935061409f818560208601614036565b6140a881614069565b840191505092915050565b600060208201905081810360008301526140cd818461407a565b905092915050565b6140de81613fe6565b81146140e957600080fd5b50565b6000813590506140fb816140d5565b92915050565b60006020828403121561411757614116613f21565b5b6000614125848285016140ec565b91505092915050565b600073ffffffffffffffffffffffffffffffffffffffff82169050919050565b60006141598261412e565b9050919050565b6141698161414e565b82525050565b60006020820190506141846000830184614160565b92915050565b6141938161414e565b811461419e57600080fd5b50565b6000813590506141b08161418a565b92915050565b600080604083850312156141cd576141cc613f21565b5b60006141db858286016141a1565b92505060206141ec858286016140ec565b9150509250929050565b600060808201905061420b6000830187613ff0565b6142186020830186613ff0565b6142256040830185613ff0565b6142326060830184613ff0565b95945050505050565b60006020828403121561425157614250613f21565b5b600061425f848285016141a1565b91505092915050565b60008060006060848603121561428157614280613f21565b5b600061428f868287016141a1565b93505060206142a0868287016141a1565b92505060406142b1868287016140ec565b9150509250925092565b6142c481613fb0565b81146142cf57600080fd5b50565b6000813590506142e1816142bb565b92915050565b6000602082840312156142fd576142fc613f21565b5b600061430b848285016142d2565b91505092915050565b600080fd5b600080fd5b7f4e487b7100000000000000000000000000000000000000000000000000000000600052604160045260246000fd5b61435682614069565b810181811067ffffffffffffffff821117156143755761437461431e565b5b80604052505050565b6000614388613f17565b9050614394828261434d565b919050565b600067ffffffffffffffff8211156143b4576143b361431e565b5b6143bd82614069565b9050602081019050919050565b82818337600083830152505050565b60006143ec6143e784614399565b61437e565b90508281526020810184848401111561440857614407614319565b5b6144138482856143ca565b509392505050565b600082601f8301126144305761442f614314565b5b81356144408482602086016143d9565b91505092915050565b60006020828403121561445f5761445e613f21565b5b600082013567ffffffffffffffff81111561447d5761447c613f26565b5b6144898482850161441b565b91505092915050565b600081519050919050565b600082825260208201905092915050565b6000819050602082019050919050565b6144c78161414e565b82525050565b60006144d983836144be565b60208301905092915050565b6000602082019050919050565b60006144fd82614492565b614507818561449d565b9350614512836144ae565b8060005b8381101561454357815161452a88826144cd565b9750614535836144e5565b925050600181019050614516565b5085935050505092915050565b6000602082019050818103600083015261456a81846144f2565b905092915050565b6000806040838503121561458957614588613f21565b5b6000614597858286016141a1565b92505060206145a8858286016142d2565b9150509250929050565b600067ffffffffffffffff8211156145cd576145cc61431e565b5b6145d682614069565b9050602081019050919050565b60006145f66145f1846145b2565b61437e565b90508281526020810184848401111561461257614611614319565b5b61461d8482856143ca565b509392505050565b600082601f83011261463a57614639614314565b5b813561464a8482602086016145e3565b91505092915050565b6000806000806080858703121561466d5761466c613f21565b5b600061467b878288016141a1565b945050602061468c878288016141a1565b935050604061469d878288016140ec565b925050606085013567ffffffffffffffff8111156146be576146bd613f26565b5b6146ca87828801614625565b91505092959194509250565b600080604083850312156146ed576146ec613f21565b5b60006146fb858286016140ec565b925050602061470c858286016140ec565b9150509250929050565b6000806040838503121561472d5761472c613f21565b5b600061473b858286016141a1565b925050602061474c858286016141a1565b9150509250929050565b7f4e487b7100000000000000000000000000000000000000000000000000000000600052602260045260246000fd5b6000600282049050600182168061479d57607f821691505b602082108114156147b1576147b0614756565b5b50919050565b7f4552433732313a20617070726f76656420717565727920666f72206e6f6e657860008201527f697374656e7420746f6b656e0000000000000000000000000000000000000000602082015250565b6000614813602c83614025565b915061481e826147b7565b604082019050919050565b6000602082019050818103600083015261484281614806565b9050919050565b7f4552433732313a20617070726f76616c20746f2063757272656e74206f776e6560008201527f7200000000000000000000000000000000000000000000000000000000000000602082015250565b60006148a5602183614025565b91506148b082614849565b604082019050919050565b600060208201905081810360008301526148d481614898565b9050919050565b7f4552433732313a20617070726f76652063616c6c6572206973206e6f74206f7760008201527f6e6572206e6f7220617070726f76656420666f7220616c6c0000000000000000602082015250565b6000614937603883614025565b9150614942826148db565b604082019050919050565b600060208201905081810360008301526149668161492a565b9050919050565b7f5468697320746f6b656e20494420646f6573206e6f7420657869737400000000600082015250565b60006149a3601c83614025565b91506149ae8261496d565b602082019050919050565b600060208201905081810360008301526149d281614996565b9050919050565b7f43616c6c6572206973206e6f7420616e206f776e657200000000000000000000600082015250565b6000614a0f601683614025565b9150614a1a826149d9565b602082019050919050565b60006020820190508181036000830152614a3e81614a02565b9050919050565b7f41646472657373206973206e6f7420616e206f776e6572000000000000000000600082015250565b6000614a7b601783614025565b9150614a8682614a45565b602082019050919050565b60006020820190508181036000830152614aaa81614a6e565b9050919050565b7f4e487b7100000000000000000000000000000000000000000000000000000000600052603260045260246000fd5b7f4e487b7100000000000000000000000000000000000000000000000000000000600052601160045260246000fd5b6000614b1a82613fe6565b9150614b2583613fe6565b925082821015614b3857614b37614ae0565b5b828203905092915050565b6000614b4e82613fe6565b9150614b5983613fe6565b9250827fffffffffffffffffffffffffffffffffffffffffffffffffffffffffffffffff03821115614b8e57614b8d614ae0565b5b828201905092915050565b6000614ba482613fe6565b91507fffffffffffffffffffffffffffffffffffffffffffffffffffffffffffffffff821415614bd757614bd6614ae0565b5b600182019050919050565b7f4e487b7100000000000000000000000000000000000000000000000000000000600052603160045260246000fd5b7f4552433732313a207472616e736665722063616c6c6572206973206e6f74206f60008201527f776e6572206e6f7220617070726f766564000000000000000000000000000000602082015250565b6000614c6d603183614025565b9150614c7882614c11565b604082019050919050565b60006020820190508181036000830152614c9c81614c60565b9050919050565b7f455243373231456e756d657261626c653a206f776e657220696e646578206f7560008201527f74206f6620626f756e6473000000000000000000000000000000000000000000602082015250565b6000614cff602b83614025565b9150614d0a82614ca3565b604082019050919050565b60006020820190508181036000830152614d2e81614cf2565b9050919050565b7f436f6e7472616374207061757365640000000000000000000000000000000000600082015250565b6000614d6b600f83614025565b9150614d7682614d35565b602082019050919050565b60006020820190508181036000830152614d9a81614d5e565b9050919050565b7f53656e64657220646f6573206e6f74206f776e207468697320746f6b656e0000600082015250565b6000614dd7601e83614025565b9150614de282614da1565b602082019050919050565b60006020820190508181036000830152614e0681614dca565b9050919050565b600081519050614e1c816140d5565b92915050565b600060208284031215614e3857614e37613f21565b5b6000614e4684828501614e0d565b91505092915050565b7f4e6f7420656e6f7567682062616c616e636520746f2077697468647261770000600082015250565b6000614e85601e83614025565b9150614e9082614e4f565b602082019050919050565b60006020820190508181036000830152614eb481614e78565b9050919050565b6000606082019050614ed06000830186614160565b614edd6020830185614160565b614eea6040830184613ff0565b949350505050565b600081519050614f01816142bb565b92915050565b600060208284031215614f1d57614f1c613f21565b5b6000614f2b84828501614ef2565b91505092915050565b6000606082019050614f496000830186614160565b614f566020830185613ff0565b614f636040830184613ff0565b949350505050565b7f4d617820737570706c7920686173206265656e20726561636865640000000000600082015250565b6000614fa1601b83614025565b9150614fac82614f6b565b602082019050919050565b60006020820190508181036000830152614fd081614f94565b9050919050565b7f4d6178206d696e7420657863656564656420666f72207468697320616464726560008201527f7373000000000000000000000000000000000000000000000000000000000000602082015250565b6000615033602283614025565b915061503e82614fd7565b604082019050919050565b6000602082019050818103600083015261506281615026565b9050919050565b7f54686973206d696e7420776f756c642065786365656420737570706c7920636160008201527f7000000000000000000000000000000000000000000000000000000000000000602082015250565b60006150c5602183614025565b91506150d082615069565b604082019050919050565b600060208201905081810360008301526150f4816150b8565b9050919050565b600061510682613fe6565b915061511183613fe6565b9250817fffffffffffffffffffffffffffffffffffffffffffffffffffffffffffffffff048311821515161561514a57615149614ae0565b5b828202905092915050565b7f546f6b656e2062616c616e636520746f6f206c6f770000000000000000000000600082015250565b600061518b601583614025565b915061519682615155565b602082019050919050565b600060208201905081810360008301526151ba8161517e565b9050919050565b60006040820190506151d66000830185614160565b6151e36020830184614160565b9392505050565b7f4e6f7420656e6f75676820616c6c6f77616e6365000000000000000000000000600082015250565b6000615220601483614025565b915061522b826151ea565b602082019050919050565b6000602082019050818103600083015261524f81615213565b9050919050565b7f455243373231456e756d657261626c653a20676c6f62616c20696e646578206f60008201527f7574206f6620626f756e64730000000000000000000000000000000000000000602082015250565b60006152b2602c83614025565b91506152bd82615256565b604082019050919050565b600060208201905081810360008301526152e1816152a5565b9050919050565b7f4552433732313a206f776e657220717565727920666f72206e6f6e657869737460008201527f656e7420746f6b656e0000000000000000000000000000000000000000000000602082015250565b6000615344602983614025565b915061534f826152e8565b604082019050919050565b6000602082019050818103600083015261537381615337565b9050919050565b7f4552433732313a2062616c616e636520717565727920666f7220746865207a6560008201527f726f206164647265737300000000000000000000000000000000000000000000602082015250565b60006153d6602a83614025565b91506153e18261537a565b604082019050919050565b60006020820190508181036000830152615405816153c9565b9050919050565b7f4e487b7100000000000000000000000000000000000000000000000000000000600052601260045260246000fd5b600061544682613fe6565b915061545183613fe6565b9250826154615761546061540c565b5b828204905092915050565b7f54686973204e465420697320616c7265616479206d6178206c6576656c000000600082015250565b60006154a2601d83614025565b91506154ad8261546c565b602082019050919050565b600060208201905081810360008301526154d181615495565b9050919050565b7f4552433732313a206f70657261746f7220717565727920666f72206e6f6e657860008201527f697374656e7420746f6b656e0000000000000000000000000000000000000000602082015250565b6000615534602c83614025565b915061553f826154d8565b604082019050919050565b6000602082019050818103600083015261556381615527565b9050919050565b7f4552433732313a207472616e73666572206f6620746f6b656e2074686174206960008201527f73206e6f74206f776e0000000000000000000000000000000000000000000000602082015250565b60006155c6602983614025565b91506155d18261556a565b604082019050919050565b600060208201905081810360008301526155f5816155b9565b9050919050565b7f4552433732313a207472616e7366657220746f20746865207a65726f2061646460008201527f7265737300000000000000000000000000000000000000000000000000000000602082015250565b6000615658602483614025565b9150615663826155fc565b604082019050919050565b600060208201905081810360008301526156878161564b565b9050919050565b600081905092915050565b7f6c6576656c3d0000000000000000000000000000000000000000000000000000600082015250565b60006156cf60068361568e565b91506156da82615699565b600682019050919050565b60006156f08261401a565b6156fa818561568e565b935061570a818560208601614036565b80840191505092915050565b7f266269727468446174653d000000000000000000000000000000000000000000600082015250565b600061574c600b8361568e565b915061575782615716565b600b82019050919050565b7f266c6f636b6564416d6f756e743d000000000000000000000000000000000000600082015250565b6000615798600e8361568e565b91506157a382615762565b600e82019050919050565b60006157b9826156c2565b91506157c582866156e5565b91506157d08261573f565b91506157dc82856156e5565b91506157e78261578b565b91506157f382846156e5565b9150819050949350505050565b7f4552433732313a20617070726f766520746f2063616c6c657200000000000000600082015250565b6000615836601983614025565b915061584182615800565b602082019050919050565b6000602082019050818103600083015261586581615829565b9050919050565b7f4552433732313a207472616e7366657220746f206e6f6e20455243373231526560008201527f63656976657220696d706c656d656e7465720000000000000000000000000000602082015250565b60006158c8603283614025565b91506158d38261586c565b604082019050919050565b600060208201905081810360008301526158f7816158bb565b9050919050565b7f45524337323155524953746f726167653a2055524920717565727920666f722060008201527f6e6f6e6578697374656e7420746f6b656e000000000000000000000000000000602082015250565b600061595a603183614025565b9150615965826158fe565b604082019050919050565b600060208201905081810360008301526159898161594d565b9050919050565b600061599c82856156e5565b91506159a882846156e5565b91508190509392505050565b60006159bf82613fe6565b91506159ca83613fe6565b9250826159da576159d961540c565b5b828206905092915050565b7f45524337323155524953746f726167653a2055524920736574206f66206e6f6e60008201527f6578697374656e7420746f6b656e000000000000000000000000000000000000602082015250565b6000615a41602e83614025565b9150615a4c826159e5565b604082019050919050565b60006020820190508181036000830152615a7081615a34565b9050919050565b600081519050919050565b600082825260208201905092915050565b6000615a9e82615a77565b615aa88185615a82565b9350615ab8818560208601614036565b615ac181614069565b840191505092915050565b6000608082019050615ae16000830187614160565b615aee6020830186614160565b615afb6040830185613ff0565b8181036060830152615b0d8184615a93565b905095945050505050565b600081519050615b2781613f57565b92915050565b600060208284031215615b4357615b42613f21565b5b6000615b5184828501615b18565b91505092915050565b7f4552433732314d657461646174613a2055524920717565727920666f72206e6f60008201527f6e6578697374656e7420746f6b656e0000000000000000000000000000000000602082015250565b6000615bb6602f83614025565b9150615bc182615b5a565b604082019050919050565b60006020820190508181036000830152615be581615ba9565b9050919050565b7f4552433732313a206d696e7420746f20746865207a65726f2061646472657373600082015250565b6000615c22602083614025565b9150615c2d82615bec565b602082019050919050565b60006020820190508181036000830152615c5181615c15565b9050919050565b7f4552433732313a20746f6b656e20616c7265616479206d696e74656400000000600082015250565b6000615c8e601c83614025565b9150615c9982615c58565b602082019050919050565b60006020820190508181036000830152615cbd81615c81565b905091905056fea2646970667358221220074ff368f648214dc491aa3e74ed851b3cc4b92fea91a7ff85099b62a3b5c10364736f6c634300080b003368747470733a2f2f736c696d656b65657065722d7765622d6465762e6865726f6b756170702e636f6d2f6170692f6e66742f646174613f",
  "immutableReferences": {},
  "source": "// SPDX-License-Identifier: MIT\n\npragma solidity ^0.8.11;\n\nimport \"./PauseOwners.sol\";\nimport \"./Token.sol\";\nimport \"@openzeppelin/contracts/token/ERC721/ERC721.sol\";\nimport \"@openzeppelin/contracts/token/ERC721/extensions/ERC721Enumerable.sol\";\nimport \"@openzeppelin/contracts/token/ERC721/extensions/ERC721URIStorage.sol\";\nimport \"@openzeppelin/contracts/utils/Counters.sol\";\nimport \"@openzeppelin/contracts/utils/Strings.sol\";\n\ncontract NFT is ERC721, ERC721Enumerable, ERC721URIStorage, PauseOwners {\n\tusing Counters for Counters.Counter;\n\tusing Strings for uint256;\n\n\tevent Minted(address minter, uint256 amount, uint256 date);\n\tevent Compounded(address compounder, uint256 amount, uint256 date);\n\tevent Claimed(address claimer, uint256 amount, uint256 date);\n\n\tuint256 public addressMax = 5; // Max NFTs per address\n\tuint256 public supplyMax = 1000; // Max total supply cap\n\tuint256 public mintPrice = 1000; // Mint price of one NFT in tokens\n\tuint256 public maxTokenLevel = 10; // Amount of levels an individual NFT can be upgraded\n\tuint256 public tokensPerLevel = 1000; // Amount of tokens needed to upgrade an NFT (one level)\n\tuint256 public baseRewardDivisor = 10; // Helper to reduce/increase rewards\n\tuint256 public levelRewardDivisor = 2; // Another helper to chance the impact of token level on reward generation\n\tmapping(uint256 => NFTData) public nftData; // Store NFT Data for invidividual token\n\n\tToken private token; // ERC20 token\n\tstring private nftBaseURI =\n\t\t\"https://slimekeeper-web-dev.herokuapp.com/api/nft/data?\";\n\tmapping(address => uint256) private amountMinted;\n\tCounters.Counter private tokenIds;\n\n\t// Represents in-game properties\n\tstruct NFTData {\n\t\tuint256 level; // Current level of NFT\n\t\tuint256 birthDate; // Date this NFT was minted\n\t\tuint256 lockedAmount; // Amount of tokens currently locked in this NFT\n\t\tuint256 lastClaimedDate; // Date last rewards were last claimed, if not claimed once, same as birth\n\n\t\t// Other in-game properties here and API configured to show them\n\t}\n\n\tconstructor() ERC721(\"NFT\", \"NFT\") {}\n\n\tfunction mint(address to, uint256 amount) public checkPaused {\n\t\trequire(totalSupply() < supplyMax, \"Max supply has been reached\");\n\t\trequire(\n\t\t\tamountMinted[to] + amount <= addressMax,\n\t\t\t\"Max mint exceeded for this address\"\n\t\t);\n\t\trequire(\n\t\t\tamountMinted[to] + amount <= supplyMax,\n\t\t\t\"This mint would exceed supply cap\"\n\t\t);\n\t\tuint256 totalMintPrice = (amount * mintPrice) * (10**18);\n\t\trequire(token.balanceOf(to) >= totalMintPrice, \"Token balance too low\");\n\t\trequire(\n\t\t\ttoken.allowance(to, address(this)) >= totalMintPrice,\n\t\t\t\"Not enough allowance\"\n\t\t);\n\t\tuint256 birthDate = block.timestamp;\n\t\tfor (uint256 i = 0; i < amount; i++) {\n\t\t\tuint256 currTokenId = tokenIds.current();\n\t\t\t_safeMint(to, currTokenId);\n\t\t\tupdateTokenUri(currTokenId, birthDate, 1, 0);\n\t\t\tnftData[currTokenId] = NFTData({\n\t\t\t\tlevel: 1,\n\t\t\t\tbirthDate: birthDate,\n\t\t\t\tlockedAmount: 0,\n\t\t\t\tlastClaimedDate: birthDate\n\t\t\t});\n\t\t\ttokenIds.increment();\n\t\t}\n\t\tamountMinted[to] += amount;\n\t\ttoken.transferFrom(to, address(this), totalMintPrice);\n\t\temit Minted(to, amount, birthDate);\n\t}\n\n\tfunction compound(uint256 tokenId, uint256 amount) public checkPaused {\n\t\tuint256 tokenAmount = amount * (10**18);\n\t\trequire(\n\t\t\ttoken.balanceOf(msg.sender) >= tokenAmount,\n\t\t\t\"Token balance too low\"\n\t\t);\n\t\trequire(\n\t\t\ttoken.allowance(msg.sender, address(this)) >= tokenAmount,\n\t\t\t\"Not enough allowance\"\n\t\t);\n\t\tclaim(tokenId); // Claim before compounding\n\t\tNFTData storage data = nftData[tokenId];\n\t\trequire(data.level < maxTokenLevel, \"This NFT is already max level\");\n\t\tuint256 tokensPerLevelTotal = tokensPerLevel * (10**18);\n\t\tuint256 newLocked = data.lockedAmount + tokenAmount;\n\t\tuint256 newLevel = newLocked / tokensPerLevelTotal;\n\t\tuint256 excessAmount = 0;\n\t\tif (newLevel >= maxTokenLevel) {\n\t\t\texcessAmount = newLocked - (maxTokenLevel * tokensPerLevelTotal);\n\t\t\tdata.level = maxTokenLevel;\n\t\t\tdata.lockedAmount = newLocked - excessAmount;\n\t\t} else {\n\t\t\tdata.lockedAmount = newLocked;\n\t\t\tdata.level = newLevel;\n\t\t}\n\t\tupdateTokenUri(tokenId, data.level, data.birthDate, data.lockedAmount);\n\t\ttoken.transferFrom(\n\t\t\tmsg.sender,\n\t\t\taddress(this),\n\t\t\ttokenAmount - excessAmount\n\t\t);\n\t\temit Compounded(msg.sender, tokenAmount, block.timestamp);\n\t}\n\n\tfunction claim(uint256 tokenId) public checkPaused {\n\t\trequire(_exists(tokenId), \"This token ID does not exist\");\n\t\trequire(\n\t\t\townerOf(tokenId) == msg.sender,\n\t\t\t\"Sender does not own this token\"\n\t\t);\n\t\tNFTData storage data = nftData[tokenId];\n\t\tuint256 rewardAmount = reward(tokenId);\n\t\tdata.lastClaimedDate = block.timestamp;\n\t\trequire(\n\t\t\ttoken.balanceOf(address(this)) >= rewardAmount,\n\t\t\t\"Not enough balance to withdraw\"\n\t\t);\n\t\ttoken.transferFrom(address(this), msg.sender, rewardAmount);\n\t\temit Claimed(msg.sender, rewardAmount, block.timestamp);\n\t}\n\n\tfunction reward(uint256 tokenId) public view returns (uint256) {\n\t\trequire(_exists(tokenId), \"This token ID does not exist\");\n\t\tNFTData storage data = nftData[tokenId];\n\t\treturn\n\t\t\t(((block.timestamp - data.lastClaimedDate) / baseRewardDivisor) *\n\t\t\t\t(data.level / levelRewardDivisor)) * (10**18);\n\t}\n\n\tfunction getNFTData(uint256 tokenId)\n\t\texternal\n\t\tview\n\t\treturns (\n\t\t\tuint256,\n\t\t\tuint256,\n\t\t\tuint256,\n\t\t\tuint256\n\t\t)\n\t{\n\t\trequire(_exists(tokenId), \"This token ID does not exist\");\n\t\tNFTData storage data = nftData[tokenId];\n\t\treturn (\n\t\t\tdata.level,\n\t\t\tdata.birthDate,\n\t\t\tdata.lockedAmount,\n\t\t\tdata.lastClaimedDate\n\t\t);\n\t}\n\n\tfunction setAddressMax(uint256 newMax) external onlyOwners {\n\t\taddressMax = newMax;\n\t}\n\n\tfunction setSupplyMax(uint256 newMax) external onlyOwners {\n\t\tsupplyMax = newMax;\n\t}\n\n\tfunction setMintPrice(uint256 newPrice) external onlyOwners {\n\t\tmintPrice = newPrice;\n\t}\n\n\tfunction setMaxTokenLevel(uint256 newLevel) external onlyOwners {\n\t\tmintPrice = newLevel;\n\t}\n\n\tfunction setTokensPerLevel(uint256 newTokensPerLevel) external onlyOwners {\n\t\ttokensPerLevel = newTokensPerLevel;\n\t}\n\n\tfunction setbaseRewardDivisor(uint256 newbaseRewardDivisor)\n\t\texternal\n\t\tonlyOwners\n\t{\n\t\tbaseRewardDivisor = newbaseRewardDivisor;\n\t}\n\n\tfunction setTokenAddress(address newTokenAddress) external onlyOwners {\n\t\ttoken = Token(newTokenAddress);\n\t}\n\n\tfunction setBaseUri(string memory newBaseURI) external onlyOwners {\n\t\tnftBaseURI = newBaseURI;\n\t}\n\n\tfunction totalSupply() public view override returns (uint256) {\n\t\treturn tokenIds.current();\n\t}\n\n\tfunction _baseURI() internal view override returns (string memory) {\n\t\treturn nftBaseURI;\n\t}\n\n\tfunction updateTokenUri(\n\t\tuint256 tokenId,\n\t\tuint256 level,\n\t\tuint256 birthDate,\n\t\tuint256 lockedAmount\n\t) private {\n\t\t_setTokenURI(\n\t\t\ttokenId,\n\t\t\tstring(\n\t\t\t\tabi.encodePacked(\n\t\t\t\t\t\"level=\",\n\t\t\t\t\tlevel.toString(),\n\t\t\t\t\t\"&birthDate=\",\n\t\t\t\t\tbirthDate.toString(),\n\t\t\t\t\t\"&lockedAmount=\",\n\t\t\t\t\tlockedAmount.toString()\n\t\t\t\t)\n\t\t\t)\n\t\t);\n\t}\n\n\t// The following functions are overrides required by Solidity.\n\tfunction _beforeTokenTransfer(\n\t\taddress from,\n\t\taddress to,\n\t\tuint256 tokenId\n\t) internal override(ERC721, ERC721Enumerable) {\n\t\tsuper._beforeTokenTransfer(from, to, tokenId);\n\t}\n\n\tfunction _burn(uint256 tokenId)\n\t\tinternal\n\t\toverride(ERC721, ERC721URIStorage)\n\t{\n\t\tsuper._burn(tokenId);\n\t}\n\n\tfunction tokenURI(uint256 tokenId)\n\t\tpublic\n\t\tview\n\t\toverride(ERC721, ERC721URIStorage)\n\t\treturns (string memory)\n\t{\n\t\treturn super.tokenURI(tokenId);\n\t}\n\n\tfunction supportsInterface(bytes4 interfaceId)\n\t\tpublic\n\t\tview\n\t\toverride(ERC721, ERC721Enumerable)\n\t\treturns (bool)\n\t{\n\t\treturn super.supportsInterface(interfaceId);\n\t}\n}\n",
  "sourcePath": "C:\\Users\\sants\\Desktop\\slimekeeper\\slimekeeper_contracts\\contracts\\NFT.sol",
  "compiler": {
    "name": "solc",
    "version": "0.8.11+commit.d7f03943.Emscripten.clang"
  },
  "schemaVersion": "3.4.4",
  "updatedAt": "2022-02-12T23:11:28.289Z",
  "networkType": "ethereum",
  "devdoc": {
    "kind": "dev",
    "methods": {
      "approve(address,uint256)": {
        "details": "See {IERC721-approve}."
      },
      "balanceOf(address)": {
        "details": "See {IERC721-balanceOf}."
      },
      "getApproved(uint256)": {
        "details": "See {IERC721-getApproved}."
      },
      "isApprovedForAll(address,address)": {
        "details": "See {IERC721-isApprovedForAll}."
      },
      "name()": {
        "details": "See {IERC721Metadata-name}."
      },
      "ownerOf(uint256)": {
        "details": "See {IERC721-ownerOf}."
      },
      "safeTransferFrom(address,address,uint256)": {
        "details": "See {IERC721-safeTransferFrom}."
      },
      "safeTransferFrom(address,address,uint256,bytes)": {
        "details": "See {IERC721-safeTransferFrom}."
      },
      "setApprovalForAll(address,bool)": {
        "details": "See {IERC721-setApprovalForAll}."
      },
      "symbol()": {
        "details": "See {IERC721Metadata-symbol}."
      },
      "tokenByIndex(uint256)": {
        "details": "See {IERC721Enumerable-tokenByIndex}."
      },
      "tokenOfOwnerByIndex(address,uint256)": {
        "details": "See {IERC721Enumerable-tokenOfOwnerByIndex}."
      },
      "totalSupply()": {
        "details": "See {IERC721Enumerable-totalSupply}."
      },
      "transferFrom(address,address,uint256)": {
        "details": "See {IERC721-transferFrom}."
      }
    },
    "version": 1
  },
  "userdoc": {
    "kind": "user",
    "methods": {},
    "version": 1
  }
}