{
  "contractName": "NFT",
  "abi": [
    {
      "inputs": [],
      "stateMutability": "nonpayable",
      "type": "constructor"
    },
    {
      "anonymous": false,
      "inputs": [
        {
          "indexed": true,
          "internalType": "address",
          "name": "owner",
          "type": "address"
        },
        {
          "indexed": true,
          "internalType": "address",
          "name": "approved",
          "type": "address"
        },
        {
          "indexed": true,
          "internalType": "uint256",
          "name": "tokenId",
          "type": "uint256"
        }
      ],
      "name": "Approval",
      "type": "event"
    },
    {
      "anonymous": false,
      "inputs": [
        {
          "indexed": true,
          "internalType": "address",
          "name": "owner",
          "type": "address"
        },
        {
          "indexed": true,
          "internalType": "address",
          "name": "operator",
          "type": "address"
        },
        {
          "indexed": false,
          "internalType": "bool",
          "name": "approved",
          "type": "bool"
        }
      ],
      "name": "ApprovalForAll",
      "type": "event"
    },
    {
      "anonymous": false,
      "inputs": [
        {
          "indexed": false,
          "internalType": "address",
          "name": "claimer",
          "type": "address"
        },
        {
          "indexed": false,
          "internalType": "uint256",
          "name": "amount",
          "type": "uint256"
        },
        {
          "indexed": false,
          "internalType": "uint256",
          "name": "date",
          "type": "uint256"
        }
      ],
      "name": "Claimed",
      "type": "event"
    },
    {
      "anonymous": false,
      "inputs": [
        {
          "indexed": false,
          "internalType": "address",
          "name": "compounder",
          "type": "address"
        },
        {
          "indexed": false,
          "internalType": "uint256",
          "name": "amount",
          "type": "uint256"
        },
        {
          "indexed": false,
          "internalType": "uint256",
          "name": "date",
          "type": "uint256"
        }
      ],
      "name": "Compounded",
      "type": "event"
    },
    {
      "anonymous": false,
      "inputs": [
        {
          "indexed": false,
          "internalType": "address",
          "name": "minter",
          "type": "address"
        },
        {
          "indexed": false,
          "internalType": "uint256",
          "name": "amount",
          "type": "uint256"
        },
        {
          "indexed": false,
          "internalType": "uint256",
          "name": "date",
          "type": "uint256"
        }
      ],
      "name": "Minted",
      "type": "event"
    },
    {
      "anonymous": false,
      "inputs": [
        {
          "indexed": true,
          "internalType": "address",
          "name": "adder",
          "type": "address"
        },
        {
          "indexed": true,
          "internalType": "address",
          "name": "owner",
          "type": "address"
        },
        {
          "indexed": true,
          "internalType": "uint256",
          "name": "timestamp",
          "type": "uint256"
        }
      ],
      "name": "OwnerAdded",
      "type": "event"
    },
    {
      "anonymous": false,
      "inputs": [
        {
          "indexed": true,
          "internalType": "address",
          "name": "remover",
          "type": "address"
        },
        {
          "indexed": true,
          "internalType": "address",
          "name": "removed",
          "type": "address"
        },
        {
          "indexed": true,
          "internalType": "uint256",
          "name": "timestamp",
          "type": "uint256"
        }
      ],
      "name": "OwnerRemoved",
      "type": "event"
    },
    {
      "anonymous": false,
      "inputs": [],
      "name": "OwnershipRenounced",
      "type": "event"
    },
    {
      "anonymous": false,
      "inputs": [
        {
          "indexed": true,
          "internalType": "address",
          "name": "from",
          "type": "address"
        },
        {
          "indexed": true,
          "internalType": "address",
          "name": "to",
          "type": "address"
        },
        {
          "indexed": true,
          "internalType": "uint256",
          "name": "tokenId",
          "type": "uint256"
        }
      ],
      "name": "Transfer",
      "type": "event"
    },
    {
      "inputs": [
        {
          "internalType": "address",
          "name": "owner",
          "type": "address"
        }
      ],
      "name": "addOwner",
      "outputs": [],
      "stateMutability": "nonpayable",
      "type": "function"
    },
    {
      "inputs": [],
      "name": "addressMax",
      "outputs": [
        {
          "internalType": "uint256",
          "name": "",
          "type": "uint256"
        }
      ],
      "stateMutability": "view",
      "type": "function"
    },
    {
      "inputs": [
        {
          "internalType": "address",
          "name": "to",
          "type": "address"
        },
        {
          "internalType": "uint256",
          "name": "tokenId",
          "type": "uint256"
        }
      ],
      "name": "approve",
      "outputs": [],
      "stateMutability": "nonpayable",
      "type": "function"
    },
    {
      "inputs": [
        {
          "internalType": "address",
          "name": "owner",
          "type": "address"
        }
      ],
      "name": "balanceOf",
      "outputs": [
        {
          "internalType": "uint256",
          "name": "",
          "type": "uint256"
        }
      ],
      "stateMutability": "view",
      "type": "function"
    },
    {
      "inputs": [
        {
          "internalType": "uint256",
          "name": "tokenId",
          "type": "uint256"
        }
      ],
      "name": "getApproved",
      "outputs": [
        {
          "internalType": "address",
          "name": "",
          "type": "address"
        }
      ],
      "stateMutability": "view",
      "type": "function"
    },
    {
      "inputs": [],
      "name": "getOwners",
      "outputs": [
        {
          "internalType": "address[]",
          "name": "",
          "type": "address[]"
        }
      ],
      "stateMutability": "view",
      "type": "function"
    },
    {
      "inputs": [
        {
          "internalType": "address",
          "name": "owner",
          "type": "address"
        },
        {
          "internalType": "address",
          "name": "operator",
          "type": "address"
        }
      ],
      "name": "isApprovedForAll",
      "outputs": [
        {
          "internalType": "bool",
          "name": "",
          "type": "bool"
        }
      ],
      "stateMutability": "view",
      "type": "function"
    },
    {
      "inputs": [
        {
          "internalType": "address",
          "name": "owner",
          "type": "address"
        }
      ],
      "name": "isOwner",
      "outputs": [
        {
          "internalType": "bool",
          "name": "",
          "type": "bool"
        }
      ],
      "stateMutability": "view",
      "type": "function"
    },
    {
      "inputs": [],
      "name": "isPaused",
      "outputs": [
        {
          "internalType": "bool",
          "name": "",
          "type": "bool"
        }
      ],
      "stateMutability": "view",
      "type": "function"
    },
    {
      "inputs": [],
      "name": "maxTokenLevel",
      "outputs": [
        {
          "internalType": "uint256",
          "name": "",
          "type": "uint256"
        }
      ],
      "stateMutability": "view",
      "type": "function"
    },
    {
      "inputs": [],
      "name": "mintPrice",
      "outputs": [
        {
          "internalType": "uint256",
          "name": "",
          "type": "uint256"
        }
      ],
      "stateMutability": "view",
      "type": "function"
    },
    {
      "inputs": [],
      "name": "name",
      "outputs": [
        {
          "internalType": "string",
          "name": "",
          "type": "string"
        }
      ],
      "stateMutability": "view",
      "type": "function"
    },
    {
      "inputs": [
        {
          "internalType": "uint256",
          "name": "tokenId",
          "type": "uint256"
        }
      ],
      "name": "ownerOf",
      "outputs": [
        {
          "internalType": "address",
          "name": "",
          "type": "address"
        }
      ],
      "stateMutability": "view",
      "type": "function"
    },
    {
      "inputs": [
        {
          "internalType": "address",
          "name": "owner",
          "type": "address"
        }
      ],
      "name": "removeOwner",
      "outputs": [],
      "stateMutability": "nonpayable",
      "type": "function"
    },
    {
      "inputs": [],
      "name": "renounceOwnership",
      "outputs": [],
      "stateMutability": "nonpayable",
      "type": "function"
    },
    {
      "inputs": [],
      "name": "renounced",
      "outputs": [
        {
          "internalType": "bool",
          "name": "",
          "type": "bool"
        }
      ],
      "stateMutability": "view",
      "type": "function"
    },
    {
      "inputs": [],
      "name": "rewardDivisor",
      "outputs": [
        {
          "internalType": "uint256",
          "name": "",
          "type": "uint256"
        }
      ],
      "stateMutability": "view",
      "type": "function"
    },
    {
      "inputs": [
        {
          "internalType": "address",
          "name": "from",
          "type": "address"
        },
        {
          "internalType": "address",
          "name": "to",
          "type": "address"
        },
        {
          "internalType": "uint256",
          "name": "tokenId",
          "type": "uint256"
        }
      ],
      "name": "safeTransferFrom",
      "outputs": [],
      "stateMutability": "nonpayable",
      "type": "function"
    },
    {
      "inputs": [
        {
          "internalType": "address",
          "name": "from",
          "type": "address"
        },
        {
          "internalType": "address",
          "name": "to",
          "type": "address"
        },
        {
          "internalType": "uint256",
          "name": "tokenId",
          "type": "uint256"
        },
        {
          "internalType": "bytes",
          "name": "_data",
          "type": "bytes"
        }
      ],
      "name": "safeTransferFrom",
      "outputs": [],
      "stateMutability": "nonpayable",
      "type": "function"
    },
    {
      "inputs": [
        {
          "internalType": "address",
          "name": "operator",
          "type": "address"
        },
        {
          "internalType": "bool",
          "name": "approved",
          "type": "bool"
        }
      ],
      "name": "setApprovalForAll",
      "outputs": [],
      "stateMutability": "nonpayable",
      "type": "function"
    },
    {
      "inputs": [
        {
          "internalType": "bool",
          "name": "isPaused_",
          "type": "bool"
        }
      ],
      "name": "setIsPaused",
      "outputs": [],
      "stateMutability": "nonpayable",
      "type": "function"
    },
    {
      "inputs": [],
      "name": "supplyMax",
      "outputs": [
        {
          "internalType": "uint256",
          "name": "",
          "type": "uint256"
        }
      ],
      "stateMutability": "view",
      "type": "function"
    },
    {
      "inputs": [],
      "name": "symbol",
      "outputs": [
        {
          "internalType": "string",
          "name": "",
          "type": "string"
        }
      ],
      "stateMutability": "view",
      "type": "function"
    },
    {
      "inputs": [
        {
          "internalType": "uint256",
          "name": "index",
          "type": "uint256"
        }
      ],
      "name": "tokenByIndex",
      "outputs": [
        {
          "internalType": "uint256",
          "name": "",
          "type": "uint256"
        }
      ],
      "stateMutability": "view",
      "type": "function"
    },
    {
      "inputs": [
        {
          "internalType": "address",
          "name": "owner",
          "type": "address"
        },
        {
          "internalType": "uint256",
          "name": "index",
          "type": "uint256"
        }
      ],
      "name": "tokenOfOwnerByIndex",
      "outputs": [
        {
          "internalType": "uint256",
          "name": "",
          "type": "uint256"
        }
      ],
      "stateMutability": "view",
      "type": "function"
    },
    {
      "inputs": [],
      "name": "tokensPerLevel",
      "outputs": [
        {
          "internalType": "uint256",
          "name": "",
          "type": "uint256"
        }
      ],
      "stateMutability": "view",
      "type": "function"
    },
    {
      "inputs": [
        {
          "internalType": "address",
          "name": "from",
          "type": "address"
        },
        {
          "internalType": "address",
          "name": "to",
          "type": "address"
        },
        {
          "internalType": "uint256",
          "name": "tokenId",
          "type": "uint256"
        }
      ],
      "name": "transferFrom",
      "outputs": [],
      "stateMutability": "nonpayable",
      "type": "function"
    },
    {
      "inputs": [
        {
          "internalType": "address",
          "name": "to",
          "type": "address"
        },
        {
          "internalType": "uint256",
          "name": "amount",
          "type": "uint256"
        }
      ],
      "name": "mint",
      "outputs": [],
      "stateMutability": "nonpayable",
      "type": "function"
    },
    {
      "inputs": [
        {
          "internalType": "uint256",
          "name": "tokenId",
          "type": "uint256"
        },
        {
          "internalType": "uint256",
          "name": "amountToken",
          "type": "uint256"
        }
      ],
      "name": "compound",
      "outputs": [],
      "stateMutability": "nonpayable",
      "type": "function"
    },
    {
      "inputs": [
        {
          "internalType": "uint256",
          "name": "tokenId",
          "type": "uint256"
        }
      ],
      "name": "claimReward",
      "outputs": [],
      "stateMutability": "nonpayable",
      "type": "function"
    },
    {
      "inputs": [
        {
          "internalType": "uint256",
          "name": "tokenId",
          "type": "uint256"
        }
      ],
      "name": "getReward",
      "outputs": [
        {
          "internalType": "uint256",
          "name": "",
          "type": "uint256"
        }
      ],
      "stateMutability": "view",
      "type": "function"
    },
    {
      "inputs": [
        {
          "internalType": "uint256",
          "name": "level",
          "type": "uint256"
        }
      ],
      "name": "approxAPR",
      "outputs": [
        {
          "internalType": "uint256",
          "name": "",
          "type": "uint256"
        }
      ],
      "stateMutability": "view",
      "type": "function"
    },
    {
      "inputs": [
        {
          "internalType": "uint256",
          "name": "time",
          "type": "uint256"
        },
        {
          "internalType": "uint256",
          "name": "level",
          "type": "uint256"
        }
      ],
      "name": "calculateReward",
      "outputs": [
        {
          "internalType": "uint256",
          "name": "",
          "type": "uint256"
        }
      ],
      "stateMutability": "view",
      "type": "function"
    },
    {
      "inputs": [
        {
          "internalType": "uint256",
          "name": "tokenId",
          "type": "uint256"
        }
      ],
      "name": "getNFTData",
      "outputs": [
        {
          "internalType": "uint256",
          "name": "",
          "type": "uint256"
        },
        {
          "internalType": "uint256",
          "name": "",
          "type": "uint256"
        },
        {
          "internalType": "uint256",
          "name": "",
          "type": "uint256"
        },
        {
          "internalType": "uint256",
          "name": "",
          "type": "uint256"
        }
      ],
      "stateMutability": "view",
      "type": "function"
    },
    {
      "inputs": [
        {
          "internalType": "uint256",
          "name": "newMax",
          "type": "uint256"
        }
      ],
      "name": "setAddressMax",
      "outputs": [],
      "stateMutability": "nonpayable",
      "type": "function"
    },
    {
      "inputs": [
        {
          "internalType": "uint256",
          "name": "newMax",
          "type": "uint256"
        }
      ],
      "name": "setSupplyMax",
      "outputs": [],
      "stateMutability": "nonpayable",
      "type": "function"
    },
    {
      "inputs": [
        {
          "internalType": "uint256",
          "name": "newPrice",
          "type": "uint256"
        }
      ],
      "name": "setMintPrice",
      "outputs": [],
      "stateMutability": "nonpayable",
      "type": "function"
    },
    {
      "inputs": [
        {
          "internalType": "uint256",
          "name": "newLevel",
          "type": "uint256"
        }
      ],
      "name": "setMaxTokenLevel",
      "outputs": [],
      "stateMutability": "nonpayable",
      "type": "function"
    },
    {
      "inputs": [
        {
          "internalType": "uint256",
          "name": "newTokensPerLevel",
          "type": "uint256"
        }
      ],
      "name": "setTokensPerLevel",
      "outputs": [],
      "stateMutability": "nonpayable",
      "type": "function"
    },
    {
      "inputs": [
        {
          "internalType": "uint256",
          "name": "newRewardDivisor",
          "type": "uint256"
        }
      ],
      "name": "setRewardDivisor",
      "outputs": [],
      "stateMutability": "nonpayable",
      "type": "function"
    },
    {
      "inputs": [
        {
          "internalType": "address",
          "name": "tokenAddress_",
          "type": "address"
        }
      ],
      "name": "setTokenAddress",
      "outputs": [],
      "stateMutability": "nonpayable",
      "type": "function"
    },
    {
      "inputs": [
        {
          "internalType": "string",
          "name": "newBaseURI",
          "type": "string"
        }
      ],
      "name": "setBaseUri",
      "outputs": [],
      "stateMutability": "nonpayable",
      "type": "function"
    },
    {
      "inputs": [],
      "name": "totalSupply",
      "outputs": [
        {
          "internalType": "uint256",
          "name": "",
          "type": "uint256"
        }
      ],
      "stateMutability": "view",
      "type": "function"
    },
    {
      "inputs": [
        {
          "internalType": "uint256",
          "name": "tokenId",
          "type": "uint256"
        }
      ],
      "name": "tokenURI",
      "outputs": [
        {
          "internalType": "string",
          "name": "",
          "type": "string"
        }
      ],
      "stateMutability": "view",
      "type": "function"
    },
    {
      "inputs": [
        {
          "internalType": "bytes4",
          "name": "interfaceId",
          "type": "bytes4"
        }
      ],
      "name": "supportsInterface",
      "outputs": [
        {
          "internalType": "bool",
          "name": "",
          "type": "bool"
        }
      ],
      "stateMutability": "view",
      "type": "function"
    }
  ],
  "bytecode": "0x6005600f556103e860105560646011819055600a601255601355632920908060145560e0604052603760808181529062003be160a03980516200004b916017916020909101906200018b565b503480156200005957600080fd5b5060408051808201825260038082526213919560ea1b60208084018281528551808701909652928552840152815191929162000098916000916200018b565b508051620000ae9060019060208401906200018b565b505050336200010e5760405162461bcd60e51b815260206004820152602260248201527f43616e277420696e697469616c697a652077697468207a65726f206164647265604482015261737360f01b606482015260840160405180910390fd5b600b8054610100600160a81b031916336101008102919091179091556000818152600c60205260408120805460ff19166001908117909155600d805491820181559091527fd7b6990105719101dabeb77144f2a3385c8033acd3af97e9423a695e81ad1eb50180546001600160a01b03191690911790556200026e565b828054620001999062000231565b90600052602060002090601f016020900481019282620001bd576000855562000208565b82601f10620001d857805160ff191683800117855562000208565b8280016001018555821562000208579182015b8281111562000208578251825591602001919060010190620001eb565b50620002169291506200021a565b5090565b5b808211156200021657600081556001016200021b565b600181811c908216806200024657607f821691505b602082108114156200026857634e487b7160e01b600052602260045260246000fd5b50919050565b613963806200027e6000396000f3fe608060405234801561001057600080fd5b506004361061027f5760003560e01c80636817c76c1161015c578063aa29c331116100ce578063bff1208d11610087578063bff1208d1461058a578063c87b56dd1461059d578063d232c220146105b0578063e985e9c5146105bd578063f49c87e7146105f9578063f4a0a5281461051e57600080fd5b8063aa29c3311461051e578063aae64f8614610531578063ae169a5014610544578063b187bd2614610557578063b1de420214610564578063b88d4fde1461057757600080fd5b806396636fe11161012057806396636fe1146104be578063a0bcfc7f146104c7578063a0e67e2b146104da578063a1a7a423146104ef578063a22cb465146104f8578063a3db11051461050b57600080fd5b80636817c76c1461047f5780637065cb481461048857806370a082311461049b578063715018a6146104ae57806395d89b41146104b657600080fd5b80631c4b774b116101f55780632f745c59116101b95780632f745c591461041757806331bcbaed1461042a57806340c10f191461043357806342842e0e146104465780634f6ccce7146104595780636352211e1461046c57600080fd5b80631c4b774b1461039f57806323b872dd146103b2578063240976bf146103c557806326a4e8d2146103d85780632f54bf6e146103eb57600080fd5b80630ad4c4f4116102475780630ad4c4f4146103185780630cef1fbf1461034b57806313ed08461461035e5780631632070c14610371578063173825d91461038457806318160ddd1461039757600080fd5b806301ffc9a71461028457806304e27582146102ac57806306fdde03146102c3578063081812fc146102d8578063095ea7b314610303575b600080fd5b6102976102923660046130f0565b610602565b60405190151581526020015b60405180910390f35b6102b560105481565b6040519081526020016102a3565b6102cb610613565b6040516102a39190613165565b6102eb6102e6366004613178565b6106a5565b6040516001600160a01b0390911681526020016102a3565b6103166103113660046131ad565b610732565b005b61032b610326366004613178565b610848565b6040805194855260208501939093529183015260608201526080016102a3565b610316610359366004613178565b6108cf565b6102b561036c3660046131d7565b610926565b61031661037f366004613178565b6109c8565b6103166103923660046131f9565b610a1f565b6102b5610d1f565b6102b56103ad366004613178565b610d2f565b6103166103c0366004613214565b610db8565b6103166103d336600461325e565b610de9565b6103166103e63660046131f9565b610e4e565b6102976103f93660046131f9565b6001600160a01b03166000908152600c602052604090205460ff1690565b6102b56104253660046131ad565b610ec2565b6102b560135481565b6103166104413660046131ad565b610f58565b610316610454366004613214565b6114c0565b6102b5610467366004613178565b6114db565b6102eb61047a366004613178565b61156e565b6102b560115481565b6103166104963660046131f9565b6115e5565b6102b56104a93660046131f9565b6116c8565b61031661174f565b6102cb6117f7565b6102b5600f5481565b6103166104d5366004613307565b611806565b6104e261186f565b6040516102a39190613350565b6102b560125481565b61031661050636600461339d565b6118d0565b610316610519366004613178565b6118db565b61031661052c366004613178565b611932565b6102b561053f366004613178565b611989565b610316610552366004613178565b611a1a565b600e546102979060ff1681565b610316610572366004613178565b611d72565b6103166105853660046133d4565b611dc9565b6103166105983660046131d7565b611e01565b6102cb6105ab366004613178565b6122be565b600b546102979060ff1681565b6102976105cb366004613450565b6001600160a01b03918216600090815260056020908152604080832093909416825291909152205460ff1690565b6102b560145481565b600061060d826122c9565b92915050565b60606000805461062290613483565b80601f016020809104026020016040519081016040528092919081815260200182805461064e90613483565b801561069b5780601f106106705761010080835404028352916020019161069b565b820191906000526020600020905b81548152906001019060200180831161067e57829003601f168201915b5050505050905090565b60006106b0826122ee565b6107165760405162461bcd60e51b815260206004820152602c60248201527f4552433732313a20617070726f76656420717565727920666f72206e6f6e657860448201526b34b9ba32b73a103a37b5b2b760a11b60648201526084015b60405180910390fd5b506000908152600460205260409020546001600160a01b031690565b600061073d8261156e565b9050806001600160a01b0316836001600160a01b031614156107ab5760405162461bcd60e51b815260206004820152602160248201527f4552433732313a20617070726f76616c20746f2063757272656e74206f776e656044820152603960f91b606482015260840161070d565b336001600160a01b03821614806107c757506107c781336105cb565b6108395760405162461bcd60e51b815260206004820152603860248201527f4552433732313a20617070726f76652063616c6c6572206973206e6f74206f7760448201527f6e6572206e6f7220617070726f76656420666f7220616c6c0000000000000000606482015260840161070d565b610843838361230b565b505050565b600080600080610857856122ee565b6108a35760405162461bcd60e51b815260206004820152601c60248201527f5468697320746f6b656e20494420646f6573206e6f7420657869737400000000604482015260640161070d565b505050600091825250601960205260409020805460018201546002830154600390930154919390929190565b600b5460ff16156108f25760405162461bcd60e51b815260040161070d906134be565b336000908152600c602052604090205460ff166109215760405162461bcd60e51b815260040161070d906134eb565b601055565b601454601554604080516318160ddd60e01b81529051600093926001600160a01b0316916318160ddd9160048083019260209291908290030181865afa158015610974573d6000803e3d6000fd5b505050506040513d601f19601f82011682018060405250810190610998919061351b565b6109a384600161354a565b6109ad9086613562565b6109b79190613562565b6109c19190613597565b9392505050565b600b5460ff16156109eb5760405162461bcd60e51b815260040161070d906134be565b336000908152600c602052604090205460ff16610a1a5760405162461bcd60e51b815260040161070d906134eb565b601455565b600b5460ff1615610a425760405162461bcd60e51b815260040161070d906134be565b336000908152600c602052604090205460ff16610a715760405162461bcd60e51b815260040161070d906134eb565b6001600160a01b0381166000908152600c602052604090205460ff16610ad95760405162461bcd60e51b815260206004820152601760248201527f41646472657373206973206e6f7420616e206f776e6572000000000000000000604482015260640161070d565b600b5461010090046001600160a01b0316331415610b395760405162461bcd60e51b815260206004820152601d60248201527f4d6173746572206f776e65722063616e27742062652072656d6f766564000000604482015260640161070d565b600d5460005b600d54811015610cc057826001600160a01b0316600d8281548110610b6657610b666135ab565b6000918252602090912001546001600160a01b03161415610cae576001600160a01b0383166000908152600c60205260409020805460ff19169055805b600d54610bb2906001906135c1565b811015610c3d57600d610bc683600161354a565b81548110610bd657610bd66135ab565b600091825260209091200154600d80546001600160a01b039092169184908110610c0257610c026135ab565b600091825260209091200180546001600160a01b0319166001600160a01b039290921691909117905580610c35816135d8565b915050610ba3565b50600d805480610c4f57610c4f6135f3565b600082815260208120820160001990810180546001600160a01b031916905590910190915560405142916001600160a01b0386169133917fecc5dd9888b87e7ed252d66b9c086ab819de6c8f8b96c8e5458e105bacfbb02791a4610cc0565b80610cb8816135d8565b915050610b3f565b50600d548181106108435760405162461bcd60e51b8152602060048201526024808201527f536f6d657468696e672077656e742077726f6e672072656d6f76696e67206f776044820152636e65727360e01b606482015260840161070d565b6000610d2a60165490565b905090565b6000610d3a826122ee565b610d805760405162461bcd60e51b8152602060048201526017602482015276151bdad95b88125108191bd95cc81b9bdd08195e1a5cdd604a1b604482015260640161070d565b60008281526019602052604081206003810154909190610da090426135c1565b9050610db0818360000154610926565b949350505050565b610dc23382612379565b610dde5760405162461bcd60e51b815260040161070d90613609565b61084383838361245f565b600b5460ff1615610e0c5760405162461bcd60e51b815260040161070d906134be565b336000908152600c602052604090205460ff16610e3b5760405162461bcd60e51b815260040161070d906134eb565b600e805460ff1916911515919091179055565b600b5460ff1615610e715760405162461bcd60e51b815260040161070d906134be565b336000908152600c602052604090205460ff16610ea05760405162461bcd60e51b815260040161070d906134eb565b601580546001600160a01b0319166001600160a01b0392909216919091179055565b6000610ecd836116c8565b8210610f2f5760405162461bcd60e51b815260206004820152602b60248201527f455243373231456e756d657261626c653a206f776e657220696e646578206f7560448201526a74206f6620626f756e647360a81b606482015260840161070d565b506001600160a01b03919091166000908152600660209081526040808320938352929052205490565b336000818152600c602052604090205460ff16610f9257600e5460ff1615610f925760405162461bcd60e51b815260040161070d9061365a565b601054610f9d610d1f565b10610fea5760405162461bcd60e51b815260206004820152601b60248201527f4d617820737570706c7920686173206265656e20726561636865640000000000604482015260640161070d565b600f546001600160a01b03841660009081526018602052604090205461101190849061354a565b111561106a5760405162461bcd60e51b815260206004820152602260248201527f4d6178206d696e7420657863656564656420666f722074686973206164647265604482015261737360f01b606482015260840161070d565b6010546001600160a01b03841660009081526018602052604090205461109190849061354a565b11156110e95760405162461bcd60e51b815260206004820152602160248201527f54686973206d696e7420776f756c642065786365656420737570706c792063616044820152600760fc1b606482015260840161070d565b6015546040805163313ce56760e01b815290516000926001600160a01b03169163313ce5679160048083019260209291908290030181865afa158015611133573d6000803e3d6000fd5b505050506040513d601f19601f820116820180604052508101906111579190613683565b61116290600a61378a565b60115461116f9085613562565b6111799190613562565b6015546040516370a0823160e01b815233600482015291925082916001600160a01b03909116906370a0823190602401602060405180830381865afa1580156111c6573d6000803e3d6000fd5b505050506040513d601f19601f820116820180604052508101906111ea919061351b565b10156112305760405162461bcd60e51b8152602060048201526015602482015274546f6b656e2062616c616e636520746f6f206c6f7760581b604482015260640161070d565b601554604051636eb1769f60e11b815233600482015230602482015282916001600160a01b03169063dd62ed3e90604401602060405180830381865afa15801561127e573d6000803e3d6000fd5b505050506040513d601f19601f820116820180604052508101906112a2919061351b565b10156112e75760405162461bcd60e51b81526020600482015260146024820152734e6f7420656e6f75676820616c6c6f77616e636560601b604482015260640161070d565b4260005b848110156113835760006112fe60165490565b905061130a8782612606565b611318818460016000612620565b6040805160808101825260008082526020808301878152838501838152606085018981528785526019909352949092209251835590516001830155915160028201559051600390910155611370601680546001019055565b508061137b816135d8565b9150506112eb565b506001600160a01b038516600090815260186020526040812080548692906113ac90849061354a565b90915550506015546040516323b872dd60e01b8152336004820152306024820152604481018490526001600160a01b03909116906323b872dd906064016020604051808303816000875af1158015611408573d6000803e3d6000fd5b505050506040513d601f19601f8201168201806040525081019061142c9190613799565b61146f5760405162461bcd60e51b8152602060048201526014602482015273151bdad95b881c185e5b595b9d0819985a5b195960621b604482015260640161070d565b604080516001600160a01b0387168152602081018690529081018290527f25b428dfde728ccfaddad7e29e4ac23c24ed7fd1a6e3e3f91894a9a073f5dfff9060600160405180910390a15050505050565b61084383838360405180602001604052806000815250611dc9565b60006114e660085490565b82106115495760405162461bcd60e51b815260206004820152602c60248201527f455243373231456e756d657261626c653a20676c6f62616c20696e646578206f60448201526b7574206f6620626f756e647360a01b606482015260840161070d565b6008828154811061155c5761155c6135ab565b90600052602060002001549050919050565b6000818152600260205260408120546001600160a01b03168061060d5760405162461bcd60e51b815260206004820152602960248201527f4552433732313a206f776e657220717565727920666f72206e6f6e657869737460448201526832b73a103a37b5b2b760b91b606482015260840161070d565b600b5460ff16156116085760405162461bcd60e51b815260040161070d906134be565b336000908152600c602052604090205460ff166116375760405162461bcd60e51b815260040161070d906134eb565b6001600160a01b0381166000818152600c6020526040808220805460ff19166001908117909155600d8054918201815583527fd7b6990105719101dabeb77144f2a3385c8033acd3af97e9423a695e81ad1eb50180546001600160a01b031916841790555142929133917fa0b18fca933618876351ba2ef88bf4505c184d3e55064bec0d7fe236dd706d849190a450565b60006001600160a01b0382166117335760405162461bcd60e51b815260206004820152602a60248201527f4552433732313a2062616c616e636520717565727920666f7220746865207a65604482015269726f206164647265737360b01b606482015260840161070d565b506001600160a01b031660009081526003602052604090205490565b600b5461010090046001600160a01b031633146117bf5760405162461bcd60e51b815260206004820152602860248201527f4f6e6c79206d6173746572206f776e65722063616e2072656e6f756e6365206f6044820152670776e6572736869760c41b606482015260840161070d565b600b805460ff191660011790556040517fd1f66c3d2bc1993a86be5e3d33709d98f0442381befcedd29f578b9b2506b1ce90600090a1565b60606001805461062290613483565b600b5460ff16156118295760405162461bcd60e51b815260040161070d906134be565b336000908152600c602052604090205460ff166118585760405162461bcd60e51b815260040161070d906134eb565b805161186b90601790602084019061303e565b5050565b6060600d80548060200260200160405190810160405280929190818152602001828054801561069b57602002820191906000526020600020905b81546001600160a01b031681526001909101906020018083116118a9575050505050905090565b61186b338383612665565b600b5460ff16156118fe5760405162461bcd60e51b815260040161070d906134be565b336000908152600c602052604090205460ff1661192d5760405162461bcd60e51b815260040161070d906134eb565b601355565b600b5460ff16156119555760405162461bcd60e51b815260040161070d906134be565b336000908152600c602052604090205460ff166119845760405162461bcd60e51b815260040161070d906134eb565b601155565b601554604080516318160ddd60e01b815290516000926001600160a01b0316916318160ddd9160048083019260209291908290030181865afa1580156119d3573d6000803e3d6000fd5b505050506040513d601f19601f820116820180604052508101906119f7919061351b565b611a056301e1338084610926565b611a10906064613562565b61060d9190613597565b336000818152600c602052604090205460ff16611a5457600e5460ff1615611a545760405162461bcd60e51b815260040161070d9061365a565b611a5d826122ee565b611aa35760405162461bcd60e51b8152602060048201526017602482015276151bdad95b88125108191bd95cc81b9bdd08195e1a5cdd604a1b604482015260640161070d565b33611aad8361156e565b6001600160a01b031614611b035760405162461bcd60e51b815260206004820152601e60248201527f53656e64657220646f6573206e6f74206f776e207468697320746f6b656e0000604482015260640161070d565b6000611b0e83610d2f565b9050801561084357600083815260196020526040908190204260039091015560155490516370a0823160e01b815230600482015282916001600160a01b0316906370a0823190602401602060405180830381865afa158015611b74573d6000803e3d6000fd5b505050506040513d601f19601f82011682018060405250810190611b98919061351b565b1015611bf95760405162461bcd60e51b815260206004820152602a60248201527f4e6f7420656e6f75676820636f6e747261637420746f6b656e2062616c616e636044820152696520746f20636c61696d60b01b606482015260840161070d565b60155460405163095ea7b360e01b8152306004820152602481018390526001600160a01b039091169063095ea7b3906044016020604051808303816000875af1158015611c4a573d6000803e3d6000fd5b505050506040513d601f19601f82011682018060405250810190611c6e9190613799565b506015546040516323b872dd60e01b8152306004820152336024820152604481018390526001600160a01b03909116906323b872dd906064016020604051808303816000875af1158015611cc6573d6000803e3d6000fd5b505050506040513d601f19601f82011682018060405250810190611cea9190613799565b611d2e5760405162461bcd60e51b8152602060048201526015602482015274151bdad95b881d1c985b9cd9995c8819985a5b1959605a1b604482015260640161070d565b6040805133815260208101839052428183015290517f987d620f307ff6b94d58743cb7a7509f24071586a77759b77c2d4e29f75a2f9a9181900360600190a1505050565b600b5460ff1615611d955760405162461bcd60e51b815260040161070d906134be565b336000908152600c602052604090205460ff16611dc45760405162461bcd60e51b815260040161070d906134eb565b600f55565b611dd33383612379565b611def5760405162461bcd60e51b815260040161070d90613609565b611dfb84848484612734565b50505050565b336000818152600c602052604090205460ff16611e3b57600e5460ff1615611e3b5760405162461bcd60e51b815260040161070d9061365a565b601560009054906101000a90046001600160a01b03166001600160a01b031663313ce5676040518163ffffffff1660e01b8152600401602060405180830381865afa158015611e8e573d6000803e3d6000fd5b505050506040513d601f19601f82011682018060405250810190611eb29190613683565b611ebd90600a61378a565b611ec79083613562565b6015546040516370a0823160e01b815233600482015291935083916001600160a01b03909116906370a0823190602401602060405180830381865afa158015611f14573d6000803e3d6000fd5b505050506040513d601f19601f82011682018060405250810190611f38919061351b565b1015611f7e5760405162461bcd60e51b8152602060048201526015602482015274546f6b656e2062616c616e636520746f6f206c6f7760581b604482015260640161070d565b601554604051636eb1769f60e11b815233600482015230602482015283916001600160a01b03169063dd62ed3e90604401602060405180830381865afa158015611fcc573d6000803e3d6000fd5b505050506040513d601f19601f82011682018060405250810190611ff0919061351b565b10156120355760405162461bcd60e51b81526020600482015260146024820152734e6f7420656e6f75676820616c6c6f77616e636560601b604482015260640161070d565b61203e83611a1a565b600083815260196020526040902060125481541061209e5760405162461bcd60e51b815260206004820152601d60248201527f54686973204e465420697320616c7265616479206d6178206c6576656c000000604482015260640161070d565b6015546040805163313ce56760e01b815290516000926001600160a01b03169163313ce5679160048083019260209291908290030181865afa1580156120e8573d6000803e3d6000fd5b505050506040513d601f19601f8201168201806040525081019061210c9190613683565b61211790600a61378a565b6013546121249190613562565b90506000848360020154612138919061354a565b905060006121468383613597565b90506000601254821061218657836012546121619190613562565b61216b90846135c1565b905061217781846135c1565b60028601556012548555612191565b600285018390558185555b6121a988866000015487600101548860020154612620565b60006121b582896135c1565b6015546040516323b872dd60e01b8152336004820152306024820152604481018390529192506001600160a01b0316906323b872dd906064016020604051808303816000875af115801561220d573d6000803e3d6000fd5b505050506040513d601f19601f820116820180604052508101906122319190613799565b6122745760405162461bcd60e51b8152602060048201526014602482015273151bdad95b881c185e5b595b9d0819985a5b195960621b604482015260640161070d565b6040805133815260208101839052428183015290517f820cea42e8517cf1ec6d4e9db93909255f07c45f7eb0a7c7b5a0f8bdcfc2e5bf9181900360600190a1505050505050505050565b606061060d82612767565b60006001600160e01b0319821663780e9d6360e01b148061060d575061060d826128c9565b6000908152600260205260409020546001600160a01b0316151590565b600081815260046020526040902080546001600160a01b0319166001600160a01b03841690811790915581906123408261156e565b6001600160a01b03167f8c5be1e5ebec7d5bd14f71427d1e84f3dd0314c0f7b2291e5b200ac8c7c3b92560405160405180910390a45050565b6000612384826122ee565b6123e55760405162461bcd60e51b815260206004820152602c60248201527f4552433732313a206f70657261746f7220717565727920666f72206e6f6e657860448201526b34b9ba32b73a103a37b5b2b760a11b606482015260840161070d565b60006123f08361156e565b9050806001600160a01b0316846001600160a01b0316148061242b5750836001600160a01b0316612420846106a5565b6001600160a01b0316145b80610db057506001600160a01b0380821660009081526005602090815260408083209388168352929052205460ff16610db0565b826001600160a01b03166124728261156e565b6001600160a01b0316146124d65760405162461bcd60e51b815260206004820152602560248201527f4552433732313a207472616e736665722066726f6d20696e636f72726563742060448201526437bbb732b960d91b606482015260840161070d565b6001600160a01b0382166125385760405162461bcd60e51b8152602060048201526024808201527f4552433732313a207472616e7366657220746f20746865207a65726f206164646044820152637265737360e01b606482015260840161070d565b612543838383612919565b61254e60008261230b565b6001600160a01b03831660009081526003602052604081208054600192906125779084906135c1565b90915550506001600160a01b03821660009081526003602052604081208054600192906125a590849061354a565b909155505060008181526002602052604080822080546001600160a01b0319166001600160a01b0386811691821790925591518493918716917fddf252ad1be2c89b69c2b068fc378daa952ba7f163c4a11628f55a4df523b3ef91a4505050565b61186b828260405180602001604052806000815250612924565b611dfb8461262d85612957565b61263685612957565b61263f85612957565b604051602001612651939291906137b6565b604051602081830303815290604052612a55565b816001600160a01b0316836001600160a01b031614156126c75760405162461bcd60e51b815260206004820152601960248201527f4552433732313a20617070726f766520746f2063616c6c657200000000000000604482015260640161070d565b6001600160a01b03838116600081815260056020908152604080832094871680845294825291829020805460ff191686151590811790915591519182527f17307eab39ab6107e8899845ad3d59bd9653f200f220920489ca2b5937696c31910160405180910390a3505050565b61273f84848461245f565b61274b84848484612ae0565b611dfb5760405162461bcd60e51b815260040161070d9061383e565b6060612772826122ee565b6127d85760405162461bcd60e51b815260206004820152603160248201527f45524337323155524953746f726167653a2055524920717565727920666f72206044820152703737b732bc34b9ba32b73a103a37b5b2b760791b606482015260840161070d565b6000828152600a6020526040812080546127f190613483565b80601f016020809104026020016040519081016040528092919081815260200182805461281d90613483565b801561286a5780601f1061283f5761010080835404028352916020019161286a565b820191906000526020600020905b81548152906001019060200180831161284d57829003601f168201915b50505050509050600061287b612bde565b905080516000141561288e575092915050565b8151156128c05780826040516020016128a8929190613890565b60405160208183030381529060405292505050919050565b610db084612bed565b60006001600160e01b031982166380ac58cd60e01b14806128fa57506001600160e01b03198216635b5e139f60e01b145b8061060d57506301ffc9a760e01b6001600160e01b031983161461060d565b610843838383612cb7565b61292e8383612d6f565b61293b6000848484612ae0565b6108435760405162461bcd60e51b815260040161070d9061383e565b60608161297b5750506040805180820190915260018152600360fc1b602082015290565b8160005b81156129a5578061298f816135d8565b915061299e9050600a83613597565b915061297f565b60008167ffffffffffffffff8111156129c0576129c061327b565b6040519080825280601f01601f1916602001820160405280156129ea576020820181803683370190505b5090505b8415610db0576129ff6001836135c1565b9150612a0c600a866138bf565b612a1790603061354a565b60f81b818381518110612a2c57612a2c6135ab565b60200101906001600160f81b031916908160001a905350612a4e600a86613597565b94506129ee565b612a5e826122ee565b612ac15760405162461bcd60e51b815260206004820152602e60248201527f45524337323155524953746f726167653a2055524920736574206f66206e6f6e60448201526d32bc34b9ba32b73a103a37b5b2b760911b606482015260840161070d565b6000828152600a6020908152604090912082516108439284019061303e565b60006001600160a01b0384163b15612bd357604051630a85bd0160e11b81526001600160a01b0385169063150b7a0290612b249033908990889088906004016138d3565b6020604051808303816000875af1925050508015612b5f575060408051601f3d908101601f19168201909252612b5c91810190613910565b60015b612bb9573d808015612b8d576040519150601f19603f3d011682016040523d82523d6000602084013e612b92565b606091505b508051612bb15760405162461bcd60e51b815260040161070d9061383e565b805181602001fd5b6001600160e01b031916630a85bd0160e11b149050610db0565b506001949350505050565b60606017805461062290613483565b6060612bf8826122ee565b612c5c5760405162461bcd60e51b815260206004820152602f60248201527f4552433732314d657461646174613a2055524920717565727920666f72206e6f60448201526e3732bc34b9ba32b73a103a37b5b2b760891b606482015260840161070d565b6000612c66612bde565b90506000815111612c8657604051806020016040528060008152506109c1565b80612c9084612957565b604051602001612ca1929190613890565b6040516020818303038152906040529392505050565b6001600160a01b038316612d1257612d0d81600880546000838152600960205260408120829055600182018355919091527ff3f7a9fe364faab93b216da50a3214154f22a0a2b415b23a84c8169e8b636ee30155565b612d35565b816001600160a01b0316836001600160a01b031614612d3557612d358382612eae565b6001600160a01b038216612d4c5761084381612f4b565b826001600160a01b0316826001600160a01b031614610843576108438282612ffa565b6001600160a01b038216612dc55760405162461bcd60e51b815260206004820181905260248201527f4552433732313a206d696e7420746f20746865207a65726f2061646472657373604482015260640161070d565b612dce816122ee565b15612e1b5760405162461bcd60e51b815260206004820152601c60248201527f4552433732313a20746f6b656e20616c7265616479206d696e74656400000000604482015260640161070d565b612e2760008383612919565b6001600160a01b0382166000908152600360205260408120805460019290612e5090849061354a565b909155505060008181526002602052604080822080546001600160a01b0319166001600160a01b03861690811790915590518392907fddf252ad1be2c89b69c2b068fc378daa952ba7f163c4a11628f55a4df523b3ef908290a45050565b60006001612ebb846116c8565b612ec591906135c1565b600083815260076020526040902054909150808214612f18576001600160a01b03841660009081526006602090815260408083208584528252808320548484528184208190558352600790915290208190555b5060009182526007602090815260408084208490556001600160a01b039094168352600681528383209183525290812055565b600854600090612f5d906001906135c1565b60008381526009602052604081205460088054939450909284908110612f8557612f856135ab565b906000526020600020015490508060088381548110612fa657612fa66135ab565b6000918252602080832090910192909255828152600990915260408082208490558582528120556008805480612fde57612fde6135f3565b6001900381819060005260206000200160009055905550505050565b6000613005836116c8565b6001600160a01b039093166000908152600660209081526040808320868452825280832085905593825260079052919091209190915550565b82805461304a90613483565b90600052602060002090601f01602090048101928261306c57600085556130b2565b82601f1061308557805160ff19168380011785556130b2565b828001600101855582156130b2579182015b828111156130b2578251825591602001919060010190613097565b506130be9291506130c2565b5090565b5b808211156130be57600081556001016130c3565b6001600160e01b0319811681146130ed57600080fd5b50565b60006020828403121561310257600080fd5b81356109c1816130d7565b60005b83811015613128578181015183820152602001613110565b83811115611dfb5750506000910152565b6000815180845261315181602086016020860161310d565b601f01601f19169290920160200192915050565b6020815260006109c16020830184613139565b60006020828403121561318a57600080fd5b5035919050565b80356001600160a01b03811681146131a857600080fd5b919050565b600080604083850312156131c057600080fd5b6131c983613191565b946020939093013593505050565b600080604083850312156131ea57600080fd5b50508035926020909101359150565b60006020828403121561320b57600080fd5b6109c182613191565b60008060006060848603121561322957600080fd5b61323284613191565b925061324060208501613191565b9150604084013590509250925092565b80151581146130ed57600080fd5b60006020828403121561327057600080fd5b81356109c181613250565b634e487b7160e01b600052604160045260246000fd5b600067ffffffffffffffff808411156132ac576132ac61327b565b604051601f8501601f19908116603f011681019082821181831017156132d4576132d461327b565b816040528093508581528686860111156132ed57600080fd5b858560208301376000602087830101525050509392505050565b60006020828403121561331957600080fd5b813567ffffffffffffffff81111561333057600080fd5b8201601f8101841361334157600080fd5b610db084823560208401613291565b6020808252825182820181905260009190848201906040850190845b818110156133915783516001600160a01b03168352928401929184019160010161336c565b50909695505050505050565b600080604083850312156133b057600080fd5b6133b983613191565b915060208301356133c981613250565b809150509250929050565b600080600080608085870312156133ea57600080fd5b6133f385613191565b935061340160208601613191565b925060408501359150606085013567ffffffffffffffff81111561342457600080fd5b8501601f8101871361343557600080fd5b61344487823560208401613291565b91505092959194509250565b6000806040838503121561346357600080fd5b61346c83613191565b915061347a60208401613191565b90509250929050565b600181811c9082168061349757607f821691505b602082108114156134b857634e487b7160e01b600052602260045260246000fd5b50919050565b60208082526013908201527213dddb995c9cda1a5c081c995b9bdd5b98d959606a1b604082015260600190565b60208082526016908201527521b0b63632b91034b9903737ba1030b71037bbb732b960511b604082015260600190565b60006020828403121561352d57600080fd5b5051919050565b634e487b7160e01b600052601160045260246000fd5b6000821982111561355d5761355d613534565b500190565b600081600019048311821515161561357c5761357c613534565b500290565b634e487b7160e01b600052601260045260246000fd5b6000826135a6576135a6613581565b500490565b634e487b7160e01b600052603260045260246000fd5b6000828210156135d3576135d3613534565b500390565b60006000198214156135ec576135ec613534565b5060010190565b634e487b7160e01b600052603160045260246000fd5b60208082526031908201527f4552433732313a207472616e736665722063616c6c6572206973206e6f74206f6040820152701ddb995c881b9bdc88185c1c1c9bdd9959607a1b606082015260800190565b6020808252600f908201526e10dbdb9d1c9858dd081c185d5cd959608a1b604082015260600190565b60006020828403121561369557600080fd5b815160ff811681146109c157600080fd5b600181815b808511156136e15781600019048211156136c7576136c7613534565b808516156136d457918102915b93841c93908002906136ab565b509250929050565b6000826136f85750600161060d565b816137055750600061060d565b816001811461371b576002811461372557613741565b600191505061060d565b60ff84111561373657613736613534565b50506001821b61060d565b5060208310610133831016604e8410600b8410161715613764575081810a61060d565b61376e83836136a6565b806000190482111561378257613782613534565b029392505050565b60006109c160ff8416836136e9565b6000602082840312156137ab57600080fd5b81516109c181613250565b656c6576656c3d60d01b8152600084516137d781600685016020890161310d565b6a266269727468446174653d60a81b600691840191820152845161380281601184016020890161310d565b6d266c6f636b6564416d6f756e743d60901b60119290910191820152835161383181601f84016020880161310d565b01601f0195945050505050565b60208082526032908201527f4552433732313a207472616e7366657220746f206e6f6e20455243373231526560408201527131b2b4bb32b91034b6b83632b6b2b73a32b960711b606082015260800190565b600083516138a281846020880161310d565b8351908301906138b681836020880161310d565b01949350505050565b6000826138ce576138ce613581565b500690565b6001600160a01b038581168252841660208201526040810183905260806060820181905260009061390690830184613139565b9695505050505050565b60006020828403121561392257600080fd5b81516109c1816130d756fea26469706673582212207d83cb1a5b5d7c5e9106c705e40853fd056867abf6b898acc05a3eab427ba35c64736f6c634300080b003368747470733a2f2f736c696d656b65657065722d7765622d6465762e6865726f6b756170702e636f6d2f6170692f6e66742f646174613f",
  "immutableReferences": {},
  "source": "// SPDX-License-Identifier: MIT\n\npragma solidity >=0.4.22 <0.9.0;\n\nimport \"./PauseOwners.sol\";\nimport \"./Token.sol\";\nimport \"@openzeppelin/contracts/token/ERC721/ERC721.sol\";\nimport \"@openzeppelin/contracts/token/ERC721/extensions/ERC721Enumerable.sol\";\nimport \"@openzeppelin/contracts/token/ERC721/extensions/ERC721URIStorage.sol\";\nimport \"@openzeppelin/contracts/utils/Counters.sol\";\nimport \"@openzeppelin/contracts/utils/Strings.sol\";\n\ncontract NFT is ERC721, ERC721Enumerable, ERC721URIStorage, PauseOwners {\n\tusing Counters for Counters.Counter;\n\tusing Strings for uint256;\n\n\tevent Minted(address minter, uint256 amount, uint256 date);\n\tevent Compounded(address compounder, uint256 amount, uint256 date);\n\tevent Claimed(address claimer, uint256 amount, uint256 date);\n\n\tuint256 public addressMax = 5; // Max NFTs per address\n\tuint256 public supplyMax = 1000; // Max total supply cap\n\tuint256 public mintPrice = 100; // Mint price of one NFT in tokens\n\tuint256 public maxTokenLevel = 10; // Amount of levels an individual NFT can be upgraded\n\tuint256 public tokensPerLevel = 100; // Amount of tokens needed to upgrade an NFT (one level)\n\tuint256 public rewardDivisor = 690000000; // Divisor variable for affecting token generation rate\n\n\tToken private token;\n\n\tCounters.Counter private tokenIds;\n\n\tstring private nftBaseURI =\n\t\t\"https://slimekeeper-web-dev.herokuapp.com/api/nft/data?\";\n\n\tmapping(address => uint256) private amountMinted;\n\tmapping(uint256 => NFTData) private nftData; // Store NFT Data for invidividual token\n\n\t// Represents in-game properties\n\tstruct NFTData {\n\t\tuint256 level; // Current level of NFT\n\t\tuint256 birthDate; // Date this NFT was minted\n\t\tuint256 lockedAmount; // Amount of tokens currently locked in this NFT\n\t\tuint256 lastClaimedDate; // Date last rewards were last claimed, if not claimed once, same as birth\n\n\t\t// Other in-game properties here and API configured to show them\n\t}\n\n\tconstructor() ERC721(\"NFT\", \"NFT\") {}\n\n\tfunction mint(address to, uint256 amount) public checkPaused(msg.sender) {\n\t\trequire(totalSupply() < supplyMax, \"Max supply has been reached\");\n\t\trequire(\n\t\t\tamountMinted[to] + amount <= addressMax,\n\t\t\t\"Max mint exceeded for this address\"\n\t\t);\n\t\trequire(\n\t\t\tamountMinted[to] + amount <= supplyMax,\n\t\t\t\"This mint would exceed supply cap\"\n\t\t);\n\t\tuint256 totalMintPrice = amount * mintPrice * 10**token.decimals();\n\t\trequire(\n\t\t\ttoken.balanceOf(msg.sender) >= totalMintPrice,\n\t\t\t\"Token balance too low\"\n\t\t);\n\t\trequire(\n\t\t\ttoken.allowance(msg.sender, address(this)) >= totalMintPrice,\n\t\t\t\"Not enough allowance\"\n\t\t);\n\t\tuint256 birthDate = block.timestamp;\n\t\tfor (uint256 i = 0; i < amount; i++) {\n\t\t\tuint256 currTokenId = tokenIds.current();\n\t\t\t_safeMint(to, currTokenId);\n\t\t\tupdateTokenUri(currTokenId, birthDate, 1, 0);\n\t\t\tnftData[currTokenId] = NFTData({\n\t\t\t\tlevel: 0,\n\t\t\t\tbirthDate: birthDate,\n\t\t\t\tlockedAmount: 0,\n\t\t\t\tlastClaimedDate: birthDate\n\t\t\t});\n\t\t\ttokenIds.increment();\n\t\t}\n\t\tamountMinted[to] += amount;\n\t\trequire(\n\t\t\ttoken.transferFrom(msg.sender, address(this), totalMintPrice),\n\t\t\t\"Token payment failed\"\n\t\t);\n\t\temit Minted(to, amount, birthDate);\n\t}\n\n\tfunction compound(uint256 tokenId, uint256 amountToken)\n\t\tpublic\n\t\tcheckPaused(msg.sender)\n\t{\n\t\tamountToken *= 10**token.decimals();\n\t\trequire(\n\t\t\ttoken.balanceOf(msg.sender) >= amountToken,\n\t\t\t\"Token balance too low\"\n\t\t);\n\t\trequire(\n\t\t\ttoken.allowance(msg.sender, address(this)) >= amountToken,\n\t\t\t\"Not enough allowance\"\n\t\t);\n\t\tclaimReward(tokenId); // Claim before compounding\n\t\tNFTData storage data = nftData[tokenId];\n\t\trequire(data.level < maxTokenLevel, \"This NFT is already max level\");\n\t\tuint256 tokensPerLevelDecimals = tokensPerLevel * 10**token.decimals();\n\t\tuint256 newLocked = data.lockedAmount + amountToken;\n\t\tuint256 newLevel = newLocked / tokensPerLevelDecimals;\n\t\tuint256 excessAmount = 0;\n\t\tif (newLevel >= maxTokenLevel) {\n\t\t\texcessAmount = newLocked - (maxTokenLevel * tokensPerLevelDecimals);\n\t\t\tdata.lockedAmount = newLocked - excessAmount;\n\t\t\tdata.level = maxTokenLevel;\n\t\t} else {\n\t\t\tdata.lockedAmount = newLocked;\n\t\t\tdata.level = newLevel;\n\t\t}\n\t\tupdateTokenUri(tokenId, data.level, data.birthDate, data.lockedAmount);\n\t\tuint256 finalAmountToken = amountToken - excessAmount;\n\t\trequire(\n\t\t\ttoken.transferFrom(msg.sender, address(this), finalAmountToken),\n\t\t\t\"Token payment failed\"\n\t\t);\n\t\temit Compounded(msg.sender, finalAmountToken, block.timestamp);\n\t}\n\n\tfunction claimReward(uint256 tokenId) public checkPaused(msg.sender) {\n\t\trequire(_exists(tokenId), \"Token ID does not exist\");\n\t\trequire(\n\t\t\townerOf(tokenId) == msg.sender,\n\t\t\t\"Sender does not own this token\"\n\t\t);\n\t\tuint256 amountReward = getReward(tokenId);\n\t\tif (amountReward > 0) {\n\t\t\tnftData[tokenId].lastClaimedDate = block.timestamp;\n\t\t\trequire(\n\t\t\t\ttoken.balanceOf(address(this)) >= amountReward,\n\t\t\t\t\"Not enough contract token balance to claim\"\n\t\t\t);\n\t\t\ttoken.approve(address(this), amountReward);\n\t\t\trequire(\n\t\t\t\ttoken.transferFrom(address(this), msg.sender, amountReward),\n\t\t\t\t\"Token transfer failed\"\n\t\t\t);\n\t\t\temit Claimed(msg.sender, amountReward, block.timestamp);\n\t\t}\n\t}\n\n\tfunction getReward(uint256 tokenId) public view returns (uint256) {\n\t\trequire(_exists(tokenId), \"Token ID does not exist\");\n\t\tNFTData storage data = nftData[tokenId];\n\t\tuint256 timeSinceLastClaim = block.timestamp - data.lastClaimedDate;\n\t\treturn calculateReward(timeSinceLastClaim, data.level);\n\t}\n\n\t// Return the approximate APR considering certain level\n\tfunction approxAPR(uint256 level) external view returns (uint256) {\n\t\treturn (calculateReward(365 days, level) * 100) / token.totalSupply();\n\t}\n\n\tfunction calculateReward(uint256 time, uint256 level)\n\t\tpublic\n\t\tview\n\t\treturns (uint256)\n\t{\n\t\treturn (time * (level + 1) * token.totalSupply()) / rewardDivisor;\n\t}\n\n\tfunction getNFTData(uint256 tokenId)\n\t\texternal\n\t\tview\n\t\treturns (\n\t\t\tuint256,\n\t\t\tuint256,\n\t\t\tuint256,\n\t\t\tuint256\n\t\t)\n\t{\n\t\trequire(_exists(tokenId), \"This token ID does not exist\");\n\t\tNFTData storage data = nftData[tokenId];\n\t\treturn (\n\t\t\tdata.level,\n\t\t\tdata.birthDate,\n\t\t\tdata.lockedAmount,\n\t\t\tdata.lastClaimedDate\n\t\t);\n\t}\n\n\tfunction setAddressMax(uint256 newMax) external onlyOwners {\n\t\taddressMax = newMax;\n\t}\n\n\tfunction setSupplyMax(uint256 newMax) external onlyOwners {\n\t\tsupplyMax = newMax;\n\t}\n\n\tfunction setMintPrice(uint256 newPrice) external onlyOwners {\n\t\tmintPrice = newPrice;\n\t}\n\n\tfunction setMaxTokenLevel(uint256 newLevel) external onlyOwners {\n\t\tmintPrice = newLevel;\n\t}\n\n\tfunction setTokensPerLevel(uint256 newTokensPerLevel) external onlyOwners {\n\t\ttokensPerLevel = newTokensPerLevel;\n\t}\n\n\tfunction setRewardDivisor(uint256 newRewardDivisor) external onlyOwners {\n\t\trewardDivisor = newRewardDivisor;\n\t}\n\n\tfunction setTokenAddress(address tokenAddress_) external onlyOwners {\n\t\ttoken = Token(payable(tokenAddress_));\n\t}\n\n\tfunction setBaseUri(string memory newBaseURI) external onlyOwners {\n\t\tnftBaseURI = newBaseURI;\n\t}\n\n\tfunction totalSupply() public view override returns (uint256) {\n\t\treturn tokenIds.current();\n\t}\n\n\tfunction updateTokenUri(\n\t\tuint256 tokenId,\n\t\tuint256 level,\n\t\tuint256 birthDate,\n\t\tuint256 lockedAmount\n\t) private {\n\t\t_setTokenURI(\n\t\t\ttokenId,\n\t\t\tstring(\n\t\t\t\tabi.encodePacked(\n\t\t\t\t\t\"level=\",\n\t\t\t\t\tlevel.toString(),\n\t\t\t\t\t\"&birthDate=\",\n\t\t\t\t\tbirthDate.toString(),\n\t\t\t\t\t\"&lockedAmount=\",\n\t\t\t\t\tlockedAmount.toString()\n\t\t\t\t)\n\t\t\t)\n\t\t);\n\t}\n\n\tfunction _baseURI() internal view override returns (string memory) {\n\t\treturn nftBaseURI;\n\t}\n\n\t// The following functions are overrides required by Solidity.\n\tfunction _beforeTokenTransfer(\n\t\taddress from,\n\t\taddress to,\n\t\tuint256 tokenId\n\t) internal override(ERC721, ERC721Enumerable) {\n\t\tsuper._beforeTokenTransfer(from, to, tokenId);\n\t}\n\n\tfunction _burn(uint256 tokenId)\n\t\tinternal\n\t\toverride(ERC721, ERC721URIStorage)\n\t{\n\t\tsuper._burn(tokenId);\n\t}\n\n\tfunction tokenURI(uint256 tokenId)\n\t\tpublic\n\t\tview\n\t\toverride(ERC721, ERC721URIStorage)\n\t\treturns (string memory)\n\t{\n\t\treturn super.tokenURI(tokenId);\n\t}\n\n\tfunction supportsInterface(bytes4 interfaceId)\n\t\tpublic\n\t\tview\n\t\toverride(ERC721, ERC721Enumerable)\n\t\treturns (bool)\n\t{\n\t\treturn super.supportsInterface(interfaceId);\n\t}\n}\n",
  "sourcePath": "C:\\Users\\sants\\Desktop\\slimekeeper\\slimekeeper_contracts\\contracts\\NFT.sol",
  "compiler": {
    "name": "solc",
    "version": "0.8.11+commit.d7f03943.Emscripten.clang"
  },
  "schemaVersion": "3.4.5",
  "updatedAt": "2022-02-26T22:11:09.668Z",
  "devdoc": {
    "kind": "dev",
    "methods": {
      "approve(address,uint256)": {
        "details": "See {IERC721-approve}."
      },
      "balanceOf(address)": {
        "details": "See {IERC721-balanceOf}."
      },
      "getApproved(uint256)": {
        "details": "See {IERC721-getApproved}."
      },
      "isApprovedForAll(address,address)": {
        "details": "See {IERC721-isApprovedForAll}."
      },
      "name()": {
        "details": "See {IERC721Metadata-name}."
      },
      "ownerOf(uint256)": {
        "details": "See {IERC721-ownerOf}."
      },
      "safeTransferFrom(address,address,uint256)": {
        "details": "See {IERC721-safeTransferFrom}."
      },
      "safeTransferFrom(address,address,uint256,bytes)": {
        "details": "See {IERC721-safeTransferFrom}."
      },
      "setApprovalForAll(address,bool)": {
        "details": "See {IERC721-setApprovalForAll}."
      },
      "symbol()": {
        "details": "See {IERC721Metadata-symbol}."
      },
      "tokenByIndex(uint256)": {
        "details": "See {IERC721Enumerable-tokenByIndex}."
      },
      "tokenOfOwnerByIndex(address,uint256)": {
        "details": "See {IERC721Enumerable-tokenOfOwnerByIndex}."
      },
      "totalSupply()": {
        "details": "See {IERC721Enumerable-totalSupply}."
      },
      "transferFrom(address,address,uint256)": {
        "details": "See {IERC721-transferFrom}."
      }
    },
    "version": 1
  },
  "userdoc": {
    "kind": "user",
    "methods": {},
    "version": 1
  }
}