{
  "contractName": "NFT",
  "abi": [
    {
      "inputs": [],
      "stateMutability": "nonpayable",
      "type": "constructor"
    },
    {
      "anonymous": false,
      "inputs": [
        {
          "indexed": true,
          "internalType": "address",
          "name": "owner",
          "type": "address"
        },
        {
          "indexed": true,
          "internalType": "address",
          "name": "approved",
          "type": "address"
        },
        {
          "indexed": true,
          "internalType": "uint256",
          "name": "tokenId",
          "type": "uint256"
        }
      ],
      "name": "Approval",
      "type": "event"
    },
    {
      "anonymous": false,
      "inputs": [
        {
          "indexed": true,
          "internalType": "address",
          "name": "owner",
          "type": "address"
        },
        {
          "indexed": true,
          "internalType": "address",
          "name": "operator",
          "type": "address"
        },
        {
          "indexed": false,
          "internalType": "bool",
          "name": "approved",
          "type": "bool"
        }
      ],
      "name": "ApprovalForAll",
      "type": "event"
    },
    {
      "anonymous": false,
      "inputs": [
        {
          "indexed": false,
          "internalType": "address",
          "name": "claimer",
          "type": "address"
        },
        {
          "indexed": false,
          "internalType": "uint256",
          "name": "amount",
          "type": "uint256"
        },
        {
          "indexed": false,
          "internalType": "uint256",
          "name": "date",
          "type": "uint256"
        }
      ],
      "name": "Claimed",
      "type": "event"
    },
    {
      "anonymous": false,
      "inputs": [
        {
          "indexed": false,
          "internalType": "address",
          "name": "compounder",
          "type": "address"
        },
        {
          "indexed": false,
          "internalType": "uint256",
          "name": "amount",
          "type": "uint256"
        },
        {
          "indexed": false,
          "internalType": "uint256",
          "name": "date",
          "type": "uint256"
        }
      ],
      "name": "Compounded",
      "type": "event"
    },
    {
      "anonymous": false,
      "inputs": [
        {
          "indexed": false,
          "internalType": "address",
          "name": "minter",
          "type": "address"
        },
        {
          "indexed": false,
          "internalType": "uint256",
          "name": "amount",
          "type": "uint256"
        },
        {
          "indexed": false,
          "internalType": "uint256",
          "name": "date",
          "type": "uint256"
        }
      ],
      "name": "Minted",
      "type": "event"
    },
    {
      "anonymous": false,
      "inputs": [
        {
          "indexed": true,
          "internalType": "address",
          "name": "adder",
          "type": "address"
        },
        {
          "indexed": true,
          "internalType": "address",
          "name": "owner",
          "type": "address"
        },
        {
          "indexed": true,
          "internalType": "uint256",
          "name": "timestamp",
          "type": "uint256"
        }
      ],
      "name": "OwnerAdded",
      "type": "event"
    },
    {
      "anonymous": false,
      "inputs": [
        {
          "indexed": true,
          "internalType": "address",
          "name": "remover",
          "type": "address"
        },
        {
          "indexed": true,
          "internalType": "address",
          "name": "removed",
          "type": "address"
        },
        {
          "indexed": true,
          "internalType": "uint256",
          "name": "timestamp",
          "type": "uint256"
        }
      ],
      "name": "OwnerRemoved",
      "type": "event"
    },
    {
      "anonymous": false,
      "inputs": [],
      "name": "OwnershipRenounced",
      "type": "event"
    },
    {
      "anonymous": false,
      "inputs": [
        {
          "indexed": true,
          "internalType": "address",
          "name": "from",
          "type": "address"
        },
        {
          "indexed": true,
          "internalType": "address",
          "name": "to",
          "type": "address"
        },
        {
          "indexed": true,
          "internalType": "uint256",
          "name": "tokenId",
          "type": "uint256"
        }
      ],
      "name": "Transfer",
      "type": "event"
    },
    {
      "inputs": [
        {
          "internalType": "address",
          "name": "owner",
          "type": "address"
        }
      ],
      "name": "addOwner",
      "outputs": [],
      "stateMutability": "nonpayable",
      "type": "function"
    },
    {
      "inputs": [],
      "name": "addressMax",
      "outputs": [
        {
          "internalType": "uint256",
          "name": "",
          "type": "uint256"
        }
      ],
      "stateMutability": "view",
      "type": "function",
      "constant": true
    },
    {
      "inputs": [
        {
          "internalType": "address",
          "name": "to",
          "type": "address"
        },
        {
          "internalType": "uint256",
          "name": "tokenId",
          "type": "uint256"
        }
      ],
      "name": "approve",
      "outputs": [],
      "stateMutability": "nonpayable",
      "type": "function"
    },
    {
      "inputs": [
        {
          "internalType": "address",
          "name": "owner",
          "type": "address"
        }
      ],
      "name": "balanceOf",
      "outputs": [
        {
          "internalType": "uint256",
          "name": "",
          "type": "uint256"
        }
      ],
      "stateMutability": "view",
      "type": "function",
      "constant": true
    },
    {
      "inputs": [
        {
          "internalType": "uint256",
          "name": "tokenId",
          "type": "uint256"
        }
      ],
      "name": "getApproved",
      "outputs": [
        {
          "internalType": "address",
          "name": "",
          "type": "address"
        }
      ],
      "stateMutability": "view",
      "type": "function",
      "constant": true
    },
    {
      "inputs": [],
      "name": "getOwners",
      "outputs": [
        {
          "internalType": "address[]",
          "name": "",
          "type": "address[]"
        }
      ],
      "stateMutability": "view",
      "type": "function",
      "constant": true
    },
    {
      "inputs": [
        {
          "internalType": "address",
          "name": "owner",
          "type": "address"
        },
        {
          "internalType": "address",
          "name": "operator",
          "type": "address"
        }
      ],
      "name": "isApprovedForAll",
      "outputs": [
        {
          "internalType": "bool",
          "name": "",
          "type": "bool"
        }
      ],
      "stateMutability": "view",
      "type": "function",
      "constant": true
    },
    {
      "inputs": [
        {
          "internalType": "address",
          "name": "owner",
          "type": "address"
        }
      ],
      "name": "isOwner",
      "outputs": [
        {
          "internalType": "bool",
          "name": "",
          "type": "bool"
        }
      ],
      "stateMutability": "view",
      "type": "function",
      "constant": true
    },
    {
      "inputs": [],
      "name": "isPaused",
      "outputs": [
        {
          "internalType": "bool",
          "name": "",
          "type": "bool"
        }
      ],
      "stateMutability": "view",
      "type": "function",
      "constant": true
    },
    {
      "inputs": [],
      "name": "maxTokenLevel",
      "outputs": [
        {
          "internalType": "uint256",
          "name": "",
          "type": "uint256"
        }
      ],
      "stateMutability": "view",
      "type": "function",
      "constant": true
    },
    {
      "inputs": [],
      "name": "mintPrice",
      "outputs": [
        {
          "internalType": "uint256",
          "name": "",
          "type": "uint256"
        }
      ],
      "stateMutability": "view",
      "type": "function",
      "constant": true
    },
    {
      "inputs": [],
      "name": "name",
      "outputs": [
        {
          "internalType": "string",
          "name": "",
          "type": "string"
        }
      ],
      "stateMutability": "view",
      "type": "function",
      "constant": true
    },
    {
      "inputs": [
        {
          "internalType": "uint256",
          "name": "tokenId",
          "type": "uint256"
        }
      ],
      "name": "ownerOf",
      "outputs": [
        {
          "internalType": "address",
          "name": "",
          "type": "address"
        }
      ],
      "stateMutability": "view",
      "type": "function",
      "constant": true
    },
    {
      "inputs": [
        {
          "internalType": "address",
          "name": "owner",
          "type": "address"
        }
      ],
      "name": "removeOwner",
      "outputs": [],
      "stateMutability": "nonpayable",
      "type": "function"
    },
    {
      "inputs": [],
      "name": "renounceOwnership",
      "outputs": [],
      "stateMutability": "nonpayable",
      "type": "function"
    },
    {
      "inputs": [],
      "name": "renounced",
      "outputs": [
        {
          "internalType": "bool",
          "name": "",
          "type": "bool"
        }
      ],
      "stateMutability": "view",
      "type": "function",
      "constant": true
    },
    {
      "inputs": [],
      "name": "rewardDivisor",
      "outputs": [
        {
          "internalType": "uint256",
          "name": "",
          "type": "uint256"
        }
      ],
      "stateMutability": "view",
      "type": "function",
      "constant": true
    },
    {
      "inputs": [
        {
          "internalType": "address",
          "name": "from",
          "type": "address"
        },
        {
          "internalType": "address",
          "name": "to",
          "type": "address"
        },
        {
          "internalType": "uint256",
          "name": "tokenId",
          "type": "uint256"
        }
      ],
      "name": "safeTransferFrom",
      "outputs": [],
      "stateMutability": "nonpayable",
      "type": "function"
    },
    {
      "inputs": [
        {
          "internalType": "address",
          "name": "from",
          "type": "address"
        },
        {
          "internalType": "address",
          "name": "to",
          "type": "address"
        },
        {
          "internalType": "uint256",
          "name": "tokenId",
          "type": "uint256"
        },
        {
          "internalType": "bytes",
          "name": "_data",
          "type": "bytes"
        }
      ],
      "name": "safeTransferFrom",
      "outputs": [],
      "stateMutability": "nonpayable",
      "type": "function"
    },
    {
      "inputs": [
        {
          "internalType": "address",
          "name": "operator",
          "type": "address"
        },
        {
          "internalType": "bool",
          "name": "approved",
          "type": "bool"
        }
      ],
      "name": "setApprovalForAll",
      "outputs": [],
      "stateMutability": "nonpayable",
      "type": "function"
    },
    {
      "inputs": [
        {
          "internalType": "bool",
          "name": "isPaused_",
          "type": "bool"
        }
      ],
      "name": "setIsPaused",
      "outputs": [],
      "stateMutability": "nonpayable",
      "type": "function"
    },
    {
      "inputs": [],
      "name": "supplyMax",
      "outputs": [
        {
          "internalType": "uint256",
          "name": "",
          "type": "uint256"
        }
      ],
      "stateMutability": "view",
      "type": "function",
      "constant": true
    },
    {
      "inputs": [],
      "name": "symbol",
      "outputs": [
        {
          "internalType": "string",
          "name": "",
          "type": "string"
        }
      ],
      "stateMutability": "view",
      "type": "function",
      "constant": true
    },
    {
      "inputs": [
        {
          "internalType": "uint256",
          "name": "index",
          "type": "uint256"
        }
      ],
      "name": "tokenByIndex",
      "outputs": [
        {
          "internalType": "uint256",
          "name": "",
          "type": "uint256"
        }
      ],
      "stateMutability": "view",
      "type": "function",
      "constant": true
    },
    {
      "inputs": [
        {
          "internalType": "address",
          "name": "owner",
          "type": "address"
        },
        {
          "internalType": "uint256",
          "name": "index",
          "type": "uint256"
        }
      ],
      "name": "tokenOfOwnerByIndex",
      "outputs": [
        {
          "internalType": "uint256",
          "name": "",
          "type": "uint256"
        }
      ],
      "stateMutability": "view",
      "type": "function",
      "constant": true
    },
    {
      "inputs": [],
      "name": "tokensPerLevel",
      "outputs": [
        {
          "internalType": "uint256",
          "name": "",
          "type": "uint256"
        }
      ],
      "stateMutability": "view",
      "type": "function",
      "constant": true
    },
    {
      "inputs": [
        {
          "internalType": "address",
          "name": "from",
          "type": "address"
        },
        {
          "internalType": "address",
          "name": "to",
          "type": "address"
        },
        {
          "internalType": "uint256",
          "name": "tokenId",
          "type": "uint256"
        }
      ],
      "name": "transferFrom",
      "outputs": [],
      "stateMutability": "nonpayable",
      "type": "function"
    },
    {
      "inputs": [
        {
          "internalType": "address",
          "name": "to",
          "type": "address"
        },
        {
          "internalType": "uint256",
          "name": "amount",
          "type": "uint256"
        }
      ],
      "name": "mint",
      "outputs": [],
      "stateMutability": "nonpayable",
      "type": "function"
    },
    {
      "inputs": [
        {
          "internalType": "uint256",
          "name": "tokenId",
          "type": "uint256"
        },
        {
          "internalType": "uint256",
          "name": "amountToken",
          "type": "uint256"
        }
      ],
      "name": "compound",
      "outputs": [],
      "stateMutability": "nonpayable",
      "type": "function"
    },
    {
      "inputs": [
        {
          "internalType": "uint256",
          "name": "tokenId",
          "type": "uint256"
        }
      ],
      "name": "claimReward",
      "outputs": [],
      "stateMutability": "nonpayable",
      "type": "function"
    },
    {
      "inputs": [
        {
          "internalType": "uint256",
          "name": "tokenId",
          "type": "uint256"
        }
      ],
      "name": "getReward",
      "outputs": [
        {
          "internalType": "uint256",
          "name": "",
          "type": "uint256"
        }
      ],
      "stateMutability": "view",
      "type": "function",
      "constant": true
    },
    {
      "inputs": [
        {
          "internalType": "uint256",
          "name": "level",
          "type": "uint256"
        }
      ],
      "name": "approxAPR",
      "outputs": [
        {
          "internalType": "uint256",
          "name": "",
          "type": "uint256"
        }
      ],
      "stateMutability": "view",
      "type": "function",
      "constant": true
    },
    {
      "inputs": [
        {
          "internalType": "uint256",
          "name": "time",
          "type": "uint256"
        },
        {
          "internalType": "uint256",
          "name": "level",
          "type": "uint256"
        }
      ],
      "name": "calculateReward",
      "outputs": [
        {
          "internalType": "uint256",
          "name": "",
          "type": "uint256"
        }
      ],
      "stateMutability": "view",
      "type": "function",
      "constant": true
    },
    {
      "inputs": [
        {
          "internalType": "uint256",
          "name": "tokenId",
          "type": "uint256"
        }
      ],
      "name": "getNFTData",
      "outputs": [
        {
          "internalType": "uint256",
          "name": "",
          "type": "uint256"
        },
        {
          "internalType": "uint256",
          "name": "",
          "type": "uint256"
        },
        {
          "internalType": "uint256",
          "name": "",
          "type": "uint256"
        },
        {
          "internalType": "uint256",
          "name": "",
          "type": "uint256"
        }
      ],
      "stateMutability": "view",
      "type": "function",
      "constant": true
    },
    {
      "inputs": [
        {
          "internalType": "uint256",
          "name": "newMax",
          "type": "uint256"
        }
      ],
      "name": "setAddressMax",
      "outputs": [],
      "stateMutability": "nonpayable",
      "type": "function"
    },
    {
      "inputs": [
        {
          "internalType": "uint256",
          "name": "newMax",
          "type": "uint256"
        }
      ],
      "name": "setSupplyMax",
      "outputs": [],
      "stateMutability": "nonpayable",
      "type": "function"
    },
    {
      "inputs": [
        {
          "internalType": "uint256",
          "name": "newPrice",
          "type": "uint256"
        }
      ],
      "name": "setMintPrice",
      "outputs": [],
      "stateMutability": "nonpayable",
      "type": "function"
    },
    {
      "inputs": [
        {
          "internalType": "uint256",
          "name": "newLevel",
          "type": "uint256"
        }
      ],
      "name": "setMaxTokenLevel",
      "outputs": [],
      "stateMutability": "nonpayable",
      "type": "function"
    },
    {
      "inputs": [
        {
          "internalType": "uint256",
          "name": "newTokensPerLevel",
          "type": "uint256"
        }
      ],
      "name": "setTokensPerLevel",
      "outputs": [],
      "stateMutability": "nonpayable",
      "type": "function"
    },
    {
      "inputs": [
        {
          "internalType": "uint256",
          "name": "newRewardDivisor",
          "type": "uint256"
        }
      ],
      "name": "setRewardDivisor",
      "outputs": [],
      "stateMutability": "nonpayable",
      "type": "function"
    },
    {
      "inputs": [
        {
          "internalType": "address",
          "name": "newTokenAddress",
          "type": "address"
        }
      ],
      "name": "setTokenAddress",
      "outputs": [],
      "stateMutability": "nonpayable",
      "type": "function"
    },
    {
      "inputs": [
        {
          "internalType": "string",
          "name": "newBaseURI",
          "type": "string"
        }
      ],
      "name": "setBaseUri",
      "outputs": [],
      "stateMutability": "nonpayable",
      "type": "function"
    },
    {
      "inputs": [],
      "name": "totalSupply",
      "outputs": [
        {
          "internalType": "uint256",
          "name": "",
          "type": "uint256"
        }
      ],
      "stateMutability": "view",
      "type": "function",
      "constant": true
    },
    {
      "inputs": [
        {
          "internalType": "uint256",
          "name": "tokenId",
          "type": "uint256"
        }
      ],
      "name": "tokenURI",
      "outputs": [
        {
          "internalType": "string",
          "name": "",
          "type": "string"
        }
      ],
      "stateMutability": "view",
      "type": "function",
      "constant": true
    },
    {
      "inputs": [
        {
          "internalType": "bytes4",
          "name": "interfaceId",
          "type": "bytes4"
        }
      ],
      "name": "supportsInterface",
      "outputs": [
        {
          "internalType": "bool",
          "name": "",
          "type": "bool"
        }
      ],
      "stateMutability": "view",
      "type": "function",
      "constant": true
    }
  ],
  "bytecode": "0x6005600f556103e860105560646011819055600a601255601355632920908060145560e0604052603760808181529062003b8a60a03980516200004b916017916020909101906200018b565b503480156200005957600080fd5b5060408051808201825260038082526213919560ea1b60208084018281528551808701909652928552840152815191929162000098916000916200018b565b508051620000ae9060019060208401906200018b565b505050336200010e5760405162461bcd60e51b815260206004820152602260248201527f43616e277420696e697469616c697a652077697468207a65726f206164647265604482015261737360f01b606482015260840160405180910390fd5b600b8054610100600160a81b031916336101008102919091179091556000818152600c60205260408120805460ff19166001908117909155600d805491820181559091527fd7b6990105719101dabeb77144f2a3385c8033acd3af97e9423a695e81ad1eb50180546001600160a01b03191690911790556200026e565b828054620001999062000231565b90600052602060002090601f016020900481019282620001bd576000855562000208565b82601f10620001d857805160ff191683800117855562000208565b8280016001018555821562000208579182015b8281111562000208578251825591602001919060010190620001eb565b50620002169291506200021a565b5090565b5b808211156200021657600081556001016200021b565b600181811c908216806200024657607f821691505b602082108114156200026857634e487b7160e01b600052602260045260246000fd5b50919050565b61390c806200027e6000396000f3fe608060405234801561001057600080fd5b506004361061027f5760003560e01c80636817c76c1161015c578063aa29c331116100ce578063bff1208d11610087578063bff1208d1461058a578063c87b56dd1461059d578063d232c220146105b0578063e985e9c5146105bd578063f49c87e7146105f9578063f4a0a5281461051e57600080fd5b8063aa29c3311461051e578063aae64f8614610531578063ae169a5014610544578063b187bd2614610557578063b1de420214610564578063b88d4fde1461057757600080fd5b806396636fe11161012057806396636fe1146104be578063a0bcfc7f146104c7578063a0e67e2b146104da578063a1a7a423146104ef578063a22cb465146104f8578063a3db11051461050b57600080fd5b80636817c76c1461047f5780637065cb481461048857806370a082311461049b578063715018a6146104ae57806395d89b41146104b657600080fd5b80631c4b774b116101f55780632f745c59116101b95780632f745c591461041757806331bcbaed1461042a57806340c10f191461043357806342842e0e146104465780634f6ccce7146104595780636352211e1461046c57600080fd5b80631c4b774b1461039f57806323b872dd146103b2578063240976bf146103c557806326a4e8d2146103d85780632f54bf6e146103eb57600080fd5b80630ad4c4f4116102475780630ad4c4f4146103185780630cef1fbf1461034b57806313ed08461461035e5780631632070c14610371578063173825d91461038457806318160ddd1461039757600080fd5b806301ffc9a71461028457806304e27582146102ac57806306fdde03146102c3578063081812fc146102d8578063095ea7b314610303575b600080fd5b610297610292366004613099565b610602565b60405190151581526020015b60405180910390f35b6102b560105481565b6040519081526020016102a3565b6102cb610613565b6040516102a3919061310e565b6102eb6102e6366004613121565b6106a5565b6040516001600160a01b0390911681526020016102a3565b610316610311366004613156565b610732565b005b61032b610326366004613121565b610848565b6040805194855260208501939093529183015260608201526080016102a3565b610316610359366004613121565b6108cf565b6102b561036c366004613180565b610926565b61031661037f366004613121565b6109c8565b6103166103923660046131a2565b610a1f565b6102b5610cc0565b6102b56103ad366004613121565b610cd0565b6103166103c03660046131bd565b610d5f565b6103166103d3366004613207565b610d90565b6103166103e63660046131a2565b610df5565b6102976103f93660046131a2565b6001600160a01b03166000908152600c602052604090205460ff1690565b6102b5610425366004613156565b610e69565b6102b560135481565b610316610441366004613156565b610eff565b6103166104543660046131bd565b611467565b6102b5610467366004613121565b611482565b6102eb61047a366004613121565b611515565b6102b560115481565b6103166104963660046131a2565b61158c565b6102b56104a93660046131a2565b61166f565b6103166116f6565b6102cb61179e565b6102b5600f5481565b6103166104d53660046132b0565b6117ad565b6104e2611812565b6040516102a391906132f9565b6102b560125481565b610316610506366004613346565b611873565b610316610519366004613121565b61187e565b61031661052c366004613121565b6118d5565b6102b561053f366004613121565b61192c565b610316610552366004613121565b6119bd565b600e546102979060ff1681565b610316610572366004613121565b611d1b565b61031661058536600461337d565b611d72565b610316610598366004613180565b611daa565b6102cb6105ab366004613121565b612267565b600b546102979060ff1681565b6102976105cb3660046133f9565b6001600160a01b03918216600090815260056020908152604080832093909416825291909152205460ff1690565b6102b560145481565b600061060d82612272565b92915050565b6060600080546106229061342c565b80601f016020809104026020016040519081016040528092919081815260200182805461064e9061342c565b801561069b5780601f106106705761010080835404028352916020019161069b565b820191906000526020600020905b81548152906001019060200180831161067e57829003601f168201915b5050505050905090565b60006106b082612297565b6107165760405162461bcd60e51b815260206004820152602c60248201527f4552433732313a20617070726f76656420717565727920666f72206e6f6e657860448201526b34b9ba32b73a103a37b5b2b760a11b60648201526084015b60405180910390fd5b506000908152600460205260409020546001600160a01b031690565b600061073d82611515565b9050806001600160a01b0316836001600160a01b031614156107ab5760405162461bcd60e51b815260206004820152602160248201527f4552433732313a20617070726f76616c20746f2063757272656e74206f776e656044820152603960f91b606482015260840161070d565b336001600160a01b03821614806107c757506107c781336105cb565b6108395760405162461bcd60e51b815260206004820152603860248201527f4552433732313a20617070726f76652063616c6c6572206973206e6f74206f7760448201527f6e6572206e6f7220617070726f76656420666f7220616c6c0000000000000000606482015260840161070d565b61084383836122b4565b505050565b60008060008061085785612297565b6108a35760405162461bcd60e51b815260206004820152601c60248201527f5468697320746f6b656e20494420646f6573206e6f7420657869737400000000604482015260640161070d565b505050600091825250601960205260409020805460018201546002830154600390930154919390929190565b600b5460ff16156108f25760405162461bcd60e51b815260040161070d90613467565b336000908152600c602052604090205460ff166109215760405162461bcd60e51b815260040161070d90613494565b601055565b601454601554604080516318160ddd60e01b81529051600093926001600160a01b0316916318160ddd9160048083019260209291908290030181865afa158015610974573d6000803e3d6000fd5b505050506040513d601f19601f8201168201806040525081019061099891906134c4565b6109a38460016134f3565b6109ad908661350b565b6109b7919061350b565b6109c19190613540565b9392505050565b600b5460ff16156109eb5760405162461bcd60e51b815260040161070d90613467565b336000908152600c602052604090205460ff16610a1a5760405162461bcd60e51b815260040161070d90613494565b601455565b600b5460ff1615610a425760405162461bcd60e51b815260040161070d90613467565b336000908152600c602052604090205460ff16610a715760405162461bcd60e51b815260040161070d90613494565b6001600160a01b0381166000908152600c602052604090205460ff16610ad95760405162461bcd60e51b815260206004820152601760248201527f41646472657373206973206e6f7420616e206f776e6572000000000000000000604482015260640161070d565b600b5461010090046001600160a01b0316331415610b395760405162461bcd60e51b815260206004820152601d60248201527f4d6173746572206f776e65722063616e27742062652072656d6f766564000000604482015260640161070d565b60005b600d54811015610cbc57816001600160a01b0316600d8281548110610b6357610b63613554565b6000918252602090912001546001600160a01b03161415610caa576001600160a01b0382166000908152600c60205260409020805460ff19169055805b600d54610baf9060019061356a565b811015610c3a57600d610bc38360016134f3565b81548110610bd357610bd3613554565b600091825260209091200154600d80546001600160a01b039092169184908110610bff57610bff613554565b600091825260209091200180546001600160a01b0319166001600160a01b039290921691909117905580610c3281613581565b915050610ba0565b50600d805480610c4c57610c4c61359c565b600082815260208120820160001990810180546001600160a01b031916905590910190915560405142916001600160a01b0385169133917fecc5dd9888b87e7ed252d66b9c086ab819de6c8f8b96c8e5458e105bacfbb02791a45050565b80610cb481613581565b915050610b3c565b5050565b6000610ccb60165490565b905090565b6000610cdb82612297565b610d275760405162461bcd60e51b815260206004820152601c60248201527f5468697320746f6b656e20494420646f6573206e6f7420657869737400000000604482015260640161070d565b60008281526019602052604081206003810154909190610d47904261356a565b9050610d57818360000154610926565b949350505050565b610d693382612322565b610d855760405162461bcd60e51b815260040161070d906135b2565b610843838383612408565b600b5460ff1615610db35760405162461bcd60e51b815260040161070d90613467565b336000908152600c602052604090205460ff16610de25760405162461bcd60e51b815260040161070d90613494565b600e805460ff1916911515919091179055565b600b5460ff1615610e185760405162461bcd60e51b815260040161070d90613467565b336000908152600c602052604090205460ff16610e475760405162461bcd60e51b815260040161070d90613494565b601580546001600160a01b0319166001600160a01b0392909216919091179055565b6000610e748361166f565b8210610ed65760405162461bcd60e51b815260206004820152602b60248201527f455243373231456e756d657261626c653a206f776e657220696e646578206f7560448201526a74206f6620626f756e647360a81b606482015260840161070d565b506001600160a01b03919091166000908152600660209081526040808320938352929052205490565b336000818152600c602052604090205460ff16610f3957600e5460ff1615610f395760405162461bcd60e51b815260040161070d90613603565b601054610f44610cc0565b10610f915760405162461bcd60e51b815260206004820152601b60248201527f4d617820737570706c7920686173206265656e20726561636865640000000000604482015260640161070d565b600f546001600160a01b038416600090815260186020526040902054610fb89084906134f3565b11156110115760405162461bcd60e51b815260206004820152602260248201527f4d6178206d696e7420657863656564656420666f722074686973206164647265604482015261737360f01b606482015260840161070d565b6010546001600160a01b0384166000908152601860205260409020546110389084906134f3565b11156110905760405162461bcd60e51b815260206004820152602160248201527f54686973206d696e7420776f756c642065786365656420737570706c792063616044820152600760fc1b606482015260840161070d565b6015546040805163313ce56760e01b815290516000926001600160a01b03169163313ce5679160048083019260209291908290030181865afa1580156110da573d6000803e3d6000fd5b505050506040513d601f19601f820116820180604052508101906110fe919061362c565b61110990600a613733565b601154611116908561350b565b611120919061350b565b6015546040516370a0823160e01b815233600482015291925082916001600160a01b03909116906370a0823190602401602060405180830381865afa15801561116d573d6000803e3d6000fd5b505050506040513d601f19601f8201168201806040525081019061119191906134c4565b10156111d75760405162461bcd60e51b8152602060048201526015602482015274546f6b656e2062616c616e636520746f6f206c6f7760581b604482015260640161070d565b601554604051636eb1769f60e11b815233600482015230602482015282916001600160a01b03169063dd62ed3e90604401602060405180830381865afa158015611225573d6000803e3d6000fd5b505050506040513d601f19601f8201168201806040525081019061124991906134c4565b101561128e5760405162461bcd60e51b81526020600482015260146024820152734e6f7420656e6f75676820616c6c6f77616e636560601b604482015260640161070d565b4260005b8481101561132a5760006112a560165490565b90506112b187826125af565b6112bf8184600160006125c9565b6040805160808101825260008082526020808301878152838501838152606085018981528785526019909352949092209251835590516001830155915160028201559051600390910155611317601680546001019055565b508061132281613581565b915050611292565b506001600160a01b038516600090815260186020526040812080548692906113539084906134f3565b90915550506015546040516323b872dd60e01b8152336004820152306024820152604481018490526001600160a01b03909116906323b872dd906064016020604051808303816000875af11580156113af573d6000803e3d6000fd5b505050506040513d601f19601f820116820180604052508101906113d39190613742565b6114165760405162461bcd60e51b8152602060048201526014602482015273151bdad95b881c185e5b595b9d0819985a5b195960621b604482015260640161070d565b604080516001600160a01b0387168152602081018690529081018290527f25b428dfde728ccfaddad7e29e4ac23c24ed7fd1a6e3e3f91894a9a073f5dfff9060600160405180910390a15050505050565b61084383838360405180602001604052806000815250611d72565b600061148d60085490565b82106114f05760405162461bcd60e51b815260206004820152602c60248201527f455243373231456e756d657261626c653a20676c6f62616c20696e646578206f60448201526b7574206f6620626f756e647360a01b606482015260840161070d565b6008828154811061150357611503613554565b90600052602060002001549050919050565b6000818152600260205260408120546001600160a01b03168061060d5760405162461bcd60e51b815260206004820152602960248201527f4552433732313a206f776e657220717565727920666f72206e6f6e657869737460448201526832b73a103a37b5b2b760b91b606482015260840161070d565b600b5460ff16156115af5760405162461bcd60e51b815260040161070d90613467565b336000908152600c602052604090205460ff166115de5760405162461bcd60e51b815260040161070d90613494565b6001600160a01b0381166000818152600c6020526040808220805460ff19166001908117909155600d8054918201815583527fd7b6990105719101dabeb77144f2a3385c8033acd3af97e9423a695e81ad1eb50180546001600160a01b031916841790555142929133917fa0b18fca933618876351ba2ef88bf4505c184d3e55064bec0d7fe236dd706d849190a450565b60006001600160a01b0382166116da5760405162461bcd60e51b815260206004820152602a60248201527f4552433732313a2062616c616e636520717565727920666f7220746865207a65604482015269726f206164647265737360b01b606482015260840161070d565b506001600160a01b031660009081526003602052604090205490565b600b5461010090046001600160a01b031633146117665760405162461bcd60e51b815260206004820152602860248201527f4f6e6c79206d6173746572206f776e65722063616e2072656e6f756e6365206f6044820152670776e6572736869760c41b606482015260840161070d565b600b805460ff191660011790556040517fd1f66c3d2bc1993a86be5e3d33709d98f0442381befcedd29f578b9b2506b1ce90600090a1565b6060600180546106229061342c565b600b5460ff16156117d05760405162461bcd60e51b815260040161070d90613467565b336000908152600c602052604090205460ff166117ff5760405162461bcd60e51b815260040161070d90613494565b8051610cbc906017906020840190612fe7565b6060600d80548060200260200160405190810160405280929190818152602001828054801561069b57602002820191906000526020600020905b81546001600160a01b0316815260019091019060200180831161184c575050505050905090565b610cbc33838361260e565b600b5460ff16156118a15760405162461bcd60e51b815260040161070d90613467565b336000908152600c602052604090205460ff166118d05760405162461bcd60e51b815260040161070d90613494565b601355565b600b5460ff16156118f85760405162461bcd60e51b815260040161070d90613467565b336000908152600c602052604090205460ff166119275760405162461bcd60e51b815260040161070d90613494565b601155565b601554604080516318160ddd60e01b815290516000926001600160a01b0316916318160ddd9160048083019260209291908290030181865afa158015611976573d6000803e3d6000fd5b505050506040513d601f19601f8201168201806040525081019061199a91906134c4565b6119a86301e1338084610926565b6119b390606461350b565b61060d9190613540565b336000818152600c602052604090205460ff166119f757600e5460ff16156119f75760405162461bcd60e51b815260040161070d90613603565b611a0082612297565b611a4c5760405162461bcd60e51b815260206004820152601760248201527f546f6b656e20494420646f6573206e6f74206578697374000000000000000000604482015260640161070d565b33611a5683611515565b6001600160a01b031614611aac5760405162461bcd60e51b815260206004820152601e60248201527f53656e64657220646f6573206e6f74206f776e207468697320746f6b656e0000604482015260640161070d565b6000611ab783610cd0565b9050801561084357600083815260196020526040908190204260039091015560155490516370a0823160e01b815230600482015282916001600160a01b0316906370a0823190602401602060405180830381865afa158015611b1d573d6000803e3d6000fd5b505050506040513d601f19601f82011682018060405250810190611b4191906134c4565b1015611ba25760405162461bcd60e51b815260206004820152602a60248201527f4e6f7420656e6f75676820636f6e747261637420746f6b656e2062616c616e636044820152696520746f20636c61696d60b01b606482015260840161070d565b60155460405163095ea7b360e01b8152306004820152602481018390526001600160a01b039091169063095ea7b3906044016020604051808303816000875af1158015611bf3573d6000803e3d6000fd5b505050506040513d601f19601f82011682018060405250810190611c179190613742565b506015546040516323b872dd60e01b8152306004820152336024820152604481018390526001600160a01b03909116906323b872dd906064016020604051808303816000875af1158015611c6f573d6000803e3d6000fd5b505050506040513d601f19601f82011682018060405250810190611c939190613742565b611cd75760405162461bcd60e51b8152602060048201526015602482015274151bdad95b881d1c985b9cd9995c8819985a5b1959605a1b604482015260640161070d565b6040805133815260208101839052428183015290517f987d620f307ff6b94d58743cb7a7509f24071586a77759b77c2d4e29f75a2f9a9181900360600190a1505050565b600b5460ff1615611d3e5760405162461bcd60e51b815260040161070d90613467565b336000908152600c602052604090205460ff16611d6d5760405162461bcd60e51b815260040161070d90613494565b600f55565b611d7c3383612322565b611d985760405162461bcd60e51b815260040161070d906135b2565b611da4848484846126dd565b50505050565b336000818152600c602052604090205460ff16611de457600e5460ff1615611de45760405162461bcd60e51b815260040161070d90613603565b601560009054906101000a90046001600160a01b03166001600160a01b031663313ce5676040518163ffffffff1660e01b8152600401602060405180830381865afa158015611e37573d6000803e3d6000fd5b505050506040513d601f19601f82011682018060405250810190611e5b919061362c565b611e6690600a613733565b611e70908361350b565b6015546040516370a0823160e01b815233600482015291935083916001600160a01b03909116906370a0823190602401602060405180830381865afa158015611ebd573d6000803e3d6000fd5b505050506040513d601f19601f82011682018060405250810190611ee191906134c4565b1015611f275760405162461bcd60e51b8152602060048201526015602482015274546f6b656e2062616c616e636520746f6f206c6f7760581b604482015260640161070d565b601554604051636eb1769f60e11b815233600482015230602482015283916001600160a01b03169063dd62ed3e90604401602060405180830381865afa158015611f75573d6000803e3d6000fd5b505050506040513d601f19601f82011682018060405250810190611f9991906134c4565b1015611fde5760405162461bcd60e51b81526020600482015260146024820152734e6f7420656e6f75676820616c6c6f77616e636560601b604482015260640161070d565b611fe7836119bd565b60008381526019602052604090206012548154106120475760405162461bcd60e51b815260206004820152601d60248201527f54686973204e465420697320616c7265616479206d6178206c6576656c000000604482015260640161070d565b6015546040805163313ce56760e01b815290516000926001600160a01b03169163313ce5679160048083019260209291908290030181865afa158015612091573d6000803e3d6000fd5b505050506040513d601f19601f820116820180604052508101906120b5919061362c565b6120c090600a613733565b6013546120cd919061350b565b905060008483600201546120e191906134f3565b905060006120ef8383613540565b90506000601254821061212f578360125461210a919061350b565b612114908461356a565b9050612120818461356a565b6002860155601254855561213a565b600285018390558185555b612152888660000154876001015488600201546125c9565b600061215e828961356a565b6015546040516323b872dd60e01b8152336004820152306024820152604481018390529192506001600160a01b0316906323b872dd906064016020604051808303816000875af11580156121b6573d6000803e3d6000fd5b505050506040513d601f19601f820116820180604052508101906121da9190613742565b61221d5760405162461bcd60e51b8152602060048201526014602482015273151bdad95b881c185e5b595b9d0819985a5b195960621b604482015260640161070d565b6040805133815260208101839052428183015290517f820cea42e8517cf1ec6d4e9db93909255f07c45f7eb0a7c7b5a0f8bdcfc2e5bf9181900360600190a1505050505050505050565b606061060d82612710565b60006001600160e01b0319821663780e9d6360e01b148061060d575061060d82612872565b6000908152600260205260409020546001600160a01b0316151590565b600081815260046020526040902080546001600160a01b0319166001600160a01b03841690811790915581906122e982611515565b6001600160a01b03167f8c5be1e5ebec7d5bd14f71427d1e84f3dd0314c0f7b2291e5b200ac8c7c3b92560405160405180910390a45050565b600061232d82612297565b61238e5760405162461bcd60e51b815260206004820152602c60248201527f4552433732313a206f70657261746f7220717565727920666f72206e6f6e657860448201526b34b9ba32b73a103a37b5b2b760a11b606482015260840161070d565b600061239983611515565b9050806001600160a01b0316846001600160a01b031614806123d45750836001600160a01b03166123c9846106a5565b6001600160a01b0316145b80610d5757506001600160a01b0380821660009081526005602090815260408083209388168352929052205460ff16610d57565b826001600160a01b031661241b82611515565b6001600160a01b03161461247f5760405162461bcd60e51b815260206004820152602560248201527f4552433732313a207472616e736665722066726f6d20696e636f72726563742060448201526437bbb732b960d91b606482015260840161070d565b6001600160a01b0382166124e15760405162461bcd60e51b8152602060048201526024808201527f4552433732313a207472616e7366657220746f20746865207a65726f206164646044820152637265737360e01b606482015260840161070d565b6124ec8383836128c2565b6124f76000826122b4565b6001600160a01b038316600090815260036020526040812080546001929061252090849061356a565b90915550506001600160a01b038216600090815260036020526040812080546001929061254e9084906134f3565b909155505060008181526002602052604080822080546001600160a01b0319166001600160a01b0386811691821790925591518493918716917fddf252ad1be2c89b69c2b068fc378daa952ba7f163c4a11628f55a4df523b3ef91a4505050565b610cbc8282604051806020016040528060008152506128cd565b611da4846125d685612900565b6125df85612900565b6125e885612900565b6040516020016125fa9392919061375f565b6040516020818303038152906040526129fe565b816001600160a01b0316836001600160a01b031614156126705760405162461bcd60e51b815260206004820152601960248201527f4552433732313a20617070726f766520746f2063616c6c657200000000000000604482015260640161070d565b6001600160a01b03838116600081815260056020908152604080832094871680845294825291829020805460ff191686151590811790915591519182527f17307eab39ab6107e8899845ad3d59bd9653f200f220920489ca2b5937696c31910160405180910390a3505050565b6126e8848484612408565b6126f484848484612a89565b611da45760405162461bcd60e51b815260040161070d906137e7565b606061271b82612297565b6127815760405162461bcd60e51b815260206004820152603160248201527f45524337323155524953746f726167653a2055524920717565727920666f72206044820152703737b732bc34b9ba32b73a103a37b5b2b760791b606482015260840161070d565b6000828152600a60205260408120805461279a9061342c565b80601f01602080910402602001604051908101604052809291908181526020018280546127c69061342c565b80156128135780601f106127e857610100808354040283529160200191612813565b820191906000526020600020905b8154815290600101906020018083116127f657829003601f168201915b505050505090506000612824612b87565b9050805160001415612837575092915050565b815115612869578082604051602001612851929190613839565b60405160208183030381529060405292505050919050565b610d5784612b96565b60006001600160e01b031982166380ac58cd60e01b14806128a357506001600160e01b03198216635b5e139f60e01b145b8061060d57506301ffc9a760e01b6001600160e01b031983161461060d565b610843838383612c60565b6128d78383612d18565b6128e46000848484612a89565b6108435760405162461bcd60e51b815260040161070d906137e7565b6060816129245750506040805180820190915260018152600360fc1b602082015290565b8160005b811561294e578061293881613581565b91506129479050600a83613540565b9150612928565b60008167ffffffffffffffff81111561296957612969613224565b6040519080825280601f01601f191660200182016040528015612993576020820181803683370190505b5090505b8415610d57576129a860018361356a565b91506129b5600a86613868565b6129c09060306134f3565b60f81b8183815181106129d5576129d5613554565b60200101906001600160f81b031916908160001a9053506129f7600a86613540565b9450612997565b612a0782612297565b612a6a5760405162461bcd60e51b815260206004820152602e60248201527f45524337323155524953746f726167653a2055524920736574206f66206e6f6e60448201526d32bc34b9ba32b73a103a37b5b2b760911b606482015260840161070d565b6000828152600a60209081526040909120825161084392840190612fe7565b60006001600160a01b0384163b15612b7c57604051630a85bd0160e11b81526001600160a01b0385169063150b7a0290612acd90339089908890889060040161387c565b6020604051808303816000875af1925050508015612b08575060408051601f3d908101601f19168201909252612b05918101906138b9565b60015b612b62573d808015612b36576040519150601f19603f3d011682016040523d82523d6000602084013e612b3b565b606091505b508051612b5a5760405162461bcd60e51b815260040161070d906137e7565b805181602001fd5b6001600160e01b031916630a85bd0160e11b149050610d57565b506001949350505050565b6060601780546106229061342c565b6060612ba182612297565b612c055760405162461bcd60e51b815260206004820152602f60248201527f4552433732314d657461646174613a2055524920717565727920666f72206e6f60448201526e3732bc34b9ba32b73a103a37b5b2b760891b606482015260840161070d565b6000612c0f612b87565b90506000815111612c2f57604051806020016040528060008152506109c1565b80612c3984612900565b604051602001612c4a929190613839565b6040516020818303038152906040529392505050565b6001600160a01b038316612cbb57612cb681600880546000838152600960205260408120829055600182018355919091527ff3f7a9fe364faab93b216da50a3214154f22a0a2b415b23a84c8169e8b636ee30155565b612cde565b816001600160a01b0316836001600160a01b031614612cde57612cde8382612e57565b6001600160a01b038216612cf55761084381612ef4565b826001600160a01b0316826001600160a01b031614610843576108438282612fa3565b6001600160a01b038216612d6e5760405162461bcd60e51b815260206004820181905260248201527f4552433732313a206d696e7420746f20746865207a65726f2061646472657373604482015260640161070d565b612d7781612297565b15612dc45760405162461bcd60e51b815260206004820152601c60248201527f4552433732313a20746f6b656e20616c7265616479206d696e74656400000000604482015260640161070d565b612dd0600083836128c2565b6001600160a01b0382166000908152600360205260408120805460019290612df99084906134f3565b909155505060008181526002602052604080822080546001600160a01b0319166001600160a01b03861690811790915590518392907fddf252ad1be2c89b69c2b068fc378daa952ba7f163c4a11628f55a4df523b3ef908290a45050565b60006001612e648461166f565b612e6e919061356a565b600083815260076020526040902054909150808214612ec1576001600160a01b03841660009081526006602090815260408083208584528252808320548484528184208190558352600790915290208190555b5060009182526007602090815260408084208490556001600160a01b039094168352600681528383209183525290812055565b600854600090612f069060019061356a565b60008381526009602052604081205460088054939450909284908110612f2e57612f2e613554565b906000526020600020015490508060088381548110612f4f57612f4f613554565b6000918252602080832090910192909255828152600990915260408082208490558582528120556008805480612f8757612f8761359c565b6001900381819060005260206000200160009055905550505050565b6000612fae8361166f565b6001600160a01b039093166000908152600660209081526040808320868452825280832085905593825260079052919091209190915550565b828054612ff39061342c565b90600052602060002090601f016020900481019282613015576000855561305b565b82601f1061302e57805160ff191683800117855561305b565b8280016001018555821561305b579182015b8281111561305b578251825591602001919060010190613040565b5061306792915061306b565b5090565b5b80821115613067576000815560010161306c565b6001600160e01b03198116811461309657600080fd5b50565b6000602082840312156130ab57600080fd5b81356109c181613080565b60005b838110156130d15781810151838201526020016130b9565b83811115611da45750506000910152565b600081518084526130fa8160208601602086016130b6565b601f01601f19169290920160200192915050565b6020815260006109c160208301846130e2565b60006020828403121561313357600080fd5b5035919050565b80356001600160a01b038116811461315157600080fd5b919050565b6000806040838503121561316957600080fd5b6131728361313a565b946020939093013593505050565b6000806040838503121561319357600080fd5b50508035926020909101359150565b6000602082840312156131b457600080fd5b6109c18261313a565b6000806000606084860312156131d257600080fd5b6131db8461313a565b92506131e96020850161313a565b9150604084013590509250925092565b801515811461309657600080fd5b60006020828403121561321957600080fd5b81356109c1816131f9565b634e487b7160e01b600052604160045260246000fd5b600067ffffffffffffffff8084111561325557613255613224565b604051601f8501601f19908116603f0116810190828211818310171561327d5761327d613224565b8160405280935085815286868601111561329657600080fd5b858560208301376000602087830101525050509392505050565b6000602082840312156132c257600080fd5b813567ffffffffffffffff8111156132d957600080fd5b8201601f810184136132ea57600080fd5b610d578482356020840161323a565b6020808252825182820181905260009190848201906040850190845b8181101561333a5783516001600160a01b031683529284019291840191600101613315565b50909695505050505050565b6000806040838503121561335957600080fd5b6133628361313a565b91506020830135613372816131f9565b809150509250929050565b6000806000806080858703121561339357600080fd5b61339c8561313a565b93506133aa6020860161313a565b925060408501359150606085013567ffffffffffffffff8111156133cd57600080fd5b8501601f810187136133de57600080fd5b6133ed8782356020840161323a565b91505092959194509250565b6000806040838503121561340c57600080fd5b6134158361313a565b91506134236020840161313a565b90509250929050565b600181811c9082168061344057607f821691505b6020821081141561346157634e487b7160e01b600052602260045260246000fd5b50919050565b60208082526013908201527213dddb995c9cda1a5c081c995b9bdd5b98d959606a1b604082015260600190565b60208082526016908201527521b0b63632b91034b9903737ba1030b71037bbb732b960511b604082015260600190565b6000602082840312156134d657600080fd5b5051919050565b634e487b7160e01b600052601160045260246000fd5b60008219821115613506576135066134dd565b500190565b6000816000190483118215151615613525576135256134dd565b500290565b634e487b7160e01b600052601260045260246000fd5b60008261354f5761354f61352a565b500490565b634e487b7160e01b600052603260045260246000fd5b60008282101561357c5761357c6134dd565b500390565b6000600019821415613595576135956134dd565b5060010190565b634e487b7160e01b600052603160045260246000fd5b60208082526031908201527f4552433732313a207472616e736665722063616c6c6572206973206e6f74206f6040820152701ddb995c881b9bdc88185c1c1c9bdd9959607a1b606082015260800190565b6020808252600f908201526e10dbdb9d1c9858dd081c185d5cd959608a1b604082015260600190565b60006020828403121561363e57600080fd5b815160ff811681146109c157600080fd5b600181815b8085111561368a578160001904821115613670576136706134dd565b8085161561367d57918102915b93841c9390800290613654565b509250929050565b6000826136a15750600161060d565b816136ae5750600061060d565b81600181146136c457600281146136ce576136ea565b600191505061060d565b60ff8411156136df576136df6134dd565b50506001821b61060d565b5060208310610133831016604e8410600b841016171561370d575081810a61060d565b613717838361364f565b806000190482111561372b5761372b6134dd565b029392505050565b60006109c160ff841683613692565b60006020828403121561375457600080fd5b81516109c1816131f9565b656c6576656c3d60d01b8152600084516137808160068501602089016130b6565b6a266269727468446174653d60a81b60069184019182015284516137ab8160118401602089016130b6565b6d266c6f636b6564416d6f756e743d60901b6011929091019182015283516137da81601f8401602088016130b6565b01601f0195945050505050565b60208082526032908201527f4552433732313a207472616e7366657220746f206e6f6e20455243373231526560408201527131b2b4bb32b91034b6b83632b6b2b73a32b960711b606082015260800190565b6000835161384b8184602088016130b6565b83519083019061385f8183602088016130b6565b01949350505050565b6000826138775761387761352a565b500690565b6001600160a01b03858116825284166020820152604081018390526080606082018190526000906138af908301846130e2565b9695505050505050565b6000602082840312156138cb57600080fd5b81516109c18161308056fea2646970667358221220f1dc61b83d4b090acbe12122e6722a3cfeb98a3b681244d1c7cdb7fa945dd08b64736f6c634300080b003368747470733a2f2f736c696d656b65657065722d7765622d6465762e6865726f6b756170702e636f6d2f6170692f6e66742f646174613f",
  "immutableReferences": {},
  "source": "// SPDX-License-Identifier: MIT\n\npragma solidity >=0.4.22 <0.9.0;\n\nimport \"./PauseOwners.sol\";\nimport \"./Token.sol\";\nimport \"@openzeppelin/contracts/token/ERC721/ERC721.sol\";\nimport \"@openzeppelin/contracts/token/ERC721/extensions/ERC721Enumerable.sol\";\nimport \"@openzeppelin/contracts/token/ERC721/extensions/ERC721URIStorage.sol\";\nimport \"@openzeppelin/contracts/utils/Counters.sol\";\nimport \"@openzeppelin/contracts/utils/Strings.sol\";\n\ncontract NFT is ERC721, ERC721Enumerable, ERC721URIStorage, PauseOwners {\n\tusing Counters for Counters.Counter;\n\tusing Strings for uint256;\n\n\tevent Minted(address minter, uint256 amount, uint256 date);\n\tevent Compounded(address compounder, uint256 amount, uint256 date);\n\tevent Claimed(address claimer, uint256 amount, uint256 date);\n\n\tuint256 public addressMax = 5; // Max NFTs per address\n\tuint256 public supplyMax = 1000; // Max total supply cap\n\tuint256 public mintPrice = 100; // Mint price of one NFT in tokens\n\tuint256 public maxTokenLevel = 10; // Amount of levels an individual NFT can be upgraded\n\tuint256 public tokensPerLevel = 100; // Amount of tokens needed to upgrade an NFT (one level)\n\tuint256 public rewardDivisor = 690000000; // Divisor variable for affecting token generation rate\n\n\tToken private token;\n\n\tCounters.Counter private tokenIds;\n\n\tstring private nftBaseURI =\n\t\t\"https://slimekeeper-web-dev.herokuapp.com/api/nft/data?\";\n\n\tmapping(address => uint256) private amountMinted;\n\tmapping(uint256 => NFTData) private nftData; // Store NFT Data for invidividual token\n\n\t// Represents in-game properties\n\tstruct NFTData {\n\t\tuint256 level; // Current level of NFT\n\t\tuint256 birthDate; // Date this NFT was minted\n\t\tuint256 lockedAmount; // Amount of tokens currently locked in this NFT\n\t\tuint256 lastClaimedDate; // Date last rewards were last claimed, if not claimed once, same as birth\n\n\t\t// Other in-game properties here and API configured to show them\n\t}\n\n\tconstructor() ERC721(\"NFT\", \"NFT\") {}\n\n\tfunction mint(address to, uint256 amount) public checkPaused(msg.sender) {\n\t\trequire(totalSupply() < supplyMax, \"Max supply has been reached\");\n\t\trequire(\n\t\t\tamountMinted[to] + amount <= addressMax,\n\t\t\t\"Max mint exceeded for this address\"\n\t\t);\n\t\trequire(\n\t\t\tamountMinted[to] + amount <= supplyMax,\n\t\t\t\"This mint would exceed supply cap\"\n\t\t);\n\t\tuint256 totalMintPrice = amount * mintPrice * 10**token.decimals();\n\t\trequire(\n\t\t\ttoken.balanceOf(msg.sender) >= totalMintPrice,\n\t\t\t\"Token balance too low\"\n\t\t);\n\t\trequire(\n\t\t\ttoken.allowance(msg.sender, address(this)) >= totalMintPrice,\n\t\t\t\"Not enough allowance\"\n\t\t);\n\t\tuint256 birthDate = block.timestamp;\n\t\tfor (uint256 i = 0; i < amount; i++) {\n\t\t\tuint256 currTokenId = tokenIds.current();\n\t\t\t_safeMint(to, currTokenId);\n\t\t\tupdateTokenUri(currTokenId, birthDate, 1, 0);\n\t\t\tnftData[currTokenId] = NFTData({\n\t\t\t\tlevel: 0,\n\t\t\t\tbirthDate: birthDate,\n\t\t\t\tlockedAmount: 0,\n\t\t\t\tlastClaimedDate: birthDate\n\t\t\t});\n\t\t\ttokenIds.increment();\n\t\t}\n\t\tamountMinted[to] += amount;\n\t\trequire(\n\t\t\ttoken.transferFrom(msg.sender, address(this), totalMintPrice),\n\t\t\t\"Token payment failed\"\n\t\t);\n\t\temit Minted(to, amount, birthDate);\n\t}\n\n\tfunction compound(uint256 tokenId, uint256 amountToken)\n\t\tpublic\n\t\tcheckPaused(msg.sender)\n\t{\n\t\tamountToken *= 10**token.decimals();\n\t\trequire(\n\t\t\ttoken.balanceOf(msg.sender) >= amountToken,\n\t\t\t\"Token balance too low\"\n\t\t);\n\t\trequire(\n\t\t\ttoken.allowance(msg.sender, address(this)) >= amountToken,\n\t\t\t\"Not enough allowance\"\n\t\t);\n\t\tclaimReward(tokenId); // Claim before compounding\n\t\tNFTData storage data = nftData[tokenId];\n\t\trequire(data.level < maxTokenLevel, \"This NFT is already max level\");\n\t\tuint256 tokensPerLevelDecimals = tokensPerLevel * 10**token.decimals();\n\t\tuint256 newLocked = data.lockedAmount + amountToken;\n\t\tuint256 newLevel = newLocked / tokensPerLevelDecimals;\n\t\tuint256 excessAmount = 0;\n\t\tif (newLevel >= maxTokenLevel) {\n\t\t\texcessAmount = newLocked - (maxTokenLevel * tokensPerLevelDecimals);\n\t\t\tdata.lockedAmount = newLocked - excessAmount;\n\t\t\tdata.level = maxTokenLevel;\n\t\t} else {\n\t\t\tdata.lockedAmount = newLocked;\n\t\t\tdata.level = newLevel;\n\t\t}\n\t\tupdateTokenUri(tokenId, data.level, data.birthDate, data.lockedAmount);\n\t\tuint256 finalAmountToken = amountToken - excessAmount;\n\t\trequire(\n\t\t\ttoken.transferFrom(msg.sender, address(this), finalAmountToken),\n\t\t\t\"Token payment failed\"\n\t\t);\n\t\temit Compounded(msg.sender, finalAmountToken, block.timestamp);\n\t}\n\n\tfunction claimReward(uint256 tokenId) public checkPaused(msg.sender) {\n\t\trequire(_exists(tokenId), \"Token ID does not exist\");\n\t\trequire(\n\t\t\townerOf(tokenId) == msg.sender,\n\t\t\t\"Sender does not own this token\"\n\t\t);\n\t\tuint256 amountReward = getReward(tokenId);\n\t\tif (amountReward > 0) {\n\t\t\tnftData[tokenId].lastClaimedDate = block.timestamp;\n\t\t\trequire(\n\t\t\t\ttoken.balanceOf(address(this)) >= amountReward,\n\t\t\t\t\"Not enough contract token balance to claim\"\n\t\t\t);\n\t\t\ttoken.approve(address(this), amountReward);\n\t\t\trequire(\n\t\t\t\ttoken.transferFrom(address(this), msg.sender, amountReward),\n\t\t\t\t\"Token transfer failed\"\n\t\t\t);\n\t\t\temit Claimed(msg.sender, amountReward, block.timestamp);\n\t\t}\n\t}\n\n\tfunction getReward(uint256 tokenId) public view returns (uint256) {\n\t\trequire(_exists(tokenId), \"This token ID does not exist\");\n\t\tNFTData storage data = nftData[tokenId];\n\t\tuint256 timeSinceLastClaim = block.timestamp - data.lastClaimedDate;\n\t\treturn calculateReward(timeSinceLastClaim, data.level);\n\t}\n\n\t// Return the approximate APR considering certain level\n\tfunction approxAPR(uint256 level) external view returns (uint256) {\n\t\treturn (calculateReward(365 days, level) * 100) / token.totalSupply();\n\t}\n\n\tfunction calculateReward(uint256 time, uint256 level)\n\t\tpublic\n\t\tview\n\t\treturns (uint256)\n\t{\n\t\treturn (time * (level + 1) * token.totalSupply()) / rewardDivisor;\n\t}\n\n\tfunction getNFTData(uint256 tokenId)\n\t\texternal\n\t\tview\n\t\treturns (\n\t\t\tuint256,\n\t\t\tuint256,\n\t\t\tuint256,\n\t\t\tuint256\n\t\t)\n\t{\n\t\trequire(_exists(tokenId), \"This token ID does not exist\");\n\t\tNFTData storage data = nftData[tokenId];\n\t\treturn (\n\t\t\tdata.level,\n\t\t\tdata.birthDate,\n\t\t\tdata.lockedAmount,\n\t\t\tdata.lastClaimedDate\n\t\t);\n\t}\n\n\tfunction setAddressMax(uint256 newMax) external onlyOwners {\n\t\taddressMax = newMax;\n\t}\n\n\tfunction setSupplyMax(uint256 newMax) external onlyOwners {\n\t\tsupplyMax = newMax;\n\t}\n\n\tfunction setMintPrice(uint256 newPrice) external onlyOwners {\n\t\tmintPrice = newPrice;\n\t}\n\n\tfunction setMaxTokenLevel(uint256 newLevel) external onlyOwners {\n\t\tmintPrice = newLevel;\n\t}\n\n\tfunction setTokensPerLevel(uint256 newTokensPerLevel) external onlyOwners {\n\t\ttokensPerLevel = newTokensPerLevel;\n\t}\n\n\tfunction setRewardDivisor(uint256 newRewardDivisor) external onlyOwners {\n\t\trewardDivisor = newRewardDivisor;\n\t}\n\n\tfunction setTokenAddress(address newTokenAddress) external onlyOwners {\n\t\ttoken = Token(payable(newTokenAddress));\n\t}\n\n\tfunction setBaseUri(string memory newBaseURI) external onlyOwners {\n\t\tnftBaseURI = newBaseURI;\n\t}\n\n\tfunction totalSupply() public view override returns (uint256) {\n\t\treturn tokenIds.current();\n\t}\n\n\tfunction updateTokenUri(\n\t\tuint256 tokenId,\n\t\tuint256 level,\n\t\tuint256 birthDate,\n\t\tuint256 lockedAmount\n\t) private {\n\t\t_setTokenURI(\n\t\t\ttokenId,\n\t\t\tstring(\n\t\t\t\tabi.encodePacked(\n\t\t\t\t\t\"level=\",\n\t\t\t\t\tlevel.toString(),\n\t\t\t\t\t\"&birthDate=\",\n\t\t\t\t\tbirthDate.toString(),\n\t\t\t\t\t\"&lockedAmount=\",\n\t\t\t\t\tlockedAmount.toString()\n\t\t\t\t)\n\t\t\t)\n\t\t);\n\t}\n\n\tfunction _baseURI() internal view override returns (string memory) {\n\t\treturn nftBaseURI;\n\t}\n\n\t// The following functions are overrides required by Solidity.\n\tfunction _beforeTokenTransfer(\n\t\taddress from,\n\t\taddress to,\n\t\tuint256 tokenId\n\t) internal override(ERC721, ERC721Enumerable) {\n\t\tsuper._beforeTokenTransfer(from, to, tokenId);\n\t}\n\n\tfunction _burn(uint256 tokenId)\n\t\tinternal\n\t\toverride(ERC721, ERC721URIStorage)\n\t{\n\t\tsuper._burn(tokenId);\n\t}\n\n\tfunction tokenURI(uint256 tokenId)\n\t\tpublic\n\t\tview\n\t\toverride(ERC721, ERC721URIStorage)\n\t\treturns (string memory)\n\t{\n\t\treturn super.tokenURI(tokenId);\n\t}\n\n\tfunction supportsInterface(bytes4 interfaceId)\n\t\tpublic\n\t\tview\n\t\toverride(ERC721, ERC721Enumerable)\n\t\treturns (bool)\n\t{\n\t\treturn super.supportsInterface(interfaceId);\n\t}\n}\n",
  "sourcePath": "C:\\Users\\sants\\Desktop\\slimekeeper\\slimekeeper_contracts\\contracts\\NFT.sol",
  "compiler": {
    "name": "solc",
    "version": "0.8.11+commit.d7f03943.Emscripten.clang"
  },
  "schemaVersion": "3.4.4",
  "updatedAt": "2022-02-23T00:12:46.502Z",
  "networkType": "ethereum",
  "devdoc": {
    "kind": "dev",
    "methods": {
      "approve(address,uint256)": {
        "details": "See {IERC721-approve}."
      },
      "balanceOf(address)": {
        "details": "See {IERC721-balanceOf}."
      },
      "getApproved(uint256)": {
        "details": "See {IERC721-getApproved}."
      },
      "isApprovedForAll(address,address)": {
        "details": "See {IERC721-isApprovedForAll}."
      },
      "name()": {
        "details": "See {IERC721Metadata-name}."
      },
      "ownerOf(uint256)": {
        "details": "See {IERC721-ownerOf}."
      },
      "safeTransferFrom(address,address,uint256)": {
        "details": "See {IERC721-safeTransferFrom}."
      },
      "safeTransferFrom(address,address,uint256,bytes)": {
        "details": "See {IERC721-safeTransferFrom}."
      },
      "setApprovalForAll(address,bool)": {
        "details": "See {IERC721-setApprovalForAll}."
      },
      "symbol()": {
        "details": "See {IERC721Metadata-symbol}."
      },
      "tokenByIndex(uint256)": {
        "details": "See {IERC721Enumerable-tokenByIndex}."
      },
      "tokenOfOwnerByIndex(address,uint256)": {
        "details": "See {IERC721Enumerable-tokenOfOwnerByIndex}."
      },
      "totalSupply()": {
        "details": "See {IERC721Enumerable-totalSupply}."
      },
      "transferFrom(address,address,uint256)": {
        "details": "See {IERC721-transferFrom}."
      }
    },
    "version": 1
  },
  "userdoc": {
    "kind": "user",
    "methods": {},
    "version": 1
  }
}