{
  "contractName": "NFT",
  "abi": [
    {
      "inputs": [],
      "stateMutability": "nonpayable",
      "type": "constructor"
    },
    {
      "anonymous": false,
      "inputs": [
        {
          "indexed": true,
          "internalType": "address",
          "name": "owner",
          "type": "address"
        },
        {
          "indexed": true,
          "internalType": "address",
          "name": "approved",
          "type": "address"
        },
        {
          "indexed": true,
          "internalType": "uint256",
          "name": "tokenId",
          "type": "uint256"
        }
      ],
      "name": "Approval",
      "type": "event"
    },
    {
      "anonymous": false,
      "inputs": [
        {
          "indexed": true,
          "internalType": "address",
          "name": "owner",
          "type": "address"
        },
        {
          "indexed": true,
          "internalType": "address",
          "name": "operator",
          "type": "address"
        },
        {
          "indexed": false,
          "internalType": "bool",
          "name": "approved",
          "type": "bool"
        }
      ],
      "name": "ApprovalForAll",
      "type": "event"
    },
    {
      "anonymous": false,
      "inputs": [
        {
          "indexed": false,
          "internalType": "address",
          "name": "claimer",
          "type": "address"
        },
        {
          "indexed": false,
          "internalType": "uint256",
          "name": "amount",
          "type": "uint256"
        },
        {
          "indexed": false,
          "internalType": "uint256",
          "name": "date",
          "type": "uint256"
        }
      ],
      "name": "Claimed",
      "type": "event"
    },
    {
      "anonymous": false,
      "inputs": [
        {
          "indexed": false,
          "internalType": "address",
          "name": "compounder",
          "type": "address"
        },
        {
          "indexed": false,
          "internalType": "uint256",
          "name": "amount",
          "type": "uint256"
        },
        {
          "indexed": false,
          "internalType": "uint256",
          "name": "date",
          "type": "uint256"
        }
      ],
      "name": "Compounded",
      "type": "event"
    },
    {
      "anonymous": false,
      "inputs": [
        {
          "indexed": false,
          "internalType": "address",
          "name": "minter",
          "type": "address"
        },
        {
          "indexed": false,
          "internalType": "uint256",
          "name": "amount",
          "type": "uint256"
        },
        {
          "indexed": false,
          "internalType": "uint256",
          "name": "date",
          "type": "uint256"
        }
      ],
      "name": "Minted",
      "type": "event"
    },
    {
      "anonymous": false,
      "inputs": [
        {
          "indexed": true,
          "internalType": "address",
          "name": "adder",
          "type": "address"
        },
        {
          "indexed": true,
          "internalType": "address",
          "name": "owner",
          "type": "address"
        },
        {
          "indexed": true,
          "internalType": "uint256",
          "name": "timestamp",
          "type": "uint256"
        }
      ],
      "name": "OwnerAdded",
      "type": "event"
    },
    {
      "anonymous": false,
      "inputs": [
        {
          "indexed": true,
          "internalType": "address",
          "name": "remover",
          "type": "address"
        },
        {
          "indexed": true,
          "internalType": "address",
          "name": "removed",
          "type": "address"
        },
        {
          "indexed": true,
          "internalType": "uint256",
          "name": "timestamp",
          "type": "uint256"
        }
      ],
      "name": "OwnerRemoved",
      "type": "event"
    },
    {
      "anonymous": false,
      "inputs": [
        {
          "indexed": true,
          "internalType": "address",
          "name": "from",
          "type": "address"
        },
        {
          "indexed": true,
          "internalType": "address",
          "name": "to",
          "type": "address"
        },
        {
          "indexed": true,
          "internalType": "uint256",
          "name": "tokenId",
          "type": "uint256"
        }
      ],
      "name": "Transfer",
      "type": "event"
    },
    {
      "inputs": [
        {
          "internalType": "address",
          "name": "owner",
          "type": "address"
        }
      ],
      "name": "addOwner",
      "outputs": [],
      "stateMutability": "nonpayable",
      "type": "function"
    },
    {
      "inputs": [],
      "name": "addressMax",
      "outputs": [
        {
          "internalType": "uint256",
          "name": "",
          "type": "uint256"
        }
      ],
      "stateMutability": "view",
      "type": "function",
      "constant": true
    },
    {
      "inputs": [
        {
          "internalType": "address",
          "name": "to",
          "type": "address"
        },
        {
          "internalType": "uint256",
          "name": "tokenId",
          "type": "uint256"
        }
      ],
      "name": "approve",
      "outputs": [],
      "stateMutability": "nonpayable",
      "type": "function"
    },
    {
      "inputs": [
        {
          "internalType": "address",
          "name": "owner",
          "type": "address"
        }
      ],
      "name": "balanceOf",
      "outputs": [
        {
          "internalType": "uint256",
          "name": "",
          "type": "uint256"
        }
      ],
      "stateMutability": "view",
      "type": "function",
      "constant": true
    },
    {
      "inputs": [],
      "name": "baseRewardDivisor",
      "outputs": [
        {
          "internalType": "uint256",
          "name": "",
          "type": "uint256"
        }
      ],
      "stateMutability": "view",
      "type": "function",
      "constant": true
    },
    {
      "inputs": [
        {
          "internalType": "uint256",
          "name": "tokenId",
          "type": "uint256"
        }
      ],
      "name": "getApproved",
      "outputs": [
        {
          "internalType": "address",
          "name": "",
          "type": "address"
        }
      ],
      "stateMutability": "view",
      "type": "function",
      "constant": true
    },
    {
      "inputs": [],
      "name": "getOwners",
      "outputs": [
        {
          "internalType": "address[]",
          "name": "",
          "type": "address[]"
        }
      ],
      "stateMutability": "view",
      "type": "function",
      "constant": true
    },
    {
      "inputs": [
        {
          "internalType": "address",
          "name": "owner",
          "type": "address"
        },
        {
          "internalType": "address",
          "name": "operator",
          "type": "address"
        }
      ],
      "name": "isApprovedForAll",
      "outputs": [
        {
          "internalType": "bool",
          "name": "",
          "type": "bool"
        }
      ],
      "stateMutability": "view",
      "type": "function",
      "constant": true
    },
    {
      "inputs": [
        {
          "internalType": "address",
          "name": "owner",
          "type": "address"
        }
      ],
      "name": "isOwner",
      "outputs": [
        {
          "internalType": "bool",
          "name": "",
          "type": "bool"
        }
      ],
      "stateMutability": "view",
      "type": "function",
      "constant": true
    },
    {
      "inputs": [],
      "name": "levelRewardDivisor",
      "outputs": [
        {
          "internalType": "uint256",
          "name": "",
          "type": "uint256"
        }
      ],
      "stateMutability": "view",
      "type": "function",
      "constant": true
    },
    {
      "inputs": [],
      "name": "maxTokenLevel",
      "outputs": [
        {
          "internalType": "uint256",
          "name": "",
          "type": "uint256"
        }
      ],
      "stateMutability": "view",
      "type": "function",
      "constant": true
    },
    {
      "inputs": [],
      "name": "mintPrice",
      "outputs": [
        {
          "internalType": "uint256",
          "name": "",
          "type": "uint256"
        }
      ],
      "stateMutability": "view",
      "type": "function",
      "constant": true
    },
    {
      "inputs": [],
      "name": "name",
      "outputs": [
        {
          "internalType": "string",
          "name": "",
          "type": "string"
        }
      ],
      "stateMutability": "view",
      "type": "function",
      "constant": true
    },
    {
      "inputs": [
        {
          "internalType": "uint256",
          "name": "",
          "type": "uint256"
        }
      ],
      "name": "nftData",
      "outputs": [
        {
          "internalType": "uint256",
          "name": "level",
          "type": "uint256"
        },
        {
          "internalType": "uint256",
          "name": "birthDate",
          "type": "uint256"
        },
        {
          "internalType": "uint256",
          "name": "lockedAmount",
          "type": "uint256"
        },
        {
          "internalType": "uint256",
          "name": "lastClaimedDate",
          "type": "uint256"
        }
      ],
      "stateMutability": "view",
      "type": "function",
      "constant": true
    },
    {
      "inputs": [
        {
          "internalType": "uint256",
          "name": "tokenId",
          "type": "uint256"
        }
      ],
      "name": "ownerOf",
      "outputs": [
        {
          "internalType": "address",
          "name": "",
          "type": "address"
        }
      ],
      "stateMutability": "view",
      "type": "function",
      "constant": true
    },
    {
      "inputs": [
        {
          "internalType": "address",
          "name": "owner",
          "type": "address"
        }
      ],
      "name": "removeOwner",
      "outputs": [],
      "stateMutability": "nonpayable",
      "type": "function"
    },
    {
      "inputs": [
        {
          "internalType": "address",
          "name": "from",
          "type": "address"
        },
        {
          "internalType": "address",
          "name": "to",
          "type": "address"
        },
        {
          "internalType": "uint256",
          "name": "tokenId",
          "type": "uint256"
        }
      ],
      "name": "safeTransferFrom",
      "outputs": [],
      "stateMutability": "nonpayable",
      "type": "function"
    },
    {
      "inputs": [
        {
          "internalType": "address",
          "name": "from",
          "type": "address"
        },
        {
          "internalType": "address",
          "name": "to",
          "type": "address"
        },
        {
          "internalType": "uint256",
          "name": "tokenId",
          "type": "uint256"
        },
        {
          "internalType": "bytes",
          "name": "_data",
          "type": "bytes"
        }
      ],
      "name": "safeTransferFrom",
      "outputs": [],
      "stateMutability": "nonpayable",
      "type": "function"
    },
    {
      "inputs": [
        {
          "internalType": "address",
          "name": "operator",
          "type": "address"
        },
        {
          "internalType": "bool",
          "name": "approved",
          "type": "bool"
        }
      ],
      "name": "setApprovalForAll",
      "outputs": [],
      "stateMutability": "nonpayable",
      "type": "function"
    },
    {
      "inputs": [
        {
          "internalType": "bool",
          "name": "newPaused",
          "type": "bool"
        }
      ],
      "name": "setIsPaused",
      "outputs": [],
      "stateMutability": "nonpayable",
      "type": "function"
    },
    {
      "inputs": [],
      "name": "supplyMax",
      "outputs": [
        {
          "internalType": "uint256",
          "name": "",
          "type": "uint256"
        }
      ],
      "stateMutability": "view",
      "type": "function",
      "constant": true
    },
    {
      "inputs": [],
      "name": "symbol",
      "outputs": [
        {
          "internalType": "string",
          "name": "",
          "type": "string"
        }
      ],
      "stateMutability": "view",
      "type": "function",
      "constant": true
    },
    {
      "inputs": [
        {
          "internalType": "uint256",
          "name": "index",
          "type": "uint256"
        }
      ],
      "name": "tokenByIndex",
      "outputs": [
        {
          "internalType": "uint256",
          "name": "",
          "type": "uint256"
        }
      ],
      "stateMutability": "view",
      "type": "function",
      "constant": true
    },
    {
      "inputs": [
        {
          "internalType": "address",
          "name": "owner",
          "type": "address"
        },
        {
          "internalType": "uint256",
          "name": "index",
          "type": "uint256"
        }
      ],
      "name": "tokenOfOwnerByIndex",
      "outputs": [
        {
          "internalType": "uint256",
          "name": "",
          "type": "uint256"
        }
      ],
      "stateMutability": "view",
      "type": "function",
      "constant": true
    },
    {
      "inputs": [],
      "name": "tokensPerLevel",
      "outputs": [
        {
          "internalType": "uint256",
          "name": "",
          "type": "uint256"
        }
      ],
      "stateMutability": "view",
      "type": "function",
      "constant": true
    },
    {
      "inputs": [
        {
          "internalType": "address",
          "name": "from",
          "type": "address"
        },
        {
          "internalType": "address",
          "name": "to",
          "type": "address"
        },
        {
          "internalType": "uint256",
          "name": "tokenId",
          "type": "uint256"
        }
      ],
      "name": "transferFrom",
      "outputs": [],
      "stateMutability": "nonpayable",
      "type": "function"
    },
    {
      "inputs": [
        {
          "internalType": "address",
          "name": "to",
          "type": "address"
        },
        {
          "internalType": "uint256",
          "name": "amount",
          "type": "uint256"
        }
      ],
      "name": "mint",
      "outputs": [],
      "stateMutability": "nonpayable",
      "type": "function"
    },
    {
      "inputs": [
        {
          "internalType": "uint256",
          "name": "tokenId",
          "type": "uint256"
        },
        {
          "internalType": "uint256",
          "name": "amount",
          "type": "uint256"
        }
      ],
      "name": "compound",
      "outputs": [],
      "stateMutability": "nonpayable",
      "type": "function"
    },
    {
      "inputs": [
        {
          "internalType": "uint256",
          "name": "tokenId",
          "type": "uint256"
        }
      ],
      "name": "claim",
      "outputs": [],
      "stateMutability": "nonpayable",
      "type": "function"
    },
    {
      "inputs": [
        {
          "internalType": "uint256",
          "name": "tokenId",
          "type": "uint256"
        }
      ],
      "name": "reward",
      "outputs": [
        {
          "internalType": "uint256",
          "name": "",
          "type": "uint256"
        }
      ],
      "stateMutability": "view",
      "type": "function",
      "constant": true
    },
    {
      "inputs": [
        {
          "internalType": "uint256",
          "name": "tokenId",
          "type": "uint256"
        }
      ],
      "name": "getNFTData",
      "outputs": [
        {
          "internalType": "uint256",
          "name": "",
          "type": "uint256"
        },
        {
          "internalType": "uint256",
          "name": "",
          "type": "uint256"
        },
        {
          "internalType": "uint256",
          "name": "",
          "type": "uint256"
        },
        {
          "internalType": "uint256",
          "name": "",
          "type": "uint256"
        }
      ],
      "stateMutability": "view",
      "type": "function",
      "constant": true
    },
    {
      "inputs": [
        {
          "internalType": "uint256",
          "name": "newMax",
          "type": "uint256"
        }
      ],
      "name": "setAddressMax",
      "outputs": [],
      "stateMutability": "nonpayable",
      "type": "function"
    },
    {
      "inputs": [
        {
          "internalType": "uint256",
          "name": "newMax",
          "type": "uint256"
        }
      ],
      "name": "setSupplyMax",
      "outputs": [],
      "stateMutability": "nonpayable",
      "type": "function"
    },
    {
      "inputs": [
        {
          "internalType": "uint256",
          "name": "newPrice",
          "type": "uint256"
        }
      ],
      "name": "setMintPrice",
      "outputs": [],
      "stateMutability": "nonpayable",
      "type": "function"
    },
    {
      "inputs": [
        {
          "internalType": "uint256",
          "name": "newLevel",
          "type": "uint256"
        }
      ],
      "name": "setMaxTokenLevel",
      "outputs": [],
      "stateMutability": "nonpayable",
      "type": "function"
    },
    {
      "inputs": [
        {
          "internalType": "uint256",
          "name": "newTokensPerLevel",
          "type": "uint256"
        }
      ],
      "name": "setTokensPerLevel",
      "outputs": [],
      "stateMutability": "nonpayable",
      "type": "function"
    },
    {
      "inputs": [
        {
          "internalType": "uint256",
          "name": "newbaseRewardDivisor",
          "type": "uint256"
        }
      ],
      "name": "setbaseRewardDivisor",
      "outputs": [],
      "stateMutability": "nonpayable",
      "type": "function"
    },
    {
      "inputs": [
        {
          "internalType": "address",
          "name": "newTokenAddress",
          "type": "address"
        }
      ],
      "name": "setTokenAddress",
      "outputs": [],
      "stateMutability": "nonpayable",
      "type": "function"
    },
    {
      "inputs": [
        {
          "internalType": "string",
          "name": "newBaseURI",
          "type": "string"
        }
      ],
      "name": "setBaseUri",
      "outputs": [],
      "stateMutability": "nonpayable",
      "type": "function"
    },
    {
      "inputs": [],
      "name": "totalSupply",
      "outputs": [
        {
          "internalType": "uint256",
          "name": "",
          "type": "uint256"
        }
      ],
      "stateMutability": "view",
      "type": "function",
      "constant": true
    },
    {
      "inputs": [
        {
          "internalType": "uint256",
          "name": "tokenId",
          "type": "uint256"
        }
      ],
      "name": "tokenURI",
      "outputs": [
        {
          "internalType": "string",
          "name": "",
          "type": "string"
        }
      ],
      "stateMutability": "view",
      "type": "function",
      "constant": true
    },
    {
      "inputs": [
        {
          "internalType": "bytes4",
          "name": "interfaceId",
          "type": "bytes4"
        }
      ],
      "name": "supportsInterface",
      "outputs": [
        {
          "internalType": "bool",
          "name": "",
          "type": "bool"
        }
      ],
      "stateMutability": "view",
      "type": "function",
      "constant": true
    }
  ],
  "bytecode": "0x6005600e556103e8600f8190556064601055600a6011819055601291909155601355600260145560e06040526037608081815290620034c160a0398051620000509160179160209091019062000175565b503480156200005e57600080fd5b5060408051808201825260038082526213919560ea1b6020808401828152855180870190965292855284015281519192916200009d9160009162000175565b508051620000b390600190602084019062000175565b50505033620001135760405162461bcd60e51b815260206004820152602260248201527f43616e277420696e697469616c697a652077697468207a65726f206164647265604482015261737360f01b606482015260840160405180910390fd5b336000818152600b60205260408120805460ff19166001908117909155600c805491820181559091527fdf6966c971051c3d54ec59162606531493a51404a002842f56009d7e5cf4a8c70180546001600160a01b031916909117905562000258565b82805462000183906200021b565b90600052602060002090601f016020900481019282620001a75760008555620001f2565b82601f10620001c257805160ff1916838001178555620001f2565b82800160010185558215620001f2579182015b82811115620001f2578251825591602001919060010190620001d5565b506200020092915062000204565b5090565b5b8082111562000200576000815560010162000205565b600181811c908216806200023057607f821691505b602082108114156200025257634e487b7160e01b600052602260045260246000fd5b50919050565b61325980620002686000396000f3fe608060405234801561001057600080fd5b506004361061025e5760003560e01c80635da5128b11610146578063a1a7a423116100c3578063b1de420211610087578063b1de42021461054f578063b88d4fde14610562578063bff1208d14610575578063c87b56dd14610588578063e985e9c51461059b578063f4a0a5281461053c57600080fd5b8063a1a7a423146104fa578063a22cb46514610503578063a3db110514610516578063a9fb763c14610529578063aa29c3311461053c57600080fd5b80638c2109751161010a5780638c2109751461048c57806395d89b41146104c157806396636fe1146104c9578063a0bcfc7f146104d2578063a0e67e2b146104e557600080fd5b80635da5128b146104415780636352211e1461044a5780636817c76c1461045d5780637065cb481461046657806370a082311461047957600080fd5b8063240976bf116101df57806331bcbaed116101a357806331bcbaed146103e3578063379607f5146103ec57806340c10f19146103ff57806342842e0e146104125780634f6ccce7146104255780635ae1ab111461043857600080fd5b8063240976bf1461036b57806326a4e8d21461037e57806327620aaa146103915780632f54bf6e146103a45780632f745c59146103d057600080fd5b80630ad4c4f4116102265780630ad4c4f4146102f75780630cef1fbf1461032a578063173825d91461033d57806318160ddd1461035057806323b872dd1461035857600080fd5b806301ffc9a71461026357806304e275821461028b57806306fdde03146102a2578063081812fc146102b7578063095ea7b3146102e2575b600080fd5b6102766102713660046129ff565b6105d7565b60405190151581526020015b60405180910390f35b610294600f5481565b604051908152602001610282565b6102aa6105e8565b6040516102829190612a74565b6102ca6102c5366004612a87565b61067a565b6040516001600160a01b039091168152602001610282565b6102f56102f0366004612abc565b610707565b005b61030a610305366004612a87565b61081d565b604080519485526020850193909352918301526060820152608001610282565b6102f5610338366004612a87565b610874565b6102f561034b366004612ae6565b6108ad565b610294610ad5565b6102f5610366366004612b01565b610ae5565b6102f5610379366004612b4b565b610b16565b6102f561038c366004612ae6565b610b5d565b6102f561039f366004612a87565b610bb3565b6102766103b2366004612ae6565b6001600160a01b03166000908152600b602052604090205460ff1690565b6102946103de366004612abc565b610bec565b61029460125481565b6102f56103fa366004612a87565b610c82565b6102f561040d366004612abc565b610ede565b6102f5610420366004612b01565b61138b565b610294610433366004612a87565b6113a6565b61029460135481565b61029460145481565b6102ca610458366004612a87565b611439565b61029460105481565b6102f5610474366004612ae6565b6114b0565b610294610487366004612ae6565b611575565b61030a61049a366004612a87565b60156020526000908152604090208054600182015460028301546003909301549192909184565b6102aa6115fc565b610294600e5481565b6102f56104e0366004612bf4565b61160b565b6104ed611652565b6040516102829190612c3d565b61029460115481565b6102f5610511366004612c8a565b6116b3565b6102f5610524366004612a87565b6116be565b610294610537366004612a87565b6116f7565b6102f561054a366004612a87565b61177a565b6102f561055d366004612a87565b6117b3565b6102f5610570366004612cc1565b6117ec565b6102f5610583366004612d3d565b611824565b6102aa610596366004612a87565b611bc5565b6102766105a9366004612d5f565b6001600160a01b03918216600090815260056020908152604080832093909416825291909152205460ff1690565b60006105e282611bd0565b92915050565b6060600080546105f790612d92565b80601f016020809104026020016040519081016040528092919081815260200182805461062390612d92565b80156106705780601f1061064557610100808354040283529160200191610670565b820191906000526020600020905b81548152906001019060200180831161065357829003601f168201915b5050505050905090565b600061068582611bf5565b6106eb5760405162461bcd60e51b815260206004820152602c60248201527f4552433732313a20617070726f76656420717565727920666f72206e6f6e657860448201526b34b9ba32b73a103a37b5b2b760a11b60648201526084015b60405180910390fd5b506000908152600460205260409020546001600160a01b031690565b600061071282611439565b9050806001600160a01b0316836001600160a01b031614156107805760405162461bcd60e51b815260206004820152602160248201527f4552433732313a20617070726f76616c20746f2063757272656e74206f776e656044820152603960f91b60648201526084016106e2565b336001600160a01b038216148061079c575061079c81336105a9565b61080e5760405162461bcd60e51b815260206004820152603860248201527f4552433732313a20617070726f76652063616c6c6572206973206e6f74206f7760448201527f6e6572206e6f7220617070726f76656420666f7220616c6c000000000000000060648201526084016106e2565b6108188383611c12565b505050565b60008060008061082c85611bf5565b6108485760405162461bcd60e51b81526004016106e290612dcd565b505050600091825250601560205260409020805460018201546002830154600390930154919390929190565b336000908152600b602052604090205460ff1615156001146108a85760405162461bcd60e51b81526004016106e290612e04565b600f55565b336000908152600b602052604090205460ff1615156001146108e15760405162461bcd60e51b81526004016106e290612e04565b6001600160a01b0381166000908152600b602052604090205460ff16151560011461094e5760405162461bcd60e51b815260206004820152601760248201527f41646472657373206973206e6f7420616e206f776e657200000000000000000060448201526064016106e2565b60005b600c54811015610ad157816001600160a01b0316600c828154811061097857610978612e34565b6000918252602090912001546001600160a01b03161415610abf576001600160a01b0382166000908152600b60205260409020805460ff19169055805b600c546109c490600190612e60565b811015610a4f57600c6109d8836001612e77565b815481106109e8576109e8612e34565b600091825260209091200154600c80546001600160a01b039092169184908110610a1457610a14612e34565b600091825260209091200180546001600160a01b0319166001600160a01b039290921691909117905580610a4781612e8f565b9150506109b5565b50600c805480610a6157610a61612eaa565b600082815260208120820160001990810180546001600160a01b031916905590910190915560405142916001600160a01b0385169133917fecc5dd9888b87e7ed252d66b9c086ab819de6c8f8b96c8e5458e105bacfbb02791a45050565b80610ac981612e8f565b915050610951565b5050565b6000610ae060195490565b905090565b610aef3382611c80565b610b0b5760405162461bcd60e51b81526004016106e290612ec0565b610818838383611d6a565b336000908152600b602052604090205460ff161515600114610b4a5760405162461bcd60e51b81526004016106e290612e04565b600d805460ff1916911515919091179055565b336000908152600b602052604090205460ff161515600114610b915760405162461bcd60e51b81526004016106e290612e04565b601680546001600160a01b0319166001600160a01b0392909216919091179055565b336000908152600b602052604090205460ff161515600114610be75760405162461bcd60e51b81526004016106e290612e04565b601355565b6000610bf783611575565b8210610c595760405162461bcd60e51b815260206004820152602b60248201527f455243373231456e756d657261626c653a206f776e657220696e646578206f7560448201526a74206f6620626f756e647360a81b60648201526084016106e2565b506001600160a01b03919091166000908152600660209081526040808320938352929052205490565b336000908152600b602052604090205460ff16610cbc57600d5460ff1615610cbc5760405162461bcd60e51b81526004016106e290612f11565b610cc581611bf5565b610ce15760405162461bcd60e51b81526004016106e290612dcd565b33610ceb82611439565b6001600160a01b031614610d415760405162461bcd60e51b815260206004820152601e60248201527f53656e64657220646f6573206e6f74206f776e207468697320746f6b656e000060448201526064016106e2565b600081815260156020526040812090610d59836116f7565b4260038401556016546040516370a0823160e01b815230600482015291925082916001600160a01b03909116906370a0823190602401602060405180830381865afa158015610dac573d6000803e3d6000fd5b505050506040513d601f19601f82011682018060405250810190610dd09190612f3a565b1015610e1e5760405162461bcd60e51b815260206004820152601e60248201527f4e6f7420656e6f7567682062616c616e636520746f207769746864726177000060448201526064016106e2565b6016546040516323b872dd60e01b8152306004820152336024820152604481018390526001600160a01b03909116906323b872dd906064016020604051808303816000875af1158015610e75573d6000803e3d6000fd5b505050506040513d601f19601f82011682018060405250810190610e999190612f53565b506040805133815260208101839052428183015290517f987d620f307ff6b94d58743cb7a7509f24071586a77759b77c2d4e29f75a2f9a9181900360600190a1505050565b336000908152600b602052604090205460ff16610f1857600d5460ff1615610f185760405162461bcd60e51b81526004016106e290612f11565b600f54610f23610ad5565b10610f705760405162461bcd60e51b815260206004820152601b60248201527f4d617820737570706c7920686173206265656e2072656163686564000000000060448201526064016106e2565b600e546001600160a01b038316600090815260186020526040902054610f97908390612e77565b1115610ff05760405162461bcd60e51b815260206004820152602260248201527f4d6178206d696e7420657863656564656420666f722074686973206164647265604482015261737360f01b60648201526084016106e2565b600f546001600160a01b038316600090815260186020526040902054611017908390612e77565b111561106f5760405162461bcd60e51b815260206004820152602160248201527f54686973206d696e7420776f756c642065786365656420737570706c792063616044820152600760fc1b60648201526084016106e2565b60006012601054836110819190612f70565b61108b9190613073565b6016546040516370a0823160e01b815233600482015291925082916001600160a01b03909116906370a0823190602401602060405180830381865afa1580156110d8573d6000803e3d6000fd5b505050506040513d601f19601f820116820180604052508101906110fc9190612f3a565b10156111425760405162461bcd60e51b8152602060048201526015602482015274546f6b656e2062616c616e636520746f6f206c6f7760581b60448201526064016106e2565b601654604051636eb1769f60e11b815233600482015230602482015282916001600160a01b03169063dd62ed3e90604401602060405180830381865afa158015611190573d6000803e3d6000fd5b505050506040513d601f19601f820116820180604052508101906111b49190612f3a565b10156111f95760405162461bcd60e51b81526020600482015260146024820152734e6f7420656e6f75676820616c6c6f77616e636560601b60448201526064016106e2565b4260005b8381101561128f57600061121060195490565b905061121c8682611f15565b61122a818460016000611f2f565b60408051608081018252600180825260208083018781526000848601818152606086018a81528883526015909452959020935184555183830155925160028301559151600390910155601980549091019055508061128781612e8f565b9150506111fd565b506001600160a01b038416600090815260186020526040812080548592906112b8908490612e77565b90915550506016546040516323b872dd60e01b81526001600160a01b03868116600483015230602483015260448201859052909116906323b872dd906064016020604051808303816000875af1158015611316573d6000803e3d6000fd5b505050506040513d601f19601f8201168201806040525081019061133a9190612f53565b50604080516001600160a01b0386168152602081018590529081018290527f25b428dfde728ccfaddad7e29e4ac23c24ed7fd1a6e3e3f91894a9a073f5dfff9060600160405180910390a150505050565b610818838383604051806020016040528060008152506117ec565b60006113b160085490565b82106114145760405162461bcd60e51b815260206004820152602c60248201527f455243373231456e756d657261626c653a20676c6f62616c20696e646578206f60448201526b7574206f6620626f756e647360a01b60648201526084016106e2565b6008828154811061142757611427612e34565b90600052602060002001549050919050565b6000818152600260205260408120546001600160a01b0316806105e25760405162461bcd60e51b815260206004820152602960248201527f4552433732313a206f776e657220717565727920666f72206e6f6e657869737460448201526832b73a103a37b5b2b760b91b60648201526084016106e2565b336000908152600b602052604090205460ff1615156001146114e45760405162461bcd60e51b81526004016106e290612e04565b6001600160a01b0381166000818152600b6020526040808220805460ff19166001908117909155600c8054918201815583527fdf6966c971051c3d54ec59162606531493a51404a002842f56009d7e5cf4a8c70180546001600160a01b031916841790555142929133917fa0b18fca933618876351ba2ef88bf4505c184d3e55064bec0d7fe236dd706d849190a450565b60006001600160a01b0382166115e05760405162461bcd60e51b815260206004820152602a60248201527f4552433732313a2062616c616e636520717565727920666f7220746865207a65604482015269726f206164647265737360b01b60648201526084016106e2565b506001600160a01b031660009081526003602052604090205490565b6060600180546105f790612d92565b336000908152600b602052604090205460ff16151560011461163f5760405162461bcd60e51b81526004016106e290612e04565b8051610ad190601790602084019061294d565b6060600c80548060200260200160405190810160405280929190818152602001828054801561067057602002820191906000526020600020905b81546001600160a01b0316815260019091019060200180831161168c575050505050905090565b610ad1338383611f74565b336000908152600b602052604090205460ff1615156001146116f25760405162461bcd60e51b81526004016106e290612e04565b601255565b600061170282611bf5565b61171e5760405162461bcd60e51b81526004016106e290612dcd565b6000828152601560205260409020601454815461173b9190613098565b601354600383015461174d9042612e60565b6117579190613098565b6117619190612f70565b61177390670de0b6b3a7640000612f70565b9392505050565b336000908152600b602052604090205460ff1615156001146117ae5760405162461bcd60e51b81526004016106e290612e04565b601055565b336000908152600b602052604090205460ff1615156001146117e75760405162461bcd60e51b81526004016106e290612e04565b600e55565b6117f63383611c80565b6118125760405162461bcd60e51b81526004016106e290612ec0565b61181e84848484612043565b50505050565b336000908152600b602052604090205460ff1661185e57600d5460ff161561185e5760405162461bcd60e51b81526004016106e290612f11565b600061187282670de0b6b3a7640000612f70565b6016546040516370a0823160e01b815233600482015291925082916001600160a01b03909116906370a0823190602401602060405180830381865afa1580156118bf573d6000803e3d6000fd5b505050506040513d601f19601f820116820180604052508101906118e39190612f3a565b10156119295760405162461bcd60e51b8152602060048201526015602482015274546f6b656e2062616c616e636520746f6f206c6f7760581b60448201526064016106e2565b601654604051636eb1769f60e11b815233600482015230602482015282916001600160a01b03169063dd62ed3e90604401602060405180830381865afa158015611977573d6000803e3d6000fd5b505050506040513d601f19601f8201168201806040525081019061199b9190612f3a565b10156119e05760405162461bcd60e51b81526020600482015260146024820152734e6f7420656e6f75676820616c6c6f77616e636560601b60448201526064016106e2565b6119e983610c82565b6000838152601560205260409020601154815410611a495760405162461bcd60e51b815260206004820152601d60248201527f54686973204e465420697320616c7265616479206d6178206c6576656c00000060448201526064016106e2565b6000601254670de0b6b3a7640000611a619190612f70565b90506000838360020154611a759190612e77565b90506000611a838383613098565b905060006011548210611ac35783601154611a9e9190612f70565b611aa89084612e60565b60115486559050611ab98184612e60565b6002860155611ace565b600285018390558185555b611ae688866000015487600101548860020154611f2f565b6016546001600160a01b03166323b872dd3330611b03858b612e60565b6040516001600160e01b031960e086901b1681526001600160a01b03938416600482015292909116602483015260448201526064016020604051808303816000875af1158015611b57573d6000803e3d6000fd5b505050506040513d601f19601f82011682018060405250810190611b7b9190612f53565b506040805133815260208101889052428183015290517f820cea42e8517cf1ec6d4e9db93909255f07c45f7eb0a7c7b5a0f8bdcfc2e5bf9181900360600190a15050505050505050565b60606105e282612076565b60006001600160e01b0319821663780e9d6360e01b14806105e257506105e2826121d8565b6000908152600260205260409020546001600160a01b0316151590565b600081815260046020526040902080546001600160a01b0319166001600160a01b0384169081179091558190611c4782611439565b6001600160a01b03167f8c5be1e5ebec7d5bd14f71427d1e84f3dd0314c0f7b2291e5b200ac8c7c3b92560405160405180910390a45050565b6000611c8b82611bf5565b611cec5760405162461bcd60e51b815260206004820152602c60248201527f4552433732313a206f70657261746f7220717565727920666f72206e6f6e657860448201526b34b9ba32b73a103a37b5b2b760a11b60648201526084016106e2565b6000611cf783611439565b9050806001600160a01b0316846001600160a01b03161480611d325750836001600160a01b0316611d278461067a565b6001600160a01b0316145b80611d6257506001600160a01b0380821660009081526005602090815260408083209388168352929052205460ff165b949350505050565b826001600160a01b0316611d7d82611439565b6001600160a01b031614611de55760405162461bcd60e51b815260206004820152602960248201527f4552433732313a207472616e73666572206f6620746f6b656e2074686174206960448201526839903737ba1037bbb760b91b60648201526084016106e2565b6001600160a01b038216611e475760405162461bcd60e51b8152602060048201526024808201527f4552433732313a207472616e7366657220746f20746865207a65726f206164646044820152637265737360e01b60648201526084016106e2565b611e52838383612228565b611e5d600082611c12565b6001600160a01b0383166000908152600360205260408120805460019290611e86908490612e60565b90915550506001600160a01b0382166000908152600360205260408120805460019290611eb4908490612e77565b909155505060008181526002602052604080822080546001600160a01b0319166001600160a01b0386811691821790925591518493918716917fddf252ad1be2c89b69c2b068fc378daa952ba7f163c4a11628f55a4df523b3ef91a4505050565b610ad1828260405180602001604052806000815250612233565b61181e84611f3c85612266565b611f4585612266565b611f4e85612266565b604051602001611f60939291906130ac565b604051602081830303815290604052612364565b816001600160a01b0316836001600160a01b03161415611fd65760405162461bcd60e51b815260206004820152601960248201527f4552433732313a20617070726f766520746f2063616c6c65720000000000000060448201526064016106e2565b6001600160a01b03838116600081815260056020908152604080832094871680845294825291829020805460ff191686151590811790915591519182527f17307eab39ab6107e8899845ad3d59bd9653f200f220920489ca2b5937696c31910160405180910390a3505050565b61204e848484611d6a565b61205a848484846123ef565b61181e5760405162461bcd60e51b81526004016106e290613134565b606061208182611bf5565b6120e75760405162461bcd60e51b815260206004820152603160248201527f45524337323155524953746f726167653a2055524920717565727920666f72206044820152703737b732bc34b9ba32b73a103a37b5b2b760791b60648201526084016106e2565b6000828152600a60205260408120805461210090612d92565b80601f016020809104026020016040519081016040528092919081815260200182805461212c90612d92565b80156121795780601f1061214e57610100808354040283529160200191612179565b820191906000526020600020905b81548152906001019060200180831161215c57829003601f168201915b50505050509050600061218a6124ed565b905080516000141561219d575092915050565b8151156121cf5780826040516020016121b7929190613186565b60405160208183030381529060405292505050919050565b611d62846124fc565b60006001600160e01b031982166380ac58cd60e01b148061220957506001600160e01b03198216635b5e139f60e01b145b806105e257506301ffc9a760e01b6001600160e01b03198316146105e2565b6108188383836125c6565b61223d838361267e565b61224a60008484846123ef565b6108185760405162461bcd60e51b81526004016106e290613134565b60608161228a5750506040805180820190915260018152600360fc1b602082015290565b8160005b81156122b4578061229e81612e8f565b91506122ad9050600a83613098565b915061228e565b60008167ffffffffffffffff8111156122cf576122cf612b68565b6040519080825280601f01601f1916602001820160405280156122f9576020820181803683370190505b5090505b8415611d625761230e600183612e60565b915061231b600a866131b5565b612326906030612e77565b60f81b81838151811061233b5761233b612e34565b60200101906001600160f81b031916908160001a90535061235d600a86613098565b94506122fd565b61236d82611bf5565b6123d05760405162461bcd60e51b815260206004820152602e60248201527f45524337323155524953746f726167653a2055524920736574206f66206e6f6e60448201526d32bc34b9ba32b73a103a37b5b2b760911b60648201526084016106e2565b6000828152600a6020908152604090912082516108189284019061294d565b60006001600160a01b0384163b156124e257604051630a85bd0160e11b81526001600160a01b0385169063150b7a02906124339033908990889088906004016131c9565b6020604051808303816000875af192505050801561246e575060408051601f3d908101601f1916820190925261246b91810190613206565b60015b6124c8573d80801561249c576040519150601f19603f3d011682016040523d82523d6000602084013e6124a1565b606091505b5080516124c05760405162461bcd60e51b81526004016106e290613134565b805181602001fd5b6001600160e01b031916630a85bd0160e11b149050611d62565b506001949350505050565b6060601780546105f790612d92565b606061250782611bf5565b61256b5760405162461bcd60e51b815260206004820152602f60248201527f4552433732314d657461646174613a2055524920717565727920666f72206e6f60448201526e3732bc34b9ba32b73a103a37b5b2b760891b60648201526084016106e2565b60006125756124ed565b905060008151116125955760405180602001604052806000815250611773565b8061259f84612266565b6040516020016125b0929190613186565b6040516020818303038152906040529392505050565b6001600160a01b0383166126215761261c81600880546000838152600960205260408120829055600182018355919091527ff3f7a9fe364faab93b216da50a3214154f22a0a2b415b23a84c8169e8b636ee30155565b612644565b816001600160a01b0316836001600160a01b0316146126445761264483826127bd565b6001600160a01b03821661265b576108188161285a565b826001600160a01b0316826001600160a01b031614610818576108188282612909565b6001600160a01b0382166126d45760405162461bcd60e51b815260206004820181905260248201527f4552433732313a206d696e7420746f20746865207a65726f206164647265737360448201526064016106e2565b6126dd81611bf5565b1561272a5760405162461bcd60e51b815260206004820152601c60248201527f4552433732313a20746f6b656e20616c7265616479206d696e7465640000000060448201526064016106e2565b61273660008383612228565b6001600160a01b038216600090815260036020526040812080546001929061275f908490612e77565b909155505060008181526002602052604080822080546001600160a01b0319166001600160a01b03861690811790915590518392907fddf252ad1be2c89b69c2b068fc378daa952ba7f163c4a11628f55a4df523b3ef908290a45050565b600060016127ca84611575565b6127d49190612e60565b600083815260076020526040902054909150808214612827576001600160a01b03841660009081526006602090815260408083208584528252808320548484528184208190558352600790915290208190555b5060009182526007602090815260408084208490556001600160a01b039094168352600681528383209183525290812055565b60085460009061286c90600190612e60565b6000838152600960205260408120546008805493945090928490811061289457612894612e34565b9060005260206000200154905080600883815481106128b5576128b5612e34565b60009182526020808320909101929092558281526009909152604080822084905585825281205560088054806128ed576128ed612eaa565b6001900381819060005260206000200160009055905550505050565b600061291483611575565b6001600160a01b039093166000908152600660209081526040808320868452825280832085905593825260079052919091209190915550565b82805461295990612d92565b90600052602060002090601f01602090048101928261297b57600085556129c1565b82601f1061299457805160ff19168380011785556129c1565b828001600101855582156129c1579182015b828111156129c15782518255916020019190600101906129a6565b506129cd9291506129d1565b5090565b5b808211156129cd57600081556001016129d2565b6001600160e01b0319811681146129fc57600080fd5b50565b600060208284031215612a1157600080fd5b8135611773816129e6565b60005b83811015612a37578181015183820152602001612a1f565b8381111561181e5750506000910152565b60008151808452612a60816020860160208601612a1c565b601f01601f19169290920160200192915050565b6020815260006117736020830184612a48565b600060208284031215612a9957600080fd5b5035919050565b80356001600160a01b0381168114612ab757600080fd5b919050565b60008060408385031215612acf57600080fd5b612ad883612aa0565b946020939093013593505050565b600060208284031215612af857600080fd5b61177382612aa0565b600080600060608486031215612b1657600080fd5b612b1f84612aa0565b9250612b2d60208501612aa0565b9150604084013590509250925092565b80151581146129fc57600080fd5b600060208284031215612b5d57600080fd5b813561177381612b3d565b634e487b7160e01b600052604160045260246000fd5b600067ffffffffffffffff80841115612b9957612b99612b68565b604051601f8501601f19908116603f01168101908282118183101715612bc157612bc1612b68565b81604052809350858152868686011115612bda57600080fd5b858560208301376000602087830101525050509392505050565b600060208284031215612c0657600080fd5b813567ffffffffffffffff811115612c1d57600080fd5b8201601f81018413612c2e57600080fd5b611d6284823560208401612b7e565b6020808252825182820181905260009190848201906040850190845b81811015612c7e5783516001600160a01b031683529284019291840191600101612c59565b50909695505050505050565b60008060408385031215612c9d57600080fd5b612ca683612aa0565b91506020830135612cb681612b3d565b809150509250929050565b60008060008060808587031215612cd757600080fd5b612ce085612aa0565b9350612cee60208601612aa0565b925060408501359150606085013567ffffffffffffffff811115612d1157600080fd5b8501601f81018713612d2257600080fd5b612d3187823560208401612b7e565b91505092959194509250565b60008060408385031215612d5057600080fd5b50508035926020909101359150565b60008060408385031215612d7257600080fd5b612d7b83612aa0565b9150612d8960208401612aa0565b90509250929050565b600181811c90821680612da657607f821691505b60208210811415612dc757634e487b7160e01b600052602260045260246000fd5b50919050565b6020808252601c908201527f5468697320746f6b656e20494420646f6573206e6f7420657869737400000000604082015260600190565b60208082526016908201527521b0b63632b91034b9903737ba1030b71037bbb732b960511b604082015260600190565b634e487b7160e01b600052603260045260246000fd5b634e487b7160e01b600052601160045260246000fd5b600082821015612e7257612e72612e4a565b500390565b60008219821115612e8a57612e8a612e4a565b500190565b6000600019821415612ea357612ea3612e4a565b5060010190565b634e487b7160e01b600052603160045260246000fd5b60208082526031908201527f4552433732313a207472616e736665722063616c6c6572206973206e6f74206f6040820152701ddb995c881b9bdc88185c1c1c9bdd9959607a1b606082015260800190565b6020808252600f908201526e10dbdb9d1c9858dd081c185d5cd959608a1b604082015260600190565b600060208284031215612f4c57600080fd5b5051919050565b600060208284031215612f6557600080fd5b815161177381612b3d565b6000816000190483118215151615612f8a57612f8a612e4a565b500290565b600181815b80851115612fca578160001904821115612fb057612fb0612e4a565b80851615612fbd57918102915b93841c9390800290612f94565b509250929050565b600082612fe1575060016105e2565b81612fee575060006105e2565b8160018114613004576002811461300e5761302a565b60019150506105e2565b60ff84111561301f5761301f612e4a565b50506001821b6105e2565b5060208310610133831016604e8410600b841016171561304d575081810a6105e2565b6130578383612f8f565b806000190482111561306b5761306b612e4a565b029392505050565b600061177360ff841683612fd2565b634e487b7160e01b600052601260045260246000fd5b6000826130a7576130a7613082565b500490565b656c6576656c3d60d01b8152600084516130cd816006850160208901612a1c565b6a266269727468446174653d60a81b60069184019182015284516130f8816011840160208901612a1c565b6d266c6f636b6564416d6f756e743d60901b60119290910191820152835161312781601f840160208801612a1c565b01601f0195945050505050565b60208082526032908201527f4552433732313a207472616e7366657220746f206e6f6e20455243373231526560408201527131b2b4bb32b91034b6b83632b6b2b73a32b960711b606082015260800190565b60008351613198818460208801612a1c565b8351908301906131ac818360208801612a1c565b01949350505050565b6000826131c4576131c4613082565b500690565b6001600160a01b03858116825284166020820152604081018390526080606082018190526000906131fc90830184612a48565b9695505050505050565b60006020828403121561321857600080fd5b8151611773816129e656fea2646970667358221220bedb32c94ac09af4a5314da6c7ea65705180c118317130c6561ed5edd3e819fa64736f6c634300080b003368747470733a2f2f736c696d656b65657065722d7765622d6465762e6865726f6b756170702e636f6d2f6170692f6e66742f646174613f",
  "immutableReferences": {},
  "source": "// SPDX-License-Identifier: MIT\n\npragma solidity >=0.4.22 <0.9.0;\n\nimport \"./PauseOwners.sol\";\nimport \"./Token.sol\";\nimport \"@openzeppelin/contracts/token/ERC721/ERC721.sol\";\nimport \"@openzeppelin/contracts/token/ERC721/extensions/ERC721Enumerable.sol\";\nimport \"@openzeppelin/contracts/token/ERC721/extensions/ERC721URIStorage.sol\";\nimport \"@openzeppelin/contracts/utils/Counters.sol\";\nimport \"@openzeppelin/contracts/utils/Strings.sol\";\n\ncontract NFT is ERC721, ERC721Enumerable, ERC721URIStorage, PauseOwners {\n\tusing Counters for Counters.Counter;\n\tusing Strings for uint256;\n\n\tevent Minted(address minter, uint256 amount, uint256 date);\n\tevent Compounded(address compounder, uint256 amount, uint256 date);\n\tevent Claimed(address claimer, uint256 amount, uint256 date);\n\n\tuint256 public addressMax = 5; // Max NFTs per address\n\tuint256 public supplyMax = 1000; // Max total supply cap\n\tuint256 public mintPrice = 100; // Mint price of one NFT in tokens\n\tuint256 public maxTokenLevel = 10; // Amount of levels an individual NFT can be upgraded\n\tuint256 public tokensPerLevel = 1000; // Amount of tokens needed to upgrade an NFT (one level)\n\tuint256 public baseRewardDivisor = 10; // Helper to reduce/increase rewards\n\tuint256 public levelRewardDivisor = 2; // Another helper to change the impact of token level on reward generation\n\tmapping(uint256 => NFTData) public nftData; // Store NFT Data for invidividual token\n\n\tToken private token; // ERC20 token\n\tstring private nftBaseURI =\n\t\t\"https://slimekeeper-web-dev.herokuapp.com/api/nft/data?\";\n\tmapping(address => uint256) private amountMinted;\n\tCounters.Counter private tokenIds;\n\n\t// Represents in-game properties\n\tstruct NFTData {\n\t\tuint256 level; // Current level of NFT\n\t\tuint256 birthDate; // Date this NFT was minted\n\t\tuint256 lockedAmount; // Amount of tokens currently locked in this NFT\n\t\tuint256 lastClaimedDate; // Date last rewards were last claimed, if not claimed once, same as birth\n\n\t\t// Other in-game properties here and API configured to show them\n\t}\n\n\tconstructor() ERC721(\"NFT\", \"NFT\") {}\n\n\tfunction mint(address to, uint256 amount) public checkPaused {\n\t\trequire(totalSupply() < supplyMax, \"Max supply has been reached\");\n\t\trequire(\n\t\t\tamountMinted[to] + amount <= addressMax,\n\t\t\t\"Max mint exceeded for this address\"\n\t\t);\n\t\trequire(\n\t\t\tamountMinted[to] + amount <= supplyMax,\n\t\t\t\"This mint would exceed supply cap\"\n\t\t);\n\t\tuint256 totalMintPrice = (amount * mintPrice)**18;\n\t\trequire(\n\t\t\ttoken.balanceOf(msg.sender) >= totalMintPrice,\n\t\t\t\"Token balance too low\"\n\t\t);\n\t\trequire(\n\t\t\ttoken.allowance(msg.sender, address(this)) >= totalMintPrice,\n\t\t\t\"Not enough allowance\"\n\t\t);\n\t\tuint256 birthDate = block.timestamp;\n\t\tfor (uint256 i = 0; i < amount; i++) {\n\t\t\tuint256 currTokenId = tokenIds.current();\n\t\t\t_safeMint(to, currTokenId);\n\t\t\tupdateTokenUri(currTokenId, birthDate, 1, 0);\n\t\t\tnftData[currTokenId] = NFTData({\n\t\t\t\tlevel: 1,\n\t\t\t\tbirthDate: birthDate,\n\t\t\t\tlockedAmount: 0,\n\t\t\t\tlastClaimedDate: birthDate\n\t\t\t});\n\t\t\ttokenIds.increment();\n\t\t}\n\t\tamountMinted[to] += amount;\n\t\ttoken.transferFrom(to, address(this), totalMintPrice);\n\t\temit Minted(to, amount, birthDate);\n\t}\n\n\tfunction compound(uint256 tokenId, uint256 amount) public checkPaused {\n\t\tuint256 tokenAmount = amount * (10**18);\n\t\trequire(\n\t\t\ttoken.balanceOf(msg.sender) >= tokenAmount,\n\t\t\t\"Token balance too low\"\n\t\t);\n\t\trequire(\n\t\t\ttoken.allowance(msg.sender, address(this)) >= tokenAmount,\n\t\t\t\"Not enough allowance\"\n\t\t);\n\t\tclaim(tokenId); // Claim before compounding\n\t\tNFTData storage data = nftData[tokenId];\n\t\trequire(data.level < maxTokenLevel, \"This NFT is already max level\");\n\t\tuint256 tokensPerLevelTotal = tokensPerLevel * (10**18);\n\t\tuint256 newLocked = data.lockedAmount + tokenAmount;\n\t\tuint256 newLevel = newLocked / tokensPerLevelTotal;\n\t\tuint256 excessAmount = 0;\n\t\tif (newLevel >= maxTokenLevel) {\n\t\t\texcessAmount = newLocked - (maxTokenLevel * tokensPerLevelTotal);\n\t\t\tdata.level = maxTokenLevel;\n\t\t\tdata.lockedAmount = newLocked - excessAmount;\n\t\t} else {\n\t\t\tdata.lockedAmount = newLocked;\n\t\t\tdata.level = newLevel;\n\t\t}\n\t\tupdateTokenUri(tokenId, data.level, data.birthDate, data.lockedAmount);\n\t\ttoken.transferFrom(\n\t\t\tmsg.sender,\n\t\t\taddress(this),\n\t\t\ttokenAmount - excessAmount\n\t\t);\n\t\temit Compounded(msg.sender, tokenAmount, block.timestamp);\n\t}\n\n\tfunction claim(uint256 tokenId) public checkPaused {\n\t\trequire(_exists(tokenId), \"This token ID does not exist\");\n\t\trequire(\n\t\t\townerOf(tokenId) == msg.sender,\n\t\t\t\"Sender does not own this token\"\n\t\t);\n\t\tNFTData storage data = nftData[tokenId];\n\t\tuint256 rewardAmount = reward(tokenId);\n\t\tdata.lastClaimedDate = block.timestamp;\n\t\trequire(\n\t\t\ttoken.balanceOf(address(this)) >= rewardAmount,\n\t\t\t\"Not enough balance to withdraw\"\n\t\t);\n\t\ttoken.transferFrom(address(this), msg.sender, rewardAmount);\n\t\temit Claimed(msg.sender, rewardAmount, block.timestamp);\n\t}\n\n\tfunction reward(uint256 tokenId) public view returns (uint256) {\n\t\trequire(_exists(tokenId), \"This token ID does not exist\");\n\t\tNFTData storage data = nftData[tokenId];\n\t\treturn\n\t\t\t(((block.timestamp - data.lastClaimedDate) / baseRewardDivisor) *\n\t\t\t\t(data.level / levelRewardDivisor)) * (10**18);\n\t}\n\n\tfunction getNFTData(uint256 tokenId)\n\t\texternal\n\t\tview\n\t\treturns (\n\t\t\tuint256,\n\t\t\tuint256,\n\t\t\tuint256,\n\t\t\tuint256\n\t\t)\n\t{\n\t\trequire(_exists(tokenId), \"This token ID does not exist\");\n\t\tNFTData storage data = nftData[tokenId];\n\t\treturn (\n\t\t\tdata.level,\n\t\t\tdata.birthDate,\n\t\t\tdata.lockedAmount,\n\t\t\tdata.lastClaimedDate\n\t\t);\n\t}\n\n\tfunction setAddressMax(uint256 newMax) external onlyOwners {\n\t\taddressMax = newMax;\n\t}\n\n\tfunction setSupplyMax(uint256 newMax) external onlyOwners {\n\t\tsupplyMax = newMax;\n\t}\n\n\tfunction setMintPrice(uint256 newPrice) external onlyOwners {\n\t\tmintPrice = newPrice;\n\t}\n\n\tfunction setMaxTokenLevel(uint256 newLevel) external onlyOwners {\n\t\tmintPrice = newLevel;\n\t}\n\n\tfunction setTokensPerLevel(uint256 newTokensPerLevel) external onlyOwners {\n\t\ttokensPerLevel = newTokensPerLevel;\n\t}\n\n\tfunction setbaseRewardDivisor(uint256 newbaseRewardDivisor)\n\t\texternal\n\t\tonlyOwners\n\t{\n\t\tbaseRewardDivisor = newbaseRewardDivisor;\n\t}\n\n\tfunction setTokenAddress(address newTokenAddress) external onlyOwners {\n\t\ttoken = Token(payable(newTokenAddress));\n\t}\n\n\tfunction setBaseUri(string memory newBaseURI) external onlyOwners {\n\t\tnftBaseURI = newBaseURI;\n\t}\n\n\tfunction totalSupply() public view override returns (uint256) {\n\t\treturn tokenIds.current();\n\t}\n\n\tfunction _baseURI() internal view override returns (string memory) {\n\t\treturn nftBaseURI;\n\t}\n\n\tfunction updateTokenUri(\n\t\tuint256 tokenId,\n\t\tuint256 level,\n\t\tuint256 birthDate,\n\t\tuint256 lockedAmount\n\t) private {\n\t\t_setTokenURI(\n\t\t\ttokenId,\n\t\t\tstring(\n\t\t\t\tabi.encodePacked(\n\t\t\t\t\t\"level=\",\n\t\t\t\t\tlevel.toString(),\n\t\t\t\t\t\"&birthDate=\",\n\t\t\t\t\tbirthDate.toString(),\n\t\t\t\t\t\"&lockedAmount=\",\n\t\t\t\t\tlockedAmount.toString()\n\t\t\t\t)\n\t\t\t)\n\t\t);\n\t}\n\n\t// The following functions are overrides required by Solidity.\n\tfunction _beforeTokenTransfer(\n\t\taddress from,\n\t\taddress to,\n\t\tuint256 tokenId\n\t) internal override(ERC721, ERC721Enumerable) {\n\t\tsuper._beforeTokenTransfer(from, to, tokenId);\n\t}\n\n\tfunction _burn(uint256 tokenId)\n\t\tinternal\n\t\toverride(ERC721, ERC721URIStorage)\n\t{\n\t\tsuper._burn(tokenId);\n\t}\n\n\tfunction tokenURI(uint256 tokenId)\n\t\tpublic\n\t\tview\n\t\toverride(ERC721, ERC721URIStorage)\n\t\treturns (string memory)\n\t{\n\t\treturn super.tokenURI(tokenId);\n\t}\n\n\tfunction supportsInterface(bytes4 interfaceId)\n\t\tpublic\n\t\tview\n\t\toverride(ERC721, ERC721Enumerable)\n\t\treturns (bool)\n\t{\n\t\treturn super.supportsInterface(interfaceId);\n\t}\n}\n",
  "sourcePath": "C:\\Users\\sants\\Desktop\\slimekeeper\\slimekeeper_contracts\\contracts\\NFT.sol",
  "compiler": {
    "name": "solc",
    "version": "0.8.11+commit.d7f03943.Emscripten.clang"
  },
  "schemaVersion": "3.4.4",
  "updatedAt": "2022-02-15T23:49:17.799Z",
  "networkType": "ethereum",
  "devdoc": {
    "kind": "dev",
    "methods": {
      "approve(address,uint256)": {
        "details": "See {IERC721-approve}."
      },
      "balanceOf(address)": {
        "details": "See {IERC721-balanceOf}."
      },
      "getApproved(uint256)": {
        "details": "See {IERC721-getApproved}."
      },
      "isApprovedForAll(address,address)": {
        "details": "See {IERC721-isApprovedForAll}."
      },
      "name()": {
        "details": "See {IERC721Metadata-name}."
      },
      "ownerOf(uint256)": {
        "details": "See {IERC721-ownerOf}."
      },
      "safeTransferFrom(address,address,uint256)": {
        "details": "See {IERC721-safeTransferFrom}."
      },
      "safeTransferFrom(address,address,uint256,bytes)": {
        "details": "See {IERC721-safeTransferFrom}."
      },
      "setApprovalForAll(address,bool)": {
        "details": "See {IERC721-setApprovalForAll}."
      },
      "symbol()": {
        "details": "See {IERC721Metadata-symbol}."
      },
      "tokenByIndex(uint256)": {
        "details": "See {IERC721Enumerable-tokenByIndex}."
      },
      "tokenOfOwnerByIndex(address,uint256)": {
        "details": "See {IERC721Enumerable-tokenOfOwnerByIndex}."
      },
      "totalSupply()": {
        "details": "See {IERC721Enumerable-totalSupply}."
      },
      "transferFrom(address,address,uint256)": {
        "details": "See {IERC721-transferFrom}."
      }
    },
    "version": 1
  },
  "userdoc": {
    "kind": "user",
    "methods": {},
    "version": 1
  }
}