{
  "contractName": "NFT",
  "abi": [
    {
      "inputs": [],
      "stateMutability": "nonpayable",
      "type": "constructor"
    },
    {
      "anonymous": false,
      "inputs": [
        {
          "indexed": true,
          "internalType": "address",
          "name": "owner",
          "type": "address"
        },
        {
          "indexed": true,
          "internalType": "address",
          "name": "approved",
          "type": "address"
        },
        {
          "indexed": true,
          "internalType": "uint256",
          "name": "tokenId",
          "type": "uint256"
        }
      ],
      "name": "Approval",
      "type": "event"
    },
    {
      "anonymous": false,
      "inputs": [
        {
          "indexed": true,
          "internalType": "address",
          "name": "owner",
          "type": "address"
        },
        {
          "indexed": true,
          "internalType": "address",
          "name": "operator",
          "type": "address"
        },
        {
          "indexed": false,
          "internalType": "bool",
          "name": "approved",
          "type": "bool"
        }
      ],
      "name": "ApprovalForAll",
      "type": "event"
    },
    {
      "anonymous": false,
      "inputs": [
        {
          "indexed": false,
          "internalType": "address",
          "name": "claimer",
          "type": "address"
        },
        {
          "indexed": false,
          "internalType": "uint256",
          "name": "amount",
          "type": "uint256"
        },
        {
          "indexed": false,
          "internalType": "uint256",
          "name": "date",
          "type": "uint256"
        }
      ],
      "name": "Claimed",
      "type": "event"
    },
    {
      "anonymous": false,
      "inputs": [
        {
          "indexed": false,
          "internalType": "address",
          "name": "compounder",
          "type": "address"
        },
        {
          "indexed": false,
          "internalType": "uint256",
          "name": "amount",
          "type": "uint256"
        },
        {
          "indexed": false,
          "internalType": "uint256",
          "name": "date",
          "type": "uint256"
        }
      ],
      "name": "Compounded",
      "type": "event"
    },
    {
      "anonymous": false,
      "inputs": [
        {
          "indexed": false,
          "internalType": "address",
          "name": "minter",
          "type": "address"
        },
        {
          "indexed": false,
          "internalType": "uint256",
          "name": "amount",
          "type": "uint256"
        },
        {
          "indexed": false,
          "internalType": "uint256",
          "name": "date",
          "type": "uint256"
        }
      ],
      "name": "Minted",
      "type": "event"
    },
    {
      "anonymous": false,
      "inputs": [
        {
          "indexed": true,
          "internalType": "address",
          "name": "adder",
          "type": "address"
        },
        {
          "indexed": true,
          "internalType": "address",
          "name": "owner",
          "type": "address"
        },
        {
          "indexed": true,
          "internalType": "uint256",
          "name": "timestamp",
          "type": "uint256"
        }
      ],
      "name": "OwnerAdded",
      "type": "event"
    },
    {
      "anonymous": false,
      "inputs": [
        {
          "indexed": true,
          "internalType": "address",
          "name": "remover",
          "type": "address"
        },
        {
          "indexed": true,
          "internalType": "address",
          "name": "removed",
          "type": "address"
        },
        {
          "indexed": true,
          "internalType": "uint256",
          "name": "timestamp",
          "type": "uint256"
        }
      ],
      "name": "OwnerRemoved",
      "type": "event"
    },
    {
      "anonymous": false,
      "inputs": [
        {
          "indexed": true,
          "internalType": "address",
          "name": "from",
          "type": "address"
        },
        {
          "indexed": true,
          "internalType": "address",
          "name": "to",
          "type": "address"
        },
        {
          "indexed": true,
          "internalType": "uint256",
          "name": "tokenId",
          "type": "uint256"
        }
      ],
      "name": "Transfer",
      "type": "event"
    },
    {
      "inputs": [
        {
          "internalType": "address",
          "name": "owner",
          "type": "address"
        }
      ],
      "name": "addOwner",
      "outputs": [],
      "stateMutability": "nonpayable",
      "type": "function"
    },
    {
      "inputs": [],
      "name": "addressMax",
      "outputs": [
        {
          "internalType": "uint256",
          "name": "",
          "type": "uint256"
        }
      ],
      "stateMutability": "view",
      "type": "function",
      "constant": true
    },
    {
      "inputs": [
        {
          "internalType": "address",
          "name": "to",
          "type": "address"
        },
        {
          "internalType": "uint256",
          "name": "tokenId",
          "type": "uint256"
        }
      ],
      "name": "approve",
      "outputs": [],
      "stateMutability": "nonpayable",
      "type": "function"
    },
    {
      "inputs": [
        {
          "internalType": "address",
          "name": "owner",
          "type": "address"
        }
      ],
      "name": "balanceOf",
      "outputs": [
        {
          "internalType": "uint256",
          "name": "",
          "type": "uint256"
        }
      ],
      "stateMutability": "view",
      "type": "function",
      "constant": true
    },
    {
      "inputs": [
        {
          "internalType": "uint256",
          "name": "tokenId",
          "type": "uint256"
        }
      ],
      "name": "getApproved",
      "outputs": [
        {
          "internalType": "address",
          "name": "",
          "type": "address"
        }
      ],
      "stateMutability": "view",
      "type": "function",
      "constant": true
    },
    {
      "inputs": [],
      "name": "getOwners",
      "outputs": [
        {
          "internalType": "address[]",
          "name": "",
          "type": "address[]"
        }
      ],
      "stateMutability": "view",
      "type": "function",
      "constant": true
    },
    {
      "inputs": [
        {
          "internalType": "address",
          "name": "owner",
          "type": "address"
        },
        {
          "internalType": "address",
          "name": "operator",
          "type": "address"
        }
      ],
      "name": "isApprovedForAll",
      "outputs": [
        {
          "internalType": "bool",
          "name": "",
          "type": "bool"
        }
      ],
      "stateMutability": "view",
      "type": "function",
      "constant": true
    },
    {
      "inputs": [
        {
          "internalType": "address",
          "name": "owner",
          "type": "address"
        }
      ],
      "name": "isOwner",
      "outputs": [
        {
          "internalType": "bool",
          "name": "",
          "type": "bool"
        }
      ],
      "stateMutability": "view",
      "type": "function",
      "constant": true
    },
    {
      "inputs": [],
      "name": "maxTokenLevel",
      "outputs": [
        {
          "internalType": "uint256",
          "name": "",
          "type": "uint256"
        }
      ],
      "stateMutability": "view",
      "type": "function",
      "constant": true
    },
    {
      "inputs": [],
      "name": "mintPrice",
      "outputs": [
        {
          "internalType": "uint256",
          "name": "",
          "type": "uint256"
        }
      ],
      "stateMutability": "view",
      "type": "function",
      "constant": true
    },
    {
      "inputs": [],
      "name": "name",
      "outputs": [
        {
          "internalType": "string",
          "name": "",
          "type": "string"
        }
      ],
      "stateMutability": "view",
      "type": "function",
      "constant": true
    },
    {
      "inputs": [
        {
          "internalType": "uint256",
          "name": "tokenId",
          "type": "uint256"
        }
      ],
      "name": "ownerOf",
      "outputs": [
        {
          "internalType": "address",
          "name": "",
          "type": "address"
        }
      ],
      "stateMutability": "view",
      "type": "function",
      "constant": true
    },
    {
      "inputs": [
        {
          "internalType": "address",
          "name": "owner",
          "type": "address"
        }
      ],
      "name": "removeOwner",
      "outputs": [],
      "stateMutability": "nonpayable",
      "type": "function"
    },
    {
      "inputs": [],
      "name": "rewardDivisor",
      "outputs": [
        {
          "internalType": "uint256",
          "name": "",
          "type": "uint256"
        }
      ],
      "stateMutability": "view",
      "type": "function",
      "constant": true
    },
    {
      "inputs": [
        {
          "internalType": "address",
          "name": "from",
          "type": "address"
        },
        {
          "internalType": "address",
          "name": "to",
          "type": "address"
        },
        {
          "internalType": "uint256",
          "name": "tokenId",
          "type": "uint256"
        }
      ],
      "name": "safeTransferFrom",
      "outputs": [],
      "stateMutability": "nonpayable",
      "type": "function"
    },
    {
      "inputs": [
        {
          "internalType": "address",
          "name": "from",
          "type": "address"
        },
        {
          "internalType": "address",
          "name": "to",
          "type": "address"
        },
        {
          "internalType": "uint256",
          "name": "tokenId",
          "type": "uint256"
        },
        {
          "internalType": "bytes",
          "name": "_data",
          "type": "bytes"
        }
      ],
      "name": "safeTransferFrom",
      "outputs": [],
      "stateMutability": "nonpayable",
      "type": "function"
    },
    {
      "inputs": [
        {
          "internalType": "address",
          "name": "operator",
          "type": "address"
        },
        {
          "internalType": "bool",
          "name": "approved",
          "type": "bool"
        }
      ],
      "name": "setApprovalForAll",
      "outputs": [],
      "stateMutability": "nonpayable",
      "type": "function"
    },
    {
      "inputs": [
        {
          "internalType": "bool",
          "name": "newPaused",
          "type": "bool"
        }
      ],
      "name": "setIsPaused",
      "outputs": [],
      "stateMutability": "nonpayable",
      "type": "function"
    },
    {
      "inputs": [],
      "name": "supplyMax",
      "outputs": [
        {
          "internalType": "uint256",
          "name": "",
          "type": "uint256"
        }
      ],
      "stateMutability": "view",
      "type": "function",
      "constant": true
    },
    {
      "inputs": [],
      "name": "symbol",
      "outputs": [
        {
          "internalType": "string",
          "name": "",
          "type": "string"
        }
      ],
      "stateMutability": "view",
      "type": "function",
      "constant": true
    },
    {
      "inputs": [
        {
          "internalType": "uint256",
          "name": "index",
          "type": "uint256"
        }
      ],
      "name": "tokenByIndex",
      "outputs": [
        {
          "internalType": "uint256",
          "name": "",
          "type": "uint256"
        }
      ],
      "stateMutability": "view",
      "type": "function",
      "constant": true
    },
    {
      "inputs": [
        {
          "internalType": "address",
          "name": "owner",
          "type": "address"
        },
        {
          "internalType": "uint256",
          "name": "index",
          "type": "uint256"
        }
      ],
      "name": "tokenOfOwnerByIndex",
      "outputs": [
        {
          "internalType": "uint256",
          "name": "",
          "type": "uint256"
        }
      ],
      "stateMutability": "view",
      "type": "function",
      "constant": true
    },
    {
      "inputs": [],
      "name": "tokensPerLevel",
      "outputs": [
        {
          "internalType": "uint256",
          "name": "",
          "type": "uint256"
        }
      ],
      "stateMutability": "view",
      "type": "function",
      "constant": true
    },
    {
      "inputs": [
        {
          "internalType": "address",
          "name": "from",
          "type": "address"
        },
        {
          "internalType": "address",
          "name": "to",
          "type": "address"
        },
        {
          "internalType": "uint256",
          "name": "tokenId",
          "type": "uint256"
        }
      ],
      "name": "transferFrom",
      "outputs": [],
      "stateMutability": "nonpayable",
      "type": "function"
    },
    {
      "inputs": [
        {
          "internalType": "address",
          "name": "to",
          "type": "address"
        },
        {
          "internalType": "uint256",
          "name": "amount",
          "type": "uint256"
        }
      ],
      "name": "mint",
      "outputs": [],
      "stateMutability": "nonpayable",
      "type": "function"
    },
    {
      "inputs": [
        {
          "internalType": "uint256",
          "name": "tokenId",
          "type": "uint256"
        },
        {
          "internalType": "uint256",
          "name": "amountToken",
          "type": "uint256"
        }
      ],
      "name": "compound",
      "outputs": [],
      "stateMutability": "nonpayable",
      "type": "function"
    },
    {
      "inputs": [
        {
          "internalType": "uint256",
          "name": "tokenId",
          "type": "uint256"
        }
      ],
      "name": "claimReward",
      "outputs": [],
      "stateMutability": "nonpayable",
      "type": "function"
    },
    {
      "inputs": [
        {
          "internalType": "uint256",
          "name": "tokenId",
          "type": "uint256"
        }
      ],
      "name": "getReward",
      "outputs": [
        {
          "internalType": "uint256",
          "name": "",
          "type": "uint256"
        }
      ],
      "stateMutability": "view",
      "type": "function",
      "constant": true
    },
    {
      "inputs": [
        {
          "internalType": "uint256",
          "name": "level",
          "type": "uint256"
        }
      ],
      "name": "approxAPR",
      "outputs": [
        {
          "internalType": "uint256",
          "name": "",
          "type": "uint256"
        }
      ],
      "stateMutability": "view",
      "type": "function",
      "constant": true
    },
    {
      "inputs": [
        {
          "internalType": "uint256",
          "name": "time",
          "type": "uint256"
        },
        {
          "internalType": "uint256",
          "name": "level",
          "type": "uint256"
        }
      ],
      "name": "calculateReward",
      "outputs": [
        {
          "internalType": "uint256",
          "name": "",
          "type": "uint256"
        }
      ],
      "stateMutability": "view",
      "type": "function",
      "constant": true
    },
    {
      "inputs": [
        {
          "internalType": "uint256",
          "name": "tokenId",
          "type": "uint256"
        }
      ],
      "name": "getNFTData",
      "outputs": [
        {
          "internalType": "uint256",
          "name": "",
          "type": "uint256"
        },
        {
          "internalType": "uint256",
          "name": "",
          "type": "uint256"
        },
        {
          "internalType": "uint256",
          "name": "",
          "type": "uint256"
        },
        {
          "internalType": "uint256",
          "name": "",
          "type": "uint256"
        }
      ],
      "stateMutability": "view",
      "type": "function",
      "constant": true
    },
    {
      "inputs": [
        {
          "internalType": "uint256",
          "name": "newMax",
          "type": "uint256"
        }
      ],
      "name": "setAddressMax",
      "outputs": [],
      "stateMutability": "nonpayable",
      "type": "function"
    },
    {
      "inputs": [
        {
          "internalType": "uint256",
          "name": "newMax",
          "type": "uint256"
        }
      ],
      "name": "setSupplyMax",
      "outputs": [],
      "stateMutability": "nonpayable",
      "type": "function"
    },
    {
      "inputs": [
        {
          "internalType": "uint256",
          "name": "newPrice",
          "type": "uint256"
        }
      ],
      "name": "setMintPrice",
      "outputs": [],
      "stateMutability": "nonpayable",
      "type": "function"
    },
    {
      "inputs": [
        {
          "internalType": "uint256",
          "name": "newLevel",
          "type": "uint256"
        }
      ],
      "name": "setMaxTokenLevel",
      "outputs": [],
      "stateMutability": "nonpayable",
      "type": "function"
    },
    {
      "inputs": [
        {
          "internalType": "uint256",
          "name": "newTokensPerLevel",
          "type": "uint256"
        }
      ],
      "name": "setTokensPerLevel",
      "outputs": [],
      "stateMutability": "nonpayable",
      "type": "function"
    },
    {
      "inputs": [
        {
          "internalType": "uint256",
          "name": "newRewardDivisor",
          "type": "uint256"
        }
      ],
      "name": "setRewardDivisor",
      "outputs": [],
      "stateMutability": "nonpayable",
      "type": "function"
    },
    {
      "inputs": [
        {
          "internalType": "address",
          "name": "newTokenAddress",
          "type": "address"
        }
      ],
      "name": "setTokenAddress",
      "outputs": [],
      "stateMutability": "nonpayable",
      "type": "function"
    },
    {
      "inputs": [
        {
          "internalType": "string",
          "name": "newBaseURI",
          "type": "string"
        }
      ],
      "name": "setBaseUri",
      "outputs": [],
      "stateMutability": "nonpayable",
      "type": "function"
    },
    {
      "inputs": [],
      "name": "totalSupply",
      "outputs": [
        {
          "internalType": "uint256",
          "name": "",
          "type": "uint256"
        }
      ],
      "stateMutability": "view",
      "type": "function",
      "constant": true
    },
    {
      "inputs": [
        {
          "internalType": "uint256",
          "name": "tokenId",
          "type": "uint256"
        }
      ],
      "name": "tokenURI",
      "outputs": [
        {
          "internalType": "string",
          "name": "",
          "type": "string"
        }
      ],
      "stateMutability": "view",
      "type": "function",
      "constant": true
    },
    {
      "inputs": [
        {
          "internalType": "bytes4",
          "name": "interfaceId",
          "type": "bytes4"
        }
      ],
      "name": "supportsInterface",
      "outputs": [
        {
          "internalType": "bool",
          "name": "",
          "type": "bool"
        }
      ],
      "stateMutability": "view",
      "type": "function",
      "constant": true
    }
  ],
  "bytecode": "0x6005600e556103e8600f5560646010819055600a601155601255632920908060135560e06040526037608081815290620038d160a03980516200004b9160169160209091019062000170565b503480156200005957600080fd5b5060408051808201825260038082526213919560ea1b602080840182815285518087019096529285528401528151919291620000989160009162000170565b508051620000ae90600190602084019062000170565b505050336200010e5760405162461bcd60e51b815260206004820152602260248201527f43616e277420696e697469616c697a652077697468207a65726f206164647265604482015261737360f01b606482015260840160405180910390fd5b336000818152600b60205260408120805460ff19166001908117909155600c805491820181559091527fdf6966c971051c3d54ec59162606531493a51404a002842f56009d7e5cf4a8c70180546001600160a01b031916909117905562000253565b8280546200017e9062000216565b90600052602060002090601f016020900481019282620001a25760008555620001ed565b82601f10620001bd57805160ff1916838001178555620001ed565b82800160010185558215620001ed579182015b82811115620001ed578251825591602001919060010190620001d0565b50620001fb929150620001ff565b5090565b5b80821115620001fb576000815560010162000200565b600181811c908216806200022b57607f821691505b602082108114156200024d57634e487b7160e01b600052602260045260246000fd5b50919050565b61366e80620002636000396000f3fe608060405234801561001057600080fd5b506004361061025e5760003560e01c80636352211e11610146578063a3db1105116100c3578063b88d4fde11610087578063b88d4fde14610541578063bff1208d14610554578063c87b56dd14610567578063e985e9c51461057a578063f49c87e7146105b6578063f4a0a528146104f557600080fd5b8063a3db1105146104e2578063aa29c331146104f5578063aae64f8614610508578063ae169a501461051b578063b1de42021461052e57600080fd5b806396636fe11161010a57806396636fe114610495578063a0bcfc7f1461049e578063a0e67e2b146104b1578063a1a7a423146104c6578063a22cb465146104cf57600080fd5b80636352211e1461044b5780636817c76c1461045e5780637065cb481461046757806370a082311461047a57806395d89b411461048d57600080fd5b806318160ddd116101df5780632f54bf6e116101a35780632f54bf6e146103ca5780632f745c59146103f657806331bcbaed1461040957806340c10f191461041257806342842e0e146104255780634f6ccce71461043857600080fd5b806318160ddd146103765780631c4b774b1461037e57806323b872dd14610391578063240976bf146103a457806326a4e8d2146103b757600080fd5b80630ad4c4f4116102265780630ad4c4f4146102f75780630cef1fbf1461032a57806313ed08461461033d5780631632070c14610350578063173825d91461036357600080fd5b806301ffc9a71461026357806304e275821461028b57806306fdde03146102a2578063081812fc146102b7578063095ea7b3146102e2575b600080fd5b610276610271366004612e28565b6105bf565b60405190151581526020015b60405180910390f35b610294600f5481565b604051908152602001610282565b6102aa6105d0565b6040516102829190612e9d565b6102ca6102c5366004612eb0565b610662565b6040516001600160a01b039091168152602001610282565b6102f56102f0366004612ee5565b6106ef565b005b61030a610305366004612eb0565b610805565b604080519485526020850193909352918301526060820152608001610282565b6102f5610338366004612eb0565b61088c565b61029461034b366004612f0f565b6108c5565b6102f561035e366004612eb0565b610967565b6102f5610371366004612f31565b6109a0565b610294610bc8565b61029461038c366004612eb0565b610bd8565b6102f561039f366004612f4c565b610c67565b6102f56103b2366004612f96565b610c98565b6102f56103c5366004612f31565b610cdf565b6102766103d8366004612f31565b6001600160a01b03166000908152600b602052604090205460ff1690565b610294610404366004612ee5565b610d35565b61029460125481565b6102f5610420366004612ee5565b610dcb565b6102f5610433366004612f4c565b611332565b610294610446366004612eb0565b61134d565b6102ca610459366004612eb0565b6113e0565b61029460105481565b6102f5610475366004612f31565b611457565b610294610488366004612f31565b61151c565b6102aa6115a3565b610294600e5481565b6102f56104ac36600461303f565b6115b2565b6104b96115f9565b6040516102829190613088565b61029460115481565b6102f56104dd3660046130d5565b61165a565b6102f56104f0366004612eb0565b611665565b6102f5610503366004612eb0565b61169e565b610294610516366004612eb0565b6116d7565b6102f5610529366004612eb0565b611768565b6102f561053c366004612eb0565b611ac5565b6102f561054f36600461310c565b611afe565b6102f5610562366004612f0f565b611b36565b6102aa610575366004612eb0565b611ff2565b610276610588366004613188565b6001600160a01b03918216600090815260056020908152604080832093909416825291909152205460ff1690565b61029460135481565b60006105ca82611ffd565b92915050565b6060600080546105df906131bb565b80601f016020809104026020016040519081016040528092919081815260200182805461060b906131bb565b80156106585780601f1061062d57610100808354040283529160200191610658565b820191906000526020600020905b81548152906001019060200180831161063b57829003601f168201915b5050505050905090565b600061066d82612022565b6106d35760405162461bcd60e51b815260206004820152602c60248201527f4552433732313a20617070726f76656420717565727920666f72206e6f6e657860448201526b34b9ba32b73a103a37b5b2b760a11b60648201526084015b60405180910390fd5b506000908152600460205260409020546001600160a01b031690565b60006106fa826113e0565b9050806001600160a01b0316836001600160a01b031614156107685760405162461bcd60e51b815260206004820152602160248201527f4552433732313a20617070726f76616c20746f2063757272656e74206f776e656044820152603960f91b60648201526084016106ca565b336001600160a01b038216148061078457506107848133610588565b6107f65760405162461bcd60e51b815260206004820152603860248201527f4552433732313a20617070726f76652063616c6c6572206973206e6f74206f7760448201527f6e6572206e6f7220617070726f76656420666f7220616c6c000000000000000060648201526084016106ca565b610800838361203f565b505050565b60008060008061081485612022565b6108605760405162461bcd60e51b815260206004820152601c60248201527f5468697320746f6b656e20494420646f6573206e6f742065786973740000000060448201526064016106ca565b505050600091825250601860205260409020805460018201546002830154600390930154919390929190565b336000908152600b602052604090205460ff1615156001146108c05760405162461bcd60e51b81526004016106ca906131f6565b600f55565b601354601454604080516318160ddd60e01b81529051600093926001600160a01b0316916318160ddd9160048083019260209291908290030181865afa158015610913573d6000803e3d6000fd5b505050506040513d601f19601f820116820180604052508101906109379190613226565b610942846001613255565b61094c908661326d565b610956919061326d565b61096091906132a2565b9392505050565b336000908152600b602052604090205460ff16151560011461099b5760405162461bcd60e51b81526004016106ca906131f6565b601355565b336000908152600b602052604090205460ff1615156001146109d45760405162461bcd60e51b81526004016106ca906131f6565b6001600160a01b0381166000908152600b602052604090205460ff161515600114610a415760405162461bcd60e51b815260206004820152601760248201527f41646472657373206973206e6f7420616e206f776e657200000000000000000060448201526064016106ca565b60005b600c54811015610bc457816001600160a01b0316600c8281548110610a6b57610a6b6132b6565b6000918252602090912001546001600160a01b03161415610bb2576001600160a01b0382166000908152600b60205260409020805460ff19169055805b600c54610ab7906001906132cc565b811015610b4257600c610acb836001613255565b81548110610adb57610adb6132b6565b600091825260209091200154600c80546001600160a01b039092169184908110610b0757610b076132b6565b600091825260209091200180546001600160a01b0319166001600160a01b039290921691909117905580610b3a816132e3565b915050610aa8565b50600c805480610b5457610b546132fe565b600082815260208120820160001990810180546001600160a01b031916905590910190915560405142916001600160a01b0385169133917fecc5dd9888b87e7ed252d66b9c086ab819de6c8f8b96c8e5458e105bacfbb02791a45050565b80610bbc816132e3565b915050610a44565b5050565b6000610bd360155490565b905090565b6000610be382612022565b610c2f5760405162461bcd60e51b815260206004820152601c60248201527f5468697320746f6b656e20494420646f6573206e6f742065786973740000000060448201526064016106ca565b60008281526018602052604081206003810154909190610c4f90426132cc565b9050610c5f8183600001546108c5565b949350505050565b610c7133826120ad565b610c8d5760405162461bcd60e51b81526004016106ca90613314565b610800838383612193565b336000908152600b602052604090205460ff161515600114610ccc5760405162461bcd60e51b81526004016106ca906131f6565b600d805460ff1916911515919091179055565b336000908152600b602052604090205460ff161515600114610d135760405162461bcd60e51b81526004016106ca906131f6565b601480546001600160a01b0319166001600160a01b0392909216919091179055565b6000610d408361151c565b8210610da25760405162461bcd60e51b815260206004820152602b60248201527f455243373231456e756d657261626c653a206f776e657220696e646578206f7560448201526a74206f6620626f756e647360a81b60648201526084016106ca565b506001600160a01b03919091166000908152600660209081526040808320938352929052205490565b336000908152600b602052604090205460ff16610e0557600d5460ff1615610e055760405162461bcd60e51b81526004016106ca90613365565b600f54610e10610bc8565b10610e5d5760405162461bcd60e51b815260206004820152601b60248201527f4d617820737570706c7920686173206265656e2072656163686564000000000060448201526064016106ca565b600e546001600160a01b038316600090815260176020526040902054610e84908390613255565b1115610edd5760405162461bcd60e51b815260206004820152602260248201527f4d6178206d696e7420657863656564656420666f722074686973206164647265604482015261737360f01b60648201526084016106ca565b600f546001600160a01b038316600090815260176020526040902054610f04908390613255565b1115610f5c5760405162461bcd60e51b815260206004820152602160248201527f54686973206d696e7420776f756c642065786365656420737570706c792063616044820152600760fc1b60648201526084016106ca565b6014546040805163313ce56760e01b815290516000926001600160a01b03169163313ce5679160048083019260209291908290030181865afa158015610fa6573d6000803e3d6000fd5b505050506040513d601f19601f82011682018060405250810190610fca919061338e565b610fd590600a613495565b601054610fe2908461326d565b610fec919061326d565b6014546040516370a0823160e01b815233600482015291925082916001600160a01b03909116906370a0823190602401602060405180830381865afa158015611039573d6000803e3d6000fd5b505050506040513d601f19601f8201168201806040525081019061105d9190613226565b10156110a35760405162461bcd60e51b8152602060048201526015602482015274546f6b656e2062616c616e636520746f6f206c6f7760581b60448201526064016106ca565b601454604051636eb1769f60e11b815233600482015230602482015282916001600160a01b03169063dd62ed3e90604401602060405180830381865afa1580156110f1573d6000803e3d6000fd5b505050506040513d601f19601f820116820180604052508101906111159190613226565b101561115a5760405162461bcd60e51b81526020600482015260146024820152734e6f7420656e6f75676820616c6c6f77616e636560601b60448201526064016106ca565b4260005b838110156111f657600061117160155490565b905061117d868261233e565b61118b818460016000612358565b60408051608081018252600080825260208083018781528385018381526060850189815287855260189093529490922092518355905160018301559151600282015590516003909101556111e3601580546001019055565b50806111ee816132e3565b91505061115e565b506001600160a01b0384166000908152601760205260408120805485929061121f908490613255565b90915550506014546040516323b872dd60e01b8152336004820152306024820152604481018490526001600160a01b03909116906323b872dd906064016020604051808303816000875af115801561127b573d6000803e3d6000fd5b505050506040513d601f19601f8201168201806040525081019061129f91906134a4565b6112e25760405162461bcd60e51b8152602060048201526014602482015273151bdad95b881c185e5b595b9d0819985a5b195960621b60448201526064016106ca565b604080516001600160a01b0386168152602081018590529081018290527f25b428dfde728ccfaddad7e29e4ac23c24ed7fd1a6e3e3f91894a9a073f5dfff9060600160405180910390a150505050565b61080083838360405180602001604052806000815250611afe565b600061135860085490565b82106113bb5760405162461bcd60e51b815260206004820152602c60248201527f455243373231456e756d657261626c653a20676c6f62616c20696e646578206f60448201526b7574206f6620626f756e647360a01b60648201526084016106ca565b600882815481106113ce576113ce6132b6565b90600052602060002001549050919050565b6000818152600260205260408120546001600160a01b0316806105ca5760405162461bcd60e51b815260206004820152602960248201527f4552433732313a206f776e657220717565727920666f72206e6f6e657869737460448201526832b73a103a37b5b2b760b91b60648201526084016106ca565b336000908152600b602052604090205460ff16151560011461148b5760405162461bcd60e51b81526004016106ca906131f6565b6001600160a01b0381166000818152600b6020526040808220805460ff19166001908117909155600c8054918201815583527fdf6966c971051c3d54ec59162606531493a51404a002842f56009d7e5cf4a8c70180546001600160a01b031916841790555142929133917fa0b18fca933618876351ba2ef88bf4505c184d3e55064bec0d7fe236dd706d849190a450565b60006001600160a01b0382166115875760405162461bcd60e51b815260206004820152602a60248201527f4552433732313a2062616c616e636520717565727920666f7220746865207a65604482015269726f206164647265737360b01b60648201526084016106ca565b506001600160a01b031660009081526003602052604090205490565b6060600180546105df906131bb565b336000908152600b602052604090205460ff1615156001146115e65760405162461bcd60e51b81526004016106ca906131f6565b8051610bc4906016906020840190612d76565b6060600c80548060200260200160405190810160405280929190818152602001828054801561065857602002820191906000526020600020905b81546001600160a01b03168152600190910190602001808311611633575050505050905090565b610bc433838361239d565b336000908152600b602052604090205460ff1615156001146116995760405162461bcd60e51b81526004016106ca906131f6565b601255565b336000908152600b602052604090205460ff1615156001146116d25760405162461bcd60e51b81526004016106ca906131f6565b601055565b601454604080516318160ddd60e01b815290516000926001600160a01b0316916318160ddd9160048083019260209291908290030181865afa158015611721573d6000803e3d6000fd5b505050506040513d601f19601f820116820180604052508101906117459190613226565b6117536301e13380846108c5565b61175e90606461326d565b6105ca91906132a2565b336000908152600b602052604090205460ff166117a257600d5460ff16156117a25760405162461bcd60e51b81526004016106ca90613365565b6117ab81612022565b6117f75760405162461bcd60e51b815260206004820152601760248201527f546f6b656e20494420646f6573206e6f7420657869737400000000000000000060448201526064016106ca565b33611801826113e0565b6001600160a01b0316146118575760405162461bcd60e51b815260206004820152601e60248201527f53656e64657220646f6573206e6f74206f776e207468697320746f6b656e000060448201526064016106ca565b600061186282610bd8565b90508015610bc457600082815260186020526040908190204260039091015560145490516370a0823160e01b815230600482015282916001600160a01b0316906370a0823190602401602060405180830381865afa1580156118c8573d6000803e3d6000fd5b505050506040513d601f19601f820116820180604052508101906118ec9190613226565b101561194d5760405162461bcd60e51b815260206004820152602a60248201527f4e6f7420656e6f75676820636f6e747261637420746f6b656e2062616c616e636044820152696520746f20636c61696d60b01b60648201526084016106ca565b60145460405163095ea7b360e01b8152306004820152602481018390526001600160a01b039091169063095ea7b3906044016020604051808303816000875af115801561199e573d6000803e3d6000fd5b505050506040513d601f19601f820116820180604052508101906119c291906134a4565b506014546040516323b872dd60e01b8152306004820152336024820152604481018390526001600160a01b03909116906323b872dd906064016020604051808303816000875af1158015611a1a573d6000803e3d6000fd5b505050506040513d601f19601f82011682018060405250810190611a3e91906134a4565b611a825760405162461bcd60e51b8152602060048201526015602482015274151bdad95b881d1c985b9cd9995c8819985a5b1959605a1b60448201526064016106ca565b6040805133815260208101839052428183015290517f987d620f307ff6b94d58743cb7a7509f24071586a77759b77c2d4e29f75a2f9a9181900360600190a15050565b336000908152600b602052604090205460ff161515600114611af95760405162461bcd60e51b81526004016106ca906131f6565b600e55565b611b0833836120ad565b611b245760405162461bcd60e51b81526004016106ca90613314565b611b308484848461246c565b50505050565b336000908152600b602052604090205460ff16611b7057600d5460ff1615611b705760405162461bcd60e51b81526004016106ca90613365565b601460009054906101000a90046001600160a01b03166001600160a01b031663313ce5676040518163ffffffff1660e01b8152600401602060405180830381865afa158015611bc3573d6000803e3d6000fd5b505050506040513d601f19601f82011682018060405250810190611be7919061338e565b611bf290600a613495565b611bfc908261326d565b6014546040516370a0823160e01b815233600482015291925082916001600160a01b03909116906370a0823190602401602060405180830381865afa158015611c49573d6000803e3d6000fd5b505050506040513d601f19601f82011682018060405250810190611c6d9190613226565b1015611cb35760405162461bcd60e51b8152602060048201526015602482015274546f6b656e2062616c616e636520746f6f206c6f7760581b60448201526064016106ca565b601454604051636eb1769f60e11b815233600482015230602482015282916001600160a01b03169063dd62ed3e90604401602060405180830381865afa158015611d01573d6000803e3d6000fd5b505050506040513d601f19601f82011682018060405250810190611d259190613226565b1015611d6a5760405162461bcd60e51b81526020600482015260146024820152734e6f7420656e6f75676820616c6c6f77616e636560601b60448201526064016106ca565b611d7382611768565b6000828152601860205260409020601154815410611dd35760405162461bcd60e51b815260206004820152601d60248201527f54686973204e465420697320616c7265616479206d6178206c6576656c00000060448201526064016106ca565b6014546040805163313ce56760e01b815290516000926001600160a01b03169163313ce5679160048083019260209291908290030181865afa158015611e1d573d6000803e3d6000fd5b505050506040513d601f19601f82011682018060405250810190611e41919061338e565b611e4c90600a613495565b601254611e59919061326d565b90506000838360020154611e6d9190613255565b90506000611e7b83836132a2565b905060006011548210611ebb5783601154611e96919061326d565b611ea090846132cc565b9050611eac81846132cc565b60028601556011548555611ec6565b600285018390558185555b611ede87866000015487600101548860020154612358565b6000611eea82886132cc565b6014546040516323b872dd60e01b8152336004820152306024820152604481018390529192506001600160a01b0316906323b872dd906064016020604051808303816000875af1158015611f42573d6000803e3d6000fd5b505050506040513d601f19601f82011682018060405250810190611f6691906134a4565b611fa95760405162461bcd60e51b8152602060048201526014602482015273151bdad95b881c185e5b595b9d0819985a5b195960621b60448201526064016106ca565b6040805133815260208101839052428183015290517f820cea42e8517cf1ec6d4e9db93909255f07c45f7eb0a7c7b5a0f8bdcfc2e5bf9181900360600190a15050505050505050565b60606105ca8261249f565b60006001600160e01b0319821663780e9d6360e01b14806105ca57506105ca82612601565b6000908152600260205260409020546001600160a01b0316151590565b600081815260046020526040902080546001600160a01b0319166001600160a01b0384169081179091558190612074826113e0565b6001600160a01b03167f8c5be1e5ebec7d5bd14f71427d1e84f3dd0314c0f7b2291e5b200ac8c7c3b92560405160405180910390a45050565b60006120b882612022565b6121195760405162461bcd60e51b815260206004820152602c60248201527f4552433732313a206f70657261746f7220717565727920666f72206e6f6e657860448201526b34b9ba32b73a103a37b5b2b760a11b60648201526084016106ca565b6000612124836113e0565b9050806001600160a01b0316846001600160a01b0316148061215f5750836001600160a01b031661215484610662565b6001600160a01b0316145b80610c5f57506001600160a01b0380821660009081526005602090815260408083209388168352929052205460ff16610c5f565b826001600160a01b03166121a6826113e0565b6001600160a01b03161461220e5760405162461bcd60e51b815260206004820152602960248201527f4552433732313a207472616e73666572206f6620746f6b656e2074686174206960448201526839903737ba1037bbb760b91b60648201526084016106ca565b6001600160a01b0382166122705760405162461bcd60e51b8152602060048201526024808201527f4552433732313a207472616e7366657220746f20746865207a65726f206164646044820152637265737360e01b60648201526084016106ca565b61227b838383612651565b61228660008261203f565b6001600160a01b03831660009081526003602052604081208054600192906122af9084906132cc565b90915550506001600160a01b03821660009081526003602052604081208054600192906122dd908490613255565b909155505060008181526002602052604080822080546001600160a01b0319166001600160a01b0386811691821790925591518493918716917fddf252ad1be2c89b69c2b068fc378daa952ba7f163c4a11628f55a4df523b3ef91a4505050565b610bc482826040518060200160405280600081525061265c565b611b30846123658561268f565b61236e8561268f565b6123778561268f565b604051602001612389939291906134c1565b60405160208183030381529060405261278d565b816001600160a01b0316836001600160a01b031614156123ff5760405162461bcd60e51b815260206004820152601960248201527f4552433732313a20617070726f766520746f2063616c6c65720000000000000060448201526064016106ca565b6001600160a01b03838116600081815260056020908152604080832094871680845294825291829020805460ff191686151590811790915591519182527f17307eab39ab6107e8899845ad3d59bd9653f200f220920489ca2b5937696c31910160405180910390a3505050565b612477848484612193565b61248384848484612818565b611b305760405162461bcd60e51b81526004016106ca90613549565b60606124aa82612022565b6125105760405162461bcd60e51b815260206004820152603160248201527f45524337323155524953746f726167653a2055524920717565727920666f72206044820152703737b732bc34b9ba32b73a103a37b5b2b760791b60648201526084016106ca565b6000828152600a602052604081208054612529906131bb565b80601f0160208091040260200160405190810160405280929190818152602001828054612555906131bb565b80156125a25780601f10612577576101008083540402835291602001916125a2565b820191906000526020600020905b81548152906001019060200180831161258557829003601f168201915b5050505050905060006125b3612916565b90508051600014156125c6575092915050565b8151156125f85780826040516020016125e092919061359b565b60405160208183030381529060405292505050919050565b610c5f84612925565b60006001600160e01b031982166380ac58cd60e01b148061263257506001600160e01b03198216635b5e139f60e01b145b806105ca57506301ffc9a760e01b6001600160e01b03198316146105ca565b6108008383836129ef565b6126668383612aa7565b6126736000848484612818565b6108005760405162461bcd60e51b81526004016106ca90613549565b6060816126b35750506040805180820190915260018152600360fc1b602082015290565b8160005b81156126dd57806126c7816132e3565b91506126d69050600a836132a2565b91506126b7565b60008167ffffffffffffffff8111156126f8576126f8612fb3565b6040519080825280601f01601f191660200182016040528015612722576020820181803683370190505b5090505b8415610c5f576127376001836132cc565b9150612744600a866135ca565b61274f906030613255565b60f81b818381518110612764576127646132b6565b60200101906001600160f81b031916908160001a905350612786600a866132a2565b9450612726565b61279682612022565b6127f95760405162461bcd60e51b815260206004820152602e60248201527f45524337323155524953746f726167653a2055524920736574206f66206e6f6e60448201526d32bc34b9ba32b73a103a37b5b2b760911b60648201526084016106ca565b6000828152600a60209081526040909120825161080092840190612d76565b60006001600160a01b0384163b1561290b57604051630a85bd0160e11b81526001600160a01b0385169063150b7a029061285c9033908990889088906004016135de565b6020604051808303816000875af1925050508015612897575060408051601f3d908101601f191682019092526128949181019061361b565b60015b6128f1573d8080156128c5576040519150601f19603f3d011682016040523d82523d6000602084013e6128ca565b606091505b5080516128e95760405162461bcd60e51b81526004016106ca90613549565b805181602001fd5b6001600160e01b031916630a85bd0160e11b149050610c5f565b506001949350505050565b6060601680546105df906131bb565b606061293082612022565b6129945760405162461bcd60e51b815260206004820152602f60248201527f4552433732314d657461646174613a2055524920717565727920666f72206e6f60448201526e3732bc34b9ba32b73a103a37b5b2b760891b60648201526084016106ca565b600061299e612916565b905060008151116129be5760405180602001604052806000815250610960565b806129c88461268f565b6040516020016129d992919061359b565b6040516020818303038152906040529392505050565b6001600160a01b038316612a4a57612a4581600880546000838152600960205260408120829055600182018355919091527ff3f7a9fe364faab93b216da50a3214154f22a0a2b415b23a84c8169e8b636ee30155565b612a6d565b816001600160a01b0316836001600160a01b031614612a6d57612a6d8382612be6565b6001600160a01b038216612a845761080081612c83565b826001600160a01b0316826001600160a01b031614610800576108008282612d32565b6001600160a01b038216612afd5760405162461bcd60e51b815260206004820181905260248201527f4552433732313a206d696e7420746f20746865207a65726f206164647265737360448201526064016106ca565b612b0681612022565b15612b535760405162461bcd60e51b815260206004820152601c60248201527f4552433732313a20746f6b656e20616c7265616479206d696e7465640000000060448201526064016106ca565b612b5f60008383612651565b6001600160a01b0382166000908152600360205260408120805460019290612b88908490613255565b909155505060008181526002602052604080822080546001600160a01b0319166001600160a01b03861690811790915590518392907fddf252ad1be2c89b69c2b068fc378daa952ba7f163c4a11628f55a4df523b3ef908290a45050565b60006001612bf38461151c565b612bfd91906132cc565b600083815260076020526040902054909150808214612c50576001600160a01b03841660009081526006602090815260408083208584528252808320548484528184208190558352600790915290208190555b5060009182526007602090815260408084208490556001600160a01b039094168352600681528383209183525290812055565b600854600090612c95906001906132cc565b60008381526009602052604081205460088054939450909284908110612cbd57612cbd6132b6565b906000526020600020015490508060088381548110612cde57612cde6132b6565b6000918252602080832090910192909255828152600990915260408082208490558582528120556008805480612d1657612d166132fe565b6001900381819060005260206000200160009055905550505050565b6000612d3d8361151c565b6001600160a01b039093166000908152600660209081526040808320868452825280832085905593825260079052919091209190915550565b828054612d82906131bb565b90600052602060002090601f016020900481019282612da45760008555612dea565b82601f10612dbd57805160ff1916838001178555612dea565b82800160010185558215612dea579182015b82811115612dea578251825591602001919060010190612dcf565b50612df6929150612dfa565b5090565b5b80821115612df65760008155600101612dfb565b6001600160e01b031981168114612e2557600080fd5b50565b600060208284031215612e3a57600080fd5b813561096081612e0f565b60005b83811015612e60578181015183820152602001612e48565b83811115611b305750506000910152565b60008151808452612e89816020860160208601612e45565b601f01601f19169290920160200192915050565b6020815260006109606020830184612e71565b600060208284031215612ec257600080fd5b5035919050565b80356001600160a01b0381168114612ee057600080fd5b919050565b60008060408385031215612ef857600080fd5b612f0183612ec9565b946020939093013593505050565b60008060408385031215612f2257600080fd5b50508035926020909101359150565b600060208284031215612f4357600080fd5b61096082612ec9565b600080600060608486031215612f6157600080fd5b612f6a84612ec9565b9250612f7860208501612ec9565b9150604084013590509250925092565b8015158114612e2557600080fd5b600060208284031215612fa857600080fd5b813561096081612f88565b634e487b7160e01b600052604160045260246000fd5b600067ffffffffffffffff80841115612fe457612fe4612fb3565b604051601f8501601f19908116603f0116810190828211818310171561300c5761300c612fb3565b8160405280935085815286868601111561302557600080fd5b858560208301376000602087830101525050509392505050565b60006020828403121561305157600080fd5b813567ffffffffffffffff81111561306857600080fd5b8201601f8101841361307957600080fd5b610c5f84823560208401612fc9565b6020808252825182820181905260009190848201906040850190845b818110156130c95783516001600160a01b0316835292840192918401916001016130a4565b50909695505050505050565b600080604083850312156130e857600080fd5b6130f183612ec9565b9150602083013561310181612f88565b809150509250929050565b6000806000806080858703121561312257600080fd5b61312b85612ec9565b935061313960208601612ec9565b925060408501359150606085013567ffffffffffffffff81111561315c57600080fd5b8501601f8101871361316d57600080fd5b61317c87823560208401612fc9565b91505092959194509250565b6000806040838503121561319b57600080fd5b6131a483612ec9565b91506131b260208401612ec9565b90509250929050565b600181811c908216806131cf57607f821691505b602082108114156131f057634e487b7160e01b600052602260045260246000fd5b50919050565b60208082526016908201527521b0b63632b91034b9903737ba1030b71037bbb732b960511b604082015260600190565b60006020828403121561323857600080fd5b5051919050565b634e487b7160e01b600052601160045260246000fd5b600082198211156132685761326861323f565b500190565b60008160001904831182151516156132875761328761323f565b500290565b634e487b7160e01b600052601260045260246000fd5b6000826132b1576132b161328c565b500490565b634e487b7160e01b600052603260045260246000fd5b6000828210156132de576132de61323f565b500390565b60006000198214156132f7576132f761323f565b5060010190565b634e487b7160e01b600052603160045260246000fd5b60208082526031908201527f4552433732313a207472616e736665722063616c6c6572206973206e6f74206f6040820152701ddb995c881b9bdc88185c1c1c9bdd9959607a1b606082015260800190565b6020808252600f908201526e10dbdb9d1c9858dd081c185d5cd959608a1b604082015260600190565b6000602082840312156133a057600080fd5b815160ff8116811461096057600080fd5b600181815b808511156133ec5781600019048211156133d2576133d261323f565b808516156133df57918102915b93841c93908002906133b6565b509250929050565b600082613403575060016105ca565b81613410575060006105ca565b816001811461342657600281146134305761344c565b60019150506105ca565b60ff8411156134415761344161323f565b50506001821b6105ca565b5060208310610133831016604e8410600b841016171561346f575081810a6105ca565b61347983836133b1565b806000190482111561348d5761348d61323f565b029392505050565b600061096060ff8416836133f4565b6000602082840312156134b657600080fd5b815161096081612f88565b656c6576656c3d60d01b8152600084516134e2816006850160208901612e45565b6a266269727468446174653d60a81b600691840191820152845161350d816011840160208901612e45565b6d266c6f636b6564416d6f756e743d60901b60119290910191820152835161353c81601f840160208801612e45565b01601f0195945050505050565b60208082526032908201527f4552433732313a207472616e7366657220746f206e6f6e20455243373231526560408201527131b2b4bb32b91034b6b83632b6b2b73a32b960711b606082015260800190565b600083516135ad818460208801612e45565b8351908301906135c1818360208801612e45565b01949350505050565b6000826135d9576135d961328c565b500690565b6001600160a01b038581168252841660208201526040810183905260806060820181905260009061361190830184612e71565b9695505050505050565b60006020828403121561362d57600080fd5b815161096081612e0f56fea2646970667358221220c65cb173401b4316c019ad2f150088db839d4473ac5ecb653e589d944670a00964736f6c634300080b003368747470733a2f2f736c696d656b65657065722d7765622d6465762e6865726f6b756170702e636f6d2f6170692f6e66742f646174613f",
  "immutableReferences": {},
  "source": "// SPDX-License-Identifier: MIT\n\npragma solidity >=0.4.22 <0.9.0;\n\nimport \"./PauseOwners.sol\";\nimport \"./Token.sol\";\nimport \"@openzeppelin/contracts/token/ERC721/ERC721.sol\";\nimport \"@openzeppelin/contracts/token/ERC721/extensions/ERC721Enumerable.sol\";\nimport \"@openzeppelin/contracts/token/ERC721/extensions/ERC721URIStorage.sol\";\nimport \"@openzeppelin/contracts/utils/Counters.sol\";\nimport \"@openzeppelin/contracts/utils/Strings.sol\";\n\ncontract NFT is ERC721, ERC721Enumerable, ERC721URIStorage, PauseOwners {\n\tusing Counters for Counters.Counter;\n\tusing Strings for uint256;\n\n\tevent Minted(address minter, uint256 amount, uint256 date);\n\tevent Compounded(address compounder, uint256 amount, uint256 date);\n\tevent Claimed(address claimer, uint256 amount, uint256 date);\n\n\tuint256 public addressMax = 5; // Max NFTs per address\n\tuint256 public supplyMax = 1000; // Max total supply cap\n\tuint256 public mintPrice = 100; // Mint price of one NFT in tokens\n\tuint256 public maxTokenLevel = 10; // Amount of levels an individual NFT can be upgraded\n\tuint256 public tokensPerLevel = 100; // Amount of tokens needed to upgrade an NFT (one level)\n\tuint256 public rewardDivisor = 690000000; // Divisor variable for affecting token generation rate\n\n\tToken private token;\n\n\tCounters.Counter private tokenIds;\n\n\tstring private nftBaseURI =\n\t\t\"https://slimekeeper-web-dev.herokuapp.com/api/nft/data?\";\n\n\tmapping(address => uint256) private amountMinted;\n\tmapping(uint256 => NFTData) private nftData; // Store NFT Data for invidividual token\n\n\t// Represents in-game properties\n\tstruct NFTData {\n\t\tuint256 level; // Current level of NFT\n\t\tuint256 birthDate; // Date this NFT was minted\n\t\tuint256 lockedAmount; // Amount of tokens currently locked in this NFT\n\t\tuint256 lastClaimedDate; // Date last rewards were last claimed, if not claimed once, same as birth\n\n\t\t// Other in-game properties here and API configured to show them\n\t}\n\n\tconstructor() ERC721(\"NFT\", \"NFT\") {}\n\n\tfunction mint(address to, uint256 amount) public checkPaused {\n\t\trequire(totalSupply() < supplyMax, \"Max supply has been reached\");\n\t\trequire(\n\t\t\tamountMinted[to] + amount <= addressMax,\n\t\t\t\"Max mint exceeded for this address\"\n\t\t);\n\t\trequire(\n\t\t\tamountMinted[to] + amount <= supplyMax,\n\t\t\t\"This mint would exceed supply cap\"\n\t\t);\n\t\tuint256 totalMintPrice = amount * mintPrice * 10**token.decimals();\n\t\trequire(\n\t\t\ttoken.balanceOf(msg.sender) >= totalMintPrice,\n\t\t\t\"Token balance too low\"\n\t\t);\n\t\trequire(\n\t\t\ttoken.allowance(msg.sender, address(this)) >= totalMintPrice,\n\t\t\t\"Not enough allowance\"\n\t\t);\n\t\tuint256 birthDate = block.timestamp;\n\t\tfor (uint256 i = 0; i < amount; i++) {\n\t\t\tuint256 currTokenId = tokenIds.current();\n\t\t\t_safeMint(to, currTokenId);\n\t\t\tupdateTokenUri(currTokenId, birthDate, 1, 0);\n\t\t\tnftData[currTokenId] = NFTData({\n\t\t\t\tlevel: 0,\n\t\t\t\tbirthDate: birthDate,\n\t\t\t\tlockedAmount: 0,\n\t\t\t\tlastClaimedDate: birthDate\n\t\t\t});\n\t\t\ttokenIds.increment();\n\t\t}\n\t\tamountMinted[to] += amount;\n\t\trequire(\n\t\t\ttoken.transferFrom(msg.sender, address(this), totalMintPrice),\n\t\t\t\"Token payment failed\"\n\t\t);\n\t\temit Minted(to, amount, birthDate);\n\t}\n\n\tfunction compound(uint256 tokenId, uint256 amountToken) public checkPaused {\n\t\tamountToken *= 10**token.decimals();\n\t\trequire(\n\t\t\ttoken.balanceOf(msg.sender) >= amountToken,\n\t\t\t\"Token balance too low\"\n\t\t);\n\t\trequire(\n\t\t\ttoken.allowance(msg.sender, address(this)) >= amountToken,\n\t\t\t\"Not enough allowance\"\n\t\t);\n\t\tclaimReward(tokenId); // Claim before compounding\n\t\tNFTData storage data = nftData[tokenId];\n\t\trequire(data.level < maxTokenLevel, \"This NFT is already max level\");\n\t\tuint256 tokensPerLevelDecimals = tokensPerLevel * 10**token.decimals();\n\t\tuint256 newLocked = data.lockedAmount + amountToken;\n\t\tuint256 newLevel = newLocked / tokensPerLevelDecimals;\n\t\tuint256 excessAmount = 0;\n\t\tif (newLevel >= maxTokenLevel) {\n\t\t\texcessAmount = newLocked - (maxTokenLevel * tokensPerLevelDecimals);\n\t\t\tdata.lockedAmount = newLocked - excessAmount;\n\t\t\tdata.level = maxTokenLevel;\n\t\t} else {\n\t\t\tdata.lockedAmount = newLocked;\n\t\t\tdata.level = newLevel;\n\t\t}\n\t\tupdateTokenUri(tokenId, data.level, data.birthDate, data.lockedAmount);\n\t\tuint256 finalAmountToken = amountToken - excessAmount;\n\t\trequire(\n\t\t\ttoken.transferFrom(msg.sender, address(this), finalAmountToken),\n\t\t\t\"Token payment failed\"\n\t\t);\n\t\temit Compounded(msg.sender, finalAmountToken, block.timestamp);\n\t}\n\n\tfunction claimReward(uint256 tokenId) public checkPaused {\n\t\trequire(_exists(tokenId), \"Token ID does not exist\");\n\t\trequire(\n\t\t\townerOf(tokenId) == msg.sender,\n\t\t\t\"Sender does not own this token\"\n\t\t);\n\t\tuint256 amountReward = getReward(tokenId);\n\t\tif (amountReward > 0) {\n\t\t\tnftData[tokenId].lastClaimedDate = block.timestamp;\n\t\t\trequire(\n\t\t\t\ttoken.balanceOf(address(this)) >= amountReward,\n\t\t\t\t\"Not enough contract token balance to claim\"\n\t\t\t);\n\t\t\ttoken.approve(address(this), amountReward);\n\t\t\trequire(\n\t\t\t\ttoken.transferFrom(address(this), msg.sender, amountReward),\n\t\t\t\t\"Token transfer failed\"\n\t\t\t);\n\t\t\temit Claimed(msg.sender, amountReward, block.timestamp);\n\t\t}\n\t}\n\n\tfunction getReward(uint256 tokenId) public view returns (uint256) {\n\t\trequire(_exists(tokenId), \"This token ID does not exist\");\n\t\tNFTData storage data = nftData[tokenId];\n\t\tuint256 timeSinceLastClaim = block.timestamp - data.lastClaimedDate;\n\t\treturn calculateReward(timeSinceLastClaim, data.level);\n\t}\n\n\t// Return the approximate APR considering certain level\n\tfunction approxAPR(uint256 level) external view returns (uint256) {\n\t\treturn (calculateReward(365 days, level) * 100) / token.totalSupply();\n\t}\n\n\tfunction calculateReward(uint256 time, uint256 level)\n\t\tpublic\n\t\tview\n\t\treturns (uint256)\n\t{\n\t\treturn (time * (level + 1) * token.totalSupply()) / rewardDivisor;\n\t}\n\n\tfunction getNFTData(uint256 tokenId)\n\t\texternal\n\t\tview\n\t\treturns (\n\t\t\tuint256,\n\t\t\tuint256,\n\t\t\tuint256,\n\t\t\tuint256\n\t\t)\n\t{\n\t\trequire(_exists(tokenId), \"This token ID does not exist\");\n\t\tNFTData storage data = nftData[tokenId];\n\t\treturn (\n\t\t\tdata.level,\n\t\t\tdata.birthDate,\n\t\t\tdata.lockedAmount,\n\t\t\tdata.lastClaimedDate\n\t\t);\n\t}\n\n\tfunction setAddressMax(uint256 newMax) external onlyOwners {\n\t\taddressMax = newMax;\n\t}\n\n\tfunction setSupplyMax(uint256 newMax) external onlyOwners {\n\t\tsupplyMax = newMax;\n\t}\n\n\tfunction setMintPrice(uint256 newPrice) external onlyOwners {\n\t\tmintPrice = newPrice;\n\t}\n\n\tfunction setMaxTokenLevel(uint256 newLevel) external onlyOwners {\n\t\tmintPrice = newLevel;\n\t}\n\n\tfunction setTokensPerLevel(uint256 newTokensPerLevel) external onlyOwners {\n\t\ttokensPerLevel = newTokensPerLevel;\n\t}\n\n\tfunction setRewardDivisor(uint256 newRewardDivisor) external onlyOwners {\n\t\trewardDivisor = newRewardDivisor;\n\t}\n\n\tfunction setTokenAddress(address newTokenAddress) external onlyOwners {\n\t\ttoken = Token(payable(newTokenAddress));\n\t}\n\n\tfunction setBaseUri(string memory newBaseURI) external onlyOwners {\n\t\tnftBaseURI = newBaseURI;\n\t}\n\n\tfunction totalSupply() public view override returns (uint256) {\n\t\treturn tokenIds.current();\n\t}\n\n\tfunction updateTokenUri(\n\t\tuint256 tokenId,\n\t\tuint256 level,\n\t\tuint256 birthDate,\n\t\tuint256 lockedAmount\n\t) private {\n\t\t_setTokenURI(\n\t\t\ttokenId,\n\t\t\tstring(\n\t\t\t\tabi.encodePacked(\n\t\t\t\t\t\"level=\",\n\t\t\t\t\tlevel.toString(),\n\t\t\t\t\t\"&birthDate=\",\n\t\t\t\t\tbirthDate.toString(),\n\t\t\t\t\t\"&lockedAmount=\",\n\t\t\t\t\tlockedAmount.toString()\n\t\t\t\t)\n\t\t\t)\n\t\t);\n\t}\n\n\tfunction _baseURI() internal view override returns (string memory) {\n\t\treturn nftBaseURI;\n\t}\n\n\t// The following functions are overrides required by Solidity.\n\tfunction _beforeTokenTransfer(\n\t\taddress from,\n\t\taddress to,\n\t\tuint256 tokenId\n\t) internal override(ERC721, ERC721Enumerable) {\n\t\tsuper._beforeTokenTransfer(from, to, tokenId);\n\t}\n\n\tfunction _burn(uint256 tokenId)\n\t\tinternal\n\t\toverride(ERC721, ERC721URIStorage)\n\t{\n\t\tsuper._burn(tokenId);\n\t}\n\n\tfunction tokenURI(uint256 tokenId)\n\t\tpublic\n\t\tview\n\t\toverride(ERC721, ERC721URIStorage)\n\t\treturns (string memory)\n\t{\n\t\treturn super.tokenURI(tokenId);\n\t}\n\n\tfunction supportsInterface(bytes4 interfaceId)\n\t\tpublic\n\t\tview\n\t\toverride(ERC721, ERC721Enumerable)\n\t\treturns (bool)\n\t{\n\t\treturn super.supportsInterface(interfaceId);\n\t}\n}\n",
  "sourcePath": "C:\\Users\\sants\\Desktop\\slimekeeper\\slimekeeper_contracts\\contracts\\NFT.sol",
  "compiler": {
    "name": "solc",
    "version": "0.8.11+commit.d7f03943.Emscripten.clang"
  },
  "schemaVersion": "3.4.4",
  "updatedAt": "2022-02-18T15:13:06.235Z",
  "networkType": "ethereum",
  "devdoc": {
    "kind": "dev",
    "methods": {
      "approve(address,uint256)": {
        "details": "See {IERC721-approve}."
      },
      "balanceOf(address)": {
        "details": "See {IERC721-balanceOf}."
      },
      "getApproved(uint256)": {
        "details": "See {IERC721-getApproved}."
      },
      "isApprovedForAll(address,address)": {
        "details": "See {IERC721-isApprovedForAll}."
      },
      "name()": {
        "details": "See {IERC721Metadata-name}."
      },
      "ownerOf(uint256)": {
        "details": "See {IERC721-ownerOf}."
      },
      "safeTransferFrom(address,address,uint256)": {
        "details": "See {IERC721-safeTransferFrom}."
      },
      "safeTransferFrom(address,address,uint256,bytes)": {
        "details": "See {IERC721-safeTransferFrom}."
      },
      "setApprovalForAll(address,bool)": {
        "details": "See {IERC721-setApprovalForAll}."
      },
      "symbol()": {
        "details": "See {IERC721Metadata-symbol}."
      },
      "tokenByIndex(uint256)": {
        "details": "See {IERC721Enumerable-tokenByIndex}."
      },
      "tokenOfOwnerByIndex(address,uint256)": {
        "details": "See {IERC721Enumerable-tokenOfOwnerByIndex}."
      },
      "totalSupply()": {
        "details": "See {IERC721Enumerable-totalSupply}."
      },
      "transferFrom(address,address,uint256)": {
        "details": "See {IERC721-transferFrom}."
      }
    },
    "version": 1
  },
  "userdoc": {
    "kind": "user",
    "methods": {},
    "version": 1
  }
}