{
  "contractName": "NFT",
  "abi": [
    {
      "inputs": [],
      "stateMutability": "nonpayable",
      "type": "constructor"
    },
    {
      "anonymous": false,
      "inputs": [
        {
          "indexed": true,
          "internalType": "address",
          "name": "owner",
          "type": "address"
        },
        {
          "indexed": true,
          "internalType": "address",
          "name": "approved",
          "type": "address"
        },
        {
          "indexed": true,
          "internalType": "uint256",
          "name": "tokenId",
          "type": "uint256"
        }
      ],
      "name": "Approval",
      "type": "event"
    },
    {
      "anonymous": false,
      "inputs": [
        {
          "indexed": true,
          "internalType": "address",
          "name": "owner",
          "type": "address"
        },
        {
          "indexed": true,
          "internalType": "address",
          "name": "operator",
          "type": "address"
        },
        {
          "indexed": false,
          "internalType": "bool",
          "name": "approved",
          "type": "bool"
        }
      ],
      "name": "ApprovalForAll",
      "type": "event"
    },
    {
      "anonymous": false,
      "inputs": [
        {
          "indexed": false,
          "internalType": "address",
          "name": "claimer",
          "type": "address"
        },
        {
          "indexed": false,
          "internalType": "uint256",
          "name": "amount",
          "type": "uint256"
        },
        {
          "indexed": false,
          "internalType": "uint256",
          "name": "date",
          "type": "uint256"
        }
      ],
      "name": "Claimed",
      "type": "event"
    },
    {
      "anonymous": false,
      "inputs": [
        {
          "indexed": false,
          "internalType": "address",
          "name": "compounder",
          "type": "address"
        },
        {
          "indexed": false,
          "internalType": "uint256",
          "name": "amount",
          "type": "uint256"
        },
        {
          "indexed": false,
          "internalType": "uint256",
          "name": "date",
          "type": "uint256"
        }
      ],
      "name": "Compounded",
      "type": "event"
    },
    {
      "anonymous": false,
      "inputs": [
        {
          "indexed": false,
          "internalType": "address",
          "name": "minter",
          "type": "address"
        },
        {
          "indexed": false,
          "internalType": "uint256",
          "name": "amount",
          "type": "uint256"
        },
        {
          "indexed": false,
          "internalType": "uint256",
          "name": "date",
          "type": "uint256"
        }
      ],
      "name": "Minted",
      "type": "event"
    },
    {
      "anonymous": false,
      "inputs": [
        {
          "indexed": true,
          "internalType": "address",
          "name": "adder",
          "type": "address"
        },
        {
          "indexed": true,
          "internalType": "address",
          "name": "owner",
          "type": "address"
        },
        {
          "indexed": true,
          "internalType": "uint256",
          "name": "timestamp",
          "type": "uint256"
        }
      ],
      "name": "OwnerAdded",
      "type": "event"
    },
    {
      "anonymous": false,
      "inputs": [
        {
          "indexed": true,
          "internalType": "address",
          "name": "remover",
          "type": "address"
        },
        {
          "indexed": true,
          "internalType": "address",
          "name": "removed",
          "type": "address"
        },
        {
          "indexed": true,
          "internalType": "uint256",
          "name": "timestamp",
          "type": "uint256"
        }
      ],
      "name": "OwnerRemoved",
      "type": "event"
    },
    {
      "anonymous": false,
      "inputs": [],
      "name": "OwnershipRenounced",
      "type": "event"
    },
    {
      "anonymous": false,
      "inputs": [
        {
          "indexed": true,
          "internalType": "address",
          "name": "from",
          "type": "address"
        },
        {
          "indexed": true,
          "internalType": "address",
          "name": "to",
          "type": "address"
        },
        {
          "indexed": true,
          "internalType": "uint256",
          "name": "tokenId",
          "type": "uint256"
        }
      ],
      "name": "Transfer",
      "type": "event"
    },
    {
      "inputs": [
        {
          "internalType": "address",
          "name": "owner",
          "type": "address"
        }
      ],
      "name": "addOwner",
      "outputs": [],
      "stateMutability": "nonpayable",
      "type": "function"
    },
    {
      "inputs": [],
      "name": "addressMax",
      "outputs": [
        {
          "internalType": "uint256",
          "name": "",
          "type": "uint256"
        }
      ],
      "stateMutability": "view",
      "type": "function",
      "constant": true
    },
    {
      "inputs": [
        {
          "internalType": "address",
          "name": "to",
          "type": "address"
        },
        {
          "internalType": "uint256",
          "name": "tokenId",
          "type": "uint256"
        }
      ],
      "name": "approve",
      "outputs": [],
      "stateMutability": "nonpayable",
      "type": "function"
    },
    {
      "inputs": [
        {
          "internalType": "address",
          "name": "owner",
          "type": "address"
        }
      ],
      "name": "balanceOf",
      "outputs": [
        {
          "internalType": "uint256",
          "name": "",
          "type": "uint256"
        }
      ],
      "stateMutability": "view",
      "type": "function",
      "constant": true
    },
    {
      "inputs": [
        {
          "internalType": "uint256",
          "name": "tokenId",
          "type": "uint256"
        }
      ],
      "name": "getApproved",
      "outputs": [
        {
          "internalType": "address",
          "name": "",
          "type": "address"
        }
      ],
      "stateMutability": "view",
      "type": "function",
      "constant": true
    },
    {
      "inputs": [],
      "name": "getOwners",
      "outputs": [
        {
          "internalType": "address[]",
          "name": "",
          "type": "address[]"
        }
      ],
      "stateMutability": "view",
      "type": "function",
      "constant": true
    },
    {
      "inputs": [
        {
          "internalType": "address",
          "name": "owner",
          "type": "address"
        },
        {
          "internalType": "address",
          "name": "operator",
          "type": "address"
        }
      ],
      "name": "isApprovedForAll",
      "outputs": [
        {
          "internalType": "bool",
          "name": "",
          "type": "bool"
        }
      ],
      "stateMutability": "view",
      "type": "function",
      "constant": true
    },
    {
      "inputs": [
        {
          "internalType": "address",
          "name": "owner",
          "type": "address"
        }
      ],
      "name": "isOwner",
      "outputs": [
        {
          "internalType": "bool",
          "name": "",
          "type": "bool"
        }
      ],
      "stateMutability": "view",
      "type": "function",
      "constant": true
    },
    {
      "inputs": [],
      "name": "isPaused",
      "outputs": [
        {
          "internalType": "bool",
          "name": "",
          "type": "bool"
        }
      ],
      "stateMutability": "view",
      "type": "function",
      "constant": true
    },
    {
      "inputs": [],
      "name": "maxTokenLevel",
      "outputs": [
        {
          "internalType": "uint256",
          "name": "",
          "type": "uint256"
        }
      ],
      "stateMutability": "view",
      "type": "function",
      "constant": true
    },
    {
      "inputs": [],
      "name": "mintPrice",
      "outputs": [
        {
          "internalType": "uint256",
          "name": "",
          "type": "uint256"
        }
      ],
      "stateMutability": "view",
      "type": "function",
      "constant": true
    },
    {
      "inputs": [],
      "name": "name",
      "outputs": [
        {
          "internalType": "string",
          "name": "",
          "type": "string"
        }
      ],
      "stateMutability": "view",
      "type": "function",
      "constant": true
    },
    {
      "inputs": [
        {
          "internalType": "uint256",
          "name": "tokenId",
          "type": "uint256"
        }
      ],
      "name": "ownerOf",
      "outputs": [
        {
          "internalType": "address",
          "name": "",
          "type": "address"
        }
      ],
      "stateMutability": "view",
      "type": "function",
      "constant": true
    },
    {
      "inputs": [],
      "name": "presaleEnded",
      "outputs": [
        {
          "internalType": "bool",
          "name": "",
          "type": "bool"
        }
      ],
      "stateMutability": "view",
      "type": "function",
      "constant": true
    },
    {
      "inputs": [],
      "name": "presalePaused",
      "outputs": [
        {
          "internalType": "bool",
          "name": "",
          "type": "bool"
        }
      ],
      "stateMutability": "view",
      "type": "function",
      "constant": true
    },
    {
      "inputs": [],
      "name": "presalePrice",
      "outputs": [
        {
          "internalType": "uint256",
          "name": "",
          "type": "uint256"
        }
      ],
      "stateMutability": "view",
      "type": "function",
      "constant": true
    },
    {
      "inputs": [],
      "name": "presaleSupply",
      "outputs": [
        {
          "internalType": "uint256",
          "name": "",
          "type": "uint256"
        }
      ],
      "stateMutability": "view",
      "type": "function",
      "constant": true
    },
    {
      "inputs": [
        {
          "internalType": "address",
          "name": "owner",
          "type": "address"
        }
      ],
      "name": "removeOwner",
      "outputs": [],
      "stateMutability": "nonpayable",
      "type": "function"
    },
    {
      "inputs": [],
      "name": "renounceOwnership",
      "outputs": [],
      "stateMutability": "nonpayable",
      "type": "function"
    },
    {
      "inputs": [],
      "name": "renounced",
      "outputs": [
        {
          "internalType": "bool",
          "name": "",
          "type": "bool"
        }
      ],
      "stateMutability": "view",
      "type": "function",
      "constant": true
    },
    {
      "inputs": [],
      "name": "rewardRatePercentage",
      "outputs": [
        {
          "internalType": "uint256",
          "name": "",
          "type": "uint256"
        }
      ],
      "stateMutability": "view",
      "type": "function",
      "constant": true
    },
    {
      "inputs": [
        {
          "internalType": "address",
          "name": "from",
          "type": "address"
        },
        {
          "internalType": "address",
          "name": "to",
          "type": "address"
        },
        {
          "internalType": "uint256",
          "name": "tokenId",
          "type": "uint256"
        }
      ],
      "name": "safeTransferFrom",
      "outputs": [],
      "stateMutability": "nonpayable",
      "type": "function"
    },
    {
      "inputs": [
        {
          "internalType": "address",
          "name": "from",
          "type": "address"
        },
        {
          "internalType": "address",
          "name": "to",
          "type": "address"
        },
        {
          "internalType": "uint256",
          "name": "tokenId",
          "type": "uint256"
        },
        {
          "internalType": "bytes",
          "name": "_data",
          "type": "bytes"
        }
      ],
      "name": "safeTransferFrom",
      "outputs": [],
      "stateMutability": "nonpayable",
      "type": "function"
    },
    {
      "inputs": [
        {
          "internalType": "address",
          "name": "operator",
          "type": "address"
        },
        {
          "internalType": "bool",
          "name": "approved",
          "type": "bool"
        }
      ],
      "name": "setApprovalForAll",
      "outputs": [],
      "stateMutability": "nonpayable",
      "type": "function"
    },
    {
      "inputs": [
        {
          "internalType": "bool",
          "name": "isPaused_",
          "type": "bool"
        }
      ],
      "name": "setIsPaused",
      "outputs": [],
      "stateMutability": "nonpayable",
      "type": "function"
    },
    {
      "inputs": [],
      "name": "supplyMax",
      "outputs": [
        {
          "internalType": "uint256",
          "name": "",
          "type": "uint256"
        }
      ],
      "stateMutability": "view",
      "type": "function",
      "constant": true
    },
    {
      "inputs": [],
      "name": "symbol",
      "outputs": [
        {
          "internalType": "string",
          "name": "",
          "type": "string"
        }
      ],
      "stateMutability": "view",
      "type": "function",
      "constant": true
    },
    {
      "inputs": [
        {
          "internalType": "uint256",
          "name": "index",
          "type": "uint256"
        }
      ],
      "name": "tokenByIndex",
      "outputs": [
        {
          "internalType": "uint256",
          "name": "",
          "type": "uint256"
        }
      ],
      "stateMutability": "view",
      "type": "function",
      "constant": true
    },
    {
      "inputs": [
        {
          "internalType": "address",
          "name": "owner",
          "type": "address"
        },
        {
          "internalType": "uint256",
          "name": "index",
          "type": "uint256"
        }
      ],
      "name": "tokenOfOwnerByIndex",
      "outputs": [
        {
          "internalType": "uint256",
          "name": "",
          "type": "uint256"
        }
      ],
      "stateMutability": "view",
      "type": "function",
      "constant": true
    },
    {
      "inputs": [],
      "name": "tokensPerLevel",
      "outputs": [
        {
          "internalType": "uint256",
          "name": "",
          "type": "uint256"
        }
      ],
      "stateMutability": "view",
      "type": "function",
      "constant": true
    },
    {
      "inputs": [
        {
          "internalType": "address",
          "name": "from",
          "type": "address"
        },
        {
          "internalType": "address",
          "name": "to",
          "type": "address"
        },
        {
          "internalType": "uint256",
          "name": "tokenId",
          "type": "uint256"
        }
      ],
      "name": "transferFrom",
      "outputs": [],
      "stateMutability": "nonpayable",
      "type": "function"
    },
    {
      "inputs": [
        {
          "internalType": "address",
          "name": "to",
          "type": "address"
        },
        {
          "internalType": "uint256",
          "name": "amount",
          "type": "uint256"
        }
      ],
      "name": "mintPresale",
      "outputs": [],
      "stateMutability": "payable",
      "type": "function",
      "payable": true
    },
    {
      "inputs": [
        {
          "internalType": "address",
          "name": "to",
          "type": "address"
        },
        {
          "internalType": "uint256",
          "name": "amount",
          "type": "uint256"
        }
      ],
      "name": "mint",
      "outputs": [],
      "stateMutability": "nonpayable",
      "type": "function"
    },
    {
      "inputs": [
        {
          "internalType": "uint256",
          "name": "tokenId",
          "type": "uint256"
        },
        {
          "internalType": "uint256",
          "name": "amountToken",
          "type": "uint256"
        }
      ],
      "name": "compound",
      "outputs": [],
      "stateMutability": "nonpayable",
      "type": "function"
    },
    {
      "inputs": [
        {
          "internalType": "uint256",
          "name": "tokenId",
          "type": "uint256"
        }
      ],
      "name": "claimReward",
      "outputs": [],
      "stateMutability": "nonpayable",
      "type": "function"
    },
    {
      "inputs": [
        {
          "internalType": "uint256",
          "name": "tokenId",
          "type": "uint256"
        }
      ],
      "name": "getRewardAmount",
      "outputs": [
        {
          "internalType": "uint256",
          "name": "",
          "type": "uint256"
        }
      ],
      "stateMutability": "view",
      "type": "function",
      "constant": true
    },
    {
      "inputs": [
        {
          "internalType": "uint256",
          "name": "time",
          "type": "uint256"
        },
        {
          "internalType": "uint256",
          "name": "level",
          "type": "uint256"
        }
      ],
      "name": "calculateReward",
      "outputs": [
        {
          "internalType": "uint256",
          "name": "",
          "type": "uint256"
        }
      ],
      "stateMutability": "view",
      "type": "function",
      "constant": true
    },
    {
      "inputs": [],
      "name": "claimPresaleETH",
      "outputs": [],
      "stateMutability": "nonpayable",
      "type": "function"
    },
    {
      "inputs": [
        {
          "internalType": "uint256",
          "name": "tokenId",
          "type": "uint256"
        }
      ],
      "name": "getNFTData",
      "outputs": [
        {
          "internalType": "uint256",
          "name": "",
          "type": "uint256"
        },
        {
          "internalType": "uint256",
          "name": "",
          "type": "uint256"
        },
        {
          "internalType": "uint256",
          "name": "",
          "type": "uint256"
        },
        {
          "internalType": "uint256",
          "name": "",
          "type": "uint256"
        }
      ],
      "stateMutability": "view",
      "type": "function",
      "constant": true
    },
    {
      "inputs": [
        {
          "internalType": "uint256",
          "name": "addressMax_",
          "type": "uint256"
        }
      ],
      "name": "setAddressMax",
      "outputs": [],
      "stateMutability": "nonpayable",
      "type": "function"
    },
    {
      "inputs": [
        {
          "internalType": "uint256",
          "name": "supplyMax_",
          "type": "uint256"
        }
      ],
      "name": "setSupplyMax",
      "outputs": [],
      "stateMutability": "nonpayable",
      "type": "function"
    },
    {
      "inputs": [
        {
          "internalType": "uint256",
          "name": "mintPrice_",
          "type": "uint256"
        }
      ],
      "name": "setMintPrice",
      "outputs": [],
      "stateMutability": "nonpayable",
      "type": "function"
    },
    {
      "inputs": [
        {
          "internalType": "uint256",
          "name": "maxTokenLevel_",
          "type": "uint256"
        }
      ],
      "name": "setMaxTokenLevel",
      "outputs": [],
      "stateMutability": "nonpayable",
      "type": "function"
    },
    {
      "inputs": [
        {
          "internalType": "uint256",
          "name": "tokensPerLevel_",
          "type": "uint256"
        }
      ],
      "name": "setTokensPerLevel",
      "outputs": [],
      "stateMutability": "nonpayable",
      "type": "function"
    },
    {
      "inputs": [
        {
          "internalType": "uint256",
          "name": "rewardRatePercentage_",
          "type": "uint256"
        }
      ],
      "name": "setRewardRatePercentage",
      "outputs": [],
      "stateMutability": "nonpayable",
      "type": "function"
    },
    {
      "inputs": [
        {
          "internalType": "bool",
          "name": "presaleEnded_",
          "type": "bool"
        }
      ],
      "name": "setPresaleEnded",
      "outputs": [],
      "stateMutability": "nonpayable",
      "type": "function"
    },
    {
      "inputs": [
        {
          "internalType": "bool",
          "name": "presalePaused_",
          "type": "bool"
        }
      ],
      "name": "setPresalePaused",
      "outputs": [],
      "stateMutability": "nonpayable",
      "type": "function"
    },
    {
      "inputs": [
        {
          "internalType": "uint256",
          "name": "presaleSupply_",
          "type": "uint256"
        }
      ],
      "name": "setPresaleSupply",
      "outputs": [],
      "stateMutability": "nonpayable",
      "type": "function"
    },
    {
      "inputs": [
        {
          "internalType": "uint256",
          "name": "presalePrice_",
          "type": "uint256"
        }
      ],
      "name": "setPresalePrice",
      "outputs": [],
      "stateMutability": "nonpayable",
      "type": "function"
    },
    {
      "inputs": [
        {
          "internalType": "address",
          "name": "tokenAddress",
          "type": "address"
        },
        {
          "internalType": "address",
          "name": "rewardsAddress",
          "type": "address"
        }
      ],
      "name": "setAddresses",
      "outputs": [],
      "stateMutability": "nonpayable",
      "type": "function"
    },
    {
      "inputs": [
        {
          "internalType": "string",
          "name": "baseURI_",
          "type": "string"
        }
      ],
      "name": "setBaseUri",
      "outputs": [],
      "stateMutability": "nonpayable",
      "type": "function"
    },
    {
      "inputs": [],
      "name": "totalSupply",
      "outputs": [
        {
          "internalType": "uint256",
          "name": "",
          "type": "uint256"
        }
      ],
      "stateMutability": "view",
      "type": "function",
      "constant": true
    },
    {
      "inputs": [
        {
          "internalType": "uint256",
          "name": "tokenId",
          "type": "uint256"
        }
      ],
      "name": "tokenURI",
      "outputs": [
        {
          "internalType": "string",
          "name": "",
          "type": "string"
        }
      ],
      "stateMutability": "view",
      "type": "function",
      "constant": true
    },
    {
      "inputs": [
        {
          "internalType": "bytes4",
          "name": "interfaceId",
          "type": "bytes4"
        }
      ],
      "name": "supportsInterface",
      "outputs": [
        {
          "internalType": "bool",
          "name": "",
          "type": "bool"
        }
      ],
      "stateMutability": "view",
      "type": "function",
      "constant": true
    }
  ],
  "bytecode": "0x6005600f556103e860105560646011819055600a60125560138190556101f46014556015805461ff0019166101001790556016556706f05b59d3b2000060175560e06040526037608081815290620043e960a03980516200006991601b9160209091019062000280565b503480156200007757600080fd5b5060408051808201825260038082526213919560ea1b602080840182815285518087019096529285528401528151919291620000b69160009162000280565b508051620000cc90600190602084019062000280565b505050336200012d5760405162461bcd60e51b815260206004820152602260248201527f43616e277420696e697469616c697a652077697468207a65726f206164647265604482015261737360f01b60648201526084015b60405180910390fd5b600b8054610100600160a81b031916336101008102919091179091556000818152600c60205260408120805460ff19166001908117909155600d8054808301825592527fd7b6990105719101dabeb77144f2a3385c8033acd3af97e9423a695e81ad1eb590910180546001600160a01b031916909217909155620001b190620001b7565b62000363565b600b5460ff16156200020c5760405162461bcd60e51b815260206004820152601360248201527f4f776e6572736869702072656e6f756e63656400000000000000000000000000604482015260640162000124565b336000908152600c602052604090205460ff166200026d5760405162461bcd60e51b815260206004820152601660248201527f43616c6c6572206973206e6f7420616e206f776e657200000000000000000000604482015260640162000124565b600e805460ff1916911515919091179055565b8280546200028e9062000326565b90600052602060002090601f016020900481019282620002b25760008555620002fd565b82601f10620002cd57805160ff1916838001178555620002fd565b82800160010185558215620002fd579182015b82811115620002fd578251825591602001919060010190620002e0565b506200030b9291506200030f565b5090565b5b808211156200030b576000815560010162000310565b600181811c908216806200033b57607f821691505b602082108114156200035d57634e487b7160e01b600052602260045260246000fd5b50919050565b61407680620003736000396000f3fe6080604052600436106103345760003560e01c8063715018a6116101ab578063b187bd26116100f7578063c84993af11610095578063e4f20fb21161006f578063e4f20fb21461096a578063e580b2b01461097d578063e985e9c514610997578063f4a0a528146109e057600080fd5b8063c84993af14610910578063c87b56dd14610930578063d232c2201461095057600080fd5b8063b88d4fde116100d1578063b88d4fde14610890578063b96502cb146108b0578063bee53534146108d0578063bff1208d146108f057600080fd5b8063b187bd2614610840578063b1de42021461085a578063b3a196e91461087a57600080fd5b8063a0e67e2b11610164578063a3db11051161013e578063a3db1105146107c1578063a79fdbb4146107e1578063aa29c33114610800578063ae169a501461082057600080fd5b8063a0e67e2b14610769578063a1a7a4231461078b578063a22cb465146107a157600080fd5b8063715018a6146106c957806373fac0e2146106de57806390107afe146106fe57806395d89b411461071e57806396636fe114610733578063a0bcfc7f1461074957600080fd5b806323b872dd1161028557806342842e0e116102235780636817c76c116101fd5780636817c76c1461065e57806368d52b68146106745780637065cb481461068957806370a08231146106a957600080fd5b806342842e0e146105fe5780634f6ccce71461061e5780636352211e1461063e57600080fd5b80632f745c591161025f5780632f745c591461058857806331bcbaed146105a85780633549345e146105be57806340c10f19146105de57600080fd5b806323b872dd1461050f578063240976bf1461052f5780632f54bf6e1461054f57600080fd5b80630ad4c4f4116102f2578063173825d9116102cc578063173825d9146104a4578063177f16b4146104c457806318160ddd146104da5780631c505717146104ef57600080fd5b80630ad4c4f4146104245780630cef1fbf1461046457806313ed08461461048457600080fd5b80620e7fa81461033957806301ffc9a71461036257806304e275821461039257806306fdde03146103a8578063081812fc146103ca578063095ea7b314610402575b600080fd5b34801561034557600080fd5b5061034f60175481565b6040519081526020015b60405180910390f35b34801561036e57600080fd5b5061038261037d366004613803565b610a00565b6040519015158152602001610359565b34801561039e57600080fd5b5061034f60105481565b3480156103b457600080fd5b506103bd610a11565b6040516103599190613878565b3480156103d657600080fd5b506103ea6103e536600461388b565b610aa3565b6040516001600160a01b039091168152602001610359565b34801561040e57600080fd5b5061042261041d3660046138c0565b610b30565b005b34801561043057600080fd5b5061044461043f36600461388b565b610c46565b604080519485526020850193909352918301526060820152608001610359565b34801561047057600080fd5b5061042261047f36600461388b565b610ccd565b34801561049057600080fd5b5061034f61049f3660046138ea565b610d24565b3480156104b057600080fd5b506104226104bf36600461390c565b610de3565b3480156104d057600080fd5b5061034f60145481565b3480156104e657600080fd5b5061034f6110e3565b3480156104fb57600080fd5b5061042261050a366004613935565b6110f3565b34801561051b57600080fd5b5061042261052a366004613952565b611158565b34801561053b57600080fd5b5061042261054a366004613935565b611189565b34801561055b57600080fd5b5061038261056a36600461390c565b6001600160a01b03166000908152600c602052604090205460ff1690565b34801561059457600080fd5b5061034f6105a33660046138c0565b6111ee565b3480156105b457600080fd5b5061034f60135481565b3480156105ca57600080fd5b506104226105d936600461388b565b611284565b3480156105ea57600080fd5b506104226105f93660046138c0565b6112db565b34801561060a57600080fd5b50610422610619366004613952565b61164a565b34801561062a57600080fd5b5061034f61063936600461388b565b611665565b34801561064a57600080fd5b506103ea61065936600461388b565b6116f8565b34801561066a57600080fd5b5061034f60115481565b34801561068057600080fd5b5061042261176f565b34801561069557600080fd5b506104226106a436600461390c565b6118a6565b3480156106b557600080fd5b5061034f6106c436600461390c565b611989565b3480156106d557600080fd5b50610422611a10565b3480156106ea57600080fd5b506104226106f936600461388b565b611ab8565b34801561070a57600080fd5b5061042261071936600461398e565b611b0f565b34801561072a57600080fd5b506103bd611b8f565b34801561073f57600080fd5b5061034f600f5481565b34801561075557600080fd5b50610422610764366004613a4d565b611b9e565b34801561077557600080fd5b5061077e611c07565b6040516103599190613a96565b34801561079757600080fd5b5061034f60125481565b3480156107ad57600080fd5b506104226107bc366004613ae3565b611c68565b3480156107cd57600080fd5b506104226107dc36600461388b565b611c73565b3480156107ed57600080fd5b5060155461038290610100900460ff1681565b34801561080c57600080fd5b5061042261081b36600461388b565b611cca565b34801561082c57600080fd5b5061042261083b36600461388b565b611d21565b34801561084c57600080fd5b50600e546103829060ff1681565b34801561086657600080fd5b5061042261087536600461388b565b611e92565b34801561088657600080fd5b5061034f60165481565b34801561089c57600080fd5b506104226108ab366004613b1a565b611ee9565b3480156108bc57600080fd5b506104226108cb36600461388b565b611f1b565b3480156108dc57600080fd5b506104226108eb366004613935565b611f72565b3480156108fc57600080fd5b5061042261090b3660046138ea565b611fde565b34801561091c57600080fd5b5061034f61092b36600461388b565b6124e0565b34801561093c57600080fd5b506103bd61094b36600461388b565b61256f565b34801561095c57600080fd5b50600b546103829060ff1681565b6104226109783660046138c0565b61257a565b34801561098957600080fd5b506015546103829060ff1681565b3480156109a357600080fd5b506103826109b236600461398e565b6001600160a01b03918216600090815260056020908152604080832093909416825291909152205460ff1690565b3480156109ec57600080fd5b506104226109fb36600461388b565b612761565b6000610a0b826127b8565b92915050565b606060008054610a2090613b96565b80601f0160208091040260200160405190810160405280929190818152602001828054610a4c90613b96565b8015610a995780601f10610a6e57610100808354040283529160200191610a99565b820191906000526020600020905b815481529060010190602001808311610a7c57829003601f168201915b5050505050905090565b6000610aae826127dd565b610b145760405162461bcd60e51b815260206004820152602c60248201527f4552433732313a20617070726f76656420717565727920666f72206e6f6e657860448201526b34b9ba32b73a103a37b5b2b760a11b60648201526084015b60405180910390fd5b506000908152600460205260409020546001600160a01b031690565b6000610b3b826116f8565b9050806001600160a01b0316836001600160a01b03161415610ba95760405162461bcd60e51b815260206004820152602160248201527f4552433732313a20617070726f76616c20746f2063757272656e74206f776e656044820152603960f91b6064820152608401610b0b565b336001600160a01b0382161480610bc55750610bc581336109b2565b610c375760405162461bcd60e51b815260206004820152603860248201527f4552433732313a20617070726f76652063616c6c6572206973206e6f74206f7760448201527f6e6572206e6f7220617070726f76656420666f7220616c6c00000000000000006064820152608401610b0b565b610c4183836127fa565b505050565b600080600080610c55856127dd565b610ca15760405162461bcd60e51b815260206004820152601c60248201527f5468697320746f6b656e20494420646f6573206e6f74206578697374000000006044820152606401610b0b565b505050600091825250601d60205260409020805460018201546002830154600390930154919390929190565b600b5460ff1615610cf05760405162461bcd60e51b8152600401610b0b90613bd1565b336000908152600c602052604090205460ff16610d1f5760405162461bcd60e51b8152600401610b0b90613bfe565b601055565b60006301e13380601860009054906101000a90046001600160a01b03166001600160a01b031663313ce5676040518163ffffffff1660e01b8152600401602060405180830381865afa158015610d7e573d6000803e3d6000fd5b505050506040513d601f19601f82011682018060405250810190610da29190613c2e565b610dad90600a613d4b565b610db79085613d5a565b610dc19190613d8f565b92508260145483610dd29190613d5a565b610ddc9190613d5a565b9392505050565b600b5460ff1615610e065760405162461bcd60e51b8152600401610b0b90613bd1565b336000908152600c602052604090205460ff16610e355760405162461bcd60e51b8152600401610b0b90613bfe565b6001600160a01b0381166000908152600c602052604090205460ff16610e9d5760405162461bcd60e51b815260206004820152601760248201527f41646472657373206973206e6f7420616e206f776e65720000000000000000006044820152606401610b0b565b600b5461010090046001600160a01b0316331415610efd5760405162461bcd60e51b815260206004820152601d60248201527f4d6173746572206f776e65722063616e27742062652072656d6f7665640000006044820152606401610b0b565b600d5460005b600d5481101561108457826001600160a01b0316600d8281548110610f2a57610f2a613da3565b6000918252602090912001546001600160a01b03161415611072576001600160a01b0383166000908152600c60205260409020805460ff19169055805b600d54610f7690600190613db9565b81101561100157600d610f8a836001613dd0565b81548110610f9a57610f9a613da3565b600091825260209091200154600d80546001600160a01b039092169184908110610fc657610fc6613da3565b600091825260209091200180546001600160a01b0319166001600160a01b039290921691909117905580610ff981613de8565b915050610f67565b50600d80548061101357611013613e03565b600082815260208120820160001990810180546001600160a01b031916905590910190915560405142916001600160a01b0386169133917fecc5dd9888b87e7ed252d66b9c086ab819de6c8f8b96c8e5458e105bacfbb02791a4611084565b8061107c81613de8565b915050610f03565b50600d54818110610c415760405162461bcd60e51b8152602060048201526024808201527f536f6d657468696e672077656e742077726f6e672072656d6f76696e67206f776044820152636e65727360e01b6064820152608401610b0b565b60006110ee601a5490565b905090565b600b5460ff16156111165760405162461bcd60e51b8152600401610b0b90613bd1565b336000908152600c602052604090205460ff166111455760405162461bcd60e51b8152600401610b0b90613bfe565b6015805460ff1916911515919091179055565b6111623382612868565b61117e5760405162461bcd60e51b8152600401610b0b90613e19565b610c4183838361294e565b600b5460ff16156111ac5760405162461bcd60e51b8152600401610b0b90613bd1565b336000908152600c602052604090205460ff166111db5760405162461bcd60e51b8152600401610b0b90613bfe565b600e805460ff1916911515919091179055565b60006111f983611989565b821061125b5760405162461bcd60e51b815260206004820152602b60248201527f455243373231456e756d657261626c653a206f776e657220696e646578206f7560448201526a74206f6620626f756e647360a81b6064820152608401610b0b565b506001600160a01b03919091166000908152600660209081526040808320938352929052205490565b600b5460ff16156112a75760405162461bcd60e51b8152600401610b0b90613bd1565b336000908152600c602052604090205460ff166112d65760405162461bcd60e51b8152600401610b0b90613bfe565b601755565b336000818152600c602052604090205460ff1661131557600e5460ff16156113155760405162461bcd60e51b8152600401610b0b90613e6a565b6010546113206110e3565b1061136d5760405162461bcd60e51b815260206004820152601b60248201527f4d617820737570706c7920686173206265656e207265616368656400000000006044820152606401610b0b565b61137a8383601054612af5565b6018546040805163313ce56760e01b815290516000926001600160a01b03169163313ce5679160048083019260209291908290030181865afa1580156113c4573d6000803e3d6000fd5b505050506040513d601f19601f820116820180604052508101906113e89190613c2e565b6113f390600a613d4b565b6011546114009085613d5a565b61140a9190613d5a565b6018546040516370a0823160e01b815233600482015291925082916001600160a01b03909116906370a0823190602401602060405180830381865afa158015611457573d6000803e3d6000fd5b505050506040513d601f19601f8201168201806040525081019061147b9190613e93565b10156114c15760405162461bcd60e51b8152602060048201526015602482015274546f6b656e2062616c616e636520746f6f206c6f7760581b6044820152606401610b0b565b601854604051636eb1769f60e11b815233600482015230602482015282916001600160a01b03169063dd62ed3e90604401602060405180830381865afa15801561150f573d6000803e3d6000fd5b505050506040513d601f19601f820116820180604052508101906115339190613e93565b10156115785760405162461bcd60e51b81526020600482015260146024820152734e6f7420656e6f75676820616c6c6f77616e636560601b6044820152606401610b0b565b6115828484612bfb565b6018546019546040516323b872dd60e01b81523360048201526001600160a01b039182166024820152604481018490529116906323b872dd906064016020604051808303816000875af11580156115dd573d6000803e3d6000fd5b505050506040513d601f19601f820116820180604052508101906116019190613eac565b6116445760405162461bcd60e51b8152602060048201526014602482015273151bdad95b881c185e5b595b9d0819985a5b195960621b6044820152606401610b0b565b50505050565b610c4183838360405180602001604052806000815250611ee9565b600061167060085490565b82106116d35760405162461bcd60e51b815260206004820152602c60248201527f455243373231456e756d657261626c653a20676c6f62616c20696e646578206f60448201526b7574206f6620626f756e647360a01b6064820152608401610b0b565b600882815481106116e6576116e6613da3565b90600052602060002001549050919050565b6000818152600260205260408120546001600160a01b031680610a0b5760405162461bcd60e51b815260206004820152602960248201527f4552433732313a206f776e657220717565727920666f72206e6f6e657869737460448201526832b73a103a37b5b2b760b91b6064820152608401610b0b565b600b5460ff16156117925760405162461bcd60e51b8152600401610b0b90613bd1565b336000908152600c602052604090205460ff166117c15760405162461bcd60e51b8152600401610b0b90613bfe565b60155460ff1661180b5760405162461bcd60e51b8152602060048201526015602482015274141c995cd85b19481b9bdd08195b991959081e595d605a1b6044820152606401610b0b565b604051600090339047908381818185875af1925050503d806000811461184d576040519150601f19603f3d011682016040523d82523d6000602084013e611852565b606091505b50509050806118a35760405162461bcd60e51b815260206004820152601d60248201527f536f6d657468696e672077656e742077726f6e6720636c61696d696e670000006044820152606401610b0b565b50565b600b5460ff16156118c95760405162461bcd60e51b8152600401610b0b90613bd1565b336000908152600c602052604090205460ff166118f85760405162461bcd60e51b8152600401610b0b90613bfe565b6001600160a01b0381166000818152600c6020526040808220805460ff19166001908117909155600d8054918201815583527fd7b6990105719101dabeb77144f2a3385c8033acd3af97e9423a695e81ad1eb50180546001600160a01b031916841790555142929133917fa0b18fca933618876351ba2ef88bf4505c184d3e55064bec0d7fe236dd706d849190a450565b60006001600160a01b0382166119f45760405162461bcd60e51b815260206004820152602a60248201527f4552433732313a2062616c616e636520717565727920666f7220746865207a65604482015269726f206164647265737360b01b6064820152608401610b0b565b506001600160a01b031660009081526003602052604090205490565b600b5461010090046001600160a01b03163314611a805760405162461bcd60e51b815260206004820152602860248201527f4f6e6c79206d6173746572206f776e65722063616e2072656e6f756e6365206f6044820152670776e6572736869760c41b6064820152608401610b0b565b600b805460ff191660011790556040517fd1f66c3d2bc1993a86be5e3d33709d98f0442381befcedd29f578b9b2506b1ce90600090a1565b600b5460ff1615611adb5760405162461bcd60e51b8152600401610b0b90613bd1565b336000908152600c602052604090205460ff16611b0a5760405162461bcd60e51b8152600401610b0b90613bfe565b601455565b600b5460ff1615611b325760405162461bcd60e51b8152600401610b0b90613bd1565b336000908152600c602052604090205460ff16611b615760405162461bcd60e51b8152600401610b0b90613bfe565b601880546001600160a01b039384166001600160a01b03199182161790915560198054929093169116179055565b606060018054610a2090613b96565b600b5460ff1615611bc15760405162461bcd60e51b8152600401610b0b90613bd1565b336000908152600c602052604090205460ff16611bf05760405162461bcd60e51b8152600401610b0b90613bfe565b8051611c0390601b906020840190613754565b5050565b6060600d805480602002602001604051908101604052809291908181526020018280548015610a9957602002820191906000526020600020905b81546001600160a01b03168152600190910190602001808311611c41575050505050905090565b611c03338383612d10565b600b5460ff1615611c965760405162461bcd60e51b8152600401610b0b90613bd1565b336000908152600c602052604090205460ff16611cc55760405162461bcd60e51b8152600401610b0b90613bfe565b601355565b600b5460ff1615611ced5760405162461bcd60e51b8152600401610b0b90613bd1565b336000908152600c602052604090205460ff16611d1c5760405162461bcd60e51b8152600401610b0b90613bfe565b601255565b336000818152600c602052604090205460ff16611d5b57600e5460ff1615611d5b5760405162461bcd60e51b8152600401610b0b90613e6a565b6000611d66836124e0565b905033611d72846116f8565b6001600160a01b031614611dc85760405162461bcd60e51b815260206004820152601e60248201527f53656e64657220646f6573206e6f74206f776e207468697320746f6b656e00006044820152606401610b0b565b8015610c41576000838152601d60205260409081902042600390910155601954905163f3fef3a360e01b8152336004820152602481018390526001600160a01b039091169063f3fef3a390604401600060405180830381600087803b158015611e3057600080fd5b505af1158015611e44573d6000803e3d6000fd5b5050604080513381526020810185905242918101919091527f987d620f307ff6b94d58743cb7a7509f24071586a77759b77c2d4e29f75a2f9a925060600190505b60405180910390a1505050565b600b5460ff1615611eb55760405162461bcd60e51b8152600401610b0b90613bd1565b336000908152600c602052604090205460ff16611ee45760405162461bcd60e51b8152600401610b0b90613bfe565b600f55565b611ef33383612868565b611f0f5760405162461bcd60e51b8152600401610b0b90613e19565b61164484848484612ddf565b600b5460ff1615611f3e5760405162461bcd60e51b8152600401610b0b90613bd1565b336000908152600c602052604090205460ff16611f6d5760405162461bcd60e51b8152600401610b0b90613bfe565b601655565b600b5460ff1615611f955760405162461bcd60e51b8152600401610b0b90613bd1565b336000908152600c602052604090205460ff16611fc45760405162461bcd60e51b8152600401610b0b90613bfe565b601580549115156101000261ff0019909216919091179055565b336000818152600c602052604090205460ff1661201857600e5460ff16156120185760405162461bcd60e51b8152600401610b0b90613e6a565b601860009054906101000a90046001600160a01b03166001600160a01b031663313ce5676040518163ffffffff1660e01b8152600401602060405180830381865afa15801561206b573d6000803e3d6000fd5b505050506040513d601f19601f8201168201806040525081019061208f9190613c2e565b61209a90600a613d4b565b6120a49083613d5a565b6018546040516370a0823160e01b815233600482015291935083916001600160a01b03909116906370a0823190602401602060405180830381865afa1580156120f1573d6000803e3d6000fd5b505050506040513d601f19601f820116820180604052508101906121159190613e93565b101561215b5760405162461bcd60e51b8152602060048201526015602482015274546f6b656e2062616c616e636520746f6f206c6f7760581b6044820152606401610b0b565b601854604051636eb1769f60e11b815233600482015230602482015283916001600160a01b03169063dd62ed3e90604401602060405180830381865afa1580156121a9573d6000803e3d6000fd5b505050506040513d601f19601f820116820180604052508101906121cd9190613e93565b10156122125760405162461bcd60e51b81526020600482015260146024820152734e6f7420656e6f75676820616c6c6f77616e636560601b6044820152606401610b0b565b61221b83611d21565b6000838152601d6020526040902060125481541061227b5760405162461bcd60e51b815260206004820152601d60248201527f54686973204e465420697320616c7265616479206d6178206c6576656c0000006044820152606401610b0b565b6018546040805163313ce56760e01b815290516000926001600160a01b03169163313ce5679160048083019260209291908290030181865afa1580156122c5573d6000803e3d6000fd5b505050506040513d601f19601f820116820180604052508101906122e99190613c2e565b6122f490600a613d4b565b6013546123019190613d5a565b90506000826000015460011461231857600061231a565b815b85846002015461232a9190613dd0565b6123349190613dd0565b905060006123428383613d8f565b905060006012548210612382578360125461235d9190613d5a565b6123679084613db9565b90506123738184613db9565b6002860155601254855561238d565b600285018390558185555b604080516080810182528654815260018701546020820152600287015491810191909152600386015460608201526123c6908990612e12565b60006123d28289613db9565b6018546019546040516323b872dd60e01b81523360048201526001600160a01b0391821660248201526044810184905292935016906323b872dd906064016020604051808303816000875af115801561242f573d6000803e3d6000fd5b505050506040513d601f19601f820116820180604052508101906124539190613eac565b6124965760405162461bcd60e51b8152602060048201526014602482015273151bdad95b881c185e5b595b9d0819985a5b195960621b6044820152606401610b0b565b6040805133815260208101839052428183015290517f820cea42e8517cf1ec6d4e9db93909255f07c45f7eb0a7c7b5a0f8bdcfc2e5bf9181900360600190a1505050505050505050565b60006124eb826127dd565b6125375760405162461bcd60e51b815260206004820152601760248201527f546f6b656e20494420646f6573206e6f742065786973740000000000000000006044820152606401610b0b565b6000828152601d6020526040812060038101549091906125579042613db9565b9050612567818360000154610d24565b949350505050565b6060610a0b82612e63565b60155460ff16156125cd5760405162461bcd60e51b815260206004820152601960248201527f50726573616c652068617320656e64656420616c7265616479000000000000006044820152606401610b0b565b601554610100900460ff16156126255760405162461bcd60e51b815260206004820152601860248201527f50726573616c652063757272656e746c792070617573656400000000000000006044820152606401610b0b565b6016546126306110e3565b10612646576015805460ff191660011790555050565b6126538282601654612af5565b6000601754826126639190613d5a565b9050803410156126ad5760405162461bcd60e51b8152602060048201526015602482015274139bdd08195b9bdd59da08195d1a195c881cd95b9d605a1b6044820152606401610b0b565b6126b78383612bfb565b60006126c38234613db9565b9050801561164457604051600090339083908381818185875af1925050503d806000811461270d576040519150601f19603f3d011682016040523d82523d6000602084013e612712565b606091505b505090508061275a5760405162461bcd60e51b81526020600482015260146024820152731499599d5b99081d5b9cdd58d8d95cdcd99d5b1b60621b6044820152606401610b0b565b5050505050565b600b5460ff16156127845760405162461bcd60e51b8152600401610b0b90613bd1565b336000908152600c602052604090205460ff166127b35760405162461bcd60e51b8152600401610b0b90613bfe565b601155565b60006001600160e01b0319821663780e9d6360e01b1480610a0b5750610a0b82612fc5565b6000908152600260205260409020546001600160a01b0316151590565b600081815260046020526040902080546001600160a01b0319166001600160a01b038416908117909155819061282f826116f8565b6001600160a01b03167f8c5be1e5ebec7d5bd14f71427d1e84f3dd0314c0f7b2291e5b200ac8c7c3b92560405160405180910390a45050565b6000612873826127dd565b6128d45760405162461bcd60e51b815260206004820152602c60248201527f4552433732313a206f70657261746f7220717565727920666f72206e6f6e657860448201526b34b9ba32b73a103a37b5b2b760a11b6064820152608401610b0b565b60006128df836116f8565b9050806001600160a01b0316846001600160a01b0316148061291a5750836001600160a01b031661290f84610aa3565b6001600160a01b0316145b8061256757506001600160a01b0380821660009081526005602090815260408083209388168352929052205460ff16612567565b826001600160a01b0316612961826116f8565b6001600160a01b0316146129c55760405162461bcd60e51b815260206004820152602560248201527f4552433732313a207472616e736665722066726f6d20696e636f72726563742060448201526437bbb732b960d91b6064820152608401610b0b565b6001600160a01b038216612a275760405162461bcd60e51b8152602060048201526024808201527f4552433732313a207472616e7366657220746f20746865207a65726f206164646044820152637265737360e01b6064820152608401610b0b565b612a32838383613015565b612a3d6000826127fa565b6001600160a01b0383166000908152600360205260408120805460019290612a66908490613db9565b90915550506001600160a01b0382166000908152600360205260408120805460019290612a94908490613dd0565b909155505060008181526002602052604080822080546001600160a01b0319166001600160a01b0386811691821790925591518493918716917fddf252ad1be2c89b69c2b068fc378daa952ba7f163c4a11628f55a4df523b3ef91a4505050565b600f546001600160a01b0384166000908152601c6020526040902054612b1c908490613dd0565b1115612b755760405162461bcd60e51b815260206004820152602260248201527f4d6178206d696e7420657863656564656420666f722074686973206164647265604482015261737360f01b6064820152608401610b0b565b6001600160a01b0383166000908152601c60205260409020548190612b9b908490613dd0565b1115610c415760405162461bcd60e51b815260206004820152602960248201527f54686973206d696e7420776f756c64206578636565642070726573616c65207360448201526807570706c79206361760bc1b6064820152608401610b0b565b4260005b82811015612c9b576000612c12601a5490565b9050612c1e8582613020565b60408051608081018252600180825260208083018781526000848601818152606086018a8152888352601d90945295902084518155905192810192909255925160028201559151600390920191909155612c788282612e12565b612c86601a80546001019055565b50508080612c9390613de8565b915050612bff565b506001600160a01b0383166000908152601c602052604081208054849290612cc4908490613dd0565b9091555050604080516001600160a01b0385168152602081018490529081018290527f25b428dfde728ccfaddad7e29e4ac23c24ed7fd1a6e3e3f91894a9a073f5dfff90606001611e85565b816001600160a01b0316836001600160a01b03161415612d725760405162461bcd60e51b815260206004820152601960248201527f4552433732313a20617070726f766520746f2063616c6c6572000000000000006044820152606401610b0b565b6001600160a01b03838116600081815260056020908152604080832094871680845294825291829020805460ff191686151590811790915591519182527f17307eab39ab6107e8899845ad3d59bd9653f200f220920489ca2b5937696c31910160405180910390a3505050565b612dea84848461294e565b612df68484848461303a565b6116445760405162461bcd60e51b8152600401610b0b90613ec9565b611c0382612e238360000151613138565b612e308460200151613138565b612e3d8560400151613138565b604051602001612e4f93929190613f1b565b604051602081830303815290604052613236565b6060612e6e826127dd565b612ed45760405162461bcd60e51b815260206004820152603160248201527f45524337323155524953746f726167653a2055524920717565727920666f72206044820152703737b732bc34b9ba32b73a103a37b5b2b760791b6064820152608401610b0b565b6000828152600a602052604081208054612eed90613b96565b80601f0160208091040260200160405190810160405280929190818152602001828054612f1990613b96565b8015612f665780601f10612f3b57610100808354040283529160200191612f66565b820191906000526020600020905b815481529060010190602001808311612f4957829003601f168201915b505050505090506000612f776132c1565b9050805160001415612f8a575092915050565b815115612fbc578082604051602001612fa4929190613fa3565b60405160208183030381529060405292505050919050565b612567846132d0565b60006001600160e01b031982166380ac58cd60e01b1480612ff657506001600160e01b03198216635b5e139f60e01b145b80610a0b57506301ffc9a760e01b6001600160e01b0319831614610a0b565b610c4183838361339a565b611c03828260405180602001604052806000815250613452565b60006001600160a01b0384163b1561312d57604051630a85bd0160e11b81526001600160a01b0385169063150b7a029061307e903390899088908890600401613fd2565b6020604051808303816000875af19250505080156130b9575060408051601f3d908101601f191682019092526130b69181019061400f565b60015b613113573d8080156130e7576040519150601f19603f3d011682016040523d82523d6000602084013e6130ec565b606091505b50805161310b5760405162461bcd60e51b8152600401610b0b90613ec9565b805181602001fd5b6001600160e01b031916630a85bd0160e11b149050612567565b506001949350505050565b60608161315c5750506040805180820190915260018152600360fc1b602082015290565b8160005b8115613186578061317081613de8565b915061317f9050600a83613d8f565b9150613160565b60008167ffffffffffffffff8111156131a1576131a16139c1565b6040519080825280601f01601f1916602001820160405280156131cb576020820181803683370190505b5090505b8415612567576131e0600183613db9565b91506131ed600a8661402c565b6131f8906030613dd0565b60f81b81838151811061320d5761320d613da3565b60200101906001600160f81b031916908160001a90535061322f600a86613d8f565b94506131cf565b61323f826127dd565b6132a25760405162461bcd60e51b815260206004820152602e60248201527f45524337323155524953746f726167653a2055524920736574206f66206e6f6e60448201526d32bc34b9ba32b73a103a37b5b2b760911b6064820152608401610b0b565b6000828152600a602090815260409091208251610c4192840190613754565b6060601b8054610a2090613b96565b60606132db826127dd565b61333f5760405162461bcd60e51b815260206004820152602f60248201527f4552433732314d657461646174613a2055524920717565727920666f72206e6f60448201526e3732bc34b9ba32b73a103a37b5b2b760891b6064820152608401610b0b565b60006133496132c1565b905060008151116133695760405180602001604052806000815250610ddc565b8061337384613138565b604051602001613384929190613fa3565b6040516020818303038152906040529392505050565b6001600160a01b0383166133f5576133f081600880546000838152600960205260408120829055600182018355919091527ff3f7a9fe364faab93b216da50a3214154f22a0a2b415b23a84c8169e8b636ee30155565b613418565b816001600160a01b0316836001600160a01b031614613418576134188382613485565b6001600160a01b03821661342f57610c4181613522565b826001600160a01b0316826001600160a01b031614610c4157610c4182826135d1565b61345c8383613615565b613469600084848461303a565b610c415760405162461bcd60e51b8152600401610b0b90613ec9565b6000600161349284611989565b61349c9190613db9565b6000838152600760205260409020549091508082146134ef576001600160a01b03841660009081526006602090815260408083208584528252808320548484528184208190558352600790915290208190555b5060009182526007602090815260408084208490556001600160a01b039094168352600681528383209183525290812055565b60085460009061353490600190613db9565b6000838152600960205260408120546008805493945090928490811061355c5761355c613da3565b90600052602060002001549050806008838154811061357d5761357d613da3565b60009182526020808320909101929092558281526009909152604080822084905585825281205560088054806135b5576135b5613e03565b6001900381819060005260206000200160009055905550505050565b60006135dc83611989565b6001600160a01b039093166000908152600660209081526040808320868452825280832085905593825260079052919091209190915550565b6001600160a01b03821661366b5760405162461bcd60e51b815260206004820181905260248201527f4552433732313a206d696e7420746f20746865207a65726f20616464726573736044820152606401610b0b565b613674816127dd565b156136c15760405162461bcd60e51b815260206004820152601c60248201527f4552433732313a20746f6b656e20616c7265616479206d696e746564000000006044820152606401610b0b565b6136cd60008383613015565b6001600160a01b03821660009081526003602052604081208054600192906136f6908490613dd0565b909155505060008181526002602052604080822080546001600160a01b0319166001600160a01b03861690811790915590518392907fddf252ad1be2c89b69c2b068fc378daa952ba7f163c4a11628f55a4df523b3ef908290a45050565b82805461376090613b96565b90600052602060002090601f01602090048101928261378257600085556137c8565b82601f1061379b57805160ff19168380011785556137c8565b828001600101855582156137c8579182015b828111156137c85782518255916020019190600101906137ad565b506137d49291506137d8565b5090565b5b808211156137d457600081556001016137d9565b6001600160e01b0319811681146118a357600080fd5b60006020828403121561381557600080fd5b8135610ddc816137ed565b60005b8381101561383b578181015183820152602001613823565b838111156116445750506000910152565b60008151808452613864816020860160208601613820565b601f01601f19169290920160200192915050565b602081526000610ddc602083018461384c565b60006020828403121561389d57600080fd5b5035919050565b80356001600160a01b03811681146138bb57600080fd5b919050565b600080604083850312156138d357600080fd5b6138dc836138a4565b946020939093013593505050565b600080604083850312156138fd57600080fd5b50508035926020909101359150565b60006020828403121561391e57600080fd5b610ddc826138a4565b80151581146118a357600080fd5b60006020828403121561394757600080fd5b8135610ddc81613927565b60008060006060848603121561396757600080fd5b613970846138a4565b925061397e602085016138a4565b9150604084013590509250925092565b600080604083850312156139a157600080fd5b6139aa836138a4565b91506139b8602084016138a4565b90509250929050565b634e487b7160e01b600052604160045260246000fd5b600067ffffffffffffffff808411156139f2576139f26139c1565b604051601f8501601f19908116603f01168101908282118183101715613a1a57613a1a6139c1565b81604052809350858152868686011115613a3357600080fd5b858560208301376000602087830101525050509392505050565b600060208284031215613a5f57600080fd5b813567ffffffffffffffff811115613a7657600080fd5b8201601f81018413613a8757600080fd5b612567848235602084016139d7565b6020808252825182820181905260009190848201906040850190845b81811015613ad75783516001600160a01b031683529284019291840191600101613ab2565b50909695505050505050565b60008060408385031215613af657600080fd5b613aff836138a4565b91506020830135613b0f81613927565b809150509250929050565b60008060008060808587031215613b3057600080fd5b613b39856138a4565b9350613b47602086016138a4565b925060408501359150606085013567ffffffffffffffff811115613b6a57600080fd5b8501601f81018713613b7b57600080fd5b613b8a878235602084016139d7565b91505092959194509250565b600181811c90821680613baa57607f821691505b60208210811415613bcb57634e487b7160e01b600052602260045260246000fd5b50919050565b60208082526013908201527213dddb995c9cda1a5c081c995b9bdd5b98d959606a1b604082015260600190565b60208082526016908201527521b0b63632b91034b9903737ba1030b71037bbb732b960511b604082015260600190565b600060208284031215613c4057600080fd5b815160ff81168114610ddc57600080fd5b634e487b7160e01b600052601160045260246000fd5b600181815b80851115613ca2578160001904821115613c8857613c88613c51565b80851615613c9557918102915b93841c9390800290613c6c565b509250929050565b600082613cb957506001610a0b565b81613cc657506000610a0b565b8160018114613cdc5760028114613ce657613d02565b6001915050610a0b565b60ff841115613cf757613cf7613c51565b50506001821b610a0b565b5060208310610133831016604e8410600b8410161715613d25575081810a610a0b565b613d2f8383613c67565b8060001904821115613d4357613d43613c51565b029392505050565b6000610ddc60ff841683613caa565b6000816000190483118215151615613d7457613d74613c51565b500290565b634e487b7160e01b600052601260045260246000fd5b600082613d9e57613d9e613d79565b500490565b634e487b7160e01b600052603260045260246000fd5b600082821015613dcb57613dcb613c51565b500390565b60008219821115613de357613de3613c51565b500190565b6000600019821415613dfc57613dfc613c51565b5060010190565b634e487b7160e01b600052603160045260246000fd5b60208082526031908201527f4552433732313a207472616e736665722063616c6c6572206973206e6f74206f6040820152701ddb995c881b9bdc88185c1c1c9bdd9959607a1b606082015260800190565b6020808252600f908201526e10dbdb9d1c9858dd081c185d5cd959608a1b604082015260600190565b600060208284031215613ea557600080fd5b5051919050565b600060208284031215613ebe57600080fd5b8151610ddc81613927565b60208082526032908201527f4552433732313a207472616e7366657220746f206e6f6e20455243373231526560408201527131b2b4bb32b91034b6b83632b6b2b73a32b960711b606082015260800190565b656c6576656c3d60d01b815260008451613f3c816006850160208901613820565b6a266269727468446174653d60a81b6006918401918201528451613f67816011840160208901613820565b6d266c6f636b6564416d6f756e743d60901b601192909101918201528351613f9681601f840160208801613820565b01601f0195945050505050565b60008351613fb5818460208801613820565b835190830190613fc9818360208801613820565b01949350505050565b6001600160a01b03858116825284166020820152604081018390526080606082018190526000906140059083018461384c565b9695505050505050565b60006020828403121561402157600080fd5b8151610ddc816137ed565b60008261403b5761403b613d79565b50069056fea264697066735822122047a025c2769000060aaa809a4d7ce26736918086052121e931e4918022bbe94964736f6c634300080b003368747470733a2f2f736c696d656b65657065722d7765622d6465762e6865726f6b756170702e636f6d2f6170692f6e66742f646174613f",
  "immutableReferences": {},
  "source": "// SPDX-License-Identifier: MIT\n\npragma solidity >=0.4.22 <0.9.0;\n\nimport \"./PauseOwners.sol\";\nimport \"./Token.sol\";\nimport \"./Rewards.sol\";\nimport \"@openzeppelin/contracts/token/ERC721/ERC721.sol\";\nimport \"@openzeppelin/contracts/token/ERC721/extensions/ERC721Enumerable.sol\";\nimport \"@openzeppelin/contracts/token/ERC721/extensions/ERC721URIStorage.sol\";\nimport \"@openzeppelin/contracts/utils/Counters.sol\";\nimport \"@openzeppelin/contracts/utils/Strings.sol\";\n\ncontract NFT is ERC721, ERC721Enumerable, ERC721URIStorage, PauseOwners {\n\tusing Counters for Counters.Counter;\n\tusing Strings for uint256;\n\n\tevent Minted(address minter, uint256 amount, uint256 date);\n\tevent Compounded(address compounder, uint256 amount, uint256 date);\n\tevent Claimed(address claimer, uint256 amount, uint256 date);\n\n\tuint256 public addressMax = 5; // Max NFTs per address\n\tuint256 public supplyMax = 1000; // Max total supply cap\n\tuint256 public mintPrice = 100; // Mint price of one NFT in tokens\n\tuint256 public maxTokenLevel = 10; // Amount of levels an individual NFT can be upgraded\n\tuint256 public tokensPerLevel = 100; // Amount of tokens needed to upgrade an NFT (one level)\n\tuint256 public rewardRatePercentage = 500; // Reward rate in percentage per year (APR)\n\n\tbool public presaleEnded;\n\tbool public presalePaused = true;\n\tuint256 public presaleSupply = 100;\n\tuint256 public presalePrice = 0.5 ether;\n\n\tToken private token;\n\tRewards private rewards;\n\n\tCounters.Counter private tokenIds;\n\n\tstring private nftBaseURI =\n\t\t\"https://slimekeeper-web-dev.herokuapp.com/api/nft/data?\";\n\n\tmapping(address => uint256) private amountMinted;\n\tmapping(uint256 => NFTData) private nftData; // Store NFT Data for invidividual token\n\n\t// Represents in-game properties\n\tstruct NFTData {\n\t\tuint256 level; // Current level of NFT\n\t\tuint256 birthDate; // Date this NFT was minted\n\t\tuint256 lockedAmount; // Amount of tokens currently locked in this NFT\n\t\tuint256 lastClaimedDate; // Date last rewards were last claimed, if not claimed once, same as birth\n\n\t\t// Other in-game properties here and API configured to show them\n\t}\n\n\tconstructor() ERC721(\"NFT\", \"NFT\") {\n\t\tsetIsPaused(true);\n\t}\n\n\tmodifier checkPresaleState() {\n\t\trequire(!presaleEnded, \"Presale has ended already\");\n\t\trequire(!presalePaused, \"Presale currently paused\");\n\t\t_;\n\t}\n\n\tfunction mintPresale(address to, uint256 amount)\n\t\texternal\n\t\tpayable\n\t\tcheckPresaleState\n\t{\n\t\tif (totalSupply() >= presaleSupply) {\n\t\t\tpresaleEnded = true;\n\t\t\treturn;\n\t\t}\n\t\tcheckAmountMinted(to, amount, presaleSupply);\n\t\tuint256 totalMintPrice = amount * presalePrice;\n\t\trequire(msg.value >= totalMintPrice, \"Not enough ether sent\");\n\t\tcreateNFT(to, amount);\n\t\tuint256 excess = msg.value - totalMintPrice;\n\t\tif (excess > 0) {\n\t\t\t// Refund excess ether\n\t\t\t(bool refundSuccess, ) = msg.sender.call{ value: excess }(\"\");\n\t\t\trequire(refundSuccess, \"Refund unsuccessfull\");\n\t\t}\n\t}\n\n\tfunction mint(address to, uint256 amount) external checkPaused(msg.sender) {\n\t\trequire(totalSupply() < supplyMax, \"Max supply has been reached\");\n\t\tcheckAmountMinted(to, amount, supplyMax);\n\t\tuint256 totalMintPrice = amount * mintPrice * 10**token.decimals();\n\t\trequire(\n\t\t\ttoken.balanceOf(msg.sender) >= totalMintPrice,\n\t\t\t\"Token balance too low\"\n\t\t);\n\t\trequire(\n\t\t\ttoken.allowance(msg.sender, address(this)) >= totalMintPrice,\n\t\t\t\"Not enough allowance\"\n\t\t);\n\t\tcreateNFT(to, amount);\n\t\trequire(\n\t\t\ttoken.transferFrom(msg.sender, address(rewards), totalMintPrice),\n\t\t\t\"Token payment failed\"\n\t\t);\n\t}\n\n\tfunction checkAmountMinted(\n\t\taddress to,\n\t\tuint256 amount,\n\t\tuint256 supply\n\t) private view {\n\t\trequire(\n\t\t\tamountMinted[to] + amount <= addressMax,\n\t\t\t\"Max mint exceeded for this address\"\n\t\t);\n\t\trequire(\n\t\t\tamountMinted[to] + amount <= supply,\n\t\t\t\"This mint would exceed presale supply cap\"\n\t\t);\n\t}\n\n\tfunction createNFT(address to, uint256 amount) private {\n\t\tuint256 birthDate = block.timestamp;\n\t\tfor (uint256 i = 0; i < amount; i++) {\n\t\t\tuint256 currTokenId = tokenIds.current();\n\t\t\t_safeMint(to, currTokenId);\n\t\t\tNFTData memory data = NFTData({\n\t\t\t\tlevel: 1,\n\t\t\t\tbirthDate: birthDate,\n\t\t\t\tlockedAmount: 0,\n\t\t\t\tlastClaimedDate: birthDate\n\t\t\t});\n\t\t\tnftData[currTokenId] = data;\n\t\t\tupdateTokenUri(currTokenId, data);\n\t\t\ttokenIds.increment();\n\t\t}\n\t\tamountMinted[to] += amount;\n\t\temit Minted(to, amount, birthDate);\n\t}\n\n\tfunction compound(uint256 tokenId, uint256 amountToken)\n\t\texternal\n\t\tcheckPaused(msg.sender)\n\t{\n\t\tamountToken *= 10**token.decimals();\n\t\trequire(\n\t\t\ttoken.balanceOf(msg.sender) >= amountToken,\n\t\t\t\"Token balance too low\"\n\t\t);\n\t\trequire(\n\t\t\ttoken.allowance(msg.sender, address(this)) >= amountToken,\n\t\t\t\"Not enough allowance\"\n\t\t);\n\t\tclaimReward(tokenId); // Claim before compounding\n\t\tNFTData storage data = nftData[tokenId];\n\t\trequire(data.level < maxTokenLevel, \"This NFT is already max level\");\n\t\tuint256 tokensPerLevelDecimals = tokensPerLevel * 10**token.decimals();\n\t\tuint256 newLocked = data.lockedAmount +\n\t\t\tamountToken +\n\t\t\t(data.level == 1 ? tokensPerLevelDecimals : 0);\n\t\tuint256 newLevel = newLocked / tokensPerLevelDecimals;\n\t\tuint256 excessAmount = 0;\n\t\tif (newLevel >= maxTokenLevel) {\n\t\t\texcessAmount = newLocked - (maxTokenLevel * tokensPerLevelDecimals);\n\t\t\tdata.lockedAmount = newLocked - excessAmount;\n\t\t\tdata.level = maxTokenLevel;\n\t\t} else {\n\t\t\tdata.lockedAmount = newLocked;\n\t\t\tdata.level = newLevel;\n\t\t}\n\t\tupdateTokenUri(tokenId, data);\n\t\tuint256 finalAmountToken = amountToken - excessAmount;\n\t\trequire(\n\t\t\ttoken.transferFrom(msg.sender, address(rewards), finalAmountToken),\n\t\t\t\"Token payment failed\"\n\t\t);\n\t\temit Compounded(msg.sender, finalAmountToken, block.timestamp);\n\t}\n\n\tfunction updateTokenUri(uint256 tokenId, NFTData memory data) private {\n\t\t_setTokenURI(\n\t\t\ttokenId,\n\t\t\tstring(\n\t\t\t\tabi.encodePacked(\n\t\t\t\t\t\"level=\",\n\t\t\t\t\tdata.level.toString(),\n\t\t\t\t\t\"&birthDate=\",\n\t\t\t\t\tdata.birthDate.toString(),\n\t\t\t\t\t\"&lockedAmount=\",\n\t\t\t\t\tdata.lockedAmount.toString()\n\t\t\t\t)\n\t\t\t)\n\t\t);\n\t}\n\n\tfunction claimReward(uint256 tokenId) public checkPaused(msg.sender) {\n\t\tuint256 amountReward = getRewardAmount(tokenId);\n\t\trequire(\n\t\t\townerOf(tokenId) == msg.sender,\n\t\t\t\"Sender does not own this token\"\n\t\t);\n\t\tif (amountReward > 0) {\n\t\t\tnftData[tokenId].lastClaimedDate = block.timestamp;\n\t\t\trewards.withdraw(msg.sender, amountReward);\n\t\t\temit Claimed(msg.sender, amountReward, block.timestamp);\n\t\t}\n\t}\n\n\tfunction getRewardAmount(uint256 tokenId) public view returns (uint256) {\n\t\trequire(_exists(tokenId), \"Token ID does not exist\");\n\t\tNFTData storage data = nftData[tokenId];\n\t\tuint256 timeSinceLastClaim = block.timestamp - data.lastClaimedDate;\n\t\treturn calculateReward(timeSinceLastClaim, data.level);\n\t}\n\n\tfunction calculateReward(uint256 time, uint256 level)\n\t\tpublic\n\t\tview\n\t\treturns (uint256)\n\t{\n\t\ttime = (time * 10**token.decimals()) / 365 days;\n\t\treturn level * rewardRatePercentage * time;\n\t}\n\n\tfunction claimPresaleETH() external onlyOwners {\n\t\t// Allows contract owner to retrieve presale ether\n\t\trequire(presaleEnded, \"Presale not ended yet\");\n\t\t(bool claimSuccess, ) = msg.sender.call{ value: address(this).balance }(\n\t\t\t\"\"\n\t\t);\n\t\trequire(claimSuccess, \"Something went wrong claiming\");\n\t}\n\n\tfunction getNFTData(uint256 tokenId)\n\t\texternal\n\t\tview\n\t\treturns (\n\t\t\tuint256,\n\t\t\tuint256,\n\t\t\tuint256,\n\t\t\tuint256\n\t\t)\n\t{\n\t\trequire(_exists(tokenId), \"This token ID does not exist\");\n\t\tNFTData storage data = nftData[tokenId];\n\t\treturn (\n\t\t\tdata.level,\n\t\t\tdata.birthDate,\n\t\t\tdata.lockedAmount,\n\t\t\tdata.lastClaimedDate\n\t\t);\n\t}\n\n\tfunction setAddressMax(uint256 addressMax_) external onlyOwners {\n\t\taddressMax = addressMax_;\n\t}\n\n\tfunction setSupplyMax(uint256 supplyMax_) external onlyOwners {\n\t\tsupplyMax = supplyMax_;\n\t}\n\n\tfunction setMintPrice(uint256 mintPrice_) external onlyOwners {\n\t\tmintPrice = mintPrice_;\n\t}\n\n\tfunction setMaxTokenLevel(uint256 maxTokenLevel_) external onlyOwners {\n\t\tmaxTokenLevel = maxTokenLevel_;\n\t}\n\n\tfunction setTokensPerLevel(uint256 tokensPerLevel_) external onlyOwners {\n\t\ttokensPerLevel = tokensPerLevel_;\n\t}\n\n\tfunction setRewardRatePercentage(uint256 rewardRatePercentage_)\n\t\texternal\n\t\tonlyOwners\n\t{\n\t\trewardRatePercentage = rewardRatePercentage_;\n\t}\n\n\tfunction setPresaleEnded(bool presaleEnded_) external onlyOwners {\n\t\tpresaleEnded = presaleEnded_;\n\t}\n\n\tfunction setPresalePaused(bool presalePaused_) external onlyOwners {\n\t\tpresalePaused = presalePaused_;\n\t}\n\n\tfunction setPresaleSupply(uint256 presaleSupply_) external onlyOwners {\n\t\tpresaleSupply = presaleSupply_;\n\t}\n\n\tfunction setPresalePrice(uint256 presalePrice_) external onlyOwners {\n\t\tpresalePrice = presalePrice_;\n\t}\n\n\tfunction setAddresses(address tokenAddress, address rewardsAddress)\n\t\texternal\n\t\tonlyOwners\n\t{\n\t\ttoken = Token(payable(tokenAddress));\n\t\trewards = Rewards(rewardsAddress);\n\t}\n\n\tfunction setBaseUri(string memory baseURI_) external onlyOwners {\n\t\tnftBaseURI = baseURI_;\n\t}\n\n\tfunction totalSupply() public view override returns (uint256) {\n\t\treturn tokenIds.current();\n\t}\n\n\tfunction _baseURI() internal view override returns (string memory) {\n\t\treturn nftBaseURI;\n\t}\n\n\t// The following functions are overrides required by Solidity.\n\tfunction _beforeTokenTransfer(\n\t\taddress from,\n\t\taddress to,\n\t\tuint256 tokenId\n\t) internal override(ERC721, ERC721Enumerable) {\n\t\tsuper._beforeTokenTransfer(from, to, tokenId);\n\t}\n\n\tfunction _burn(uint256 tokenId)\n\t\tinternal\n\t\toverride(ERC721, ERC721URIStorage)\n\t{\n\t\tsuper._burn(tokenId);\n\t}\n\n\tfunction tokenURI(uint256 tokenId)\n\t\tpublic\n\t\tview\n\t\toverride(ERC721, ERC721URIStorage)\n\t\treturns (string memory)\n\t{\n\t\treturn super.tokenURI(tokenId);\n\t}\n\n\tfunction supportsInterface(bytes4 interfaceId)\n\t\tpublic\n\t\tview\n\t\toverride(ERC721, ERC721Enumerable)\n\t\treturns (bool)\n\t{\n\t\treturn super.supportsInterface(interfaceId);\n\t}\n}\n",
  "sourcePath": "C:\\Users\\sants\\Desktop\\slimekeeper\\slimekeeper_contracts\\contracts\\NFT.sol",
  "compiler": {
    "name": "solc",
    "version": "0.8.11+commit.d7f03943.Emscripten.clang"
  },
  "schemaVersion": "3.4.5",
  "updatedAt": "2022-02-28T19:06:16.793Z",
  "networkType": "ethereum",
  "devdoc": {
    "kind": "dev",
    "methods": {
      "approve(address,uint256)": {
        "details": "See {IERC721-approve}."
      },
      "balanceOf(address)": {
        "details": "See {IERC721-balanceOf}."
      },
      "getApproved(uint256)": {
        "details": "See {IERC721-getApproved}."
      },
      "isApprovedForAll(address,address)": {
        "details": "See {IERC721-isApprovedForAll}."
      },
      "name()": {
        "details": "See {IERC721Metadata-name}."
      },
      "ownerOf(uint256)": {
        "details": "See {IERC721-ownerOf}."
      },
      "safeTransferFrom(address,address,uint256)": {
        "details": "See {IERC721-safeTransferFrom}."
      },
      "safeTransferFrom(address,address,uint256,bytes)": {
        "details": "See {IERC721-safeTransferFrom}."
      },
      "setApprovalForAll(address,bool)": {
        "details": "See {IERC721-setApprovalForAll}."
      },
      "symbol()": {
        "details": "See {IERC721Metadata-symbol}."
      },
      "tokenByIndex(uint256)": {
        "details": "See {IERC721Enumerable-tokenByIndex}."
      },
      "tokenOfOwnerByIndex(address,uint256)": {
        "details": "See {IERC721Enumerable-tokenOfOwnerByIndex}."
      },
      "totalSupply()": {
        "details": "See {IERC721Enumerable-totalSupply}."
      },
      "transferFrom(address,address,uint256)": {
        "details": "See {IERC721-transferFrom}."
      }
    },
    "version": 1
  },
  "userdoc": {
    "kind": "user",
    "methods": {},
    "version": 1
  }
}