{
  "contractName": "NFT",
  "abi": [
    {
      "inputs": [],
      "stateMutability": "nonpayable",
      "type": "constructor"
    },
    {
      "anonymous": false,
      "inputs": [
        {
          "indexed": true,
          "internalType": "address",
          "name": "owner",
          "type": "address"
        },
        {
          "indexed": true,
          "internalType": "address",
          "name": "approved",
          "type": "address"
        },
        {
          "indexed": true,
          "internalType": "uint256",
          "name": "tokenId",
          "type": "uint256"
        }
      ],
      "name": "Approval",
      "type": "event"
    },
    {
      "anonymous": false,
      "inputs": [
        {
          "indexed": true,
          "internalType": "address",
          "name": "owner",
          "type": "address"
        },
        {
          "indexed": true,
          "internalType": "address",
          "name": "operator",
          "type": "address"
        },
        {
          "indexed": false,
          "internalType": "bool",
          "name": "approved",
          "type": "bool"
        }
      ],
      "name": "ApprovalForAll",
      "type": "event"
    },
    {
      "anonymous": false,
      "inputs": [
        {
          "indexed": false,
          "internalType": "address",
          "name": "claimer",
          "type": "address"
        },
        {
          "indexed": false,
          "internalType": "uint256",
          "name": "amount",
          "type": "uint256"
        },
        {
          "indexed": false,
          "internalType": "uint256",
          "name": "date",
          "type": "uint256"
        }
      ],
      "name": "Claimed",
      "type": "event"
    },
    {
      "anonymous": false,
      "inputs": [
        {
          "indexed": false,
          "internalType": "address",
          "name": "compounder",
          "type": "address"
        },
        {
          "indexed": false,
          "internalType": "uint256",
          "name": "amount",
          "type": "uint256"
        },
        {
          "indexed": false,
          "internalType": "uint256",
          "name": "date",
          "type": "uint256"
        }
      ],
      "name": "Compounded",
      "type": "event"
    },
    {
      "anonymous": false,
      "inputs": [
        {
          "indexed": false,
          "internalType": "address",
          "name": "minter",
          "type": "address"
        },
        {
          "indexed": false,
          "internalType": "uint256",
          "name": "amount",
          "type": "uint256"
        },
        {
          "indexed": false,
          "internalType": "uint256",
          "name": "date",
          "type": "uint256"
        }
      ],
      "name": "Minted",
      "type": "event"
    },
    {
      "anonymous": false,
      "inputs": [
        {
          "indexed": true,
          "internalType": "address",
          "name": "adder",
          "type": "address"
        },
        {
          "indexed": true,
          "internalType": "address",
          "name": "owner",
          "type": "address"
        },
        {
          "indexed": true,
          "internalType": "uint256",
          "name": "timestamp",
          "type": "uint256"
        }
      ],
      "name": "OwnerAdded",
      "type": "event"
    },
    {
      "anonymous": false,
      "inputs": [
        {
          "indexed": true,
          "internalType": "address",
          "name": "remover",
          "type": "address"
        },
        {
          "indexed": true,
          "internalType": "address",
          "name": "removed",
          "type": "address"
        },
        {
          "indexed": true,
          "internalType": "uint256",
          "name": "timestamp",
          "type": "uint256"
        }
      ],
      "name": "OwnerRemoved",
      "type": "event"
    },
    {
      "anonymous": false,
      "inputs": [
        {
          "indexed": true,
          "internalType": "address",
          "name": "from",
          "type": "address"
        },
        {
          "indexed": true,
          "internalType": "address",
          "name": "to",
          "type": "address"
        },
        {
          "indexed": true,
          "internalType": "uint256",
          "name": "tokenId",
          "type": "uint256"
        }
      ],
      "name": "Transfer",
      "type": "event"
    },
    {
      "inputs": [
        {
          "internalType": "address",
          "name": "owner",
          "type": "address"
        }
      ],
      "name": "addOwner",
      "outputs": [],
      "stateMutability": "nonpayable",
      "type": "function"
    },
    {
      "inputs": [],
      "name": "addressMax",
      "outputs": [
        {
          "internalType": "uint256",
          "name": "",
          "type": "uint256"
        }
      ],
      "stateMutability": "view",
      "type": "function",
      "constant": true
    },
    {
      "inputs": [
        {
          "internalType": "address",
          "name": "to",
          "type": "address"
        },
        {
          "internalType": "uint256",
          "name": "tokenId",
          "type": "uint256"
        }
      ],
      "name": "approve",
      "outputs": [],
      "stateMutability": "nonpayable",
      "type": "function"
    },
    {
      "inputs": [
        {
          "internalType": "address",
          "name": "owner",
          "type": "address"
        }
      ],
      "name": "balanceOf",
      "outputs": [
        {
          "internalType": "uint256",
          "name": "",
          "type": "uint256"
        }
      ],
      "stateMutability": "view",
      "type": "function",
      "constant": true
    },
    {
      "inputs": [
        {
          "internalType": "uint256",
          "name": "tokenId",
          "type": "uint256"
        }
      ],
      "name": "getApproved",
      "outputs": [
        {
          "internalType": "address",
          "name": "",
          "type": "address"
        }
      ],
      "stateMutability": "view",
      "type": "function",
      "constant": true
    },
    {
      "inputs": [],
      "name": "getOwners",
      "outputs": [
        {
          "internalType": "address[]",
          "name": "",
          "type": "address[]"
        }
      ],
      "stateMutability": "view",
      "type": "function",
      "constant": true
    },
    {
      "inputs": [
        {
          "internalType": "address",
          "name": "owner",
          "type": "address"
        },
        {
          "internalType": "address",
          "name": "operator",
          "type": "address"
        }
      ],
      "name": "isApprovedForAll",
      "outputs": [
        {
          "internalType": "bool",
          "name": "",
          "type": "bool"
        }
      ],
      "stateMutability": "view",
      "type": "function",
      "constant": true
    },
    {
      "inputs": [
        {
          "internalType": "address",
          "name": "owner",
          "type": "address"
        }
      ],
      "name": "isOwner",
      "outputs": [
        {
          "internalType": "bool",
          "name": "",
          "type": "bool"
        }
      ],
      "stateMutability": "view",
      "type": "function",
      "constant": true
    },
    {
      "inputs": [],
      "name": "levelRewardDivisor",
      "outputs": [
        {
          "internalType": "uint256",
          "name": "",
          "type": "uint256"
        }
      ],
      "stateMutability": "view",
      "type": "function",
      "constant": true
    },
    {
      "inputs": [],
      "name": "maxTokenLevel",
      "outputs": [
        {
          "internalType": "uint256",
          "name": "",
          "type": "uint256"
        }
      ],
      "stateMutability": "view",
      "type": "function",
      "constant": true
    },
    {
      "inputs": [],
      "name": "mintPrice",
      "outputs": [
        {
          "internalType": "uint256",
          "name": "",
          "type": "uint256"
        }
      ],
      "stateMutability": "view",
      "type": "function",
      "constant": true
    },
    {
      "inputs": [],
      "name": "name",
      "outputs": [
        {
          "internalType": "string",
          "name": "",
          "type": "string"
        }
      ],
      "stateMutability": "view",
      "type": "function",
      "constant": true
    },
    {
      "inputs": [
        {
          "internalType": "uint256",
          "name": "",
          "type": "uint256"
        }
      ],
      "name": "nftData",
      "outputs": [
        {
          "internalType": "uint256",
          "name": "level",
          "type": "uint256"
        },
        {
          "internalType": "uint256",
          "name": "birthDate",
          "type": "uint256"
        },
        {
          "internalType": "uint256",
          "name": "lockedAmount",
          "type": "uint256"
        },
        {
          "internalType": "uint256",
          "name": "lastClaimedDate",
          "type": "uint256"
        }
      ],
      "stateMutability": "view",
      "type": "function",
      "constant": true
    },
    {
      "inputs": [
        {
          "internalType": "uint256",
          "name": "tokenId",
          "type": "uint256"
        }
      ],
      "name": "ownerOf",
      "outputs": [
        {
          "internalType": "address",
          "name": "",
          "type": "address"
        }
      ],
      "stateMutability": "view",
      "type": "function",
      "constant": true
    },
    {
      "inputs": [
        {
          "internalType": "address",
          "name": "owner",
          "type": "address"
        }
      ],
      "name": "removeOwner",
      "outputs": [],
      "stateMutability": "nonpayable",
      "type": "function"
    },
    {
      "inputs": [
        {
          "internalType": "address",
          "name": "from",
          "type": "address"
        },
        {
          "internalType": "address",
          "name": "to",
          "type": "address"
        },
        {
          "internalType": "uint256",
          "name": "tokenId",
          "type": "uint256"
        }
      ],
      "name": "safeTransferFrom",
      "outputs": [],
      "stateMutability": "nonpayable",
      "type": "function"
    },
    {
      "inputs": [
        {
          "internalType": "address",
          "name": "from",
          "type": "address"
        },
        {
          "internalType": "address",
          "name": "to",
          "type": "address"
        },
        {
          "internalType": "uint256",
          "name": "tokenId",
          "type": "uint256"
        },
        {
          "internalType": "bytes",
          "name": "_data",
          "type": "bytes"
        }
      ],
      "name": "safeTransferFrom",
      "outputs": [],
      "stateMutability": "nonpayable",
      "type": "function"
    },
    {
      "inputs": [
        {
          "internalType": "address",
          "name": "operator",
          "type": "address"
        },
        {
          "internalType": "bool",
          "name": "approved",
          "type": "bool"
        }
      ],
      "name": "setApprovalForAll",
      "outputs": [],
      "stateMutability": "nonpayable",
      "type": "function"
    },
    {
      "inputs": [
        {
          "internalType": "bool",
          "name": "newPaused",
          "type": "bool"
        }
      ],
      "name": "setIsPaused",
      "outputs": [],
      "stateMutability": "nonpayable",
      "type": "function"
    },
    {
      "inputs": [],
      "name": "supplyMax",
      "outputs": [
        {
          "internalType": "uint256",
          "name": "",
          "type": "uint256"
        }
      ],
      "stateMutability": "view",
      "type": "function",
      "constant": true
    },
    {
      "inputs": [],
      "name": "symbol",
      "outputs": [
        {
          "internalType": "string",
          "name": "",
          "type": "string"
        }
      ],
      "stateMutability": "view",
      "type": "function",
      "constant": true
    },
    {
      "inputs": [],
      "name": "timeRewardDivisor",
      "outputs": [
        {
          "internalType": "uint256",
          "name": "",
          "type": "uint256"
        }
      ],
      "stateMutability": "view",
      "type": "function",
      "constant": true
    },
    {
      "inputs": [
        {
          "internalType": "uint256",
          "name": "index",
          "type": "uint256"
        }
      ],
      "name": "tokenByIndex",
      "outputs": [
        {
          "internalType": "uint256",
          "name": "",
          "type": "uint256"
        }
      ],
      "stateMutability": "view",
      "type": "function",
      "constant": true
    },
    {
      "inputs": [
        {
          "internalType": "address",
          "name": "owner",
          "type": "address"
        },
        {
          "internalType": "uint256",
          "name": "index",
          "type": "uint256"
        }
      ],
      "name": "tokenOfOwnerByIndex",
      "outputs": [
        {
          "internalType": "uint256",
          "name": "",
          "type": "uint256"
        }
      ],
      "stateMutability": "view",
      "type": "function",
      "constant": true
    },
    {
      "inputs": [],
      "name": "tokensPerLevel",
      "outputs": [
        {
          "internalType": "uint256",
          "name": "",
          "type": "uint256"
        }
      ],
      "stateMutability": "view",
      "type": "function",
      "constant": true
    },
    {
      "inputs": [
        {
          "internalType": "address",
          "name": "from",
          "type": "address"
        },
        {
          "internalType": "address",
          "name": "to",
          "type": "address"
        },
        {
          "internalType": "uint256",
          "name": "tokenId",
          "type": "uint256"
        }
      ],
      "name": "transferFrom",
      "outputs": [],
      "stateMutability": "nonpayable",
      "type": "function"
    },
    {
      "inputs": [
        {
          "internalType": "address",
          "name": "to",
          "type": "address"
        },
        {
          "internalType": "uint256",
          "name": "amount",
          "type": "uint256"
        }
      ],
      "name": "mint",
      "outputs": [],
      "stateMutability": "nonpayable",
      "type": "function"
    },
    {
      "inputs": [
        {
          "internalType": "uint256",
          "name": "tokenId",
          "type": "uint256"
        },
        {
          "internalType": "uint256",
          "name": "amountToken",
          "type": "uint256"
        }
      ],
      "name": "compound",
      "outputs": [],
      "stateMutability": "nonpayable",
      "type": "function"
    },
    {
      "inputs": [
        {
          "internalType": "uint256",
          "name": "tokenId",
          "type": "uint256"
        }
      ],
      "name": "claim",
      "outputs": [],
      "stateMutability": "nonpayable",
      "type": "function"
    },
    {
      "inputs": [
        {
          "internalType": "uint256",
          "name": "tokenId",
          "type": "uint256"
        }
      ],
      "name": "reward",
      "outputs": [
        {
          "internalType": "uint256",
          "name": "",
          "type": "uint256"
        }
      ],
      "stateMutability": "view",
      "type": "function",
      "constant": true
    },
    {
      "inputs": [
        {
          "internalType": "uint256",
          "name": "tokenId",
          "type": "uint256"
        }
      ],
      "name": "getNFTData",
      "outputs": [
        {
          "internalType": "uint256",
          "name": "",
          "type": "uint256"
        },
        {
          "internalType": "uint256",
          "name": "",
          "type": "uint256"
        },
        {
          "internalType": "uint256",
          "name": "",
          "type": "uint256"
        },
        {
          "internalType": "uint256",
          "name": "",
          "type": "uint256"
        }
      ],
      "stateMutability": "view",
      "type": "function",
      "constant": true
    },
    {
      "inputs": [
        {
          "internalType": "uint256",
          "name": "newMax",
          "type": "uint256"
        }
      ],
      "name": "setAddressMax",
      "outputs": [],
      "stateMutability": "nonpayable",
      "type": "function"
    },
    {
      "inputs": [
        {
          "internalType": "uint256",
          "name": "newMax",
          "type": "uint256"
        }
      ],
      "name": "setSupplyMax",
      "outputs": [],
      "stateMutability": "nonpayable",
      "type": "function"
    },
    {
      "inputs": [
        {
          "internalType": "uint256",
          "name": "newPrice",
          "type": "uint256"
        }
      ],
      "name": "setMintPrice",
      "outputs": [],
      "stateMutability": "nonpayable",
      "type": "function"
    },
    {
      "inputs": [
        {
          "internalType": "uint256",
          "name": "newLevel",
          "type": "uint256"
        }
      ],
      "name": "setMaxTokenLevel",
      "outputs": [],
      "stateMutability": "nonpayable",
      "type": "function"
    },
    {
      "inputs": [
        {
          "internalType": "uint256",
          "name": "newTokensPerLevel",
          "type": "uint256"
        }
      ],
      "name": "setTokensPerLevel",
      "outputs": [],
      "stateMutability": "nonpayable",
      "type": "function"
    },
    {
      "inputs": [
        {
          "internalType": "uint256",
          "name": "newTimeRewardDivisor",
          "type": "uint256"
        }
      ],
      "name": "setTimeRewardDivisor",
      "outputs": [],
      "stateMutability": "nonpayable",
      "type": "function"
    },
    {
      "inputs": [
        {
          "internalType": "uint256",
          "name": "newLevelRewardDivisor",
          "type": "uint256"
        }
      ],
      "name": "setLevelRewardDivisor",
      "outputs": [],
      "stateMutability": "nonpayable",
      "type": "function"
    },
    {
      "inputs": [
        {
          "internalType": "address",
          "name": "newTokenAddress",
          "type": "address"
        }
      ],
      "name": "setTokenAddress",
      "outputs": [],
      "stateMutability": "nonpayable",
      "type": "function"
    },
    {
      "inputs": [
        {
          "internalType": "string",
          "name": "newBaseURI",
          "type": "string"
        }
      ],
      "name": "setBaseUri",
      "outputs": [],
      "stateMutability": "nonpayable",
      "type": "function"
    },
    {
      "inputs": [],
      "name": "totalSupply",
      "outputs": [
        {
          "internalType": "uint256",
          "name": "",
          "type": "uint256"
        }
      ],
      "stateMutability": "view",
      "type": "function",
      "constant": true
    },
    {
      "inputs": [
        {
          "internalType": "uint256",
          "name": "tokenId",
          "type": "uint256"
        }
      ],
      "name": "tokenURI",
      "outputs": [
        {
          "internalType": "string",
          "name": "",
          "type": "string"
        }
      ],
      "stateMutability": "view",
      "type": "function",
      "constant": true
    },
    {
      "inputs": [
        {
          "internalType": "bytes4",
          "name": "interfaceId",
          "type": "bytes4"
        }
      ],
      "name": "supportsInterface",
      "outputs": [
        {
          "internalType": "bool",
          "name": "",
          "type": "bool"
        }
      ],
      "stateMutability": "view",
      "type": "function",
      "constant": true
    }
  ],
  "bytecode": "0x6005600e556103e8600f5560646010819055600a6011819055601291909155601381905560145560e06040526037608081815290620037f260a0398051620000509160179160209091019062000175565b503480156200005e57600080fd5b5060408051808201825260038082526213919560ea1b6020808401828152855180870190965292855284015281519192916200009d9160009162000175565b508051620000b390600190602084019062000175565b50505033620001135760405162461bcd60e51b815260206004820152602260248201527f43616e277420696e697469616c697a652077697468207a65726f206164647265604482015261737360f01b606482015260840160405180910390fd5b336000818152600b60205260408120805460ff19166001908117909155600c805491820181559091527fdf6966c971051c3d54ec59162606531493a51404a002842f56009d7e5cf4a8c70180546001600160a01b031916909117905562000258565b82805462000183906200021b565b90600052602060002090601f016020900481019282620001a75760008555620001f2565b82601f10620001c257805160ff1916838001178555620001f2565b82800160010185558215620001f2579182015b82811115620001f2578251825591602001919060010190620001d5565b506200020092915062000204565b5090565b5b8082111562000200576000815560010162000205565b600181811c908216806200023057607f821691505b602082108114156200025257634e487b7160e01b600052602260045260246000fd5b50919050565b61358a80620002686000396000f3fe608060405234801561001057600080fd5b50600436106102695760003560e01c80636817c76c11610151578063a3db1105116100c3578063be5a40ee11610087578063be5a40ee14610577578063bff1208d1461058a578063c87b56dd1461059d578063d3281074146105b0578063e985e9c5146105b9578063f4a0a5281461053e57600080fd5b8063a3db110514610518578063a9fb763c1461052b578063aa29c3311461053e578063b1de420214610551578063b88d4fde1461056457600080fd5b806395d89b411161011557806395d89b41146104c357806396636fe1146104cb578063a0bcfc7f146104d4578063a0e67e2b146104e7578063a1a7a423146104fc578063a22cb4651461050557600080fd5b80636817c76c1461044c5780637065cb481461045557806370a08231146104685780638bb40bd31461047b5780638c2109751461048e57600080fd5b8063240976bf116101ea578063379607f5116101ae578063379607f5146103e457806340c10f19146103f757806342842e0e1461040a5780634f6ccce71461041d5780635da5128b146104305780636352211e1461043957600080fd5b8063240976bf1461037657806326a4e8d2146103895780632f54bf6e1461039c5780632f745c59146103c857806331bcbaed146103db57600080fd5b80630ad4c4f4116102315780630ad4c4f4146103025780630cef1fbf14610335578063173825d91461034857806318160ddd1461035b57806323b872dd1461036357600080fd5b806301ffc9a71461026e57806304e275821461029657806306fdde03146102ad578063081812fc146102c2578063095ea7b3146102ed575b600080fd5b61028161027c366004612d44565b6105f5565b60405190151581526020015b60405180910390f35b61029f600f5481565b60405190815260200161028d565b6102b5610606565b60405161028d9190612db9565b6102d56102d0366004612dcc565b610698565b6040516001600160a01b03909116815260200161028d565b6103006102fb366004612e01565b610725565b005b610315610310366004612dcc565b61083b565b60408051948552602085019390935291830152606082015260800161028d565b610300610343366004612dcc565b6108c2565b610300610356366004612e2b565b6108fb565b61029f610b23565b610300610371366004612e46565b610b33565b610300610384366004612e90565b610b64565b610300610397366004612e2b565b610bab565b6102816103aa366004612e2b565b6001600160a01b03166000908152600b602052604090205460ff1690565b61029f6103d6366004612e01565b610c01565b61029f60125481565b6103006103f2366004612dcc565b610c97565b610300610405366004612e01565b610f27565b610300610418366004612e46565b61148e565b61029f61042b366004612dcc565b6114a9565b61029f60145481565b6102d5610447366004612dcc565b61153c565b61029f60105481565b610300610463366004612e2b565b6115b3565b61029f610476366004612e2b565b611678565b610300610489366004612dcc565b6116ff565b61031561049c366004612dcc565b60156020526000908152604090208054600182015460028301546003909301549192909184565b6102b5611738565b61029f600e5481565b6103006104e2366004612f39565b611747565b6104ef61178e565b60405161028d9190612f82565b61029f60115481565b610300610513366004612fcf565b6117ef565b610300610526366004612dcc565b6117fa565b61029f610539366004612dcc565b611833565b61030061054c366004612dcc565b61196b565b61030061055f366004612dcc565b6119a4565b610300610572366004613006565b6119dd565b610300610585366004612dcc565b611a15565b610300610598366004613082565b611a4e565b6102b56105ab366004612dcc565b611f0a565b61029f60135481565b6102816105c73660046130a4565b6001600160a01b03918216600090815260056020908152604080832093909416825291909152205460ff1690565b600061060082611f15565b92915050565b606060008054610615906130d7565b80601f0160208091040260200160405190810160405280929190818152602001828054610641906130d7565b801561068e5780601f106106635761010080835404028352916020019161068e565b820191906000526020600020905b81548152906001019060200180831161067157829003601f168201915b5050505050905090565b60006106a382611f3a565b6107095760405162461bcd60e51b815260206004820152602c60248201527f4552433732313a20617070726f76656420717565727920666f72206e6f6e657860448201526b34b9ba32b73a103a37b5b2b760a11b60648201526084015b60405180910390fd5b506000908152600460205260409020546001600160a01b031690565b60006107308261153c565b9050806001600160a01b0316836001600160a01b0316141561079e5760405162461bcd60e51b815260206004820152602160248201527f4552433732313a20617070726f76616c20746f2063757272656e74206f776e656044820152603960f91b6064820152608401610700565b336001600160a01b03821614806107ba57506107ba81336105c7565b61082c5760405162461bcd60e51b815260206004820152603860248201527f4552433732313a20617070726f76652063616c6c6572206973206e6f74206f7760448201527f6e6572206e6f7220617070726f76656420666f7220616c6c00000000000000006064820152608401610700565b6108368383611f57565b505050565b60008060008061084a85611f3a565b6108965760405162461bcd60e51b815260206004820152601c60248201527f5468697320746f6b656e20494420646f6573206e6f74206578697374000000006044820152606401610700565b505050600091825250601560205260409020805460018201546002830154600390930154919390929190565b336000908152600b602052604090205460ff1615156001146108f65760405162461bcd60e51b815260040161070090613112565b600f55565b336000908152600b602052604090205460ff16151560011461092f5760405162461bcd60e51b815260040161070090613112565b6001600160a01b0381166000908152600b602052604090205460ff16151560011461099c5760405162461bcd60e51b815260206004820152601760248201527f41646472657373206973206e6f7420616e206f776e65720000000000000000006044820152606401610700565b60005b600c54811015610b1f57816001600160a01b0316600c82815481106109c6576109c6613142565b6000918252602090912001546001600160a01b03161415610b0d576001600160a01b0382166000908152600b60205260409020805460ff19169055805b600c54610a129060019061316e565b811015610a9d57600c610a26836001613185565b81548110610a3657610a36613142565b600091825260209091200154600c80546001600160a01b039092169184908110610a6257610a62613142565b600091825260209091200180546001600160a01b0319166001600160a01b039290921691909117905580610a958161319d565b915050610a03565b50600c805480610aaf57610aaf6131b8565b600082815260208120820160001990810180546001600160a01b031916905590910190915560405142916001600160a01b0385169133917fecc5dd9888b87e7ed252d66b9c086ab819de6c8f8b96c8e5458e105bacfbb02791a45050565b80610b178161319d565b91505061099f565b5050565b6000610b2e60195490565b905090565b610b3d3382611fc5565b610b595760405162461bcd60e51b8152600401610700906131ce565b6108368383836120af565b336000908152600b602052604090205460ff161515600114610b985760405162461bcd60e51b815260040161070090613112565b600d805460ff1916911515919091179055565b336000908152600b602052604090205460ff161515600114610bdf5760405162461bcd60e51b815260040161070090613112565b601680546001600160a01b0319166001600160a01b0392909216919091179055565b6000610c0c83611678565b8210610c6e5760405162461bcd60e51b815260206004820152602b60248201527f455243373231456e756d657261626c653a206f776e657220696e646578206f7560448201526a74206f6620626f756e647360a81b6064820152608401610700565b506001600160a01b03919091166000908152600660209081526040808320938352929052205490565b336000908152600b602052604090205460ff16610cd157600d5460ff1615610cd15760405162461bcd60e51b81526004016107009061321f565b600081815260156020526040812090610ce983611833565b905033610cf58461153c565b6001600160a01b031614610d4b5760405162461bcd60e51b815260206004820152601e60248201527f53656e64657220646f6573206e6f74206f776e207468697320746f6b656e00006044820152606401610700565b8015610836574260038301556016546040516370a0823160e01b815230600482015282916001600160a01b0316906370a0823190602401602060405180830381865afa158015610d9f573d6000803e3d6000fd5b505050506040513d601f19601f82011682018060405250810190610dc39190613248565b1015610e245760405162461bcd60e51b815260206004820152602a60248201527f4e6f7420656e6f75676820636f6e747261637420746f6b656e2062616c616e636044820152696520746f20636c61696d60b01b6064820152608401610700565b6016546040516323b872dd60e01b8152306004820152336024820152604481018390526001600160a01b03909116906323b872dd906064016020604051808303816000875af1158015610e7b573d6000803e3d6000fd5b505050506040513d601f19601f82011682018060405250810190610e9f9190613261565b610ee35760405162461bcd60e51b8152602060048201526015602482015274151bdad95b881d1c985b9cd9995c8819985a5b1959605a1b6044820152606401610700565b6040805133815260208101839052428183015290517f987d620f307ff6b94d58743cb7a7509f24071586a77759b77c2d4e29f75a2f9a9181900360600190a1505050565b336000908152600b602052604090205460ff16610f6157600d5460ff1615610f615760405162461bcd60e51b81526004016107009061321f565b600f54610f6c610b23565b10610fb95760405162461bcd60e51b815260206004820152601b60248201527f4d617820737570706c7920686173206265656e207265616368656400000000006044820152606401610700565b600e546001600160a01b038316600090815260186020526040902054610fe0908390613185565b11156110395760405162461bcd60e51b815260206004820152602260248201527f4d6178206d696e7420657863656564656420666f722074686973206164647265604482015261737360f01b6064820152608401610700565b600f546001600160a01b038316600090815260186020526040902054611060908390613185565b11156110b85760405162461bcd60e51b815260206004820152602160248201527f54686973206d696e7420776f756c642065786365656420737570706c792063616044820152600760fc1b6064820152608401610700565b6016546040805163313ce56760e01b815290516000926001600160a01b03169163313ce5679160048083019260209291908290030181865afa158015611102573d6000803e3d6000fd5b505050506040513d601f19601f82011682018060405250810190611126919061327e565b61113190600a613385565b60105461113e9084613394565b6111489190613394565b6016546040516370a0823160e01b815233600482015291925082916001600160a01b03909116906370a0823190602401602060405180830381865afa158015611195573d6000803e3d6000fd5b505050506040513d601f19601f820116820180604052508101906111b99190613248565b10156111ff5760405162461bcd60e51b8152602060048201526015602482015274546f6b656e2062616c616e636520746f6f206c6f7760581b6044820152606401610700565b601654604051636eb1769f60e11b815233600482015230602482015282916001600160a01b03169063dd62ed3e90604401602060405180830381865afa15801561124d573d6000803e3d6000fd5b505050506040513d601f19601f820116820180604052508101906112719190613248565b10156112b65760405162461bcd60e51b81526020600482015260146024820152734e6f7420656e6f75676820616c6c6f77616e636560601b6044820152606401610700565b4260005b838110156113525760006112cd60195490565b90506112d9868261225a565b6112e7818460016000612274565b604080516080810182526000808252602080830187815283850183815260608501898152878552601590935294909220925183559051600183015591516002820155905160039091015561133f601980546001019055565b508061134a8161319d565b9150506112ba565b506001600160a01b0384166000908152601860205260408120805485929061137b908490613185565b90915550506016546040516323b872dd60e01b8152336004820152306024820152604481018490526001600160a01b03909116906323b872dd906064016020604051808303816000875af11580156113d7573d6000803e3d6000fd5b505050506040513d601f19601f820116820180604052508101906113fb9190613261565b61143e5760405162461bcd60e51b8152602060048201526014602482015273151bdad95b881c185e5b595b9d0819985a5b195960621b6044820152606401610700565b604080516001600160a01b0386168152602081018590529081018290527f25b428dfde728ccfaddad7e29e4ac23c24ed7fd1a6e3e3f91894a9a073f5dfff9060600160405180910390a150505050565b610836838383604051806020016040528060008152506119dd565b60006114b460085490565b82106115175760405162461bcd60e51b815260206004820152602c60248201527f455243373231456e756d657261626c653a20676c6f62616c20696e646578206f60448201526b7574206f6620626f756e647360a01b6064820152608401610700565b6008828154811061152a5761152a613142565b90600052602060002001549050919050565b6000818152600260205260408120546001600160a01b0316806106005760405162461bcd60e51b815260206004820152602960248201527f4552433732313a206f776e657220717565727920666f72206e6f6e657869737460448201526832b73a103a37b5b2b760b91b6064820152608401610700565b336000908152600b602052604090205460ff1615156001146115e75760405162461bcd60e51b815260040161070090613112565b6001600160a01b0381166000818152600b6020526040808220805460ff19166001908117909155600c8054918201815583527fdf6966c971051c3d54ec59162606531493a51404a002842f56009d7e5cf4a8c70180546001600160a01b031916841790555142929133917fa0b18fca933618876351ba2ef88bf4505c184d3e55064bec0d7fe236dd706d849190a450565b60006001600160a01b0382166116e35760405162461bcd60e51b815260206004820152602a60248201527f4552433732313a2062616c616e636520717565727920666f7220746865207a65604482015269726f206164647265737360b01b6064820152608401610700565b506001600160a01b031660009081526003602052604090205490565b336000908152600b602052604090205460ff1615156001146117335760405162461bcd60e51b815260040161070090613112565b601455565b606060018054610615906130d7565b336000908152600b602052604090205460ff16151560011461177b5760405162461bcd60e51b815260040161070090613112565b8051610b1f906017906020840190612c92565b6060600c80548060200260200160405190810160405280929190818152602001828054801561068e57602002820191906000526020600020905b81546001600160a01b031681526001909101906020018083116117c8575050505050905090565b610b1f3383836122b9565b336000908152600b602052604090205460ff16151560011461182e5760405162461bcd60e51b815260040161070090613112565b601255565b600061183e82611f3a565b61188a5760405162461bcd60e51b815260206004820152601c60248201527f5468697320746f6b656e20494420646f6573206e6f74206578697374000000006044820152606401610700565b600082815260156020908152604091829020601654835163313ce56760e01b8152935191936001600160a01b039091169263313ce567926004808401938290030181865afa1580156118e0573d6000803e3d6000fd5b505050506040513d601f19601f82011682018060405250810190611904919061327e565b61190f90600a613385565b601454825461191f906001613185565b61192a906064613394565b61193491906133c9565b6013546003840154611946904261316e565b61195091906133c9565b61195a9190613394565b6119649190613394565b9392505050565b336000908152600b602052604090205460ff16151560011461199f5760405162461bcd60e51b815260040161070090613112565b601055565b336000908152600b602052604090205460ff1615156001146119d85760405162461bcd60e51b815260040161070090613112565b600e55565b6119e73383611fc5565b611a035760405162461bcd60e51b8152600401610700906131ce565b611a0f84848484612388565b50505050565b336000908152600b602052604090205460ff161515600114611a495760405162461bcd60e51b815260040161070090613112565b601355565b336000908152600b602052604090205460ff16611a8857600d5460ff1615611a885760405162461bcd60e51b81526004016107009061321f565b601660009054906101000a90046001600160a01b03166001600160a01b031663313ce5676040518163ffffffff1660e01b8152600401602060405180830381865afa158015611adb573d6000803e3d6000fd5b505050506040513d601f19601f82011682018060405250810190611aff919061327e565b611b0a90600a613385565b611b149082613394565b6016546040516370a0823160e01b815233600482015291925082916001600160a01b03909116906370a0823190602401602060405180830381865afa158015611b61573d6000803e3d6000fd5b505050506040513d601f19601f82011682018060405250810190611b859190613248565b1015611bcb5760405162461bcd60e51b8152602060048201526015602482015274546f6b656e2062616c616e636520746f6f206c6f7760581b6044820152606401610700565b601654604051636eb1769f60e11b815233600482015230602482015282916001600160a01b03169063dd62ed3e90604401602060405180830381865afa158015611c19573d6000803e3d6000fd5b505050506040513d601f19601f82011682018060405250810190611c3d9190613248565b1015611c825760405162461bcd60e51b81526020600482015260146024820152734e6f7420656e6f75676820616c6c6f77616e636560601b6044820152606401610700565b611c8b82610c97565b6000828152601560205260409020601154815410611ceb5760405162461bcd60e51b815260206004820152601d60248201527f54686973204e465420697320616c7265616479206d6178206c6576656c0000006044820152606401610700565b6016546040805163313ce56760e01b815290516000926001600160a01b03169163313ce5679160048083019260209291908290030181865afa158015611d35573d6000803e3d6000fd5b505050506040513d601f19601f82011682018060405250810190611d59919061327e565b611d6490600a613385565b601254611d719190613394565b90506000838360020154611d859190613185565b90506000611d9383836133c9565b905060006011548210611dd35783601154611dae9190613394565b611db8908461316e565b9050611dc4818461316e565b60028601556011548555611dde565b600285018390558185555b611df687866000015487600101548860020154612274565b6000611e02828861316e565b6016546040516323b872dd60e01b8152336004820152306024820152604481018390529192506001600160a01b0316906323b872dd906064016020604051808303816000875af1158015611e5a573d6000803e3d6000fd5b505050506040513d601f19601f82011682018060405250810190611e7e9190613261565b611ec15760405162461bcd60e51b8152602060048201526014602482015273151bdad95b881c185e5b595b9d0819985a5b195960621b6044820152606401610700565b6040805133815260208101839052428183015290517f820cea42e8517cf1ec6d4e9db93909255f07c45f7eb0a7c7b5a0f8bdcfc2e5bf9181900360600190a15050505050505050565b6060610600826123bb565b60006001600160e01b0319821663780e9d6360e01b148061060057506106008261251d565b6000908152600260205260409020546001600160a01b0316151590565b600081815260046020526040902080546001600160a01b0319166001600160a01b0384169081179091558190611f8c8261153c565b6001600160a01b03167f8c5be1e5ebec7d5bd14f71427d1e84f3dd0314c0f7b2291e5b200ac8c7c3b92560405160405180910390a45050565b6000611fd082611f3a565b6120315760405162461bcd60e51b815260206004820152602c60248201527f4552433732313a206f70657261746f7220717565727920666f72206e6f6e657860448201526b34b9ba32b73a103a37b5b2b760a11b6064820152608401610700565b600061203c8361153c565b9050806001600160a01b0316846001600160a01b031614806120775750836001600160a01b031661206c84610698565b6001600160a01b0316145b806120a757506001600160a01b0380821660009081526005602090815260408083209388168352929052205460ff165b949350505050565b826001600160a01b03166120c28261153c565b6001600160a01b03161461212a5760405162461bcd60e51b815260206004820152602960248201527f4552433732313a207472616e73666572206f6620746f6b656e2074686174206960448201526839903737ba1037bbb760b91b6064820152608401610700565b6001600160a01b03821661218c5760405162461bcd60e51b8152602060048201526024808201527f4552433732313a207472616e7366657220746f20746865207a65726f206164646044820152637265737360e01b6064820152608401610700565b61219783838361256d565b6121a2600082611f57565b6001600160a01b03831660009081526003602052604081208054600192906121cb90849061316e565b90915550506001600160a01b03821660009081526003602052604081208054600192906121f9908490613185565b909155505060008181526002602052604080822080546001600160a01b0319166001600160a01b0386811691821790925591518493918716917fddf252ad1be2c89b69c2b068fc378daa952ba7f163c4a11628f55a4df523b3ef91a4505050565b610b1f828260405180602001604052806000815250612578565b611a0f84612281856125ab565b61228a856125ab565b612293856125ab565b6040516020016122a5939291906133dd565b6040516020818303038152906040526126a9565b816001600160a01b0316836001600160a01b0316141561231b5760405162461bcd60e51b815260206004820152601960248201527f4552433732313a20617070726f766520746f2063616c6c6572000000000000006044820152606401610700565b6001600160a01b03838116600081815260056020908152604080832094871680845294825291829020805460ff191686151590811790915591519182527f17307eab39ab6107e8899845ad3d59bd9653f200f220920489ca2b5937696c31910160405180910390a3505050565b6123938484846120af565b61239f84848484612734565b611a0f5760405162461bcd60e51b815260040161070090613465565b60606123c682611f3a565b61242c5760405162461bcd60e51b815260206004820152603160248201527f45524337323155524953746f726167653a2055524920717565727920666f72206044820152703737b732bc34b9ba32b73a103a37b5b2b760791b6064820152608401610700565b6000828152600a602052604081208054612445906130d7565b80601f0160208091040260200160405190810160405280929190818152602001828054612471906130d7565b80156124be5780601f10612493576101008083540402835291602001916124be565b820191906000526020600020905b8154815290600101906020018083116124a157829003601f168201915b5050505050905060006124cf612832565b90508051600014156124e2575092915050565b8151156125145780826040516020016124fc9291906134b7565b60405160208183030381529060405292505050919050565b6120a784612841565b60006001600160e01b031982166380ac58cd60e01b148061254e57506001600160e01b03198216635b5e139f60e01b145b8061060057506301ffc9a760e01b6001600160e01b0319831614610600565b61083683838361290b565b61258283836129c3565b61258f6000848484612734565b6108365760405162461bcd60e51b815260040161070090613465565b6060816125cf5750506040805180820190915260018152600360fc1b602082015290565b8160005b81156125f957806125e38161319d565b91506125f29050600a836133c9565b91506125d3565b60008167ffffffffffffffff81111561261457612614612ead565b6040519080825280601f01601f19166020018201604052801561263e576020820181803683370190505b5090505b84156120a75761265360018361316e565b9150612660600a866134e6565b61266b906030613185565b60f81b81838151811061268057612680613142565b60200101906001600160f81b031916908160001a9053506126a2600a866133c9565b9450612642565b6126b282611f3a565b6127155760405162461bcd60e51b815260206004820152602e60248201527f45524337323155524953746f726167653a2055524920736574206f66206e6f6e60448201526d32bc34b9ba32b73a103a37b5b2b760911b6064820152608401610700565b6000828152600a60209081526040909120825161083692840190612c92565b60006001600160a01b0384163b1561282757604051630a85bd0160e11b81526001600160a01b0385169063150b7a02906127789033908990889088906004016134fa565b6020604051808303816000875af19250505080156127b3575060408051601f3d908101601f191682019092526127b091810190613537565b60015b61280d573d8080156127e1576040519150601f19603f3d011682016040523d82523d6000602084013e6127e6565b606091505b5080516128055760405162461bcd60e51b815260040161070090613465565b805181602001fd5b6001600160e01b031916630a85bd0160e11b1490506120a7565b506001949350505050565b606060178054610615906130d7565b606061284c82611f3a565b6128b05760405162461bcd60e51b815260206004820152602f60248201527f4552433732314d657461646174613a2055524920717565727920666f72206e6f60448201526e3732bc34b9ba32b73a103a37b5b2b760891b6064820152608401610700565b60006128ba612832565b905060008151116128da5760405180602001604052806000815250611964565b806128e4846125ab565b6040516020016128f59291906134b7565b6040516020818303038152906040529392505050565b6001600160a01b0383166129665761296181600880546000838152600960205260408120829055600182018355919091527ff3f7a9fe364faab93b216da50a3214154f22a0a2b415b23a84c8169e8b636ee30155565b612989565b816001600160a01b0316836001600160a01b031614612989576129898382612b02565b6001600160a01b0382166129a05761083681612b9f565b826001600160a01b0316826001600160a01b031614610836576108368282612c4e565b6001600160a01b038216612a195760405162461bcd60e51b815260206004820181905260248201527f4552433732313a206d696e7420746f20746865207a65726f20616464726573736044820152606401610700565b612a2281611f3a565b15612a6f5760405162461bcd60e51b815260206004820152601c60248201527f4552433732313a20746f6b656e20616c7265616479206d696e746564000000006044820152606401610700565b612a7b6000838361256d565b6001600160a01b0382166000908152600360205260408120805460019290612aa4908490613185565b909155505060008181526002602052604080822080546001600160a01b0319166001600160a01b03861690811790915590518392907fddf252ad1be2c89b69c2b068fc378daa952ba7f163c4a11628f55a4df523b3ef908290a45050565b60006001612b0f84611678565b612b19919061316e565b600083815260076020526040902054909150808214612b6c576001600160a01b03841660009081526006602090815260408083208584528252808320548484528184208190558352600790915290208190555b5060009182526007602090815260408084208490556001600160a01b039094168352600681528383209183525290812055565b600854600090612bb19060019061316e565b60008381526009602052604081205460088054939450909284908110612bd957612bd9613142565b906000526020600020015490508060088381548110612bfa57612bfa613142565b6000918252602080832090910192909255828152600990915260408082208490558582528120556008805480612c3257612c326131b8565b6001900381819060005260206000200160009055905550505050565b6000612c5983611678565b6001600160a01b039093166000908152600660209081526040808320868452825280832085905593825260079052919091209190915550565b828054612c9e906130d7565b90600052602060002090601f016020900481019282612cc05760008555612d06565b82601f10612cd957805160ff1916838001178555612d06565b82800160010185558215612d06579182015b82811115612d06578251825591602001919060010190612ceb565b50612d12929150612d16565b5090565b5b80821115612d125760008155600101612d17565b6001600160e01b031981168114612d4157600080fd5b50565b600060208284031215612d5657600080fd5b813561196481612d2b565b60005b83811015612d7c578181015183820152602001612d64565b83811115611a0f5750506000910152565b60008151808452612da5816020860160208601612d61565b601f01601f19169290920160200192915050565b6020815260006119646020830184612d8d565b600060208284031215612dde57600080fd5b5035919050565b80356001600160a01b0381168114612dfc57600080fd5b919050565b60008060408385031215612e1457600080fd5b612e1d83612de5565b946020939093013593505050565b600060208284031215612e3d57600080fd5b61196482612de5565b600080600060608486031215612e5b57600080fd5b612e6484612de5565b9250612e7260208501612de5565b9150604084013590509250925092565b8015158114612d4157600080fd5b600060208284031215612ea257600080fd5b813561196481612e82565b634e487b7160e01b600052604160045260246000fd5b600067ffffffffffffffff80841115612ede57612ede612ead565b604051601f8501601f19908116603f01168101908282118183101715612f0657612f06612ead565b81604052809350858152868686011115612f1f57600080fd5b858560208301376000602087830101525050509392505050565b600060208284031215612f4b57600080fd5b813567ffffffffffffffff811115612f6257600080fd5b8201601f81018413612f7357600080fd5b6120a784823560208401612ec3565b6020808252825182820181905260009190848201906040850190845b81811015612fc35783516001600160a01b031683529284019291840191600101612f9e565b50909695505050505050565b60008060408385031215612fe257600080fd5b612feb83612de5565b91506020830135612ffb81612e82565b809150509250929050565b6000806000806080858703121561301c57600080fd5b61302585612de5565b935061303360208601612de5565b925060408501359150606085013567ffffffffffffffff81111561305657600080fd5b8501601f8101871361306757600080fd5b61307687823560208401612ec3565b91505092959194509250565b6000806040838503121561309557600080fd5b50508035926020909101359150565b600080604083850312156130b757600080fd5b6130c083612de5565b91506130ce60208401612de5565b90509250929050565b600181811c908216806130eb57607f821691505b6020821081141561310c57634e487b7160e01b600052602260045260246000fd5b50919050565b60208082526016908201527521b0b63632b91034b9903737ba1030b71037bbb732b960511b604082015260600190565b634e487b7160e01b600052603260045260246000fd5b634e487b7160e01b600052601160045260246000fd5b60008282101561318057613180613158565b500390565b6000821982111561319857613198613158565b500190565b60006000198214156131b1576131b1613158565b5060010190565b634e487b7160e01b600052603160045260246000fd5b60208082526031908201527f4552433732313a207472616e736665722063616c6c6572206973206e6f74206f6040820152701ddb995c881b9bdc88185c1c1c9bdd9959607a1b606082015260800190565b6020808252600f908201526e10dbdb9d1c9858dd081c185d5cd959608a1b604082015260600190565b60006020828403121561325a57600080fd5b5051919050565b60006020828403121561327357600080fd5b815161196481612e82565b60006020828403121561329057600080fd5b815160ff8116811461196457600080fd5b600181815b808511156132dc5781600019048211156132c2576132c2613158565b808516156132cf57918102915b93841c93908002906132a6565b509250929050565b6000826132f357506001610600565b8161330057506000610600565b816001811461331657600281146133205761333c565b6001915050610600565b60ff84111561333157613331613158565b50506001821b610600565b5060208310610133831016604e8410600b841016171561335f575081810a610600565b61336983836132a1565b806000190482111561337d5761337d613158565b029392505050565b600061196460ff8416836132e4565b60008160001904831182151516156133ae576133ae613158565b500290565b634e487b7160e01b600052601260045260246000fd5b6000826133d8576133d86133b3565b500490565b656c6576656c3d60d01b8152600084516133fe816006850160208901612d61565b6a266269727468446174653d60a81b6006918401918201528451613429816011840160208901612d61565b6d266c6f636b6564416d6f756e743d60901b60119290910191820152835161345881601f840160208801612d61565b01601f0195945050505050565b60208082526032908201527f4552433732313a207472616e7366657220746f206e6f6e20455243373231526560408201527131b2b4bb32b91034b6b83632b6b2b73a32b960711b606082015260800190565b600083516134c9818460208801612d61565b8351908301906134dd818360208801612d61565b01949350505050565b6000826134f5576134f56133b3565b500690565b6001600160a01b038581168252841660208201526040810183905260806060820181905260009061352d90830184612d8d565b9695505050505050565b60006020828403121561354957600080fd5b815161196481612d2b56fea264697066735822122000ca343bec2e4540e0a79fdb013429a33938591ddf112b01c55f1d7c2487c7bc64736f6c634300080b003368747470733a2f2f736c696d656b65657065722d7765622d6465762e6865726f6b756170702e636f6d2f6170692f6e66742f646174613f",
  "immutableReferences": {},
  "source": "// SPDX-License-Identifier: MIT\n\npragma solidity >=0.4.22 <0.9.0;\n\nimport \"./PauseOwners.sol\";\nimport \"./Token.sol\";\nimport \"@openzeppelin/contracts/token/ERC721/ERC721.sol\";\nimport \"@openzeppelin/contracts/token/ERC721/extensions/ERC721Enumerable.sol\";\nimport \"@openzeppelin/contracts/token/ERC721/extensions/ERC721URIStorage.sol\";\nimport \"@openzeppelin/contracts/utils/Counters.sol\";\nimport \"@openzeppelin/contracts/utils/Strings.sol\";\n\ncontract NFT is ERC721, ERC721Enumerable, ERC721URIStorage, PauseOwners {\n\tusing Counters for Counters.Counter;\n\tusing Strings for uint256;\n\n\tevent Minted(address minter, uint256 amount, uint256 date);\n\tevent Compounded(address compounder, uint256 amount, uint256 date);\n\tevent Claimed(address claimer, uint256 amount, uint256 date);\n\n\tuint256 public addressMax = 5; // Max NFTs per address\n\tuint256 public supplyMax = 1000; // Max total supply cap\n\tuint256 public mintPrice = 100; // Mint price of one NFT in tokens\n\tuint256 public maxTokenLevel = 10; // Amount of levels an individual NFT can be upgraded\n\tuint256 public tokensPerLevel = 100; // Amount of tokens needed to upgrade an NFT (one level)\n\tuint256 public timeRewardDivisor = 10; // Helper to reduce/increase rewards\n\tuint256 public levelRewardDivisor = 10; // Another helper to change the impact of token level on reward generation\n\tmapping(uint256 => NFTData) public nftData; // Store NFT Data for invidividual token\n\n\tToken private token;\n\tstring private nftBaseURI =\n\t\t\"https://slimekeeper-web-dev.herokuapp.com/api/nft/data?\";\n\tmapping(address => uint256) private amountMinted;\n\tCounters.Counter private tokenIds;\n\n\t// Represents in-game properties\n\tstruct NFTData {\n\t\tuint256 level; // Current level of NFT\n\t\tuint256 birthDate; // Date this NFT was minted\n\t\tuint256 lockedAmount; // Amount of tokens currently locked in this NFT\n\t\tuint256 lastClaimedDate; // Date last rewards were last claimed, if not claimed once, same as birth\n\n\t\t// Other in-game properties here and API configured to show them\n\t}\n\n\tconstructor() ERC721(\"NFT\", \"NFT\") {}\n\n\tfunction mint(address to, uint256 amount) public checkPaused {\n\t\trequire(totalSupply() < supplyMax, \"Max supply has been reached\");\n\t\trequire(\n\t\t\tamountMinted[to] + amount <= addressMax,\n\t\t\t\"Max mint exceeded for this address\"\n\t\t);\n\t\trequire(\n\t\t\tamountMinted[to] + amount <= supplyMax,\n\t\t\t\"This mint would exceed supply cap\"\n\t\t);\n\t\tuint256 totalMintPrice = amount * mintPrice * 10**token.decimals();\n\t\trequire(\n\t\t\ttoken.balanceOf(msg.sender) >= totalMintPrice,\n\t\t\t\"Token balance too low\"\n\t\t);\n\t\trequire(\n\t\t\ttoken.allowance(msg.sender, address(this)) >= totalMintPrice,\n\t\t\t\"Not enough allowance\"\n\t\t);\n\t\tuint256 birthDate = block.timestamp;\n\t\tfor (uint256 i = 0; i < amount; i++) {\n\t\t\tuint256 currTokenId = tokenIds.current();\n\t\t\t_safeMint(to, currTokenId);\n\t\t\tupdateTokenUri(currTokenId, birthDate, 1, 0);\n\t\t\tnftData[currTokenId] = NFTData({\n\t\t\t\tlevel: 0,\n\t\t\t\tbirthDate: birthDate,\n\t\t\t\tlockedAmount: 0,\n\t\t\t\tlastClaimedDate: birthDate\n\t\t\t});\n\t\t\ttokenIds.increment();\n\t\t}\n\t\tamountMinted[to] += amount;\n\t\trequire(\n\t\t\ttoken.transferFrom(msg.sender, address(this), totalMintPrice),\n\t\t\t\"Token payment failed\"\n\t\t);\n\t\temit Minted(to, amount, birthDate);\n\t}\n\n\tfunction compound(uint256 tokenId, uint256 amountToken) public checkPaused {\n\t\tamountToken *= 10**token.decimals();\n\t\trequire(\n\t\t\ttoken.balanceOf(msg.sender) >= amountToken,\n\t\t\t\"Token balance too low\"\n\t\t);\n\t\trequire(\n\t\t\ttoken.allowance(msg.sender, address(this)) >= amountToken,\n\t\t\t\"Not enough allowance\"\n\t\t);\n\t\tclaim(tokenId); // Claim before compounding\n\t\tNFTData storage data = nftData[tokenId];\n\t\trequire(data.level < maxTokenLevel, \"This NFT is already max level\");\n\t\tuint256 tokensPerLevelDecimals = tokensPerLevel * 10**token.decimals(); // Just converting tokensPerLevel to the ERC20 decimal representation..\n\t\tuint256 newLocked = data.lockedAmount + amountToken;\n\t\tuint256 newLevel = newLocked / tokensPerLevelDecimals;\n\t\tuint256 excessAmount = 0;\n\t\tif (newLevel >= maxTokenLevel) {\n\t\t\texcessAmount = newLocked - (maxTokenLevel * tokensPerLevelDecimals);\n\t\t\tdata.lockedAmount = newLocked - excessAmount;\n\t\t\tdata.level = maxTokenLevel;\n\t\t} else {\n\t\t\tdata.lockedAmount = newLocked;\n\t\t\tdata.level = newLevel;\n\t\t}\n\t\tupdateTokenUri(tokenId, data.level, data.birthDate, data.lockedAmount);\n\t\tuint256 finalAmountToken = amountToken - excessAmount;\n\t\trequire(\n\t\t\ttoken.transferFrom(msg.sender, address(this), finalAmountToken),\n\t\t\t\"Token payment failed\"\n\t\t);\n\t\temit Compounded(msg.sender, finalAmountToken, block.timestamp);\n\t}\n\n\tfunction claim(uint256 tokenId) public checkPaused {\n\t\tNFTData storage data = nftData[tokenId];\n\t\tuint256 amountReward = reward(tokenId);\n\t\trequire(\n\t\t\townerOf(tokenId) == msg.sender,\n\t\t\t\"Sender does not own this token\"\n\t\t);\n\t\tif (amountReward > 0) {\n\t\t\tdata.lastClaimedDate = block.timestamp;\n\t\t\trequire(\n\t\t\t\ttoken.balanceOf(address(this)) >= amountReward,\n\t\t\t\t\"Not enough contract token balance to claim\"\n\t\t\t);\n\t\t\trequire(\n\t\t\t\ttoken.transferFrom(address(this), msg.sender, amountReward),\n\t\t\t\t\"Token transfer failed\"\n\t\t\t);\n\t\t\temit Claimed(msg.sender, amountReward, block.timestamp);\n\t\t}\n\t}\n\n\tfunction reward(uint256 tokenId) public view returns (uint256) {\n\t\trequire(_exists(tokenId), \"This token ID does not exist\");\n\t\tNFTData storage data = nftData[tokenId];\n\t\treturn\n\t\t\t((block.timestamp - data.lastClaimedDate) / timeRewardDivisor) *\n\t\t\t(((data.level + 1) * 100) / levelRewardDivisor) *\n\t\t\t10**token.decimals();\n\t}\n\n\tfunction getNFTData(uint256 tokenId)\n\t\texternal\n\t\tview\n\t\treturns (\n\t\t\tuint256,\n\t\t\tuint256,\n\t\t\tuint256,\n\t\t\tuint256\n\t\t)\n\t{\n\t\trequire(_exists(tokenId), \"This token ID does not exist\");\n\t\tNFTData storage data = nftData[tokenId];\n\t\treturn (\n\t\t\tdata.level,\n\t\t\tdata.birthDate,\n\t\t\tdata.lockedAmount,\n\t\t\tdata.lastClaimedDate\n\t\t);\n\t}\n\n\tfunction setAddressMax(uint256 newMax) external onlyOwners {\n\t\taddressMax = newMax;\n\t}\n\n\tfunction setSupplyMax(uint256 newMax) external onlyOwners {\n\t\tsupplyMax = newMax;\n\t}\n\n\tfunction setMintPrice(uint256 newPrice) external onlyOwners {\n\t\tmintPrice = newPrice;\n\t}\n\n\tfunction setMaxTokenLevel(uint256 newLevel) external onlyOwners {\n\t\tmintPrice = newLevel;\n\t}\n\n\tfunction setTokensPerLevel(uint256 newTokensPerLevel) external onlyOwners {\n\t\ttokensPerLevel = newTokensPerLevel;\n\t}\n\n\tfunction setTimeRewardDivisor(uint256 newTimeRewardDivisor)\n\t\texternal\n\t\tonlyOwners\n\t{\n\t\ttimeRewardDivisor = newTimeRewardDivisor;\n\t}\n\n\tfunction setLevelRewardDivisor(uint256 newLevelRewardDivisor)\n\t\texternal\n\t\tonlyOwners\n\t{\n\t\tlevelRewardDivisor = newLevelRewardDivisor;\n\t}\n\n\tfunction setTokenAddress(address newTokenAddress) external onlyOwners {\n\t\ttoken = Token(payable(newTokenAddress));\n\t}\n\n\tfunction setBaseUri(string memory newBaseURI) external onlyOwners {\n\t\tnftBaseURI = newBaseURI;\n\t}\n\n\tfunction totalSupply() public view override returns (uint256) {\n\t\treturn tokenIds.current();\n\t}\n\n\tfunction _baseURI() internal view override returns (string memory) {\n\t\treturn nftBaseURI;\n\t}\n\n\tfunction updateTokenUri(\n\t\tuint256 tokenId,\n\t\tuint256 level,\n\t\tuint256 birthDate,\n\t\tuint256 lockedAmount\n\t) private {\n\t\t_setTokenURI(\n\t\t\ttokenId,\n\t\t\tstring(\n\t\t\t\tabi.encodePacked(\n\t\t\t\t\t\"level=\",\n\t\t\t\t\tlevel.toString(),\n\t\t\t\t\t\"&birthDate=\",\n\t\t\t\t\tbirthDate.toString(),\n\t\t\t\t\t\"&lockedAmount=\",\n\t\t\t\t\tlockedAmount.toString()\n\t\t\t\t)\n\t\t\t)\n\t\t);\n\t}\n\n\t// The following functions are overrides required by Solidity.\n\tfunction _beforeTokenTransfer(\n\t\taddress from,\n\t\taddress to,\n\t\tuint256 tokenId\n\t) internal override(ERC721, ERC721Enumerable) {\n\t\tsuper._beforeTokenTransfer(from, to, tokenId);\n\t}\n\n\tfunction _burn(uint256 tokenId)\n\t\tinternal\n\t\toverride(ERC721, ERC721URIStorage)\n\t{\n\t\tsuper._burn(tokenId);\n\t}\n\n\tfunction tokenURI(uint256 tokenId)\n\t\tpublic\n\t\tview\n\t\toverride(ERC721, ERC721URIStorage)\n\t\treturns (string memory)\n\t{\n\t\treturn super.tokenURI(tokenId);\n\t}\n\n\tfunction supportsInterface(bytes4 interfaceId)\n\t\tpublic\n\t\tview\n\t\toverride(ERC721, ERC721Enumerable)\n\t\treturns (bool)\n\t{\n\t\treturn super.supportsInterface(interfaceId);\n\t}\n}\n",
  "sourcePath": "C:\\Users\\sants\\Desktop\\slimekeeper\\slimekeeper_contracts\\contracts\\NFT.sol",
  "compiler": {
    "name": "solc",
    "version": "0.8.11+commit.d7f03943.Emscripten.clang"
  },
  "schemaVersion": "3.4.4",
  "updatedAt": "2022-02-16T23:41:43.941Z",
  "networkType": "ethereum",
  "devdoc": {
    "kind": "dev",
    "methods": {
      "approve(address,uint256)": {
        "details": "See {IERC721-approve}."
      },
      "balanceOf(address)": {
        "details": "See {IERC721-balanceOf}."
      },
      "getApproved(uint256)": {
        "details": "See {IERC721-getApproved}."
      },
      "isApprovedForAll(address,address)": {
        "details": "See {IERC721-isApprovedForAll}."
      },
      "name()": {
        "details": "See {IERC721Metadata-name}."
      },
      "ownerOf(uint256)": {
        "details": "See {IERC721-ownerOf}."
      },
      "safeTransferFrom(address,address,uint256)": {
        "details": "See {IERC721-safeTransferFrom}."
      },
      "safeTransferFrom(address,address,uint256,bytes)": {
        "details": "See {IERC721-safeTransferFrom}."
      },
      "setApprovalForAll(address,bool)": {
        "details": "See {IERC721-setApprovalForAll}."
      },
      "symbol()": {
        "details": "See {IERC721Metadata-symbol}."
      },
      "tokenByIndex(uint256)": {
        "details": "See {IERC721Enumerable-tokenByIndex}."
      },
      "tokenOfOwnerByIndex(address,uint256)": {
        "details": "See {IERC721Enumerable-tokenOfOwnerByIndex}."
      },
      "totalSupply()": {
        "details": "See {IERC721Enumerable-totalSupply}."
      },
      "transferFrom(address,address,uint256)": {
        "details": "See {IERC721-transferFrom}."
      }
    },
    "version": 1
  },
  "userdoc": {
    "kind": "user",
    "methods": {},
    "version": 1
  }
}