{
  "contractName": "Owners",
  "abi": [
    {
      "inputs": [],
      "stateMutability": "nonpayable",
      "type": "constructor"
    },
    {
      "anonymous": false,
      "inputs": [
        {
          "indexed": true,
          "internalType": "address",
          "name": "adder",
          "type": "address"
        },
        {
          "indexed": true,
          "internalType": "address",
          "name": "owner",
          "type": "address"
        },
        {
          "indexed": true,
          "internalType": "uint256",
          "name": "timestamp",
          "type": "uint256"
        }
      ],
      "name": "OwnerAdded",
      "type": "event"
    },
    {
      "anonymous": false,
      "inputs": [
        {
          "indexed": true,
          "internalType": "address",
          "name": "remover",
          "type": "address"
        },
        {
          "indexed": true,
          "internalType": "address",
          "name": "owner",
          "type": "address"
        },
        {
          "indexed": true,
          "internalType": "uint256",
          "name": "timestamp",
          "type": "uint256"
        }
      ],
      "name": "OwnerRemoved",
      "type": "event"
    },
    {
      "anonymous": false,
      "inputs": [
        {
          "indexed": false,
          "internalType": "uint256",
          "name": "timestamp",
          "type": "uint256"
        }
      ],
      "name": "OwnershipRenounced",
      "type": "event"
    },
    {
      "inputs": [],
      "name": "renounced",
      "outputs": [
        {
          "internalType": "bool",
          "name": "",
          "type": "bool"
        }
      ],
      "stateMutability": "view",
      "type": "function"
    },
    {
      "inputs": [
        {
          "internalType": "address",
          "name": "owner",
          "type": "address"
        }
      ],
      "name": "isOwner",
      "outputs": [
        {
          "internalType": "bool",
          "name": "",
          "type": "bool"
        }
      ],
      "stateMutability": "view",
      "type": "function"
    },
    {
      "inputs": [],
      "name": "getOwners",
      "outputs": [
        {
          "internalType": "address[]",
          "name": "",
          "type": "address[]"
        }
      ],
      "stateMutability": "view",
      "type": "function"
    },
    {
      "inputs": [
        {
          "internalType": "address",
          "name": "owner",
          "type": "address"
        }
      ],
      "name": "addOwner",
      "outputs": [],
      "stateMutability": "nonpayable",
      "type": "function"
    },
    {
      "inputs": [
        {
          "internalType": "address",
          "name": "owner",
          "type": "address"
        }
      ],
      "name": "removeOwner",
      "outputs": [],
      "stateMutability": "nonpayable",
      "type": "function"
    },
    {
      "inputs": [],
      "name": "renounceOwnership",
      "outputs": [],
      "stateMutability": "nonpayable",
      "type": "function"
    }
  ],
  "bytecode": "0x608060405234801561001057600080fd5b503361006d5760405162461bcd60e51b815260206004820152602260248201527f43616e277420696e697469616c697a652077697468207a65726f206164647265604482015261737360f01b606482015260840160405180910390fd5b60008054610100600160a81b0319163361010081029190911782558082526001602081905260408320805460ff1916821790556002805491820181559092527f405787fa12a823e0f2b7631cc41b3ba8828b3321ca811111fa75cd3aa3bb5ace90910180546001600160a01b031916909117905561079c806100f06000396000f3fe608060405234801561001057600080fd5b50600436106100625760003560e01c8063173825d9146100675780632f54bf6e1461007c5780637065cb48146100bd578063715018a6146100d0578063a0e67e2b146100d8578063d232c220146100ed575b600080fd5b61007a610075366004610600565b6100fa565b005b6100a861008a366004610600565b6001600160a01b031660009081526001602052604090205460ff1690565b60405190151581526020015b60405180910390f35b61007a6100cb366004610600565b610402565b61007a6104e5565b6100e061059e565b6040516100b49190610630565b6000546100a89060ff1681565b60005460ff16156101265760405162461bcd60e51b815260040161011d9061067d565b60405180910390fd5b3360009081526001602052604090205460ff166101555760405162461bcd60e51b815260040161011d906106aa565b6001600160a01b03811660009081526001602052604090205460ff166101b75760405162461bcd60e51b815260206004820152601760248201527620b2323932b9b99034b9903737ba1030b71037bbb732b960491b604482015260640161011d565b60005461010090046001600160a01b03163314156102175760405162461bcd60e51b815260206004820152601d60248201527f4d6173746572206f776e65722063616e27742062652072656d6f766564000000604482015260640161011d565b60025460005b60025481101561039e57826001600160a01b031660028281548110610244576102446106da565b6000918252602090912001546001600160a01b0316141561038c576001600160a01b0383166000908152600160205260409020805460ff19169055805b60025461029090600190610706565b81101561031b5760026102a483600161071d565b815481106102b4576102b46106da565b600091825260209091200154600280546001600160a01b0390921691849081106102e0576102e06106da565b600091825260209091200180546001600160a01b0319166001600160a01b03929092169190911790558061031381610735565b915050610281565b50600280548061032d5761032d610750565b600082815260208120820160001990810180546001600160a01b031916905590910190915560405142916001600160a01b0386169133917fecc5dd9888b87e7ed252d66b9c086ab819de6c8f8b96c8e5458e105bacfbb02791a461039e565b8061039681610735565b91505061021d565b506002548181106103fd5760405162461bcd60e51b8152602060048201526024808201527f536f6d657468696e672077656e742077726f6e672072656d6f76696e67206f776044820152636e65727360e01b606482015260840161011d565b505050565b60005460ff16156104255760405162461bcd60e51b815260040161011d9061067d565b3360009081526001602052604090205460ff166104545760405162461bcd60e51b815260040161011d906106aa565b6001600160a01b0381166000818152600160208190526040808320805460ff19168317905560028054928301815583527f405787fa12a823e0f2b7631cc41b3ba8828b3321ca811111fa75cd3aa3bb5ace90910180546001600160a01b031916841790555142929133917fa0b18fca933618876351ba2ef88bf4505c184d3e55064bec0d7fe236dd706d849190a450565b60005461010090046001600160a01b031633146105555760405162461bcd60e51b815260206004820152602860248201527f4f6e6c79206d6173746572206f776e65722063616e2072656e6f756e6365206f6044820152670776e6572736869760c41b606482015260840161011d565b6000805460ff191660011790556040517f7738dc8b7a10a5636dceada812073a582b717ce047d82cd0e4918662b2e7c773906105949042815260200190565b60405180910390a1565b606060028054806020026020016040519081016040528092919081815260200182805480156105f657602002820191906000526020600020905b81546001600160a01b031681526001909101906020018083116105d8575b5050505050905090565b60006020828403121561061257600080fd5b81356001600160a01b038116811461062957600080fd5b9392505050565b6020808252825182820181905260009190848201906040850190845b818110156106715783516001600160a01b03168352928401929184019160010161064c565b50909695505050505050565b60208082526013908201527213dddb995c9cda1a5c081c995b9bdd5b98d959606a1b604082015260600190565b60208082526016908201527521b0b63632b91034b9903737ba1030b71037bbb732b960511b604082015260600190565b634e487b7160e01b600052603260045260246000fd5b634e487b7160e01b600052601160045260246000fd5b600082821015610718576107186106f0565b500390565b60008219821115610730576107306106f0565b500190565b6000600019821415610749576107496106f0565b5060010190565b634e487b7160e01b600052603160045260246000fdfea2646970667358221220c97ab710eac2aa2ff5218c1db09ab26da9d7d10151d23d5e5137708e055c382664736f6c634300080b0033",
  "immutableReferences": {},
  "source": "// SPDX-License-Identifier: MIT\r\n\r\npragma solidity >=0.4.22 <0.9.0;\r\n\r\ncontract Owners {\r\n\tevent OwnerAdded(\r\n\t\taddress indexed adder,\r\n\t\taddress indexed owner,\r\n\t\tuint256 indexed timestamp\r\n\t);\r\n\r\n\tevent OwnerRemoved(\r\n\t\taddress indexed remover,\r\n\t\taddress indexed owner,\r\n\t\tuint256 indexed timestamp\r\n\t);\r\n\r\n\tevent OwnershipRenounced(uint256 timestamp);\r\n\r\n\tbool public renounced;\r\n\r\n\taddress private masterOwner;\r\n\tmapping(address => bool) private ownerMap;\r\n\taddress[] private ownerList;\r\n\r\n\tconstructor() {\r\n\t\trequire(msg.sender != address(0), \"Can't initialize with zero address\");\r\n\r\n\t\tmasterOwner = msg.sender;\r\n\t\townerMap[msg.sender] = true;\r\n\t\townerList.push(msg.sender);\r\n\t}\r\n\r\n\tmodifier onlyOwners() {\r\n\t\trequire(!renounced, \"Ownership renounced\");\r\n\t\trequire(ownerMap[msg.sender], \"Caller is not an owner\");\r\n\t\t_;\r\n\t}\r\n\r\n\tfunction isOwner(address owner) public view returns (bool) {\r\n\t\treturn ownerMap[owner];\r\n\t}\r\n\r\n\tfunction getOwners() external view returns (address[] memory) {\r\n\t\treturn ownerList;\r\n\t}\r\n\r\n\tfunction addOwner(address owner) public onlyOwners {\r\n\t\townerMap[owner] = true;\r\n\t\townerList.push(owner);\r\n\t\temit OwnerAdded(msg.sender, owner, block.timestamp);\r\n\t}\r\n\r\n\tfunction removeOwner(address owner) public onlyOwners {\r\n\t\trequire(ownerMap[owner], \"Address is not an owner\");\r\n\t\trequire(msg.sender != masterOwner, \"Master owner can't be removed\");\r\n\r\n\t\tuint256 lengthBefore = ownerList.length;\r\n\t\tfor (uint256 i = 0; i < ownerList.length; i++) {\r\n\t\t\tif (ownerList[i] == owner) {\r\n\t\t\t\townerMap[owner] = false;\r\n\t\t\t\tfor (uint256 j = i; j < ownerList.length - 1; j++) {\r\n\t\t\t\t\townerList[i] = ownerList[i + 1];\r\n\t\t\t\t}\r\n\t\t\t\townerList.pop();\r\n\t\t\t\temit OwnerRemoved(msg.sender, owner, block.timestamp);\r\n\t\t\t\tbreak;\r\n\t\t\t}\r\n\t\t}\r\n\t\tuint256 lengthAfter = ownerList.length;\r\n\t\trequire( // Sanity check\r\n\t\t\tlengthAfter < lengthBefore,\r\n\t\t\t\"Something went wrong removing owners\"\r\n\t\t);\r\n\t}\r\n\r\n\tfunction renounceOwnership() external {\r\n\t\trequire(\r\n\t\t\tmsg.sender == masterOwner,\r\n\t\t\t\"Only master owner can renounce ownership\"\r\n\t\t);\r\n\r\n\t\trenounced = true;\r\n\t\temit OwnershipRenounced(block.timestamp);\r\n\t}\r\n}\r\n",
  "sourcePath": "C:\\Users\\sants\\Desktop\\slimekeeper\\slimekeeper_contracts\\contracts\\Owners.sol",
  "compiler": {
    "name": "solc",
    "version": "0.8.11+commit.d7f03943.Emscripten.clang"
  },
  "schemaVersion": "3.4.5",
  "updatedAt": "2022-03-02T18:54:07.160Z",
  "devdoc": {
    "kind": "dev",
    "methods": {},
    "version": 1
  },
  "userdoc": {
    "kind": "user",
    "methods": {},
    "version": 1
  }
}