{
  "contractName": "Owners",
  "abi": [
    {
      "inputs": [],
      "stateMutability": "nonpayable",
      "type": "constructor"
    },
    {
      "anonymous": false,
      "inputs": [
        {
          "indexed": true,
          "internalType": "address",
          "name": "adder",
          "type": "address"
        },
        {
          "indexed": true,
          "internalType": "address",
          "name": "owner",
          "type": "address"
        },
        {
          "indexed": true,
          "internalType": "uint256",
          "name": "timestamp",
          "type": "uint256"
        }
      ],
      "name": "OwnerAdded",
      "type": "event"
    },
    {
      "anonymous": false,
      "inputs": [
        {
          "indexed": true,
          "internalType": "address",
          "name": "remover",
          "type": "address"
        },
        {
          "indexed": true,
          "internalType": "address",
          "name": "removed",
          "type": "address"
        },
        {
          "indexed": true,
          "internalType": "uint256",
          "name": "timestamp",
          "type": "uint256"
        }
      ],
      "name": "OwnerRemoved",
      "type": "event"
    },
    {
      "inputs": [
        {
          "internalType": "address",
          "name": "owner",
          "type": "address"
        }
      ],
      "name": "isOwner",
      "outputs": [
        {
          "internalType": "bool",
          "name": "",
          "type": "bool"
        }
      ],
      "stateMutability": "view",
      "type": "function"
    },
    {
      "inputs": [],
      "name": "getOwners",
      "outputs": [
        {
          "internalType": "address[]",
          "name": "",
          "type": "address[]"
        }
      ],
      "stateMutability": "view",
      "type": "function"
    },
    {
      "inputs": [
        {
          "internalType": "address",
          "name": "owner",
          "type": "address"
        }
      ],
      "name": "addOwner",
      "outputs": [],
      "stateMutability": "nonpayable",
      "type": "function"
    },
    {
      "inputs": [
        {
          "internalType": "address",
          "name": "owner",
          "type": "address"
        }
      ],
      "name": "removeOwner",
      "outputs": [],
      "stateMutability": "nonpayable",
      "type": "function"
    }
  ],
  "bytecode": "0x608060405234801561001057600080fd5b503361006d5760405162461bcd60e51b815260206004820152602260248201527f43616e277420696e697469616c697a652077697468207a65726f206164647265604482015261737360f01b606482015260840160405180910390fd5b336000818152602081905260408120805460ff191660019081179091558054808201825591527fb10e2d527612073b26eecdfd717e6a320cf44b4afac2b0732d9fcbe2b7fa0cf60180546001600160a01b03191690911790556105b1806100d56000396000f3fe608060405234801561001057600080fd5b506004361061004c5760003560e01c8063173825d9146100515780632f54bf6e146100665780637065cb48146100a7578063a0e67e2b146100ba575b600080fd5b61006461005f366004610472565b6100cf565b005b610092610074366004610472565b6001600160a01b031660009081526020819052604090205460ff1690565b60405190151581526020015b60405180910390f35b6100646100b5366004610472565b610323565b6100c2610410565b60405161009e91906104a2565b3360009081526020819052604090205460ff1615156001146101315760405162461bcd60e51b815260206004820152601660248201527521b0b63632b91034b9903737ba1030b71037bbb732b960511b60448201526064015b60405180910390fd5b6001600160a01b03811660009081526020819052604090205460ff16151560011461019e5760405162461bcd60e51b815260206004820152601760248201527f41646472657373206973206e6f7420616e206f776e65720000000000000000006044820152606401610128565b60005b60015481101561031f57816001600160a01b0316600182815481106101c8576101c86104ef565b6000918252602090912001546001600160a01b0316141561030d576001600160a01b0382166000908152602081905260409020805460ff19169055805b60018054610213919061051b565b81101561029d5760016102268382610532565b81548110610236576102366104ef565b600091825260209091200154600180546001600160a01b039092169184908110610262576102626104ef565b600091825260209091200180546001600160a01b0319166001600160a01b0392909216919091179055806102958161054a565b915050610205565b5060018054806102af576102af610565565b600082815260208120820160001990810180546001600160a01b031916905590910190915560405142916001600160a01b0385169133917fecc5dd9888b87e7ed252d66b9c086ab819de6c8f8b96c8e5458e105bacfbb02791a45050565b806103178161054a565b9150506101a1565b5050565b3360009081526020819052604090205460ff1615156001146103805760405162461bcd60e51b815260206004820152601660248201527521b0b63632b91034b9903737ba1030b71037bbb732b960511b6044820152606401610128565b6001600160a01b038116600081815260208190526040808220805460ff19166001908117909155805480820182559083527fb10e2d527612073b26eecdfd717e6a320cf44b4afac2b0732d9fcbe2b7fa0cf60180546001600160a01b031916841790555142929133917fa0b18fca933618876351ba2ef88bf4505c184d3e55064bec0d7fe236dd706d849190a450565b6060600180548060200260200160405190810160405280929190818152602001828054801561046857602002820191906000526020600020905b81546001600160a01b0316815260019091019060200180831161044a575b5050505050905090565b60006020828403121561048457600080fd5b81356001600160a01b038116811461049b57600080fd5b9392505050565b6020808252825182820181905260009190848201906040850190845b818110156104e35783516001600160a01b0316835292840192918401916001016104be565b50909695505050505050565b634e487b7160e01b600052603260045260246000fd5b634e487b7160e01b600052601160045260246000fd5b60008282101561052d5761052d610505565b500390565b6000821982111561054557610545610505565b500190565b600060001982141561055e5761055e610505565b5060010190565b634e487b7160e01b600052603160045260246000fdfea2646970667358221220ed8406d80541117f85cdd42418d10444c398891f9f08af934c8ee3ed5cb9de4a64736f6c634300080b0033",
  "immutableReferences": {},
  "source": "// SPDX-License-Identifier: MIT\r\n\r\npragma solidity >=0.4.22 <0.9.0;\r\n\r\ncontract Owners {\r\n\tevent OwnerAdded(\r\n\t\taddress indexed adder,\r\n\t\taddress indexed owner,\r\n\t\tuint256 indexed timestamp\r\n\t);\r\n\tevent OwnerRemoved(\r\n\t\taddress indexed remover,\r\n\t\taddress indexed removed,\r\n\t\tuint256 indexed timestamp\r\n\t);\r\n\r\n\tmapping(address => bool) private _ownerMap;\r\n\taddress[] private _ownerList;\r\n\r\n\tfunction isOwner(address owner) public view returns (bool) {\r\n\t\treturn _ownerMap[owner];\r\n\t}\r\n\r\n\tfunction getOwners() external view returns (address[] memory) {\r\n\t\treturn _ownerList;\r\n\t}\r\n\r\n\tconstructor() {\r\n\t\trequire(msg.sender != address(0), \"Can't initialize with zero address\");\r\n\t\t_ownerMap[msg.sender] = true;\r\n\t\t_ownerList.push(msg.sender);\r\n\t}\r\n\r\n\tmodifier onlyOwners() {\r\n\t\trequire(_ownerMap[msg.sender] == true, \"Caller is not an owner\");\r\n\t\t_;\r\n\t}\r\n\r\n\tfunction addOwner(address owner) external onlyOwners {\r\n\t\t_ownerMap[owner] = true;\r\n\t\t_ownerList.push(owner);\r\n\t\temit OwnerAdded(msg.sender, owner, block.timestamp);\r\n\t}\r\n\r\n\tfunction removeOwner(address owner) external onlyOwners {\r\n\t\trequire(_ownerMap[owner] == true, \"Address is not an owner\");\r\n\t\tfor (uint256 i = 0; i < _ownerList.length; i++) {\r\n\t\t\tif (_ownerList[i] == owner) {\r\n\t\t\t\t_ownerMap[owner] = false;\r\n\t\t\t\tfor (uint256 j = i; j < _ownerList.length - 1; j++) {\r\n\t\t\t\t\t_ownerList[i] = _ownerList[i + 1];\r\n\t\t\t\t}\r\n\t\t\t\t_ownerList.pop();\r\n\t\t\t\temit OwnerRemoved(msg.sender, owner, block.timestamp);\r\n\t\t\t\tbreak;\r\n\t\t\t}\r\n\t\t}\r\n\t}\r\n}\r\n",
  "sourcePath": "C:\\Users\\razor\\Desktop\\slimekeeper_contracts\\contracts\\Owners.sol",
  "compiler": {
    "name": "solc",
    "version": "0.8.11+commit.d7f03943.Emscripten.clang"
  },
  "schemaVersion": "3.4.3",
  "updatedAt": "2022-02-19T00:53:45.248Z",
  "devdoc": {
    "kind": "dev",
    "methods": {},
    "version": 1
  },
  "userdoc": {
    "kind": "user",
    "methods": {},
    "version": 1
  }
}