{
  "contractName": "Owners",
  "abi": [
    {
      "inputs": [],
      "stateMutability": "nonpayable",
      "type": "constructor"
    },
    {
      "anonymous": false,
      "inputs": [
        {
          "indexed": true,
          "internalType": "address",
          "name": "adder",
          "type": "address"
        },
        {
          "indexed": true,
          "internalType": "address",
          "name": "owner",
          "type": "address"
        },
        {
          "indexed": true,
          "internalType": "uint256",
          "name": "timestamp",
          "type": "uint256"
        }
      ],
      "name": "OwnerAdded",
      "type": "event"
    },
    {
      "anonymous": false,
      "inputs": [
        {
          "indexed": true,
          "internalType": "address",
          "name": "remover",
          "type": "address"
        },
        {
          "indexed": true,
          "internalType": "address",
          "name": "removed",
          "type": "address"
        },
        {
          "indexed": true,
          "internalType": "uint256",
          "name": "timestamp",
          "type": "uint256"
        }
      ],
      "name": "OwnerRemoved",
      "type": "event"
    },
    {
      "anonymous": false,
      "inputs": [],
      "name": "OwnershipRenounced",
      "type": "event"
    },
    {
      "inputs": [],
      "name": "renounced",
      "outputs": [
        {
          "internalType": "bool",
          "name": "",
          "type": "bool"
        }
      ],
      "stateMutability": "view",
      "type": "function"
    },
    {
      "inputs": [
        {
          "internalType": "address",
          "name": "owner",
          "type": "address"
        }
      ],
      "name": "isOwner",
      "outputs": [
        {
          "internalType": "bool",
          "name": "",
          "type": "bool"
        }
      ],
      "stateMutability": "view",
      "type": "function"
    },
    {
      "inputs": [],
      "name": "getOwners",
      "outputs": [
        {
          "internalType": "address[]",
          "name": "",
          "type": "address[]"
        }
      ],
      "stateMutability": "view",
      "type": "function"
    },
    {
      "inputs": [
        {
          "internalType": "address",
          "name": "owner",
          "type": "address"
        }
      ],
      "name": "addOwner",
      "outputs": [],
      "stateMutability": "nonpayable",
      "type": "function"
    },
    {
      "inputs": [
        {
          "internalType": "address",
          "name": "owner",
          "type": "address"
        }
      ],
      "name": "removeOwner",
      "outputs": [],
      "stateMutability": "nonpayable",
      "type": "function"
    },
    {
      "inputs": [],
      "name": "renounceOwnership",
      "outputs": [],
      "stateMutability": "nonpayable",
      "type": "function"
    }
  ],
  "bytecode": "0x608060405234801561001057600080fd5b503361006d5760405162461bcd60e51b815260206004820152602260248201527f43616e277420696e697469616c697a652077697468207a65726f206164647265604482015261737360f01b606482015260840160405180910390fd5b60008054610100600160a81b0319163361010081029190911782558082526001602081905260408320805460ff1916821790556002805491820181559092527f405787fa12a823e0f2b7631cc41b3ba8828b3321ca811111fa75cd3aa3bb5ace90910180546001600160a01b03191690911790556107cc806100f06000396000f3fe608060405234801561001057600080fd5b50600436106100625760003560e01c8063173825d9146100675780632f54bf6e1461007c5780637065cb48146100bd578063715018a6146100d0578063a0e67e2b146100d8578063d232c220146100ed575b600080fd5b61007a61007536600461068d565b6100fa565b005b6100a861008a36600461068d565b6001600160a01b031660009081526001602052604090205460ff1690565b60405190151581526020015b60405180910390f35b61007a6100cb36600461068d565b610453565b61007a610585565b6100e061062b565b6040516100b491906106bd565b6000546100a89060ff1681565b60005460ff16156101485760405162461bcd60e51b815260206004820152601360248201527213dddb995c9cda1a5c081c995b9bdd5b98d959606a1b60448201526064015b60405180910390fd5b3360009081526001602052604090205460ff166101a05760405162461bcd60e51b815260206004820152601660248201527521b0b63632b91034b9903737ba1030b71037bbb732b960511b604482015260640161013f565b6001600160a01b03811660009081526001602052604090205460ff166102085760405162461bcd60e51b815260206004820152601760248201527f41646472657373206973206e6f7420616e206f776e6572000000000000000000604482015260640161013f565b60005461010090046001600160a01b03163314156102685760405162461bcd60e51b815260206004820152601d60248201527f4d6173746572206f776e65722063616e27742062652072656d6f766564000000604482015260640161013f565b60025460005b6002548110156103ef57826001600160a01b0316600282815481106102955761029561070a565b6000918252602090912001546001600160a01b031614156103dd576001600160a01b0383166000908152600160205260409020805460ff19169055805b6002546102e190600190610736565b81101561036c5760026102f583600161074d565b815481106103055761030561070a565b600091825260209091200154600280546001600160a01b0390921691849081106103315761033161070a565b600091825260209091200180546001600160a01b0319166001600160a01b03929092169190911790558061036481610765565b9150506102d2565b50600280548061037e5761037e610780565b600082815260208120820160001990810180546001600160a01b031916905590910190915560405142916001600160a01b0386169133917fecc5dd9888b87e7ed252d66b9c086ab819de6c8f8b96c8e5458e105bacfbb02791a46103ef565b806103e781610765565b91505061026e565b5060025481811061044e5760405162461bcd60e51b8152602060048201526024808201527f536f6d657468696e672077656e742077726f6e672072656d6f76696e67206f776044820152636e65727360e01b606482015260840161013f565b505050565b60005460ff161561049c5760405162461bcd60e51b815260206004820152601360248201527213dddb995c9cda1a5c081c995b9bdd5b98d959606a1b604482015260640161013f565b3360009081526001602052604090205460ff166104f45760405162461bcd60e51b815260206004820152601660248201527521b0b63632b91034b9903737ba1030b71037bbb732b960511b604482015260640161013f565b6001600160a01b0381166000818152600160208190526040808320805460ff19168317905560028054928301815583527f405787fa12a823e0f2b7631cc41b3ba8828b3321ca811111fa75cd3aa3bb5ace90910180546001600160a01b031916841790555142929133917fa0b18fca933618876351ba2ef88bf4505c184d3e55064bec0d7fe236dd706d849190a450565b60005461010090046001600160a01b031633146105f55760405162461bcd60e51b815260206004820152602860248201527f4f6e6c79206d6173746572206f776e65722063616e2072656e6f756e6365206f6044820152670776e6572736869760c41b606482015260840161013f565b6000805460ff191660011781556040517fd1f66c3d2bc1993a86be5e3d33709d98f0442381befcedd29f578b9b2506b1ce9190a1565b6060600280548060200260200160405190810160405280929190818152602001828054801561068357602002820191906000526020600020905b81546001600160a01b03168152600190910190602001808311610665575b5050505050905090565b60006020828403121561069f57600080fd5b81356001600160a01b03811681146106b657600080fd5b9392505050565b6020808252825182820181905260009190848201906040850190845b818110156106fe5783516001600160a01b0316835292840192918401916001016106d9565b50909695505050505050565b634e487b7160e01b600052603260045260246000fd5b634e487b7160e01b600052601160045260246000fd5b60008282101561074857610748610720565b500390565b6000821982111561076057610760610720565b500190565b600060001982141561077957610779610720565b5060010190565b634e487b7160e01b600052603160045260246000fdfea2646970667358221220cadc62e1389cdd495457549d7218dc030cccf2fd11143fbc95e5138cd4c1e30864736f6c634300080b0033",
  "immutableReferences": {},
  "source": "// SPDX-License-Identifier: MIT\n\npragma solidity >=0.4.22 <0.9.0;\n\ncontract Owners {\n\tevent OwnerAdded(\n\t\taddress indexed adder,\n\t\taddress indexed owner,\n\t\tuint256 indexed timestamp\n\t);\n\n\tevent OwnerRemoved(\n\t\taddress indexed remover,\n\t\taddress indexed removed,\n\t\tuint256 indexed timestamp\n\t);\n\n\tevent OwnershipRenounced();\n\n\tbool public renounced;\n\n\taddress private masterOwner;\n\tmapping(address => bool) private ownerMap;\n\taddress[] private ownerList;\n\n\tconstructor() {\n\t\trequire(msg.sender != address(0), \"Can't initialize with zero address\");\n\n\t\tmasterOwner = msg.sender;\n\t\townerMap[msg.sender] = true;\n\t\townerList.push(msg.sender);\n\t}\n\n\tmodifier onlyOwners() {\n\t\trequire(!renounced, \"Ownership renounced\");\n\t\trequire(ownerMap[msg.sender], \"Caller is not an owner\");\n\t\t_;\n\t}\n\n\tfunction isOwner(address owner) public view returns (bool) {\n\t\treturn ownerMap[owner];\n\t}\n\n\tfunction getOwners() external view returns (address[] memory) {\n\t\treturn ownerList;\n\t}\n\n\tfunction addOwner(address owner) public onlyOwners {\n\t\townerMap[owner] = true;\n\t\townerList.push(owner);\n\t\temit OwnerAdded(msg.sender, owner, block.timestamp);\n\t}\n\n\tfunction removeOwner(address owner) public onlyOwners {\n\t\trequire(ownerMap[owner], \"Address is not an owner\");\n\t\trequire(msg.sender != masterOwner, \"Master owner can't be removed\");\n\n\t\tuint256 lengthBefore = ownerList.length;\n\t\tfor (uint256 i = 0; i < ownerList.length; i++) {\n\t\t\tif (ownerList[i] == owner) {\n\t\t\t\townerMap[owner] = false;\n\t\t\t\tfor (uint256 j = i; j < ownerList.length - 1; j++) {\n\t\t\t\t\townerList[i] = ownerList[i + 1];\n\t\t\t\t}\n\t\t\t\townerList.pop();\n\t\t\t\temit OwnerRemoved(msg.sender, owner, block.timestamp);\n\t\t\t\tbreak;\n\t\t\t}\n\t\t}\n\t\tuint256 lengthAfter = ownerList.length;\n\t\trequire( // Sanity check\n\t\t\tlengthAfter < lengthBefore,\n\t\t\t\"Something went wrong removing owners\"\n\t\t);\n\t}\n\n\tfunction renounceOwnership() external {\n\t\trequire(\n\t\t\tmsg.sender == masterOwner,\n\t\t\t\"Only master owner can renounce ownership\"\n\t\t);\n\n\t\trenounced = true;\n\t\temit OwnershipRenounced();\n\t}\n}\n",
  "sourcePath": "C:\\Users\\sants\\Desktop\\slimekeeper\\slimekeeper_contracts\\contracts\\Owners.sol",
  "compiler": {
    "name": "solc",
    "version": "0.8.11+commit.d7f03943.Emscripten.clang"
  },
  "schemaVersion": "3.4.5",
  "updatedAt": "2022-02-28T19:04:44.841Z",
  "devdoc": {
    "kind": "dev",
    "methods": {},
    "version": 1
  },
  "userdoc": {
    "kind": "user",
    "methods": {},
    "version": 1
  }
}