{
  "contractName": "Owners",
  "abi": [
    {
      "inputs": [],
      "stateMutability": "nonpayable",
      "type": "constructor"
    },
    {
      "anonymous": false,
      "inputs": [
        {
          "indexed": true,
          "internalType": "address",
          "name": "adder",
          "type": "address"
        },
        {
          "indexed": true,
          "internalType": "address",
          "name": "owner",
          "type": "address"
        },
        {
          "indexed": true,
          "internalType": "uint256",
          "name": "timestamp",
          "type": "uint256"
        }
      ],
      "name": "OwnerAdded",
      "type": "event"
    },
    {
      "anonymous": false,
      "inputs": [
        {
          "indexed": true,
          "internalType": "address",
          "name": "remover",
          "type": "address"
        },
        {
          "indexed": true,
          "internalType": "address",
          "name": "removed",
          "type": "address"
        },
        {
          "indexed": true,
          "internalType": "uint256",
          "name": "timestamp",
          "type": "uint256"
        }
      ],
      "name": "OwnerRemoved",
      "type": "event"
    },
    {
      "inputs": [
        {
          "internalType": "address",
          "name": "owner",
          "type": "address"
        }
      ],
      "name": "isOwner",
      "outputs": [
        {
          "internalType": "bool",
          "name": "",
          "type": "bool"
        }
      ],
      "stateMutability": "view",
      "type": "function"
    },
    {
      "inputs": [],
      "name": "getOwners",
      "outputs": [
        {
          "internalType": "address[]",
          "name": "",
          "type": "address[]"
        }
      ],
      "stateMutability": "view",
      "type": "function"
    },
    {
      "inputs": [
        {
          "internalType": "address",
          "name": "owner",
          "type": "address"
        }
      ],
      "name": "addOwner",
      "outputs": [],
      "stateMutability": "nonpayable",
      "type": "function"
    },
    {
      "inputs": [
        {
          "internalType": "address",
          "name": "owner",
          "type": "address"
        }
      ],
      "name": "removeOwner",
      "outputs": [],
      "stateMutability": "nonpayable",
      "type": "function"
    }
  ],
  "bytecode": "0x608060405234801561001057600080fd5b50600073ffffffffffffffffffffffffffffffffffffffff163373ffffffffffffffffffffffffffffffffffffffff161415610081576040517f08c379a0000000000000000000000000000000000000000000000000000000008152600401610078906101c3565b60405180910390fd5b60016000803373ffffffffffffffffffffffffffffffffffffffff1673ffffffffffffffffffffffffffffffffffffffff16815260200190815260200160002060006101000a81548160ff0219169083151502179055506001339080600181540180825580915050600190039060005260206000200160009091909190916101000a81548173ffffffffffffffffffffffffffffffffffffffff021916908373ffffffffffffffffffffffffffffffffffffffff1602179055506101e3565b600082825260208201905092915050565b7f43616e277420696e697469616c697a652077697468207a65726f20616464726560008201527f7373000000000000000000000000000000000000000000000000000000000000602082015250565b60006101ad602283610140565b91506101b882610151565b604082019050919050565b600060208201905081810360008301526101dc816101a0565b9050919050565b610b26806101f26000396000f3fe608060405234801561001057600080fd5b506004361061004c5760003560e01c8063173825d9146100515780632f54bf6e1461006d5780637065cb481461009d578063a0e67e2b146100b9575b600080fd5b61006b6004803603810190610066919061075a565b6100d7565b005b6100876004803603810190610082919061075a565b61046a565b60405161009491906107a2565b60405180910390f35b6100b760048036038101906100b2919061075a565b6104bf565b005b6100c1610669565b6040516100ce919061087b565b60405180910390f35b600115156000803373ffffffffffffffffffffffffffffffffffffffff1673ffffffffffffffffffffffffffffffffffffffff16815260200190815260200160002060009054906101000a900460ff16151514610169576040517f08c379a0000000000000000000000000000000000000000000000000000000008152600401610160906108fa565b60405180910390fd5b600115156000808373ffffffffffffffffffffffffffffffffffffffff1673ffffffffffffffffffffffffffffffffffffffff16815260200190815260200160002060009054906101000a900460ff161515146101fb576040517f08c379a00000000000000000000000000000000000000000000000000000000081526004016101f290610966565b60405180910390fd5b60005b600180549050811015610466578173ffffffffffffffffffffffffffffffffffffffff166001828154811061023657610235610986565b5b9060005260206000200160009054906101000a900473ffffffffffffffffffffffffffffffffffffffff1673ffffffffffffffffffffffffffffffffffffffff1614156104535760008060008473ffffffffffffffffffffffffffffffffffffffff1673ffffffffffffffffffffffffffffffffffffffff16815260200190815260200160002060006101000a81548160ff02191690831515021790555060008190505b600180805490506102eb91906109ee565b8110156103ab57600180836103009190610a22565b8154811061031157610310610986565b5b9060005260206000200160009054906101000a900473ffffffffffffffffffffffffffffffffffffffff16600183815481106103505761034f610986565b5b9060005260206000200160006101000a81548173ffffffffffffffffffffffffffffffffffffffff021916908373ffffffffffffffffffffffffffffffffffffffff16021790555080806103a390610a78565b9150506102da565b5060018054806103be576103bd610ac1565b5b6001900381819060005260206000200160006101000a81549073ffffffffffffffffffffffffffffffffffffffff02191690559055428273ffffffffffffffffffffffffffffffffffffffff163373ffffffffffffffffffffffffffffffffffffffff167fecc5dd9888b87e7ed252d66b9c086ab819de6c8f8b96c8e5458e105bacfbb02760405160405180910390a4610466565b808061045e90610a78565b9150506101fe565b5050565b60008060008373ffffffffffffffffffffffffffffffffffffffff1673ffffffffffffffffffffffffffffffffffffffff16815260200190815260200160002060009054906101000a900460ff169050919050565b600115156000803373ffffffffffffffffffffffffffffffffffffffff1673ffffffffffffffffffffffffffffffffffffffff16815260200190815260200160002060009054906101000a900460ff16151514610551576040517f08c379a0000000000000000000000000000000000000000000000000000000008152600401610548906108fa565b60405180910390fd5b60016000808373ffffffffffffffffffffffffffffffffffffffff1673ffffffffffffffffffffffffffffffffffffffff16815260200190815260200160002060006101000a81548160ff0219169083151502179055506001819080600181540180825580915050600190039060005260206000200160009091909190916101000a81548173ffffffffffffffffffffffffffffffffffffffff021916908373ffffffffffffffffffffffffffffffffffffffff160217905550428173ffffffffffffffffffffffffffffffffffffffff163373ffffffffffffffffffffffffffffffffffffffff167fa0b18fca933618876351ba2ef88bf4505c184d3e55064bec0d7fe236dd706d8460405160405180910390a450565b606060018054806020026020016040519081016040528092919081815260200182805480156106ed57602002820191906000526020600020905b8160009054906101000a900473ffffffffffffffffffffffffffffffffffffffff1673ffffffffffffffffffffffffffffffffffffffff16815260200190600101908083116106a3575b5050505050905090565b600080fd5b600073ffffffffffffffffffffffffffffffffffffffff82169050919050565b6000610727826106fc565b9050919050565b6107378161071c565b811461074257600080fd5b50565b6000813590506107548161072e565b92915050565b6000602082840312156107705761076f6106f7565b5b600061077e84828501610745565b91505092915050565b60008115159050919050565b61079c81610787565b82525050565b60006020820190506107b76000830184610793565b92915050565b600081519050919050565b600082825260208201905092915050565b6000819050602082019050919050565b6107f28161071c565b82525050565b600061080483836107e9565b60208301905092915050565b6000602082019050919050565b6000610828826107bd565b61083281856107c8565b935061083d836107d9565b8060005b8381101561086e57815161085588826107f8565b975061086083610810565b925050600181019050610841565b5085935050505092915050565b60006020820190508181036000830152610895818461081d565b905092915050565b600082825260208201905092915050565b7f43616c6c6572206973206e6f7420616e206f776e657200000000000000000000600082015250565b60006108e460168361089d565b91506108ef826108ae565b602082019050919050565b60006020820190508181036000830152610913816108d7565b9050919050565b7f41646472657373206973206e6f7420616e206f776e6572000000000000000000600082015250565b600061095060178361089d565b915061095b8261091a565b602082019050919050565b6000602082019050818103600083015261097f81610943565b9050919050565b7f4e487b7100000000000000000000000000000000000000000000000000000000600052603260045260246000fd5b6000819050919050565b7f4e487b7100000000000000000000000000000000000000000000000000000000600052601160045260246000fd5b60006109f9826109b5565b9150610a04836109b5565b925082821015610a1757610a166109bf565b5b828203905092915050565b6000610a2d826109b5565b9150610a38836109b5565b9250827fffffffffffffffffffffffffffffffffffffffffffffffffffffffffffffffff03821115610a6d57610a6c6109bf565b5b828201905092915050565b6000610a83826109b5565b91507fffffffffffffffffffffffffffffffffffffffffffffffffffffffffffffffff821415610ab657610ab56109bf565b5b600182019050919050565b7f4e487b7100000000000000000000000000000000000000000000000000000000600052603160045260246000fdfea2646970667358221220f0db64d2f6cd1b4fb84521d75c1af3d59c14b8da7da53c7fe5743a6d5b8cb32264736f6c634300080b0033",
  "immutableReferences": {},
  "source": "// SPDX-License-Identifier: MIT\n\npragma solidity ^0.8.11;\n\ncontract Owners {\n    event OwnerAdded(address indexed adder, address indexed owner, uint indexed timestamp);\n    event OwnerRemoved(address indexed remover, address indexed removed, uint indexed timestamp);\n\n    mapping(address => bool) private _ownerMap;\n    address[] private _ownerList;\n\n    function isOwner(address owner) external view returns(bool) {\n        return _ownerMap[owner];\n    }\n\n    function getOwners() external view returns (address[] memory) {\n        return _ownerList;\n    }\n\n    constructor() {\n        require(msg.sender != address(0), \"Can't initialize with zero address\");\n        _ownerMap[msg.sender] = true;\n        _ownerList.push(msg.sender);\n    }\n\n    modifier onlyOwners() {\n        require(_ownerMap[msg.sender] == true, \"Caller is not an owner\");\n        _;\n    }\n\n    function addOwner(address owner) external onlyOwners {\n        _ownerMap[owner] = true;\n        _ownerList.push(owner);\n        emit OwnerAdded(msg.sender, owner, block.timestamp);\n    }\n\n    function removeOwner(address owner) external onlyOwners {\n        require(_ownerMap[owner] == true, \"Address is not an owner\");\n        for(uint i = 0; i < _ownerList.length; i++) {\n            if (_ownerList[i] == owner) {\n                _ownerMap[owner] = false;\n                for (uint j = i; j < _ownerList.length - 1; j++) {\n\t                _ownerList[i] = _ownerList[i + 1];\n                }\n                _ownerList.pop();\n                emit OwnerRemoved(msg.sender, owner, block.timestamp);\n                break;\n            }\n        }\n    }\n}",
  "sourcePath": "C:\\Users\\sants\\Desktop\\slimekeeper\\slimekeeper_contracts\\contracts\\Owners.sol",
  "compiler": {
    "name": "solc",
    "version": "0.8.11+commit.d7f03943.Emscripten.clang"
  },
  "schemaVersion": "3.4.4",
  "updatedAt": "2022-02-01T21:40:08.214Z",
  "devdoc": {
    "kind": "dev",
    "methods": {},
    "version": 1
  },
  "userdoc": {
    "kind": "user",
    "methods": {},
    "version": 1
  }
}