{
  "contractName": "PauseOwners",
  "abi": [
    {
      "anonymous": false,
      "inputs": [
        {
          "indexed": true,
          "internalType": "address",
          "name": "adder",
          "type": "address"
        },
        {
          "indexed": true,
          "internalType": "address",
          "name": "owner",
          "type": "address"
        },
        {
          "indexed": true,
          "internalType": "uint256",
          "name": "timestamp",
          "type": "uint256"
        }
      ],
      "name": "OwnerAdded",
      "type": "event"
    },
    {
      "anonymous": false,
      "inputs": [
        {
          "indexed": true,
          "internalType": "address",
          "name": "remover",
          "type": "address"
        },
        {
          "indexed": true,
          "internalType": "address",
          "name": "owner",
          "type": "address"
        },
        {
          "indexed": true,
          "internalType": "uint256",
          "name": "timestamp",
          "type": "uint256"
        }
      ],
      "name": "OwnerRemoved",
      "type": "event"
    },
    {
      "anonymous": false,
      "inputs": [
        {
          "indexed": false,
          "internalType": "uint256",
          "name": "timestamp",
          "type": "uint256"
        }
      ],
      "name": "OwnershipRenounced",
      "type": "event"
    },
    {
      "inputs": [
        {
          "internalType": "address",
          "name": "owner",
          "type": "address"
        }
      ],
      "name": "addOwner",
      "outputs": [],
      "stateMutability": "nonpayable",
      "type": "function"
    },
    {
      "inputs": [],
      "name": "getOwners",
      "outputs": [
        {
          "internalType": "address[]",
          "name": "",
          "type": "address[]"
        }
      ],
      "stateMutability": "view",
      "type": "function"
    },
    {
      "inputs": [
        {
          "internalType": "address",
          "name": "owner",
          "type": "address"
        }
      ],
      "name": "isOwner",
      "outputs": [
        {
          "internalType": "bool",
          "name": "",
          "type": "bool"
        }
      ],
      "stateMutability": "view",
      "type": "function"
    },
    {
      "inputs": [],
      "name": "isPaused",
      "outputs": [
        {
          "internalType": "bool",
          "name": "",
          "type": "bool"
        }
      ],
      "stateMutability": "view",
      "type": "function"
    },
    {
      "inputs": [
        {
          "internalType": "address",
          "name": "owner",
          "type": "address"
        }
      ],
      "name": "removeOwner",
      "outputs": [],
      "stateMutability": "nonpayable",
      "type": "function"
    },
    {
      "inputs": [],
      "name": "renounceOwnership",
      "outputs": [],
      "stateMutability": "nonpayable",
      "type": "function"
    },
    {
      "inputs": [],
      "name": "renounced",
      "outputs": [
        {
          "internalType": "bool",
          "name": "",
          "type": "bool"
        }
      ],
      "stateMutability": "view",
      "type": "function"
    },
    {
      "inputs": [
        {
          "internalType": "bool",
          "name": "isPaused_",
          "type": "bool"
        }
      ],
      "name": "setIsPaused",
      "outputs": [],
      "stateMutability": "nonpayable",
      "type": "function"
    }
  ],
  "bytecode": "0x608060405234801561001057600080fd5b503361006d5760405162461bcd60e51b815260206004820152602260248201527f43616e277420696e697469616c697a652077697468207a65726f206164647265604482015261737360f01b606482015260840160405180910390fd5b60008054610100600160a81b0319163361010081029190911782558082526001602081905260408320805460ff1916821790556002805491820181559092527f405787fa12a823e0f2b7631cc41b3ba8828b3321ca811111fa75cd3aa3bb5ace90910180546001600160a01b0319169091179055610859806100f06000396000f3fe608060405234801561001057600080fd5b50600436106100785760003560e01c8063173825d91461007d578063240976bf146100925780632f54bf6e146100a55780637065cb48146100e6578063715018a6146100f9578063a0e67e2b14610101578063b187bd2614610116578063d232c22014610123575b600080fd5b61009061008b36600461069b565b610130565b005b6100906100a03660046106cb565b610438565b6100d16100b336600461069b565b6001600160a01b031660009081526001602052604090205460ff1690565b60405190151581526020015b60405180910390f35b6100906100f436600461069b565b61049d565b610090610580565b610109610639565b6040516100dd91906106ed565b6003546100d19060ff1681565b6000546100d19060ff1681565b60005460ff161561015c5760405162461bcd60e51b81526004016101539061073a565b60405180910390fd5b3360009081526001602052604090205460ff1661018b5760405162461bcd60e51b815260040161015390610767565b6001600160a01b03811660009081526001602052604090205460ff166101ed5760405162461bcd60e51b815260206004820152601760248201527620b2323932b9b99034b9903737ba1030b71037bbb732b960491b6044820152606401610153565b60005461010090046001600160a01b031633141561024d5760405162461bcd60e51b815260206004820152601d60248201527f4d6173746572206f776e65722063616e27742062652072656d6f7665640000006044820152606401610153565b60025460005b6002548110156103d457826001600160a01b03166002828154811061027a5761027a610797565b6000918252602090912001546001600160a01b031614156103c2576001600160a01b0383166000908152600160205260409020805460ff19169055805b6002546102c6906001906107c3565b8110156103515760026102da8360016107da565b815481106102ea576102ea610797565b600091825260209091200154600280546001600160a01b03909216918490811061031657610316610797565b600091825260209091200180546001600160a01b0319166001600160a01b039290921691909117905580610349816107f2565b9150506102b7565b5060028054806103635761036361080d565b600082815260208120820160001990810180546001600160a01b031916905590910190915560405142916001600160a01b0386169133917fecc5dd9888b87e7ed252d66b9c086ab819de6c8f8b96c8e5458e105bacfbb02791a46103d4565b806103cc816107f2565b915050610253565b506002548181106104335760405162461bcd60e51b8152602060048201526024808201527f536f6d657468696e672077656e742077726f6e672072656d6f76696e67206f776044820152636e65727360e01b6064820152608401610153565b505050565b60005460ff161561045b5760405162461bcd60e51b81526004016101539061073a565b3360009081526001602052604090205460ff1661048a5760405162461bcd60e51b815260040161015390610767565b6003805460ff1916911515919091179055565b60005460ff16156104c05760405162461bcd60e51b81526004016101539061073a565b3360009081526001602052604090205460ff166104ef5760405162461bcd60e51b815260040161015390610767565b6001600160a01b0381166000818152600160208190526040808320805460ff19168317905560028054928301815583527f405787fa12a823e0f2b7631cc41b3ba8828b3321ca811111fa75cd3aa3bb5ace90910180546001600160a01b031916841790555142929133917fa0b18fca933618876351ba2ef88bf4505c184d3e55064bec0d7fe236dd706d849190a450565b60005461010090046001600160a01b031633146105f05760405162461bcd60e51b815260206004820152602860248201527f4f6e6c79206d6173746572206f776e65722063616e2072656e6f756e6365206f6044820152670776e6572736869760c41b6064820152608401610153565b6000805460ff191660011790556040517f7738dc8b7a10a5636dceada812073a582b717ce047d82cd0e4918662b2e7c7739061062f9042815260200190565b60405180910390a1565b6060600280548060200260200160405190810160405280929190818152602001828054801561069157602002820191906000526020600020905b81546001600160a01b03168152600190910190602001808311610673575b5050505050905090565b6000602082840312156106ad57600080fd5b81356001600160a01b03811681146106c457600080fd5b9392505050565b6000602082840312156106dd57600080fd5b813580151581146106c457600080fd5b6020808252825182820181905260009190848201906040850190845b8181101561072e5783516001600160a01b031683529284019291840191600101610709565b50909695505050505050565b60208082526013908201527213dddb995c9cda1a5c081c995b9bdd5b98d959606a1b604082015260600190565b60208082526016908201527521b0b63632b91034b9903737ba1030b71037bbb732b960511b604082015260600190565b634e487b7160e01b600052603260045260246000fd5b634e487b7160e01b600052601160045260246000fd5b6000828210156107d5576107d56107ad565b500390565b600082198211156107ed576107ed6107ad565b500190565b6000600019821415610806576108066107ad565b5060010190565b634e487b7160e01b600052603160045260246000fdfea264697066735822122026d946f63588ab495388d900c098d98d1f02acc2833ec9a32b59ac3328ad711b64736f6c634300080b0033",
  "immutableReferences": {},
  "source": "// SPDX-License-Identifier: MIT\r\n\r\npragma solidity >=0.4.22 <0.9.0;\r\n\r\nimport \"./Owners.sol\";\r\n\r\ncontract PauseOwners is Owners {\r\n\tbool public isPaused;\r\n\r\n\tmodifier checkPaused(address address_) {\r\n\t\tif (!isOwner(address_)) {\r\n\t\t\trequire(!isPaused, \"Contract paused\");\r\n\t\t}\r\n\t\t_;\r\n\t}\r\n\r\n\tfunction setIsPaused(bool isPaused_) public onlyOwners {\r\n\t\tisPaused = isPaused_;\r\n\t}\r\n}\r\n",
  "sourcePath": "C:\\Users\\sants\\Desktop\\slimekeeper\\slimekeeper_contracts\\contracts\\PauseOwners.sol",
  "compiler": {
    "name": "solc",
    "version": "0.8.11+commit.d7f03943.Emscripten.clang"
  },
  "schemaVersion": "3.4.5",
  "updatedAt": "2022-03-02T18:54:07.165Z",
  "devdoc": {
    "kind": "dev",
    "methods": {},
    "version": 1
  },
  "userdoc": {
    "kind": "user",
    "methods": {},
    "version": 1
  }
}