{
  "contractName": "PauseOwners",
  "abi": [
    {
      "anonymous": false,
      "inputs": [
        {
          "indexed": true,
          "internalType": "address",
          "name": "adder",
          "type": "address"
        },
        {
          "indexed": true,
          "internalType": "address",
          "name": "owner",
          "type": "address"
        },
        {
          "indexed": true,
          "internalType": "uint256",
          "name": "timestamp",
          "type": "uint256"
        }
      ],
      "name": "OwnerAdded",
      "type": "event"
    },
    {
      "anonymous": false,
      "inputs": [
        {
          "indexed": true,
          "internalType": "address",
          "name": "remover",
          "type": "address"
        },
        {
          "indexed": true,
          "internalType": "address",
          "name": "removed",
          "type": "address"
        },
        {
          "indexed": true,
          "internalType": "uint256",
          "name": "timestamp",
          "type": "uint256"
        }
      ],
      "name": "OwnerRemoved",
      "type": "event"
    },
    {
      "inputs": [
        {
          "internalType": "address",
          "name": "owner",
          "type": "address"
        }
      ],
      "name": "addOwner",
      "outputs": [],
      "stateMutability": "nonpayable",
      "type": "function"
    },
    {
      "inputs": [],
      "name": "getOwners",
      "outputs": [
        {
          "internalType": "address[]",
          "name": "",
          "type": "address[]"
        }
      ],
      "stateMutability": "view",
      "type": "function"
    },
    {
      "inputs": [
        {
          "internalType": "address",
          "name": "owner",
          "type": "address"
        }
      ],
      "name": "isOwner",
      "outputs": [
        {
          "internalType": "bool",
          "name": "",
          "type": "bool"
        }
      ],
      "stateMutability": "view",
      "type": "function"
    },
    {
      "inputs": [
        {
          "internalType": "address",
          "name": "owner",
          "type": "address"
        }
      ],
      "name": "removeOwner",
      "outputs": [],
      "stateMutability": "nonpayable",
      "type": "function"
    },
    {
      "inputs": [
        {
          "internalType": "bool",
          "name": "newPaused",
          "type": "bool"
        }
      ],
      "name": "setIsPaused",
      "outputs": [],
      "stateMutability": "nonpayable",
      "type": "function"
    }
  ],
  "bytecode": "0x608060405234801561001057600080fd5b50600073ffffffffffffffffffffffffffffffffffffffff163373ffffffffffffffffffffffffffffffffffffffff161415610081576040517f08c379a0000000000000000000000000000000000000000000000000000000008152600401610078906101c3565b60405180910390fd5b60016000803373ffffffffffffffffffffffffffffffffffffffff1673ffffffffffffffffffffffffffffffffffffffff16815260200190815260200160002060006101000a81548160ff0219169083151502179055506001339080600181540180825580915050600190039060005260206000200160009091909190916101000a81548173ffffffffffffffffffffffffffffffffffffffff021916908373ffffffffffffffffffffffffffffffffffffffff1602179055506101e3565b600082825260208201905092915050565b7f43616e277420696e697469616c697a652077697468207a65726f20616464726560008201527f7373000000000000000000000000000000000000000000000000000000000000602082015250565b60006101ad602283610140565b91506101b882610151565b604082019050919050565b600060208201905081810360008301526101dc816101a0565b9050919050565b610c55806101f26000396000f3fe608060405234801561001057600080fd5b50600436106100575760003560e01c8063173825d91461005c578063240976bf146100785780632f54bf6e146100945780637065cb48146100c4578063a0e67e2b146100e0575b600080fd5b61007660048036038101906100719190610830565b6100fe565b005b610092600480360381019061008d9190610895565b610491565b005b6100ae60048036038101906100a99190610830565b610540565b6040516100bb91906108d1565b60405180910390f35b6100de60048036038101906100d99190610830565b610595565b005b6100e861073f565b6040516100f591906109aa565b60405180910390f35b600115156000803373ffffffffffffffffffffffffffffffffffffffff1673ffffffffffffffffffffffffffffffffffffffff16815260200190815260200160002060009054906101000a900460ff16151514610190576040517f08c379a000000000000000000000000000000000000000000000000000000000815260040161018790610a29565b60405180910390fd5b600115156000808373ffffffffffffffffffffffffffffffffffffffff1673ffffffffffffffffffffffffffffffffffffffff16815260200190815260200160002060009054906101000a900460ff16151514610222576040517f08c379a000000000000000000000000000000000000000000000000000000000815260040161021990610a95565b60405180910390fd5b60005b60018054905081101561048d578173ffffffffffffffffffffffffffffffffffffffff166001828154811061025d5761025c610ab5565b5b9060005260206000200160009054906101000a900473ffffffffffffffffffffffffffffffffffffffff1673ffffffffffffffffffffffffffffffffffffffff16141561047a5760008060008473ffffffffffffffffffffffffffffffffffffffff1673ffffffffffffffffffffffffffffffffffffffff16815260200190815260200160002060006101000a81548160ff02191690831515021790555060008190505b600180805490506103129190610b1d565b8110156103d257600180836103279190610b51565b8154811061033857610337610ab5565b5b9060005260206000200160009054906101000a900473ffffffffffffffffffffffffffffffffffffffff166001838154811061037757610376610ab5565b5b9060005260206000200160006101000a81548173ffffffffffffffffffffffffffffffffffffffff021916908373ffffffffffffffffffffffffffffffffffffffff16021790555080806103ca90610ba7565b915050610301565b5060018054806103e5576103e4610bf0565b5b6001900381819060005260206000200160006101000a81549073ffffffffffffffffffffffffffffffffffffffff02191690559055428273ffffffffffffffffffffffffffffffffffffffff163373ffffffffffffffffffffffffffffffffffffffff167fecc5dd9888b87e7ed252d66b9c086ab819de6c8f8b96c8e5458e105bacfbb02760405160405180910390a461048d565b808061048590610ba7565b915050610225565b5050565b600115156000803373ffffffffffffffffffffffffffffffffffffffff1673ffffffffffffffffffffffffffffffffffffffff16815260200190815260200160002060009054906101000a900460ff16151514610523576040517f08c379a000000000000000000000000000000000000000000000000000000000815260040161051a90610a29565b60405180910390fd5b80600260006101000a81548160ff02191690831515021790555050565b60008060008373ffffffffffffffffffffffffffffffffffffffff1673ffffffffffffffffffffffffffffffffffffffff16815260200190815260200160002060009054906101000a900460ff169050919050565b600115156000803373ffffffffffffffffffffffffffffffffffffffff1673ffffffffffffffffffffffffffffffffffffffff16815260200190815260200160002060009054906101000a900460ff16151514610627576040517f08c379a000000000000000000000000000000000000000000000000000000000815260040161061e90610a29565b60405180910390fd5b60016000808373ffffffffffffffffffffffffffffffffffffffff1673ffffffffffffffffffffffffffffffffffffffff16815260200190815260200160002060006101000a81548160ff0219169083151502179055506001819080600181540180825580915050600190039060005260206000200160009091909190916101000a81548173ffffffffffffffffffffffffffffffffffffffff021916908373ffffffffffffffffffffffffffffffffffffffff160217905550428173ffffffffffffffffffffffffffffffffffffffff163373ffffffffffffffffffffffffffffffffffffffff167fa0b18fca933618876351ba2ef88bf4505c184d3e55064bec0d7fe236dd706d8460405160405180910390a450565b606060018054806020026020016040519081016040528092919081815260200182805480156107c357602002820191906000526020600020905b8160009054906101000a900473ffffffffffffffffffffffffffffffffffffffff1673ffffffffffffffffffffffffffffffffffffffff1681526020019060010190808311610779575b5050505050905090565b600080fd5b600073ffffffffffffffffffffffffffffffffffffffff82169050919050565b60006107fd826107d2565b9050919050565b61080d816107f2565b811461081857600080fd5b50565b60008135905061082a81610804565b92915050565b600060208284031215610846576108456107cd565b5b60006108548482850161081b565b91505092915050565b60008115159050919050565b6108728161085d565b811461087d57600080fd5b50565b60008135905061088f81610869565b92915050565b6000602082840312156108ab576108aa6107cd565b5b60006108b984828501610880565b91505092915050565b6108cb8161085d565b82525050565b60006020820190506108e660008301846108c2565b92915050565b600081519050919050565b600082825260208201905092915050565b6000819050602082019050919050565b610921816107f2565b82525050565b60006109338383610918565b60208301905092915050565b6000602082019050919050565b6000610957826108ec565b61096181856108f7565b935061096c83610908565b8060005b8381101561099d5781516109848882610927565b975061098f8361093f565b925050600181019050610970565b5085935050505092915050565b600060208201905081810360008301526109c4818461094c565b905092915050565b600082825260208201905092915050565b7f43616c6c6572206973206e6f7420616e206f776e657200000000000000000000600082015250565b6000610a136016836109cc565b9150610a1e826109dd565b602082019050919050565b60006020820190508181036000830152610a4281610a06565b9050919050565b7f41646472657373206973206e6f7420616e206f776e6572000000000000000000600082015250565b6000610a7f6017836109cc565b9150610a8a82610a49565b602082019050919050565b60006020820190508181036000830152610aae81610a72565b9050919050565b7f4e487b7100000000000000000000000000000000000000000000000000000000600052603260045260246000fd5b6000819050919050565b7f4e487b7100000000000000000000000000000000000000000000000000000000600052601160045260246000fd5b6000610b2882610ae4565b9150610b3383610ae4565b925082821015610b4657610b45610aee565b5b828203905092915050565b6000610b5c82610ae4565b9150610b6783610ae4565b9250827fffffffffffffffffffffffffffffffffffffffffffffffffffffffffffffffff03821115610b9c57610b9b610aee565b5b828201905092915050565b6000610bb282610ae4565b91507fffffffffffffffffffffffffffffffffffffffffffffffffffffffffffffffff821415610be557610be4610aee565b5b600182019050919050565b7f4e487b7100000000000000000000000000000000000000000000000000000000600052603160045260246000fdfea2646970667358221220514ed4818711f13d2575ae205a409ab67296c8042276c9da2ade4a579aee63a664736f6c634300080b0033",
  "immutableReferences": {},
  "source": "// SPDX-License-Identifier: MIT\n\npragma solidity ^0.8.11;\n\nimport \"./Owners.sol\";\n\ncontract PauseOwners is Owners {\n\tbool internal isPaused;\n\n\tmodifier checkPaused() {\n\t\tif (!isOwner(msg.sender)) {\n\t\t\trequire(!isPaused, \"Contract paused\");\n\t\t}\n\t\t_;\n\t}\n\n\tfunction setIsPaused(bool newPaused) external onlyOwners {\n\t\tisPaused = newPaused;\n\t}\n}\n",
  "sourcePath": "C:\\Users\\sants\\Desktop\\slimekeeper\\slimekeeper_contracts\\contracts\\PauseOwners.sol",
  "compiler": {
    "name": "solc",
    "version": "0.8.11+commit.d7f03943.Emscripten.clang"
  },
  "schemaVersion": "3.4.4",
  "updatedAt": "2022-02-12T23:11:09.964Z",
  "devdoc": {
    "kind": "dev",
    "methods": {},
    "version": 1
  },
  "userdoc": {
    "kind": "user",
    "methods": {},
    "version": 1
  }
}