{
  "contractName": "PauseOwners",
  "abi": [
    {
      "anonymous": false,
      "inputs": [
        {
          "indexed": true,
          "internalType": "address",
          "name": "adder",
          "type": "address"
        },
        {
          "indexed": true,
          "internalType": "address",
          "name": "owner",
          "type": "address"
        },
        {
          "indexed": true,
          "internalType": "uint256",
          "name": "timestamp",
          "type": "uint256"
        }
      ],
      "name": "OwnerAdded",
      "type": "event"
    },
    {
      "anonymous": false,
      "inputs": [
        {
          "indexed": true,
          "internalType": "address",
          "name": "remover",
          "type": "address"
        },
        {
          "indexed": true,
          "internalType": "address",
          "name": "removed",
          "type": "address"
        },
        {
          "indexed": true,
          "internalType": "uint256",
          "name": "timestamp",
          "type": "uint256"
        }
      ],
      "name": "OwnerRemoved",
      "type": "event"
    },
    {
      "inputs": [
        {
          "internalType": "address",
          "name": "owner",
          "type": "address"
        }
      ],
      "name": "addOwner",
      "outputs": [],
      "stateMutability": "nonpayable",
      "type": "function"
    },
    {
      "inputs": [],
      "name": "getOwners",
      "outputs": [
        {
          "internalType": "address[]",
          "name": "",
          "type": "address[]"
        }
      ],
      "stateMutability": "view",
      "type": "function"
    },
    {
      "inputs": [
        {
          "internalType": "address",
          "name": "owner",
          "type": "address"
        }
      ],
      "name": "isOwner",
      "outputs": [
        {
          "internalType": "bool",
          "name": "",
          "type": "bool"
        }
      ],
      "stateMutability": "view",
      "type": "function"
    },
    {
      "inputs": [],
      "name": "isPaused",
      "outputs": [
        {
          "internalType": "bool",
          "name": "",
          "type": "bool"
        }
      ],
      "stateMutability": "view",
      "type": "function"
    },
    {
      "inputs": [
        {
          "internalType": "address",
          "name": "owner",
          "type": "address"
        }
      ],
      "name": "removeOwner",
      "outputs": [],
      "stateMutability": "nonpayable",
      "type": "function"
    },
    {
      "inputs": [
        {
          "internalType": "bool",
          "name": "newPaused",
          "type": "bool"
        }
      ],
      "name": "setIsPaused",
      "outputs": [],
      "stateMutability": "nonpayable",
      "type": "function"
    }
  ],
  "bytecode": "0x60806040526002805460ff1916905534801561001a57600080fd5b50336100775760405162461bcd60e51b815260206004820152602260248201527f43616e277420696e697469616c697a652077697468207a65726f206164647265604482015261737360f01b606482015260840160405180910390fd5b336000818152602081905260408120805460ff191660019081179091558054808201825591527fb10e2d527612073b26eecdfd717e6a320cf44b4afac2b0732d9fcbe2b7fa0cf60180546001600160a01b0319169091179055610632806100df6000396000f3fe608060405234801561001057600080fd5b50600436106100625760003560e01c8063173825d914610067578063240976bf1461007c5780632f54bf6e1461008f5780637065cb48146100d0578063a0e67e2b146100e3578063b187bd26146100f8575b600080fd5b61007a6100753660046104a1565b610105565b005b61007a61008a3660046104d1565b610334565b6100bb61009d3660046104a1565b6001600160a01b031660009081526020819052604090205460ff1690565b60405190151581526020015b60405180910390f35b61007a6100de3660046104a1565b61037b565b6100eb61043f565b6040516100c791906104f3565b6002546100bb9060ff1681565b3360009081526020819052604090205460ff1615156001146101425760405162461bcd60e51b815260040161013990610540565b60405180910390fd5b6001600160a01b03811660009081526020819052604090205460ff1615156001146101af5760405162461bcd60e51b815260206004820152601760248201527f41646472657373206973206e6f7420616e206f776e65720000000000000000006044820152606401610139565b60005b60015481101561033057816001600160a01b0316600182815481106101d9576101d9610570565b6000918252602090912001546001600160a01b0316141561031e576001600160a01b0382166000908152602081905260409020805460ff19169055805b60018054610224919061059c565b8110156102ae57600161023783826105b3565b8154811061024757610247610570565b600091825260209091200154600180546001600160a01b03909216918490811061027357610273610570565b600091825260209091200180546001600160a01b0319166001600160a01b0392909216919091179055806102a6816105cb565b915050610216565b5060018054806102c0576102c06105e6565b600082815260208120820160001990810180546001600160a01b031916905590910190915560405142916001600160a01b0385169133917fecc5dd9888b87e7ed252d66b9c086ab819de6c8f8b96c8e5458e105bacfbb02791a45050565b80610328816105cb565b9150506101b2565b5050565b3360009081526020819052604090205460ff1615156001146103685760405162461bcd60e51b815260040161013990610540565b6002805460ff1916911515919091179055565b3360009081526020819052604090205460ff1615156001146103af5760405162461bcd60e51b815260040161013990610540565b6001600160a01b038116600081815260208190526040808220805460ff19166001908117909155805480820182559083527fb10e2d527612073b26eecdfd717e6a320cf44b4afac2b0732d9fcbe2b7fa0cf60180546001600160a01b031916841790555142929133917fa0b18fca933618876351ba2ef88bf4505c184d3e55064bec0d7fe236dd706d849190a450565b6060600180548060200260200160405190810160405280929190818152602001828054801561049757602002820191906000526020600020905b81546001600160a01b03168152600190910190602001808311610479575b5050505050905090565b6000602082840312156104b357600080fd5b81356001600160a01b03811681146104ca57600080fd5b9392505050565b6000602082840312156104e357600080fd5b813580151581146104ca57600080fd5b6020808252825182820181905260009190848201906040850190845b818110156105345783516001600160a01b03168352928401929184019160010161050f565b50909695505050505050565b60208082526016908201527521b0b63632b91034b9903737ba1030b71037bbb732b960511b604082015260600190565b634e487b7160e01b600052603260045260246000fd5b634e487b7160e01b600052601160045260246000fd5b6000828210156105ae576105ae610586565b500390565b600082198211156105c6576105c6610586565b500190565b60006000198214156105df576105df610586565b5060010190565b634e487b7160e01b600052603160045260246000fdfea26469706673582212207a974b9741aee9901b84ffd66350f7446a085a24e2d8c4b6002583fdcbfbc8a364736f6c634300080b0033",
  "immutableReferences": {},
  "source": "// SPDX-License-Identifier: MIT\n\npragma solidity >=0.4.22 <0.9.0;\n\nimport \"./Owners.sol\";\n\ncontract PauseOwners is Owners {\n\tbool public isPaused = false;\n\n\tmodifier checkPaused() {\n\t\tif (!isOwner(msg.sender)) {\n\t\t\trequire(!isPaused, \"Contract paused\");\n\t\t}\n\t\t_;\n\t}\n\n\tfunction setIsPaused(bool newPaused) external onlyOwners {\n\t\tisPaused = newPaused;\n\t}\n}\n",
  "sourcePath": "C:\\Users\\sants\\Desktop\\slimekeeper\\slimekeeper_contracts\\contracts\\PauseOwners.sol",
  "compiler": {
    "name": "solc",
    "version": "0.8.11+commit.d7f03943.Emscripten.clang"
  },
  "schemaVersion": "3.4.4",
  "updatedAt": "2022-02-20T21:29:15.468Z",
  "devdoc": {
    "kind": "dev",
    "methods": {},
    "version": 1
  },
  "userdoc": {
    "kind": "user",
    "methods": {},
    "version": 1
  }
}