{
  "contractName": "PauseOwners",
  "abi": [
    {
      "anonymous": false,
      "inputs": [
        {
          "indexed": true,
          "internalType": "address",
          "name": "adder",
          "type": "address"
        },
        {
          "indexed": true,
          "internalType": "address",
          "name": "owner",
          "type": "address"
        },
        {
          "indexed": true,
          "internalType": "uint256",
          "name": "timestamp",
          "type": "uint256"
        }
      ],
      "name": "OwnerAdded",
      "type": "event"
    },
    {
      "anonymous": false,
      "inputs": [
        {
          "indexed": true,
          "internalType": "address",
          "name": "remover",
          "type": "address"
        },
        {
          "indexed": true,
          "internalType": "address",
          "name": "removed",
          "type": "address"
        },
        {
          "indexed": true,
          "internalType": "uint256",
          "name": "timestamp",
          "type": "uint256"
        }
      ],
      "name": "OwnerRemoved",
      "type": "event"
    },
    {
      "inputs": [
        {
          "internalType": "address",
          "name": "owner",
          "type": "address"
        }
      ],
      "name": "addOwner",
      "outputs": [],
      "stateMutability": "nonpayable",
      "type": "function"
    },
    {
      "inputs": [],
      "name": "getOwners",
      "outputs": [
        {
          "internalType": "address[]",
          "name": "",
          "type": "address[]"
        }
      ],
      "stateMutability": "view",
      "type": "function"
    },
    {
      "inputs": [
        {
          "internalType": "address",
          "name": "owner",
          "type": "address"
        }
      ],
      "name": "isOwner",
      "outputs": [
        {
          "internalType": "bool",
          "name": "",
          "type": "bool"
        }
      ],
      "stateMutability": "view",
      "type": "function"
    },
    {
      "inputs": [
        {
          "internalType": "address",
          "name": "owner",
          "type": "address"
        }
      ],
      "name": "removeOwner",
      "outputs": [],
      "stateMutability": "nonpayable",
      "type": "function"
    },
    {
      "inputs": [
        {
          "internalType": "bool",
          "name": "newPaused",
          "type": "bool"
        }
      ],
      "name": "setIsPaused",
      "outputs": [],
      "stateMutability": "nonpayable",
      "type": "function"
    }
  ],
  "bytecode": "0x608060405234801561001057600080fd5b503361006d5760405162461bcd60e51b815260206004820152602260248201527f43616e277420696e697469616c697a652077697468207a65726f206164647265604482015261737360f01b606482015260840160405180910390fd5b336000818152602081905260408120805460ff191660019081179091558054808201825591527fb10e2d527612073b26eecdfd717e6a320cf44b4afac2b0732d9fcbe2b7fa0cf60180546001600160a01b031916909117905561061a806100d56000396000f3fe608060405234801561001057600080fd5b50600436106100575760003560e01c8063173825d91461005c578063240976bf146100715780632f54bf6e146100845780637065cb48146100c5578063a0e67e2b146100d8575b600080fd5b61006f61006a366004610489565b6100ed565b005b61006f61007f3660046104b9565b61031c565b6100b0610092366004610489565b6001600160a01b031660009081526020819052604090205460ff1690565b60405190151581526020015b60405180910390f35b61006f6100d3366004610489565b610363565b6100e0610427565b6040516100bc91906104db565b3360009081526020819052604090205460ff16151560011461012a5760405162461bcd60e51b815260040161012190610528565b60405180910390fd5b6001600160a01b03811660009081526020819052604090205460ff1615156001146101975760405162461bcd60e51b815260206004820152601760248201527f41646472657373206973206e6f7420616e206f776e65720000000000000000006044820152606401610121565b60005b60015481101561031857816001600160a01b0316600182815481106101c1576101c1610558565b6000918252602090912001546001600160a01b03161415610306576001600160a01b0382166000908152602081905260409020805460ff19169055805b6001805461020c9190610584565b81101561029657600161021f838261059b565b8154811061022f5761022f610558565b600091825260209091200154600180546001600160a01b03909216918490811061025b5761025b610558565b600091825260209091200180546001600160a01b0319166001600160a01b03929092169190911790558061028e816105b3565b9150506101fe565b5060018054806102a8576102a86105ce565b600082815260208120820160001990810180546001600160a01b031916905590910190915560405142916001600160a01b0385169133917fecc5dd9888b87e7ed252d66b9c086ab819de6c8f8b96c8e5458e105bacfbb02791a45050565b80610310816105b3565b91505061019a565b5050565b3360009081526020819052604090205460ff1615156001146103505760405162461bcd60e51b815260040161012190610528565b6002805460ff1916911515919091179055565b3360009081526020819052604090205460ff1615156001146103975760405162461bcd60e51b815260040161012190610528565b6001600160a01b038116600081815260208190526040808220805460ff19166001908117909155805480820182559083527fb10e2d527612073b26eecdfd717e6a320cf44b4afac2b0732d9fcbe2b7fa0cf60180546001600160a01b031916841790555142929133917fa0b18fca933618876351ba2ef88bf4505c184d3e55064bec0d7fe236dd706d849190a450565b6060600180548060200260200160405190810160405280929190818152602001828054801561047f57602002820191906000526020600020905b81546001600160a01b03168152600190910190602001808311610461575b5050505050905090565b60006020828403121561049b57600080fd5b81356001600160a01b03811681146104b257600080fd5b9392505050565b6000602082840312156104cb57600080fd5b813580151581146104b257600080fd5b6020808252825182820181905260009190848201906040850190845b8181101561051c5783516001600160a01b0316835292840192918401916001016104f7565b50909695505050505050565b60208082526016908201527521b0b63632b91034b9903737ba1030b71037bbb732b960511b604082015260600190565b634e487b7160e01b600052603260045260246000fd5b634e487b7160e01b600052601160045260246000fd5b6000828210156105965761059661056e565b500390565b600082198211156105ae576105ae61056e565b500190565b60006000198214156105c7576105c761056e565b5060010190565b634e487b7160e01b600052603160045260246000fdfea2646970667358221220158adb4e6739766d56c73bce349988a46fac72349f12170edf834bf2a01337f964736f6c634300080b0033",
  "immutableReferences": {},
  "source": "// SPDX-License-Identifier: MIT\r\n\r\npragma solidity >=0.4.22 <0.9.0;\r\n\r\nimport \"./Owners.sol\";\r\n\r\ncontract PauseOwners is Owners {\r\n\tbool internal isPaused;\r\n\r\n\tmodifier checkPaused() {\r\n\t\tif (!isOwner(msg.sender)) {\r\n\t\t\trequire(!isPaused, \"Contract paused\");\r\n\t\t}\r\n\t\t_;\r\n\t}\r\n\r\n\tfunction setIsPaused(bool newPaused) external onlyOwners {\r\n\t\tisPaused = newPaused;\r\n\t}\r\n}\r\n",
  "sourcePath": "C:\\Users\\razor\\Desktop\\slimekeeper_contracts\\contracts\\PauseOwners.sol",
  "compiler": {
    "name": "solc",
    "version": "0.8.11+commit.d7f03943.Emscripten.clang"
  },
  "schemaVersion": "3.4.3",
  "updatedAt": "2022-02-19T00:53:45.252Z",
  "devdoc": {
    "kind": "dev",
    "methods": {},
    "version": 1
  },
  "userdoc": {
    "kind": "user",
    "methods": {},
    "version": 1
  }
}