{
  "contractName": "PauseOwners",
  "abi": [
    {
      "anonymous": false,
      "inputs": [
        {
          "indexed": true,
          "internalType": "address",
          "name": "adder",
          "type": "address"
        },
        {
          "indexed": true,
          "internalType": "address",
          "name": "owner",
          "type": "address"
        },
        {
          "indexed": true,
          "internalType": "uint256",
          "name": "timestamp",
          "type": "uint256"
        }
      ],
      "name": "OwnerAdded",
      "type": "event"
    },
    {
      "anonymous": false,
      "inputs": [
        {
          "indexed": true,
          "internalType": "address",
          "name": "remover",
          "type": "address"
        },
        {
          "indexed": true,
          "internalType": "address",
          "name": "removed",
          "type": "address"
        },
        {
          "indexed": true,
          "internalType": "uint256",
          "name": "timestamp",
          "type": "uint256"
        }
      ],
      "name": "OwnerRemoved",
      "type": "event"
    },
    {
      "anonymous": false,
      "inputs": [],
      "name": "OwnershipRenounced",
      "type": "event"
    },
    {
      "inputs": [
        {
          "internalType": "address",
          "name": "owner",
          "type": "address"
        }
      ],
      "name": "addOwner",
      "outputs": [],
      "stateMutability": "nonpayable",
      "type": "function"
    },
    {
      "inputs": [],
      "name": "getOwners",
      "outputs": [
        {
          "internalType": "address[]",
          "name": "",
          "type": "address[]"
        }
      ],
      "stateMutability": "view",
      "type": "function"
    },
    {
      "inputs": [
        {
          "internalType": "address",
          "name": "owner",
          "type": "address"
        }
      ],
      "name": "isOwner",
      "outputs": [
        {
          "internalType": "bool",
          "name": "",
          "type": "bool"
        }
      ],
      "stateMutability": "view",
      "type": "function"
    },
    {
      "inputs": [],
      "name": "isPaused",
      "outputs": [
        {
          "internalType": "bool",
          "name": "",
          "type": "bool"
        }
      ],
      "stateMutability": "view",
      "type": "function"
    },
    {
      "inputs": [
        {
          "internalType": "address",
          "name": "owner",
          "type": "address"
        }
      ],
      "name": "removeOwner",
      "outputs": [],
      "stateMutability": "nonpayable",
      "type": "function"
    },
    {
      "inputs": [],
      "name": "renounceOwnership",
      "outputs": [],
      "stateMutability": "nonpayable",
      "type": "function"
    },
    {
      "inputs": [],
      "name": "renounced",
      "outputs": [
        {
          "internalType": "bool",
          "name": "",
          "type": "bool"
        }
      ],
      "stateMutability": "view",
      "type": "function"
    },
    {
      "inputs": [
        {
          "internalType": "bool",
          "name": "isPaused_",
          "type": "bool"
        }
      ],
      "name": "setIsPaused",
      "outputs": [],
      "stateMutability": "nonpayable",
      "type": "function"
    }
  ],
  "bytecode": "0x608060405234801561001057600080fd5b503361006d5760405162461bcd60e51b815260206004820152602260248201527f43616e277420696e697469616c697a652077697468207a65726f206164647265604482015261737360f01b606482015260840160405180910390fd5b60008054610100600160a81b0319163361010081029190911782558082526001602081905260408320805460ff1916821790556002805491820181559092527f405787fa12a823e0f2b7631cc41b3ba8828b3321ca811111fa75cd3aa3bb5ace90910180546001600160a01b03191690911790556107f8806100f06000396000f3fe608060405234801561001057600080fd5b50600436106100885760003560e01c8063715018a61161005b578063715018a614610109578063a0e67e2b14610111578063b187bd2614610126578063d232c2201461013357600080fd5b8063173825d91461008d578063240976bf146100a25780632f54bf6e146100b55780637065cb48146100f6575b600080fd5b6100a061009b36600461063a565b610140565b005b6100a06100b036600461066a565b6103ea565b6100e16100c336600461063a565b6001600160a01b031660009081526001602052604090205460ff1690565b60405190151581526020015b60405180910390f35b6100a061010436600461063a565b61044f565b6100a0610532565b6101196105d8565b6040516100ed919061068c565b6003546100e19060ff1681565b6000546100e19060ff1681565b60005460ff161561016c5760405162461bcd60e51b8152600401610163906106d9565b60405180910390fd5b3360009081526001602052604090205460ff1661019b5760405162461bcd60e51b815260040161016390610706565b6001600160a01b03811660009081526001602052604090205460ff166102035760405162461bcd60e51b815260206004820152601760248201527f41646472657373206973206e6f7420616e206f776e65720000000000000000006044820152606401610163565b60005461010090046001600160a01b03163314156102635760405162461bcd60e51b815260206004820152601d60248201527f4d6173746572206f776e65722063616e27742062652072656d6f7665640000006044820152606401610163565b60005b6002548110156103e657816001600160a01b03166002828154811061028d5761028d610736565b6000918252602090912001546001600160a01b031614156103d4576001600160a01b0382166000908152600160205260409020805460ff19169055805b6002546102d990600190610762565b8110156103645760026102ed836001610779565b815481106102fd576102fd610736565b600091825260209091200154600280546001600160a01b03909216918490811061032957610329610736565b600091825260209091200180546001600160a01b0319166001600160a01b03929092169190911790558061035c81610791565b9150506102ca565b506002805480610376576103766107ac565b600082815260208120820160001990810180546001600160a01b031916905590910190915560405142916001600160a01b0385169133917fecc5dd9888b87e7ed252d66b9c086ab819de6c8f8b96c8e5458e105bacfbb02791a45050565b806103de81610791565b915050610266565b5050565b60005460ff161561040d5760405162461bcd60e51b8152600401610163906106d9565b3360009081526001602052604090205460ff1661043c5760405162461bcd60e51b815260040161016390610706565b6003805460ff1916911515919091179055565b60005460ff16156104725760405162461bcd60e51b8152600401610163906106d9565b3360009081526001602052604090205460ff166104a15760405162461bcd60e51b815260040161016390610706565b6001600160a01b0381166000818152600160208190526040808320805460ff19168317905560028054928301815583527f405787fa12a823e0f2b7631cc41b3ba8828b3321ca811111fa75cd3aa3bb5ace90910180546001600160a01b031916841790555142929133917fa0b18fca933618876351ba2ef88bf4505c184d3e55064bec0d7fe236dd706d849190a450565b60005461010090046001600160a01b031633146105a25760405162461bcd60e51b815260206004820152602860248201527f4f6e6c79206d6173746572206f776e65722063616e2072656e6f756e6365206f6044820152670776e6572736869760c41b6064820152608401610163565b6000805460ff191660011781556040517fd1f66c3d2bc1993a86be5e3d33709d98f0442381befcedd29f578b9b2506b1ce9190a1565b6060600280548060200260200160405190810160405280929190818152602001828054801561063057602002820191906000526020600020905b81546001600160a01b03168152600190910190602001808311610612575b5050505050905090565b60006020828403121561064c57600080fd5b81356001600160a01b038116811461066357600080fd5b9392505050565b60006020828403121561067c57600080fd5b8135801515811461066357600080fd5b6020808252825182820181905260009190848201906040850190845b818110156106cd5783516001600160a01b0316835292840192918401916001016106a8565b50909695505050505050565b60208082526013908201527213dddb995c9cda1a5c081c995b9bdd5b98d959606a1b604082015260600190565b60208082526016908201527521b0b63632b91034b9903737ba1030b71037bbb732b960511b604082015260600190565b634e487b7160e01b600052603260045260246000fd5b634e487b7160e01b600052601160045260246000fd5b6000828210156107745761077461074c565b500390565b6000821982111561078c5761078c61074c565b500190565b60006000198214156107a5576107a561074c565b5060010190565b634e487b7160e01b600052603160045260246000fdfea2646970667358221220b9af43296719afbb57f5b2187d3bf87fd13804868b1d49af8ef990d7e2f26de264736f6c634300080b0033",
  "immutableReferences": {},
  "source": "// SPDX-License-Identifier: MIT\n\npragma solidity >=0.4.22 <0.9.0;\n\nimport \"./Owners.sol\";\n\ncontract PauseOwners is Owners {\n\tbool public isPaused;\n\n\tmodifier checkPaused(address address_) {\n\t\tif (!isOwner(address_)) {\n\t\t\trequire(!isPaused, \"Contract paused\");\n\t\t}\n\t\t_;\n\t}\n\n\tfunction setIsPaused(bool isPaused_) public onlyOwners {\n\t\tisPaused = isPaused_;\n\t}\n}\n",
  "sourcePath": "C:\\Users\\sants\\Desktop\\slimekeeper\\slimekeeper_contracts\\contracts\\PauseOwners.sol",
  "compiler": {
    "name": "solc",
    "version": "0.8.11+commit.d7f03943.Emscripten.clang"
  },
  "schemaVersion": "3.4.4",
  "updatedAt": "2022-02-23T00:12:10.504Z",
  "devdoc": {
    "kind": "dev",
    "methods": {},
    "version": 1
  },
  "userdoc": {
    "kind": "user",
    "methods": {},
    "version": 1
  }
}