{
  "contractName": "Rewards",
  "abi": [
    {
      "anonymous": false,
      "inputs": [
        {
          "indexed": true,
          "internalType": "address",
          "name": "adder",
          "type": "address"
        },
        {
          "indexed": true,
          "internalType": "address",
          "name": "owner",
          "type": "address"
        },
        {
          "indexed": true,
          "internalType": "uint256",
          "name": "timestamp",
          "type": "uint256"
        }
      ],
      "name": "OwnerAdded",
      "type": "event"
    },
    {
      "anonymous": false,
      "inputs": [
        {
          "indexed": true,
          "internalType": "address",
          "name": "remover",
          "type": "address"
        },
        {
          "indexed": true,
          "internalType": "address",
          "name": "removed",
          "type": "address"
        },
        {
          "indexed": true,
          "internalType": "uint256",
          "name": "timestamp",
          "type": "uint256"
        }
      ],
      "name": "OwnerRemoved",
      "type": "event"
    },
    {
      "anonymous": false,
      "inputs": [],
      "name": "OwnershipRenounced",
      "type": "event"
    },
    {
      "inputs": [
        {
          "internalType": "address",
          "name": "owner",
          "type": "address"
        }
      ],
      "name": "addOwner",
      "outputs": [],
      "stateMutability": "nonpayable",
      "type": "function"
    },
    {
      "inputs": [],
      "name": "getOwners",
      "outputs": [
        {
          "internalType": "address[]",
          "name": "",
          "type": "address[]"
        }
      ],
      "stateMutability": "view",
      "type": "function"
    },
    {
      "inputs": [
        {
          "internalType": "address",
          "name": "owner",
          "type": "address"
        }
      ],
      "name": "isOwner",
      "outputs": [
        {
          "internalType": "bool",
          "name": "",
          "type": "bool"
        }
      ],
      "stateMutability": "view",
      "type": "function"
    },
    {
      "inputs": [],
      "name": "isPaused",
      "outputs": [
        {
          "internalType": "bool",
          "name": "",
          "type": "bool"
        }
      ],
      "stateMutability": "view",
      "type": "function"
    },
    {
      "inputs": [
        {
          "internalType": "address",
          "name": "owner",
          "type": "address"
        }
      ],
      "name": "removeOwner",
      "outputs": [],
      "stateMutability": "nonpayable",
      "type": "function"
    },
    {
      "inputs": [],
      "name": "renounceOwnership",
      "outputs": [],
      "stateMutability": "nonpayable",
      "type": "function"
    },
    {
      "inputs": [],
      "name": "renounced",
      "outputs": [
        {
          "internalType": "bool",
          "name": "",
          "type": "bool"
        }
      ],
      "stateMutability": "view",
      "type": "function"
    },
    {
      "inputs": [
        {
          "internalType": "bool",
          "name": "isPaused_",
          "type": "bool"
        }
      ],
      "name": "setIsPaused",
      "outputs": [],
      "stateMutability": "nonpayable",
      "type": "function"
    },
    {
      "inputs": [
        {
          "internalType": "address",
          "name": "to",
          "type": "address"
        },
        {
          "internalType": "uint256",
          "name": "amountToken",
          "type": "uint256"
        }
      ],
      "name": "withdraw",
      "outputs": [],
      "stateMutability": "nonpayable",
      "type": "function"
    },
    {
      "inputs": [
        {
          "internalType": "address",
          "name": "tokenAddress",
          "type": "address"
        },
        {
          "internalType": "address",
          "name": "gameAddress_",
          "type": "address"
        },
        {
          "internalType": "address",
          "name": "nftAddress_",
          "type": "address"
        }
      ],
      "name": "setAddresses",
      "outputs": [],
      "stateMutability": "nonpayable",
      "type": "function"
    }
  ],
  "bytecode": "0x608060405234801561001057600080fd5b503361006d5760405162461bcd60e51b815260206004820152602260248201527f43616e277420696e697469616c697a652077697468207a65726f206164647265604482015261737360f01b606482015260840160405180910390fd5b60008054610100600160a81b0319163361010081029190911782558082526001602081905260408320805460ff1916821790556002805491820181559092527f405787fa12a823e0f2b7631cc41b3ba8828b3321ca811111fa75cd3aa3bb5ace90910180546001600160a01b0319169091179055610bc4806100f06000396000f3fe608060405234801561001057600080fd5b506004361061009e5760003560e01c8063715018a611610066578063715018a614610132578063a0e67e2b1461013a578063b187bd261461014f578063d232c2201461015c578063f3fef3a31461016957600080fd5b8063173825d9146100a3578063240976bf146100b85780632f54bf6e146100cb578063363bf9641461010c5780637065cb481461011f575b600080fd5b6100b66100b1366004610965565b61017c565b005b6100b66100c6366004610998565b61048a565b6100f76100d9366004610965565b6001600160a01b031660009081526001602052604090205460ff1690565b60405190151581526020015b60405180910390f35b6100b661011a3660046109b5565b6104ef565b6100b661012d366004610965565b610589565b6100b661066c565b610142610712565b60405161010391906109f8565b6003546100f79060ff1681565b6000546100f79060ff1681565b6100b6610177366004610a45565b610774565b60005460ff16156101a85760405162461bcd60e51b815260040161019f90610a6f565b60405180910390fd5b3360009081526001602052604090205460ff166101d75760405162461bcd60e51b815260040161019f90610a9c565b6001600160a01b03811660009081526001602052604090205460ff1661023f5760405162461bcd60e51b815260206004820152601760248201527f41646472657373206973206e6f7420616e206f776e6572000000000000000000604482015260640161019f565b60005461010090046001600160a01b031633141561029f5760405162461bcd60e51b815260206004820152601d60248201527f4d6173746572206f776e65722063616e27742062652072656d6f766564000000604482015260640161019f565b60025460005b60025481101561042657826001600160a01b0316600282815481106102cc576102cc610acc565b6000918252602090912001546001600160a01b03161415610414576001600160a01b0383166000908152600160205260409020805460ff19169055805b60025461031890600190610af8565b8110156103a357600261032c836001610b0f565b8154811061033c5761033c610acc565b600091825260209091200154600280546001600160a01b03909216918490811061036857610368610acc565b600091825260209091200180546001600160a01b0319166001600160a01b03929092169190911790558061039b81610b27565b915050610309565b5060028054806103b5576103b5610b42565b600082815260208120820160001990810180546001600160a01b031916905590910190915560405142916001600160a01b0386169133917fecc5dd9888b87e7ed252d66b9c086ab819de6c8f8b96c8e5458e105bacfbb02791a4610426565b8061041e81610b27565b9150506102a5565b506002548181106104855760405162461bcd60e51b8152602060048201526024808201527f536f6d657468696e672077656e742077726f6e672072656d6f76696e67206f776044820152636e65727360e01b606482015260840161019f565b505050565b60005460ff16156104ad5760405162461bcd60e51b815260040161019f90610a6f565b3360009081526001602052604090205460ff166104dc5760405162461bcd60e51b815260040161019f90610a9c565b6003805460ff1916911515919091179055565b60005460ff16156105125760405162461bcd60e51b815260040161019f90610a6f565b3360009081526001602052604090205460ff166105415760405162461bcd60e51b815260040161019f90610a9c565b600380546001600160a01b0394851661010002610100600160a81b0319909116179055600480549284166001600160a01b031993841617905560058054919093169116179055565b60005460ff16156105ac5760405162461bcd60e51b815260040161019f90610a6f565b3360009081526001602052604090205460ff166105db5760405162461bcd60e51b815260040161019f90610a9c565b6001600160a01b0381166000818152600160208190526040808320805460ff19168317905560028054928301815583527f405787fa12a823e0f2b7631cc41b3ba8828b3321ca811111fa75cd3aa3bb5ace90910180546001600160a01b031916841790555142929133917fa0b18fca933618876351ba2ef88bf4505c184d3e55064bec0d7fe236dd706d849190a450565b60005461010090046001600160a01b031633146106dc5760405162461bcd60e51b815260206004820152602860248201527f4f6e6c79206d6173746572206f776e65722063616e2072656e6f756e6365206f6044820152670776e6572736869760c41b606482015260840161019f565b6000805460ff191660011781556040517fd1f66c3d2bc1993a86be5e3d33709d98f0442381befcedd29f578b9b2506b1ce9190a1565b6060600280548060200260200160405190810160405280929190818152602001828054801561076a57602002820191906000526020600020905b81546001600160a01b0316815260019091019060200180831161074c575b5050505050905090565b6004546001600160a01b031633148061079757506005546001600160a01b031633145b6107a057600080fd5b6003546040516370a0823160e01b8152306004820152829161010090046001600160a01b0316906370a0823190602401602060405180830381865afa1580156107ed573d6000803e3d6000fd5b505050506040513d601f19601f820116820180604052508101906108119190610b58565b101561088457600360019054906101000a90046001600160a01b03166001600160a01b0316636eee2b466040518163ffffffff1660e01b8152600401600060405180830381600087803b15801561086757600080fd5b505af115801561087b573d6000803e3d6000fd5b505050506107a0565b60035460405163a9059cbb60e01b81526001600160a01b038481166004830152602482018490526101009092049091169063a9059cbb906044016020604051808303816000875af11580156108dd573d6000803e3d6000fd5b505050506040513d601f19601f820116820180604052508101906109019190610b71565b6109455760405162461bcd60e51b8152602060048201526015602482015274151bdad95b881dda5d1a191c985dc819985a5b1959605a1b604482015260640161019f565b5050565b80356001600160a01b038116811461096057600080fd5b919050565b60006020828403121561097757600080fd5b61098082610949565b9392505050565b801515811461099557600080fd5b50565b6000602082840312156109aa57600080fd5b813561098081610987565b6000806000606084860312156109ca57600080fd5b6109d384610949565b92506109e160208501610949565b91506109ef60408501610949565b90509250925092565b6020808252825182820181905260009190848201906040850190845b81811015610a395783516001600160a01b031683529284019291840191600101610a14565b50909695505050505050565b60008060408385031215610a5857600080fd5b610a6183610949565b946020939093013593505050565b60208082526013908201527213dddb995c9cda1a5c081c995b9bdd5b98d959606a1b604082015260600190565b60208082526016908201527521b0b63632b91034b9903737ba1030b71037bbb732b960511b604082015260600190565b634e487b7160e01b600052603260045260246000fd5b634e487b7160e01b600052601160045260246000fd5b600082821015610b0a57610b0a610ae2565b500390565b60008219821115610b2257610b22610ae2565b500190565b6000600019821415610b3b57610b3b610ae2565b5060010190565b634e487b7160e01b600052603160045260246000fd5b600060208284031215610b6a57600080fd5b5051919050565b600060208284031215610b8357600080fd5b81516109808161098756fea26469706673582212206ac04fc10b143925206ed821f6666f8c2f8178375ece0f682764e95cdc4b804a64736f6c634300080b0033",
  "immutableReferences": {},
  "source": "// SPDX-License-Identifier: MIT\n\npragma solidity >=0.4.22 <0.9.0;\n\nimport \"./PauseOwners.sol\";\nimport \"./Token.sol\";\n\ncontract Rewards is PauseOwners {\n\tToken token;\n\taddress gameAddress;\n\taddress nftAddress;\n\n\tmodifier onlyInternalContracts() {\n\t\trequire(msg.sender == gameAddress || msg.sender == nftAddress);\n\t\t_;\n\t}\n\n\tfunction withdraw(address to, uint256 amountToken)\n\t\texternal\n\t\tonlyInternalContracts\n\t{\n\t\twhile (token.balanceOf(address(this)) < amountToken) {\n\t\t\ttoken.emergencyMintRewards();\n\t\t}\n\t\trequire(token.transfer(to, amountToken), \"Token withdraw failed\");\n\t}\n\n\tfunction setAddresses(\n\t\taddress tokenAddress,\n\t\taddress gameAddress_,\n\t\taddress nftAddress_\n\t) external onlyOwners {\n\t\ttoken = Token(payable(tokenAddress));\n\t\tgameAddress = gameAddress_;\n\t\tnftAddress = nftAddress_;\n\t}\n}\n",
  "sourcePath": "C:\\Users\\sants\\Desktop\\slimekeeper\\slimekeeper_contracts\\contracts\\Rewards.sol",
  "compiler": {
    "name": "solc",
    "version": "0.8.11+commit.d7f03943.Emscripten.clang"
  },
  "schemaVersion": "3.4.5",
  "updatedAt": "2022-02-28T19:06:16.843Z",
  "networkType": "ethereum",
  "devdoc": {
    "kind": "dev",
    "methods": {},
    "version": 1
  },
  "userdoc": {
    "kind": "user",
    "methods": {},
    "version": 1
  }
}