{
  "contractName": "Rewards",
  "abi": [
    {
      "anonymous": false,
      "inputs": [
        {
          "indexed": true,
          "internalType": "address",
          "name": "adder",
          "type": "address"
        },
        {
          "indexed": true,
          "internalType": "address",
          "name": "owner",
          "type": "address"
        },
        {
          "indexed": true,
          "internalType": "uint256",
          "name": "timestamp",
          "type": "uint256"
        }
      ],
      "name": "OwnerAdded",
      "type": "event"
    },
    {
      "anonymous": false,
      "inputs": [
        {
          "indexed": true,
          "internalType": "address",
          "name": "remover",
          "type": "address"
        },
        {
          "indexed": true,
          "internalType": "address",
          "name": "owner",
          "type": "address"
        },
        {
          "indexed": true,
          "internalType": "uint256",
          "name": "timestamp",
          "type": "uint256"
        }
      ],
      "name": "OwnerRemoved",
      "type": "event"
    },
    {
      "anonymous": false,
      "inputs": [
        {
          "indexed": false,
          "internalType": "uint256",
          "name": "timestamp",
          "type": "uint256"
        }
      ],
      "name": "OwnershipRenounced",
      "type": "event"
    },
    {
      "anonymous": false,
      "inputs": [
        {
          "indexed": false,
          "internalType": "address",
          "name": "to",
          "type": "address"
        },
        {
          "indexed": false,
          "internalType": "uint256",
          "name": "amount",
          "type": "uint256"
        },
        {
          "indexed": false,
          "internalType": "address",
          "name": "caller",
          "type": "address"
        }
      ],
      "name": "Withdraw",
      "type": "event"
    },
    {
      "inputs": [
        {
          "internalType": "address",
          "name": "owner",
          "type": "address"
        }
      ],
      "name": "addOwner",
      "outputs": [],
      "stateMutability": "nonpayable",
      "type": "function"
    },
    {
      "inputs": [],
      "name": "getOwners",
      "outputs": [
        {
          "internalType": "address[]",
          "name": "",
          "type": "address[]"
        }
      ],
      "stateMutability": "view",
      "type": "function"
    },
    {
      "inputs": [
        {
          "internalType": "address",
          "name": "owner",
          "type": "address"
        }
      ],
      "name": "isOwner",
      "outputs": [
        {
          "internalType": "bool",
          "name": "",
          "type": "bool"
        }
      ],
      "stateMutability": "view",
      "type": "function"
    },
    {
      "inputs": [],
      "name": "isPaused",
      "outputs": [
        {
          "internalType": "bool",
          "name": "",
          "type": "bool"
        }
      ],
      "stateMutability": "view",
      "type": "function"
    },
    {
      "inputs": [
        {
          "internalType": "address",
          "name": "owner",
          "type": "address"
        }
      ],
      "name": "removeOwner",
      "outputs": [],
      "stateMutability": "nonpayable",
      "type": "function"
    },
    {
      "inputs": [],
      "name": "renounceOwnership",
      "outputs": [],
      "stateMutability": "nonpayable",
      "type": "function"
    },
    {
      "inputs": [],
      "name": "renounced",
      "outputs": [
        {
          "internalType": "bool",
          "name": "",
          "type": "bool"
        }
      ],
      "stateMutability": "view",
      "type": "function"
    },
    {
      "inputs": [
        {
          "internalType": "bool",
          "name": "isPaused_",
          "type": "bool"
        }
      ],
      "name": "setIsPaused",
      "outputs": [],
      "stateMutability": "nonpayable",
      "type": "function"
    },
    {
      "inputs": [
        {
          "internalType": "address",
          "name": "to",
          "type": "address"
        },
        {
          "internalType": "uint256",
          "name": "amountToken",
          "type": "uint256"
        }
      ],
      "name": "withdraw",
      "outputs": [],
      "stateMutability": "nonpayable",
      "type": "function"
    },
    {
      "inputs": [
        {
          "internalType": "address",
          "name": "tokenAddress_",
          "type": "address"
        },
        {
          "internalType": "address",
          "name": "gameAddress_",
          "type": "address"
        },
        {
          "internalType": "address",
          "name": "nftAddress_",
          "type": "address"
        }
      ],
      "name": "setAddresses",
      "outputs": [],
      "stateMutability": "nonpayable",
      "type": "function"
    }
  ],
  "bytecode": "0x608060405234801561001057600080fd5b503361006d5760405162461bcd60e51b815260206004820152602260248201527f43616e277420696e697469616c697a652077697468207a65726f206164647265604482015261737360f01b606482015260840160405180910390fd5b60008054610100600160a81b0319163361010081029190911782558082526001602081905260408320805460ff1916821790556002805491820181559092527f405787fa12a823e0f2b7631cc41b3ba8828b3321ca811111fa75cd3aa3bb5ace90910180546001600160a01b0319169091179055610c09806100f06000396000f3fe608060405234801561001057600080fd5b506004361061008e5760003560e01c8063173825d914610093578063240976bf146100a85780632f54bf6e146100bb578063363bf964146100fc5780637065cb481461010f578063715018a614610122578063a0e67e2b1461012a578063b187bd261461013f578063d232c2201461014c578063f3fef3a314610159575b600080fd5b6100a66100a13660046109aa565b61016c565b005b6100a66100b63660046109dd565b610474565b6100e76100c93660046109aa565b6001600160a01b031660009081526001602052604090205460ff1690565b60405190151581526020015b60405180910390f35b6100a661010a3660046109fa565b6104d9565b6100a661011d3660046109aa565b610573565b6100a6610656565b61013261070f565b6040516100f39190610a3d565b6003546100e79060ff1681565b6000546100e79060ff1681565b6100a6610167366004610a8a565b610771565b60005460ff16156101985760405162461bcd60e51b815260040161018f90610ab4565b60405180910390fd5b3360009081526001602052604090205460ff166101c75760405162461bcd60e51b815260040161018f90610ae1565b6001600160a01b03811660009081526001602052604090205460ff166102295760405162461bcd60e51b815260206004820152601760248201527620b2323932b9b99034b9903737ba1030b71037bbb732b960491b604482015260640161018f565b60005461010090046001600160a01b03163314156102895760405162461bcd60e51b815260206004820152601d60248201527f4d6173746572206f776e65722063616e27742062652072656d6f766564000000604482015260640161018f565b60025460005b60025481101561041057826001600160a01b0316600282815481106102b6576102b6610b11565b6000918252602090912001546001600160a01b031614156103fe576001600160a01b0383166000908152600160205260409020805460ff19169055805b60025461030290600190610b3d565b81101561038d576002610316836001610b54565b8154811061032657610326610b11565b600091825260209091200154600280546001600160a01b03909216918490811061035257610352610b11565b600091825260209091200180546001600160a01b0319166001600160a01b03929092169190911790558061038581610b6c565b9150506102f3565b50600280548061039f5761039f610b87565b600082815260208120820160001990810180546001600160a01b031916905590910190915560405142916001600160a01b0386169133917fecc5dd9888b87e7ed252d66b9c086ab819de6c8f8b96c8e5458e105bacfbb02791a4610410565b8061040881610b6c565b91505061028f565b5060025481811061046f5760405162461bcd60e51b8152602060048201526024808201527f536f6d657468696e672077656e742077726f6e672072656d6f76696e67206f776044820152636e65727360e01b606482015260840161018f565b505050565b60005460ff16156104975760405162461bcd60e51b815260040161018f90610ab4565b3360009081526001602052604090205460ff166104c65760405162461bcd60e51b815260040161018f90610ae1565b6003805460ff1916911515919091179055565b60005460ff16156104fc5760405162461bcd60e51b815260040161018f90610ab4565b3360009081526001602052604090205460ff1661052b5760405162461bcd60e51b815260040161018f90610ae1565b600380546001600160a01b0394851661010002610100600160a81b0319909116179055600480549284166001600160a01b031993841617905560058054919093169116179055565b60005460ff16156105965760405162461bcd60e51b815260040161018f90610ab4565b3360009081526001602052604090205460ff166105c55760405162461bcd60e51b815260040161018f90610ae1565b6001600160a01b0381166000818152600160208190526040808320805460ff19168317905560028054928301815583527f405787fa12a823e0f2b7631cc41b3ba8828b3321ca811111fa75cd3aa3bb5ace90910180546001600160a01b031916841790555142929133917fa0b18fca933618876351ba2ef88bf4505c184d3e55064bec0d7fe236dd706d849190a450565b60005461010090046001600160a01b031633146106c65760405162461bcd60e51b815260206004820152602860248201527f4f6e6c79206d6173746572206f776e65722063616e2072656e6f756e6365206f6044820152670776e6572736869760c41b606482015260840161018f565b6000805460ff191660011790556040517f7738dc8b7a10a5636dceada812073a582b717ce047d82cd0e4918662b2e7c773906107059042815260200190565b60405180910390a1565b6060600280548060200260200160405190810160405280929190818152602001828054801561076757602002820191906000526020600020905b81546001600160a01b03168152600190910190602001808311610749575b5050505050905090565b6004546001600160a01b031633148061079457506005546001600160a01b031633145b61079d57600080fd5b6003546040516370a0823160e01b8152306004820152829161010090046001600160a01b0316906370a0823190602401602060405180830381865afa1580156107ea573d6000803e3d6000fd5b505050506040513d601f19601f8201168201806040525081019061080e9190610b9d565b101561088157600360019054906101000a90046001600160a01b03166001600160a01b0316636eee2b466040518163ffffffff1660e01b8152600401600060405180830381600087803b15801561086457600080fd5b505af1158015610878573d6000803e3d6000fd5b5050505061079d565b60035460405163a9059cbb60e01b81526001600160a01b038481166004830152602482018490526101009092049091169063a9059cbb906044016020604051808303816000875af11580156108da573d6000803e3d6000fd5b505050506040513d601f19601f820116820180604052508101906108fe9190610bb6565b6109425760405162461bcd60e51b8152602060048201526015602482015274151bdad95b881dda5d1a191c985dc819985a5b1959605a1b604482015260640161018f565b604080516001600160a01b038416815260208101839052338183015290517f56c54ba9bd38d8fd62012e42c7ee564519b09763c426d331b3661b537ead19b29181900360600190a15050565b80356001600160a01b03811681146109a557600080fd5b919050565b6000602082840312156109bc57600080fd5b6109c58261098e565b9392505050565b80151581146109da57600080fd5b50565b6000602082840312156109ef57600080fd5b81356109c5816109cc565b600080600060608486031215610a0f57600080fd5b610a188461098e565b9250610a266020850161098e565b9150610a346040850161098e565b90509250925092565b6020808252825182820181905260009190848201906040850190845b81811015610a7e5783516001600160a01b031683529284019291840191600101610a59565b50909695505050505050565b60008060408385031215610a9d57600080fd5b610aa68361098e565b946020939093013593505050565b60208082526013908201527213dddb995c9cda1a5c081c995b9bdd5b98d959606a1b604082015260600190565b60208082526016908201527521b0b63632b91034b9903737ba1030b71037bbb732b960511b604082015260600190565b634e487b7160e01b600052603260045260246000fd5b634e487b7160e01b600052601160045260246000fd5b600082821015610b4f57610b4f610b27565b500390565b60008219821115610b6757610b67610b27565b500190565b6000600019821415610b8057610b80610b27565b5060010190565b634e487b7160e01b600052603160045260246000fd5b600060208284031215610baf57600080fd5b5051919050565b600060208284031215610bc857600080fd5b81516109c5816109cc56fea26469706673582212203b6582201a059084e1a959e4f2ff865f47a5451a01763c12bab0cf5d2dfeeb1664736f6c634300080b0033",
  "immutableReferences": {},
  "source": "// SPDX-License-Identifier: MIT\r\n// @boughtthetopkms on Telegram\r\n\r\npragma solidity >=0.4.22 <0.9.0;\r\n\r\nimport \"./PauseOwners.sol\";\r\nimport \"./Token.sol\";\r\n\r\ncontract Rewards is PauseOwners {\r\n\tevent Withdraw(address to, uint256 amount, address caller);\r\n\r\n\tToken token;\r\n\taddress gameAddress;\r\n\taddress nftAddress;\r\n\r\n\tfunction withdraw(address to, uint256 amountToken) external {\r\n\t\trequire(msg.sender == gameAddress || msg.sender == nftAddress);\r\n\t\twhile (token.balanceOf(address(this)) < amountToken) {\r\n\t\t\t// Mints new supply for as long as needed\r\n\t\t\ttoken.emergencyMintRewards();\r\n\t\t}\r\n\t\trequire(token.transfer(to, amountToken), \"Token withdraw failed\");\r\n\t\temit Withdraw(to, amountToken, msg.sender);\r\n\t}\r\n\r\n\tfunction setAddresses(\r\n\t\taddress tokenAddress_,\r\n\t\taddress gameAddress_,\r\n\t\taddress nftAddress_\r\n\t) external onlyOwners {\r\n\t\ttoken = Token(payable(tokenAddress_));\r\n\t\tgameAddress = gameAddress_;\r\n\t\tnftAddress = nftAddress_;\r\n\t}\r\n}\r\n",
  "sourcePath": "C:\\Users\\sants\\Desktop\\slimekeeper\\slimekeeper_contracts\\contracts\\Rewards.sol",
  "compiler": {
    "name": "solc",
    "version": "0.8.11+commit.d7f03943.Emscripten.clang"
  },
  "schemaVersion": "3.4.5",
  "updatedAt": "2022-03-02T18:54:07.169Z",
  "devdoc": {
    "kind": "dev",
    "methods": {},
    "version": 1
  },
  "userdoc": {
    "kind": "user",
    "methods": {},
    "version": 1
  }
}