{
  "contractName": "Rewards",
  "abi": [
    {
      "anonymous": false,
      "inputs": [
        {
          "indexed": true,
          "internalType": "address",
          "name": "adder",
          "type": "address"
        },
        {
          "indexed": true,
          "internalType": "address",
          "name": "owner",
          "type": "address"
        },
        {
          "indexed": true,
          "internalType": "uint256",
          "name": "timestamp",
          "type": "uint256"
        }
      ],
      "name": "OwnerAdded",
      "type": "event"
    },
    {
      "anonymous": false,
      "inputs": [
        {
          "indexed": true,
          "internalType": "address",
          "name": "remover",
          "type": "address"
        },
        {
          "indexed": true,
          "internalType": "address",
          "name": "removed",
          "type": "address"
        },
        {
          "indexed": true,
          "internalType": "uint256",
          "name": "timestamp",
          "type": "uint256"
        }
      ],
      "name": "OwnerRemoved",
      "type": "event"
    },
    {
      "anonymous": false,
      "inputs": [],
      "name": "OwnershipRenounced",
      "type": "event"
    },
    {
      "inputs": [
        {
          "internalType": "address",
          "name": "owner",
          "type": "address"
        }
      ],
      "name": "addOwner",
      "outputs": [],
      "stateMutability": "nonpayable",
      "type": "function"
    },
    {
      "inputs": [],
      "name": "getOwners",
      "outputs": [
        {
          "internalType": "address[]",
          "name": "",
          "type": "address[]"
        }
      ],
      "stateMutability": "view",
      "type": "function"
    },
    {
      "inputs": [
        {
          "internalType": "address",
          "name": "owner",
          "type": "address"
        }
      ],
      "name": "isOwner",
      "outputs": [
        {
          "internalType": "bool",
          "name": "",
          "type": "bool"
        }
      ],
      "stateMutability": "view",
      "type": "function"
    },
    {
      "inputs": [],
      "name": "isPaused",
      "outputs": [
        {
          "internalType": "bool",
          "name": "",
          "type": "bool"
        }
      ],
      "stateMutability": "view",
      "type": "function"
    },
    {
      "inputs": [
        {
          "internalType": "address",
          "name": "owner",
          "type": "address"
        }
      ],
      "name": "removeOwner",
      "outputs": [],
      "stateMutability": "nonpayable",
      "type": "function"
    },
    {
      "inputs": [],
      "name": "renounceOwnership",
      "outputs": [],
      "stateMutability": "nonpayable",
      "type": "function"
    },
    {
      "inputs": [],
      "name": "renounced",
      "outputs": [
        {
          "internalType": "bool",
          "name": "",
          "type": "bool"
        }
      ],
      "stateMutability": "view",
      "type": "function"
    },
    {
      "inputs": [
        {
          "internalType": "bool",
          "name": "isPaused_",
          "type": "bool"
        }
      ],
      "name": "setIsPaused",
      "outputs": [],
      "stateMutability": "nonpayable",
      "type": "function"
    },
    {
      "inputs": [
        {
          "internalType": "uint256",
          "name": "amountToken",
          "type": "uint256"
        }
      ],
      "name": "withdraw",
      "outputs": [],
      "stateMutability": "nonpayable",
      "type": "function"
    },
    {
      "inputs": [
        {
          "internalType": "address",
          "name": "tokenAddress",
          "type": "address"
        },
        {
          "internalType": "address",
          "name": "gameAddress_",
          "type": "address"
        },
        {
          "internalType": "address",
          "name": "nftAddress_",
          "type": "address"
        }
      ],
      "name": "setAddresses",
      "outputs": [],
      "stateMutability": "nonpayable",
      "type": "function"
    }
  ],
  "bytecode": "0x608060405234801561001057600080fd5b503361006d5760405162461bcd60e51b815260206004820152602260248201527f43616e277420696e697469616c697a652077697468207a65726f206164647265604482015261737360f01b606482015260840160405180910390fd5b60008054610100600160a81b0319163361010081029190911782558082526001602081905260408320805460ff1916821790556002805491820181559092527f405787fa12a823e0f2b7631cc41b3ba8828b3321ca811111fa75cd3aa3bb5ace90910180546001600160a01b0319169091179055610b6b806100f06000396000f3fe608060405234801561001057600080fd5b506004361061009e5760003560e01c80637065cb48116100665780637065cb4814610132578063715018a614610145578063a0e67e2b1461014d578063b187bd2614610162578063d232c2201461016f57600080fd5b8063173825d9146100a3578063240976bf146100b85780632e1a7d4d146100cb5780632f54bf6e146100de578063363bf9641461011f575b600080fd5b6100b66100b136600461091d565b61017c565b005b6100b66100c6366004610950565b61048a565b6100b66100d936600461096d565b6104ef565b61010a6100ec36600461091d565b6001600160a01b031660009081526001602052604090205460ff1690565b60405190151581526020015b60405180910390f35b6100b661012d366004610986565b61067c565b6100b661014036600461091d565b610716565b6100b66107f9565b61015561089f565b60405161011691906109c9565b60035461010a9060ff1681565b60005461010a9060ff1681565b60005460ff16156101a85760405162461bcd60e51b815260040161019f90610a16565b60405180910390fd5b3360009081526001602052604090205460ff166101d75760405162461bcd60e51b815260040161019f90610a43565b6001600160a01b03811660009081526001602052604090205460ff1661023f5760405162461bcd60e51b815260206004820152601760248201527f41646472657373206973206e6f7420616e206f776e6572000000000000000000604482015260640161019f565b60005461010090046001600160a01b031633141561029f5760405162461bcd60e51b815260206004820152601d60248201527f4d6173746572206f776e65722063616e27742062652072656d6f766564000000604482015260640161019f565b60025460005b60025481101561042657826001600160a01b0316600282815481106102cc576102cc610a73565b6000918252602090912001546001600160a01b03161415610414576001600160a01b0383166000908152600160205260409020805460ff19169055805b60025461031890600190610a9f565b8110156103a357600261032c836001610ab6565b8154811061033c5761033c610a73565b600091825260209091200154600280546001600160a01b03909216918490811061036857610368610a73565b600091825260209091200180546001600160a01b0319166001600160a01b03929092169190911790558061039b81610ace565b915050610309565b5060028054806103b5576103b5610ae9565b600082815260208120820160001990810180546001600160a01b031916905590910190915560405142916001600160a01b0386169133917fecc5dd9888b87e7ed252d66b9c086ab819de6c8f8b96c8e5458e105bacfbb02791a4610426565b8061041e81610ace565b9150506102a5565b506002548181106104855760405162461bcd60e51b8152602060048201526024808201527f536f6d657468696e672077656e742077726f6e672072656d6f76696e67206f776044820152636e65727360e01b606482015260840161019f565b505050565b60005460ff16156104ad5760405162461bcd60e51b815260040161019f90610a16565b3360009081526001602052604090205460ff166104dc5760405162461bcd60e51b815260040161019f90610a43565b6003805460ff1916911515919091179055565b6004546001600160a01b031633148061051257506005546001600160a01b031633145b61051b57600080fd5b6003546040516370a0823160e01b8152306004820152829161010090046001600160a01b0316906370a0823190602401602060405180830381865afa158015610568573d6000803e3d6000fd5b505050506040513d601f19601f8201168201806040525081019061058c9190610aff565b10156105ff57600360019054906101000a90046001600160a01b03166001600160a01b0316636eee2b466040518163ffffffff1660e01b8152600401600060405180830381600087803b1580156105e257600080fd5b505af11580156105f6573d6000803e3d6000fd5b5050505061051b565b60035460405163a9059cbb60e01b8152336004820152602481018390526101009091046001600160a01b03169063a9059cbb906044016020604051808303816000875af1158015610654573d6000803e3d6000fd5b505050506040513d601f19601f820116820180604052508101906106789190610b18565b5050565b60005460ff161561069f5760405162461bcd60e51b815260040161019f90610a16565b3360009081526001602052604090205460ff166106ce5760405162461bcd60e51b815260040161019f90610a43565b600380546001600160a01b0394851661010002610100600160a81b0319909116179055600480549284166001600160a01b031993841617905560058054919093169116179055565b60005460ff16156107395760405162461bcd60e51b815260040161019f90610a16565b3360009081526001602052604090205460ff166107685760405162461bcd60e51b815260040161019f90610a43565b6001600160a01b0381166000818152600160208190526040808320805460ff19168317905560028054928301815583527f405787fa12a823e0f2b7631cc41b3ba8828b3321ca811111fa75cd3aa3bb5ace90910180546001600160a01b031916841790555142929133917fa0b18fca933618876351ba2ef88bf4505c184d3e55064bec0d7fe236dd706d849190a450565b60005461010090046001600160a01b031633146108695760405162461bcd60e51b815260206004820152602860248201527f4f6e6c79206d6173746572206f776e65722063616e2072656e6f756e6365206f6044820152670776e6572736869760c41b606482015260840161019f565b6000805460ff191660011781556040517fd1f66c3d2bc1993a86be5e3d33709d98f0442381befcedd29f578b9b2506b1ce9190a1565b606060028054806020026020016040519081016040528092919081815260200182805480156108f757602002820191906000526020600020905b81546001600160a01b031681526001909101906020018083116108d9575b5050505050905090565b80356001600160a01b038116811461091857600080fd5b919050565b60006020828403121561092f57600080fd5b61093882610901565b9392505050565b801515811461094d57600080fd5b50565b60006020828403121561096257600080fd5b81356109388161093f565b60006020828403121561097f57600080fd5b5035919050565b60008060006060848603121561099b57600080fd5b6109a484610901565b92506109b260208501610901565b91506109c060408501610901565b90509250925092565b6020808252825182820181905260009190848201906040850190845b81811015610a0a5783516001600160a01b0316835292840192918401916001016109e5565b50909695505050505050565b60208082526013908201527213dddb995c9cda1a5c081c995b9bdd5b98d959606a1b604082015260600190565b60208082526016908201527521b0b63632b91034b9903737ba1030b71037bbb732b960511b604082015260600190565b634e487b7160e01b600052603260045260246000fd5b634e487b7160e01b600052601160045260246000fd5b600082821015610ab157610ab1610a89565b500390565b60008219821115610ac957610ac9610a89565b500190565b6000600019821415610ae257610ae2610a89565b5060010190565b634e487b7160e01b600052603160045260246000fd5b600060208284031215610b1157600080fd5b5051919050565b600060208284031215610b2a57600080fd5b81516109388161093f56fea26469706673582212201dbb8e2df1e333f92fba797074d2461d2c43bdcda42e0aca923cde6301382a5a64736f6c634300080b0033",
  "immutableReferences": {},
  "source": "// SPDX-License-Identifier: MIT\n\npragma solidity >=0.4.22 <0.9.0;\n\nimport \"./PauseOwners.sol\";\nimport \"./Token.sol\";\n\ncontract Rewards is PauseOwners {\n\tToken token;\n\taddress gameAddress;\n\taddress nftAddress;\n\n\tmodifier onlyInternalContracts() {\n\t\trequire(msg.sender == gameAddress || msg.sender == nftAddress);\n\t\t_;\n\t}\n\n\tfunction withdraw(uint256 amountToken) external onlyInternalContracts {\n\t\twhile (token.balanceOf(address(this)) < amountToken) {\n\t\t\ttoken.emergencyMintRewards();\n\t\t}\n\t\ttoken.transfer(msg.sender, amountToken);\n\t}\n\n\tfunction setAddresses(\n\t\taddress tokenAddress,\n\t\taddress gameAddress_,\n\t\taddress nftAddress_\n\t) external onlyOwners {\n\t\ttoken = Token(payable(tokenAddress));\n\t\tgameAddress = gameAddress_;\n\t\tnftAddress = nftAddress_;\n\t}\n}\n",
  "sourcePath": "C:\\Users\\sants\\Desktop\\slimekeeper\\slimekeeper_contracts\\contracts\\Rewards.sol",
  "compiler": {
    "name": "solc",
    "version": "0.8.11+commit.d7f03943.Emscripten.clang"
  },
  "schemaVersion": "3.4.5",
  "updatedAt": "2022-02-26T22:11:09.714Z",
  "devdoc": {
    "kind": "dev",
    "methods": {},
    "version": 1
  },
  "userdoc": {
    "kind": "user",
    "methods": {},
    "version": 1
  }
}