{
  "contractName": "SlimeNFT",
  "abi": [
    {
      "inputs": [
        {
          "internalType": "string",
          "name": "baseURI",
          "type": "string"
        },
        {
          "internalType": "uint256",
          "name": "_maxMint",
          "type": "uint256"
        },
        {
          "components": [
            {
              "internalType": "uint256",
              "name": "price",
              "type": "uint256"
            },
            {
              "internalType": "uint256",
              "name": "cap",
              "type": "uint256"
            }
          ],
          "internalType": "struct SlimeNFT.PriceRange[]",
          "name": "priceRanges",
          "type": "tuple[]"
        }
      ],
      "stateMutability": "nonpayable",
      "type": "constructor"
    },
    {
      "anonymous": false,
      "inputs": [
        {
          "indexed": true,
          "internalType": "address",
          "name": "owner",
          "type": "address"
        },
        {
          "indexed": true,
          "internalType": "address",
          "name": "approved",
          "type": "address"
        },
        {
          "indexed": true,
          "internalType": "uint256",
          "name": "tokenId",
          "type": "uint256"
        }
      ],
      "name": "Approval",
      "type": "event"
    },
    {
      "anonymous": false,
      "inputs": [
        {
          "indexed": true,
          "internalType": "address",
          "name": "owner",
          "type": "address"
        },
        {
          "indexed": true,
          "internalType": "address",
          "name": "operator",
          "type": "address"
        },
        {
          "indexed": false,
          "internalType": "bool",
          "name": "approved",
          "type": "bool"
        }
      ],
      "name": "ApprovalForAll",
      "type": "event"
    },
    {
      "anonymous": false,
      "inputs": [
        {
          "components": [
            {
              "internalType": "address",
              "name": "minter",
              "type": "address"
            },
            {
              "internalType": "address",
              "name": "to",
              "type": "address"
            },
            {
              "internalType": "uint256",
              "name": "amount",
              "type": "uint256"
            },
            {
              "internalType": "uint256",
              "name": "time",
              "type": "uint256"
            }
          ],
          "indexed": true,
          "internalType": "struct SlimeNFT.MintedEvent",
          "name": "mintedData",
          "type": "tuple"
        }
      ],
      "name": "Minted",
      "type": "event"
    },
    {
      "anonymous": false,
      "inputs": [
        {
          "indexed": true,
          "internalType": "address",
          "name": "adder",
          "type": "address"
        },
        {
          "indexed": true,
          "internalType": "address",
          "name": "owner",
          "type": "address"
        },
        {
          "indexed": true,
          "internalType": "uint256",
          "name": "timestamp",
          "type": "uint256"
        }
      ],
      "name": "OwnerAdded",
      "type": "event"
    },
    {
      "anonymous": false,
      "inputs": [
        {
          "indexed": true,
          "internalType": "address",
          "name": "remover",
          "type": "address"
        },
        {
          "indexed": true,
          "internalType": "address",
          "name": "removed",
          "type": "address"
        },
        {
          "indexed": true,
          "internalType": "uint256",
          "name": "timestamp",
          "type": "uint256"
        }
      ],
      "name": "OwnerRemoved",
      "type": "event"
    },
    {
      "anonymous": false,
      "inputs": [
        {
          "indexed": true,
          "internalType": "address",
          "name": "from",
          "type": "address"
        },
        {
          "indexed": true,
          "internalType": "address",
          "name": "to",
          "type": "address"
        },
        {
          "indexed": true,
          "internalType": "uint256",
          "name": "tokenId",
          "type": "uint256"
        }
      ],
      "name": "Transfer",
      "type": "event"
    },
    {
      "inputs": [
        {
          "internalType": "address",
          "name": "owner",
          "type": "address"
        }
      ],
      "name": "addOwner",
      "outputs": [],
      "stateMutability": "nonpayable",
      "type": "function"
    },
    {
      "inputs": [
        {
          "internalType": "address",
          "name": "to",
          "type": "address"
        },
        {
          "internalType": "uint256",
          "name": "tokenId",
          "type": "uint256"
        }
      ],
      "name": "approve",
      "outputs": [],
      "stateMutability": "nonpayable",
      "type": "function"
    },
    {
      "inputs": [
        {
          "internalType": "address",
          "name": "owner",
          "type": "address"
        }
      ],
      "name": "balanceOf",
      "outputs": [
        {
          "internalType": "uint256",
          "name": "",
          "type": "uint256"
        }
      ],
      "stateMutability": "view",
      "type": "function"
    },
    {
      "inputs": [
        {
          "internalType": "uint256",
          "name": "tokenId",
          "type": "uint256"
        }
      ],
      "name": "getApproved",
      "outputs": [
        {
          "internalType": "address",
          "name": "",
          "type": "address"
        }
      ],
      "stateMutability": "view",
      "type": "function"
    },
    {
      "inputs": [],
      "name": "getOwners",
      "outputs": [
        {
          "internalType": "address[]",
          "name": "",
          "type": "address[]"
        }
      ],
      "stateMutability": "view",
      "type": "function"
    },
    {
      "inputs": [
        {
          "internalType": "address",
          "name": "owner",
          "type": "address"
        },
        {
          "internalType": "address",
          "name": "operator",
          "type": "address"
        }
      ],
      "name": "isApprovedForAll",
      "outputs": [
        {
          "internalType": "bool",
          "name": "",
          "type": "bool"
        }
      ],
      "stateMutability": "view",
      "type": "function"
    },
    {
      "inputs": [
        {
          "internalType": "address",
          "name": "owner",
          "type": "address"
        }
      ],
      "name": "isOwner",
      "outputs": [
        {
          "internalType": "bool",
          "name": "",
          "type": "bool"
        }
      ],
      "stateMutability": "view",
      "type": "function"
    },
    {
      "inputs": [],
      "name": "maxMint",
      "outputs": [
        {
          "internalType": "uint256",
          "name": "",
          "type": "uint256"
        }
      ],
      "stateMutability": "view",
      "type": "function"
    },
    {
      "inputs": [],
      "name": "name",
      "outputs": [
        {
          "internalType": "string",
          "name": "",
          "type": "string"
        }
      ],
      "stateMutability": "view",
      "type": "function"
    },
    {
      "inputs": [
        {
          "internalType": "uint256",
          "name": "tokenId",
          "type": "uint256"
        }
      ],
      "name": "ownerOf",
      "outputs": [
        {
          "internalType": "address",
          "name": "",
          "type": "address"
        }
      ],
      "stateMutability": "view",
      "type": "function"
    },
    {
      "inputs": [],
      "name": "paused",
      "outputs": [
        {
          "internalType": "bool",
          "name": "",
          "type": "bool"
        }
      ],
      "stateMutability": "view",
      "type": "function"
    },
    {
      "inputs": [
        {
          "internalType": "address",
          "name": "owner",
          "type": "address"
        }
      ],
      "name": "removeOwner",
      "outputs": [],
      "stateMutability": "nonpayable",
      "type": "function"
    },
    {
      "inputs": [
        {
          "internalType": "address",
          "name": "from",
          "type": "address"
        },
        {
          "internalType": "address",
          "name": "to",
          "type": "address"
        },
        {
          "internalType": "uint256",
          "name": "tokenId",
          "type": "uint256"
        }
      ],
      "name": "safeTransferFrom",
      "outputs": [],
      "stateMutability": "nonpayable",
      "type": "function"
    },
    {
      "inputs": [
        {
          "internalType": "address",
          "name": "from",
          "type": "address"
        },
        {
          "internalType": "address",
          "name": "to",
          "type": "address"
        },
        {
          "internalType": "uint256",
          "name": "tokenId",
          "type": "uint256"
        },
        {
          "internalType": "bytes",
          "name": "_data",
          "type": "bytes"
        }
      ],
      "name": "safeTransferFrom",
      "outputs": [],
      "stateMutability": "nonpayable",
      "type": "function"
    },
    {
      "inputs": [
        {
          "internalType": "address",
          "name": "operator",
          "type": "address"
        },
        {
          "internalType": "bool",
          "name": "approved",
          "type": "bool"
        }
      ],
      "name": "setApprovalForAll",
      "outputs": [],
      "stateMutability": "nonpayable",
      "type": "function"
    },
    {
      "inputs": [],
      "name": "symbol",
      "outputs": [
        {
          "internalType": "string",
          "name": "",
          "type": "string"
        }
      ],
      "stateMutability": "view",
      "type": "function"
    },
    {
      "inputs": [
        {
          "internalType": "uint256",
          "name": "index",
          "type": "uint256"
        }
      ],
      "name": "tokenByIndex",
      "outputs": [
        {
          "internalType": "uint256",
          "name": "",
          "type": "uint256"
        }
      ],
      "stateMutability": "view",
      "type": "function"
    },
    {
      "inputs": [
        {
          "internalType": "address",
          "name": "owner",
          "type": "address"
        },
        {
          "internalType": "uint256",
          "name": "index",
          "type": "uint256"
        }
      ],
      "name": "tokenOfOwnerByIndex",
      "outputs": [
        {
          "internalType": "uint256",
          "name": "",
          "type": "uint256"
        }
      ],
      "stateMutability": "view",
      "type": "function"
    },
    {
      "inputs": [
        {
          "internalType": "address",
          "name": "from",
          "type": "address"
        },
        {
          "internalType": "address",
          "name": "to",
          "type": "address"
        },
        {
          "internalType": "uint256",
          "name": "tokenId",
          "type": "uint256"
        }
      ],
      "name": "transferFrom",
      "outputs": [],
      "stateMutability": "nonpayable",
      "type": "function"
    },
    {
      "inputs": [],
      "name": "getCurrentPrice",
      "outputs": [
        {
          "internalType": "uint256",
          "name": "",
          "type": "uint256"
        }
      ],
      "stateMutability": "view",
      "type": "function"
    },
    {
      "inputs": [
        {
          "internalType": "address",
          "name": "to",
          "type": "address"
        },
        {
          "internalType": "uint256",
          "name": "amount",
          "type": "uint256"
        },
        {
          "internalType": "string",
          "name": "_tokenURI",
          "type": "string"
        }
      ],
      "name": "mint",
      "outputs": [],
      "stateMutability": "payable",
      "type": "function"
    },
    {
      "inputs": [
        {
          "components": [
            {
              "internalType": "uint256",
              "name": "price",
              "type": "uint256"
            },
            {
              "internalType": "uint256",
              "name": "cap",
              "type": "uint256"
            }
          ],
          "internalType": "struct SlimeNFT.PriceRange",
          "name": "priceRange",
          "type": "tuple"
        }
      ],
      "name": "addPriceRange",
      "outputs": [],
      "stateMutability": "nonpayable",
      "type": "function"
    },
    {
      "inputs": [],
      "name": "totalSupply",
      "outputs": [
        {
          "internalType": "uint256",
          "name": "",
          "type": "uint256"
        }
      ],
      "stateMutability": "view",
      "type": "function"
    },
    {
      "inputs": [
        {
          "internalType": "bool",
          "name": "_paused",
          "type": "bool"
        }
      ],
      "name": "setPaused",
      "outputs": [],
      "stateMutability": "nonpayable",
      "type": "function"
    },
    {
      "inputs": [
        {
          "internalType": "string",
          "name": "baseURI",
          "type": "string"
        }
      ],
      "name": "setBaseURI",
      "outputs": [],
      "stateMutability": "nonpayable",
      "type": "function"
    },
    {
      "inputs": [
        {
          "internalType": "bytes4",
          "name": "interfaceId",
          "type": "bytes4"
        }
      ],
      "name": "supportsInterface",
      "outputs": [
        {
          "internalType": "bool",
          "name": "",
          "type": "bool"
        }
      ],
      "stateMutability": "view",
      "type": "function"
    },
    {
      "inputs": [
        {
          "internalType": "uint256",
          "name": "tokenId",
          "type": "uint256"
        }
      ],
      "name": "tokenURI",
      "outputs": [
        {
          "internalType": "string",
          "name": "",
          "type": "string"
        }
      ],
      "stateMutability": "view",
      "type": "function"
    }
  ],
  "bytecode": "0x60806040523480156200001157600080fd5b5060405162005477380380620054778339818101604052810190620000379190620006b9565b6040518060400160405280600581526020017f536c696d650000000000000000000000000000000000000000000000000000008152506040518060400160405280600381526020017f534c4d00000000000000000000000000000000000000000000000000000000008152508160009080519060200190620000bb929190620002f8565b508060019080519060200190620000d4929190620002f8565b505050600073ffffffffffffffffffffffffffffffffffffffff163373ffffffffffffffffffffffffffffffffffffffff1614156200014a576040517f08c379a00000000000000000000000000000000000000000000000000000000081526004016200014190620007da565b60405180910390fd5b6001600b60003373ffffffffffffffffffffffffffffffffffffffff1673ffffffffffffffffffffffffffffffffffffffff16815260200190815260200160002060006101000a81548160ff021916908315150217905550600c339080600181540180825580915050600190039060005260206000200160009091909190916101000a81548173ffffffffffffffffffffffffffffffffffffffff021916908373ffffffffffffffffffffffffffffffffffffffff16021790555060008351116200024c576040517f08c379a000000000000000000000000000000000000000000000000000000000815260040162000243906200084c565b60405180910390fd5b826011908051906020019062000264929190620002f8565b508160108190555060005b8151811015620002ee5760138282815181106200029157620002906200086e565b5b60200260200101519080600181540180825580915050600190039060005260206000209060020201600090919091909150600082015181600001556020820151816001015550508080620002e590620008cc565b9150506200026f565b505050506200097f565b828054620003069062000949565b90600052602060002090601f0160209004810192826200032a576000855562000376565b82601f106200034557805160ff191683800117855562000376565b8280016001018555821562000376579182015b828111156200037557825182559160200191906001019062000358565b5b50905062000385919062000389565b5090565b5b80821115620003a45760008160009055506001016200038a565b5090565b6000604051905090565b600080fd5b600080fd5b600080fd5b600080fd5b6000601f19601f8301169050919050565b7f4e487b7100000000000000000000000000000000000000000000000000000000600052604160045260246000fd5b6200041182620003c6565b810181811067ffffffffffffffff82111715620004335762000432620003d7565b5b80604052505050565b600062000448620003a8565b905062000456828262000406565b919050565b600067ffffffffffffffff821115620004795762000478620003d7565b5b6200048482620003c6565b9050602081019050919050565b60005b83811015620004b157808201518184015260208101905062000494565b83811115620004c1576000848401525b50505050565b6000620004de620004d8846200045b565b6200043c565b905082815260208101848484011115620004fd57620004fc620003c1565b5b6200050a84828562000491565b509392505050565b600082601f8301126200052a5762000529620003bc565b5b81516200053c848260208601620004c7565b91505092915050565b6000819050919050565b6200055a8162000545565b81146200056657600080fd5b50565b6000815190506200057a816200054f565b92915050565b600067ffffffffffffffff8211156200059e576200059d620003d7565b5b602082029050602081019050919050565b600080fd5b600080fd5b600060408284031215620005d257620005d1620005b4565b5b620005de60406200043c565b90506000620005f08482850162000569565b6000830152506020620006068482850162000569565b60208301525092915050565b600062000629620006238462000580565b6200043c565b905080838252602082019050604084028301858111156200064f576200064e620005af565b5b835b818110156200067c5780620006678882620005b9565b84526020840193505060408101905062000651565b5050509392505050565b600082601f8301126200069e576200069d620003bc565b5b8151620006b084826020860162000612565b91505092915050565b600080600060608486031215620006d557620006d4620003b2565b5b600084015167ffffffffffffffff811115620006f657620006f5620003b7565b5b620007048682870162000512565b9350506020620007178682870162000569565b925050604084015167ffffffffffffffff8111156200073b576200073a620003b7565b5b620007498682870162000686565b9150509250925092565b600082825260208201905092915050565b7f43616e277420696e697469616c697a652077697468207a65726f20616464726560008201527f7373000000000000000000000000000000000000000000000000000000000000602082015250565b6000620007c260228362000753565b9150620007cf8262000764565b604082019050919050565b60006020820190508181036000830152620007f581620007b3565b9050919050565b7f4d75737420736574206261736520555249000000000000000000000000000000600082015250565b60006200083460118362000753565b91506200084182620007fc565b602082019050919050565b60006020820190508181036000830152620008678162000825565b9050919050565b7f4e487b7100000000000000000000000000000000000000000000000000000000600052603260045260246000fd5b7f4e487b7100000000000000000000000000000000000000000000000000000000600052601160045260246000fd5b6000620008d98262000545565b91507fffffffffffffffffffffffffffffffffffffffffffffffffffffffffffffffff8214156200090f576200090e6200089d565b5b600182019050919050565b7f4e487b7100000000000000000000000000000000000000000000000000000000600052602260045260246000fd5b600060028204905060018216806200096257607f821691505b602082108114156200097957620009786200091a565b5b50919050565b614ae8806200098f6000396000f3fe60806040526004361061019c5760003560e01c80635c975abb116100ec578063a22cb4651161008a578063c87b56dd11610064578063c87b56dd146105e8578063d3fc986414610625578063e985e9c514610641578063eb91d37e1461067e5761019c565b8063a22cb4651461056d578063b88d4fde14610596578063c696782a146105bf5761019c565b806370a08231116100c657806370a08231146104af5780637501f741146104ec57806395d89b4114610517578063a0e67e2b146105425761019c565b80635c975abb1461041e5780636352211e146104495780637065cb48146104865761019c565b806318160ddd116101595780632f745c59116101335780632f745c591461035257806342842e0e1461038f5780634f6ccce7146103b857806355f804b3146103f55761019c565b806318160ddd146102c157806323b872dd146102ec5780632f54bf6e146103155761019c565b806301ffc9a7146101a157806306fdde03146101de578063081812fc14610209578063095ea7b31461024657806316c38b3c1461026f578063173825d914610298575b600080fd5b3480156101ad57600080fd5b506101c860048036038101906101c39190613072565b6106a9565b6040516101d591906130ba565b60405180910390f35b3480156101ea57600080fd5b506101f36106bb565b604051610200919061316e565b60405180910390f35b34801561021557600080fd5b50610230600480360381019061022b91906131c6565b61074d565b60405161023d9190613234565b60405180910390f35b34801561025257600080fd5b5061026d6004803603810190610268919061327b565b6107d2565b005b34801561027b57600080fd5b50610296600480360381019061029191906132e7565b6108ea565b005b3480156102a457600080fd5b506102bf60048036038101906102ba9190613314565b61099a565b005b3480156102cd57600080fd5b506102d6610d32565b6040516102e39190613350565b60405180910390f35b3480156102f857600080fd5b50610313600480360381019061030e919061336b565b610d43565b005b34801561032157600080fd5b5061033c60048036038101906103379190613314565b610da3565b60405161034991906130ba565b60405180910390f35b34801561035e57600080fd5b506103796004803603810190610374919061327b565b610df9565b6040516103869190613350565b60405180910390f35b34801561039b57600080fd5b506103b660048036038101906103b1919061336b565b610e9e565b005b3480156103c457600080fd5b506103df60048036038101906103da91906131c6565b610ebe565b6040516103ec9190613350565b60405180910390f35b34801561040157600080fd5b5061041c600480360381019061041791906134f3565b610f2f565b005b34801561042a57600080fd5b50610433610fdc565b60405161044091906130ba565b60405180910390f35b34801561045557600080fd5b50610470600480360381019061046b91906131c6565b610fef565b60405161047d9190613234565b60405180910390f35b34801561049257600080fd5b506104ad60048036038101906104a89190613314565b6110a1565b005b3480156104bb57600080fd5b506104d660048036038101906104d19190613314565b61124d565b6040516104e39190613350565b60405180910390f35b3480156104f857600080fd5b50610501611305565b60405161050e9190613350565b60405180910390f35b34801561052357600080fd5b5061052c61130b565b604051610539919061316e565b60405180910390f35b34801561054e57600080fd5b5061055761139d565b60405161056491906135fa565b60405180910390f35b34801561057957600080fd5b50610594600480360381019061058f919061361c565b61142b565b005b3480156105a257600080fd5b506105bd60048036038101906105b891906136fd565b611441565b005b3480156105cb57600080fd5b506105e660048036038101906105e191906137d5565b6114a3565b005b3480156105f457600080fd5b5061060f600480360381019061060a91906131c6565b6115c2565b60405161061c919061316e565b60405180910390f35b61063f600480360381019061063a9190613802565b6115d4565b005b34801561064d57600080fd5b5061066860048036038101906106639190613871565b6119d5565b60405161067591906130ba565b60405180910390f35b34801561068a57600080fd5b50610693611a69565b6040516106a09190613350565b60405180910390f35b60006106b482611a9f565b9050919050565b6060600080546106ca906138e0565b80601f01602080910402602001604051908101604052809291908181526020018280546106f6906138e0565b80156107435780601f1061071857610100808354040283529160200191610743565b820191906000526020600020905b81548152906001019060200180831161072657829003601f168201915b5050505050905090565b600061075882611b19565b610797576040517f08c379a000000000000000000000000000000000000000000000000000000000815260040161078e90613984565b60405180910390fd5b6004600083815260200190815260200160002060009054906101000a900473ffffffffffffffffffffffffffffffffffffffff169050919050565b60006107dd82610fef565b90508073ffffffffffffffffffffffffffffffffffffffff168373ffffffffffffffffffffffffffffffffffffffff16141561084e576040517f08c379a000000000000000000000000000000000000000000000000000000000815260040161084590613a16565b60405180910390fd5b8073ffffffffffffffffffffffffffffffffffffffff1661086d611b85565b73ffffffffffffffffffffffffffffffffffffffff16148061089c575061089b81610896611b85565b6119d5565b5b6108db576040517f08c379a00000000000000000000000000000000000000000000000000000000081526004016108d290613aa8565b60405180910390fd5b6108e58383611b8d565b505050565b60011515600b60003373ffffffffffffffffffffffffffffffffffffffff1673ffffffffffffffffffffffffffffffffffffffff16815260200190815260200160002060009054906101000a900460ff1615151461097d576040517f08c379a000000000000000000000000000000000000000000000000000000000815260040161097490613b14565b60405180910390fd5b80600f60006101000a81548160ff02191690831515021790555050565b60011515600b60003373ffffffffffffffffffffffffffffffffffffffff1673ffffffffffffffffffffffffffffffffffffffff16815260200190815260200160002060009054906101000a900460ff16151514610a2d576040517f08c379a0000000000000000000000000000000000000000000000000000000008152600401610a2490613b14565b60405180910390fd5b60011515600b60008373ffffffffffffffffffffffffffffffffffffffff1673ffffffffffffffffffffffffffffffffffffffff16815260200190815260200160002060009054906101000a900460ff16151514610ac0576040517f08c379a0000000000000000000000000000000000000000000000000000000008152600401610ab790613b80565b60405180910390fd5b60005b600c80549050811015610d2e578173ffffffffffffffffffffffffffffffffffffffff16600c8281548110610afb57610afa613ba0565b5b9060005260206000200160009054906101000a900473ffffffffffffffffffffffffffffffffffffffff1673ffffffffffffffffffffffffffffffffffffffff161415610d1b576000600b60008473ffffffffffffffffffffffffffffffffffffffff1673ffffffffffffffffffffffffffffffffffffffff16815260200190815260200160002060006101000a81548160ff02191690831515021790555060008190505b6001600c80549050610bb29190613bfe565b811015610c7357600c600183610bc89190613c32565b81548110610bd957610bd8613ba0565b5b9060005260206000200160009054906101000a900473ffffffffffffffffffffffffffffffffffffffff16600c8381548110610c1857610c17613ba0565b5b9060005260206000200160006101000a81548173ffffffffffffffffffffffffffffffffffffffff021916908373ffffffffffffffffffffffffffffffffffffffff1602179055508080610c6b90613c88565b915050610ba0565b50600c805480610c8657610c85613cd1565b5b6001900381819060005260206000200160006101000a81549073ffffffffffffffffffffffffffffffffffffffff02191690559055428273ffffffffffffffffffffffffffffffffffffffff163373ffffffffffffffffffffffffffffffffffffffff167fecc5dd9888b87e7ed252d66b9c086ab819de6c8f8b96c8e5458e105bacfbb02760405160405180910390a4610d2e565b8080610d2690613c88565b915050610ac3565b5050565b6000610d3e600d611c46565b905090565b610d54610d4e611b85565b82611c54565b610d93576040517f08c379a0000000000000000000000000000000000000000000000000000000008152600401610d8a90613d72565b60405180910390fd5b610d9e838383611d32565b505050565b6000600b60008373ffffffffffffffffffffffffffffffffffffffff1673ffffffffffffffffffffffffffffffffffffffff16815260200190815260200160002060009054906101000a900460ff169050919050565b6000610e048361124d565b8210610e45576040517f08c379a0000000000000000000000000000000000000000000000000000000008152600401610e3c90613e04565b60405180910390fd5b600760008473ffffffffffffffffffffffffffffffffffffffff1673ffffffffffffffffffffffffffffffffffffffff168152602001908152602001600020600083815260200190815260200160002054905092915050565b610eb983838360405180602001604052806000815250611441565b505050565b6000610ec8611f8e565b8210610f09576040517f08c379a0000000000000000000000000000000000000000000000000000000008152600401610f0090613e96565b60405180910390fd5b60098281548110610f1d57610f1c613ba0565b5b90600052602060002001549050919050565b60011515600b60003373ffffffffffffffffffffffffffffffffffffffff1673ffffffffffffffffffffffffffffffffffffffff16815260200190815260200160002060009054906101000a900460ff16151514610fc2576040517f08c379a0000000000000000000000000000000000000000000000000000000008152600401610fb990613b14565b60405180910390fd5b8060119080519060200190610fd8929190612f63565b5050565b600f60009054906101000a900460ff1681565b6000806002600084815260200190815260200160002060009054906101000a900473ffffffffffffffffffffffffffffffffffffffff169050600073ffffffffffffffffffffffffffffffffffffffff168173ffffffffffffffffffffffffffffffffffffffff161415611098576040517f08c379a000000000000000000000000000000000000000000000000000000000815260040161108f90613f28565b60405180910390fd5b80915050919050565b60011515600b60003373ffffffffffffffffffffffffffffffffffffffff1673ffffffffffffffffffffffffffffffffffffffff16815260200190815260200160002060009054906101000a900460ff16151514611134576040517f08c379a000000000000000000000000000000000000000000000000000000000815260040161112b90613b14565b60405180910390fd5b6001600b60008373ffffffffffffffffffffffffffffffffffffffff1673ffffffffffffffffffffffffffffffffffffffff16815260200190815260200160002060006101000a81548160ff021916908315150217905550600c819080600181540180825580915050600190039060005260206000200160009091909190916101000a81548173ffffffffffffffffffffffffffffffffffffffff021916908373ffffffffffffffffffffffffffffffffffffffff160217905550428173ffffffffffffffffffffffffffffffffffffffff163373ffffffffffffffffffffffffffffffffffffffff167fa0b18fca933618876351ba2ef88bf4505c184d3e55064bec0d7fe236dd706d8460405160405180910390a450565b60008073ffffffffffffffffffffffffffffffffffffffff168273ffffffffffffffffffffffffffffffffffffffff1614156112be576040517f08c379a00000000000000000000000000000000000000000000000000000000081526004016112b590613fba565b60405180910390fd5b600360008373ffffffffffffffffffffffffffffffffffffffff1673ffffffffffffffffffffffffffffffffffffffff168152602001908152602001600020549050919050565b60105481565b60606001805461131a906138e0565b80601f0160208091040260200160405190810160405280929190818152602001828054611346906138e0565b80156113935780601f1061136857610100808354040283529160200191611393565b820191906000526020600020905b81548152906001019060200180831161137657829003601f168201915b5050505050905090565b6060600c80548060200260200160405190810160405280929190818152602001828054801561142157602002820191906000526020600020905b8160009054906101000a900473ffffffffffffffffffffffffffffffffffffffff1673ffffffffffffffffffffffffffffffffffffffff16815260200190600101908083116113d7575b5050505050905090565b61143d611436611b85565b8383611f9b565b5050565b61145261144c611b85565b83611c54565b611491576040517f08c379a000000000000000000000000000000000000000000000000000000000815260040161148890613d72565b60405180910390fd5b61149d84848484612108565b50505050565b60011515600b60003373ffffffffffffffffffffffffffffffffffffffff1673ffffffffffffffffffffffffffffffffffffffff16815260200190815260200160002060009054906101000a900460ff16151514611536576040517f08c379a000000000000000000000000000000000000000000000000000000000815260040161152d90613b14565b60405180910390fd5b600081602001511161157d576040517f08c379a000000000000000000000000000000000000000000000000000000000815260040161157490614026565b60405180910390fd5b60138190806001815401808255809150506001900390600052602060002090600202016000909190919091506000820151816000015560208201518160010155505050565b60606115cd82612164565b9050919050565b600f60009054906101000a900460ff1615611624576040517f08c379a000000000000000000000000000000000000000000000000000000000815260040161161b90614092565b60405180910390fd5b60105482601260008673ffffffffffffffffffffffffffffffffffffffff1673ffffffffffffffffffffffffffffffffffffffff168152602001908152602001600020546116729190613c32565b106116b2576040517f08c379a00000000000000000000000000000000000000000000000000000000081526004016116a9906140fe565b60405180910390fd5b60006116be600e611c46565b90506000601382815481106116d6576116d5613ba0565b5b90600052602060002090600202019050806001015484601260008873ffffffffffffffffffffffffffffffffffffffff1673ffffffffffffffffffffffffffffffffffffffff168152602001908152602001600020546117369190613c32565b1115611777576040517f08c379a000000000000000000000000000000000000000000000000000000000815260040161176e90614190565b60405180910390fd5b6000611783600d611c46565b9050816001015481106117f5576013805490506117aa6001856122b690919063ffffffff16565b106117ea576040517f08c379a00000000000000000000000000000000000000000000000000000000081526004016117e1906141fc565b60405180910390fd5b6117f4600e6122cc565b5b611814670de0b6b3a764000083600001546122e290919063ffffffff16565b8561181f919061421c565b3414611860576040517f08c379a0000000000000000000000000000000000000000000000000000000008152600401611857906142c2565b60405180910390fd5b60005b8581101561193e5761187587836122f8565b61187f8286612316565b611889600d6122cc565b611893600d611c46565b91506118e86001601260008a73ffffffffffffffffffffffffffffffffffffffff1673ffffffffffffffffffffffffffffffffffffffff168152602001908152602001600020546122b690919063ffffffff16565b601260008973ffffffffffffffffffffffffffffffffffffffff1673ffffffffffffffffffffffffffffffffffffffff16815260200190815260200160002081905550808061193690613c88565b915050611863565b5060405180608001604052803373ffffffffffffffffffffffffffffffffffffffff1681526020018773ffffffffffffffffffffffffffffffffffffffff168152602001868152602001428152506040516119999190614381565b60405180910390207f28ec044de351723a5df566de9b7bf6bbcc850b0061e5d20b31f166d198c3106c60405160405180910390a2505050505050565b6000600560008473ffffffffffffffffffffffffffffffffffffffff1673ffffffffffffffffffffffffffffffffffffffff16815260200190815260200160002060008373ffffffffffffffffffffffffffffffffffffffff1673ffffffffffffffffffffffffffffffffffffffff16815260200190815260200160002060009054906101000a900460ff16905092915050565b60006013611a77600e611c46565b81548110611a8857611a87613ba0565b5b906000526020600020906002020160000154905090565b60007f780e9d63000000000000000000000000000000000000000000000000000000007bffffffffffffffffffffffffffffffffffffffffffffffffffffffff1916827bffffffffffffffffffffffffffffffffffffffffffffffffffffffff19161480611b125750611b118261238a565b5b9050919050565b60008073ffffffffffffffffffffffffffffffffffffffff166002600084815260200190815260200160002060009054906101000a900473ffffffffffffffffffffffffffffffffffffffff1673ffffffffffffffffffffffffffffffffffffffff1614159050919050565b600033905090565b816004600083815260200190815260200160002060006101000a81548173ffffffffffffffffffffffffffffffffffffffff021916908373ffffffffffffffffffffffffffffffffffffffff160217905550808273ffffffffffffffffffffffffffffffffffffffff16611c0083610fef565b73ffffffffffffffffffffffffffffffffffffffff167f8c5be1e5ebec7d5bd14f71427d1e84f3dd0314c0f7b2291e5b200ac8c7c3b92560405160405180910390a45050565b600081600001549050919050565b6000611c5f82611b19565b611c9e576040517f08c379a0000000000000000000000000000000000000000000000000000000008152600401611c959061440e565b60405180910390fd5b6000611ca983610fef565b90508073ffffffffffffffffffffffffffffffffffffffff168473ffffffffffffffffffffffffffffffffffffffff161480611d1857508373ffffffffffffffffffffffffffffffffffffffff16611d008461074d565b73ffffffffffffffffffffffffffffffffffffffff16145b80611d295750611d2881856119d5565b5b91505092915050565b8273ffffffffffffffffffffffffffffffffffffffff16611d5282610fef565b73ffffffffffffffffffffffffffffffffffffffff1614611da8576040517f08c379a0000000000000000000000000000000000000000000000000000000008152600401611d9f906144a0565b60405180910390fd5b600073ffffffffffffffffffffffffffffffffffffffff168273ffffffffffffffffffffffffffffffffffffffff161415611e18576040517f08c379a0000000000000000000000000000000000000000000000000000000008152600401611e0f90614532565b60405180910390fd5b611e2383838361246c565b611e2e600082611b8d565b6001600360008573ffffffffffffffffffffffffffffffffffffffff1673ffffffffffffffffffffffffffffffffffffffff1681526020019081526020016000206000828254611e7e9190613bfe565b925050819055506001600360008473ffffffffffffffffffffffffffffffffffffffff1673ffffffffffffffffffffffffffffffffffffffff1681526020019081526020016000206000828254611ed59190613c32565b92505081905550816002600083815260200190815260200160002060006101000a81548173ffffffffffffffffffffffffffffffffffffffff021916908373ffffffffffffffffffffffffffffffffffffffff160217905550808273ffffffffffffffffffffffffffffffffffffffff168473ffffffffffffffffffffffffffffffffffffffff167fddf252ad1be2c89b69c2b068fc378daa952ba7f163c4a11628f55a4df523b3ef60405160405180910390a4505050565b6000600980549050905090565b8173ffffffffffffffffffffffffffffffffffffffff168373ffffffffffffffffffffffffffffffffffffffff16141561200a576040517f08c379a00000000000000000000000000000000000000000000000000000000081526004016120019061459e565b60405180910390fd5b80600560008573ffffffffffffffffffffffffffffffffffffffff1673ffffffffffffffffffffffffffffffffffffffff16815260200190815260200160002060008473ffffffffffffffffffffffffffffffffffffffff1673ffffffffffffffffffffffffffffffffffffffff16815260200190815260200160002060006101000a81548160ff0219169083151502179055508173ffffffffffffffffffffffffffffffffffffffff168373ffffffffffffffffffffffffffffffffffffffff167f17307eab39ab6107e8899845ad3d59bd9653f200f220920489ca2b5937696c31836040516120fb91906130ba565b60405180910390a3505050565b612113848484611d32565b61211f8484848461247c565b61215e576040517f08c379a000000000000000000000000000000000000000000000000000000000815260040161215590614630565b60405180910390fd5b50505050565b606061216f82611b19565b6121ae576040517f08c379a00000000000000000000000000000000000000000000000000000000081526004016121a5906146c2565b60405180910390fd5b60006006600084815260200190815260200160002080546121ce906138e0565b80601f01602080910402602001604051908101604052809291908181526020018280546121fa906138e0565b80156122475780601f1061221c57610100808354040283529160200191612247565b820191906000526020600020905b81548152906001019060200180831161222a57829003601f168201915b505050505090506000612258612604565b905060008151141561226e5781925050506122b1565b6000825111156122a357808260405160200161228b92919061471e565b604051602081830303815290604052925050506122b1565b6122ac84612696565b925050505b919050565b600081836122c49190613c32565b905092915050565b6001816000016000828254019250508190555050565b600081836122f0919061421c565b905092915050565b61231282826040518060200160405280600081525061273d565b5050565b61231f82611b19565b61235e576040517f08c379a0000000000000000000000000000000000000000000000000000000008152600401612355906147b4565b60405180910390fd5b80600660008481526020019081526020016000209080519060200190612385929190612f63565b505050565b60007f80ac58cd000000000000000000000000000000000000000000000000000000007bffffffffffffffffffffffffffffffffffffffffffffffffffffffff1916827bffffffffffffffffffffffffffffffffffffffffffffffffffffffff1916148061245557507f5b5e139f000000000000000000000000000000000000000000000000000000007bffffffffffffffffffffffffffffffffffffffffffffffffffffffff1916827bffffffffffffffffffffffffffffffffffffffffffffffffffffffff1916145b80612465575061246482612798565b5b9050919050565b612477838383612802565b505050565b600061249d8473ffffffffffffffffffffffffffffffffffffffff16612916565b156125f7578373ffffffffffffffffffffffffffffffffffffffff1663150b7a026124c6611b85565b8786866040518563ffffffff1660e01b81526004016124e89493929190614829565b6020604051808303816000875af192505050801561252457506040513d601f19601f82011682018060405250810190612521919061488a565b60015b6125a7573d8060008114612554576040519150601f19603f3d011682016040523d82523d6000602084013e612559565b606091505b5060008151141561259f576040517f08c379a000000000000000000000000000000000000000000000000000000000815260040161259690614630565b60405180910390fd5b805181602001fd5b63150b7a0260e01b7bffffffffffffffffffffffffffffffffffffffffffffffffffffffff1916817bffffffffffffffffffffffffffffffffffffffffffffffffffffffff1916149150506125fc565b600190505b949350505050565b606060118054612613906138e0565b80601f016020809104026020016040519081016040528092919081815260200182805461263f906138e0565b801561268c5780601f106126615761010080835404028352916020019161268c565b820191906000526020600020905b81548152906001019060200180831161266f57829003601f168201915b5050505050905090565b60606126a182611b19565b6126e0576040517f08c379a00000000000000000000000000000000000000000000000000000000081526004016126d790614929565b60405180910390fd5b60006126ea612604565b9050600081511161270a5760405180602001604052806000815250612735565b8061271484612929565b60405160200161272592919061471e565b6040516020818303038152906040525b915050919050565b6127478383612a8a565b612754600084848461247c565b612793576040517f08c379a000000000000000000000000000000000000000000000000000000000815260040161278a90614630565b60405180910390fd5b505050565b60007f01ffc9a7000000000000000000000000000000000000000000000000000000007bffffffffffffffffffffffffffffffffffffffffffffffffffffffff1916827bffffffffffffffffffffffffffffffffffffffffffffffffffffffff1916149050919050565b61280d838383612c58565b600073ffffffffffffffffffffffffffffffffffffffff168373ffffffffffffffffffffffffffffffffffffffff1614156128505761284b81612c5d565b61288f565b8173ffffffffffffffffffffffffffffffffffffffff168373ffffffffffffffffffffffffffffffffffffffff161461288e5761288d8382612ca6565b5b5b600073ffffffffffffffffffffffffffffffffffffffff168273ffffffffffffffffffffffffffffffffffffffff1614156128d2576128cd81612e13565b612911565b8273ffffffffffffffffffffffffffffffffffffffff168273ffffffffffffffffffffffffffffffffffffffff16146129105761290f8282612ee4565b5b5b505050565b600080823b905060008111915050919050565b60606000821415612971576040518060400160405280600181526020017f30000000000000000000000000000000000000000000000000000000000000008152509050612a85565b600082905060005b600082146129a357808061298c90613c88565b915050600a8261299c9190614978565b9150612979565b60008167ffffffffffffffff8111156129bf576129be6133c8565b5b6040519080825280601f01601f1916602001820160405280156129f15781602001600182028036833780820191505090505b5090505b60008514612a7e57600182612a0a9190613bfe565b9150600a85612a1991906149a9565b6030612a259190613c32565b60f81b818381518110612a3b57612a3a613ba0565b5b60200101907effffffffffffffffffffffffffffffffffffffffffffffffffffffffffffff1916908160001a905350600a85612a779190614978565b94506129f5565b8093505050505b919050565b600073ffffffffffffffffffffffffffffffffffffffff168273ffffffffffffffffffffffffffffffffffffffff161415612afa576040517f08c379a0000000000000000000000000000000000000000000000000000000008152600401612af190614a26565b60405180910390fd5b612b0381611b19565b15612b43576040517f08c379a0000000000000000000000000000000000000000000000000000000008152600401612b3a90614a92565b60405180910390fd5b612b4f6000838361246c565b6001600360008473ffffffffffffffffffffffffffffffffffffffff1673ffffffffffffffffffffffffffffffffffffffff1681526020019081526020016000206000828254612b9f9190613c32565b92505081905550816002600083815260200190815260200160002060006101000a81548173ffffffffffffffffffffffffffffffffffffffff021916908373ffffffffffffffffffffffffffffffffffffffff160217905550808273ffffffffffffffffffffffffffffffffffffffff16600073ffffffffffffffffffffffffffffffffffffffff167fddf252ad1be2c89b69c2b068fc378daa952ba7f163c4a11628f55a4df523b3ef60405160405180910390a45050565b505050565b600980549050600a600083815260200190815260200160002081905550600981908060018154018082558091505060019003906000526020600020016000909190919091505550565b60006001612cb38461124d565b612cbd9190613bfe565b9050600060086000848152602001908152602001600020549050818114612da2576000600760008673ffffffffffffffffffffffffffffffffffffffff1673ffffffffffffffffffffffffffffffffffffffff168152602001908152602001600020600084815260200190815260200160002054905080600760008773ffffffffffffffffffffffffffffffffffffffff1673ffffffffffffffffffffffffffffffffffffffff168152602001908152602001600020600084815260200190815260200160002081905550816008600083815260200190815260200160002081905550505b6008600084815260200190815260200160002060009055600760008573ffffffffffffffffffffffffffffffffffffffff1673ffffffffffffffffffffffffffffffffffffffff16815260200190815260200160002060008381526020019081526020016000206000905550505050565b60006001600980549050612e279190613bfe565b90506000600a6000848152602001908152602001600020549050600060098381548110612e5757612e56613ba0565b5b906000526020600020015490508060098381548110612e7957612e78613ba0565b5b906000526020600020018190555081600a600083815260200190815260200160002081905550600a6000858152602001908152602001600020600090556009805480612ec857612ec7613cd1565b5b6001900381819060005260206000200160009055905550505050565b6000612eef8361124d565b905081600760008573ffffffffffffffffffffffffffffffffffffffff1673ffffffffffffffffffffffffffffffffffffffff168152602001908152602001600020600083815260200190815260200160002081905550806008600084815260200190815260200160002081905550505050565b828054612f6f906138e0565b90600052602060002090601f016020900481019282612f915760008555612fd8565b82601f10612faa57805160ff1916838001178555612fd8565b82800160010185558215612fd8579182015b82811115612fd7578251825591602001919060010190612fbc565b5b509050612fe59190612fe9565b5090565b5b80821115613002576000816000905550600101612fea565b5090565b6000604051905090565b600080fd5b600080fd5b60007fffffffff0000000000000000000000000000000000000000000000000000000082169050919050565b61304f8161301a565b811461305a57600080fd5b50565b60008135905061306c81613046565b92915050565b60006020828403121561308857613087613010565b5b60006130968482850161305d565b91505092915050565b60008115159050919050565b6130b48161309f565b82525050565b60006020820190506130cf60008301846130ab565b92915050565b600081519050919050565b600082825260208201905092915050565b60005b8381101561310f5780820151818401526020810190506130f4565b8381111561311e576000848401525b50505050565b6000601f19601f8301169050919050565b6000613140826130d5565b61314a81856130e0565b935061315a8185602086016130f1565b61316381613124565b840191505092915050565b600060208201905081810360008301526131888184613135565b905092915050565b6000819050919050565b6131a381613190565b81146131ae57600080fd5b50565b6000813590506131c08161319a565b92915050565b6000602082840312156131dc576131db613010565b5b60006131ea848285016131b1565b91505092915050565b600073ffffffffffffffffffffffffffffffffffffffff82169050919050565b600061321e826131f3565b9050919050565b61322e81613213565b82525050565b60006020820190506132496000830184613225565b92915050565b61325881613213565b811461326357600080fd5b50565b6000813590506132758161324f565b92915050565b6000806040838503121561329257613291613010565b5b60006132a085828601613266565b92505060206132b1858286016131b1565b9150509250929050565b6132c48161309f565b81146132cf57600080fd5b50565b6000813590506132e1816132bb565b92915050565b6000602082840312156132fd576132fc613010565b5b600061330b848285016132d2565b91505092915050565b60006020828403121561332a57613329613010565b5b600061333884828501613266565b91505092915050565b61334a81613190565b82525050565b60006020820190506133656000830184613341565b92915050565b60008060006060848603121561338457613383613010565b5b600061339286828701613266565b93505060206133a386828701613266565b92505060406133b4868287016131b1565b9150509250925092565b600080fd5b600080fd5b7f4e487b7100000000000000000000000000000000000000000000000000000000600052604160045260246000fd5b61340082613124565b810181811067ffffffffffffffff8211171561341f5761341e6133c8565b5b80604052505050565b6000613432613006565b905061343e82826133f7565b919050565b600067ffffffffffffffff82111561345e5761345d6133c8565b5b61346782613124565b9050602081019050919050565b82818337600083830152505050565b600061349661349184613443565b613428565b9050828152602081018484840111156134b2576134b16133c3565b5b6134bd848285613474565b509392505050565b600082601f8301126134da576134d96133be565b5b81356134ea848260208601613483565b91505092915050565b60006020828403121561350957613508613010565b5b600082013567ffffffffffffffff81111561352757613526613015565b5b613533848285016134c5565b91505092915050565b600081519050919050565b600082825260208201905092915050565b6000819050602082019050919050565b61357181613213565b82525050565b60006135838383613568565b60208301905092915050565b6000602082019050919050565b60006135a78261353c565b6135b18185613547565b93506135bc83613558565b8060005b838110156135ed5781516135d48882613577565b97506135df8361358f565b9250506001810190506135c0565b5085935050505092915050565b60006020820190508181036000830152613614818461359c565b905092915050565b6000806040838503121561363357613632613010565b5b600061364185828601613266565b9250506020613652858286016132d2565b9150509250929050565b600067ffffffffffffffff821115613677576136766133c8565b5b61368082613124565b9050602081019050919050565b60006136a061369b8461365c565b613428565b9050828152602081018484840111156136bc576136bb6133c3565b5b6136c7848285613474565b509392505050565b600082601f8301126136e4576136e36133be565b5b81356136f484826020860161368d565b91505092915050565b6000806000806080858703121561371757613716613010565b5b600061372587828801613266565b945050602061373687828801613266565b9350506040613747878288016131b1565b925050606085013567ffffffffffffffff81111561376857613767613015565b5b613774878288016136cf565b91505092959194509250565b600080fd5b60006040828403121561379b5761379a613780565b5b6137a56040613428565b905060006137b5848285016131b1565b60008301525060206137c9848285016131b1565b60208301525092915050565b6000604082840312156137eb576137ea613010565b5b60006137f984828501613785565b91505092915050565b60008060006060848603121561381b5761381a613010565b5b600061382986828701613266565b935050602061383a868287016131b1565b925050604084013567ffffffffffffffff81111561385b5761385a613015565b5b613867868287016134c5565b9150509250925092565b6000806040838503121561388857613887613010565b5b600061389685828601613266565b92505060206138a785828601613266565b9150509250929050565b7f4e487b7100000000000000000000000000000000000000000000000000000000600052602260045260246000fd5b600060028204905060018216806138f857607f821691505b6020821081141561390c5761390b6138b1565b5b50919050565b7f4552433732313a20617070726f76656420717565727920666f72206e6f6e657860008201527f697374656e7420746f6b656e0000000000000000000000000000000000000000602082015250565b600061396e602c836130e0565b915061397982613912565b604082019050919050565b6000602082019050818103600083015261399d81613961565b9050919050565b7f4552433732313a20617070726f76616c20746f2063757272656e74206f776e6560008201527f7200000000000000000000000000000000000000000000000000000000000000602082015250565b6000613a006021836130e0565b9150613a0b826139a4565b604082019050919050565b60006020820190508181036000830152613a2f816139f3565b9050919050565b7f4552433732313a20617070726f76652063616c6c6572206973206e6f74206f7760008201527f6e6572206e6f7220617070726f76656420666f7220616c6c0000000000000000602082015250565b6000613a926038836130e0565b9150613a9d82613a36565b604082019050919050565b60006020820190508181036000830152613ac181613a85565b9050919050565b7f43616c6c6572206973206e6f7420616e206f776e657200000000000000000000600082015250565b6000613afe6016836130e0565b9150613b0982613ac8565b602082019050919050565b60006020820190508181036000830152613b2d81613af1565b9050919050565b7f41646472657373206973206e6f7420616e206f776e6572000000000000000000600082015250565b6000613b6a6017836130e0565b9150613b7582613b34565b602082019050919050565b60006020820190508181036000830152613b9981613b5d565b9050919050565b7f4e487b7100000000000000000000000000000000000000000000000000000000600052603260045260246000fd5b7f4e487b7100000000000000000000000000000000000000000000000000000000600052601160045260246000fd5b6000613c0982613190565b9150613c1483613190565b925082821015613c2757613c26613bcf565b5b828203905092915050565b6000613c3d82613190565b9150613c4883613190565b9250827fffffffffffffffffffffffffffffffffffffffffffffffffffffffffffffffff03821115613c7d57613c7c613bcf565b5b828201905092915050565b6000613c9382613190565b91507fffffffffffffffffffffffffffffffffffffffffffffffffffffffffffffffff821415613cc657613cc5613bcf565b5b600182019050919050565b7f4e487b7100000000000000000000000000000000000000000000000000000000600052603160045260246000fd5b7f4552433732313a207472616e736665722063616c6c6572206973206e6f74206f60008201527f776e6572206e6f7220617070726f766564000000000000000000000000000000602082015250565b6000613d5c6031836130e0565b9150613d6782613d00565b604082019050919050565b60006020820190508181036000830152613d8b81613d4f565b9050919050565b7f455243373231456e756d657261626c653a206f776e657220696e646578206f7560008201527f74206f6620626f756e6473000000000000000000000000000000000000000000602082015250565b6000613dee602b836130e0565b9150613df982613d92565b604082019050919050565b60006020820190508181036000830152613e1d81613de1565b9050919050565b7f455243373231456e756d657261626c653a20676c6f62616c20696e646578206f60008201527f7574206f6620626f756e64730000000000000000000000000000000000000000602082015250565b6000613e80602c836130e0565b9150613e8b82613e24565b604082019050919050565b60006020820190508181036000830152613eaf81613e73565b9050919050565b7f4552433732313a206f776e657220717565727920666f72206e6f6e657869737460008201527f656e7420746f6b656e0000000000000000000000000000000000000000000000602082015250565b6000613f126029836130e0565b9150613f1d82613eb6565b604082019050919050565b60006020820190508181036000830152613f4181613f05565b9050919050565b7f4552433732313a2062616c616e636520717565727920666f7220746865207a6560008201527f726f206164647265737300000000000000000000000000000000000000000000602082015250565b6000613fa4602a836130e0565b9150613faf82613f48565b604082019050919050565b60006020820190508181036000830152613fd381613f97565b9050919050565b7f436170206f662030206d616b6573206e6f2073656e7365000000000000000000600082015250565b60006140106017836130e0565b915061401b82613fda565b602082019050919050565b6000602082019050818103600083015261403f81614003565b9050919050565b7f4d696e74696e6720706175736564000000000000000000000000000000000000600082015250565b600061407c600e836130e0565b915061408782614046565b602082019050919050565b600060208201905081810360008301526140ab8161406f565b9050919050565b7f416d6f756e742065786365656473206d6178206d696e74000000000000000000600082015250565b60006140e86017836130e0565b91506140f3826140b2565b602082019050919050565b60006020820190508181036000830152614117816140db565b9050919050565b7f416d6f756e7420657863656564732063757272656e742070726963652072616e60008201527f6765206361700000000000000000000000000000000000000000000000000000602082015250565b600061417a6026836130e0565b91506141858261411e565b604082019050919050565b600060208201905081810360008301526141a98161416d565b9050919050565b7f537570706c792063617020726561636865640000000000000000000000000000600082015250565b60006141e66012836130e0565b91506141f1826141b0565b602082019050919050565b60006020820190508181036000830152614215816141d9565b9050919050565b600061422782613190565b915061423283613190565b9250817fffffffffffffffffffffffffffffffffffffffffffffffffffffffffffffffff048311821515161561426b5761426a613bcf565b5b828202905092915050565b7f57726f6e6720616d6f756e74206f6620657468657220676976656e0000000000600082015250565b60006142ac601b836130e0565b91506142b782614276565b602082019050919050565b600060208201905081810360008301526142db8161429f565b9050919050565b6142eb81613213565b82525050565b60006142fd83836142e2565b60208301905092915050565b61431281613190565b82525050565b60006143248383614309565b60208301905092915050565b60008201600082015161434384826142f1565b935050602082015161435584826142f1565b93505060408201516143678482614318565b93505060608201516143798482614318565b935050505050565b600061438d8284614330565b60808201915081905092915050565b7f4552433732313a206f70657261746f7220717565727920666f72206e6f6e657860008201527f697374656e7420746f6b656e0000000000000000000000000000000000000000602082015250565b60006143f8602c836130e0565b91506144038261439c565b604082019050919050565b60006020820190508181036000830152614427816143eb565b9050919050565b7f4552433732313a207472616e73666572206f6620746f6b656e2074686174206960008201527f73206e6f74206f776e0000000000000000000000000000000000000000000000602082015250565b600061448a6029836130e0565b91506144958261442e565b604082019050919050565b600060208201905081810360008301526144b98161447d565b9050919050565b7f4552433732313a207472616e7366657220746f20746865207a65726f2061646460008201527f7265737300000000000000000000000000000000000000000000000000000000602082015250565b600061451c6024836130e0565b9150614527826144c0565b604082019050919050565b6000602082019050818103600083015261454b8161450f565b9050919050565b7f4552433732313a20617070726f766520746f2063616c6c657200000000000000600082015250565b60006145886019836130e0565b915061459382614552565b602082019050919050565b600060208201905081810360008301526145b78161457b565b9050919050565b7f4552433732313a207472616e7366657220746f206e6f6e20455243373231526560008201527f63656976657220696d706c656d656e7465720000000000000000000000000000602082015250565b600061461a6032836130e0565b9150614625826145be565b604082019050919050565b600060208201905081810360008301526146498161460d565b9050919050565b7f45524337323155524953746f726167653a2055524920717565727920666f722060008201527f6e6f6e6578697374656e7420746f6b656e000000000000000000000000000000602082015250565b60006146ac6031836130e0565b91506146b782614650565b604082019050919050565b600060208201905081810360008301526146db8161469f565b9050919050565b600081905092915050565b60006146f8826130d5565b61470281856146e2565b93506147128185602086016130f1565b80840191505092915050565b600061472a82856146ed565b915061473682846146ed565b91508190509392505050565b7f45524337323155524953746f726167653a2055524920736574206f66206e6f6e60008201527f6578697374656e7420746f6b656e000000000000000000000000000000000000602082015250565b600061479e602e836130e0565b91506147a982614742565b604082019050919050565b600060208201905081810360008301526147cd81614791565b9050919050565b600081519050919050565b600082825260208201905092915050565b60006147fb826147d4565b61480581856147df565b93506148158185602086016130f1565b61481e81613124565b840191505092915050565b600060808201905061483e6000830187613225565b61484b6020830186613225565b6148586040830185613341565b818103606083015261486a81846147f0565b905095945050505050565b60008151905061488481613046565b92915050565b6000602082840312156148a05761489f613010565b5b60006148ae84828501614875565b91505092915050565b7f4552433732314d657461646174613a2055524920717565727920666f72206e6f60008201527f6e6578697374656e7420746f6b656e0000000000000000000000000000000000602082015250565b6000614913602f836130e0565b915061491e826148b7565b604082019050919050565b6000602082019050818103600083015261494281614906565b9050919050565b7f4e487b7100000000000000000000000000000000000000000000000000000000600052601260045260246000fd5b600061498382613190565b915061498e83613190565b92508261499e5761499d614949565b5b828204905092915050565b60006149b482613190565b91506149bf83613190565b9250826149cf576149ce614949565b5b828206905092915050565b7f4552433732313a206d696e7420746f20746865207a65726f2061646472657373600082015250565b6000614a106020836130e0565b9150614a1b826149da565b602082019050919050565b60006020820190508181036000830152614a3f81614a03565b9050919050565b7f4552433732313a20746f6b656e20616c7265616479206d696e74656400000000600082015250565b6000614a7c601c836130e0565b9150614a8782614a46565b602082019050919050565b60006020820190508181036000830152614aab81614a6f565b905091905056fea264697066735822122039df2333b7751bc11c15ecbcd9e6f16a871a092699efd013e9137a95a26d18fe64736f6c634300080b0033",
  "immutableReferences": {},
  "source": "// SPDX-License-Identifier: MIT\r\n\r\npragma solidity ^0.8.11;\r\n\r\nimport \"./Owners.sol\";\r\nimport \"@openzeppelin/contracts/token/ERC721/extensions/ERC721URIStorage.sol\";\r\nimport \"@openzeppelin/contracts/utils/Counters.sol\";\r\nimport \"@openzeppelin/contracts/utils/math/SafeMath.sol\";\r\nimport \"@openzeppelin/contracts/token/ERC721/extensions/ERC721Enumerable.sol\";\r\n\r\ncontract SlimeNFT is ERC721URIStorage, ERC721Enumerable, Owners {\r\n    using Counters for Counters.Counter;\r\n    using SafeMath for uint;\r\n\r\n    struct MintedEvent {\r\n        address minter;\r\n        address to;\r\n        uint amount;\r\n        uint time;\r\n    }\r\n    event Minted(MintedEvent indexed mintedData);\r\n\r\n    Counters.Counter private _tokenIdCounter;\r\n    Counters.Counter private _priceRangeCounter;\r\n\r\n    bool public paused;\r\n    uint public maxMint;\r\n\r\n    string private __baseURI;\r\n    mapping(address => uint) amountMinted;\r\n\r\n    struct PriceRange {\r\n        uint price;\r\n        uint cap;\r\n    }\r\n    PriceRange[] private _priceRanges;\r\n\r\n    function getCurrentPrice() external view returns(uint) {\r\n        return _priceRanges[_priceRangeCounter.current()].price;\r\n    }\r\n\r\n    constructor(string memory baseURI, uint _maxMint, PriceRange[] memory priceRanges) ERC721(\"Slime\", \"SLM\") {\r\n        require(bytes(baseURI).length > 0, \"Must set base URI\");\r\n        __baseURI = baseURI;\r\n        maxMint = _maxMint;\r\n        for(uint i = 0; i < priceRanges.length; i++) {\r\n            _priceRanges.push(priceRanges[i]);\r\n        }\r\n    }\r\n\r\n    modifier checkPaused() {\r\n        require(!paused, \"Minting paused\");\r\n        _;\r\n    }\r\n\r\n    function mint(address to, uint amount, string memory _tokenURI) external payable checkPaused {\r\n        require((amountMinted[to] + amount) < maxMint, \"Amount exceeds max mint\");\r\n        uint currPriceInd = _priceRangeCounter.current();\r\n        PriceRange storage currPrice = _priceRanges[currPriceInd];\r\n\t\trequire((amountMinted[to] + amount) <= currPrice.cap, \"Amount exceeds current price range cap\");\r\n        uint currTokenID = _tokenIdCounter.current();\r\n\t\tif (currTokenID >= currPrice.cap) {\r\n\t\t\trequire(currPriceInd.add(1) < _priceRanges.length, \"Supply cap reached\");\r\n            _priceRangeCounter.increment();\r\n        }\r\n        require(msg.value == (amount * currPrice.price.mul(10 ** 18)), \"Wrong amount of ether given\");\r\n        for(uint i = 0; i < amount; i++) {\r\n            _safeMint(to, currTokenID);\r\n            _setTokenURI(currTokenID, _tokenURI);\r\n            _tokenIdCounter.increment();\r\n\t\t\tcurrTokenID = _tokenIdCounter.current();\r\n            amountMinted[to] = amountMinted[to].add(1);\r\n        }\r\n        emit Minted(MintedEvent({\r\n            minter: msg.sender,\r\n            to: to,\r\n            amount: amount,\r\n            time: block.timestamp\r\n        }));\r\n    }\r\n\r\n    function addPriceRange(PriceRange memory priceRange) external onlyOwners {\r\n        require(priceRange.cap > 0, \"Cap of 0 makes no sense\");\r\n        _priceRanges.push(priceRange);\r\n    }\r\n\r\n    // Return the current supply, not the capped max capped supply.\r\n    function totalSupply() public view override returns(uint256) {\r\n        return _tokenIdCounter.current();\r\n    }\r\n\r\n    function setPaused(bool _paused) external onlyOwners {\r\n        paused = _paused;\r\n    }\r\n\r\n    function _baseURI() internal view virtual override returns (string memory) {\r\n        return __baseURI;\r\n    }\r\n\r\n    function setBaseURI(string memory baseURI) external onlyOwners {\r\n        __baseURI = baseURI;\r\n    }\r\n\r\n    // Below are hooks that must be overridden because two or more parents contain them.\r\n    function _beforeTokenTransfer(\r\n        address from,\r\n        address to,\r\n        uint256 tokenId\r\n    ) internal override (ERC721, ERC721Enumerable) {\r\n        super._beforeTokenTransfer(from, to, tokenId);\r\n    }\r\n\r\n    function _burn(uint256 tokenId) internal override (ERC721, ERC721URIStorage) {\r\n        super._burn(tokenId);\r\n    }\r\n\r\n    function supportsInterface(bytes4 interfaceId) public view virtual override(ERC721, ERC721Enumerable) returns (bool) {\r\n        return super.supportsInterface(interfaceId);\r\n    }\r\n\r\n    function tokenURI(uint256 tokenId) public view virtual override(ERC721, ERC721URIStorage) returns (string memory) {\r\n        return super.tokenURI(tokenId);\r\n    }\r\n}",
  "sourcePath": "C:\\Users\\sants\\Desktop\\slimekeeper\\slimekeeper_contracts\\contracts\\SlimeNFT.sol",
  "compiler": {
    "name": "solc",
    "version": "0.8.11+commit.d7f03943.Emscripten.clang"
  },
  "schemaVersion": "3.4.4",
  "updatedAt": "2022-02-01T21:40:08.271Z",
  "devdoc": {
    "kind": "dev",
    "methods": {
      "approve(address,uint256)": {
        "details": "See {IERC721-approve}."
      },
      "balanceOf(address)": {
        "details": "See {IERC721-balanceOf}."
      },
      "getApproved(uint256)": {
        "details": "See {IERC721-getApproved}."
      },
      "isApprovedForAll(address,address)": {
        "details": "See {IERC721-isApprovedForAll}."
      },
      "name()": {
        "details": "See {IERC721Metadata-name}."
      },
      "ownerOf(uint256)": {
        "details": "See {IERC721-ownerOf}."
      },
      "safeTransferFrom(address,address,uint256)": {
        "details": "See {IERC721-safeTransferFrom}."
      },
      "safeTransferFrom(address,address,uint256,bytes)": {
        "details": "See {IERC721-safeTransferFrom}."
      },
      "setApprovalForAll(address,bool)": {
        "details": "See {IERC721-setApprovalForAll}."
      },
      "symbol()": {
        "details": "See {IERC721Metadata-symbol}."
      },
      "tokenByIndex(uint256)": {
        "details": "See {IERC721Enumerable-tokenByIndex}."
      },
      "tokenOfOwnerByIndex(address,uint256)": {
        "details": "See {IERC721Enumerable-tokenOfOwnerByIndex}."
      },
      "totalSupply()": {
        "details": "See {IERC721Enumerable-totalSupply}."
      },
      "transferFrom(address,address,uint256)": {
        "details": "See {IERC721-transferFrom}."
      }
    },
    "version": 1
  },
  "userdoc": {
    "kind": "user",
    "methods": {},
    "version": 1
  }
}