{
  "contractName": "SlimeNFT",
  "abi": [
    {
      "inputs": [
        {
          "internalType": "string",
          "name": "baseURI",
          "type": "string"
        },
        {
          "internalType": "uint256",
          "name": "_maxMint",
          "type": "uint256"
        },
        {
          "components": [
            {
              "internalType": "uint256",
              "name": "price",
              "type": "uint256"
            },
            {
              "internalType": "uint256",
              "name": "minted",
              "type": "uint256"
            },
            {
              "internalType": "uint256",
              "name": "cap",
              "type": "uint256"
            }
          ],
          "internalType": "struct SlimeNFT.PriceRange[]",
          "name": "priceRanges",
          "type": "tuple[]"
        }
      ],
      "stateMutability": "nonpayable",
      "type": "constructor"
    },
    {
      "anonymous": false,
      "inputs": [
        {
          "indexed": true,
          "internalType": "address",
          "name": "owner",
          "type": "address"
        },
        {
          "indexed": true,
          "internalType": "address",
          "name": "approved",
          "type": "address"
        },
        {
          "indexed": true,
          "internalType": "uint256",
          "name": "tokenId",
          "type": "uint256"
        }
      ],
      "name": "Approval",
      "type": "event"
    },
    {
      "anonymous": false,
      "inputs": [
        {
          "indexed": true,
          "internalType": "address",
          "name": "owner",
          "type": "address"
        },
        {
          "indexed": true,
          "internalType": "address",
          "name": "operator",
          "type": "address"
        },
        {
          "indexed": false,
          "internalType": "bool",
          "name": "approved",
          "type": "bool"
        }
      ],
      "name": "ApprovalForAll",
      "type": "event"
    },
    {
      "anonymous": false,
      "inputs": [
        {
          "components": [
            {
              "internalType": "address",
              "name": "minter",
              "type": "address"
            },
            {
              "internalType": "address",
              "name": "to",
              "type": "address"
            },
            {
              "internalType": "uint256",
              "name": "amount",
              "type": "uint256"
            },
            {
              "internalType": "uint256",
              "name": "time",
              "type": "uint256"
            }
          ],
          "indexed": true,
          "internalType": "struct SlimeNFT.MintedEvent",
          "name": "mintedData",
          "type": "tuple"
        }
      ],
      "name": "Minted",
      "type": "event"
    },
    {
      "anonymous": false,
      "inputs": [
        {
          "indexed": true,
          "internalType": "address",
          "name": "adder",
          "type": "address"
        },
        {
          "indexed": true,
          "internalType": "address",
          "name": "owner",
          "type": "address"
        },
        {
          "indexed": true,
          "internalType": "uint256",
          "name": "timestamp",
          "type": "uint256"
        }
      ],
      "name": "OwnerAdded",
      "type": "event"
    },
    {
      "anonymous": false,
      "inputs": [
        {
          "indexed": true,
          "internalType": "address",
          "name": "remover",
          "type": "address"
        },
        {
          "indexed": true,
          "internalType": "address",
          "name": "removed",
          "type": "address"
        },
        {
          "indexed": true,
          "internalType": "uint256",
          "name": "timestamp",
          "type": "uint256"
        }
      ],
      "name": "OwnerRemoved",
      "type": "event"
    },
    {
      "anonymous": false,
      "inputs": [
        {
          "indexed": true,
          "internalType": "address",
          "name": "from",
          "type": "address"
        },
        {
          "indexed": true,
          "internalType": "address",
          "name": "to",
          "type": "address"
        },
        {
          "indexed": true,
          "internalType": "uint256",
          "name": "tokenId",
          "type": "uint256"
        }
      ],
      "name": "Transfer",
      "type": "event"
    },
    {
      "inputs": [
        {
          "internalType": "address",
          "name": "owner",
          "type": "address"
        }
      ],
      "name": "addOwner",
      "outputs": [],
      "stateMutability": "nonpayable",
      "type": "function"
    },
    {
      "inputs": [
        {
          "internalType": "address",
          "name": "to",
          "type": "address"
        },
        {
          "internalType": "uint256",
          "name": "tokenId",
          "type": "uint256"
        }
      ],
      "name": "approve",
      "outputs": [],
      "stateMutability": "nonpayable",
      "type": "function"
    },
    {
      "inputs": [
        {
          "internalType": "address",
          "name": "owner",
          "type": "address"
        }
      ],
      "name": "balanceOf",
      "outputs": [
        {
          "internalType": "uint256",
          "name": "",
          "type": "uint256"
        }
      ],
      "stateMutability": "view",
      "type": "function"
    },
    {
      "inputs": [
        {
          "internalType": "uint256",
          "name": "tokenId",
          "type": "uint256"
        }
      ],
      "name": "getApproved",
      "outputs": [
        {
          "internalType": "address",
          "name": "",
          "type": "address"
        }
      ],
      "stateMutability": "view",
      "type": "function"
    },
    {
      "inputs": [],
      "name": "getOwners",
      "outputs": [
        {
          "internalType": "address[]",
          "name": "",
          "type": "address[]"
        }
      ],
      "stateMutability": "view",
      "type": "function"
    },
    {
      "inputs": [
        {
          "internalType": "address",
          "name": "owner",
          "type": "address"
        },
        {
          "internalType": "address",
          "name": "operator",
          "type": "address"
        }
      ],
      "name": "isApprovedForAll",
      "outputs": [
        {
          "internalType": "bool",
          "name": "",
          "type": "bool"
        }
      ],
      "stateMutability": "view",
      "type": "function"
    },
    {
      "inputs": [
        {
          "internalType": "address",
          "name": "owner",
          "type": "address"
        }
      ],
      "name": "isOwner",
      "outputs": [
        {
          "internalType": "bool",
          "name": "",
          "type": "bool"
        }
      ],
      "stateMutability": "view",
      "type": "function"
    },
    {
      "inputs": [],
      "name": "maxMint",
      "outputs": [
        {
          "internalType": "uint256",
          "name": "",
          "type": "uint256"
        }
      ],
      "stateMutability": "view",
      "type": "function"
    },
    {
      "inputs": [],
      "name": "name",
      "outputs": [
        {
          "internalType": "string",
          "name": "",
          "type": "string"
        }
      ],
      "stateMutability": "view",
      "type": "function"
    },
    {
      "inputs": [
        {
          "internalType": "uint256",
          "name": "tokenId",
          "type": "uint256"
        }
      ],
      "name": "ownerOf",
      "outputs": [
        {
          "internalType": "address",
          "name": "",
          "type": "address"
        }
      ],
      "stateMutability": "view",
      "type": "function"
    },
    {
      "inputs": [],
      "name": "paused",
      "outputs": [
        {
          "internalType": "bool",
          "name": "",
          "type": "bool"
        }
      ],
      "stateMutability": "view",
      "type": "function"
    },
    {
      "inputs": [
        {
          "internalType": "address",
          "name": "owner",
          "type": "address"
        }
      ],
      "name": "removeOwner",
      "outputs": [],
      "stateMutability": "nonpayable",
      "type": "function"
    },
    {
      "inputs": [
        {
          "internalType": "address",
          "name": "from",
          "type": "address"
        },
        {
          "internalType": "address",
          "name": "to",
          "type": "address"
        },
        {
          "internalType": "uint256",
          "name": "tokenId",
          "type": "uint256"
        }
      ],
      "name": "safeTransferFrom",
      "outputs": [],
      "stateMutability": "nonpayable",
      "type": "function"
    },
    {
      "inputs": [
        {
          "internalType": "address",
          "name": "from",
          "type": "address"
        },
        {
          "internalType": "address",
          "name": "to",
          "type": "address"
        },
        {
          "internalType": "uint256",
          "name": "tokenId",
          "type": "uint256"
        },
        {
          "internalType": "bytes",
          "name": "_data",
          "type": "bytes"
        }
      ],
      "name": "safeTransferFrom",
      "outputs": [],
      "stateMutability": "nonpayable",
      "type": "function"
    },
    {
      "inputs": [
        {
          "internalType": "address",
          "name": "operator",
          "type": "address"
        },
        {
          "internalType": "bool",
          "name": "approved",
          "type": "bool"
        }
      ],
      "name": "setApprovalForAll",
      "outputs": [],
      "stateMutability": "nonpayable",
      "type": "function"
    },
    {
      "inputs": [
        {
          "internalType": "uint256",
          "name": "",
          "type": "uint256"
        }
      ],
      "name": "slimeInfo",
      "outputs": [
        {
          "internalType": "uint256",
          "name": "amountCompounded",
          "type": "uint256"
        },
        {
          "internalType": "uint256",
          "name": "level",
          "type": "uint256"
        }
      ],
      "stateMutability": "view",
      "type": "function"
    },
    {
      "inputs": [],
      "name": "symbol",
      "outputs": [
        {
          "internalType": "string",
          "name": "",
          "type": "string"
        }
      ],
      "stateMutability": "view",
      "type": "function"
    },
    {
      "inputs": [
        {
          "internalType": "uint256",
          "name": "index",
          "type": "uint256"
        }
      ],
      "name": "tokenByIndex",
      "outputs": [
        {
          "internalType": "uint256",
          "name": "",
          "type": "uint256"
        }
      ],
      "stateMutability": "view",
      "type": "function"
    },
    {
      "inputs": [
        {
          "internalType": "address",
          "name": "owner",
          "type": "address"
        },
        {
          "internalType": "uint256",
          "name": "index",
          "type": "uint256"
        }
      ],
      "name": "tokenOfOwnerByIndex",
      "outputs": [
        {
          "internalType": "uint256",
          "name": "",
          "type": "uint256"
        }
      ],
      "stateMutability": "view",
      "type": "function"
    },
    {
      "inputs": [
        {
          "internalType": "address",
          "name": "from",
          "type": "address"
        },
        {
          "internalType": "address",
          "name": "to",
          "type": "address"
        },
        {
          "internalType": "uint256",
          "name": "tokenId",
          "type": "uint256"
        }
      ],
      "name": "transferFrom",
      "outputs": [],
      "stateMutability": "nonpayable",
      "type": "function"
    },
    {
      "inputs": [],
      "name": "whitelistEnabled",
      "outputs": [
        {
          "internalType": "bool",
          "name": "",
          "type": "bool"
        }
      ],
      "stateMutability": "view",
      "type": "function"
    },
    {
      "inputs": [],
      "name": "getCurrentPriceRange",
      "outputs": [
        {
          "internalType": "uint256",
          "name": "",
          "type": "uint256"
        },
        {
          "internalType": "uint256",
          "name": "",
          "type": "uint256"
        },
        {
          "internalType": "uint256",
          "name": "",
          "type": "uint256"
        }
      ],
      "stateMutability": "view",
      "type": "function"
    },
    {
      "inputs": [
        {
          "internalType": "address",
          "name": "to",
          "type": "address"
        },
        {
          "internalType": "uint256",
          "name": "amount",
          "type": "uint256"
        },
        {
          "internalType": "string",
          "name": "_tokenURI",
          "type": "string"
        },
        {
          "internalType": "bytes32[]",
          "name": "merkleProof",
          "type": "bytes32[]"
        }
      ],
      "name": "mint",
      "outputs": [],
      "stateMutability": "payable",
      "type": "function"
    },
    {
      "inputs": [
        {
          "internalType": "uint256",
          "name": "amount",
          "type": "uint256"
        },
        {
          "internalType": "uint256",
          "name": "tokenID",
          "type": "uint256"
        }
      ],
      "name": "compound",
      "outputs": [],
      "stateMutability": "nonpayable",
      "type": "function"
    },
    {
      "inputs": [
        {
          "internalType": "address",
          "name": "tokenAddress",
          "type": "address"
        }
      ],
      "name": "setToken",
      "outputs": [],
      "stateMutability": "nonpayable",
      "type": "function"
    },
    {
      "inputs": [
        {
          "components": [
            {
              "internalType": "uint256",
              "name": "price",
              "type": "uint256"
            },
            {
              "internalType": "uint256",
              "name": "minted",
              "type": "uint256"
            },
            {
              "internalType": "uint256",
              "name": "cap",
              "type": "uint256"
            }
          ],
          "internalType": "struct SlimeNFT.PriceRange",
          "name": "priceRange",
          "type": "tuple"
        }
      ],
      "name": "addPriceRange",
      "outputs": [],
      "stateMutability": "nonpayable",
      "type": "function"
    },
    {
      "inputs": [],
      "name": "totalSupply",
      "outputs": [
        {
          "internalType": "uint256",
          "name": "",
          "type": "uint256"
        }
      ],
      "stateMutability": "view",
      "type": "function"
    },
    {
      "inputs": [
        {
          "internalType": "bool",
          "name": "_paused",
          "type": "bool"
        }
      ],
      "name": "setPaused",
      "outputs": [],
      "stateMutability": "nonpayable",
      "type": "function"
    },
    {
      "inputs": [
        {
          "internalType": "string",
          "name": "baseURI",
          "type": "string"
        }
      ],
      "name": "setBaseURI",
      "outputs": [],
      "stateMutability": "nonpayable",
      "type": "function"
    },
    {
      "inputs": [
        {
          "internalType": "uint256",
          "name": "_maxMint",
          "type": "uint256"
        }
      ],
      "name": "setMaxMint",
      "outputs": [],
      "stateMutability": "nonpayable",
      "type": "function"
    },
    {
      "inputs": [
        {
          "internalType": "bytes32",
          "name": "_merkleRoot",
          "type": "bytes32"
        }
      ],
      "name": "setMerkleRoot",
      "outputs": [],
      "stateMutability": "nonpayable",
      "type": "function"
    },
    {
      "inputs": [
        {
          "internalType": "bool",
          "name": "enabled",
          "type": "bool"
        }
      ],
      "name": "setWhitelistEnabled",
      "outputs": [],
      "stateMutability": "nonpayable",
      "type": "function"
    },
    {
      "inputs": [
        {
          "internalType": "bytes4",
          "name": "interfaceId",
          "type": "bytes4"
        }
      ],
      "name": "supportsInterface",
      "outputs": [
        {
          "internalType": "bool",
          "name": "",
          "type": "bool"
        }
      ],
      "stateMutability": "view",
      "type": "function"
    },
    {
      "inputs": [
        {
          "internalType": "uint256",
          "name": "tokenId",
          "type": "uint256"
        }
      ],
      "name": "tokenURI",
      "outputs": [
        {
          "internalType": "string",
          "name": "",
          "type": "string"
        }
      ],
      "stateMutability": "view",
      "type": "function"
    }
  ],
  "bytecode": "0x60806040523480156200001157600080fd5b50604051620064df380380620064df8339818101604052810190620000379190620006d9565b6040518060400160405280600581526020017f536c696d650000000000000000000000000000000000000000000000000000008152506040518060400160405280600381526020017f534c4d00000000000000000000000000000000000000000000000000000000008152508160009080519060200190620000bb92919062000302565b508060019080519060200190620000d492919062000302565b505050600073ffffffffffffffffffffffffffffffffffffffff163373ffffffffffffffffffffffffffffffffffffffff1614156200014a576040517f08c379a00000000000000000000000000000000000000000000000000000000081526004016200014190620007fa565b60405180910390fd5b6001600b60003373ffffffffffffffffffffffffffffffffffffffff1673ffffffffffffffffffffffffffffffffffffffff16815260200190815260200160002060006101000a81548160ff021916908315150217905550600c339080600181540180825580915050600190039060005260206000200160009091909190916101000a81548173ffffffffffffffffffffffffffffffffffffffff021916908373ffffffffffffffffffffffffffffffffffffffff16021790555060008351116200024c576040517f08c379a000000000000000000000000000000000000000000000000000000000815260040162000243906200086c565b60405180910390fd5b82601290805190602001906200026492919062000302565b508160118190555060005b8151811015620002f85760168282815181106200029157620002906200088e565b5b6020026020010151908060018154018082558091505060019003906000526020600020906003020160009091909190915060008201518160000155602082015181600101556040820151816002015550508080620002ef90620008ec565b9150506200026f565b505050506200099f565b828054620003109062000969565b90600052602060002090601f01602090048101928262000334576000855562000380565b82601f106200034f57805160ff191683800117855562000380565b8280016001018555821562000380579182015b828111156200037f57825182559160200191906001019062000362565b5b5090506200038f919062000393565b5090565b5b80821115620003ae57600081600090555060010162000394565b5090565b6000604051905090565b600080fd5b600080fd5b600080fd5b600080fd5b6000601f19601f8301169050919050565b7f4e487b7100000000000000000000000000000000000000000000000000000000600052604160045260246000fd5b6200041b82620003d0565b810181811067ffffffffffffffff821117156200043d576200043c620003e1565b5b80604052505050565b600062000452620003b2565b905062000460828262000410565b919050565b600067ffffffffffffffff821115620004835762000482620003e1565b5b6200048e82620003d0565b9050602081019050919050565b60005b83811015620004bb5780820151818401526020810190506200049e565b83811115620004cb576000848401525b50505050565b6000620004e8620004e28462000465565b62000446565b905082815260208101848484011115620005075762000506620003cb565b5b620005148482856200049b565b509392505050565b600082601f830112620005345762000533620003c6565b5b815162000546848260208601620004d1565b91505092915050565b6000819050919050565b62000564816200054f565b81146200057057600080fd5b50565b600081519050620005848162000559565b92915050565b600067ffffffffffffffff821115620005a857620005a7620003e1565b5b602082029050602081019050919050565b600080fd5b600080fd5b600060608284031215620005dc57620005db620005be565b5b620005e8606062000446565b90506000620005fa8482850162000573565b6000830152506020620006108482850162000573565b6020830152506040620006268482850162000573565b60408301525092915050565b60006200064962000643846200058a565b62000446565b905080838252602082019050606084028301858111156200066f576200066e620005b9565b5b835b818110156200069c5780620006878882620005c3565b84526020840193505060608101905062000671565b5050509392505050565b600082601f830112620006be57620006bd620003c6565b5b8151620006d084826020860162000632565b91505092915050565b600080600060608486031215620006f557620006f4620003bc565b5b600084015167ffffffffffffffff811115620007165762000715620003c1565b5b62000724868287016200051c565b9350506020620007378682870162000573565b925050604084015167ffffffffffffffff8111156200075b576200075a620003c1565b5b6200076986828701620006a6565b9150509250925092565b600082825260208201905092915050565b7f43616e277420696e697469616c697a652077697468207a65726f20616464726560008201527f7373000000000000000000000000000000000000000000000000000000000000602082015250565b6000620007e260228362000773565b9150620007ef8262000784565b604082019050919050565b600060208201905081810360008301526200081581620007d3565b9050919050565b7f4d75737420736574206261736520555249000000000000000000000000000000600082015250565b60006200085460118362000773565b915062000861826200081c565b602082019050919050565b60006020820190508181036000830152620008878162000845565b9050919050565b7f4e487b7100000000000000000000000000000000000000000000000000000000600052603260045260246000fd5b7f4e487b7100000000000000000000000000000000000000000000000000000000600052601160045260246000fd5b6000620008f9826200054f565b91507fffffffffffffffffffffffffffffffffffffffffffffffffffffffffffffffff8214156200092f576200092e620008bd565b5b600182019050919050565b7f4e487b7100000000000000000000000000000000000000000000000000000000600052602260045260246000fd5b600060028204905060018216806200098257607f821691505b602082108114156200099957620009986200093a565b5b50919050565b615b3080620009af6000396000f3fe6080604052600436106101f85760003560e01c8063547520fe1161010d5780638133fe2b116100a0578063a32d0dac1161006f578063a32d0dac14610748578063b88d4fde14610771578063bff1208d1461079a578063c87b56dd146107c3578063e985e9c514610800576101f8565b80638133fe2b146106ad57806395d89b41146106c9578063a0e67e2b146106f4578063a22cb4651461071f576101f8565b80637065cb48116100dc5780637065cb48146105f357806370a082311461061c5780637501f741146106595780637cb6475914610684576101f8565b8063547520fe1461053957806355f804b3146105625780635c975abb1461058b5780636352211e146105b6576101f8565b8063173825d9116101905780632f745c591161015f5780632f745c591461042d57806334adca201461046a57806342842e0e146104a85780634f6ccce7146104d157806351fb012d1461050e576101f8565b8063173825d91461037357806318160ddd1461039c57806323b872dd146103c75780632f54bf6e146103f0576101f8565b8063081812fc116101cc578063081812fc146102bb578063095ea7b3146102f8578063144fa6d71461032157806316c38b3c1461034a576101f8565b80626e242a146101fd57806301ffc9a71461022a578063052d9e7e1461026757806306fdde0314610290575b600080fd5b34801561020957600080fd5b5061021261083d565b60405161022193929190613abf565b60405180910390f35b34801561023657600080fd5b50610251600480360381019061024c9190613b62565b6108b4565b60405161025e9190613baa565b60405180910390f35b34801561027357600080fd5b5061028e60048036038101906102899190613bf1565b6108c6565b005b34801561029c57600080fd5b506102a5610976565b6040516102b29190613cb7565b60405180910390f35b3480156102c757600080fd5b506102e260048036038101906102dd9190613d05565b610a08565b6040516102ef9190613d73565b60405180910390f35b34801561030457600080fd5b5061031f600480360381019061031a9190613dba565b610a8d565b005b34801561032d57600080fd5b5061034860048036038101906103439190613dfa565b610ba5565b005b34801561035657600080fd5b50610371600480360381019061036c9190613bf1565b610cbd565b005b34801561037f57600080fd5b5061039a60048036038101906103959190613dfa565b610d6d565b005b3480156103a857600080fd5b506103b1611105565b6040516103be9190613e27565b60405180910390f35b3480156103d357600080fd5b506103ee60048036038101906103e99190613e42565b611116565b005b3480156103fc57600080fd5b5061041760048036038101906104129190613dfa565b611176565b6040516104249190613baa565b60405180910390f35b34801561043957600080fd5b50610454600480360381019061044f9190613dba565b6111cc565b6040516104619190613e27565b60405180910390f35b34801561047657600080fd5b50610491600480360381019061048c9190613d05565b611271565b60405161049f929190613e95565b60405180910390f35b3480156104b457600080fd5b506104cf60048036038101906104ca9190613e42565b611295565b005b3480156104dd57600080fd5b506104f860048036038101906104f39190613d05565b6112b5565b6040516105059190613e27565b60405180910390f35b34801561051a57600080fd5b50610523611326565b6040516105309190613baa565b60405180910390f35b34801561054557600080fd5b50610560600480360381019061055b9190613d05565b611339565b005b34801561056e57600080fd5b5061058960048036038101906105849190613ff3565b6113d6565b005b34801561059757600080fd5b506105a0611483565b6040516105ad9190613baa565b60405180910390f35b3480156105c257600080fd5b506105dd60048036038101906105d89190613d05565b611496565b6040516105ea9190613d73565b60405180910390f35b3480156105ff57600080fd5b5061061a60048036038101906106159190613dfa565b611548565b005b34801561062857600080fd5b50610643600480360381019061063e9190613dfa565b6116f4565b6040516106509190613e27565b60405180910390f35b34801561066557600080fd5b5061066e6117ac565b60405161067b9190613e27565b60405180910390f35b34801561069057600080fd5b506106ab60048036038101906106a69190614072565b6117b2565b005b6106c760048036038101906106c291906140ff565b61184f565b005b3480156106d557600080fd5b506106de611d39565b6040516106eb9190613cb7565b60405180910390f35b34801561070057600080fd5b50610709611dcb565b6040516107169190614261565b60405180910390f35b34801561072b57600080fd5b5061074660048036038101906107419190614283565b611e59565b005b34801561075457600080fd5b5061076f600480360381019061076a919061432c565b611e6f565b005b34801561077d57600080fd5b50610798600480360381019061079391906143fa565b611f98565b005b3480156107a657600080fd5b506107c160048036038101906107bc919061447d565b611ffa565b005b3480156107cf57600080fd5b506107ea60048036038101906107e59190613d05565b6123b9565b6040516107f79190613cb7565b60405180910390f35b34801561080c57600080fd5b50610827600480360381019061082291906144bd565b6123cb565b6040516108349190613baa565b60405180910390f35b60008060008061084d600e61245f565b905060168054905081106108725761086f60018261246d90919063ffffffff16565b90505b600060168281548110610888576108876144fd565b5b906000526020600020906003020190508060000154816001015482600201549450945094505050909192565b60006108bf82612483565b9050919050565b60011515600b60003373ffffffffffffffffffffffffffffffffffffffff1673ffffffffffffffffffffffffffffffffffffffff16815260200190815260200160002060009054906101000a900460ff16151514610959576040517f08c379a000000000000000000000000000000000000000000000000000000000815260040161095090614578565b60405180910390fd5b80601460006101000a81548160ff02191690831515021790555050565b606060008054610985906145c7565b80601f01602080910402602001604051908101604052809291908181526020018280546109b1906145c7565b80156109fe5780601f106109d3576101008083540402835291602001916109fe565b820191906000526020600020905b8154815290600101906020018083116109e157829003601f168201915b5050505050905090565b6000610a13826124fd565b610a52576040517f08c379a0000000000000000000000000000000000000000000000000000000008152600401610a499061466b565b60405180910390fd5b6004600083815260200190815260200160002060009054906101000a900473ffffffffffffffffffffffffffffffffffffffff169050919050565b6000610a9882611496565b90508073ffffffffffffffffffffffffffffffffffffffff168373ffffffffffffffffffffffffffffffffffffffff161415610b09576040517f08c379a0000000000000000000000000000000000000000000000000000000008152600401610b00906146fd565b60405180910390fd5b8073ffffffffffffffffffffffffffffffffffffffff16610b28612569565b73ffffffffffffffffffffffffffffffffffffffff161480610b575750610b5681610b51612569565b6123cb565b5b610b96576040517f08c379a0000000000000000000000000000000000000000000000000000000008152600401610b8d9061478f565b60405180910390fd5b610ba08383612571565b505050565b60011515600b60003373ffffffffffffffffffffffffffffffffffffffff1673ffffffffffffffffffffffffffffffffffffffff16815260200190815260200160002060009054906101000a900460ff16151514610c38576040517f08c379a0000000000000000000000000000000000000000000000000000000008152600401610c2f90614578565b60405180910390fd5b80600f60006101000a81548173ffffffffffffffffffffffffffffffffffffffff021916908373ffffffffffffffffffffffffffffffffffffffff16021790555080601060006101000a81548173ffffffffffffffffffffffffffffffffffffffff021916908373ffffffffffffffffffffffffffffffffffffffff16021790555050565b60011515600b60003373ffffffffffffffffffffffffffffffffffffffff1673ffffffffffffffffffffffffffffffffffffffff16815260200190815260200160002060009054906101000a900460ff16151514610d50576040517f08c379a0000000000000000000000000000000000000000000000000000000008152600401610d4790614578565b60405180910390fd5b80601060146101000a81548160ff02191690831515021790555050565b60011515600b60003373ffffffffffffffffffffffffffffffffffffffff1673ffffffffffffffffffffffffffffffffffffffff16815260200190815260200160002060009054906101000a900460ff16151514610e00576040517f08c379a0000000000000000000000000000000000000000000000000000000008152600401610df790614578565b60405180910390fd5b60011515600b60008373ffffffffffffffffffffffffffffffffffffffff1673ffffffffffffffffffffffffffffffffffffffff16815260200190815260200160002060009054906101000a900460ff16151514610e93576040517f08c379a0000000000000000000000000000000000000000000000000000000008152600401610e8a906147fb565b60405180910390fd5b60005b600c80549050811015611101578173ffffffffffffffffffffffffffffffffffffffff16600c8281548110610ece57610ecd6144fd565b5b9060005260206000200160009054906101000a900473ffffffffffffffffffffffffffffffffffffffff1673ffffffffffffffffffffffffffffffffffffffff1614156110ee576000600b60008473ffffffffffffffffffffffffffffffffffffffff1673ffffffffffffffffffffffffffffffffffffffff16815260200190815260200160002060006101000a81548160ff02191690831515021790555060008190505b6001600c80549050610f85919061484a565b81101561104657600c600183610f9b919061487e565b81548110610fac57610fab6144fd565b5b9060005260206000200160009054906101000a900473ffffffffffffffffffffffffffffffffffffffff16600c8381548110610feb57610fea6144fd565b5b9060005260206000200160006101000a81548173ffffffffffffffffffffffffffffffffffffffff021916908373ffffffffffffffffffffffffffffffffffffffff160217905550808061103e906148d4565b915050610f73565b50600c8054806110595761105861491d565b5b6001900381819060005260206000200160006101000a81549073ffffffffffffffffffffffffffffffffffffffff02191690559055428273ffffffffffffffffffffffffffffffffffffffff163373ffffffffffffffffffffffffffffffffffffffff167fecc5dd9888b87e7ed252d66b9c086ab819de6c8f8b96c8e5458e105bacfbb02760405160405180910390a4611101565b80806110f9906148d4565b915050610e96565b5050565b6000611111600d61245f565b905090565b611127611121612569565b8261262a565b611166576040517f08c379a000000000000000000000000000000000000000000000000000000000815260040161115d906149be565b60405180910390fd5b611171838383612708565b505050565b6000600b60008373ffffffffffffffffffffffffffffffffffffffff1673ffffffffffffffffffffffffffffffffffffffff16815260200190815260200160002060009054906101000a900460ff169050919050565b60006111d7836116f4565b8210611218576040517f08c379a000000000000000000000000000000000000000000000000000000000815260040161120f90614a50565b60405180910390fd5b600760008473ffffffffffffffffffffffffffffffffffffffff1673ffffffffffffffffffffffffffffffffffffffff168152602001908152602001600020600083815260200190815260200160002054905092915050565b60196020528060005260406000206000915090508060000154908060010154905082565b6112b083838360405180602001604052806000815250611f98565b505050565b60006112bf612964565b8210611300576040517f08c379a00000000000000000000000000000000000000000000000000000000081526004016112f790614ae2565b60405180910390fd5b60098281548110611314576113136144fd565b5b90600052602060002001549050919050565b601460009054906101000a900460ff1681565b60011515600b60003373ffffffffffffffffffffffffffffffffffffffff1673ffffffffffffffffffffffffffffffffffffffff16815260200190815260200160002060009054906101000a900460ff161515146113cc576040517f08c379a00000000000000000000000000000000000000000000000000000000081526004016113c390614578565b60405180910390fd5b8060118190555050565b60011515600b60003373ffffffffffffffffffffffffffffffffffffffff1673ffffffffffffffffffffffffffffffffffffffff16815260200190815260200160002060009054906101000a900460ff16151514611469576040517f08c379a000000000000000000000000000000000000000000000000000000000815260040161146090614578565b60405180910390fd5b806012908051906020019061147f929190613a03565b5050565b601060149054906101000a900460ff1681565b6000806002600084815260200190815260200160002060009054906101000a900473ffffffffffffffffffffffffffffffffffffffff169050600073ffffffffffffffffffffffffffffffffffffffff168173ffffffffffffffffffffffffffffffffffffffff16141561153f576040517f08c379a000000000000000000000000000000000000000000000000000000000815260040161153690614b74565b60405180910390fd5b80915050919050565b60011515600b60003373ffffffffffffffffffffffffffffffffffffffff1673ffffffffffffffffffffffffffffffffffffffff16815260200190815260200160002060009054906101000a900460ff161515146115db576040517f08c379a00000000000000000000000000000000000000000000000000000000081526004016115d290614578565b60405180910390fd5b6001600b60008373ffffffffffffffffffffffffffffffffffffffff1673ffffffffffffffffffffffffffffffffffffffff16815260200190815260200160002060006101000a81548160ff021916908315150217905550600c819080600181540180825580915050600190039060005260206000200160009091909190916101000a81548173ffffffffffffffffffffffffffffffffffffffff021916908373ffffffffffffffffffffffffffffffffffffffff160217905550428173ffffffffffffffffffffffffffffffffffffffff163373ffffffffffffffffffffffffffffffffffffffff167fa0b18fca933618876351ba2ef88bf4505c184d3e55064bec0d7fe236dd706d8460405160405180910390a450565b60008073ffffffffffffffffffffffffffffffffffffffff168273ffffffffffffffffffffffffffffffffffffffff161415611765576040517f08c379a000000000000000000000000000000000000000000000000000000000815260040161175c90614c06565b60405180910390fd5b600360008373ffffffffffffffffffffffffffffffffffffffff1673ffffffffffffffffffffffffffffffffffffffff168152602001908152602001600020549050919050565b60115481565b60011515600b60003373ffffffffffffffffffffffffffffffffffffffff1673ffffffffffffffffffffffffffffffffffffffff16815260200190815260200160002060009054906101000a900460ff16151514611845576040517f08c379a000000000000000000000000000000000000000000000000000000000815260040161183c90614578565b60405180910390fd5b8060158190555050565b601060149054906101000a900460ff161580611870575061186f33611176565b5b6118af576040517f08c379a00000000000000000000000000000000000000000000000000000000081526004016118a690614c72565b60405180910390fd5b601460009054906101000a900460ff161561197e576000856040516020016118d79190614cda565b60405160208183030381529060405280519060200120905061193d838380806020026020016040519081016040528093929190818152602001838360200280828437600081840152601f19601f8201169050808301925050505050505060155483612971565b61197c576040517f08c379a000000000000000000000000000000000000000000000000000000000815260040161197390614d41565b60405180910390fd5b505b600084601360008873ffffffffffffffffffffffffffffffffffffffff1673ffffffffffffffffffffffffffffffffffffffff168152602001908152602001600020546119cb919061487e565b9050601154811115611a12576040517f08c379a0000000000000000000000000000000000000000000000000000000008152600401611a0990614dad565b60405180910390fd5b6000611a1e600e61245f565b90506016805490508110611a67576040517f08c379a0000000000000000000000000000000000000000000000000000000008152600401611a5e90614e19565b60405180910390fd5b600060168281548110611a7d57611a7c6144fd565b5b906000526020600020906003020190508060020154831115611ad4576040517f08c379a0000000000000000000000000000000000000000000000000000000008152600401611acb90614eab565b60405180910390fd5b670de0b6b3a7640000816000015488611aed9190614ecb565b611af79190614ecb565b3414611b38576040517f08c379a0000000000000000000000000000000000000000000000000000000008152600401611b2f90614f71565b60405180910390fd5b6000611b44600d61245f565b905060005b88811015611c8557611b5b8a83612988565b611b6582896129a6565b611b6f600d612a1a565b611b79600d61245f565b91506040518060400160405280600081526020016000815250601960008481526020019081526020016000206000820151816000015560208201518160010155905050611bd460018460010154612a3090919063ffffffff16565b8360010181905550611c2f6001601360008d73ffffffffffffffffffffffffffffffffffffffff1673ffffffffffffffffffffffffffffffffffffffff16815260200190815260200160002054612a3090919063ffffffff16565b601360008c73ffffffffffffffffffffffffffffffffffffffff1673ffffffffffffffffffffffffffffffffffffffff168152602001908152602001600020819055508080611c7d906148d4565b915050611b49565b508160020154826001015410611ca057611c9f600e612a1a565b5b60405180608001604052803373ffffffffffffffffffffffffffffffffffffffff1681526020018a73ffffffffffffffffffffffffffffffffffffffff16815260200189815260200142815250604051611cfa9190615030565b60405180910390207f28ec044de351723a5df566de9b7bf6bbcc850b0061e5d20b31f166d198c3106c60405160405180910390a2505050505050505050565b606060018054611d48906145c7565b80601f0160208091040260200160405190810160405280929190818152602001828054611d74906145c7565b8015611dc15780601f10611d9657610100808354040283529160200191611dc1565b820191906000526020600020905b815481529060010190602001808311611da457829003601f168201915b5050505050905090565b6060600c805480602002602001604051908101604052809291908181526020018280548015611e4f57602002820191906000526020600020905b8160009054906101000a900473ffffffffffffffffffffffffffffffffffffffff1673ffffffffffffffffffffffffffffffffffffffff1681526020019060010190808311611e05575b5050505050905090565b611e6b611e64612569565b8383612a46565b5050565b60011515600b60003373ffffffffffffffffffffffffffffffffffffffff1673ffffffffffffffffffffffffffffffffffffffff16815260200190815260200160002060009054906101000a900460ff16151514611f02576040517f08c379a0000000000000000000000000000000000000000000000000000000008152600401611ef990614578565b60405180910390fd5b6000816040015111611f49576040517f08c379a0000000000000000000000000000000000000000000000000000000008152600401611f4090615097565b60405180910390fd5b6016819080600181540180825580915050600190039060005260206000209060030201600090919091909150600082015181600001556020820151816001015560408201518160020155505050565b611fa9611fa3612569565b8361262a565b611fe8576040517f08c379a0000000000000000000000000000000000000000000000000000000008152600401611fdf906149be565b60405180910390fd5b611ff484848484612bb3565b50505050565b601060009054906101000a900473ffffffffffffffffffffffffffffffffffffffff1673ffffffffffffffffffffffffffffffffffffffff166370a08231336040518263ffffffff1660e01b81526004016120559190613d73565b602060405180830381865afa158015612072573d6000803e3d6000fd5b505050506040513d601f19601f8201168201806040525081019061209691906150cc565b8211156120d8576040517f08c379a00000000000000000000000000000000000000000000000000000000081526004016120cf9061516b565b60405180910390fd5b601060009054906101000a900473ffffffffffffffffffffffffffffffffffffffff1673ffffffffffffffffffffffffffffffffffffffff1663dd62ed3e33306040518363ffffffff1660e01b815260040161213592919061518b565b602060405180830381865afa158015612152573d6000803e3d6000fd5b505050506040513d601f19601f8201168201806040525081019061217691906150cc565b8211156121b8576040517f08c379a00000000000000000000000000000000000000000000000000000000081526004016121af90615226565b60405180910390fd5b6121c181611496565b73ffffffffffffffffffffffffffffffffffffffff163373ffffffffffffffffffffffffffffffffffffffff161461222e576040517f08c379a000000000000000000000000000000000000000000000000000000000815260040161222590615292565b60405180910390fd5b600060196000838152602001908152602001600020905060175481600101541061228d576040517f08c379a0000000000000000000000000000000000000000000000000000000008152600401612284906152fe565b60405180910390fd5b828160000160008282546122a1919061487e565b925050819055506122c16018548260000154612c0f90919063ffffffff16565b81600101819055506000601754826001015410612305576018546017546122e89190614ecb565b82600001546122f7919061484a565b905060175482600101819055505b601060009054906101000a900473ffffffffffffffffffffffffffffffffffffffff1673ffffffffffffffffffffffffffffffffffffffff166323b872dd33308488612351919061484a565b6040518463ffffffff1660e01b815260040161236f9392919061531e565b6020604051808303816000875af115801561238e573d6000803e3d6000fd5b505050506040513d601f19601f820116820180604052508101906123b2919061536a565b5050505050565b60606123c482612c25565b9050919050565b6000600560008473ffffffffffffffffffffffffffffffffffffffff1673ffffffffffffffffffffffffffffffffffffffff16815260200190815260200160002060008373ffffffffffffffffffffffffffffffffffffffff1673ffffffffffffffffffffffffffffffffffffffff16815260200190815260200160002060009054906101000a900460ff16905092915050565b600081600001549050919050565b6000818361247b919061484a565b905092915050565b60007f780e9d63000000000000000000000000000000000000000000000000000000007bffffffffffffffffffffffffffffffffffffffffffffffffffffffff1916827bffffffffffffffffffffffffffffffffffffffffffffffffffffffff191614806124f657506124f582612d77565b5b9050919050565b60008073ffffffffffffffffffffffffffffffffffffffff166002600084815260200190815260200160002060009054906101000a900473ffffffffffffffffffffffffffffffffffffffff1673ffffffffffffffffffffffffffffffffffffffff1614159050919050565b600033905090565b816004600083815260200190815260200160002060006101000a81548173ffffffffffffffffffffffffffffffffffffffff021916908373ffffffffffffffffffffffffffffffffffffffff160217905550808273ffffffffffffffffffffffffffffffffffffffff166125e483611496565b73ffffffffffffffffffffffffffffffffffffffff167f8c5be1e5ebec7d5bd14f71427d1e84f3dd0314c0f7b2291e5b200ac8c7c3b92560405160405180910390a45050565b6000612635826124fd565b612674576040517f08c379a000000000000000000000000000000000000000000000000000000000815260040161266b90615409565b60405180910390fd5b600061267f83611496565b90508073ffffffffffffffffffffffffffffffffffffffff168473ffffffffffffffffffffffffffffffffffffffff1614806126ee57508373ffffffffffffffffffffffffffffffffffffffff166126d684610a08565b73ffffffffffffffffffffffffffffffffffffffff16145b806126ff57506126fe81856123cb565b5b91505092915050565b8273ffffffffffffffffffffffffffffffffffffffff1661272882611496565b73ffffffffffffffffffffffffffffffffffffffff161461277e576040517f08c379a00000000000000000000000000000000000000000000000000000000081526004016127759061549b565b60405180910390fd5b600073ffffffffffffffffffffffffffffffffffffffff168273ffffffffffffffffffffffffffffffffffffffff1614156127ee576040517f08c379a00000000000000000000000000000000000000000000000000000000081526004016127e59061552d565b60405180910390fd5b6127f9838383612e59565b612804600082612571565b6001600360008573ffffffffffffffffffffffffffffffffffffffff1673ffffffffffffffffffffffffffffffffffffffff1681526020019081526020016000206000828254612854919061484a565b925050819055506001600360008473ffffffffffffffffffffffffffffffffffffffff1673ffffffffffffffffffffffffffffffffffffffff16815260200190815260200160002060008282546128ab919061487e565b92505081905550816002600083815260200190815260200160002060006101000a81548173ffffffffffffffffffffffffffffffffffffffff021916908373ffffffffffffffffffffffffffffffffffffffff160217905550808273ffffffffffffffffffffffffffffffffffffffff168473ffffffffffffffffffffffffffffffffffffffff167fddf252ad1be2c89b69c2b068fc378daa952ba7f163c4a11628f55a4df523b3ef60405160405180910390a4505050565b6000600980549050905090565b60008261297e8584612e69565b1490509392505050565b6129a2828260405180602001604052806000815250612f1c565b5050565b6129af826124fd565b6129ee576040517f08c379a00000000000000000000000000000000000000000000000000000000081526004016129e5906155bf565b60405180910390fd5b80600660008481526020019081526020016000209080519060200190612a15929190613a03565b505050565b6001816000016000828254019250508190555050565b60008183612a3e919061487e565b905092915050565b8173ffffffffffffffffffffffffffffffffffffffff168373ffffffffffffffffffffffffffffffffffffffff161415612ab5576040517f08c379a0000000000000000000000000000000000000000000000000000000008152600401612aac9061562b565b60405180910390fd5b80600560008573ffffffffffffffffffffffffffffffffffffffff1673ffffffffffffffffffffffffffffffffffffffff16815260200190815260200160002060008473ffffffffffffffffffffffffffffffffffffffff1673ffffffffffffffffffffffffffffffffffffffff16815260200190815260200160002060006101000a81548160ff0219169083151502179055508173ffffffffffffffffffffffffffffffffffffffff168373ffffffffffffffffffffffffffffffffffffffff167f17307eab39ab6107e8899845ad3d59bd9653f200f220920489ca2b5937696c3183604051612ba69190613baa565b60405180910390a3505050565b612bbe848484612708565b612bca84848484612f77565b612c09576040517f08c379a0000000000000000000000000000000000000000000000000000000008152600401612c00906156bd565b60405180910390fd5b50505050565b60008183612c1d919061570c565b905092915050565b6060612c30826124fd565b612c6f576040517f08c379a0000000000000000000000000000000000000000000000000000000008152600401612c66906157af565b60405180910390fd5b6000600660008481526020019081526020016000208054612c8f906145c7565b80601f0160208091040260200160405190810160405280929190818152602001828054612cbb906145c7565b8015612d085780601f10612cdd57610100808354040283529160200191612d08565b820191906000526020600020905b815481529060010190602001808311612ceb57829003601f168201915b505050505090506000612d196130ff565b9050600081511415612d2f578192505050612d72565b600082511115612d64578082604051602001612d4c92919061580b565b60405160208183030381529060405292505050612d72565b612d6d84613191565b925050505b919050565b60007f80ac58cd000000000000000000000000000000000000000000000000000000007bffffffffffffffffffffffffffffffffffffffffffffffffffffffff1916827bffffffffffffffffffffffffffffffffffffffffffffffffffffffff19161480612e4257507f5b5e139f000000000000000000000000000000000000000000000000000000007bffffffffffffffffffffffffffffffffffffffffffffffffffffffff1916827bffffffffffffffffffffffffffffffffffffffffffffffffffffffff1916145b80612e525750612e5182613238565b5b9050919050565b612e648383836132a2565b505050565b60008082905060005b8451811015612f11576000858281518110612e9057612e8f6144fd565b5b60200260200101519050808311612ed1578281604051602001612eb4929190615850565b604051602081830303815290604052805190602001209250612efd565b8083604051602001612ee4929190615850565b6040516020818303038152906040528051906020012092505b508080612f09906148d4565b915050612e72565b508091505092915050565b612f2683836133b6565b612f336000848484612f77565b612f72576040517f08c379a0000000000000000000000000000000000000000000000000000000008152600401612f69906156bd565b60405180910390fd5b505050565b6000612f988473ffffffffffffffffffffffffffffffffffffffff16613584565b156130f2578373ffffffffffffffffffffffffffffffffffffffff1663150b7a02612fc1612569565b8786866040518563ffffffff1660e01b8152600401612fe394939291906158d1565b6020604051808303816000875af192505050801561301f57506040513d601f19601f8201168201806040525081019061301c9190615932565b60015b6130a2573d806000811461304f576040519150601f19603f3d011682016040523d82523d6000602084013e613054565b606091505b5060008151141561309a576040517f08c379a0000000000000000000000000000000000000000000000000000000008152600401613091906156bd565b60405180910390fd5b805181602001fd5b63150b7a0260e01b7bffffffffffffffffffffffffffffffffffffffffffffffffffffffff1916817bffffffffffffffffffffffffffffffffffffffffffffffffffffffff1916149150506130f7565b600190505b949350505050565b60606012805461310e906145c7565b80601f016020809104026020016040519081016040528092919081815260200182805461313a906145c7565b80156131875780601f1061315c57610100808354040283529160200191613187565b820191906000526020600020905b81548152906001019060200180831161316a57829003601f168201915b5050505050905090565b606061319c826124fd565b6131db576040517f08c379a00000000000000000000000000000000000000000000000000000000081526004016131d2906159d1565b60405180910390fd5b60006131e56130ff565b905060008151116132055760405180602001604052806000815250613230565b8061320f84613597565b60405160200161322092919061580b565b6040516020818303038152906040525b915050919050565b60007f01ffc9a7000000000000000000000000000000000000000000000000000000007bffffffffffffffffffffffffffffffffffffffffffffffffffffffff1916827bffffffffffffffffffffffffffffffffffffffffffffffffffffffff1916149050919050565b6132ad8383836136f8565b600073ffffffffffffffffffffffffffffffffffffffff168373ffffffffffffffffffffffffffffffffffffffff1614156132f0576132eb816136fd565b61332f565b8173ffffffffffffffffffffffffffffffffffffffff168373ffffffffffffffffffffffffffffffffffffffff161461332e5761332d8382613746565b5b5b600073ffffffffffffffffffffffffffffffffffffffff168273ffffffffffffffffffffffffffffffffffffffff1614156133725761336d816138b3565b6133b1565b8273ffffffffffffffffffffffffffffffffffffffff168273ffffffffffffffffffffffffffffffffffffffff16146133b0576133af8282613984565b5b5b505050565b600073ffffffffffffffffffffffffffffffffffffffff168273ffffffffffffffffffffffffffffffffffffffff161415613426576040517f08c379a000000000000000000000000000000000000000000000000000000000815260040161341d90615a3d565b60405180910390fd5b61342f816124fd565b1561346f576040517f08c379a000000000000000000000000000000000000000000000000000000000815260040161346690615aa9565b60405180910390fd5b61347b60008383612e59565b6001600360008473ffffffffffffffffffffffffffffffffffffffff1673ffffffffffffffffffffffffffffffffffffffff16815260200190815260200160002060008282546134cb919061487e565b92505081905550816002600083815260200190815260200160002060006101000a81548173ffffffffffffffffffffffffffffffffffffffff021916908373ffffffffffffffffffffffffffffffffffffffff160217905550808273ffffffffffffffffffffffffffffffffffffffff16600073ffffffffffffffffffffffffffffffffffffffff167fddf252ad1be2c89b69c2b068fc378daa952ba7f163c4a11628f55a4df523b3ef60405160405180910390a45050565b600080823b905060008111915050919050565b606060008214156135df576040518060400160405280600181526020017f300000000000000000000000000000000000000000000000000000000000000081525090506136f3565b600082905060005b600082146136115780806135fa906148d4565b915050600a8261360a919061570c565b91506135e7565b60008167ffffffffffffffff81111561362d5761362c613ec8565b5b6040519080825280601f01601f19166020018201604052801561365f5781602001600182028036833780820191505090505b5090505b600085146136ec57600182613678919061484a565b9150600a856136879190615ac9565b6030613693919061487e565b60f81b8183815181106136a9576136a86144fd565b5b60200101907effffffffffffffffffffffffffffffffffffffffffffffffffffffffffffff1916908160001a905350600a856136e5919061570c565b9450613663565b8093505050505b919050565b505050565b600980549050600a600083815260200190815260200160002081905550600981908060018154018082558091505060019003906000526020600020016000909190919091505550565b60006001613753846116f4565b61375d919061484a565b9050600060086000848152602001908152602001600020549050818114613842576000600760008673ffffffffffffffffffffffffffffffffffffffff1673ffffffffffffffffffffffffffffffffffffffff168152602001908152602001600020600084815260200190815260200160002054905080600760008773ffffffffffffffffffffffffffffffffffffffff1673ffffffffffffffffffffffffffffffffffffffff168152602001908152602001600020600084815260200190815260200160002081905550816008600083815260200190815260200160002081905550505b6008600084815260200190815260200160002060009055600760008573ffffffffffffffffffffffffffffffffffffffff1673ffffffffffffffffffffffffffffffffffffffff16815260200190815260200160002060008381526020019081526020016000206000905550505050565b600060016009805490506138c7919061484a565b90506000600a60008481526020019081526020016000205490506000600983815481106138f7576138f66144fd565b5b906000526020600020015490508060098381548110613919576139186144fd565b5b906000526020600020018190555081600a600083815260200190815260200160002081905550600a60008581526020019081526020016000206000905560098054806139685761396761491d565b5b6001900381819060005260206000200160009055905550505050565b600061398f836116f4565b905081600760008573ffffffffffffffffffffffffffffffffffffffff1673ffffffffffffffffffffffffffffffffffffffff168152602001908152602001600020600083815260200190815260200160002081905550806008600084815260200190815260200160002081905550505050565b828054613a0f906145c7565b90600052602060002090601f016020900481019282613a315760008555613a78565b82601f10613a4a57805160ff1916838001178555613a78565b82800160010185558215613a78579182015b82811115613a77578251825591602001919060010190613a5c565b5b509050613a859190613a89565b5090565b5b80821115613aa2576000816000905550600101613a8a565b5090565b6000819050919050565b613ab981613aa6565b82525050565b6000606082019050613ad46000830186613ab0565b613ae16020830185613ab0565b613aee6040830184613ab0565b949350505050565b6000604051905090565b600080fd5b600080fd5b60007fffffffff0000000000000000000000000000000000000000000000000000000082169050919050565b613b3f81613b0a565b8114613b4a57600080fd5b50565b600081359050613b5c81613b36565b92915050565b600060208284031215613b7857613b77613b00565b5b6000613b8684828501613b4d565b91505092915050565b60008115159050919050565b613ba481613b8f565b82525050565b6000602082019050613bbf6000830184613b9b565b92915050565b613bce81613b8f565b8114613bd957600080fd5b50565b600081359050613beb81613bc5565b92915050565b600060208284031215613c0757613c06613b00565b5b6000613c1584828501613bdc565b91505092915050565b600081519050919050565b600082825260208201905092915050565b60005b83811015613c58578082015181840152602081019050613c3d565b83811115613c67576000848401525b50505050565b6000601f19601f8301169050919050565b6000613c8982613c1e565b613c938185613c29565b9350613ca3818560208601613c3a565b613cac81613c6d565b840191505092915050565b60006020820190508181036000830152613cd18184613c7e565b905092915050565b613ce281613aa6565b8114613ced57600080fd5b50565b600081359050613cff81613cd9565b92915050565b600060208284031215613d1b57613d1a613b00565b5b6000613d2984828501613cf0565b91505092915050565b600073ffffffffffffffffffffffffffffffffffffffff82169050919050565b6000613d5d82613d32565b9050919050565b613d6d81613d52565b82525050565b6000602082019050613d886000830184613d64565b92915050565b613d9781613d52565b8114613da257600080fd5b50565b600081359050613db481613d8e565b92915050565b60008060408385031215613dd157613dd0613b00565b5b6000613ddf85828601613da5565b9250506020613df085828601613cf0565b9150509250929050565b600060208284031215613e1057613e0f613b00565b5b6000613e1e84828501613da5565b91505092915050565b6000602082019050613e3c6000830184613ab0565b92915050565b600080600060608486031215613e5b57613e5a613b00565b5b6000613e6986828701613da5565b9350506020613e7a86828701613da5565b9250506040613e8b86828701613cf0565b9150509250925092565b6000604082019050613eaa6000830185613ab0565b613eb76020830184613ab0565b9392505050565b600080fd5b600080fd5b7f4e487b7100000000000000000000000000000000000000000000000000000000600052604160045260246000fd5b613f0082613c6d565b810181811067ffffffffffffffff82111715613f1f57613f1e613ec8565b5b80604052505050565b6000613f32613af6565b9050613f3e8282613ef7565b919050565b600067ffffffffffffffff821115613f5e57613f5d613ec8565b5b613f6782613c6d565b9050602081019050919050565b82818337600083830152505050565b6000613f96613f9184613f43565b613f28565b905082815260208101848484011115613fb257613fb1613ec3565b5b613fbd848285613f74565b509392505050565b600082601f830112613fda57613fd9613ebe565b5b8135613fea848260208601613f83565b91505092915050565b60006020828403121561400957614008613b00565b5b600082013567ffffffffffffffff81111561402757614026613b05565b5b61403384828501613fc5565b91505092915050565b6000819050919050565b61404f8161403c565b811461405a57600080fd5b50565b60008135905061406c81614046565b92915050565b60006020828403121561408857614087613b00565b5b60006140968482850161405d565b91505092915050565b600080fd5b600080fd5b60008083601f8401126140bf576140be613ebe565b5b8235905067ffffffffffffffff8111156140dc576140db61409f565b5b6020830191508360208202830111156140f8576140f76140a4565b5b9250929050565b60008060008060006080868803121561411b5761411a613b00565b5b600061412988828901613da5565b955050602061413a88828901613cf0565b945050604086013567ffffffffffffffff81111561415b5761415a613b05565b5b61416788828901613fc5565b935050606086013567ffffffffffffffff81111561418857614187613b05565b5b614194888289016140a9565b92509250509295509295909350565b600081519050919050565b600082825260208201905092915050565b6000819050602082019050919050565b6141d881613d52565b82525050565b60006141ea83836141cf565b60208301905092915050565b6000602082019050919050565b600061420e826141a3565b61421881856141ae565b9350614223836141bf565b8060005b8381101561425457815161423b88826141de565b9750614246836141f6565b925050600181019050614227565b5085935050505092915050565b6000602082019050818103600083015261427b8184614203565b905092915050565b6000806040838503121561429a57614299613b00565b5b60006142a885828601613da5565b92505060206142b985828601613bdc565b9150509250929050565b600080fd5b6000606082840312156142de576142dd6142c3565b5b6142e86060613f28565b905060006142f884828501613cf0565b600083015250602061430c84828501613cf0565b602083015250604061432084828501613cf0565b60408301525092915050565b60006060828403121561434257614341613b00565b5b6000614350848285016142c8565b91505092915050565b600067ffffffffffffffff82111561437457614373613ec8565b5b61437d82613c6d565b9050602081019050919050565b600061439d61439884614359565b613f28565b9050828152602081018484840111156143b9576143b8613ec3565b5b6143c4848285613f74565b509392505050565b600082601f8301126143e1576143e0613ebe565b5b81356143f184826020860161438a565b91505092915050565b6000806000806080858703121561441457614413613b00565b5b600061442287828801613da5565b945050602061443387828801613da5565b935050604061444487828801613cf0565b925050606085013567ffffffffffffffff81111561446557614464613b05565b5b614471878288016143cc565b91505092959194509250565b6000806040838503121561449457614493613b00565b5b60006144a285828601613cf0565b92505060206144b385828601613cf0565b9150509250929050565b600080604083850312156144d4576144d3613b00565b5b60006144e285828601613da5565b92505060206144f385828601613da5565b9150509250929050565b7f4e487b7100000000000000000000000000000000000000000000000000000000600052603260045260246000fd5b7f43616c6c6572206973206e6f7420616e206f776e657200000000000000000000600082015250565b6000614562601683613c29565b915061456d8261452c565b602082019050919050565b6000602082019050818103600083015261459181614555565b9050919050565b7f4e487b7100000000000000000000000000000000000000000000000000000000600052602260045260246000fd5b600060028204905060018216806145df57607f821691505b602082108114156145f3576145f2614598565b5b50919050565b7f4552433732313a20617070726f76656420717565727920666f72206e6f6e657860008201527f697374656e7420746f6b656e0000000000000000000000000000000000000000602082015250565b6000614655602c83613c29565b9150614660826145f9565b604082019050919050565b6000602082019050818103600083015261468481614648565b9050919050565b7f4552433732313a20617070726f76616c20746f2063757272656e74206f776e6560008201527f7200000000000000000000000000000000000000000000000000000000000000602082015250565b60006146e7602183613c29565b91506146f28261468b565b604082019050919050565b60006020820190508181036000830152614716816146da565b9050919050565b7f4552433732313a20617070726f76652063616c6c6572206973206e6f74206f7760008201527f6e6572206e6f7220617070726f76656420666f7220616c6c0000000000000000602082015250565b6000614779603883613c29565b91506147848261471d565b604082019050919050565b600060208201905081810360008301526147a88161476c565b9050919050565b7f41646472657373206973206e6f7420616e206f776e6572000000000000000000600082015250565b60006147e5601783613c29565b91506147f0826147af565b602082019050919050565b60006020820190508181036000830152614814816147d8565b9050919050565b7f4e487b7100000000000000000000000000000000000000000000000000000000600052601160045260246000fd5b600061485582613aa6565b915061486083613aa6565b9250828210156148735761487261481b565b5b828203905092915050565b600061488982613aa6565b915061489483613aa6565b9250827fffffffffffffffffffffffffffffffffffffffffffffffffffffffffffffffff038211156148c9576148c861481b565b5b828201905092915050565b60006148df82613aa6565b91507fffffffffffffffffffffffffffffffffffffffffffffffffffffffffffffffff8214156149125761491161481b565b5b600182019050919050565b7f4e487b7100000000000000000000000000000000000000000000000000000000600052603160045260246000fd5b7f4552433732313a207472616e736665722063616c6c6572206973206e6f74206f60008201527f776e6572206e6f7220617070726f766564000000000000000000000000000000602082015250565b60006149a8603183613c29565b91506149b38261494c565b604082019050919050565b600060208201905081810360008301526149d78161499b565b9050919050565b7f455243373231456e756d657261626c653a206f776e657220696e646578206f7560008201527f74206f6620626f756e6473000000000000000000000000000000000000000000602082015250565b6000614a3a602b83613c29565b9150614a45826149de565b604082019050919050565b60006020820190508181036000830152614a6981614a2d565b9050919050565b7f455243373231456e756d657261626c653a20676c6f62616c20696e646578206f60008201527f7574206f6620626f756e64730000000000000000000000000000000000000000602082015250565b6000614acc602c83613c29565b9150614ad782614a70565b604082019050919050565b60006020820190508181036000830152614afb81614abf565b9050919050565b7f4552433732313a206f776e657220717565727920666f72206e6f6e657869737460008201527f656e7420746f6b656e0000000000000000000000000000000000000000000000602082015250565b6000614b5e602983613c29565b9150614b6982614b02565b604082019050919050565b60006020820190508181036000830152614b8d81614b51565b9050919050565b7f4552433732313a2062616c616e636520717565727920666f7220746865207a6560008201527f726f206164647265737300000000000000000000000000000000000000000000602082015250565b6000614bf0602a83613c29565b9150614bfb82614b94565b604082019050919050565b60006020820190508181036000830152614c1f81614be3565b9050919050565b7f4d696e74696e6720697320706175736564000000000000000000000000000000600082015250565b6000614c5c601183613c29565b9150614c6782614c26565b602082019050919050565b60006020820190508181036000830152614c8b81614c4f565b9050919050565b60008160601b9050919050565b6000614caa82614c92565b9050919050565b6000614cbc82614c9f565b9050919050565b614cd4614ccf82613d52565b614cb1565b82525050565b6000614ce68284614cc3565b60148201915081905092915050565b7f546869732061646472657373206973206e6f742077686974656c697374656400600082015250565b6000614d2b601f83613c29565b9150614d3682614cf5565b602082019050919050565b60006020820190508181036000830152614d5a81614d1e565b9050919050565b7f4d6178206d696e7420616d6f756e742072656163686564000000000000000000600082015250565b6000614d97601783613c29565b9150614da282614d61565b602082019050919050565b60006020820190508181036000830152614dc681614d8a565b9050919050565b7f537570706c792063617020726561636865640000000000000000000000000000600082015250565b6000614e03601283613c29565b9150614e0e82614dcd565b602082019050919050565b60006020820190508181036000830152614e3281614df6565b9050919050565b7f416d6f756e7420657863656564732063757272656e742070726963652072616e60008201527f6765206d61780000000000000000000000000000000000000000000000000000602082015250565b6000614e95602683613c29565b9150614ea082614e39565b604082019050919050565b60006020820190508181036000830152614ec481614e88565b9050919050565b6000614ed682613aa6565b9150614ee183613aa6565b9250817fffffffffffffffffffffffffffffffffffffffffffffffffffffffffffffffff0483118215151615614f1a57614f1961481b565b5b828202905092915050565b7f45746865722073656e74206973206e6f7420636f727265637400000000000000600082015250565b6000614f5b601983613c29565b9150614f6682614f25565b602082019050919050565b60006020820190508181036000830152614f8a81614f4e565b9050919050565b614f9a81613d52565b82525050565b6000614fac8383614f91565b60208301905092915050565b614fc181613aa6565b82525050565b6000614fd38383614fb8565b60208301905092915050565b600082016000820151614ff28482614fa0565b93505060208201516150048482614fa0565b93505060408201516150168482614fc7565b93505060608201516150288482614fc7565b935050505050565b600061503c8284614fdf565b60808201915081905092915050565b7f436170206f662030206d616b6573206e6f2073656e7365000000000000000000600082015250565b6000615081601783613c29565b915061508c8261504b565b602082019050919050565b600060208201905081810360008301526150b081615074565b9050919050565b6000815190506150c681613cd9565b92915050565b6000602082840312156150e2576150e1613b00565b5b60006150f0848285016150b7565b91505092915050565b7f546f6b656e2062616c616e6365206e6f74206869676820656e6f75676820746f60008201527f20636f6d706f756e640000000000000000000000000000000000000000000000602082015250565b6000615155602983613c29565b9150615160826150f9565b604082019050919050565b6000602082019050818103600083015261518481615148565b9050919050565b60006040820190506151a06000830185613d64565b6151ad6020830184613d64565b9392505050565b7f496e63726561736520636f6e7472616374207370656e6420616c6c6f77616e6360008201527f6500000000000000000000000000000000000000000000000000000000000000602082015250565b6000615210602183613c29565b915061521b826151b4565b604082019050919050565b6000602082019050818103600083015261523f81615203565b9050919050565b7f596f7520646f206e6f74206f776e2074686174204e4654000000000000000000600082015250565b600061527c601783613c29565b915061528782615246565b602082019050919050565b600060208201905081810360008301526152ab8161526f565b9050919050565b7f54686973204e465420697320616c7265616479206d6178206c6576656c000000600082015250565b60006152e8601d83613c29565b91506152f3826152b2565b602082019050919050565b60006020820190508181036000830152615317816152db565b9050919050565b60006060820190506153336000830186613d64565b6153406020830185613d64565b61534d6040830184613ab0565b949350505050565b60008151905061536481613bc5565b92915050565b6000602082840312156153805761537f613b00565b5b600061538e84828501615355565b91505092915050565b7f4552433732313a206f70657261746f7220717565727920666f72206e6f6e657860008201527f697374656e7420746f6b656e0000000000000000000000000000000000000000602082015250565b60006153f3602c83613c29565b91506153fe82615397565b604082019050919050565b60006020820190508181036000830152615422816153e6565b9050919050565b7f4552433732313a207472616e73666572206f6620746f6b656e2074686174206960008201527f73206e6f74206f776e0000000000000000000000000000000000000000000000602082015250565b6000615485602983613c29565b915061549082615429565b604082019050919050565b600060208201905081810360008301526154b481615478565b9050919050565b7f4552433732313a207472616e7366657220746f20746865207a65726f2061646460008201527f7265737300000000000000000000000000000000000000000000000000000000602082015250565b6000615517602483613c29565b9150615522826154bb565b604082019050919050565b600060208201905081810360008301526155468161550a565b9050919050565b7f45524337323155524953746f726167653a2055524920736574206f66206e6f6e60008201527f6578697374656e7420746f6b656e000000000000000000000000000000000000602082015250565b60006155a9602e83613c29565b91506155b48261554d565b604082019050919050565b600060208201905081810360008301526155d88161559c565b9050919050565b7f4552433732313a20617070726f766520746f2063616c6c657200000000000000600082015250565b6000615615601983613c29565b9150615620826155df565b602082019050919050565b6000602082019050818103600083015261564481615608565b9050919050565b7f4552433732313a207472616e7366657220746f206e6f6e20455243373231526560008201527f63656976657220696d706c656d656e7465720000000000000000000000000000602082015250565b60006156a7603283613c29565b91506156b28261564b565b604082019050919050565b600060208201905081810360008301526156d68161569a565b9050919050565b7f4e487b7100000000000000000000000000000000000000000000000000000000600052601260045260246000fd5b600061571782613aa6565b915061572283613aa6565b925082615732576157316156dd565b5b828204905092915050565b7f45524337323155524953746f726167653a2055524920717565727920666f722060008201527f6e6f6e6578697374656e7420746f6b656e000000000000000000000000000000602082015250565b6000615799603183613c29565b91506157a48261573d565b604082019050919050565b600060208201905081810360008301526157c88161578c565b9050919050565b600081905092915050565b60006157e582613c1e565b6157ef81856157cf565b93506157ff818560208601613c3a565b80840191505092915050565b600061581782856157da565b915061582382846157da565b91508190509392505050565b6000819050919050565b61584a6158458261403c565b61582f565b82525050565b600061585c8285615839565b60208201915061586c8284615839565b6020820191508190509392505050565b600081519050919050565b600082825260208201905092915050565b60006158a38261587c565b6158ad8185615887565b93506158bd818560208601613c3a565b6158c681613c6d565b840191505092915050565b60006080820190506158e66000830187613d64565b6158f36020830186613d64565b6159006040830185613ab0565b81810360608301526159128184615898565b905095945050505050565b60008151905061592c81613b36565b92915050565b60006020828403121561594857615947613b00565b5b60006159568482850161591d565b91505092915050565b7f4552433732314d657461646174613a2055524920717565727920666f72206e6f60008201527f6e6578697374656e7420746f6b656e0000000000000000000000000000000000602082015250565b60006159bb602f83613c29565b91506159c68261595f565b604082019050919050565b600060208201905081810360008301526159ea816159ae565b9050919050565b7f4552433732313a206d696e7420746f20746865207a65726f2061646472657373600082015250565b6000615a27602083613c29565b9150615a32826159f1565b602082019050919050565b60006020820190508181036000830152615a5681615a1a565b9050919050565b7f4552433732313a20746f6b656e20616c7265616479206d696e74656400000000600082015250565b6000615a93601c83613c29565b9150615a9e82615a5d565b602082019050919050565b60006020820190508181036000830152615ac281615a86565b9050919050565b6000615ad482613aa6565b9150615adf83613aa6565b925082615aef57615aee6156dd565b5b82820690509291505056fea26469706673582212208b6835836b845f21be282dad050b624bb3995549b78075178086f9313147cc5164736f6c634300080b0033",
  "immutableReferences": {},
  "source": "// SPDX-License-Identifier: MIT\r\n\r\npragma solidity ^0.8.11;\r\n\r\nimport \"./Owners.sol\";\r\nimport \"@openzeppelin/contracts/token/ERC721/extensions/ERC721URIStorage.sol\";\r\nimport \"@openzeppelin/contracts/utils/Counters.sol\";\r\nimport \"@openzeppelin/contracts/utils/math/SafeMath.sol\";\r\nimport \"@openzeppelin/contracts/token/ERC721/extensions/ERC721Enumerable.sol\";\r\nimport \"@openzeppelin/contracts/utils/cryptography/MerkleProof.sol\";\r\nimport \"@openzeppelin/contracts/token/ERC20/IERC20.sol\";\r\n\r\ncontract SlimeNFT is ERC721URIStorage, ERC721Enumerable, Owners {\r\n\tusing Counters for Counters.Counter;\r\n\tusing SafeMath for uint256;\r\n\r\n\tstruct MintedEvent {\r\n\t\taddress minter;\r\n\t\taddress to;\r\n\t\tuint256 amount;\r\n\t\tuint256 time;\r\n\t}\r\n\tevent Minted(MintedEvent indexed mintedData);\r\n\r\n\tCounters.Counter private _tokenIdCounter;\r\n\tCounters.Counter private _priceRangeCounter;\r\n\r\n\taddress private _tokenAddress;\r\n\tIERC20 private _token;\r\n\r\n\tbool public paused;\r\n\tuint256 public maxMint;\r\n\r\n\tstring private __baseURI;\r\n\tmapping(address => uint256) amountMinted;\r\n\r\n\tbool public whitelistEnabled;\r\n\tbytes32 private merkleRoot;\r\n\r\n\tstruct PriceRange {\r\n\t\tuint256 price;\r\n\t\tuint256 minted;\r\n\t\tuint256 cap;\r\n\t}\r\n\tPriceRange[] private _priceRanges;\r\n\r\n\tfunction getCurrentPriceRange()\r\n\t\texternal\r\n\t\tview\r\n\t\treturns (\r\n\t\t\tuint256,\r\n\t\t\tuint256,\r\n\t\t\tuint256\r\n\t\t)\r\n\t{\r\n\t\tuint256 currPriceRange = _priceRangeCounter.current();\r\n\t\tif (currPriceRange >= _priceRanges.length) {\r\n\t\t\tcurrPriceRange = currPriceRange.sub(1);\r\n\t\t}\r\n\t\tPriceRange storage priceRange = _priceRanges[currPriceRange];\r\n\t\treturn (priceRange.price, priceRange.minted, priceRange.cap);\r\n\t}\r\n\r\n\tuint256 private maxLevel;\r\n\tuint256 private tokensPerLevel;\r\n\tstruct SlimeInfo {\r\n\t\tuint256 amountCompounded;\r\n\t\tuint256 level;\r\n\t}\r\n\tmapping(uint256 => SlimeInfo) public slimeInfo;\r\n\r\n\tconstructor(\r\n\t\tstring memory baseURI,\r\n\t\tuint256 _maxMint,\r\n\t\tPriceRange[] memory priceRanges\r\n\t) ERC721(\"Slime\", \"SLM\") {\r\n\t\trequire(bytes(baseURI).length > 0, \"Must set base URI\");\r\n\t\t__baseURI = baseURI;\r\n\t\tmaxMint = _maxMint;\r\n\t\tfor (uint256 i = 0; i < priceRanges.length; i++) {\r\n\t\t\t_priceRanges.push(priceRanges[i]);\r\n\t\t}\r\n\t}\r\n\r\n\tmodifier pauseCheck() {\r\n\t\trequire(!paused || isOwner(msg.sender), \"Minting is paused\");\r\n\t\t_;\r\n\t}\r\n\r\n\tfunction mint(\r\n\t\taddress to,\r\n\t\tuint256 amount,\r\n\t\tstring memory _tokenURI,\r\n\t\tbytes32[] calldata merkleProof\r\n\t) external payable pauseCheck {\r\n\t\tif (whitelistEnabled) {\r\n\t\t\tbytes32 merkleLeaf = keccak256(abi.encodePacked(to));\r\n\t\t\trequire(\r\n\t\t\t\tMerkleProof.verify(merkleProof, merkleRoot, merkleLeaf),\r\n\t\t\t\t\"This address is not whitelisted\"\r\n\t\t\t);\r\n\t\t}\r\n\r\n\t\tuint256 mintAmount = amountMinted[to] + amount;\r\n\t\trequire(mintAmount <= maxMint, \"Max mint amount reached\");\r\n\r\n\t\tuint256 currPriceRange = _priceRangeCounter.current();\r\n\t\trequire(currPriceRange < _priceRanges.length, \"Supply cap reached\");\r\n\r\n\t\tPriceRange storage priceRange = _priceRanges[currPriceRange];\r\n\t\trequire(\r\n\t\t\tmintAmount <= priceRange.cap,\r\n\t\t\t\"Amount exceeds current price range max\"\r\n\t\t);\r\n\r\n\t\trequire(\r\n\t\t\tmsg.value == (amount * priceRange.price * 10**18),\r\n\t\t\t\"Ether sent is not correct\"\r\n\t\t);\r\n\r\n\t\tuint256 currTokenID = _tokenIdCounter.current();\r\n\t\tfor (uint256 i = 0; i < amount; i++) {\r\n\t\t\t_safeMint(to, currTokenID);\r\n\t\t\t_setTokenURI(currTokenID, _tokenURI);\r\n\t\t\t_tokenIdCounter.increment();\r\n\t\t\tcurrTokenID = _tokenIdCounter.current();\r\n\t\t\tslimeInfo[currTokenID] = SlimeInfo({\r\n\t\t\t\tamountCompounded: 0,\r\n\t\t\t\tlevel: 0\r\n\t\t\t});\r\n\t\t\tpriceRange.minted = priceRange.minted.add(1);\r\n\t\t\tamountMinted[to] = amountMinted[to].add(1);\r\n\t\t}\r\n\t\tif (priceRange.minted >= priceRange.cap) {\r\n\t\t\t_priceRangeCounter.increment();\r\n\t\t}\r\n\r\n\t\temit Minted(\r\n\t\t\tMintedEvent({\r\n\t\t\t\tminter: msg.sender,\r\n\t\t\t\tto: to,\r\n\t\t\t\tamount: amount,\r\n\t\t\t\ttime: block.timestamp\r\n\t\t\t})\r\n\t\t);\r\n\t}\r\n\r\n\tfunction compound(uint256 amount, uint256 tokenID) public {\r\n\t\trequire(\r\n\t\t\tamount <= _token.balanceOf(msg.sender),\r\n\t\t\t\"Token balance not high enough to compound\"\r\n\t\t);\r\n\t\trequire(\r\n\t\t\tamount <= _token.allowance(msg.sender, address(this)),\r\n\t\t\t\"Increase contract spend allowance\"\r\n\t\t);\r\n\t\trequire(msg.sender == ownerOf(tokenID), \"You do not own that NFT\");\r\n\t\tSlimeInfo storage info = slimeInfo[tokenID];\r\n\t\trequire(info.level < maxLevel, \"This NFT is already max level\");\r\n\t\tinfo.amountCompounded += amount;\r\n\t\tinfo.level = info.amountCompounded.div(tokensPerLevel);\r\n\t\tuint256 excess = 0;\r\n\t\tif (info.level >= maxLevel) {\r\n\t\t\texcess = info.amountCompounded - (maxLevel * tokensPerLevel);\r\n\t\t\tinfo.level = maxLevel;\r\n\t\t}\r\n\t\t_token.transferFrom(msg.sender, address(this), amount - excess);\r\n\t}\r\n\r\n\tfunction setToken(address tokenAddress) external onlyOwners {\r\n\t\t_tokenAddress = tokenAddress;\r\n\t\t_token = IERC20(tokenAddress);\r\n\t}\r\n\r\n\tfunction addPriceRange(PriceRange memory priceRange) external onlyOwners {\r\n\t\trequire(priceRange.cap > 0, \"Cap of 0 makes no sense\");\r\n\t\t_priceRanges.push(priceRange);\r\n\t}\r\n\r\n\t// Return the current supply, not the capped max capped supply.\r\n\tfunction totalSupply() public view override returns (uint256) {\r\n\t\treturn _tokenIdCounter.current();\r\n\t}\r\n\r\n\tfunction setPaused(bool _paused) external onlyOwners {\r\n\t\tpaused = _paused;\r\n\t}\r\n\r\n\tfunction _baseURI() internal view virtual override returns (string memory) {\r\n\t\treturn __baseURI;\r\n\t}\r\n\r\n\tfunction setBaseURI(string memory baseURI) external onlyOwners {\r\n\t\t__baseURI = baseURI;\r\n\t}\r\n\r\n\tfunction setMaxMint(uint256 _maxMint) external onlyOwners {\r\n\t\tmaxMint = _maxMint;\r\n\t}\r\n\r\n\tfunction setMerkleRoot(bytes32 _merkleRoot) external onlyOwners {\r\n\t\tmerkleRoot = _merkleRoot;\r\n\t}\r\n\r\n\tfunction setWhitelistEnabled(bool enabled) external onlyOwners {\r\n\t\twhitelistEnabled = enabled;\r\n\t}\r\n\r\n\t// Below are hooks that must be overridden because two or more parents contain them.\r\n\tfunction _beforeTokenTransfer(\r\n\t\taddress from,\r\n\t\taddress to,\r\n\t\tuint256 tokenId\r\n\t) internal override(ERC721, ERC721Enumerable) {\r\n\t\tsuper._beforeTokenTransfer(from, to, tokenId);\r\n\t}\r\n\r\n\tfunction _burn(uint256 tokenId)\r\n\t\tinternal\r\n\t\toverride(ERC721, ERC721URIStorage)\r\n\t{\r\n\t\tsuper._burn(tokenId);\r\n\t}\r\n\r\n\tfunction supportsInterface(bytes4 interfaceId)\r\n\t\tpublic\r\n\t\tview\r\n\t\tvirtual\r\n\t\toverride(ERC721, ERC721Enumerable)\r\n\t\treturns (bool)\r\n\t{\r\n\t\treturn super.supportsInterface(interfaceId);\r\n\t}\r\n\r\n\tfunction tokenURI(uint256 tokenId)\r\n\t\tpublic\r\n\t\tview\r\n\t\tvirtual\r\n\t\toverride(ERC721, ERC721URIStorage)\r\n\t\treturns (string memory)\r\n\t{\r\n\t\treturn super.tokenURI(tokenId);\r\n\t}\r\n}\r\n",
  "sourcePath": "C:\\Users\\sants\\Desktop\\slimekeeper\\slimekeeper_contracts\\contracts\\SlimeNFT.sol",
  "compiler": {
    "name": "solc",
    "version": "0.8.11+commit.d7f03943.Emscripten.clang"
  },
  "schemaVersion": "3.4.4",
  "updatedAt": "2022-02-05T16:26:01.003Z",
  "devdoc": {
    "kind": "dev",
    "methods": {
      "approve(address,uint256)": {
        "details": "See {IERC721-approve}."
      },
      "balanceOf(address)": {
        "details": "See {IERC721-balanceOf}."
      },
      "getApproved(uint256)": {
        "details": "See {IERC721-getApproved}."
      },
      "isApprovedForAll(address,address)": {
        "details": "See {IERC721-isApprovedForAll}."
      },
      "name()": {
        "details": "See {IERC721Metadata-name}."
      },
      "ownerOf(uint256)": {
        "details": "See {IERC721-ownerOf}."
      },
      "safeTransferFrom(address,address,uint256)": {
        "details": "See {IERC721-safeTransferFrom}."
      },
      "safeTransferFrom(address,address,uint256,bytes)": {
        "details": "See {IERC721-safeTransferFrom}."
      },
      "setApprovalForAll(address,bool)": {
        "details": "See {IERC721-setApprovalForAll}."
      },
      "symbol()": {
        "details": "See {IERC721Metadata-symbol}."
      },
      "tokenByIndex(uint256)": {
        "details": "See {IERC721Enumerable-tokenByIndex}."
      },
      "tokenOfOwnerByIndex(address,uint256)": {
        "details": "See {IERC721Enumerable-tokenOfOwnerByIndex}."
      },
      "totalSupply()": {
        "details": "See {IERC721Enumerable-totalSupply}."
      },
      "transferFrom(address,address,uint256)": {
        "details": "See {IERC721-transferFrom}."
      }
    },
    "version": 1
  },
  "userdoc": {
    "kind": "user",
    "methods": {},
    "version": 1
  }
}