{
  "contractName": "SlimeNFT",
  "abi": [
    {
      "inputs": [
        {
          "internalType": "uint16",
          "name": "maxSupply",
          "type": "uint16"
        }
      ],
      "stateMutability": "nonpayable",
      "type": "constructor"
    },
    {
      "anonymous": false,
      "inputs": [
        {
          "indexed": true,
          "internalType": "address",
          "name": "owner",
          "type": "address"
        },
        {
          "indexed": true,
          "internalType": "address",
          "name": "approved",
          "type": "address"
        },
        {
          "indexed": true,
          "internalType": "uint256",
          "name": "tokenId",
          "type": "uint256"
        }
      ],
      "name": "Approval",
      "type": "event"
    },
    {
      "anonymous": false,
      "inputs": [
        {
          "indexed": true,
          "internalType": "address",
          "name": "owner",
          "type": "address"
        },
        {
          "indexed": true,
          "internalType": "address",
          "name": "operator",
          "type": "address"
        },
        {
          "indexed": false,
          "internalType": "bool",
          "name": "approved",
          "type": "bool"
        }
      ],
      "name": "ApprovalForAll",
      "type": "event"
    },
    {
      "anonymous": false,
      "inputs": [
        {
          "indexed": true,
          "internalType": "address",
          "name": "previousOwner",
          "type": "address"
        },
        {
          "indexed": true,
          "internalType": "address",
          "name": "newOwner",
          "type": "address"
        }
      ],
      "name": "OwnershipTransferred",
      "type": "event"
    },
    {
      "anonymous": false,
      "inputs": [
        {
          "indexed": true,
          "internalType": "address",
          "name": "from",
          "type": "address"
        },
        {
          "indexed": true,
          "internalType": "address",
          "name": "to",
          "type": "address"
        },
        {
          "indexed": true,
          "internalType": "uint256",
          "name": "tokenId",
          "type": "uint256"
        }
      ],
      "name": "Transfer",
      "type": "event"
    },
    {
      "inputs": [
        {
          "internalType": "address",
          "name": "to",
          "type": "address"
        },
        {
          "internalType": "uint256",
          "name": "tokenId",
          "type": "uint256"
        }
      ],
      "name": "approve",
      "outputs": [],
      "stateMutability": "nonpayable",
      "type": "function"
    },
    {
      "inputs": [
        {
          "internalType": "address",
          "name": "owner",
          "type": "address"
        }
      ],
      "name": "balanceOf",
      "outputs": [
        {
          "internalType": "uint256",
          "name": "",
          "type": "uint256"
        }
      ],
      "stateMutability": "view",
      "type": "function",
      "constant": true
    },
    {
      "inputs": [],
      "name": "current",
      "outputs": [
        {
          "internalType": "uint16",
          "name": "",
          "type": "uint16"
        }
      ],
      "stateMutability": "view",
      "type": "function",
      "constant": true
    },
    {
      "inputs": [
        {
          "internalType": "uint256",
          "name": "tokenId",
          "type": "uint256"
        }
      ],
      "name": "getApproved",
      "outputs": [
        {
          "internalType": "address",
          "name": "",
          "type": "address"
        }
      ],
      "stateMutability": "view",
      "type": "function",
      "constant": true
    },
    {
      "inputs": [
        {
          "internalType": "address",
          "name": "owner",
          "type": "address"
        },
        {
          "internalType": "address",
          "name": "operator",
          "type": "address"
        }
      ],
      "name": "isApprovedForAll",
      "outputs": [
        {
          "internalType": "bool",
          "name": "",
          "type": "bool"
        }
      ],
      "stateMutability": "view",
      "type": "function",
      "constant": true
    },
    {
      "inputs": [],
      "name": "max",
      "outputs": [
        {
          "internalType": "uint16",
          "name": "",
          "type": "uint16"
        }
      ],
      "stateMutability": "view",
      "type": "function",
      "constant": true
    },
    {
      "inputs": [],
      "name": "name",
      "outputs": [
        {
          "internalType": "string",
          "name": "",
          "type": "string"
        }
      ],
      "stateMutability": "view",
      "type": "function",
      "constant": true
    },
    {
      "inputs": [],
      "name": "owner",
      "outputs": [
        {
          "internalType": "address",
          "name": "",
          "type": "address"
        }
      ],
      "stateMutability": "view",
      "type": "function",
      "constant": true
    },
    {
      "inputs": [
        {
          "internalType": "uint256",
          "name": "tokenId",
          "type": "uint256"
        }
      ],
      "name": "ownerOf",
      "outputs": [
        {
          "internalType": "address",
          "name": "",
          "type": "address"
        }
      ],
      "stateMutability": "view",
      "type": "function",
      "constant": true
    },
    {
      "inputs": [],
      "name": "renounceOwnership",
      "outputs": [],
      "stateMutability": "nonpayable",
      "type": "function"
    },
    {
      "inputs": [
        {
          "internalType": "address",
          "name": "from",
          "type": "address"
        },
        {
          "internalType": "address",
          "name": "to",
          "type": "address"
        },
        {
          "internalType": "uint256",
          "name": "tokenId",
          "type": "uint256"
        }
      ],
      "name": "safeTransferFrom",
      "outputs": [],
      "stateMutability": "nonpayable",
      "type": "function"
    },
    {
      "inputs": [
        {
          "internalType": "address",
          "name": "from",
          "type": "address"
        },
        {
          "internalType": "address",
          "name": "to",
          "type": "address"
        },
        {
          "internalType": "uint256",
          "name": "tokenId",
          "type": "uint256"
        },
        {
          "internalType": "bytes",
          "name": "_data",
          "type": "bytes"
        }
      ],
      "name": "safeTransferFrom",
      "outputs": [],
      "stateMutability": "nonpayable",
      "type": "function"
    },
    {
      "inputs": [
        {
          "internalType": "address",
          "name": "operator",
          "type": "address"
        },
        {
          "internalType": "bool",
          "name": "approved",
          "type": "bool"
        }
      ],
      "name": "setApprovalForAll",
      "outputs": [],
      "stateMutability": "nonpayable",
      "type": "function"
    },
    {
      "inputs": [
        {
          "internalType": "bytes4",
          "name": "interfaceId",
          "type": "bytes4"
        }
      ],
      "name": "supportsInterface",
      "outputs": [
        {
          "internalType": "bool",
          "name": "",
          "type": "bool"
        }
      ],
      "stateMutability": "view",
      "type": "function",
      "constant": true
    },
    {
      "inputs": [],
      "name": "symbol",
      "outputs": [
        {
          "internalType": "string",
          "name": "",
          "type": "string"
        }
      ],
      "stateMutability": "view",
      "type": "function",
      "constant": true
    },
    {
      "inputs": [
        {
          "internalType": "uint256",
          "name": "tokenId",
          "type": "uint256"
        }
      ],
      "name": "tokenURI",
      "outputs": [
        {
          "internalType": "string",
          "name": "",
          "type": "string"
        }
      ],
      "stateMutability": "view",
      "type": "function",
      "constant": true
    },
    {
      "inputs": [
        {
          "internalType": "address",
          "name": "from",
          "type": "address"
        },
        {
          "internalType": "address",
          "name": "to",
          "type": "address"
        },
        {
          "internalType": "uint256",
          "name": "tokenId",
          "type": "uint256"
        }
      ],
      "name": "transferFrom",
      "outputs": [],
      "stateMutability": "nonpayable",
      "type": "function"
    },
    {
      "inputs": [
        {
          "internalType": "address",
          "name": "newOwner",
          "type": "address"
        }
      ],
      "name": "transferOwnership",
      "outputs": [],
      "stateMutability": "nonpayable",
      "type": "function"
    },
    {
      "inputs": [
        {
          "internalType": "address",
          "name": "to",
          "type": "address"
        },
        {
          "internalType": "string",
          "name": "tokenURI",
          "type": "string"
        }
      ],
      "name": "mint",
      "outputs": [
        {
          "internalType": "bool",
          "name": "",
          "type": "bool"
        }
      ],
      "stateMutability": "nonpayable",
      "type": "function"
    },
    {
      "inputs": [
        {
          "internalType": "bool",
          "name": "value",
          "type": "bool"
        }
      ],
      "name": "setCanMint",
      "outputs": [],
      "stateMutability": "nonpayable",
      "type": "function"
    }
  ],
  "bytecode": "0x60806040523480156200001157600080fd5b50604051620037f8380380620037f88339818101604052810190620000379190620002fb565b6040518060400160405280600581526020017f536c696d650000000000000000000000000000000000000000000000000000008152506040518060400160405280600381526020017f534c4d00000000000000000000000000000000000000000000000000000000008152508160009080519060200190620000bb92919062000207565b508060019080519060200190620000d492919062000207565b505050620000f7620000eb6200013960201b60201c565b6200014160201b60201c565b80600760146101000a81548161ffff021916908361ffff1602179055506000600760166101000a81548161ffff021916908361ffff1602179055505062000392565b600033905090565b6000600760009054906101000a900473ffffffffffffffffffffffffffffffffffffffff16905081600760006101000a81548173ffffffffffffffffffffffffffffffffffffffff021916908373ffffffffffffffffffffffffffffffffffffffff1602179055508173ffffffffffffffffffffffffffffffffffffffff168173ffffffffffffffffffffffffffffffffffffffff167f8be0079c531659141344cd1fd0a4f28419497f9722a3daafe3b4186f6b6457e060405160405180910390a35050565b82805462000215906200035c565b90600052602060002090601f01602090048101928262000239576000855562000285565b82601f106200025457805160ff191683800117855562000285565b8280016001018555821562000285579182015b828111156200028457825182559160200191906001019062000267565b5b50905062000294919062000298565b5090565b5b80821115620002b357600081600090555060010162000299565b5090565b600080fd5b600061ffff82169050919050565b620002d581620002bc565b8114620002e157600080fd5b50565b600081519050620002f581620002ca565b92915050565b600060208284031215620003145762000313620002b7565b5b60006200032484828501620002e4565b91505092915050565b7f4e487b7100000000000000000000000000000000000000000000000000000000600052602260045260246000fd5b600060028204905060018216806200037557607f821691505b602082108114156200038c576200038b6200032d565b5b50919050565b61345680620003a26000396000f3fe608060405234801561001057600080fd5b506004361061012c5760003560e01c80638da5cb5b116100ad578063b88d4fde11610071578063b88d4fde1461031d578063c87b56dd14610339578063d0def52114610369578063e985e9c514610399578063f2fde38b146103c95761012c565b80638da5cb5b1461028b57806395d89b41146102a95780639a57829a146102c75780639fa6a6e3146102e3578063a22cb465146103015761012c565b806342842e0e116100f457806342842e0e146101e75780636352211e146102035780636ac5db191461023357806370a0823114610251578063715018a6146102815761012c565b806301ffc9a71461013157806306fdde0314610161578063081812fc1461017f578063095ea7b3146101af57806323b872dd146101cb575b600080fd5b61014b60048036038101906101469190611eeb565b6103e5565b6040516101589190611f33565b60405180910390f35b6101696104c7565b6040516101769190611fe7565b60405180910390f35b6101996004803603810190610194919061203f565b610559565b6040516101a691906120ad565b60405180910390f35b6101c960048036038101906101c491906120f4565b6105de565b005b6101e560048036038101906101e09190612134565b6106f6565b005b61020160048036038101906101fc9190612134565b610756565b005b61021d6004803603810190610218919061203f565b610776565b60405161022a91906120ad565b60405180910390f35b61023b610828565b60405161024891906121a4565b60405180910390f35b61026b600480360381019061026691906121bf565b61083c565b60405161027891906121fb565b60405180910390f35b6102896108f4565b005b61029361097c565b6040516102a091906120ad565b60405180910390f35b6102b16109a6565b6040516102be9190611fe7565b60405180910390f35b6102e160048036038101906102dc9190612242565b610a38565b005b6102eb610ad1565b6040516102f891906121a4565b60405180910390f35b61031b6004803603810190610316919061226f565b610ae5565b005b610337600480360381019061033291906123e4565b610afb565b005b610353600480360381019061034e919061203f565b610b5d565b6040516103609190611fe7565b60405180910390f35b610383600480360381019061037e9190612508565b610caf565b6040516103909190611f33565b60405180910390f35b6103b360048036038101906103ae9190612564565b610e47565b6040516103c09190611f33565b60405180910390f35b6103e360048036038101906103de91906121bf565b610edb565b005b60007f80ac58cd000000000000000000000000000000000000000000000000000000007bffffffffffffffffffffffffffffffffffffffffffffffffffffffff1916827bffffffffffffffffffffffffffffffffffffffffffffffffffffffff191614806104b057507f5b5e139f000000000000000000000000000000000000000000000000000000007bffffffffffffffffffffffffffffffffffffffffffffffffffffffff1916827bffffffffffffffffffffffffffffffffffffffffffffffffffffffff1916145b806104c057506104bf82610fd3565b5b9050919050565b6060600080546104d6906125d3565b80601f0160208091040260200160405190810160405280929190818152602001828054610502906125d3565b801561054f5780601f106105245761010080835404028352916020019161054f565b820191906000526020600020905b81548152906001019060200180831161053257829003601f168201915b5050505050905090565b60006105648261103d565b6105a3576040517f08c379a000000000000000000000000000000000000000000000000000000000815260040161059a90612677565b60405180910390fd5b6004600083815260200190815260200160002060009054906101000a900473ffffffffffffffffffffffffffffffffffffffff169050919050565b60006105e982610776565b90508073ffffffffffffffffffffffffffffffffffffffff168373ffffffffffffffffffffffffffffffffffffffff16141561065a576040517f08c379a000000000000000000000000000000000000000000000000000000000815260040161065190612709565b60405180910390fd5b8073ffffffffffffffffffffffffffffffffffffffff166106796110a9565b73ffffffffffffffffffffffffffffffffffffffff1614806106a857506106a7816106a26110a9565b610e47565b5b6106e7576040517f08c379a00000000000000000000000000000000000000000000000000000000081526004016106de9061279b565b60405180910390fd5b6106f183836110b1565b505050565b6107076107016110a9565b8261116a565b610746576040517f08c379a000000000000000000000000000000000000000000000000000000000815260040161073d9061282d565b60405180910390fd5b610751838383611248565b505050565b61077183838360405180602001604052806000815250610afb565b505050565b6000806002600084815260200190815260200160002060009054906101000a900473ffffffffffffffffffffffffffffffffffffffff169050600073ffffffffffffffffffffffffffffffffffffffff168173ffffffffffffffffffffffffffffffffffffffff16141561081f576040517f08c379a0000000000000000000000000000000000000000000000000000000008152600401610816906128bf565b60405180910390fd5b80915050919050565b600760149054906101000a900461ffff1681565b60008073ffffffffffffffffffffffffffffffffffffffff168273ffffffffffffffffffffffffffffffffffffffff1614156108ad576040517f08c379a00000000000000000000000000000000000000000000000000000000081526004016108a490612951565b60405180910390fd5b600360008373ffffffffffffffffffffffffffffffffffffffff1673ffffffffffffffffffffffffffffffffffffffff168152602001908152602001600020549050919050565b6108fc6110a9565b73ffffffffffffffffffffffffffffffffffffffff1661091a61097c565b73ffffffffffffffffffffffffffffffffffffffff1614610970576040517f08c379a0000000000000000000000000000000000000000000000000000000008152600401610967906129bd565b60405180910390fd5b61097a60006114a4565b565b6000600760009054906101000a900473ffffffffffffffffffffffffffffffffffffffff16905090565b6060600180546109b5906125d3565b80601f01602080910402602001604051908101604052809291908181526020018280546109e1906125d3565b8015610a2e5780601f10610a0357610100808354040283529160200191610a2e565b820191906000526020600020905b815481529060010190602001808311610a1157829003601f168201915b5050505050905090565b610a406110a9565b73ffffffffffffffffffffffffffffffffffffffff16610a5e61097c565b73ffffffffffffffffffffffffffffffffffffffff1614610ab4576040517f08c379a0000000000000000000000000000000000000000000000000000000008152600401610aab906129bd565b60405180910390fd5b80600760186101000a81548160ff02191690831515021790555050565b600760169054906101000a900461ffff1681565b610af7610af06110a9565b838361156a565b5050565b610b0c610b066110a9565b8361116a565b610b4b576040517f08c379a0000000000000000000000000000000000000000000000000000000008152600401610b429061282d565b60405180910390fd5b610b57848484846116d7565b50505050565b6060610b688261103d565b610ba7576040517f08c379a0000000000000000000000000000000000000000000000000000000008152600401610b9e90612a4f565b60405180910390fd5b6000600660008481526020019081526020016000208054610bc7906125d3565b80601f0160208091040260200160405190810160405280929190818152602001828054610bf3906125d3565b8015610c405780601f10610c1557610100808354040283529160200191610c40565b820191906000526020600020905b815481529060010190602001808311610c2357829003601f168201915b505050505090506000610c51611733565b9050600081511415610c67578192505050610caa565b600082511115610c9c578082604051602001610c84929190612aab565b60405160208183030381529060405292505050610caa565b610ca58461174a565b925050505b919050565b6000600760149054906101000a900461ffff1661ffff16600760169054906101000a900461ffff1661ffff1610610d1b576040517f08c379a0000000000000000000000000000000000000000000000000000000008152600401610d1290612b1b565b60405180910390fd5b60011515600760189054906101000a900460ff16151514610d71576040517f08c379a0000000000000000000000000000000000000000000000000000000008152600401610d6890612b87565b60405180910390fd5b610d8f83600760169054906101000a900461ffff1661ffff166117f1565b610dad600760169054906101000a900461ffff1661ffff168361180f565b600080610dcf600760169054906101000a900461ffff1661ffff166001611883565b809250819350505080600760166101000a81548161ffff021916908361ffff1602179055506001151582151514610e3b576040517f08c379a0000000000000000000000000000000000000000000000000000000008152600401610e3290612c19565b60405180910390fd5b60019250505092915050565b6000600560008473ffffffffffffffffffffffffffffffffffffffff1673ffffffffffffffffffffffffffffffffffffffff16815260200190815260200160002060008373ffffffffffffffffffffffffffffffffffffffff1673ffffffffffffffffffffffffffffffffffffffff16815260200190815260200160002060009054906101000a900460ff16905092915050565b610ee36110a9565b73ffffffffffffffffffffffffffffffffffffffff16610f0161097c565b73ffffffffffffffffffffffffffffffffffffffff1614610f57576040517f08c379a0000000000000000000000000000000000000000000000000000000008152600401610f4e906129bd565b60405180910390fd5b600073ffffffffffffffffffffffffffffffffffffffff168173ffffffffffffffffffffffffffffffffffffffff161415610fc7576040517f08c379a0000000000000000000000000000000000000000000000000000000008152600401610fbe90612cab565b60405180910390fd5b610fd0816114a4565b50565b60007f01ffc9a7000000000000000000000000000000000000000000000000000000007bffffffffffffffffffffffffffffffffffffffffffffffffffffffff1916827bffffffffffffffffffffffffffffffffffffffffffffffffffffffff1916149050919050565b60008073ffffffffffffffffffffffffffffffffffffffff166002600084815260200190815260200160002060009054906101000a900473ffffffffffffffffffffffffffffffffffffffff1673ffffffffffffffffffffffffffffffffffffffff1614159050919050565b600033905090565b816004600083815260200190815260200160002060006101000a81548173ffffffffffffffffffffffffffffffffffffffff021916908373ffffffffffffffffffffffffffffffffffffffff160217905550808273ffffffffffffffffffffffffffffffffffffffff1661112483610776565b73ffffffffffffffffffffffffffffffffffffffff167f8c5be1e5ebec7d5bd14f71427d1e84f3dd0314c0f7b2291e5b200ac8c7c3b92560405160405180910390a45050565b60006111758261103d565b6111b4576040517f08c379a00000000000000000000000000000000000000000000000000000000081526004016111ab90612d3d565b60405180910390fd5b60006111bf83610776565b90508073ffffffffffffffffffffffffffffffffffffffff168473ffffffffffffffffffffffffffffffffffffffff16148061122e57508373ffffffffffffffffffffffffffffffffffffffff1661121684610559565b73ffffffffffffffffffffffffffffffffffffffff16145b8061123f575061123e8185610e47565b5b91505092915050565b8273ffffffffffffffffffffffffffffffffffffffff1661126882610776565b73ffffffffffffffffffffffffffffffffffffffff16146112be576040517f08c379a00000000000000000000000000000000000000000000000000000000081526004016112b590612dcf565b60405180910390fd5b600073ffffffffffffffffffffffffffffffffffffffff168273ffffffffffffffffffffffffffffffffffffffff16141561132e576040517f08c379a000000000000000000000000000000000000000000000000000000000815260040161132590612e61565b60405180910390fd5b6113398383836118b2565b6113446000826110b1565b6001600360008573ffffffffffffffffffffffffffffffffffffffff1673ffffffffffffffffffffffffffffffffffffffff16815260200190815260200160002060008282546113949190612eb0565b925050819055506001600360008473ffffffffffffffffffffffffffffffffffffffff1673ffffffffffffffffffffffffffffffffffffffff16815260200190815260200160002060008282546113eb9190612ee4565b92505081905550816002600083815260200190815260200160002060006101000a81548173ffffffffffffffffffffffffffffffffffffffff021916908373ffffffffffffffffffffffffffffffffffffffff160217905550808273ffffffffffffffffffffffffffffffffffffffff168473ffffffffffffffffffffffffffffffffffffffff167fddf252ad1be2c89b69c2b068fc378daa952ba7f163c4a11628f55a4df523b3ef60405160405180910390a4505050565b6000600760009054906101000a900473ffffffffffffffffffffffffffffffffffffffff16905081600760006101000a81548173ffffffffffffffffffffffffffffffffffffffff021916908373ffffffffffffffffffffffffffffffffffffffff1602179055508173ffffffffffffffffffffffffffffffffffffffff168173ffffffffffffffffffffffffffffffffffffffff167f8be0079c531659141344cd1fd0a4f28419497f9722a3daafe3b4186f6b6457e060405160405180910390a35050565b8173ffffffffffffffffffffffffffffffffffffffff168373ffffffffffffffffffffffffffffffffffffffff1614156115d9576040517f08c379a00000000000000000000000000000000000000000000000000000000081526004016115d090612f86565b60405180910390fd5b80600560008573ffffffffffffffffffffffffffffffffffffffff1673ffffffffffffffffffffffffffffffffffffffff16815260200190815260200160002060008473ffffffffffffffffffffffffffffffffffffffff1673ffffffffffffffffffffffffffffffffffffffff16815260200190815260200160002060006101000a81548160ff0219169083151502179055508173ffffffffffffffffffffffffffffffffffffffff168373ffffffffffffffffffffffffffffffffffffffff167f17307eab39ab6107e8899845ad3d59bd9653f200f220920489ca2b5937696c31836040516116ca9190611f33565b60405180910390a3505050565b6116e2848484611248565b6116ee848484846118b7565b61172d576040517f08c379a000000000000000000000000000000000000000000000000000000000815260040161172490613018565b60405180910390fd5b50505050565b606060405180602001604052806000815250905090565b60606117558261103d565b611794576040517f08c379a000000000000000000000000000000000000000000000000000000000815260040161178b906130aa565b60405180910390fd5b600061179e611733565b905060008151116117be57604051806020016040528060008152506117e9565b806117c884611a3f565b6040516020016117d9929190612aab565b6040516020818303038152906040525b915050919050565b61180b828260405180602001604052806000815250611ba0565b5050565b6118188261103d565b611857576040517f08c379a000000000000000000000000000000000000000000000000000000000815260040161184e9061313c565b60405180910390fd5b8060066000848152602001908152602001600020908051906020019061187e929190611ddc565b505050565b60008060008385019050848110156118a25760008092509250506118ab565b60018192509250505b9250929050565b505050565b60006118d88473ffffffffffffffffffffffffffffffffffffffff16611bfb565b15611a32578373ffffffffffffffffffffffffffffffffffffffff1663150b7a026119016110a9565b8786866040518563ffffffff1660e01b815260040161192394939291906131b1565b6020604051808303816000875af192505050801561195f57506040513d601f19601f8201168201806040525081019061195c9190613212565b60015b6119e2573d806000811461198f576040519150601f19603f3d011682016040523d82523d6000602084013e611994565b606091505b506000815114156119da576040517f08c379a00000000000000000000000000000000000000000000000000000000081526004016119d190613018565b60405180910390fd5b805181602001fd5b63150b7a0260e01b7bffffffffffffffffffffffffffffffffffffffffffffffffffffffff1916817bffffffffffffffffffffffffffffffffffffffffffffffffffffffff191614915050611a37565b600190505b949350505050565b60606000821415611a87576040518060400160405280600181526020017f30000000000000000000000000000000000000000000000000000000000000008152509050611b9b565b600082905060005b60008214611ab9578080611aa29061323f565b915050600a82611ab291906132b7565b9150611a8f565b60008167ffffffffffffffff811115611ad557611ad46122b9565b5b6040519080825280601f01601f191660200182016040528015611b075781602001600182028036833780820191505090505b5090505b60008514611b9457600182611b209190612eb0565b9150600a85611b2f91906132e8565b6030611b3b9190612ee4565b60f81b818381518110611b5157611b50613319565b5b60200101907effffffffffffffffffffffffffffffffffffffffffffffffffffffffffffff1916908160001a905350600a85611b8d91906132b7565b9450611b0b565b8093505050505b919050565b611baa8383611c0e565b611bb760008484846118b7565b611bf6576040517f08c379a0000000000000000000000000000000000000000000000000000000008152600401611bed90613018565b60405180910390fd5b505050565b600080823b905060008111915050919050565b600073ffffffffffffffffffffffffffffffffffffffff168273ffffffffffffffffffffffffffffffffffffffff161415611c7e576040517f08c379a0000000000000000000000000000000000000000000000000000000008152600401611c7590613394565b60405180910390fd5b611c878161103d565b15611cc7576040517f08c379a0000000000000000000000000000000000000000000000000000000008152600401611cbe90613400565b60405180910390fd5b611cd3600083836118b2565b6001600360008473ffffffffffffffffffffffffffffffffffffffff1673ffffffffffffffffffffffffffffffffffffffff1681526020019081526020016000206000828254611d239190612ee4565b92505081905550816002600083815260200190815260200160002060006101000a81548173ffffffffffffffffffffffffffffffffffffffff021916908373ffffffffffffffffffffffffffffffffffffffff160217905550808273ffffffffffffffffffffffffffffffffffffffff16600073ffffffffffffffffffffffffffffffffffffffff167fddf252ad1be2c89b69c2b068fc378daa952ba7f163c4a11628f55a4df523b3ef60405160405180910390a45050565b828054611de8906125d3565b90600052602060002090601f016020900481019282611e0a5760008555611e51565b82601f10611e2357805160ff1916838001178555611e51565b82800160010185558215611e51579182015b82811115611e50578251825591602001919060010190611e35565b5b509050611e5e9190611e62565b5090565b5b80821115611e7b576000816000905550600101611e63565b5090565b6000604051905090565b600080fd5b600080fd5b60007fffffffff0000000000000000000000000000000000000000000000000000000082169050919050565b611ec881611e93565b8114611ed357600080fd5b50565b600081359050611ee581611ebf565b92915050565b600060208284031215611f0157611f00611e89565b5b6000611f0f84828501611ed6565b91505092915050565b60008115159050919050565b611f2d81611f18565b82525050565b6000602082019050611f486000830184611f24565b92915050565b600081519050919050565b600082825260208201905092915050565b60005b83811015611f88578082015181840152602081019050611f6d565b83811115611f97576000848401525b50505050565b6000601f19601f8301169050919050565b6000611fb982611f4e565b611fc38185611f59565b9350611fd3818560208601611f6a565b611fdc81611f9d565b840191505092915050565b600060208201905081810360008301526120018184611fae565b905092915050565b6000819050919050565b61201c81612009565b811461202757600080fd5b50565b60008135905061203981612013565b92915050565b60006020828403121561205557612054611e89565b5b60006120638482850161202a565b91505092915050565b600073ffffffffffffffffffffffffffffffffffffffff82169050919050565b60006120978261206c565b9050919050565b6120a78161208c565b82525050565b60006020820190506120c2600083018461209e565b92915050565b6120d18161208c565b81146120dc57600080fd5b50565b6000813590506120ee816120c8565b92915050565b6000806040838503121561210b5761210a611e89565b5b6000612119858286016120df565b925050602061212a8582860161202a565b9150509250929050565b60008060006060848603121561214d5761214c611e89565b5b600061215b868287016120df565b935050602061216c868287016120df565b925050604061217d8682870161202a565b9150509250925092565b600061ffff82169050919050565b61219e81612187565b82525050565b60006020820190506121b96000830184612195565b92915050565b6000602082840312156121d5576121d4611e89565b5b60006121e3848285016120df565b91505092915050565b6121f581612009565b82525050565b600060208201905061221060008301846121ec565b92915050565b61221f81611f18565b811461222a57600080fd5b50565b60008135905061223c81612216565b92915050565b60006020828403121561225857612257611e89565b5b60006122668482850161222d565b91505092915050565b6000806040838503121561228657612285611e89565b5b6000612294858286016120df565b92505060206122a58582860161222d565b9150509250929050565b600080fd5b600080fd5b7f4e487b7100000000000000000000000000000000000000000000000000000000600052604160045260246000fd5b6122f182611f9d565b810181811067ffffffffffffffff821117156123105761230f6122b9565b5b80604052505050565b6000612323611e7f565b905061232f82826122e8565b919050565b600067ffffffffffffffff82111561234f5761234e6122b9565b5b61235882611f9d565b9050602081019050919050565b82818337600083830152505050565b600061238761238284612334565b612319565b9050828152602081018484840111156123a3576123a26122b4565b5b6123ae848285612365565b509392505050565b600082601f8301126123cb576123ca6122af565b5b81356123db848260208601612374565b91505092915050565b600080600080608085870312156123fe576123fd611e89565b5b600061240c878288016120df565b945050602061241d878288016120df565b935050604061242e8782880161202a565b925050606085013567ffffffffffffffff81111561244f5761244e611e8e565b5b61245b878288016123b6565b91505092959194509250565b600067ffffffffffffffff821115612482576124816122b9565b5b61248b82611f9d565b9050602081019050919050565b60006124ab6124a684612467565b612319565b9050828152602081018484840111156124c7576124c66122b4565b5b6124d2848285612365565b509392505050565b600082601f8301126124ef576124ee6122af565b5b81356124ff848260208601612498565b91505092915050565b6000806040838503121561251f5761251e611e89565b5b600061252d858286016120df565b925050602083013567ffffffffffffffff81111561254e5761254d611e8e565b5b61255a858286016124da565b9150509250929050565b6000806040838503121561257b5761257a611e89565b5b6000612589858286016120df565b925050602061259a858286016120df565b9150509250929050565b7f4e487b7100000000000000000000000000000000000000000000000000000000600052602260045260246000fd5b600060028204905060018216806125eb57607f821691505b602082108114156125ff576125fe6125a4565b5b50919050565b7f4552433732313a20617070726f76656420717565727920666f72206e6f6e657860008201527f697374656e7420746f6b656e0000000000000000000000000000000000000000602082015250565b6000612661602c83611f59565b915061266c82612605565b604082019050919050565b6000602082019050818103600083015261269081612654565b9050919050565b7f4552433732313a20617070726f76616c20746f2063757272656e74206f776e6560008201527f7200000000000000000000000000000000000000000000000000000000000000602082015250565b60006126f3602183611f59565b91506126fe82612697565b604082019050919050565b60006020820190508181036000830152612722816126e6565b9050919050565b7f4552433732313a20617070726f76652063616c6c6572206973206e6f74206f7760008201527f6e6572206e6f7220617070726f76656420666f7220616c6c0000000000000000602082015250565b6000612785603883611f59565b915061279082612729565b604082019050919050565b600060208201905081810360008301526127b481612778565b9050919050565b7f4552433732313a207472616e736665722063616c6c6572206973206e6f74206f60008201527f776e6572206e6f7220617070726f766564000000000000000000000000000000602082015250565b6000612817603183611f59565b9150612822826127bb565b604082019050919050565b600060208201905081810360008301526128468161280a565b9050919050565b7f4552433732313a206f776e657220717565727920666f72206e6f6e657869737460008201527f656e7420746f6b656e0000000000000000000000000000000000000000000000602082015250565b60006128a9602983611f59565b91506128b48261284d565b604082019050919050565b600060208201905081810360008301526128d88161289c565b9050919050565b7f4552433732313a2062616c616e636520717565727920666f7220746865207a6560008201527f726f206164647265737300000000000000000000000000000000000000000000602082015250565b600061293b602a83611f59565b9150612946826128df565b604082019050919050565b6000602082019050818103600083015261296a8161292e565b9050919050565b7f4f776e61626c653a2063616c6c6572206973206e6f7420746865206f776e6572600082015250565b60006129a7602083611f59565b91506129b282612971565b602082019050919050565b600060208201905081810360008301526129d68161299a565b9050919050565b7f45524337323155524953746f726167653a2055524920717565727920666f722060008201527f6e6f6e6578697374656e7420746f6b656e000000000000000000000000000000602082015250565b6000612a39603183611f59565b9150612a44826129dd565b604082019050919050565b60006020820190508181036000830152612a6881612a2c565b9050919050565b600081905092915050565b6000612a8582611f4e565b612a8f8185612a6f565b9350612a9f818560208601611f6a565b80840191505092915050565b6000612ab78285612a7a565b9150612ac38284612a7a565b91508190509392505050565b7f537570706c792065786365656465642e00000000000000000000000000000000600082015250565b6000612b05601083611f59565b9150612b1082612acf565b602082019050919050565b60006020820190508181036000830152612b3481612af8565b9050919050565b7f43616e2774206d696e74207269676874206e6f772e0000000000000000000000600082015250565b6000612b71601583611f59565b9150612b7c82612b3b565b602082019050919050565b60006020820190508181036000830152612ba081612b64565b9050919050565b7f536f6d657468696e672077656e742077726f6e67207769746820696e6372656d60008201527f656e74696e672063757272656e742e0000000000000000000000000000000000602082015250565b6000612c03602f83611f59565b9150612c0e82612ba7565b604082019050919050565b60006020820190508181036000830152612c3281612bf6565b9050919050565b7f4f776e61626c653a206e6577206f776e657220697320746865207a65726f206160008201527f6464726573730000000000000000000000000000000000000000000000000000602082015250565b6000612c95602683611f59565b9150612ca082612c39565b604082019050919050565b60006020820190508181036000830152612cc481612c88565b9050919050565b7f4552433732313a206f70657261746f7220717565727920666f72206e6f6e657860008201527f697374656e7420746f6b656e0000000000000000000000000000000000000000602082015250565b6000612d27602c83611f59565b9150612d3282612ccb565b604082019050919050565b60006020820190508181036000830152612d5681612d1a565b9050919050565b7f4552433732313a207472616e73666572206f6620746f6b656e2074686174206960008201527f73206e6f74206f776e0000000000000000000000000000000000000000000000602082015250565b6000612db9602983611f59565b9150612dc482612d5d565b604082019050919050565b60006020820190508181036000830152612de881612dac565b9050919050565b7f4552433732313a207472616e7366657220746f20746865207a65726f2061646460008201527f7265737300000000000000000000000000000000000000000000000000000000602082015250565b6000612e4b602483611f59565b9150612e5682612def565b604082019050919050565b60006020820190508181036000830152612e7a81612e3e565b9050919050565b7f4e487b7100000000000000000000000000000000000000000000000000000000600052601160045260246000fd5b6000612ebb82612009565b9150612ec683612009565b925082821015612ed957612ed8612e81565b5b828203905092915050565b6000612eef82612009565b9150612efa83612009565b9250827fffffffffffffffffffffffffffffffffffffffffffffffffffffffffffffffff03821115612f2f57612f2e612e81565b5b828201905092915050565b7f4552433732313a20617070726f766520746f2063616c6c657200000000000000600082015250565b6000612f70601983611f59565b9150612f7b82612f3a565b602082019050919050565b60006020820190508181036000830152612f9f81612f63565b9050919050565b7f4552433732313a207472616e7366657220746f206e6f6e20455243373231526560008201527f63656976657220696d706c656d656e7465720000000000000000000000000000602082015250565b6000613002603283611f59565b915061300d82612fa6565b604082019050919050565b6000602082019050818103600083015261303181612ff5565b9050919050565b7f4552433732314d657461646174613a2055524920717565727920666f72206e6f60008201527f6e6578697374656e7420746f6b656e0000000000000000000000000000000000602082015250565b6000613094602f83611f59565b915061309f82613038565b604082019050919050565b600060208201905081810360008301526130c381613087565b9050919050565b7f45524337323155524953746f726167653a2055524920736574206f66206e6f6e60008201527f6578697374656e7420746f6b656e000000000000000000000000000000000000602082015250565b6000613126602e83611f59565b9150613131826130ca565b604082019050919050565b6000602082019050818103600083015261315581613119565b9050919050565b600081519050919050565b600082825260208201905092915050565b60006131838261315c565b61318d8185613167565b935061319d818560208601611f6a565b6131a681611f9d565b840191505092915050565b60006080820190506131c6600083018761209e565b6131d3602083018661209e565b6131e060408301856121ec565b81810360608301526131f28184613178565b905095945050505050565b60008151905061320c81611ebf565b92915050565b60006020828403121561322857613227611e89565b5b6000613236848285016131fd565b91505092915050565b600061324a82612009565b91507fffffffffffffffffffffffffffffffffffffffffffffffffffffffffffffffff82141561327d5761327c612e81565b5b600182019050919050565b7f4e487b7100000000000000000000000000000000000000000000000000000000600052601260045260246000fd5b60006132c282612009565b91506132cd83612009565b9250826132dd576132dc613288565b5b828204905092915050565b60006132f382612009565b91506132fe83612009565b92508261330e5761330d613288565b5b828206905092915050565b7f4e487b7100000000000000000000000000000000000000000000000000000000600052603260045260246000fd5b7f4552433732313a206d696e7420746f20746865207a65726f2061646472657373600082015250565b600061337e602083611f59565b915061338982613348565b602082019050919050565b600060208201905081810360008301526133ad81613371565b9050919050565b7f4552433732313a20746f6b656e20616c7265616479206d696e74656400000000600082015250565b60006133ea601c83611f59565b91506133f5826133b4565b602082019050919050565b60006020820190508181036000830152613419816133dd565b905091905056fea264697066735822122000069aac104008ab50a131e64043ddea58cc23c0f3905187e6f51e58d2b052f964736f6c634300080b0033",
  "immutableReferences": {},
  "source": "pragma solidity ^0.8.0;\n\nimport \"@openzeppelin/contracts/token/ERC721/extensions/ERC721URIStorage.sol\";\nimport \"@openzeppelin/contracts/access/Ownable.sol\";\nimport \"@openzeppelin/contracts/utils/math/SafeMath.sol\";\n\ncontract SlimeNFT is ERC721URIStorage, Ownable {\n    uint16 public max;\n    uint16 public current;\n    bool private canMint;\n\n    constructor(uint16 maxSupply) ERC721(\"Slime\", \"SLM\") {\n        max = maxSupply;\n        current = 0;\n    }\n\n    function mint(address to, string memory tokenURI) public returns(bool) {\n        require(current < max, \"Supply exceeded.\");\n        require(canMint == true, \"Can't mint right now.\");\n        _safeMint(to, current);\n        _setTokenURI(current, tokenURI);\n        bool success;\n        uint256 newCurrent;\n        (success, newCurrent) = SafeMath.tryAdd(current, 1);\n        current = uint16(newCurrent);\n        require(success == true, \"Something went wrong with incrementing current.\");\n        return true;\n    }\n\n    function setCanMint(bool value) public onlyOwner() {\n        canMint = value;\n    }\n}",
  "sourcePath": "C:\\Users\\sants\\Desktop\\slimekeeper\\slimekeeper_contracts\\contracts\\SlimeNFT.sol",
  "compiler": {
    "name": "solc",
    "version": "0.8.11+commit.d7f03943.Emscripten.clang"
  },
  "schemaVersion": "3.4.4",
  "updatedAt": "2022-01-27T10:23:17.345Z",
  "networkType": "ethereum",
  "devdoc": {
    "kind": "dev",
    "methods": {
      "approve(address,uint256)": {
        "details": "See {IERC721-approve}."
      },
      "balanceOf(address)": {
        "details": "See {IERC721-balanceOf}."
      },
      "getApproved(uint256)": {
        "details": "See {IERC721-getApproved}."
      },
      "isApprovedForAll(address,address)": {
        "details": "See {IERC721-isApprovedForAll}."
      },
      "name()": {
        "details": "See {IERC721Metadata-name}."
      },
      "owner()": {
        "details": "Returns the address of the current owner."
      },
      "ownerOf(uint256)": {
        "details": "See {IERC721-ownerOf}."
      },
      "renounceOwnership()": {
        "details": "Leaves the contract without owner. It will not be possible to call `onlyOwner` functions anymore. Can only be called by the current owner. NOTE: Renouncing ownership will leave the contract without an owner, thereby removing any functionality that is only available to the owner."
      },
      "safeTransferFrom(address,address,uint256)": {
        "details": "See {IERC721-safeTransferFrom}."
      },
      "safeTransferFrom(address,address,uint256,bytes)": {
        "details": "See {IERC721-safeTransferFrom}."
      },
      "setApprovalForAll(address,bool)": {
        "details": "See {IERC721-setApprovalForAll}."
      },
      "supportsInterface(bytes4)": {
        "details": "See {IERC165-supportsInterface}."
      },
      "symbol()": {
        "details": "See {IERC721Metadata-symbol}."
      },
      "tokenURI(uint256)": {
        "details": "See {IERC721Metadata-tokenURI}."
      },
      "transferFrom(address,address,uint256)": {
        "details": "See {IERC721-transferFrom}."
      },
      "transferOwnership(address)": {
        "details": "Transfers ownership of the contract to a new account (`newOwner`). Can only be called by the current owner."
      }
    },
    "version": 1
  },
  "userdoc": {
    "kind": "user",
    "methods": {},
    "version": 1
  }
}