{
  "contractName": "Token",
  "abi": [
    {
      "inputs": [
        {
          "internalType": "address",
          "name": "gameAddress_",
          "type": "address"
        },
        {
          "internalType": "address",
          "name": "nftAddress_",
          "type": "address"
        },
        {
          "internalType": "address",
          "name": "rewardsAddress_",
          "type": "address"
        },
        {
          "internalType": "address",
          "name": "marketingAddress_",
          "type": "address"
        },
        {
          "internalType": "address",
          "name": "routerAddress_",
          "type": "address"
        }
      ],
      "stateMutability": "nonpayable",
      "type": "constructor"
    },
    {
      "anonymous": false,
      "inputs": [
        {
          "indexed": true,
          "internalType": "address",
          "name": "owner",
          "type": "address"
        },
        {
          "indexed": true,
          "internalType": "address",
          "name": "spender",
          "type": "address"
        },
        {
          "indexed": false,
          "internalType": "uint256",
          "name": "value",
          "type": "uint256"
        }
      ],
      "name": "Approval",
      "type": "event"
    },
    {
      "anonymous": false,
      "inputs": [
        {
          "indexed": false,
          "internalType": "address",
          "name": "sender",
          "type": "address"
        },
        {
          "indexed": false,
          "internalType": "uint256",
          "name": "amountETH",
          "type": "uint256"
        },
        {
          "indexed": false,
          "internalType": "uint256",
          "name": "amountToken",
          "type": "uint256"
        }
      ],
      "name": "LiquidityAdded",
      "type": "event"
    },
    {
      "anonymous": false,
      "inputs": [
        {
          "indexed": true,
          "internalType": "address",
          "name": "adder",
          "type": "address"
        },
        {
          "indexed": true,
          "internalType": "address",
          "name": "owner",
          "type": "address"
        },
        {
          "indexed": true,
          "internalType": "uint256",
          "name": "timestamp",
          "type": "uint256"
        }
      ],
      "name": "OwnerAdded",
      "type": "event"
    },
    {
      "anonymous": false,
      "inputs": [
        {
          "indexed": true,
          "internalType": "address",
          "name": "remover",
          "type": "address"
        },
        {
          "indexed": true,
          "internalType": "address",
          "name": "removed",
          "type": "address"
        },
        {
          "indexed": true,
          "internalType": "uint256",
          "name": "timestamp",
          "type": "uint256"
        }
      ],
      "name": "OwnerRemoved",
      "type": "event"
    },
    {
      "anonymous": false,
      "inputs": [],
      "name": "OwnershipRenounced",
      "type": "event"
    },
    {
      "anonymous": false,
      "inputs": [
        {
          "indexed": true,
          "internalType": "address",
          "name": "from",
          "type": "address"
        },
        {
          "indexed": true,
          "internalType": "address",
          "name": "to",
          "type": "address"
        },
        {
          "indexed": false,
          "internalType": "uint256",
          "name": "value",
          "type": "uint256"
        }
      ],
      "name": "Transfer",
      "type": "event"
    },
    {
      "inputs": [],
      "name": "MAX_TOTAL_FEE",
      "outputs": [
        {
          "internalType": "uint256",
          "name": "",
          "type": "uint256"
        }
      ],
      "stateMutability": "view",
      "type": "function"
    },
    {
      "inputs": [
        {
          "internalType": "address",
          "name": "owner",
          "type": "address"
        }
      ],
      "name": "addOwner",
      "outputs": [],
      "stateMutability": "nonpayable",
      "type": "function"
    },
    {
      "inputs": [
        {
          "internalType": "address",
          "name": "owner",
          "type": "address"
        },
        {
          "internalType": "address",
          "name": "spender",
          "type": "address"
        }
      ],
      "name": "allowance",
      "outputs": [
        {
          "internalType": "uint256",
          "name": "",
          "type": "uint256"
        }
      ],
      "stateMutability": "view",
      "type": "function"
    },
    {
      "inputs": [
        {
          "internalType": "address",
          "name": "",
          "type": "address"
        }
      ],
      "name": "antiBotBlacklist",
      "outputs": [
        {
          "internalType": "bool",
          "name": "",
          "type": "bool"
        }
      ],
      "stateMutability": "view",
      "type": "function"
    },
    {
      "inputs": [
        {
          "internalType": "address",
          "name": "spender",
          "type": "address"
        },
        {
          "internalType": "uint256",
          "name": "amount",
          "type": "uint256"
        }
      ],
      "name": "approve",
      "outputs": [
        {
          "internalType": "bool",
          "name": "",
          "type": "bool"
        }
      ],
      "stateMutability": "nonpayable",
      "type": "function"
    },
    {
      "inputs": [
        {
          "internalType": "address",
          "name": "account",
          "type": "address"
        }
      ],
      "name": "balanceOf",
      "outputs": [
        {
          "internalType": "uint256",
          "name": "",
          "type": "uint256"
        }
      ],
      "stateMutability": "view",
      "type": "function"
    },
    {
      "inputs": [],
      "name": "buyDevelopmentTax",
      "outputs": [
        {
          "internalType": "uint256",
          "name": "",
          "type": "uint256"
        }
      ],
      "stateMutability": "view",
      "type": "function"
    },
    {
      "inputs": [],
      "name": "buyLiquidityTax",
      "outputs": [
        {
          "internalType": "uint256",
          "name": "",
          "type": "uint256"
        }
      ],
      "stateMutability": "view",
      "type": "function"
    },
    {
      "inputs": [],
      "name": "buyMarketingTax",
      "outputs": [
        {
          "internalType": "uint256",
          "name": "",
          "type": "uint256"
        }
      ],
      "stateMutability": "view",
      "type": "function"
    },
    {
      "inputs": [],
      "name": "buyRewardsTax",
      "outputs": [
        {
          "internalType": "uint256",
          "name": "",
          "type": "uint256"
        }
      ],
      "stateMutability": "view",
      "type": "function"
    },
    {
      "inputs": [],
      "name": "decimals",
      "outputs": [
        {
          "internalType": "uint8",
          "name": "",
          "type": "uint8"
        }
      ],
      "stateMutability": "view",
      "type": "function"
    },
    {
      "inputs": [
        {
          "internalType": "address",
          "name": "spender",
          "type": "address"
        },
        {
          "internalType": "uint256",
          "name": "subtractedValue",
          "type": "uint256"
        }
      ],
      "name": "decreaseAllowance",
      "outputs": [
        {
          "internalType": "bool",
          "name": "",
          "type": "bool"
        }
      ],
      "stateMutability": "nonpayable",
      "type": "function"
    },
    {
      "inputs": [],
      "name": "developmentAddress",
      "outputs": [
        {
          "internalType": "address payable",
          "name": "",
          "type": "address"
        }
      ],
      "stateMutability": "view",
      "type": "function"
    },
    {
      "inputs": [],
      "name": "gameAddress",
      "outputs": [
        {
          "internalType": "address payable",
          "name": "",
          "type": "address"
        }
      ],
      "stateMutability": "view",
      "type": "function"
    },
    {
      "inputs": [],
      "name": "getOwners",
      "outputs": [
        {
          "internalType": "address[]",
          "name": "",
          "type": "address[]"
        }
      ],
      "stateMutability": "view",
      "type": "function"
    },
    {
      "inputs": [
        {
          "internalType": "address",
          "name": "spender",
          "type": "address"
        },
        {
          "internalType": "uint256",
          "name": "addedValue",
          "type": "uint256"
        }
      ],
      "name": "increaseAllowance",
      "outputs": [
        {
          "internalType": "bool",
          "name": "",
          "type": "bool"
        }
      ],
      "stateMutability": "nonpayable",
      "type": "function"
    },
    {
      "inputs": [
        {
          "internalType": "address",
          "name": "",
          "type": "address"
        }
      ],
      "name": "isExcludedFromTax",
      "outputs": [
        {
          "internalType": "bool",
          "name": "",
          "type": "bool"
        }
      ],
      "stateMutability": "view",
      "type": "function"
    },
    {
      "inputs": [
        {
          "internalType": "address",
          "name": "owner",
          "type": "address"
        }
      ],
      "name": "isOwner",
      "outputs": [
        {
          "internalType": "bool",
          "name": "",
          "type": "bool"
        }
      ],
      "stateMutability": "view",
      "type": "function"
    },
    {
      "inputs": [],
      "name": "isPaused",
      "outputs": [
        {
          "internalType": "bool",
          "name": "",
          "type": "bool"
        }
      ],
      "stateMutability": "view",
      "type": "function"
    },
    {
      "inputs": [],
      "name": "liquidityTaxEnabled",
      "outputs": [
        {
          "internalType": "bool",
          "name": "",
          "type": "bool"
        }
      ],
      "stateMutability": "view",
      "type": "function"
    },
    {
      "inputs": [],
      "name": "marketingAddress",
      "outputs": [
        {
          "internalType": "address payable",
          "name": "",
          "type": "address"
        }
      ],
      "stateMutability": "view",
      "type": "function"
    },
    {
      "inputs": [],
      "name": "name",
      "outputs": [
        {
          "internalType": "string",
          "name": "",
          "type": "string"
        }
      ],
      "stateMutability": "view",
      "type": "function"
    },
    {
      "inputs": [],
      "name": "nftAddress",
      "outputs": [
        {
          "internalType": "address payable",
          "name": "",
          "type": "address"
        }
      ],
      "stateMutability": "view",
      "type": "function"
    },
    {
      "inputs": [
        {
          "internalType": "address",
          "name": "owner",
          "type": "address"
        }
      ],
      "name": "removeOwner",
      "outputs": [],
      "stateMutability": "nonpayable",
      "type": "function"
    },
    {
      "inputs": [],
      "name": "renounceOwnership",
      "outputs": [],
      "stateMutability": "nonpayable",
      "type": "function"
    },
    {
      "inputs": [],
      "name": "renounced",
      "outputs": [
        {
          "internalType": "bool",
          "name": "",
          "type": "bool"
        }
      ],
      "stateMutability": "view",
      "type": "function"
    },
    {
      "inputs": [],
      "name": "rewardsAddress",
      "outputs": [
        {
          "internalType": "address payable",
          "name": "",
          "type": "address"
        }
      ],
      "stateMutability": "view",
      "type": "function"
    },
    {
      "inputs": [],
      "name": "sellDevelopmentTax",
      "outputs": [
        {
          "internalType": "uint256",
          "name": "",
          "type": "uint256"
        }
      ],
      "stateMutability": "view",
      "type": "function"
    },
    {
      "inputs": [],
      "name": "sellLiquidityTax",
      "outputs": [
        {
          "internalType": "uint256",
          "name": "",
          "type": "uint256"
        }
      ],
      "stateMutability": "view",
      "type": "function"
    },
    {
      "inputs": [],
      "name": "sellMarketingTax",
      "outputs": [
        {
          "internalType": "uint256",
          "name": "",
          "type": "uint256"
        }
      ],
      "stateMutability": "view",
      "type": "function"
    },
    {
      "inputs": [],
      "name": "sellRewardsTax",
      "outputs": [
        {
          "internalType": "uint256",
          "name": "",
          "type": "uint256"
        }
      ],
      "stateMutability": "view",
      "type": "function"
    },
    {
      "inputs": [
        {
          "internalType": "bool",
          "name": "isPaused_",
          "type": "bool"
        }
      ],
      "name": "setIsPaused",
      "outputs": [],
      "stateMutability": "nonpayable",
      "type": "function"
    },
    {
      "inputs": [],
      "name": "symbol",
      "outputs": [
        {
          "internalType": "string",
          "name": "",
          "type": "string"
        }
      ],
      "stateMutability": "view",
      "type": "function"
    },
    {
      "inputs": [],
      "name": "totalSupply",
      "outputs": [
        {
          "internalType": "uint256",
          "name": "",
          "type": "uint256"
        }
      ],
      "stateMutability": "view",
      "type": "function"
    },
    {
      "inputs": [
        {
          "internalType": "address",
          "name": "to",
          "type": "address"
        },
        {
          "internalType": "uint256",
          "name": "amount",
          "type": "uint256"
        }
      ],
      "name": "transfer",
      "outputs": [
        {
          "internalType": "bool",
          "name": "",
          "type": "bool"
        }
      ],
      "stateMutability": "nonpayable",
      "type": "function"
    },
    {
      "inputs": [
        {
          "internalType": "address",
          "name": "from",
          "type": "address"
        },
        {
          "internalType": "address",
          "name": "to",
          "type": "address"
        },
        {
          "internalType": "uint256",
          "name": "amount",
          "type": "uint256"
        }
      ],
      "name": "transferFrom",
      "outputs": [
        {
          "internalType": "bool",
          "name": "",
          "type": "bool"
        }
      ],
      "stateMutability": "nonpayable",
      "type": "function"
    },
    {
      "stateMutability": "payable",
      "type": "receive"
    },
    {
      "inputs": [],
      "name": "emergencyMintRewards",
      "outputs": [],
      "stateMutability": "nonpayable",
      "type": "function"
    },
    {
      "inputs": [
        {
          "internalType": "uint256",
          "name": "amountToken",
          "type": "uint256"
        }
      ],
      "name": "addInitialLiquidity",
      "outputs": [],
      "stateMutability": "payable",
      "type": "function"
    },
    {
      "inputs": [],
      "name": "activateTradeWithAntibot",
      "outputs": [],
      "stateMutability": "nonpayable",
      "type": "function"
    },
    {
      "inputs": [
        {
          "internalType": "uint256",
          "name": "sellDevelopmentTax_",
          "type": "uint256"
        },
        {
          "internalType": "uint256",
          "name": "sellMarketingTax_",
          "type": "uint256"
        },
        {
          "internalType": "uint256",
          "name": "sellLiquidityTax_",
          "type": "uint256"
        },
        {
          "internalType": "uint256",
          "name": "sellRewardsTax_",
          "type": "uint256"
        }
      ],
      "name": "setAntiBotSellTaxes",
      "outputs": [],
      "stateMutability": "nonpayable",
      "type": "function"
    },
    {
      "inputs": [
        {
          "internalType": "uint256",
          "name": "sellDevelopmentTax_",
          "type": "uint256"
        },
        {
          "internalType": "uint256",
          "name": "sellMarketingTax_",
          "type": "uint256"
        },
        {
          "internalType": "uint256",
          "name": "sellLiquidityTax_",
          "type": "uint256"
        },
        {
          "internalType": "uint256",
          "name": "sellRewardsTax_",
          "type": "uint256"
        }
      ],
      "name": "setSellTaxes",
      "outputs": [],
      "stateMutability": "nonpayable",
      "type": "function"
    },
    {
      "inputs": [
        {
          "internalType": "uint256",
          "name": "buyDevelopmentTax_",
          "type": "uint256"
        },
        {
          "internalType": "uint256",
          "name": "buyMarketingTax_",
          "type": "uint256"
        },
        {
          "internalType": "uint256",
          "name": "buyLiquidityTax_",
          "type": "uint256"
        },
        {
          "internalType": "uint256",
          "name": "buyRewardsTax_",
          "type": "uint256"
        }
      ],
      "name": "setBuyTaxes",
      "outputs": [],
      "stateMutability": "nonpayable",
      "type": "function"
    },
    {
      "inputs": [
        {
          "internalType": "address",
          "name": "developmentAddress_",
          "type": "address"
        },
        {
          "internalType": "address",
          "name": "marketingAddress_",
          "type": "address"
        },
        {
          "internalType": "address",
          "name": "rewardsAddress_",
          "type": "address"
        }
      ],
      "name": "setTaxAddresses",
      "outputs": [],
      "stateMutability": "nonpayable",
      "type": "function"
    },
    {
      "inputs": [
        {
          "internalType": "address",
          "name": "address_",
          "type": "address"
        }
      ],
      "name": "removeBlacklistedAddress",
      "outputs": [],
      "stateMutability": "nonpayable",
      "type": "function"
    },
    {
      "inputs": [
        {
          "internalType": "bool",
          "name": "enabled",
          "type": "bool"
        }
      ],
      "name": "setLiquidityTaxEnabled",
      "outputs": [],
      "stateMutability": "nonpayable",
      "type": "function"
    },
    {
      "inputs": [
        {
          "internalType": "address",
          "name": "address_",
          "type": "address"
        }
      ],
      "name": "addTaxExcludedAddress",
      "outputs": [],
      "stateMutability": "nonpayable",
      "type": "function"
    },
    {
      "inputs": [
        {
          "internalType": "address",
          "name": "address_",
          "type": "address"
        }
      ],
      "name": "removeTaxExcludedAddress",
      "outputs": [],
      "stateMutability": "nonpayable",
      "type": "function"
    },
    {
      "inputs": [
        {
          "internalType": "uint256",
          "name": "divisor",
          "type": "uint256"
        }
      ],
      "name": "setEmergencyMintDivisor",
      "outputs": [],
      "stateMutability": "nonpayable",
      "type": "function"
    },
    {
      "inputs": [
        {
          "internalType": "address",
          "name": "routerAddress",
          "type": "address"
        }
      ],
      "name": "setRouter",
      "outputs": [],
      "stateMutability": "nonpayable",
      "type": "function"
    }
  ],
  "bytecode": "0x60a06040526019608090815250610e10600b556002600c556009600d556009600e556003600f5560046010556001601260006101000a81548160ff021916908315150217905550600360155560036016556004601755600260185560026019556002601a556002601b556001601c5560326023553480156200008057600080fd5b506040516200389e3803806200389e833981016040819052620000a3916200079b565b604051806040016040528060058152602001642a37b5b2b760d91b815250604051806040016040528060038152602001622a25a760e91b8152508160039080519060200190620000f5929190620006d8565b5080516200010b906004906020840190620006d8565b505050336200016c5760405162461bcd60e51b815260206004820152602260248201527f43616e277420696e697469616c697a652077697468207a65726f206164647265604482015261737360f01b60648201526084015b60405180910390fd5b60058054610100600160a81b031916336101008102919091179091556000818152600660205260408120805460ff1916600190811790915560078054808301825592527fa66cc928b5edb82af9bd49922954155ab7b0942694bea4ce44661d9a8736c68890910180546001600160a01b031916909217909155620001f09062000357565b601d8054336001600160a01b03199182168117909255601e805482166001600160a01b0386811691909117909155601f8054831687831617905560208054831689831617905560218054909216908716179055620002729062000251601290565b6200025e90600a62000920565b6200026c90610d0562000938565b62000420565b601f546200029f906001600160a01b0316620002916012600a62000920565b6200026c90611a0b62000938565b6103e8620002ac60025490565b620002b891906200095a565b601355601d546001600160a01b0390811660009081526022602090815260408083208054600160ff199182168117909255601e54861685528285208054821683179055601f54861685528285208054821683179055925485168452818420805484168217905560215490941683528083208054831685179055308352909120805490911690911790556200034c8162000505565b5050505050620009f3565b60055460ff1615620003ac5760405162461bcd60e51b815260206004820152601360248201527f4f776e6572736869702072656e6f756e63656400000000000000000000000000604482015260640162000163565b3360009081526006602052604090205460ff166200040d5760405162461bcd60e51b815260206004820152601660248201527f43616c6c6572206973206e6f7420616e206f776e657200000000000000000000604482015260640162000163565b6008805460ff1916911515919091179055565b6001600160a01b038216620004785760405162461bcd60e51b815260206004820152601f60248201527f45524332303a206d696e7420746f20746865207a65726f206164647265737300604482015260640162000163565b80600260008282546200048c91906200097d565b90915550506001600160a01b03821660009081526020819052604081208054839290620004bb9084906200097d565b90915550506040518181526001600160a01b038316906000907fddf252ad1be2c89b69c2b068fc378daa952ba7f163c4a11628f55a4df523b3ef9060200160405180910390a35050565b602480546001600160a01b0319166001600160a01b0383169081179091556040805163c45a015560e01b8152905163c45a0155916004808201926020929091908290030181865afa1580156200055f573d6000803e3d6000fd5b505050506040513d601f19601f8201168201806040525081019062000585919062000998565b6001600160a01b031663c9c6539630602460009054906101000a90046001600160a01b03166001600160a01b031663ad5c46486040518163ffffffff1660e01b8152600401602060405180830381865afa158015620005e8573d6000803e3d6000fd5b505050506040513d601f19601f820116820180604052508101906200060e919062000998565b6040516001600160e01b031960e085901b1681526001600160a01b039283166004820152911660248201526044016020604051808303816000875af11580156200065c573d6000803e3d6000fd5b505050506040513d601f19601f8201168201806040525081019062000682919062000998565b602580546001600160a01b0319166001600160a01b039283161781556024548216600090815260226020526040808220805460ff1990811660019081179092559354909416825290208054909116909117905550565b828054620006e690620009b6565b90600052602060002090601f0160209004810192826200070a576000855562000755565b82601f106200072557805160ff191683800117855562000755565b8280016001018555821562000755579182015b828111156200075557825182559160200191906001019062000738565b506200076392915062000767565b5090565b5b8082111562000763576000815560010162000768565b80516001600160a01b03811681146200079657600080fd5b919050565b600080600080600060a08688031215620007b457600080fd5b620007bf866200077e565b9450620007cf602087016200077e565b9350620007df604087016200077e565b9250620007ef606087016200077e565b9150620007ff608087016200077e565b90509295509295909350565b634e487b7160e01b600052601160045260246000fd5b600181815b80851115620008625781600019048211156200084657620008466200080b565b808516156200085457918102915b93841c939080029062000826565b509250929050565b6000826200087b575060016200091a565b816200088a575060006200091a565b8160018114620008a35760028114620008ae57620008ce565b60019150506200091a565b60ff841115620008c257620008c26200080b565b50506001821b6200091a565b5060208310610133831016604e8410600b8410161715620008f3575081810a6200091a565b620008ff838362000821565b80600019048211156200091657620009166200080b565b0290505b92915050565b60006200093160ff8416836200086a565b9392505050565b60008160001904831182151516156200095557620009556200080b565b500290565b6000826200097857634e487b7160e01b600052601260045260246000fd5b500490565b600082198211156200099357620009936200080b565b500190565b600060208284031215620009ab57600080fd5b62000931826200077e565b600181811c90821680620009cb57607f821691505b60208210811415620009ed57634e487b7160e01b600052602260045260246000fd5b50919050565b608051612e7a62000a24600039600081816105de015281816112520152818161175801526119050152612e7a6000f3fe6080604052600436106102b25760003560e01c80637f635cc011610175578063b187bd26116100dc578063cdca708311610095578063e4bf1bed1161006f578063e4bf1bed1461086d578063e6c032951461088d578063e96db1ef146108a2578063f480fec2146108b857600080fd5b8063cdca708314610813578063d232c22014610833578063dd62ed3e1461084d57600080fd5b8063b187bd2614610749578063c0973eed14610763578063c0d7865514610783578063c481c0c1146107a3578063cb4ca631146107c3578063cc9c49a6146107f357600080fd5b8063a168d8731161012e578063a168d8731461069d578063a2cbba28146106bd578063a457c2d7146106d3578063a5ece941146106f3578063a9059cbb14610713578063ad8052bb1461073357600080fd5b80637f635cc0146105cc578063810a71a314610600578063887d63171461063057806395d89b4114610650578063993df94e14610665578063a0e67e2b1461067b57600080fd5b806339509351116102195780636ab91206116101d25780636ab91206146105165780636eee2b461461052c5780637065cb481461054157806370a0823114610561578063715018a6146105975780637c546d80146105ac57600080fd5b8063395093511461045f57806341a22cc21461047f5780635a686d54146104925780635bf8633a146104a85780636053b881146104e0578063638b1b14146104f657600080fd5b8063240976bf1161026b578063240976bf1461039a5780632c505fb3146103ba5780632f54bf6e146103d4578063313ce5671461040d57806333012411146104295780633328b7211461043f57600080fd5b806306fdde03146102be578063095ea7b3146102e9578063173825d91461031957806318160ddd1461033b5780631a9431a91461035a57806323b872dd1461037a57600080fd5b366102b957005b600080fd5b3480156102ca57600080fd5b506102d36108d8565b6040516102e091906129cd565b60405180910390f35b3480156102f557600080fd5b50610309610304366004612a37565b61096a565b60405190151581526020016102e0565b34801561032557600080fd5b50610339610334366004612a63565b610982565b005b34801561034757600080fd5b506002545b6040519081526020016102e0565b34801561036657600080fd5b50610339610375366004612a87565b610c90565b34801561038657600080fd5b50610309610395366004612aa9565b610cf5565b3480156103a657600080fd5b506103396103b5366004612a87565b610d19565b3480156103c657600080fd5b506012546103099060ff1681565b3480156103e057600080fd5b506103096103ef366004612a63565b6001600160a01b031660009081526006602052604090205460ff1690565b34801561041957600080fd5b50604051601281526020016102e0565b34801561043557600080fd5b5061034c601a5481565b34801561044b57600080fd5b5061033961045a366004612a63565b610d7e565b34801561046b57600080fd5b5061030961047a366004612a37565b610df1565b61033961048d366004612aea565b610e30565b34801561049e57600080fd5b5061034c601b5481565b3480156104b457600080fd5b506021546104c8906001600160a01b031681565b6040516001600160a01b0390911681526020016102e0565b3480156104ec57600080fd5b5061034c60175481565b34801561050257600080fd5b50601d546104c8906001600160a01b031681565b34801561052257600080fd5b5061034c60185481565b34801561053857600080fd5b50610339610fd1565b34801561054d57600080fd5b5061033961055c366004612a63565b61101c565b34801561056d57600080fd5b5061034c61057c366004612a63565b6001600160a01b031660009081526020819052604090205490565b3480156105a357600080fd5b506103396110ff565b3480156105b857600080fd5b506103396105c7366004612b03565b6111a7565b3480156105d857600080fd5b5061034c7f000000000000000000000000000000000000000000000000000000000000000081565b34801561060c57600080fd5b5061030961061b366004612a63565b60116020526000908152604090205460ff1681565b34801561063c57600080fd5b5061033961064b366004612b35565b6112c3565b34801561065c57600080fd5b506102d361142e565b34801561067157600080fd5b5061034c60195481565b34801561068757600080fd5b5061069061143d565b6040516102e09190612bc4565b3480156106a957600080fd5b506020546104c8906001600160a01b031681565b3480156106c957600080fd5b5061034c601c5481565b3480156106df57600080fd5b506103096106ee366004612a37565b61149e565b3480156106ff57600080fd5b50601e546104c8906001600160a01b031681565b34801561071f57600080fd5b5061030961072e366004612a37565b611530565b34801561073f57600080fd5b5061034c60155481565b34801561075557600080fd5b506008546103099060ff1681565b34801561076f57600080fd5b50601f546104c8906001600160a01b031681565b34801561078f57600080fd5b5061033961079e366004612a63565b61153e565b3480156107af57600080fd5b506103396107be366004612aea565b611599565b3480156107cf57600080fd5b506103096107de366004612a63565b60226020526000908152604090205460ff1681565b3480156107ff57600080fd5b5061033961080e366004612a63565b6115f0565b34801561081f57600080fd5b5061033961082e366004612a63565b611663565b34801561083f57600080fd5b506005546103099060ff1681565b34801561085957600080fd5b5061034c610868366004612bd7565b6116d9565b34801561087957600080fd5b50610339610888366004612b03565b611704565b34801561089957600080fd5b506103396117c9565b3480156108ae57600080fd5b5061034c60165481565b3480156108c457600080fd5b506103396108d3366004612b03565b6118b1565b6060600380546108e790612c10565b80601f016020809104026020016040519081016040528092919081815260200182805461091390612c10565b80156109605780601f1061093557610100808354040283529160200191610960565b820191906000526020600020905b81548152906001019060200180831161094357829003601f168201915b5050505050905090565b600033610978818585611976565b5060019392505050565b60055460ff16156109ae5760405162461bcd60e51b81526004016109a590612c4b565b60405180910390fd5b3360009081526006602052604090205460ff166109dd5760405162461bcd60e51b81526004016109a590612c78565b6001600160a01b03811660009081526006602052604090205460ff16610a455760405162461bcd60e51b815260206004820152601760248201527f41646472657373206973206e6f7420616e206f776e657200000000000000000060448201526064016109a5565b60055461010090046001600160a01b0316331415610aa55760405162461bcd60e51b815260206004820152601d60248201527f4d6173746572206f776e65722063616e27742062652072656d6f76656400000060448201526064016109a5565b60075460005b600754811015610c2c57826001600160a01b031660078281548110610ad257610ad2612ca8565b6000918252602090912001546001600160a01b03161415610c1a576001600160a01b0383166000908152600660205260409020805460ff19169055805b600754610b1e90600190612cd4565b811015610ba9576007610b32836001612ceb565b81548110610b4257610b42612ca8565b600091825260209091200154600780546001600160a01b039092169184908110610b6e57610b6e612ca8565b600091825260209091200180546001600160a01b0319166001600160a01b039290921691909117905580610ba181612d03565b915050610b0f565b506007805480610bbb57610bbb612d1e565b600082815260208120820160001990810180546001600160a01b031916905590910190915560405142916001600160a01b0386169133917fecc5dd9888b87e7ed252d66b9c086ab819de6c8f8b96c8e5458e105bacfbb02791a4610c2c565b80610c2481612d03565b915050610aab565b50600754818110610c8b5760405162461bcd60e51b8152602060048201526024808201527f536f6d657468696e672077656e742077726f6e672072656d6f76696e67206f776044820152636e65727360e01b60648201526084016109a5565b505050565b60055460ff1615610cb35760405162461bcd60e51b81526004016109a590612c4b565b3360009081526006602052604090205460ff16610ce25760405162461bcd60e51b81526004016109a590612c78565b6012805460ff1916911515919091179055565b600033610d03858285611a9a565b610d0e858585611b14565b506001949350505050565b60055460ff1615610d3c5760405162461bcd60e51b81526004016109a590612c4b565b3360009081526006602052604090205460ff16610d6b5760405162461bcd60e51b81526004016109a590612c78565b6008805460ff1916911515919091179055565b60055460ff1615610da15760405162461bcd60e51b81526004016109a590612c4b565b3360009081526006602052604090205460ff16610dd05760405162461bcd60e51b81526004016109a590612c78565b6001600160a01b03166000908152601160205260409020805460ff19169055565b3360008181526001602090815260408083206001600160a01b03871684529091528120549091906109789082908690610e2b908790612ceb565b611976565b60055460ff1615610e535760405162461bcd60e51b81526004016109a590612c4b565b3360009081526006602052604090205460ff16610e825760405162461bcd60e51b81526004016109a590612c78565b6024546001600160a01b031680610ed05760405162461bcd60e51b8152602060048201526012602482015271149bdd5d195c881b9bdd081cd95d081e595d60721b60448201526064016109a5565b33600090815260208190526040902054821115610f415760405162461bcd60e51b815260206004820152602960248201527f53656e64657220646f6573206e6f74206861766520656e6f75676820746f6b656044820152686e2062616c616e636560b81b60648201526084016109a5565b81610f4c33306116d9565b1015610fad5760405162461bcd60e51b815260206004820152602a60248201527f4e6f7420656e6f75676820616c6c6f77616e636520676976656e20746f207468604482015269194818dbdb9d1c9858dd60b21b60648201526084016109a5565b610fb8338284611976565b610fc3333084611d3c565b610fcd3483611f0a565b5050565b601f546001600160a01b03163314610fe857600080fd5b6000602354610ff660025490565b6110009190612d34565b601f54909150611019906001600160a01b03168261202b565b50565b60055460ff161561103f5760405162461bcd60e51b81526004016109a590612c4b565b3360009081526006602052604090205460ff1661106e5760405162461bcd60e51b81526004016109a590612c78565b6001600160a01b038116600081815260066020526040808220805460ff1916600190811790915560078054918201815583527fa66cc928b5edb82af9bd49922954155ab7b0942694bea4ce44661d9a8736c6880180546001600160a01b031916841790555142929133917fa0b18fca933618876351ba2ef88bf4505c184d3e55064bec0d7fe236dd706d849190a450565b60055461010090046001600160a01b0316331461116f5760405162461bcd60e51b815260206004820152602860248201527f4f6e6c79206d6173746572206f776e65722063616e2072656e6f756e6365206f6044820152670776e6572736869760c41b60648201526084016109a5565b6005805460ff191660011790556040517fd1f66c3d2bc1993a86be5e3d33709d98f0442381befcedd29f578b9b2506b1ce90600090a1565b60055460ff16156111ca5760405162461bcd60e51b81526004016109a590612c4b565b3360009081526006602052604090205460ff166111f95760405162461bcd60e51b81526004016109a590612c78565b600854610100900460ff166112505760405162461bcd60e51b815260206004820152601960248201527f416e7469626f7420706572696f6420686173207061737365640000000000000060448201526064016109a5565b7f0000000000000000000000000000000000000000000000000000000000000000818361127d8688612ceb565b6112879190612ceb565b6112919190612ceb565b11156112af5760405162461bcd60e51b81526004016109a590612d56565b600d93909355600e91909155600f55601055565b60055460ff16156112e65760405162461bcd60e51b81526004016109a590612c4b565b3360009081526006602052604090205460ff166113155760405162461bcd60e51b81526004016109a590612c78565b6001600160a01b038316158061133257506001600160a01b038216155b8061134457506001600160a01b038116155b156113a75760405162461bcd60e51b815260206004820152602d60248201527f4e6f6e65206f6620746865206164647265737365732063616e2774206265207a60448201526c65726f2061646472657373657360981b60648201526084016109a5565b601d80546001600160a01b03199081166001600160a01b03958616908117909255601e80548216948616949094178455601f8054909116928516929092178255600090815260226020526040808220805460ff1990811660019081179092559454861683528183208054861682179055925490941681529290922080549091169091179055565b6060600480546108e790612c10565b6060600780548060200260200160405190810160405280929190818152602001828054801561096057602002820191906000526020600020905b81546001600160a01b03168152600190910190602001808311611477575050505050905090565b3360008181526001602090815260408083206001600160a01b0387168452909152812054909190838110156115235760405162461bcd60e51b815260206004820152602560248201527f45524332303a2064656372656173656420616c6c6f77616e63652062656c6f77604482015264207a65726f60d81b60648201526084016109a5565b610d0e8286868403611976565b600033610978818585611b14565b60055460ff16156115615760405162461bcd60e51b81526004016109a590612c4b565b3360009081526006602052604090205460ff166115905760405162461bcd60e51b81526004016109a590612c78565b6110198161210a565b60055460ff16156115bc5760405162461bcd60e51b81526004016109a590612c4b565b3360009081526006602052604090205460ff166115eb5760405162461bcd60e51b81526004016109a590612c78565b602355565b60055460ff16156116135760405162461bcd60e51b81526004016109a590612c4b565b3360009081526006602052604090205460ff166116425760405162461bcd60e51b81526004016109a590612c78565b6001600160a01b03166000908152602260205260409020805460ff19169055565b60055460ff16156116865760405162461bcd60e51b81526004016109a590612c4b565b3360009081526006602052604090205460ff166116b55760405162461bcd60e51b81526004016109a590612c78565b6001600160a01b03166000908152602260205260409020805460ff19166001179055565b6001600160a01b03918216600090815260016020908152604080832093909416825291909152205490565b60055460ff16156117275760405162461bcd60e51b81526004016109a590612c4b565b3360009081526006602052604090205460ff166117565760405162461bcd60e51b81526004016109a590612c78565b7f000000000000000000000000000000000000000000000000000000000000000081836117838688612ceb565b61178d9190612ceb565b6117979190612ceb565b11156117b55760405162461bcd60e51b81526004016109a590612d56565b601993909355601a91909155601c55601b55565b60055460ff16156117ec5760405162461bcd60e51b81526004016109a590612c4b565b3360009081526006602052604090205460ff1661181b5760405162461bcd60e51b81526004016109a590612c78565b60085462010000900460ff16156118745760405162461bcd60e51b815260206004820152601c60248201527f416e7469626f742068617320616c7265616479206265656e2072616e0000000060448201526064016109a5565b6008805462ffff00191662010100179055600b546118929042612ceb565b600955600c546118a29043612ceb565b600a556118af6000610d19565b565b60055460ff16156118d45760405162461bcd60e51b81526004016109a590612c4b565b3360009081526006602052604090205460ff166119035760405162461bcd60e51b81526004016109a590612c78565b7f000000000000000000000000000000000000000000000000000000000000000081836119308688612ceb565b61193a9190612ceb565b6119449190612ceb565b11156119625760405162461bcd60e51b81526004016109a590612d56565b601593909355601691909155601855601755565b6001600160a01b0383166119d85760405162461bcd60e51b8152602060048201526024808201527f45524332303a20617070726f76652066726f6d20746865207a65726f206164646044820152637265737360e01b60648201526084016109a5565b6001600160a01b038216611a395760405162461bcd60e51b815260206004820152602260248201527f45524332303a20617070726f766520746f20746865207a65726f206164647265604482015261737360f01b60648201526084016109a5565b6001600160a01b0383811660008181526001602090815260408083209487168084529482529182902085905590518481527f8c5be1e5ebec7d5bd14f71427d1e84f3dd0314c0f7b2291e5b200ac8c7c3b925910160405180910390a3505050565b6000611aa684846116d9565b90506000198114611b0e5781811015611b015760405162461bcd60e51b815260206004820152601d60248201527f45524332303a20696e73756666696369656e7420616c6c6f77616e636500000060448201526064016109a5565b611b0e8484848403611976565b50505050565b3260008181526006602052604090205460ff16611b705760085460ff1615611b705760405162461bcd60e51b815260206004820152600f60248201526e10dbdb9d1c9858dd081c185d5cd959608a1b60448201526064016109a5565b6000806000806000611b8289896122d4565b945094509450945094508015611b9c575050505050611b0e565b86611bb757611bad89896000611d3c565b5050505050611b0e565b6001600160a01b03891660009081526022602052604081205460ff16158015611bf957506001600160a01b03891660009081526022602052604090205460ff16155b306000908152602081905260409020546014549192509060ff16158015611c2257506013548110155b8015611c3b57506025546001600160a01b038b81169116145b8015611c445750815b15611c5557611c5581888888612409565b60145460009060ff16158015611c685750825b90508015611d235760408051600480825260a08201909252600091602082016080803683370190505090508881600081518110611ca757611ca7612ca8565b6020026020010181815250508781600181518110611cc757611cc7612ca8565b6020026020010181815250508681600281518110611ce757611ce7612ca8565b6020026020010181815250508581600381518110611d0757611d07612ca8565b602002602001018181525050611d1f8b8e8e846124bb565b9a50505b611d2e8c8c8c611d3c565b505050505050505050505050565b6001600160a01b038316611da05760405162461bcd60e51b815260206004820152602560248201527f45524332303a207472616e736665722066726f6d20746865207a65726f206164604482015264647265737360d81b60648201526084016109a5565b6001600160a01b038216611e025760405162461bcd60e51b815260206004820152602360248201527f45524332303a207472616e7366657220746f20746865207a65726f206164647260448201526265737360e81b60648201526084016109a5565b6001600160a01b03831660009081526020819052604090205481811015611e7a5760405162461bcd60e51b815260206004820152602660248201527f45524332303a207472616e7366657220616d6f756e7420657863656564732062604482015265616c616e636560d01b60648201526084016109a5565b6001600160a01b03808516600090815260208190526040808220858503905591851681529081208054849290611eb1908490612ceb565b92505081905550826001600160a01b0316846001600160a01b03167fddf252ad1be2c89b69c2b068fc378daa952ba7f163c4a11628f55a4df523b3ef84604051611efd91815260200190565b60405180910390a3611b0e565b602454611f229030906001600160a01b031683611976565b602454601d546001600160a01b039182169163f305d71991859130918691600091829116611f5142603c612ceb565b60405160e089901b6001600160e01b03191681526001600160a01b039687166004820152602481019590955260448501939093526064840191909152909216608482015260a481019190915260c40160606040518083038185885af1158015611fbe573d6000803e3d6000fd5b50505050506040513d601f19601f82011682018060405250810190611fe39190612d9e565b505060408051328152602081018590529081018390527fac1d76749e5447b7b16f5ab61447e1bd502f3bb4807af3b28e620d1700a6ee45915060600160405180910390a15050565b6001600160a01b0382166120815760405162461bcd60e51b815260206004820152601f60248201527f45524332303a206d696e7420746f20746865207a65726f20616464726573730060448201526064016109a5565b80600260008282546120939190612ceb565b90915550506001600160a01b038216600090815260208190526040812080548392906120c0908490612ceb565b90915550506040518181526001600160a01b038316906000907fddf252ad1be2c89b69c2b068fc378daa952ba7f163c4a11628f55a4df523b3ef9060200160405180910390a35050565b602480546001600160a01b0319166001600160a01b0383169081179091556040805163c45a015560e01b8152905163c45a0155916004808201926020929091908290030181865afa158015612163573d6000803e3d6000fd5b505050506040513d601f19601f820116820180604052508101906121879190612dcc565b6001600160a01b031663c9c6539630602460009054906101000a90046001600160a01b03166001600160a01b031663ad5c46486040518163ffffffff1660e01b8152600401602060405180830381865afa1580156121e9573d6000803e3d6000fd5b505050506040513d601f19601f8201168201806040525081019061220d9190612dcc565b6040516001600160e01b031960e085901b1681526001600160a01b039283166004820152911660248201526044016020604051808303816000875af115801561225a573d6000803e3d6000fd5b505050506040513d601f19601f8201168201806040525081019061227e9190612dcc565b602580546001600160a01b0319166001600160a01b039283161781556024548216600090815260226020526040808220805460ff1990811660019081179092559354909416825290208054909116909117905550565b60008060008060006122fe326001600160a01b031660009081526006602052604090205460ff1690565b6123ff576001600160a01b03871660009081526011602052604090205460ff1615801561234457506001600160a01b03861660009081526011602052604090205460ff16155b6123905760405162461bcd60e51b815260206004820152601f60248201527f53656e646572206f7220726563697069656e7420626c61636b6c69737465640060448201526064016109a5565b600854610100900460ff16156123ff57600a5443116123d157506001600160a01b0386166000908152601160205260409020805460ff191660019081179091555b60095442116123f357600d549450600e549350600f54925060105491506123ff565b6008805461ff00191690555b9295509295909350565b6014805460ff1916600117905560006124228385612ceb565b60125490915060ff161561243d5761243a8282612ceb565b90505b60008161244a8688612de9565b6124549190612d34565b90506000826124638689612de9565b61246d9190612d34565b905061247982826126a0565b60125460ff16156124a857600083612491868a612de9565b61249b9190612d34565b90506124a681612818565b505b50506014805460ff191690555050505050565b602554600090819081908190819081906001600160a01b03898116911614156125b3576064876000815181106124f3576124f3612ca8565b60200260200101518b6125069190612de9565b6125109190612d34565b935060648760018151811061252757612527612ca8565b60200260200101518b61253a9190612de9565b6125449190612d34565b925060648760028151811061255b5761255b612ca8565b60200260200101518b61256e9190612de9565b6125789190612d34565b915060648760038151811061258f5761258f612ca8565b60200260200101518b6125a29190612de9565b6125ac9190612d34565b905061263a565b6025546001600160a01b038a81169116141561263a5760646019548b6125d99190612de9565b6125e39190612d34565b93506064601a548b6125f59190612de9565b6125ff9190612d34565b92506064601c548b6126119190612de9565b61261b9190612d34565b91506064601b548b61262d9190612de9565b6126379190612d34565b90505b80826126468587612ceb565b6126509190612ceb565b61265a9190612ceb565b945084156126925761266d893087611d3c565b601f546126859030906001600160a01b031683611d3c565b61268f858b612cd4565b99505b509798975050505050505050565b60006126ac8284612ceb565b905060006126b982612863565b90506000826126c88684612de9565b6126d29190612d34565b90506000836126e18685612de9565b6126eb9190612d34565b601d546040519192506000916001600160a01b039091169084908381818185875af1925050503d806000811461273d576040519150601f19603f3d011682016040523d82523d6000602084013e612742565b606091505b5050601e546040519192506000916001600160a01b039091169084908381818185875af1925050503d8060008114612796576040519150601f19603f3d011682016040523d82523d6000602084013e61279b565b606091505b505090508180156127a95750805b61280e5760405162461bcd60e51b815260206004820152603060248201527f436f756c646e27742073656e6420746f20646576656c6f706d656e74206f722060448201526f1b585c9ad95d1a5b99c81dd85b1b195d60821b60648201526084016109a5565b5050505050505050565b6000612825600283612d34565b905060006128338284612cd4565b905047600061284184612863565b9050600061284f8383612cd4565b905061285b8185611f0a565b505050505050565b60408051600280825260608201835260009283929190602083019080368337019050509050308160008151811061289c5761289c612ca8565b6001600160a01b03928316602091820292909201810191909152602454604080516315ab88c960e31b81529051919093169263ad5c46489260048083019391928290030181865afa1580156128f5573d6000803e3d6000fd5b505050506040513d601f19601f820116820180604052508101906129199190612dcc565b8160018151811061292c5761292c612ca8565b6001600160a01b0392831660209182029290920101526024546129529130911685611976565b6024546001600160a01b031663791ac947846000843061297342603c612ceb565b6040518663ffffffff1660e01b8152600401612993959493929190612e08565b600060405180830381600087803b1580156129ad57600080fd5b505af11580156129c1573d6000803e3d6000fd5b50479695505050505050565b600060208083528351808285015260005b818110156129fa578581018301518582016040015282016129de565b81811115612a0c576000604083870101525b50601f01601f1916929092016040019392505050565b6001600160a01b038116811461101957600080fd5b60008060408385031215612a4a57600080fd5b8235612a5581612a22565b946020939093013593505050565b600060208284031215612a7557600080fd5b8135612a8081612a22565b9392505050565b600060208284031215612a9957600080fd5b81358015158114612a8057600080fd5b600080600060608486031215612abe57600080fd5b8335612ac981612a22565b92506020840135612ad981612a22565b929592945050506040919091013590565b600060208284031215612afc57600080fd5b5035919050565b60008060008060808587031215612b1957600080fd5b5050823594602084013594506040840135936060013592509050565b600080600060608486031215612b4a57600080fd5b8335612b5581612a22565b92506020840135612b6581612a22565b91506040840135612b7581612a22565b809150509250925092565b600081518084526020808501945080840160005b83811015612bb95781516001600160a01b031687529582019590820190600101612b94565b509495945050505050565b602081526000612a806020830184612b80565b60008060408385031215612bea57600080fd5b8235612bf581612a22565b91506020830135612c0581612a22565b809150509250929050565b600181811c90821680612c2457607f821691505b60208210811415612c4557634e487b7160e01b600052602260045260246000fd5b50919050565b60208082526013908201527213dddb995c9cda1a5c081c995b9bdd5b98d959606a1b604082015260600190565b60208082526016908201527521b0b63632b91034b9903737ba1030b71037bbb732b960511b604082015260600190565b634e487b7160e01b600052603260045260246000fd5b634e487b7160e01b600052601160045260246000fd5b600082821015612ce657612ce6612cbe565b500390565b60008219821115612cfe57612cfe612cbe565b500190565b6000600019821415612d1757612d17612cbe565b5060010190565b634e487b7160e01b600052603160045260246000fd5b600082612d5157634e487b7160e01b600052601260045260246000fd5b500490565b60208082526028908201527f546f74616c207461786573206172652061626f76652074686520616c6c6f77656040820152671908185b5bdd5b9d60c21b606082015260800190565b600080600060608486031215612db357600080fd5b8351925060208401519150604084015190509250925092565b600060208284031215612dde57600080fd5b8151612a8081612a22565b6000816000190483118215151615612e0357612e03612cbe565b500290565b85815284602082015260a060408201526000612e2760a0830186612b80565b6001600160a01b039490941660608301525060800152939250505056fea26469706673582212204f29bfe2784f9868c572e0783d6494c8b5fbdd54ba4f54573bf53ef70d5bccb964736f6c634300080b0033",
  "immutableReferences": {
    "5624": [
      {
        "length": 32,
        "start": 1502
      },
      {
        "length": 32,
        "start": 4690
      },
      {
        "length": 32,
        "start": 5976
      },
      {
        "length": 32,
        "start": 6405
      }
    ]
  },
  "source": "// SPDX-License-Identifier: MIT\n\npragma solidity >=0.4.22 <0.9.0;\n\nimport \"./PauseOwners.sol\";\nimport \"@openzeppelin/contracts/token/ERC20/ERC20.sol\";\nimport \"@uniswap/v2-periphery/contracts/interfaces/IUniswapV2Router02.sol\";\nimport \"@uniswap/v2-core/contracts/interfaces/IUniswapV2Pair.sol\";\nimport \"@uniswap/v2-core/contracts/interfaces/IUniswapV2Factory.sol\";\nimport \"@uniswap/v2-periphery/contracts/libraries/UniswapV2Library.sol\";\nimport \"@openzeppelin/contracts/utils/Address.sol\";\n\ncontract Token is ERC20, PauseOwners {\n\tevent LiquidityAdded(\n\t\taddress sender,\n\t\tuint256 amountETH,\n\t\tuint256 amountToken\n\t);\n\n\tuint256 public immutable MAX_TOTAL_FEE = 25; // We can never surpass this total fee\n\n\tbool private antiBotEnabled;\n\tbool private antiBotRanOnce; // We can only run antibot once, when initial liquidity is added\n\tuint256 private antiBotTaxesEndTime; // Time when antibot taxes end\n\tuint256 private antiBotBlockEndBlock; // Block when antibot blacklister no longer works\n\tuint256 private antiBotTaxesTimeInSeconds = 3600;\n\tuint256 private antiBotBlockTime = 2;\n\n\tuint256 private antiBotSellDevelopmentTax = 9;\n\tuint256 private antiBotSellMarketingTax = 9;\n\tuint256 private antiBotSellLiquidityTax = 3;\n\tuint256 private antiBotSellRewardsTax = 4;\n\n\tmapping(address => bool) public antiBotBlacklist;\n\n\tbool public liquidityTaxEnabled = true;\n\n\tuint256 private minBalanceForSwapAndTransfer;\n\tbool private inSwapAndTransfer;\n\n\tuint256 public sellDevelopmentTax = 3;\n\tuint256 public sellMarketingTax = 3;\n\tuint256 public sellRewardsTax = 4;\n\tuint256 public sellLiquidityTax = 2;\n\n\tuint256 public buyDevelopmentTax = 2;\n\tuint256 public buyMarketingTax = 2;\n\tuint256 public buyRewardsTax = 2;\n\tuint256 public buyLiquidityTax = 1;\n\n\taddress payable public developmentAddress;\n\taddress payable public marketingAddress;\n\taddress payable public rewardsAddress;\n\taddress payable public gameAddress;\n\taddress payable public nftAddress;\n\n\tmapping(address => bool) public isExcludedFromTax;\n\n\tuint256 private emergencyMintDivisor = 50;\n\n\tIUniswapV2Router02 private router;\n\tIUniswapV2Pair private pair;\n\n\tconstructor(\n\t\taddress gameAddress_,\n\t\taddress nftAddress_,\n\t\taddress rewardsAddress_,\n\t\taddress marketingAddress_,\n\t\taddress routerAddress_\n\t) ERC20(\"Token\", \"TKN\") {\n\t\tsetIsPaused(true); // Pause trading at the beginning until liquidity is added\n\t\tdevelopmentAddress = payable(msg.sender);\n\t\tmarketingAddress = payable(marketingAddress_);\n\t\trewardsAddress = payable(rewardsAddress_);\n\t\tgameAddress = payable(gameAddress_);\n\t\tnftAddress = payable(nftAddress_);\n\t\t_mint(developmentAddress, 3333 * 10**decimals()); // For adding liquidity and team tokens\n\t\t_mint(rewardsAddress, 6667 * 10**decimals()); // Game + NFT rewards\n\t\tminBalanceForSwapAndTransfer = totalSupply() / 1000; // If contract balance is minimum 0.1% of total supply, swap to BNB and transfer fees\n\t\tisExcludedFromTax[developmentAddress] = true;\n\t\tisExcludedFromTax[marketingAddress] = true;\n\t\tisExcludedFromTax[rewardsAddress] = true;\n\t\tisExcludedFromTax[gameAddress] = true;\n\t\tisExcludedFromTax[nftAddress] = true;\n\t\tisExcludedFromTax[address(this)] = true;\n\t\tcreateRouterPair(routerAddress_);\n\t}\n\n\tmodifier lockSwapAndTransfer() {\n\t\tinSwapAndTransfer = true;\n\t\t_;\n\t\tinSwapAndTransfer = false;\n\t}\n\n\tmodifier onlyInternalContracts() {\n\t\trequire(msg.sender == rewardsAddress);\n\t\t_;\n\t}\n\n\tfunction _transfer(\n\t\taddress sender,\n\t\taddress recipient,\n\t\tuint256 amount\n\t) internal virtual override checkPaused(tx.origin) {\n\t\t(\n\t\t\tuint256 sellDevelopmentTax_,\n\t\t\tuint256 sellMarketingTax_,\n\t\t\tuint256 sellLiquidityTax_,\n\t\t\tuint256 sellRewardsTax_,\n\t\t\tbool guardActivated\n\t\t) = antiBotGuard(sender, recipient);\n\t\tif (guardActivated) {\n\t\t\treturn;\n\t\t}\n\n\t\tif (amount == 0) {\n\t\t\tsuper._transfer(sender, recipient, 0);\n\t\t\treturn;\n\t\t}\n\n\t\tbool notExcludedFromTax = !isExcludedFromTax[sender] &&\n\t\t\t!isExcludedFromTax[recipient];\n\t\tuint256 tokenBalance = balanceOf(address(this));\n\t\tif (\n\t\t\t!inSwapAndTransfer &&\n\t\t\ttokenBalance >= minBalanceForSwapAndTransfer &&\n\t\t\trecipient == address(pair) && // Is a sell\n\t\t\tnotExcludedFromTax\n\t\t) {\n\t\t\tswapAndTransfer(\n\t\t\t\ttokenBalance,\n\t\t\t\tsellDevelopmentTax_,\n\t\t\t\tsellMarketingTax_,\n\t\t\t\tsellLiquidityTax_\n\t\t\t);\n\t\t}\n\n\t\tbool takeFee = !inSwapAndTransfer && notExcludedFromTax;\n\t\tif (takeFee) {\n\t\t\tuint256[] memory taxes = new uint256[](4); // Need to do this abomination because otherwise solidity compiler screams\n\t\t\ttaxes[0] = sellDevelopmentTax_;\n\t\t\ttaxes[1] = sellMarketingTax_;\n\t\t\ttaxes[2] = sellLiquidityTax_;\n\t\t\ttaxes[3] = sellRewardsTax_;\n\t\t\tamount = takeFees(amount, sender, recipient, taxes);\n\t\t}\n\n\t\tsuper._transfer(sender, recipient, amount);\n\t}\n\n\tfunction antiBotGuard(address sender, address recipient)\n\t\tprivate\n\t\treturns (\n\t\t\tuint256 sellDevelopmentTax_,\n\t\t\tuint256 sellMarketingTax_,\n\t\t\tuint256 sellLiquidityTax_,\n\t\t\tuint256 sellRewardsTax_,\n\t\t\tbool guardActivated\n\t\t)\n\t{\n\t\tif (!isOwner(tx.origin)) {\n\t\t\trequire(\n\t\t\t\t!antiBotBlacklist[sender] && !antiBotBlacklist[recipient],\n\t\t\t\t\"Sender or recipient blacklisted\"\n\t\t\t);\n\t\t\tif (antiBotEnabled) {\n\t\t\t\tif (block.number <= antiBotBlockEndBlock) {\n\t\t\t\t\tantiBotBlacklist[sender] = true;\n\t\t\t\t\tguardActivated = true;\n\t\t\t\t}\n\t\t\t\tif (block.timestamp <= antiBotTaxesEndTime) {\n\t\t\t\t\tsellDevelopmentTax_ = antiBotSellDevelopmentTax;\n\t\t\t\t\tsellMarketingTax_ = antiBotSellMarketingTax;\n\t\t\t\t\tsellLiquidityTax_ = antiBotSellLiquidityTax;\n\t\t\t\t\tsellRewardsTax_ = antiBotSellRewardsTax;\n\t\t\t\t} else {\n\t\t\t\t\tantiBotEnabled = false;\n\t\t\t\t}\n\t\t\t}\n\t\t}\n\t}\n\n\tfunction takeFees(\n\t\tuint256 amount,\n\t\taddress sender,\n\t\taddress recipient,\n\t\tuint256[] memory sellTaxes\n\t) private returns (uint256) {\n\t\tuint256 totalTax = 0;\n\t\tuint256 developmentTax = 0;\n\t\tuint256 marketingTax = 0;\n\t\tuint256 liquidityTax = 0;\n\t\tuint256 rewardsTax = 0;\n\n\t\tif (recipient == address(pair)) {\n\t\t\t// Selling\n\t\t\tdevelopmentTax = (amount * sellTaxes[0]) / 100;\n\t\t\tmarketingTax = (amount * sellTaxes[1]) / 100;\n\t\t\tliquidityTax = (amount * sellTaxes[2]) / 100;\n\t\t\trewardsTax = (amount * sellTaxes[3]) / 100;\n\t\t} else if (sender == address(pair)) {\n\t\t\t// Buying\n\t\t\tdevelopmentTax = (amount * buyDevelopmentTax) / 100;\n\t\t\tmarketingTax = (amount * buyMarketingTax) / 100;\n\t\t\tliquidityTax = (amount * buyLiquidityTax) / 100;\n\t\t\trewardsTax = (amount * buyRewardsTax) / 100;\n\t\t}\n\t\ttotalTax = developmentTax + marketingTax + liquidityTax + rewardsTax;\n\n\t\tif (totalTax > 0) {\n\t\t\tsuper._transfer(sender, address(this), totalTax);\n\t\t\tsuper._transfer(address(this), rewardsAddress, rewardsTax);\n\t\t\tamount -= totalTax;\n\t\t}\n\t\treturn amount;\n\t}\n\n\tfunction swapAndTransfer(\n\t\tuint256 tokenBalance,\n\t\tuint256 sellDevelopmentTax_,\n\t\tuint256 sellMarketingTax_,\n\t\tuint256 sellLiquidityTax_\n\t) private lockSwapAndTransfer {\n\t\tuint256 totalTax = sellDevelopmentTax_ + sellMarketingTax_;\n\t\tif (liquidityTaxEnabled) {\n\t\t\ttotalTax += sellLiquidityTax_;\n\t\t}\n\t\tuint256 developmentTax = (tokenBalance * sellDevelopmentTax_) /\n\t\t\ttotalTax;\n\t\tuint256 marketingTax = (tokenBalance * sellMarketingTax_) / totalTax;\n\n\t\tswapAndTransferFees(developmentTax, marketingTax);\n\n\t\tif (liquidityTaxEnabled) {\n\t\t\tuint256 liquidityTax = (tokenBalance * sellLiquidityTax_) /\n\t\t\t\ttotalTax;\n\t\t\tswapAndLiquify(liquidityTax);\n\t\t}\n\t}\n\n\tfunction swapAndTransferFees(uint256 developmentTax, uint256 marketingTax)\n\t\tprivate\n\t{\n\t\tuint256 totalTax = developmentTax + marketingTax;\n\t\tuint256 ethBalance = swapTokensToETH(totalTax);\n\t\tuint256 ethForDevelopment = (ethBalance * developmentTax) / totalTax;\n\t\tuint256 ethForMarketing = (ethBalance * marketingTax) / totalTax;\n\n\t\t(bool devSuccess, ) = developmentAddress.call{\n\t\t\tvalue: ethForDevelopment\n\t\t}(\"\");\n\t\t(bool marSuccess, ) = marketingAddress.call{ value: ethForMarketing }(\n\t\t\t\"\"\n\t\t);\n\n\t\trequire(\n\t\t\tdevSuccess && marSuccess,\n\t\t\t\"Couldn't send to development or marketing wallet\"\n\t\t);\n\t}\n\n\tfunction swapAndLiquify(uint256 amountToken) private {\n\t\tuint256 half1Token = amountToken / 2;\n\t\tuint256 half2Token = amountToken - half1Token;\n\t\tuint256 balanceBeforeSwapETH = address(this).balance;\n\t\tuint256 balanceAfterSwapETH = swapTokensToETH(half1Token); // Swap half of the tokens to BNB\n\t\tuint256 swapDifferenceETH = balanceAfterSwapETH - balanceBeforeSwapETH;\n\t\taddLiquidity(swapDifferenceETH, half2Token); // Add the non-swapped tokens and the swapped BNB to liquidity\n\t}\n\n\tfunction addLiquidity(uint256 amountETH, uint256 amountToken) private {\n\t\t_approve(address(this), address(router), amountToken);\n\t\trouter.addLiquidityETH{ value: amountETH }(\n\t\t\taddress(this),\n\t\t\tamountToken,\n\t\t\t0,\n\t\t\t0,\n\t\t\tdevelopmentAddress,\n\t\t\tblock.timestamp + 1 minutes\n\t\t);\n\t\temit LiquidityAdded(tx.origin, amountETH, amountToken);\n\t}\n\n\tfunction swapTokensToETH(uint256 amountToken) private returns (uint256) {\n\t\taddress[] memory path = new address[](2);\n\t\tpath[0] = address(this);\n\t\tpath[1] = router.WETH();\n\t\t// approve(address(router), amountToken);\n\t\t_approve(address(this), address(router), amountToken);\n\t\trouter.swapExactTokensForETHSupportingFeeOnTransferTokens(\n\t\t\tamountToken,\n\t\t\t0, // Receive any amount\n\t\t\tpath,\n\t\t\taddress(this),\n\t\t\tblock.timestamp + 1 minutes\n\t\t);\n\t\treturn address(this).balance;\n\t}\n\n\tfunction createRouterPair(address routerAddress) private {\n\t\trouter = IUniswapV2Router02(routerAddress);\n\t\tpair = IUniswapV2Pair(\n\t\t\tIUniswapV2Factory(router.factory()).createPair(\n\t\t\t\taddress(this),\n\t\t\t\trouter.WETH()\n\t\t\t)\n\t\t);\n\t\tisExcludedFromTax[address(router)] = true;\n\t\tisExcludedFromTax[address(pair)] = true;\n\t}\n\n\t// This function is only to be used by the rewards contract when the rewards pool no longer has rewards\n\tfunction emergencyMintRewards() external onlyInternalContracts {\n\t\tuint256 amountToMint = totalSupply() / emergencyMintDivisor; // Default: 2% of the supply\n\t\tsuper._mint(rewardsAddress, amountToMint);\n\t}\n\n\tfunction addInitialLiquidity(uint256 amountToken)\n\t\texternal\n\t\tpayable\n\t\tonlyOwners\n\t{\n\t\t// Add initial liquidity and enabled the \"anti-bot\" feature\n\t\taddress routerAddress = address(router);\n\t\trequire(routerAddress != address(0), \"Router not set yet\");\n\t\trequire(\n\t\t\tbalanceOf(msg.sender) >= amountToken,\n\t\t\t\"Sender does not have enough token balance\"\n\t\t);\n\t\trequire(\n\t\t\tallowance(msg.sender, address(this)) >= amountToken,\n\t\t\t\"Not enough allowance given to the contract\"\n\t\t);\n\t\t_approve(msg.sender, routerAddress, amountToken);\n\t\tsuper._transfer(msg.sender, address(this), amountToken);\n\t\taddLiquidity(msg.value, amountToken);\n\t}\n\n\tfunction activateTradeWithAntibot() external onlyOwners {\n\t\trequire(!antiBotRanOnce, \"Antibot has already been ran\");\n\t\tantiBotEnabled = true;\n\t\tantiBotRanOnce = true;\n\t\tantiBotTaxesEndTime = block.timestamp + antiBotTaxesTimeInSeconds;\n\t\tantiBotBlockEndBlock = block.number + antiBotBlockTime;\n\t\tsetIsPaused(false);\n\t}\n\n\tfunction setAntiBotSellTaxes(\n\t\tuint256 sellDevelopmentTax_,\n\t\tuint256 sellMarketingTax_,\n\t\tuint256 sellLiquidityTax_,\n\t\tuint256 sellRewardsTax_\n\t) external onlyOwners {\n\t\trequire(antiBotEnabled, \"Antibot period has passed\");\n\t\trequire(\n\t\t\t(sellDevelopmentTax_ +\n\t\t\t\tsellMarketingTax_ +\n\t\t\t\tsellLiquidityTax_ +\n\t\t\t\tsellRewardsTax_) <= MAX_TOTAL_FEE,\n\t\t\t\"Total taxes are above the allowed amount\"\n\t\t);\n\t\tantiBotSellDevelopmentTax = sellDevelopmentTax_;\n\t\tantiBotSellMarketingTax = sellMarketingTax_;\n\t\tantiBotSellLiquidityTax = sellLiquidityTax_;\n\t\tantiBotSellRewardsTax = sellRewardsTax_;\n\t}\n\n\tfunction setSellTaxes(\n\t\tuint256 sellDevelopmentTax_,\n\t\tuint256 sellMarketingTax_,\n\t\tuint256 sellLiquidityTax_,\n\t\tuint256 sellRewardsTax_\n\t) external onlyOwners {\n\t\trequire(\n\t\t\t(sellDevelopmentTax_ +\n\t\t\t\tsellMarketingTax_ +\n\t\t\t\tsellLiquidityTax_ +\n\t\t\t\tsellRewardsTax_) <= MAX_TOTAL_FEE,\n\t\t\t\"Total taxes are above the allowed amount\"\n\t\t);\n\t\tsellDevelopmentTax = sellDevelopmentTax_;\n\t\tsellMarketingTax = sellMarketingTax_;\n\t\tsellLiquidityTax = sellLiquidityTax_;\n\t\tsellRewardsTax = sellRewardsTax_;\n\t}\n\n\tfunction setBuyTaxes(\n\t\tuint256 buyDevelopmentTax_,\n\t\tuint256 buyMarketingTax_,\n\t\tuint256 buyLiquidityTax_,\n\t\tuint256 buyRewardsTax_\n\t) external onlyOwners {\n\t\trequire(\n\t\t\t(buyDevelopmentTax_ +\n\t\t\t\tbuyMarketingTax_ +\n\t\t\t\tbuyLiquidityTax_ +\n\t\t\t\tbuyRewardsTax_) <= MAX_TOTAL_FEE,\n\t\t\t\"Total taxes are above the allowed amount\"\n\t\t);\n\t\tbuyDevelopmentTax = buyDevelopmentTax_;\n\t\tbuyMarketingTax = buyMarketingTax_;\n\t\tbuyLiquidityTax = buyLiquidityTax_;\n\t\tbuyRewardsTax = buyRewardsTax_;\n\t}\n\n\tfunction setTaxAddresses(\n\t\taddress developmentAddress_,\n\t\taddress marketingAddress_,\n\t\taddress rewardsAddress_\n\t) external onlyOwners {\n\t\trequire(\n\t\t\t!(developmentAddress_ == address(0) ||\n\t\t\t\tmarketingAddress_ == address(0) ||\n\t\t\t\trewardsAddress_ == address(0)),\n\t\t\t\"None of the addresses can't be zero addresses\"\n\t\t);\n\t\tdevelopmentAddress = payable(developmentAddress_);\n\t\tmarketingAddress = payable(marketingAddress_);\n\t\trewardsAddress = payable(rewardsAddress_);\n\t\tisExcludedFromTax[developmentAddress] = true;\n\t\tisExcludedFromTax[marketingAddress] = true;\n\t\tisExcludedFromTax[rewardsAddress] = true;\n\t}\n\n\tfunction removeBlacklistedAddress(address address_) external onlyOwners {\n\t\tantiBotBlacklist[address_] = false;\n\t}\n\n\tfunction setLiquidityTaxEnabled(bool enabled) external onlyOwners {\n\t\tliquidityTaxEnabled = enabled;\n\t}\n\n\tfunction addTaxExcludedAddress(address address_) external onlyOwners {\n\t\tisExcludedFromTax[address_] = true;\n\t}\n\n\tfunction removeTaxExcludedAddress(address address_) external onlyOwners {\n\t\tisExcludedFromTax[address_] = false;\n\t}\n\n\tfunction setEmergencyMintDivisor(uint256 divisor) external onlyOwners {\n\t\temergencyMintDivisor = divisor;\n\t}\n\n\tfunction setRouter(address routerAddress) external onlyOwners {\n\t\tcreateRouterPair(routerAddress);\n\t}\n\n\treceive() external payable {} // Must be defined so the contract is able to receive ETH from swaps\n}\n",
  "sourcePath": "C:\\Users\\sants\\Desktop\\slimekeeper\\slimekeeper_contracts\\contracts\\Token.sol",
  "compiler": {
    "name": "solc",
    "version": "0.8.11+commit.d7f03943.Emscripten.clang"
  },
  "schemaVersion": "3.4.5",
  "updatedAt": "2022-02-28T19:06:16.824Z",
  "networkType": "ethereum",
  "devdoc": {
    "kind": "dev",
    "methods": {
      "allowance(address,address)": {
        "details": "See {IERC20-allowance}."
      },
      "approve(address,uint256)": {
        "details": "See {IERC20-approve}. NOTE: If `amount` is the maximum `uint256`, the allowance is not updated on `transferFrom`. This is semantically equivalent to an infinite approval. Requirements: - `spender` cannot be the zero address."
      },
      "balanceOf(address)": {
        "details": "See {IERC20-balanceOf}."
      },
      "decimals()": {
        "details": "Returns the number of decimals used to get its user representation. For example, if `decimals` equals `2`, a balance of `505` tokens should be displayed to a user as `5.05` (`505 / 10 ** 2`). Tokens usually opt for a value of 18, imitating the relationship between Ether and Wei. This is the value {ERC20} uses, unless this function is overridden; NOTE: This information is only used for _display_ purposes: it in no way affects any of the arithmetic of the contract, including {IERC20-balanceOf} and {IERC20-transfer}."
      },
      "decreaseAllowance(address,uint256)": {
        "details": "Atomically decreases the allowance granted to `spender` by the caller. This is an alternative to {approve} that can be used as a mitigation for problems described in {IERC20-approve}. Emits an {Approval} event indicating the updated allowance. Requirements: - `spender` cannot be the zero address. - `spender` must have allowance for the caller of at least `subtractedValue`."
      },
      "increaseAllowance(address,uint256)": {
        "details": "Atomically increases the allowance granted to `spender` by the caller. This is an alternative to {approve} that can be used as a mitigation for problems described in {IERC20-approve}. Emits an {Approval} event indicating the updated allowance. Requirements: - `spender` cannot be the zero address."
      },
      "name()": {
        "details": "Returns the name of the token."
      },
      "symbol()": {
        "details": "Returns the symbol of the token, usually a shorter version of the name."
      },
      "totalSupply()": {
        "details": "See {IERC20-totalSupply}."
      },
      "transfer(address,uint256)": {
        "details": "See {IERC20-transfer}. Requirements: - `to` cannot be the zero address. - the caller must have a balance of at least `amount`."
      },
      "transferFrom(address,address,uint256)": {
        "details": "See {IERC20-transferFrom}. Emits an {Approval} event indicating the updated allowance. This is not required by the EIP. See the note at the beginning of {ERC20}. NOTE: Does not update the allowance if the current allowance is the maximum `uint256`. Requirements: - `from` and `to` cannot be the zero address. - `from` must have a balance of at least `amount`. - the caller must have allowance for ``from``'s tokens of at least `amount`."
      }
    },
    "version": 1
  },
  "userdoc": {
    "kind": "user",
    "methods": {},
    "version": 1
  }
}