{
  "contractName": "Token",
  "abi": [
    {
      "inputs": [
        {
          "internalType": "address",
          "name": "gameAddress",
          "type": "address"
        },
        {
          "internalType": "address",
          "name": "nftAddress",
          "type": "address"
        }
      ],
      "stateMutability": "nonpayable",
      "type": "constructor"
    },
    {
      "anonymous": false,
      "inputs": [
        {
          "indexed": true,
          "internalType": "address",
          "name": "owner",
          "type": "address"
        },
        {
          "indexed": true,
          "internalType": "address",
          "name": "spender",
          "type": "address"
        },
        {
          "indexed": false,
          "internalType": "uint256",
          "name": "value",
          "type": "uint256"
        }
      ],
      "name": "Approval",
      "type": "event"
    },
    {
      "anonymous": false,
      "inputs": [
        {
          "indexed": true,
          "internalType": "address",
          "name": "adder",
          "type": "address"
        },
        {
          "indexed": true,
          "internalType": "address",
          "name": "owner",
          "type": "address"
        },
        {
          "indexed": true,
          "internalType": "uint256",
          "name": "timestamp",
          "type": "uint256"
        }
      ],
      "name": "OwnerAdded",
      "type": "event"
    },
    {
      "anonymous": false,
      "inputs": [
        {
          "indexed": true,
          "internalType": "address",
          "name": "remover",
          "type": "address"
        },
        {
          "indexed": true,
          "internalType": "address",
          "name": "removed",
          "type": "address"
        },
        {
          "indexed": true,
          "internalType": "uint256",
          "name": "timestamp",
          "type": "uint256"
        }
      ],
      "name": "OwnerRemoved",
      "type": "event"
    },
    {
      "anonymous": false,
      "inputs": [
        {
          "indexed": true,
          "internalType": "address",
          "name": "from",
          "type": "address"
        },
        {
          "indexed": true,
          "internalType": "address",
          "name": "to",
          "type": "address"
        },
        {
          "indexed": false,
          "internalType": "uint256",
          "name": "value",
          "type": "uint256"
        }
      ],
      "name": "Transfer",
      "type": "event"
    },
    {
      "inputs": [],
      "name": "MAX_TOTAL_FEE",
      "outputs": [
        {
          "internalType": "uint256",
          "name": "",
          "type": "uint256"
        }
      ],
      "stateMutability": "view",
      "type": "function",
      "constant": true
    },
    {
      "inputs": [
        {
          "internalType": "address",
          "name": "owner",
          "type": "address"
        }
      ],
      "name": "addOwner",
      "outputs": [],
      "stateMutability": "nonpayable",
      "type": "function"
    },
    {
      "inputs": [
        {
          "internalType": "address",
          "name": "owner",
          "type": "address"
        },
        {
          "internalType": "address",
          "name": "spender",
          "type": "address"
        }
      ],
      "name": "allowance",
      "outputs": [
        {
          "internalType": "uint256",
          "name": "",
          "type": "uint256"
        }
      ],
      "stateMutability": "view",
      "type": "function",
      "constant": true
    },
    {
      "inputs": [],
      "name": "antiBotEnabled",
      "outputs": [
        {
          "internalType": "bool",
          "name": "",
          "type": "bool"
        }
      ],
      "stateMutability": "view",
      "type": "function",
      "constant": true
    },
    {
      "inputs": [
        {
          "internalType": "address",
          "name": "spender",
          "type": "address"
        },
        {
          "internalType": "uint256",
          "name": "amount",
          "type": "uint256"
        }
      ],
      "name": "approve",
      "outputs": [
        {
          "internalType": "bool",
          "name": "",
          "type": "bool"
        }
      ],
      "stateMutability": "nonpayable",
      "type": "function"
    },
    {
      "inputs": [
        {
          "internalType": "address",
          "name": "account",
          "type": "address"
        }
      ],
      "name": "balanceOf",
      "outputs": [
        {
          "internalType": "uint256",
          "name": "",
          "type": "uint256"
        }
      ],
      "stateMutability": "view",
      "type": "function",
      "constant": true
    },
    {
      "inputs": [],
      "name": "buyDevelopmentTax",
      "outputs": [
        {
          "internalType": "uint256",
          "name": "",
          "type": "uint256"
        }
      ],
      "stateMutability": "view",
      "type": "function",
      "constant": true
    },
    {
      "inputs": [],
      "name": "buyLiquidityTax",
      "outputs": [
        {
          "internalType": "uint256",
          "name": "",
          "type": "uint256"
        }
      ],
      "stateMutability": "view",
      "type": "function",
      "constant": true
    },
    {
      "inputs": [],
      "name": "buyMarketingTax",
      "outputs": [
        {
          "internalType": "uint256",
          "name": "",
          "type": "uint256"
        }
      ],
      "stateMutability": "view",
      "type": "function",
      "constant": true
    },
    {
      "inputs": [],
      "name": "decimals",
      "outputs": [
        {
          "internalType": "uint8",
          "name": "",
          "type": "uint8"
        }
      ],
      "stateMutability": "view",
      "type": "function",
      "constant": true
    },
    {
      "inputs": [
        {
          "internalType": "address",
          "name": "spender",
          "type": "address"
        },
        {
          "internalType": "uint256",
          "name": "subtractedValue",
          "type": "uint256"
        }
      ],
      "name": "decreaseAllowance",
      "outputs": [
        {
          "internalType": "bool",
          "name": "",
          "type": "bool"
        }
      ],
      "stateMutability": "nonpayable",
      "type": "function"
    },
    {
      "inputs": [],
      "name": "developmentAddress",
      "outputs": [
        {
          "internalType": "address payable",
          "name": "",
          "type": "address"
        }
      ],
      "stateMutability": "view",
      "type": "function",
      "constant": true
    },
    {
      "inputs": [],
      "name": "getOwners",
      "outputs": [
        {
          "internalType": "address[]",
          "name": "",
          "type": "address[]"
        }
      ],
      "stateMutability": "view",
      "type": "function",
      "constant": true
    },
    {
      "inputs": [
        {
          "internalType": "address",
          "name": "spender",
          "type": "address"
        },
        {
          "internalType": "uint256",
          "name": "addedValue",
          "type": "uint256"
        }
      ],
      "name": "increaseAllowance",
      "outputs": [
        {
          "internalType": "bool",
          "name": "",
          "type": "bool"
        }
      ],
      "stateMutability": "nonpayable",
      "type": "function"
    },
    {
      "inputs": [
        {
          "internalType": "address",
          "name": "",
          "type": "address"
        }
      ],
      "name": "isExcludedFromTax",
      "outputs": [
        {
          "internalType": "bool",
          "name": "",
          "type": "bool"
        }
      ],
      "stateMutability": "view",
      "type": "function",
      "constant": true
    },
    {
      "inputs": [
        {
          "internalType": "address",
          "name": "owner",
          "type": "address"
        }
      ],
      "name": "isOwner",
      "outputs": [
        {
          "internalType": "bool",
          "name": "",
          "type": "bool"
        }
      ],
      "stateMutability": "view",
      "type": "function",
      "constant": true
    },
    {
      "inputs": [],
      "name": "liquidityAddress",
      "outputs": [
        {
          "internalType": "address payable",
          "name": "",
          "type": "address"
        }
      ],
      "stateMutability": "view",
      "type": "function",
      "constant": true
    },
    {
      "inputs": [],
      "name": "liquidityTaxEnabled",
      "outputs": [
        {
          "internalType": "bool",
          "name": "",
          "type": "bool"
        }
      ],
      "stateMutability": "view",
      "type": "function",
      "constant": true
    },
    {
      "inputs": [],
      "name": "marketingAddress",
      "outputs": [
        {
          "internalType": "address payable",
          "name": "",
          "type": "address"
        }
      ],
      "stateMutability": "view",
      "type": "function",
      "constant": true
    },
    {
      "inputs": [],
      "name": "name",
      "outputs": [
        {
          "internalType": "string",
          "name": "",
          "type": "string"
        }
      ],
      "stateMutability": "view",
      "type": "function",
      "constant": true
    },
    {
      "inputs": [
        {
          "internalType": "address",
          "name": "owner",
          "type": "address"
        }
      ],
      "name": "removeOwner",
      "outputs": [],
      "stateMutability": "nonpayable",
      "type": "function"
    },
    {
      "inputs": [],
      "name": "sellDevelopmentTax",
      "outputs": [
        {
          "internalType": "uint256",
          "name": "",
          "type": "uint256"
        }
      ],
      "stateMutability": "view",
      "type": "function",
      "constant": true
    },
    {
      "inputs": [],
      "name": "sellLiquidityTax",
      "outputs": [
        {
          "internalType": "uint256",
          "name": "",
          "type": "uint256"
        }
      ],
      "stateMutability": "view",
      "type": "function",
      "constant": true
    },
    {
      "inputs": [],
      "name": "sellMarketingTax",
      "outputs": [
        {
          "internalType": "uint256",
          "name": "",
          "type": "uint256"
        }
      ],
      "stateMutability": "view",
      "type": "function",
      "constant": true
    },
    {
      "inputs": [
        {
          "internalType": "bool",
          "name": "newPaused",
          "type": "bool"
        }
      ],
      "name": "setIsPaused",
      "outputs": [],
      "stateMutability": "nonpayable",
      "type": "function"
    },
    {
      "inputs": [],
      "name": "symbol",
      "outputs": [
        {
          "internalType": "string",
          "name": "",
          "type": "string"
        }
      ],
      "stateMutability": "view",
      "type": "function",
      "constant": true
    },
    {
      "inputs": [],
      "name": "totalSupply",
      "outputs": [
        {
          "internalType": "uint256",
          "name": "",
          "type": "uint256"
        }
      ],
      "stateMutability": "view",
      "type": "function",
      "constant": true
    },
    {
      "inputs": [
        {
          "internalType": "address",
          "name": "recipient",
          "type": "address"
        },
        {
          "internalType": "uint256",
          "name": "amount",
          "type": "uint256"
        }
      ],
      "name": "transfer",
      "outputs": [
        {
          "internalType": "bool",
          "name": "",
          "type": "bool"
        }
      ],
      "stateMutability": "nonpayable",
      "type": "function"
    },
    {
      "inputs": [
        {
          "internalType": "address",
          "name": "sender",
          "type": "address"
        },
        {
          "internalType": "address",
          "name": "recipient",
          "type": "address"
        },
        {
          "internalType": "uint256",
          "name": "amount",
          "type": "uint256"
        }
      ],
      "name": "transferFrom",
      "outputs": [
        {
          "internalType": "bool",
          "name": "",
          "type": "bool"
        }
      ],
      "stateMutability": "nonpayable",
      "type": "function"
    },
    {
      "stateMutability": "payable",
      "type": "receive",
      "payable": true
    },
    {
      "inputs": [
        {
          "internalType": "uint256",
          "name": "amountToken",
          "type": "uint256"
        },
        {
          "internalType": "uint256",
          "name": "amountTokenMin",
          "type": "uint256"
        },
        {
          "internalType": "uint256",
          "name": "amountETHmin",
          "type": "uint256"
        }
      ],
      "name": "addLiquidityAntiBot",
      "outputs": [],
      "stateMutability": "payable",
      "type": "function",
      "payable": true
    },
    {
      "inputs": [
        {
          "internalType": "uint256",
          "name": "sellDevelopmentTax_",
          "type": "uint256"
        },
        {
          "internalType": "uint256",
          "name": "sellMarketingTax_",
          "type": "uint256"
        },
        {
          "internalType": "uint256",
          "name": "sellLiquidityTax_",
          "type": "uint256"
        }
      ],
      "name": "setSellTaxes",
      "outputs": [],
      "stateMutability": "nonpayable",
      "type": "function"
    },
    {
      "inputs": [
        {
          "internalType": "uint256",
          "name": "buyDevelopmentTax_",
          "type": "uint256"
        },
        {
          "internalType": "uint256",
          "name": "buyMarketingTax_",
          "type": "uint256"
        },
        {
          "internalType": "uint256",
          "name": "buyLiquidityTax_",
          "type": "uint256"
        }
      ],
      "name": "setBuyTaxes",
      "outputs": [],
      "stateMutability": "nonpayable",
      "type": "function"
    },
    {
      "inputs": [
        {
          "internalType": "address",
          "name": "developmentAddress_",
          "type": "address"
        },
        {
          "internalType": "address",
          "name": "marketingAddress_",
          "type": "address"
        },
        {
          "internalType": "address",
          "name": "liquidityAddress_",
          "type": "address"
        }
      ],
      "name": "setTaxAddresses",
      "outputs": [],
      "stateMutability": "nonpayable",
      "type": "function"
    },
    {
      "inputs": [
        {
          "internalType": "address",
          "name": "address_",
          "type": "address"
        }
      ],
      "name": "removeBlacklist",
      "outputs": [],
      "stateMutability": "nonpayable",
      "type": "function"
    },
    {
      "inputs": [
        {
          "internalType": "bool",
          "name": "enabled",
          "type": "bool"
        }
      ],
      "name": "setLiquidityTaxEnabled",
      "outputs": [],
      "stateMutability": "nonpayable",
      "type": "function"
    },
    {
      "inputs": [
        {
          "internalType": "address",
          "name": "address_",
          "type": "address"
        }
      ],
      "name": "addTaxExcludedAddress",
      "outputs": [],
      "stateMutability": "nonpayable",
      "type": "function"
    },
    {
      "inputs": [
        {
          "internalType": "address",
          "name": "address_",
          "type": "address"
        }
      ],
      "name": "removeTaxExcludedAddress",
      "outputs": [],
      "stateMutability": "nonpayable",
      "type": "function"
    },
    {
      "inputs": [
        {
          "internalType": "address",
          "name": "routerAddress",
          "type": "address"
        }
      ],
      "name": "setRouter",
      "outputs": [],
      "stateMutability": "nonpayable",
      "type": "function"
    }
  ],
  "bytecode": "0x60a060405260196080526007805462ffff0019169055610e106008556002600a818155600d819055600e556005600f556010805460ff1916600190811790915560046011819055601255601382905560148290556015919091556016553480156200006957600080fd5b506040516200277d3803806200277d8339810160408190526200008c91620003f0565b604051806040016040528060058152602001642a37b5b2b760d91b815250604051806040016040528060038152602001622a25a760e91b8152508160039080519060200190620000de9291906200032d565b508051620000f49060049060208401906200032d565b50505033620001555760405162461bcd60e51b815260206004820152602260248201527f43616e277420696e697469616c697a652077697468207a65726f206164647265604482015261737360f01b60648201526084015b60405180910390fd5b336000818152600560205260408120805460ff191660019081179091556006805491820181559091527ff652222313e28459528d920b65115c16c04f3efc82aaedc97be59f3f377c0d3f0180546001600160a01b031990811683179091556017805490911682179055620001ed90620001cc601290565b620001d990600a6200053d565b620001e7906107d062000555565b62000248565b620001fa826012620001cc565b62000207816012620001cc565b6001600160a01b039182166000908152601a60205260408082208054600160ff199182168117909255939094168252902080549091169091179055620005cf565b6001600160a01b038216620002a05760405162461bcd60e51b815260206004820152601f60248201527f45524332303a206d696e7420746f20746865207a65726f20616464726573730060448201526064016200014c565b8060026000828254620002b4919062000577565b90915550506001600160a01b03821660009081526020819052604081208054839290620002e390849062000577565b90915550506040518181526001600160a01b038316906000907fddf252ad1be2c89b69c2b068fc378daa952ba7f163c4a11628f55a4df523b3ef9060200160405180910390a35050565b8280546200033b9062000592565b90600052602060002090601f0160209004810192826200035f5760008555620003aa565b82601f106200037a57805160ff1916838001178555620003aa565b82800160010185558215620003aa579182015b82811115620003aa5782518255916020019190600101906200038d565b50620003b8929150620003bc565b5090565b5b80821115620003b85760008155600101620003bd565b80516001600160a01b0381168114620003eb57600080fd5b919050565b600080604083850312156200040457600080fd5b6200040f83620003d3565b91506200041f60208401620003d3565b90509250929050565b634e487b7160e01b600052601160045260246000fd5b600181815b808511156200047f57816000190482111562000463576200046362000428565b808516156200047157918102915b93841c939080029062000443565b509250929050565b600082620004985750600162000537565b81620004a75750600062000537565b8160018114620004c05760028114620004cb57620004eb565b600191505062000537565b60ff841115620004df57620004df62000428565b50506001821b62000537565b5060208310610133831016604e8410600b841016171562000510575081810a62000537565b6200051c83836200043e565b806000190482111562000533576200053362000428565b0290505b92915050565b60006200054e60ff84168362000487565b9392505050565b600081600019048311821515161562000572576200057262000428565b500290565b600082198211156200058d576200058d62000428565b500190565b600181811c90821680620005a757607f821691505b60208210811415620005c957634e487b7160e01b600052602260045260246000fd5b50919050565b608051612184620005f9600039600081816104ec015281816108160152610aea01526121846000f3fe6080604052600436106102295760003560e01c80637f635cc011610123578063ad8052bb116100ab578063d8c6404b1161006f578063d8c6404b14610697578063dd62ed3e146106b6578063e96db1ef146106fc578063eb91e65114610712578063ef7fba5b1461073257600080fd5b8063ad8052bb146105f1578063c0d7865514610607578063cb4ca63114610627578063cc9c49a614610657578063cdca70831461067757600080fd5b8063a0e67e2b116100f2578063a0e67e2b14610559578063a2cbba281461057b578063a457c2d714610591578063a5ece941146105b1578063a9059cbb146105d157600080fd5b80637f635cc0146104da578063887d63171461050e57806395d89b411461052e578063993df94e1461054357600080fd5b80632c505fb3116101b15780633950935111610175578063395093511461042e578063638b1b141461044e5780636ab912061461046e5780637065cb481461048457806370a08231146104a457600080fd5b80632c505fb3146103715780632f54bf6e1461038b578063313ce567146103c45780633221c93f146103e0578063330124111461041857600080fd5b806318160ddd116101f857806318160ddd146102d25780631870517a146102f15780631a9431a91461031157806323b872dd14610331578063240976bf1461035157600080fd5b806306fdde03146102355780630873321414610260578063095ea7b314610282578063173825d9146102b257600080fd5b3661023057005b600080fd5b34801561024157600080fd5b5061024a610745565b6040516102579190611c1d565b60405180910390f35b34801561026c57600080fd5b5061028061027b366004611c72565b6107d7565b005b34801561028e57600080fd5b506102a261029d366004611cb6565b610876565b6040519015158152602001610257565b3480156102be57600080fd5b506102806102cd366004611ce2565b61088c565b3480156102de57600080fd5b506002545b604051908152602001610257565b3480156102fd57600080fd5b5061028061030c366004611c72565b610ab4565b34801561031d57600080fd5b5061028061032c366004611d06565b610b4a565b34801561033d57600080fd5b506102a261034c366004611d28565b610b91565b34801561035d57600080fd5b5061028061036c366004611d06565b610c3b565b34801561037d57600080fd5b506010546102a29060ff1681565b34801561039757600080fd5b506102a26103a6366004611ce2565b6001600160a01b031660009081526005602052604090205460ff1690565b3480156103d057600080fd5b5060405160128152602001610257565b3480156103ec57600080fd5b50601954610400906001600160a01b031681565b6040516001600160a01b039091168152602001610257565b34801561042457600080fd5b506102e360155481565b34801561043a57600080fd5b506102a2610449366004611cb6565b610c82565b34801561045a57600080fd5b50601754610400906001600160a01b031681565b34801561047a57600080fd5b506102e360135481565b34801561049057600080fd5b5061028061049f366004611ce2565b610cbe565b3480156104b057600080fd5b506102e36104bf366004611ce2565b6001600160a01b031660009081526020819052604090205490565b3480156104e657600080fd5b506102e37f000000000000000000000000000000000000000000000000000000000000000081565b34801561051a57600080fd5b50610280610529366004611d69565b610d83565b34801561053a57600080fd5b5061024a610e88565b34801561054f57600080fd5b506102e360145481565b34801561056557600080fd5b5061056e610e97565b6040516102579190611df8565b34801561058757600080fd5b506102e360165481565b34801561059d57600080fd5b506102a26105ac366004611cb6565b610ef8565b3480156105bd57600080fd5b50601854610400906001600160a01b031681565b3480156105dd57600080fd5b506102a26105ec366004611cb6565b610f91565b3480156105fd57600080fd5b506102e360115481565b34801561061357600080fd5b50610280610622366004611ce2565b610f9e565b34801561063357600080fd5b506102a2610642366004611ce2565b601a6020526000908152604090205460ff1681565b34801561066357600080fd5b50610280610672366004611ce2565b610ff4565b34801561068357600080fd5b50610280610692366004611ce2565b611049565b3480156106a357600080fd5b506007546102a290610100900460ff1681565b3480156106c257600080fd5b506102e36106d1366004611e0b565b6001600160a01b03918216600090815260016020908152604080832093909416825291909152205490565b34801561070857600080fd5b506102e360125481565b34801561071e57600080fd5b5061028061072d366004611ce2565b6110a1565b610280610740366004611c72565b6110f6565b60606003805461075490611e44565b80601f016020809104026020016040519081016040528092919081815260200182805461078090611e44565b80156107cd5780601f106107a2576101008083540402835291602001916107cd565b820191906000526020600020905b8154815290600101906020018083116107b057829003601f168201915b5050505050905090565b3360009081526005602052604090205460ff1615156001146108145760405162461bcd60e51b815260040161080b90611e7f565b60405180910390fd5b7f0000000000000000000000000000000000000000000000000000000000000000816108408486611ec5565b61084a9190611ec5565b11156108685760405162461bcd60e51b815260040161080b90611edd565b506011829055601255601355565b60006108833384846112b5565b50600192915050565b3360009081526005602052604090205460ff1615156001146108c05760405162461bcd60e51b815260040161080b90611e7f565b6001600160a01b03811660009081526005602052604090205460ff16151560011461092d5760405162461bcd60e51b815260206004820152601760248201527f41646472657373206973206e6f7420616e206f776e6572000000000000000000604482015260640161080b565b60005b600654811015610ab057816001600160a01b03166006828154811061095757610957611f25565b6000918252602090912001546001600160a01b03161415610a9e576001600160a01b0382166000908152600560205260409020805460ff19169055805b6006546109a390600190611f3b565b811015610a2e5760066109b7836001611ec5565b815481106109c7576109c7611f25565b600091825260209091200154600680546001600160a01b0390921691849081106109f3576109f3611f25565b600091825260209091200180546001600160a01b0319166001600160a01b039290921691909117905580610a2681611f52565b915050610994565b506006805480610a4057610a40611f6d565b600082815260208120820160001990810180546001600160a01b031916905590910190915560405142916001600160a01b0385169133917fecc5dd9888b87e7ed252d66b9c086ab819de6c8f8b96c8e5458e105bacfbb02791a45050565b80610aa881611f52565b915050610930565b5050565b3360009081526005602052604090205460ff161515600114610ae85760405162461bcd60e51b815260040161080b90611e7f565b7f000000000000000000000000000000000000000000000000000000000000000081610b148486611ec5565b610b1e9190611ec5565b1115610b3c5760405162461bcd60e51b815260040161080b90611edd565b601492909255601555601655565b3360009081526005602052604090205460ff161515600114610b7e5760405162461bcd60e51b815260040161080b90611e7f565b6010805460ff1916911515919091179055565b6000610b9e8484846113d9565b6001600160a01b038416600090815260016020908152604080832033845290915290205482811015610c235760405162461bcd60e51b815260206004820152602860248201527f45524332303a207472616e7366657220616d6f756e74206578636565647320616044820152676c6c6f77616e636560c01b606482015260840161080b565b610c3085338584036112b5565b506001949350505050565b3360009081526005602052604090205460ff161515600114610c6f5760405162461bcd60e51b815260040161080b90611e7f565b6007805460ff1916911515919091179055565b3360008181526001602090815260408083206001600160a01b03871684529091528120549091610883918590610cb9908690611ec5565b6112b5565b3360009081526005602052604090205460ff161515600114610cf25760405162461bcd60e51b815260040161080b90611e7f565b6001600160a01b038116600081815260056020526040808220805460ff1916600190811790915560068054918201815583527ff652222313e28459528d920b65115c16c04f3efc82aaedc97be59f3f377c0d3f0180546001600160a01b031916841790555142929133917fa0b18fca933618876351ba2ef88bf4505c184d3e55064bec0d7fe236dd706d849190a450565b3360009081526005602052604090205460ff161515600114610db75760405162461bcd60e51b815260040161080b90611e7f565b6001600160a01b0383161580610dd457506001600160a01b038216155b80610de657506001600160a01b038116155b15610e495760405162461bcd60e51b815260206004820152602d60248201527f4e6f6e65206f6620746865206164647265737365732063616e2774206265207a60448201526c65726f2061646472657373657360981b606482015260840161080b565b601780546001600160a01b039485166001600160a01b031991821617909155601880549385169382169390931790925560198054919093169116179055565b60606004805461075490611e44565b606060068054806020026020016040519081016040528092919081815260200182805480156107cd57602002820191906000526020600020905b81546001600160a01b03168152600190910190602001808311610ed1575050505050905090565b3360009081526001602090815260408083206001600160a01b038616845290915281205482811015610f7a5760405162461bcd60e51b815260206004820152602560248201527f45524332303a2064656372656173656420616c6c6f77616e63652062656c6f77604482015264207a65726f60d81b606482015260840161080b565b610f8733858584036112b5565b5060019392505050565b60006108833384846113d9565b3360009081526005602052604090205460ff161515600114610fd25760405162461bcd60e51b815260040161080b90611e7f565b601b80546001600160a01b0319166001600160a01b0392909216919091179055565b3360009081526005602052604090205460ff1615156001146110285760405162461bcd60e51b815260040161080b90611e7f565b6001600160a01b03166000908152601a60205260409020805460ff19169055565b3360009081526005602052604090205460ff16151560011461107d5760405162461bcd60e51b815260040161080b90611e7f565b6001600160a01b03166000908152601a60205260409020805460ff19166001179055565b3360009081526005602052604090205460ff1615156001146110d55760405162461bcd60e51b815260040161080b90611e7f565b6001600160a01b03166000908152600c60205260409020805460ff19169055565b3360009081526005602052604090205460ff16151560011461112a5760405162461bcd60e51b815260040161080b90611e7f565b601b546001600160a01b03166111775760405162461bcd60e51b8152602060048201526012602482015271149bdd5d195c881b9bdd081cd95d081e595d60721b604482015260640161080b565b336000908152602081905260409020548311156111e85760405162461bcd60e51b815260206004820152602960248201527f53656e64657220646f6573206e6f74206861766520656e6f75676820746f6b656044820152686e2062616c616e636560b81b606482015260840161080b565b601b5460175460405163f305d71960e01b81526001600160a01b039283169263f305d7199234926112279230928a928a928a9216904290600401611f83565b60606040518083038185885af1158015611245573d6000803e3d6000fd5b50505050506040513d601f19601f8201168201806040525081019061126a9190611fbe565b505060075462010000900460ff1690506112b0576007805462ffff0019166201010017905560085461129c9042611ec5565b600955600a546112ac9043611ec5565b600b555b505050565b6001600160a01b0383166113175760405162461bcd60e51b8152602060048201526024808201527f45524332303a20617070726f76652066726f6d20746865207a65726f206164646044820152637265737360e01b606482015260840161080b565b6001600160a01b0382166113785760405162461bcd60e51b815260206004820152602260248201527f45524332303a20617070726f766520746f20746865207a65726f206164647265604482015261737360f01b606482015260840161080b565b6001600160a01b0383811660008181526001602090815260408083209487168084529482529182902085905590518481527f8c5be1e5ebec7d5bd14f71427d1e84f3dd0314c0f7b2291e5b200ac8c7c3b925910160405180910390a3505050565b3360009081526005602052604090205460ff166114355760075460ff16156114355760405162461bcd60e51b815260206004820152600f60248201526e10dbdb9d1c9858dd081c185d5cd959608a1b604482015260640161080b565b601154601254601354600754610100900460ff16156114a457600b54431161147b576001600160a01b0386166000908152600c60205260409020805460ff191660011790555b600954421161149857600d549250600e549150600f5490506114a4565b6007805461ff00191690555b6001600160a01b0386166000908152600c602052604090205460ff166115da57601b546017546001600160a01b03918216916001916000911615806114f257506018546001600160a01b0316155b8061150657506019546001600160a01b0316155b90506000836001600160a01b03168a6001600160a01b031614801561153c5750836001600160a01b0316896001600160a01b0316145b6001600160a01b038b166000908152601a60205260409020549015915060ff16806115645750815b8061156c5750805b1561157657600092505b600083156115c057846001600160a01b03168a6001600160a01b031614156115ab576115a4898989896115e2565b90506115c0565b6115bd896014546015546016546115e2565b90505b6115d48b8b6115cf848d611f3b565b611671565b50505050505b505050505050565b600080826115f08587611ec5565b6115fa9190611ec5565b90506000606461160a8688611ec5565b6116149089611fec565b61161e919061200b565b905061162c81838888611840565b60105460009060ff161561165b576064611646868a611fec565b611650919061200b565b905061165b816119a1565b6116658183611ec5565b98975050505050505050565b6001600160a01b0383166116d55760405162461bcd60e51b815260206004820152602560248201527f45524332303a207472616e736665722066726f6d20746865207a65726f206164604482015264647265737360d81b606482015260840161080b565b6001600160a01b0382166117375760405162461bcd60e51b815260206004820152602360248201527f45524332303a207472616e7366657220746f20746865207a65726f206164647260448201526265737360e81b606482015260840161080b565b6001600160a01b038316600090815260208190526040902054818110156117af5760405162461bcd60e51b815260206004820152602660248201527f45524332303a207472616e7366657220616d6f756e7420657863656564732062604482015265616c616e636560d01b606482015260840161080b565b6001600160a01b038085166000908152602081905260408082208585039055918516815290812080548492906117e6908490611ec5565b92505081905550826001600160a01b0316846001600160a01b03167fddf252ad1be2c89b69c2b068fc378daa952ba7f163c4a11628f55a4df523b3ef8460405161183291815260200190565b60405180910390a350505050565b600061184b856119df565b9050801561199a576017546000906001600160a01b031661187683876118718789611ec5565b611b57565b604051600081818185875af1925050503d80600081146118b2576040519150601f19603f3d011682016040523d82523d6000602084013e6118b7565b606091505b50506018549091506000906001600160a01b03166118d6848887611b57565b604051600081818185875af1925050503d8060008114611912576040519150601f19603f3d011682016040523d82523d6000602084013e611917565b606091505b505090508180156119255750805b6119975760405162461bcd60e51b815260206004820152603860248201527f436f756c646e27742073656e6420746f2065697468657220646576656c6f706d60448201527f656e74206f72206d61726b6574696e6720616464726573730000000000000000606482015260840161080b565b50505b5050505050565b60006119ae60028361200b565b905060006119bc8284611f3b565b90504760006119ca846119df565b905061199a836119da8484611f3b565b611b82565b604080516002808252606082018352600092839291906020830190803683370190505090503081600081518110611a1857611a18611f25565b6001600160a01b03928316602091820292909201810191909152601b54604080516315ab88c960e31b81529051919093169263ad5c46489260048083019391928290030181865afa158015611a71573d6000803e3d6000fd5b505050506040513d601f19601f82011682018060405250810190611a959190612043565b81600181518110611aa857611aa8611f25565b6001600160a01b039283166020918202929092010152601b54611ace91309116856112b5565b601b546040516318cbafe560e01b81526001600160a01b03909116906318cbafe590611b07908690600090869030904290600401612060565b6000604051808303816000875af1158015611b26573d6000803e3d6000fd5b505050506040513d6000823e601f3d908101601f19168201604052611b4e919081019061209c565b50479392505050565b6000606482611b668587611fec565b611b709190611fec565b611b7a919061200b565b949350505050565b601b54611b9a9030906001600160a01b0316846112b5565b601b5460175460405163f305d71960e01b81526001600160a01b039283169263f305d719928592611bda9230928992600092839216904290600401611f83565b60606040518083038185885af1158015611bf8573d6000803e3d6000fd5b50505050506040513d601f19601f8201168201806040525081019061199a9190611fbe565b600060208083528351808285015260005b81811015611c4a57858101830151858201604001528201611c2e565b81811115611c5c576000604083870101525b50601f01601f1916929092016040019392505050565b600080600060608486031215611c8757600080fd5b505081359360208301359350604090920135919050565b6001600160a01b0381168114611cb357600080fd5b50565b60008060408385031215611cc957600080fd5b8235611cd481611c9e565b946020939093013593505050565b600060208284031215611cf457600080fd5b8135611cff81611c9e565b9392505050565b600060208284031215611d1857600080fd5b81358015158114611cff57600080fd5b600080600060608486031215611d3d57600080fd5b8335611d4881611c9e565b92506020840135611d5881611c9e565b929592945050506040919091013590565b600080600060608486031215611d7e57600080fd5b8335611d8981611c9e565b92506020840135611d9981611c9e565b91506040840135611da981611c9e565b809150509250925092565b600081518084526020808501945080840160005b83811015611ded5781516001600160a01b031687529582019590820190600101611dc8565b509495945050505050565b602081526000611cff6020830184611db4565b60008060408385031215611e1e57600080fd5b8235611e2981611c9e565b91506020830135611e3981611c9e565b809150509250929050565b600181811c90821680611e5857607f821691505b60208210811415611e7957634e487b7160e01b600052602260045260246000fd5b50919050565b60208082526016908201527521b0b63632b91034b9903737ba1030b71037bbb732b960511b604082015260600190565b634e487b7160e01b600052601160045260246000fd5b60008219821115611ed857611ed8611eaf565b500190565b60208082526028908201527f546f74616c207461786573206172652061626f76652074686520616c6c6f77656040820152671908185b5bdd5b9d60c21b606082015260800190565b634e487b7160e01b600052603260045260246000fd5b600082821015611f4d57611f4d611eaf565b500390565b6000600019821415611f6657611f66611eaf565b5060010190565b634e487b7160e01b600052603160045260246000fd5b6001600160a01b039687168152602081019590955260408501939093526060840191909152909216608082015260a081019190915260c00190565b600080600060608486031215611fd357600080fd5b8351925060208401519150604084015190509250925092565b600081600019048311821515161561200657612006611eaf565b500290565b60008261202857634e487b7160e01b600052601260045260246000fd5b500490565b634e487b7160e01b600052604160045260246000fd5b60006020828403121561205557600080fd5b8151611cff81611c9e565b85815284602082015260a06040820152600061207f60a0830186611db4565b6001600160a01b0394909416606083015250608001529392505050565b600060208083850312156120af57600080fd5b825167ffffffffffffffff808211156120c757600080fd5b818501915085601f8301126120db57600080fd5b8151818111156120ed576120ed61202d565b8060051b604051601f19603f830116810181811085821117156121125761211261202d565b60405291825284820192508381018501918883111561213057600080fd5b938501935b828510156116655784518452938501939285019261213556fea26469706673582212205dfb9adb5282fce3ab32c9601f9d88f890d63369ad4567c014bad75b469257c764736f6c634300080b0033",
  "immutableReferences": {
    "5116": [
      {
        "length": 32,
        "start": 1260
      },
      {
        "length": 32,
        "start": 2070
      },
      {
        "length": 32,
        "start": 2794
      }
    ]
  },
  "source": "// SPDX-License-Identifier: MIT\n\npragma solidity >=0.4.22 <0.9.0;\n\nimport \"./PauseOwners.sol\";\nimport \"@openzeppelin/contracts/token/ERC20/ERC20.sol\";\nimport \"@uniswap/v2-periphery/contracts/interfaces/IUniswapV2Router02.sol\";\nimport \"@uniswap/v2-core/contracts/interfaces/IUniswapV2Pair.sol\";\nimport \"@uniswap/v2-periphery/contracts/libraries/UniswapV2Library.sol\";\n\ncontract Token is ERC20, PauseOwners {\n\tuint256 public immutable MAX_TOTAL_FEE = 25; // We can never surpass this total fee\n\n\tbool public antiBotEnabled = false;\n\tbool private antiBotRanOnce = false; // We can only run antibot once, when initial liquidity is added\n\tuint256 private antiBotTaxesTimeInSeconds = 3600;\n\tuint256 private antiBotTaxesEndTime;\n\tuint256 private antiBotBlockTime = 2;\n\tuint256 private antiBotBlockEnd;\n\n\tmapping(address => bool) antiBotBlacklist;\n\n\tuint256 private antiBotSellDevelopmentTax = 10;\n\tuint256 private antiBotSellMarketingTax = 10;\n\tuint256 private antiBotSellLiquidityTax = 5;\n\n\tbool public liquidityTaxEnabled = true;\n\n\tuint256 public sellDevelopmentTax = 4;\n\tuint256 public sellMarketingTax = 4;\n\tuint256 public sellLiquidityTax = 2;\n\n\tuint256 public buyDevelopmentTax = 2;\n\tuint256 public buyMarketingTax = 2;\n\tuint256 public buyLiquidityTax = 1;\n\n\taddress payable public developmentAddress;\n\taddress payable public marketingAddress;\n\taddress payable public liquidityAddress;\n\n\tmapping(address => bool) public isExcludedFromTax;\n\n\tIUniswapV2Router02 private router;\n\n\tconstructor(address gameAddress, address nftAddress) ERC20(\"Token\", \"TKN\") {\n\t\tdevelopmentAddress = payable(msg.sender);\n\t\t_mint(developmentAddress, 2000 * 10**decimals()); // For adding liquidity and team tokens\n\t\t_mint(gameAddress, 2000 * 10**decimals()); // Used as game rewards\n\t\t_mint(nftAddress, 2000 * 10**decimals()); // Used as NFT rewards\n\t\tisExcludedFromTax[gameAddress] = true;\n\t\tisExcludedFromTax[nftAddress] = true;\n\t}\n\n\treceive() external payable {} // Must be defined so the contract is able to receive ETH from swaps\n\n\tfunction addLiquidityAntiBot(\n\t\tuint256 amountToken,\n\t\tuint256 amountTokenMin,\n\t\tuint256 amountETHmin\n\t) public payable onlyOwners {\n\t\t// Add initial liquidity and enabled the \"anti-bot\" feature\n\t\trequire(address(router) != address(0), \"Router not set yet\");\n\t\trequire(\n\t\t\tbalanceOf(msg.sender) >= amountToken,\n\t\t\t\"Sender does not have enough token balance\"\n\t\t);\n\t\trouter.addLiquidityETH{ value: msg.value }(\n\t\t\taddress(this),\n\t\t\tamountToken,\n\t\t\tamountTokenMin,\n\t\t\tamountETHmin,\n\t\t\tdevelopmentAddress,\n\t\t\tblock.timestamp\n\t\t);\n\t\tif (!antiBotRanOnce) {\n\t\t\tantiBotEnabled = true;\n\t\t\tantiBotRanOnce = true;\n\t\t\tantiBotTaxesEndTime = block.timestamp + antiBotTaxesTimeInSeconds;\n\t\t\tantiBotBlockEnd = block.number + antiBotBlockTime;\n\t\t}\n\t}\n\n\tfunction _transfer(\n\t\taddress sender,\n\t\taddress recipient,\n\t\tuint256 amount\n\t) internal virtual override checkPaused {\n\t\t// Temporary local variables for setting antibot taxes\n\t\tuint256 sellDevelopmentTax_ = sellDevelopmentTax;\n\t\tuint256 sellMarketingTax_ = sellMarketingTax;\n\t\tuint256 sellLiquidityTax_ = sellLiquidityTax;\n\n\t\tif (antiBotEnabled) {\n\t\t\tif (block.number <= antiBotBlockEnd) {\n\t\t\t\tantiBotBlacklist[sender] = true;\n\t\t\t}\n\t\t\tif (block.timestamp <= antiBotTaxesEndTime) {\n\t\t\t\tsellDevelopmentTax_ = antiBotSellDevelopmentTax;\n\t\t\t\tsellMarketingTax_ = antiBotSellMarketingTax;\n\t\t\t\tsellLiquidityTax_ = antiBotSellLiquidityTax;\n\t\t\t} else {\n\t\t\t\tantiBotEnabled = false;\n\t\t\t}\n\t\t}\n\n\t\tif (!antiBotBlacklist[sender]) {\n\t\t\taddress routerAddress = address(router);\n\n\t\t\tbool takeFee = true;\n\t\t\tbool anyTaxAddressNotSet = developmentAddress == address(0) ||\n\t\t\t\tmarketingAddress == address(0) ||\n\t\t\t\tliquidityAddress == address(0);\n\t\t\tbool isWalletToWalletTransfer = !(sender == routerAddress &&\n\t\t\t\trecipient == routerAddress);\n\n\t\t\tif (\n\t\t\t\tisExcludedFromTax[sender] ||\n\t\t\t\tanyTaxAddressNotSet ||\n\t\t\t\tisWalletToWalletTransfer\n\t\t\t) {\n\t\t\t\ttakeFee = false;\n\t\t\t}\n\n\t\t\tuint256 totalFeeInTokens = 0;\n\t\t\tif (takeFee) {\n\t\t\t\tif (recipient == routerAddress) {\n\t\t\t\t\t// Selling\n\t\t\t\t\ttotalFeeInTokens = takeFees(\n\t\t\t\t\t\tamount,\n\t\t\t\t\t\tsellDevelopmentTax_,\n\t\t\t\t\t\tsellMarketingTax_,\n\t\t\t\t\t\tsellLiquidityTax_\n\t\t\t\t\t);\n\t\t\t\t} else {\n\t\t\t\t\t// Buying\n\t\t\t\t\ttotalFeeInTokens = takeFees(\n\t\t\t\t\t\tamount,\n\t\t\t\t\t\tbuyDevelopmentTax,\n\t\t\t\t\t\tbuyMarketingTax,\n\t\t\t\t\t\tbuyLiquidityTax\n\t\t\t\t\t);\n\t\t\t\t}\n\t\t\t}\n\t\t\tsuper._transfer(sender, recipient, amount - totalFeeInTokens);\n\t\t}\n\t}\n\n\tfunction takeFees(\n\t\tuint256 amountToken,\n\t\tuint256 developmentFee,\n\t\tuint256 marketingFee,\n\t\tuint256 liquidityFee\n\t) private returns (uint256) {\n\t\tuint256 totalFee = developmentFee + marketingFee + liquidityFee;\n\n\t\tuint256 walletFeeInTokens = (amountToken *\n\t\t\t(developmentFee + marketingFee)) / 100;\n\t\tswapAndTransferFees(\n\t\t\twalletFeeInTokens,\n\t\t\ttotalFee,\n\t\t\tdevelopmentFee,\n\t\t\tmarketingFee\n\t\t);\n\n\t\tuint256 liquidityFeeInTokens = 0;\n\t\tif (liquidityTaxEnabled) {\n\t\t\tliquidityFeeInTokens = (amountToken * liquidityFee) / 100;\n\t\t\tswapAndLiquify(liquidityFeeInTokens);\n\t\t}\n\n\t\treturn walletFeeInTokens + liquidityFeeInTokens;\n\t}\n\n\tfunction swapAndTransferFees(\n\t\tuint256 amountToken,\n\t\tuint256 totalFee,\n\t\tuint256 developmentFee,\n\t\tuint256 marketingFee\n\t) private {\n\t\tuint256 balance = swapTokensToETH(amountToken);\n\t\tif (balance > 0) {\n\t\t\t// No point in trying to send if swapped 0\n\t\t\t(bool devSent, ) = developmentAddress.call{\n\t\t\t\tvalue: getEthFromBalanceWithFees(\n\t\t\t\t\tbalance,\n\t\t\t\t\ttotalFee,\n\t\t\t\t\tdevelopmentFee + marketingFee\n\t\t\t\t)\n\t\t\t}(\"\");\n\t\t\t(bool marSent, ) = marketingAddress.call{\n\t\t\t\tvalue: getEthFromBalanceWithFees(\n\t\t\t\t\tbalance,\n\t\t\t\t\ttotalFee,\n\t\t\t\t\tmarketingFee\n\t\t\t\t)\n\t\t\t}(\"\");\n\t\t\trequire(\n\t\t\t\tdevSent && marSent,\n\t\t\t\t\"Couldn't send to either development or marketing address\"\n\t\t\t);\n\t\t}\n\t}\n\n\tfunction getEthFromBalanceWithFees(\n\t\tuint256 balance,\n\t\tuint256 withFee,\n\t\tuint256 totalFees\n\t) private pure returns (uint256) {\n\t\treturn (balance * withFee * totalFees) / 100;\n\t}\n\n\tfunction swapAndLiquify(uint256 amountToken) private {\n\t\tuint256 half1 = amountToken / 2;\n\t\tuint256 half2 = amountToken - half1;\n\t\tuint256 balanceBeforeSwap = address(this).balance;\n\t\tuint256 balanceAfterSwap = swapTokensToETH(half1); // Swap half of the tokens to BNB\n\t\taddTaxLiquidity(half2, balanceAfterSwap - balanceBeforeSwap); // Add the non-swapped tokens and the swapped BNB to liquidity\n\t}\n\n\tfunction swapTokensToETH(uint256 amountToken) private returns (uint256) {\n\t\taddress[] memory path = new address[](2);\n\t\tpath[0] = address(this);\n\t\tpath[1] = router.WETH();\n\t\t_approve(address(this), address(router), amountToken);\n\t\trouter.swapExactTokensForETH(\n\t\t\tamountToken,\n\t\t\t0, // Receive any amount\n\t\t\tpath,\n\t\t\taddress(this),\n\t\t\tblock.timestamp\n\t\t);\n\t\treturn address(this).balance; // Balance in wei after taking fees\n\t}\n\n\tfunction addTaxLiquidity(uint256 amountToken, uint256 amountEth) private {\n\t\t_approve(address(this), address(router), amountToken);\n\t\trouter.addLiquidityETH{ value: amountEth }(\n\t\t\taddress(this),\n\t\t\tamountToken,\n\t\t\t0,\n\t\t\t0,\n\t\t\tdevelopmentAddress,\n\t\t\tblock.timestamp\n\t\t);\n\t}\n\n\tfunction setSellTaxes(\n\t\tuint256 sellDevelopmentTax_,\n\t\tuint256 sellMarketingTax_,\n\t\tuint256 sellLiquidityTax_\n\t) external onlyOwners {\n\t\trequire(\n\t\t\t(sellDevelopmentTax_ + sellMarketingTax_ + sellLiquidityTax_) <=\n\t\t\t\tMAX_TOTAL_FEE,\n\t\t\t\"Total taxes are above the allowed amount\"\n\t\t);\n\t\tsellDevelopmentTax = sellDevelopmentTax_;\n\t\tsellMarketingTax = sellMarketingTax_;\n\t\tsellLiquidityTax = sellDevelopmentTax_;\n\t}\n\n\tfunction setBuyTaxes(\n\t\tuint256 buyDevelopmentTax_,\n\t\tuint256 buyMarketingTax_,\n\t\tuint256 buyLiquidityTax_\n\t) external onlyOwners {\n\t\trequire(\n\t\t\t(buyDevelopmentTax_ + buyMarketingTax_ + buyLiquidityTax_) <=\n\t\t\t\tMAX_TOTAL_FEE,\n\t\t\t\"Total taxes are above the allowed amount\"\n\t\t);\n\t\tbuyDevelopmentTax = buyDevelopmentTax_;\n\t\tbuyMarketingTax = buyMarketingTax_;\n\t\tbuyLiquidityTax = buyLiquidityTax_;\n\t}\n\n\tfunction setTaxAddresses(\n\t\taddress developmentAddress_,\n\t\taddress marketingAddress_,\n\t\taddress liquidityAddress_\n\t) external onlyOwners {\n\t\trequire(\n\t\t\t!(developmentAddress_ == address(0) ||\n\t\t\t\tmarketingAddress_ == address(0) ||\n\t\t\t\tliquidityAddress_ == address(0)),\n\t\t\t\"None of the addresses can't be zero addresses\"\n\t\t);\n\t\tdevelopmentAddress = payable(developmentAddress_);\n\t\tmarketingAddress = payable(marketingAddress_);\n\t\tliquidityAddress = payable(liquidityAddress_);\n\t}\n\n\tfunction removeBlacklist(address address_) external onlyOwners {\n\t\tantiBotBlacklist[address_] = false;\n\t}\n\n\tfunction setLiquidityTaxEnabled(bool enabled) external onlyOwners {\n\t\tliquidityTaxEnabled = enabled;\n\t}\n\n\tfunction addTaxExcludedAddress(address address_) external onlyOwners {\n\t\tisExcludedFromTax[address_] = true;\n\t}\n\n\tfunction removeTaxExcludedAddress(address address_) external onlyOwners {\n\t\tisExcludedFromTax[address_] = false;\n\t}\n\n\tfunction setRouter(address routerAddress) external onlyOwners {\n\t\trouter = IUniswapV2Router02(routerAddress);\n\t}\n}\n",
  "sourcePath": "C:\\Users\\sants\\Desktop\\slimekeeper\\slimekeeper_contracts\\contracts\\Token.sol",
  "compiler": {
    "name": "solc",
    "version": "0.8.11+commit.d7f03943.Emscripten.clang"
  },
  "schemaVersion": "3.4.4",
  "updatedAt": "2022-02-16T23:41:43.971Z",
  "networkType": "ethereum",
  "devdoc": {
    "kind": "dev",
    "methods": {
      "allowance(address,address)": {
        "details": "See {IERC20-allowance}."
      },
      "approve(address,uint256)": {
        "details": "See {IERC20-approve}. Requirements: - `spender` cannot be the zero address."
      },
      "balanceOf(address)": {
        "details": "See {IERC20-balanceOf}."
      },
      "decimals()": {
        "details": "Returns the number of decimals used to get its user representation. For example, if `decimals` equals `2`, a balance of `505` tokens should be displayed to a user as `5.05` (`505 / 10 ** 2`). Tokens usually opt for a value of 18, imitating the relationship between Ether and Wei. This is the value {ERC20} uses, unless this function is overridden; NOTE: This information is only used for _display_ purposes: it in no way affects any of the arithmetic of the contract, including {IERC20-balanceOf} and {IERC20-transfer}."
      },
      "decreaseAllowance(address,uint256)": {
        "details": "Atomically decreases the allowance granted to `spender` by the caller. This is an alternative to {approve} that can be used as a mitigation for problems described in {IERC20-approve}. Emits an {Approval} event indicating the updated allowance. Requirements: - `spender` cannot be the zero address. - `spender` must have allowance for the caller of at least `subtractedValue`."
      },
      "increaseAllowance(address,uint256)": {
        "details": "Atomically increases the allowance granted to `spender` by the caller. This is an alternative to {approve} that can be used as a mitigation for problems described in {IERC20-approve}. Emits an {Approval} event indicating the updated allowance. Requirements: - `spender` cannot be the zero address."
      },
      "name()": {
        "details": "Returns the name of the token."
      },
      "symbol()": {
        "details": "Returns the symbol of the token, usually a shorter version of the name."
      },
      "totalSupply()": {
        "details": "See {IERC20-totalSupply}."
      },
      "transfer(address,uint256)": {
        "details": "See {IERC20-transfer}. Requirements: - `recipient` cannot be the zero address. - the caller must have a balance of at least `amount`."
      },
      "transferFrom(address,address,uint256)": {
        "details": "See {IERC20-transferFrom}. Emits an {Approval} event indicating the updated allowance. This is not required by the EIP. See the note at the beginning of {ERC20}. Requirements: - `sender` and `recipient` cannot be the zero address. - `sender` must have a balance of at least `amount`. - the caller must have allowance for ``sender``'s tokens of at least `amount`."
      }
    },
    "version": 1
  },
  "userdoc": {
    "kind": "user",
    "methods": {},
    "version": 1
  }
}