{
  "contractName": "Token",
  "abi": [
    {
      "inputs": [
        {
          "internalType": "address",
          "name": "gameAddress_",
          "type": "address"
        },
        {
          "internalType": "address",
          "name": "nftAddress_",
          "type": "address"
        },
        {
          "internalType": "address",
          "name": "rewardsAddress_",
          "type": "address"
        },
        {
          "internalType": "address",
          "name": "marketingAddress_",
          "type": "address"
        },
        {
          "internalType": "address",
          "name": "routerAddress_",
          "type": "address"
        }
      ],
      "stateMutability": "nonpayable",
      "type": "constructor"
    },
    {
      "anonymous": false,
      "inputs": [
        {
          "indexed": true,
          "internalType": "address",
          "name": "owner",
          "type": "address"
        },
        {
          "indexed": true,
          "internalType": "address",
          "name": "spender",
          "type": "address"
        },
        {
          "indexed": false,
          "internalType": "uint256",
          "name": "value",
          "type": "uint256"
        }
      ],
      "name": "Approval",
      "type": "event"
    },
    {
      "anonymous": false,
      "inputs": [
        {
          "indexed": false,
          "internalType": "address",
          "name": "sender",
          "type": "address"
        },
        {
          "indexed": false,
          "internalType": "uint256",
          "name": "amountETH",
          "type": "uint256"
        },
        {
          "indexed": false,
          "internalType": "uint256",
          "name": "amountToken",
          "type": "uint256"
        }
      ],
      "name": "LiquidityAdded",
      "type": "event"
    },
    {
      "anonymous": false,
      "inputs": [
        {
          "indexed": true,
          "internalType": "address",
          "name": "adder",
          "type": "address"
        },
        {
          "indexed": true,
          "internalType": "address",
          "name": "owner",
          "type": "address"
        },
        {
          "indexed": true,
          "internalType": "uint256",
          "name": "timestamp",
          "type": "uint256"
        }
      ],
      "name": "OwnerAdded",
      "type": "event"
    },
    {
      "anonymous": false,
      "inputs": [
        {
          "indexed": true,
          "internalType": "address",
          "name": "remover",
          "type": "address"
        },
        {
          "indexed": true,
          "internalType": "address",
          "name": "removed",
          "type": "address"
        },
        {
          "indexed": true,
          "internalType": "uint256",
          "name": "timestamp",
          "type": "uint256"
        }
      ],
      "name": "OwnerRemoved",
      "type": "event"
    },
    {
      "anonymous": false,
      "inputs": [],
      "name": "OwnershipRenounced",
      "type": "event"
    },
    {
      "anonymous": false,
      "inputs": [
        {
          "indexed": true,
          "internalType": "address",
          "name": "from",
          "type": "address"
        },
        {
          "indexed": true,
          "internalType": "address",
          "name": "to",
          "type": "address"
        },
        {
          "indexed": false,
          "internalType": "uint256",
          "name": "value",
          "type": "uint256"
        }
      ],
      "name": "Transfer",
      "type": "event"
    },
    {
      "inputs": [],
      "name": "MAX_TOTAL_FEE",
      "outputs": [
        {
          "internalType": "uint256",
          "name": "",
          "type": "uint256"
        }
      ],
      "stateMutability": "view",
      "type": "function"
    },
    {
      "inputs": [
        {
          "internalType": "address",
          "name": "owner",
          "type": "address"
        }
      ],
      "name": "addOwner",
      "outputs": [],
      "stateMutability": "nonpayable",
      "type": "function"
    },
    {
      "inputs": [
        {
          "internalType": "address",
          "name": "owner",
          "type": "address"
        },
        {
          "internalType": "address",
          "name": "spender",
          "type": "address"
        }
      ],
      "name": "allowance",
      "outputs": [
        {
          "internalType": "uint256",
          "name": "",
          "type": "uint256"
        }
      ],
      "stateMutability": "view",
      "type": "function"
    },
    {
      "inputs": [
        {
          "internalType": "address",
          "name": "",
          "type": "address"
        }
      ],
      "name": "antiBotBlacklist",
      "outputs": [
        {
          "internalType": "bool",
          "name": "",
          "type": "bool"
        }
      ],
      "stateMutability": "view",
      "type": "function"
    },
    {
      "inputs": [],
      "name": "antiBotBlockEndBlock",
      "outputs": [
        {
          "internalType": "uint256",
          "name": "",
          "type": "uint256"
        }
      ],
      "stateMutability": "view",
      "type": "function"
    },
    {
      "inputs": [],
      "name": "antiBotEnabled",
      "outputs": [
        {
          "internalType": "bool",
          "name": "",
          "type": "bool"
        }
      ],
      "stateMutability": "view",
      "type": "function"
    },
    {
      "inputs": [],
      "name": "antiBotTaxesEndTime",
      "outputs": [
        {
          "internalType": "uint256",
          "name": "",
          "type": "uint256"
        }
      ],
      "stateMutability": "view",
      "type": "function"
    },
    {
      "inputs": [
        {
          "internalType": "address",
          "name": "spender",
          "type": "address"
        },
        {
          "internalType": "uint256",
          "name": "amount",
          "type": "uint256"
        }
      ],
      "name": "approve",
      "outputs": [
        {
          "internalType": "bool",
          "name": "",
          "type": "bool"
        }
      ],
      "stateMutability": "nonpayable",
      "type": "function"
    },
    {
      "inputs": [
        {
          "internalType": "address",
          "name": "account",
          "type": "address"
        }
      ],
      "name": "balanceOf",
      "outputs": [
        {
          "internalType": "uint256",
          "name": "",
          "type": "uint256"
        }
      ],
      "stateMutability": "view",
      "type": "function"
    },
    {
      "inputs": [],
      "name": "buyDevelopmentTax",
      "outputs": [
        {
          "internalType": "uint256",
          "name": "",
          "type": "uint256"
        }
      ],
      "stateMutability": "view",
      "type": "function"
    },
    {
      "inputs": [],
      "name": "buyLiquidityTax",
      "outputs": [
        {
          "internalType": "uint256",
          "name": "",
          "type": "uint256"
        }
      ],
      "stateMutability": "view",
      "type": "function"
    },
    {
      "inputs": [],
      "name": "buyMarketingTax",
      "outputs": [
        {
          "internalType": "uint256",
          "name": "",
          "type": "uint256"
        }
      ],
      "stateMutability": "view",
      "type": "function"
    },
    {
      "inputs": [],
      "name": "buyRewardsTax",
      "outputs": [
        {
          "internalType": "uint256",
          "name": "",
          "type": "uint256"
        }
      ],
      "stateMutability": "view",
      "type": "function"
    },
    {
      "inputs": [],
      "name": "decimals",
      "outputs": [
        {
          "internalType": "uint8",
          "name": "",
          "type": "uint8"
        }
      ],
      "stateMutability": "view",
      "type": "function"
    },
    {
      "inputs": [
        {
          "internalType": "address",
          "name": "spender",
          "type": "address"
        },
        {
          "internalType": "uint256",
          "name": "subtractedValue",
          "type": "uint256"
        }
      ],
      "name": "decreaseAllowance",
      "outputs": [
        {
          "internalType": "bool",
          "name": "",
          "type": "bool"
        }
      ],
      "stateMutability": "nonpayable",
      "type": "function"
    },
    {
      "inputs": [],
      "name": "developmentAddress",
      "outputs": [
        {
          "internalType": "address payable",
          "name": "",
          "type": "address"
        }
      ],
      "stateMutability": "view",
      "type": "function"
    },
    {
      "inputs": [],
      "name": "gameAddress",
      "outputs": [
        {
          "internalType": "address payable",
          "name": "",
          "type": "address"
        }
      ],
      "stateMutability": "view",
      "type": "function"
    },
    {
      "inputs": [],
      "name": "getOwners",
      "outputs": [
        {
          "internalType": "address[]",
          "name": "",
          "type": "address[]"
        }
      ],
      "stateMutability": "view",
      "type": "function"
    },
    {
      "inputs": [
        {
          "internalType": "address",
          "name": "spender",
          "type": "address"
        },
        {
          "internalType": "uint256",
          "name": "addedValue",
          "type": "uint256"
        }
      ],
      "name": "increaseAllowance",
      "outputs": [
        {
          "internalType": "bool",
          "name": "",
          "type": "bool"
        }
      ],
      "stateMutability": "nonpayable",
      "type": "function"
    },
    {
      "inputs": [
        {
          "internalType": "address",
          "name": "",
          "type": "address"
        }
      ],
      "name": "isExcludedFromTax",
      "outputs": [
        {
          "internalType": "bool",
          "name": "",
          "type": "bool"
        }
      ],
      "stateMutability": "view",
      "type": "function"
    },
    {
      "inputs": [
        {
          "internalType": "address",
          "name": "owner",
          "type": "address"
        }
      ],
      "name": "isOwner",
      "outputs": [
        {
          "internalType": "bool",
          "name": "",
          "type": "bool"
        }
      ],
      "stateMutability": "view",
      "type": "function"
    },
    {
      "inputs": [],
      "name": "isPaused",
      "outputs": [
        {
          "internalType": "bool",
          "name": "",
          "type": "bool"
        }
      ],
      "stateMutability": "view",
      "type": "function"
    },
    {
      "inputs": [],
      "name": "liquidityTaxEnabled",
      "outputs": [
        {
          "internalType": "bool",
          "name": "",
          "type": "bool"
        }
      ],
      "stateMutability": "view",
      "type": "function"
    },
    {
      "inputs": [],
      "name": "marketingAddress",
      "outputs": [
        {
          "internalType": "address payable",
          "name": "",
          "type": "address"
        }
      ],
      "stateMutability": "view",
      "type": "function"
    },
    {
      "inputs": [],
      "name": "name",
      "outputs": [
        {
          "internalType": "string",
          "name": "",
          "type": "string"
        }
      ],
      "stateMutability": "view",
      "type": "function"
    },
    {
      "inputs": [],
      "name": "nftAddress",
      "outputs": [
        {
          "internalType": "address payable",
          "name": "",
          "type": "address"
        }
      ],
      "stateMutability": "view",
      "type": "function"
    },
    {
      "inputs": [
        {
          "internalType": "address",
          "name": "owner",
          "type": "address"
        }
      ],
      "name": "removeOwner",
      "outputs": [],
      "stateMutability": "nonpayable",
      "type": "function"
    },
    {
      "inputs": [],
      "name": "renounceOwnership",
      "outputs": [],
      "stateMutability": "nonpayable",
      "type": "function"
    },
    {
      "inputs": [],
      "name": "renounced",
      "outputs": [
        {
          "internalType": "bool",
          "name": "",
          "type": "bool"
        }
      ],
      "stateMutability": "view",
      "type": "function"
    },
    {
      "inputs": [],
      "name": "rewardsAddress",
      "outputs": [
        {
          "internalType": "address payable",
          "name": "",
          "type": "address"
        }
      ],
      "stateMutability": "view",
      "type": "function"
    },
    {
      "inputs": [],
      "name": "sellDevelopmentTax",
      "outputs": [
        {
          "internalType": "uint256",
          "name": "",
          "type": "uint256"
        }
      ],
      "stateMutability": "view",
      "type": "function"
    },
    {
      "inputs": [],
      "name": "sellLiquidityTax",
      "outputs": [
        {
          "internalType": "uint256",
          "name": "",
          "type": "uint256"
        }
      ],
      "stateMutability": "view",
      "type": "function"
    },
    {
      "inputs": [],
      "name": "sellMarketingTax",
      "outputs": [
        {
          "internalType": "uint256",
          "name": "",
          "type": "uint256"
        }
      ],
      "stateMutability": "view",
      "type": "function"
    },
    {
      "inputs": [],
      "name": "sellRewardsTax",
      "outputs": [
        {
          "internalType": "uint256",
          "name": "",
          "type": "uint256"
        }
      ],
      "stateMutability": "view",
      "type": "function"
    },
    {
      "inputs": [
        {
          "internalType": "bool",
          "name": "isPaused_",
          "type": "bool"
        }
      ],
      "name": "setIsPaused",
      "outputs": [],
      "stateMutability": "nonpayable",
      "type": "function"
    },
    {
      "inputs": [],
      "name": "symbol",
      "outputs": [
        {
          "internalType": "string",
          "name": "",
          "type": "string"
        }
      ],
      "stateMutability": "view",
      "type": "function"
    },
    {
      "inputs": [],
      "name": "totalSupply",
      "outputs": [
        {
          "internalType": "uint256",
          "name": "",
          "type": "uint256"
        }
      ],
      "stateMutability": "view",
      "type": "function"
    },
    {
      "inputs": [
        {
          "internalType": "address",
          "name": "to",
          "type": "address"
        },
        {
          "internalType": "uint256",
          "name": "amount",
          "type": "uint256"
        }
      ],
      "name": "transfer",
      "outputs": [
        {
          "internalType": "bool",
          "name": "",
          "type": "bool"
        }
      ],
      "stateMutability": "nonpayable",
      "type": "function"
    },
    {
      "inputs": [
        {
          "internalType": "address",
          "name": "from",
          "type": "address"
        },
        {
          "internalType": "address",
          "name": "to",
          "type": "address"
        },
        {
          "internalType": "uint256",
          "name": "amount",
          "type": "uint256"
        }
      ],
      "name": "transferFrom",
      "outputs": [
        {
          "internalType": "bool",
          "name": "",
          "type": "bool"
        }
      ],
      "stateMutability": "nonpayable",
      "type": "function"
    },
    {
      "stateMutability": "payable",
      "type": "receive"
    },
    {
      "inputs": [],
      "name": "emergencyMintRewards",
      "outputs": [],
      "stateMutability": "nonpayable",
      "type": "function"
    },
    {
      "inputs": [
        {
          "internalType": "uint256",
          "name": "amountToken",
          "type": "uint256"
        }
      ],
      "name": "addLiquidity",
      "outputs": [],
      "stateMutability": "payable",
      "type": "function"
    },
    {
      "inputs": [
        {
          "internalType": "uint256",
          "name": "sellDevelopmentTax_",
          "type": "uint256"
        },
        {
          "internalType": "uint256",
          "name": "sellMarketingTax_",
          "type": "uint256"
        },
        {
          "internalType": "uint256",
          "name": "sellLiquidityTax_",
          "type": "uint256"
        },
        {
          "internalType": "uint256",
          "name": "sellRewardsTax_",
          "type": "uint256"
        }
      ],
      "name": "setAntiBotSellTaxes",
      "outputs": [],
      "stateMutability": "nonpayable",
      "type": "function"
    },
    {
      "inputs": [
        {
          "internalType": "uint256",
          "name": "sellDevelopmentTax_",
          "type": "uint256"
        },
        {
          "internalType": "uint256",
          "name": "sellMarketingTax_",
          "type": "uint256"
        },
        {
          "internalType": "uint256",
          "name": "sellLiquidityTax_",
          "type": "uint256"
        },
        {
          "internalType": "uint256",
          "name": "sellRewardsTax_",
          "type": "uint256"
        }
      ],
      "name": "setSellTaxes",
      "outputs": [],
      "stateMutability": "nonpayable",
      "type": "function"
    },
    {
      "inputs": [
        {
          "internalType": "uint256",
          "name": "buyDevelopmentTax_",
          "type": "uint256"
        },
        {
          "internalType": "uint256",
          "name": "buyMarketingTax_",
          "type": "uint256"
        },
        {
          "internalType": "uint256",
          "name": "buyLiquidityTax_",
          "type": "uint256"
        },
        {
          "internalType": "uint256",
          "name": "buyRewardsTax_",
          "type": "uint256"
        }
      ],
      "name": "setBuyTaxes",
      "outputs": [],
      "stateMutability": "nonpayable",
      "type": "function"
    },
    {
      "inputs": [
        {
          "internalType": "address",
          "name": "developmentAddress_",
          "type": "address"
        },
        {
          "internalType": "address",
          "name": "marketingAddress_",
          "type": "address"
        },
        {
          "internalType": "address",
          "name": "rewardsAddress_",
          "type": "address"
        }
      ],
      "name": "setTaxAddresses",
      "outputs": [],
      "stateMutability": "nonpayable",
      "type": "function"
    },
    {
      "inputs": [
        {
          "internalType": "address",
          "name": "address_",
          "type": "address"
        }
      ],
      "name": "removeBlacklistedAddress",
      "outputs": [],
      "stateMutability": "nonpayable",
      "type": "function"
    },
    {
      "inputs": [
        {
          "internalType": "bool",
          "name": "enabled",
          "type": "bool"
        }
      ],
      "name": "setLiquidityTaxEnabled",
      "outputs": [],
      "stateMutability": "nonpayable",
      "type": "function"
    },
    {
      "inputs": [
        {
          "internalType": "address",
          "name": "address_",
          "type": "address"
        }
      ],
      "name": "addTaxExcludedAddress",
      "outputs": [],
      "stateMutability": "nonpayable",
      "type": "function"
    },
    {
      "inputs": [
        {
          "internalType": "address",
          "name": "address_",
          "type": "address"
        }
      ],
      "name": "removeTaxExcludedAddress",
      "outputs": [],
      "stateMutability": "nonpayable",
      "type": "function"
    },
    {
      "inputs": [
        {
          "internalType": "address",
          "name": "routerAddress",
          "type": "address"
        }
      ],
      "name": "setRouter",
      "outputs": [],
      "stateMutability": "nonpayable",
      "type": "function"
    }
  ],
  "bytecode": "0x60a06040526019608090815250610e10600b556002600c556009600d556009600e556003600f5560046010556001601260006101000a81548160ff021916908315150217905550600360155560036016556002601755600460185560026019556002601a556001601b556002601c553480156200007b57600080fd5b506040516200385b3803806200385b8339810160408190526200009e9162000796565b604051806040016040528060058152602001642a37b5b2b760d91b815250604051806040016040528060038152602001622a25a760e91b8152508160039080519060200190620000f0929190620006d3565b50805162000106906004906020840190620006d3565b50505033620001675760405162461bcd60e51b815260206004820152602260248201527f43616e277420696e697469616c697a652077697468207a65726f206164647265604482015261737360f01b60648201526084015b60405180910390fd5b60058054610100600160a81b031916336101008102919091179091556000818152600660205260408120805460ff1916600190811790915560078054808301825592527fa66cc928b5edb82af9bd49922954155ab7b0942694bea4ce44661d9a8736c68890910180546001600160a01b031916909217909155620001eb9062000352565b601d8054336001600160a01b031991821681179092556020805482166001600160a01b0389811691909117909155602180548316888316179055601e80548316868316179055601f80549092169086161790556200026d906200024c601290565b6200025990600a6200091b565b6200026790610d0562000933565b6200041b565b601f546200029a906001600160a01b03166200028c6012600a6200091b565b6200026790611a0b62000933565b6103e8620002a760025490565b620002b3919062000955565b601355601d546001600160a01b0390811660009081526022602090815260408083208054600160ff1991821681179092559254851684528184208054841682179055602154851684528184208054841682179055601e54851684528184208054841682179055601f549094168352808320805483168517905530835290912080549091169091179055620003478162000500565b5050505050620009ee565b60055460ff1615620003a75760405162461bcd60e51b815260206004820152601360248201527f4f776e6572736869702072656e6f756e6365640000000000000000000000000060448201526064016200015e565b3360009081526006602052604090205460ff16620004085760405162461bcd60e51b815260206004820152601660248201527f43616c6c6572206973206e6f7420616e206f776e65720000000000000000000060448201526064016200015e565b6008805460ff1916911515919091179055565b6001600160a01b038216620004735760405162461bcd60e51b815260206004820152601f60248201527f45524332303a206d696e7420746f20746865207a65726f20616464726573730060448201526064016200015e565b806002600082825462000487919062000978565b90915550506001600160a01b03821660009081526020819052604081208054839290620004b690849062000978565b90915550506040518181526001600160a01b038316906000907fddf252ad1be2c89b69c2b068fc378daa952ba7f163c4a11628f55a4df523b3ef9060200160405180910390a35050565b602380546001600160a01b0319166001600160a01b0383169081179091556040805163c45a015560e01b8152905163c45a0155916004808201926020929091908290030181865afa1580156200055a573d6000803e3d6000fd5b505050506040513d601f19601f8201168201806040525081019062000580919062000993565b6001600160a01b031663c9c6539630602360009054906101000a90046001600160a01b03166001600160a01b031663ad5c46486040518163ffffffff1660e01b8152600401602060405180830381865afa158015620005e3573d6000803e3d6000fd5b505050506040513d601f19601f8201168201806040525081019062000609919062000993565b6040516001600160e01b031960e085901b1681526001600160a01b039283166004820152911660248201526044016020604051808303816000875af115801562000657573d6000803e3d6000fd5b505050506040513d601f19601f820116820180604052508101906200067d919062000993565b602480546001600160a01b0319166001600160a01b039283161781556023548216600090815260226020526040808220805460ff1990811660019081179092559354909416825290208054909116909117905550565b828054620006e190620009b1565b90600052602060002090601f01602090048101928262000705576000855562000750565b82601f106200072057805160ff191683800117855562000750565b8280016001018555821562000750579182015b828111156200075057825182559160200191906001019062000733565b506200075e92915062000762565b5090565b5b808211156200075e576000815560010162000763565b80516001600160a01b03811681146200079157600080fd5b919050565b600080600080600060a08688031215620007af57600080fd5b620007ba8662000779565b9450620007ca6020870162000779565b9350620007da6040870162000779565b9250620007ea6060870162000779565b9150620007fa6080870162000779565b90509295509295909350565b634e487b7160e01b600052601160045260246000fd5b600181815b808511156200085d57816000190482111562000841576200084162000806565b808516156200084f57918102915b93841c939080029062000821565b509250929050565b600082620008765750600162000915565b81620008855750600062000915565b81600181146200089e5760028114620008a957620008c9565b600191505062000915565b60ff841115620008bd57620008bd62000806565b50506001821b62000915565b5060208310610133831016604e8410600b8410161715620008ee575081810a62000915565b620008fa83836200081c565b806000190482111562000911576200091162000806565b0290505b92915050565b60006200092c60ff84168362000865565b9392505050565b600081600019048311821515161562000950576200095062000806565b500290565b6000826200097357634e487b7160e01b600052601260045260246000fd5b500490565b600082198211156200098e576200098e62000806565b500190565b600060208284031215620009a657600080fd5b6200092c8262000779565b600181811c90821680620009c657607f821691505b60208210811415620009e857634e487b7160e01b600052602260045260246000fd5b50919050565b608051612e3c62000a1f600039600081816105f90152818161133f015281816117ee01526118b30152612e3c6000f3fe6080604052600436106102cd5760003560e01c8063810a71a311610175578063c0973eed116100dc578063cdf5b43411610095578063dd62ed3e1161006f578063dd62ed3e14610893578063e4bf1bed146108b3578063e96db1ef146108d3578063f480fec2146108e957600080fd5b8063cdf5b43414610844578063d232c2201461085a578063d8c6404b1461087457600080fd5b8063c0973eed1461077e578063c0d786551461079e578063cb4ca631146107be578063cb95b2d9146107ee578063cc9c49a614610804578063cdca70831461082457600080fd5b8063a2cbba281161012e578063a2cbba28146106d8578063a457c2d7146106ee578063a5ece9411461070e578063a9059cbb1461072e578063ad8052bb1461074e578063b187bd261461076457600080fd5b8063810a71a31461061b578063887d63171461064b57806395d89b411461066b578063993df94e14610680578063a0e67e2b14610696578063a168d873146106b857600080fd5b806339509351116102345780636ab91206116101ed57806370a08231116101c757806370a082311461057c578063715018a6146105b25780637c546d80146105c75780637f635cc0146105e757600080fd5b80636ab91206146105315780636eee2b46146105475780637065cb481461055c57600080fd5b8063395093511461047a57806351c6590a1461049a5780635a686d54146104ad5780635bf8633a146104c35780636053b881146104fb578063638b1b141461051157600080fd5b8063240976bf11610286578063240976bf146103b55780632c505fb3146103d55780632f54bf6e146103ef578063313ce5671461042857806333012411146104445780633328b7211461045a57600080fd5b806306fdde03146102d9578063095ea7b314610304578063173825d91461033457806318160ddd146103565780631a9431a91461037557806323b872dd1461039557600080fd5b366102d457005b600080fd5b3480156102e557600080fd5b506102ee610909565b6040516102fb919061298f565b60405180910390f35b34801561031057600080fd5b5061032461031f3660046129f9565b61099b565b60405190151581526020016102fb565b34801561034057600080fd5b5061035461034f366004612a25565b6109b3565b005b34801561036257600080fd5b506002545b6040519081526020016102fb565b34801561038157600080fd5b50610354610390366004612a49565b610cc1565b3480156103a157600080fd5b506103246103b0366004612a6b565b610d26565b3480156103c157600080fd5b506103546103d0366004612a49565b610d4a565b3480156103e157600080fd5b506012546103249060ff1681565b3480156103fb57600080fd5b5061032461040a366004612a25565b6001600160a01b031660009081526006602052604090205460ff1690565b34801561043457600080fd5b50604051601281526020016102fb565b34801561045057600080fd5b50610367601a5481565b34801561046657600080fd5b50610354610475366004612a25565b610daf565b34801561048657600080fd5b506103246104953660046129f9565b610e22565b6103546104a8366004612aac565b610e61565b3480156104b957600080fd5b50610367601c5481565b3480156104cf57600080fd5b506021546104e3906001600160a01b031681565b6040516001600160a01b0390911681526020016102fb565b34801561050757600080fd5b5061036760185481565b34801561051d57600080fd5b50601d546104e3906001600160a01b031681565b34801561053d57600080fd5b5061036760175481565b34801561055357600080fd5b506103546110bf565b34801561056857600080fd5b50610354610577366004612a25565b611109565b34801561058857600080fd5b50610367610597366004612a25565b6001600160a01b031660009081526020819052604090205490565b3480156105be57600080fd5b506103546111ec565b3480156105d357600080fd5b506103546105e2366004612ac5565b611294565b3480156105f357600080fd5b506103677f000000000000000000000000000000000000000000000000000000000000000081565b34801561062757600080fd5b50610324610636366004612a25565b60116020526000908152604090205460ff1681565b34801561065757600080fd5b50610354610666366004612af7565b6113b0565b34801561067757600080fd5b506102ee61151b565b34801561068c57600080fd5b5061036760195481565b3480156106a257600080fd5b506106ab61152a565b6040516102fb9190612b86565b3480156106c457600080fd5b506020546104e3906001600160a01b031681565b3480156106e457600080fd5b50610367601b5481565b3480156106fa57600080fd5b506103246107093660046129f9565b61158b565b34801561071a57600080fd5b50601e546104e3906001600160a01b031681565b34801561073a57600080fd5b506103246107493660046129f9565b61161d565b34801561075a57600080fd5b5061036760155481565b34801561077057600080fd5b506008546103249060ff1681565b34801561078a57600080fd5b50601f546104e3906001600160a01b031681565b3480156107aa57600080fd5b506103546107b9366004612a25565b61162b565b3480156107ca57600080fd5b506103246107d9366004612a25565b60226020526000908152604090205460ff1681565b3480156107fa57600080fd5b50610367600a5481565b34801561081057600080fd5b5061035461081f366004612a25565b611686565b34801561083057600080fd5b5061035461083f366004612a25565b6116f9565b34801561085057600080fd5b5061036760095481565b34801561086657600080fd5b506005546103249060ff1681565b34801561088057600080fd5b5060085461032490610100900460ff1681565b34801561089f57600080fd5b506103676108ae366004612b99565b61176f565b3480156108bf57600080fd5b506103546108ce366004612ac5565b61179a565b3480156108df57600080fd5b5061036760165481565b3480156108f557600080fd5b50610354610904366004612ac5565b61185f565b60606003805461091890612bd2565b80601f016020809104026020016040519081016040528092919081815260200182805461094490612bd2565b80156109915780601f1061096657610100808354040283529160200191610991565b820191906000526020600020905b81548152906001019060200180831161097457829003601f168201915b5050505050905090565b6000336109a9818585611924565b5060019392505050565b60055460ff16156109df5760405162461bcd60e51b81526004016109d690612c0d565b60405180910390fd5b3360009081526006602052604090205460ff16610a0e5760405162461bcd60e51b81526004016109d690612c3a565b6001600160a01b03811660009081526006602052604090205460ff16610a765760405162461bcd60e51b815260206004820152601760248201527f41646472657373206973206e6f7420616e206f776e657200000000000000000060448201526064016109d6565b60055461010090046001600160a01b0316331415610ad65760405162461bcd60e51b815260206004820152601d60248201527f4d6173746572206f776e65722063616e27742062652072656d6f76656400000060448201526064016109d6565b60075460005b600754811015610c5d57826001600160a01b031660078281548110610b0357610b03612c6a565b6000918252602090912001546001600160a01b03161415610c4b576001600160a01b0383166000908152600660205260409020805460ff19169055805b600754610b4f90600190612c96565b811015610bda576007610b63836001612cad565b81548110610b7357610b73612c6a565b600091825260209091200154600780546001600160a01b039092169184908110610b9f57610b9f612c6a565b600091825260209091200180546001600160a01b0319166001600160a01b039290921691909117905580610bd281612cc5565b915050610b40565b506007805480610bec57610bec612ce0565b600082815260208120820160001990810180546001600160a01b031916905590910190915560405142916001600160a01b0386169133917fecc5dd9888b87e7ed252d66b9c086ab819de6c8f8b96c8e5458e105bacfbb02791a4610c5d565b80610c5581612cc5565b915050610adc565b50600754818110610cbc5760405162461bcd60e51b8152602060048201526024808201527f536f6d657468696e672077656e742077726f6e672072656d6f76696e67206f776044820152636e65727360e01b60648201526084016109d6565b505050565b60055460ff1615610ce45760405162461bcd60e51b81526004016109d690612c0d565b3360009081526006602052604090205460ff16610d135760405162461bcd60e51b81526004016109d690612c3a565b6012805460ff1916911515919091179055565b600033610d34858285611a48565b610d3f858585611ac2565b506001949350505050565b60055460ff1615610d6d5760405162461bcd60e51b81526004016109d690612c0d565b3360009081526006602052604090205460ff16610d9c5760405162461bcd60e51b81526004016109d690612c3a565b6008805460ff1916911515919091179055565b60055460ff1615610dd25760405162461bcd60e51b81526004016109d690612c0d565b3360009081526006602052604090205460ff16610e015760405162461bcd60e51b81526004016109d690612c3a565b6001600160a01b03166000908152601160205260409020805460ff19169055565b3360008181526001602090815260408083206001600160a01b03871684529091528120549091906109a99082908690610e5c908790612cad565b611924565b60055460ff1615610e845760405162461bcd60e51b81526004016109d690612c0d565b3360009081526006602052604090205460ff16610eb35760405162461bcd60e51b81526004016109d690612c3a565b601454610100900460ff1615610f0b5760405162461bcd60e51b815260206004820152601a60248201527f43757272656e746c7920616464696e67206c697175696469747900000000000060448201526064016109d6565b6014805461ff0019166101001790556023546001600160a01b031680610f685760405162461bcd60e51b8152602060048201526012602482015271149bdd5d195c881b9bdd081cd95d081e595d60721b60448201526064016109d6565b33600090815260208190526040902054821115610fd95760405162461bcd60e51b815260206004820152602960248201527f53656e64657220646f6573206e6f74206861766520656e6f75676820746f6b656044820152686e2062616c616e636560b81b60648201526084016109d6565b81610fe4333061176f565b10156110455760405162461bcd60e51b815260206004820152602a60248201527f4e6f7420656e6f75676820616c6c6f77616e636520676976656e20746f207468604482015269194818dbdb9d1c9858dd60b21b60648201526084016109d6565b611050338284611924565b61105b333084611cea565b6110653483611eb8565b60085462010000900460ff166110b0576008805462ffff00191662010100179055600b546110939042612cad565b600955600c546110a39043612cad565b600a556110b06000610d4a565b50506014805461ff0019169055565b601f546001600160a01b031633146110d657600080fd5b6000600a6110e360025490565b6110ed9190612cf6565b601f54909150611106906001600160a01b031682611fd9565b50565b60055460ff161561112c5760405162461bcd60e51b81526004016109d690612c0d565b3360009081526006602052604090205460ff1661115b5760405162461bcd60e51b81526004016109d690612c3a565b6001600160a01b038116600081815260066020526040808220805460ff1916600190811790915560078054918201815583527fa66cc928b5edb82af9bd49922954155ab7b0942694bea4ce44661d9a8736c6880180546001600160a01b031916841790555142929133917fa0b18fca933618876351ba2ef88bf4505c184d3e55064bec0d7fe236dd706d849190a450565b60055461010090046001600160a01b0316331461125c5760405162461bcd60e51b815260206004820152602860248201527f4f6e6c79206d6173746572206f776e65722063616e2072656e6f756e6365206f6044820152670776e6572736869760c41b60648201526084016109d6565b6005805460ff191660011790556040517fd1f66c3d2bc1993a86be5e3d33709d98f0442381befcedd29f578b9b2506b1ce90600090a1565b60055460ff16156112b75760405162461bcd60e51b81526004016109d690612c0d565b3360009081526006602052604090205460ff166112e65760405162461bcd60e51b81526004016109d690612c3a565b600854610100900460ff1661133d5760405162461bcd60e51b815260206004820152601960248201527f416e7469626f7420706572696f6420686173207061737365640000000000000060448201526064016109d6565b7f0000000000000000000000000000000000000000000000000000000000000000818361136a8688612cad565b6113749190612cad565b61137e9190612cad565b111561139c5760405162461bcd60e51b81526004016109d690612d18565b600d93909355600e91909155600f55601055565b60055460ff16156113d35760405162461bcd60e51b81526004016109d690612c0d565b3360009081526006602052604090205460ff166114025760405162461bcd60e51b81526004016109d690612c3a565b6001600160a01b038316158061141f57506001600160a01b038216155b8061143157506001600160a01b038116155b156114945760405162461bcd60e51b815260206004820152602d60248201527f4e6f6e65206f6620746865206164647265737365732063616e2774206265207a60448201526c65726f2061646472657373657360981b60648201526084016109d6565b601d80546001600160a01b03199081166001600160a01b03958616908117909255601e80548216948616949094178455601f8054909116928516929092178255600090815260226020526040808220805460ff1990811660019081179092559454861683528183208054861682179055925490941681529290922080549091169091179055565b60606004805461091890612bd2565b6060600780548060200260200160405190810160405280929190818152602001828054801561099157602002820191906000526020600020905b81546001600160a01b03168152600190910190602001808311611564575050505050905090565b3360008181526001602090815260408083206001600160a01b0387168452909152812054909190838110156116105760405162461bcd60e51b815260206004820152602560248201527f45524332303a2064656372656173656420616c6c6f77616e63652062656c6f77604482015264207a65726f60d81b60648201526084016109d6565b610d3f8286868403611924565b6000336109a9818585611ac2565b60055460ff161561164e5760405162461bcd60e51b81526004016109d690612c0d565b3360009081526006602052604090205460ff1661167d5760405162461bcd60e51b81526004016109d690612c3a565b611106816120b8565b60055460ff16156116a95760405162461bcd60e51b81526004016109d690612c0d565b3360009081526006602052604090205460ff166116d85760405162461bcd60e51b81526004016109d690612c3a565b6001600160a01b03166000908152602260205260409020805460ff19169055565b60055460ff161561171c5760405162461bcd60e51b81526004016109d690612c0d565b3360009081526006602052604090205460ff1661174b5760405162461bcd60e51b81526004016109d690612c3a565b6001600160a01b03166000908152602260205260409020805460ff19166001179055565b6001600160a01b03918216600090815260016020908152604080832093909416825291909152205490565b60055460ff16156117bd5760405162461bcd60e51b81526004016109d690612c0d565b3360009081526006602052604090205460ff166117ec5760405162461bcd60e51b81526004016109d690612c3a565b7f000000000000000000000000000000000000000000000000000000000000000081836118198688612cad565b6118239190612cad565b61182d9190612cad565b111561184b5760405162461bcd60e51b81526004016109d690612d18565b601993909355601a91909155601b55601c55565b60055460ff16156118825760405162461bcd60e51b81526004016109d690612c0d565b3360009081526006602052604090205460ff166118b15760405162461bcd60e51b81526004016109d690612c3a565b7f000000000000000000000000000000000000000000000000000000000000000081836118de8688612cad565b6118e89190612cad565b6118f29190612cad565b11156119105760405162461bcd60e51b81526004016109d690612d18565b601593909355601691909155601755601855565b6001600160a01b0383166119865760405162461bcd60e51b8152602060048201526024808201527f45524332303a20617070726f76652066726f6d20746865207a65726f206164646044820152637265737360e01b60648201526084016109d6565b6001600160a01b0382166119e75760405162461bcd60e51b815260206004820152602260248201527f45524332303a20617070726f766520746f20746865207a65726f206164647265604482015261737360f01b60648201526084016109d6565b6001600160a01b0383811660008181526001602090815260408083209487168084529482529182902085905590518481527f8c5be1e5ebec7d5bd14f71427d1e84f3dd0314c0f7b2291e5b200ac8c7c3b925910160405180910390a3505050565b6000611a54848461176f565b90506000198114611abc5781811015611aaf5760405162461bcd60e51b815260206004820152601d60248201527f45524332303a20696e73756666696369656e7420616c6c6f77616e636500000060448201526064016109d6565b611abc8484848403611924565b50505050565b3260008181526006602052604090205460ff16611b1e5760085460ff1615611b1e5760405162461bcd60e51b815260206004820152600f60248201526e10dbdb9d1c9858dd081c185d5cd959608a1b60448201526064016109d6565b6000806000806000611b308989612282565b945094509450945094508015611b4a575050505050611abc565b86611b6557611b5b89896000611cea565b5050505050611abc565b6001600160a01b03891660009081526022602052604081205460ff16158015611ba757506001600160a01b03891660009081526022602052604090205460ff16155b306000908152602081905260409020546014549192509060ff16158015611bd057506013548110155b8015611be957506024546001600160a01b038b81169116145b8015611bf25750815b15611c0357611c03818888886123b7565b60145460009060ff16158015611c165750825b90508015611cd15760408051600480825260a08201909252600091602082016080803683370190505090508881600081518110611c5557611c55612c6a565b6020026020010181815250508781600181518110611c7557611c75612c6a565b6020026020010181815250508681600281518110611c9557611c95612c6a565b6020026020010181815250508581600381518110611cb557611cb5612c6a565b602002602001018181525050611ccd8b8e8e8461247d565b9a50505b611cdc8c8c8c611cea565b505050505050505050505050565b6001600160a01b038316611d4e5760405162461bcd60e51b815260206004820152602560248201527f45524332303a207472616e736665722066726f6d20746865207a65726f206164604482015264647265737360d81b60648201526084016109d6565b6001600160a01b038216611db05760405162461bcd60e51b815260206004820152602360248201527f45524332303a207472616e7366657220746f20746865207a65726f206164647260448201526265737360e81b60648201526084016109d6565b6001600160a01b03831660009081526020819052604090205481811015611e285760405162461bcd60e51b815260206004820152602660248201527f45524332303a207472616e7366657220616d6f756e7420657863656564732062604482015265616c616e636560d01b60648201526084016109d6565b6001600160a01b03808516600090815260208190526040808220858503905591851681529081208054849290611e5f908490612cad565b92505081905550826001600160a01b0316846001600160a01b03167fddf252ad1be2c89b69c2b068fc378daa952ba7f163c4a11628f55a4df523b3ef84604051611eab91815260200190565b60405180910390a3611abc565b602354611ed09030906001600160a01b031683611924565b602354601d546001600160a01b039182169163f305d71991859130918691600091829116611eff42603c612cad565b60405160e089901b6001600160e01b03191681526001600160a01b039687166004820152602481019590955260448501939093526064840191909152909216608482015260a481019190915260c40160606040518083038185885af1158015611f6c573d6000803e3d6000fd5b50505050506040513d601f19601f82011682018060405250810190611f919190612d60565b505060408051328152602081018590529081018390527fac1d76749e5447b7b16f5ab61447e1bd502f3bb4807af3b28e620d1700a6ee45915060600160405180910390a15050565b6001600160a01b03821661202f5760405162461bcd60e51b815260206004820152601f60248201527f45524332303a206d696e7420746f20746865207a65726f20616464726573730060448201526064016109d6565b80600260008282546120419190612cad565b90915550506001600160a01b0382166000908152602081905260408120805483929061206e908490612cad565b90915550506040518181526001600160a01b038316906000907fddf252ad1be2c89b69c2b068fc378daa952ba7f163c4a11628f55a4df523b3ef9060200160405180910390a35050565b602380546001600160a01b0319166001600160a01b0383169081179091556040805163c45a015560e01b8152905163c45a0155916004808201926020929091908290030181865afa158015612111573d6000803e3d6000fd5b505050506040513d601f19601f820116820180604052508101906121359190612d8e565b6001600160a01b031663c9c6539630602360009054906101000a90046001600160a01b03166001600160a01b031663ad5c46486040518163ffffffff1660e01b8152600401602060405180830381865afa158015612197573d6000803e3d6000fd5b505050506040513d601f19601f820116820180604052508101906121bb9190612d8e565b6040516001600160e01b031960e085901b1681526001600160a01b039283166004820152911660248201526044016020604051808303816000875af1158015612208573d6000803e3d6000fd5b505050506040513d601f19601f8201168201806040525081019061222c9190612d8e565b602480546001600160a01b0319166001600160a01b039283161781556023548216600090815260226020526040808220805460ff1990811660019081179092559354909416825290208054909116909117905550565b60008060008060006122ac326001600160a01b031660009081526006602052604090205460ff1690565b6123ad576001600160a01b03871660009081526011602052604090205460ff161580156122f257506001600160a01b03861660009081526011602052604090205460ff16155b61233e5760405162461bcd60e51b815260206004820152601f60248201527f53656e646572206f7220726563697069656e7420626c61636b6c69737465640060448201526064016109d6565b600854610100900460ff16156123ad57600a54431161237f57506001600160a01b0386166000908152601160205260409020805460ff191660019081179091555b60095442116123a157600d549450600e549350600f54925060105491506123ad565b6008805461ff00191690555b9295509295909350565b6014805460ff1916600117905560006123d08385612cad565b60125490915060ff16156123eb576123e88282612cad565b90505b6000816123f88688612dab565b6124029190612cf6565b90506000826124118689612dab565b61241b9190612cf6565b90506124278282612662565b60125460ff1680156124415750601454610100900460ff16155b1561246a57600083612453868a612dab565b61245d9190612cf6565b9050612468816127da565b505b50506014805460ff191690555050505050565b602454600090819081908190819081906001600160a01b0389811691161415612575576064876000815181106124b5576124b5612c6a565b60200260200101518b6124c89190612dab565b6124d29190612cf6565b93506064876001815181106124e9576124e9612c6a565b60200260200101518b6124fc9190612dab565b6125069190612cf6565b925060648760028151811061251d5761251d612c6a565b60200260200101518b6125309190612dab565b61253a9190612cf6565b915060648760038151811061255157612551612c6a565b60200260200101518b6125649190612dab565b61256e9190612cf6565b90506125fc565b6024546001600160a01b038a8116911614156125fc5760646019548b61259b9190612dab565b6125a59190612cf6565b93506064601a548b6125b79190612dab565b6125c19190612cf6565b92506064601b548b6125d39190612dab565b6125dd9190612cf6565b91506064601c548b6125ef9190612dab565b6125f99190612cf6565b90505b80826126088587612cad565b6126129190612cad565b61261c9190612cad565b945084156126545761262f893087611cea565b601f546126479030906001600160a01b031683611cea565b612651858b612c96565b99505b509798975050505050505050565b600061266e8284612cad565b9050600061267b82612825565b905060008261268a8684612dab565b6126949190612cf6565b90506000836126a38685612dab565b6126ad9190612cf6565b601d546040519192506000916001600160a01b039091169084908381818185875af1925050503d80600081146126ff576040519150601f19603f3d011682016040523d82523d6000602084013e612704565b606091505b5050601e546040519192506000916001600160a01b039091169084908381818185875af1925050503d8060008114612758576040519150601f19603f3d011682016040523d82523d6000602084013e61275d565b606091505b5050905081801561276b5750805b6127d05760405162461bcd60e51b815260206004820152603060248201527f436f756c646e27742073656e6420746f20646576656c6f706d656e74206f722060448201526f1b585c9ad95d1a5b99c81dd85b1b195d60821b60648201526084016109d6565b5050505050505050565b60006127e7600283612cf6565b905060006127f58284612c96565b905047600061280384612825565b905060006128118383612c96565b905061281d8185611eb8565b505050505050565b60408051600280825260608201835260009283929190602083019080368337019050509050308160008151811061285e5761285e612c6a565b6001600160a01b03928316602091820292909201810191909152602354604080516315ab88c960e31b81529051919093169263ad5c46489260048083019391928290030181865afa1580156128b7573d6000803e3d6000fd5b505050506040513d601f19601f820116820180604052508101906128db9190612d8e565b816001815181106128ee576128ee612c6a565b6001600160a01b0392831660209182029290920101526023546129149130911685611924565b6023546001600160a01b031663791ac947846000843061293542603c612cad565b6040518663ffffffff1660e01b8152600401612955959493929190612dca565b600060405180830381600087803b15801561296f57600080fd5b505af1158015612983573d6000803e3d6000fd5b50479695505050505050565b600060208083528351808285015260005b818110156129bc578581018301518582016040015282016129a0565b818111156129ce576000604083870101525b50601f01601f1916929092016040019392505050565b6001600160a01b038116811461110657600080fd5b60008060408385031215612a0c57600080fd5b8235612a17816129e4565b946020939093013593505050565b600060208284031215612a3757600080fd5b8135612a42816129e4565b9392505050565b600060208284031215612a5b57600080fd5b81358015158114612a4257600080fd5b600080600060608486031215612a8057600080fd5b8335612a8b816129e4565b92506020840135612a9b816129e4565b929592945050506040919091013590565b600060208284031215612abe57600080fd5b5035919050565b60008060008060808587031215612adb57600080fd5b5050823594602084013594506040840135936060013592509050565b600080600060608486031215612b0c57600080fd5b8335612b17816129e4565b92506020840135612b27816129e4565b91506040840135612b37816129e4565b809150509250925092565b600081518084526020808501945080840160005b83811015612b7b5781516001600160a01b031687529582019590820190600101612b56565b509495945050505050565b602081526000612a426020830184612b42565b60008060408385031215612bac57600080fd5b8235612bb7816129e4565b91506020830135612bc7816129e4565b809150509250929050565b600181811c90821680612be657607f821691505b60208210811415612c0757634e487b7160e01b600052602260045260246000fd5b50919050565b60208082526013908201527213dddb995c9cda1a5c081c995b9bdd5b98d959606a1b604082015260600190565b60208082526016908201527521b0b63632b91034b9903737ba1030b71037bbb732b960511b604082015260600190565b634e487b7160e01b600052603260045260246000fd5b634e487b7160e01b600052601160045260246000fd5b600082821015612ca857612ca8612c80565b500390565b60008219821115612cc057612cc0612c80565b500190565b6000600019821415612cd957612cd9612c80565b5060010190565b634e487b7160e01b600052603160045260246000fd5b600082612d1357634e487b7160e01b600052601260045260246000fd5b500490565b60208082526028908201527f546f74616c207461786573206172652061626f76652074686520616c6c6f77656040820152671908185b5bdd5b9d60c21b606082015260800190565b600080600060608486031215612d7557600080fd5b8351925060208401519150604084015190509250925092565b600060208284031215612da057600080fd5b8151612a42816129e4565b6000816000190483118215151615612dc557612dc5612c80565b500290565b85815284602082015260a060408201526000612de960a0830186612b42565b6001600160a01b039490941660608301525060800152939250505056fea2646970667358221220133071c627aec1a3457c63c8a64d388242966686d412daac43fe076843f1e56264736f6c634300080b0033",
  "immutableReferences": {
    "5442": [
      {
        "length": 32,
        "start": 1529
      },
      {
        "length": 32,
        "start": 4927
      },
      {
        "length": 32,
        "start": 6126
      },
      {
        "length": 32,
        "start": 6323
      }
    ]
  },
  "source": "// SPDX-License-Identifier: MIT\n\npragma solidity >=0.4.22 <0.9.0;\n\nimport \"./PauseOwners.sol\";\nimport \"@openzeppelin/contracts/token/ERC20/ERC20.sol\";\nimport \"@uniswap/v2-periphery/contracts/interfaces/IUniswapV2Router02.sol\";\nimport \"@uniswap/v2-core/contracts/interfaces/IUniswapV2Pair.sol\";\nimport \"@uniswap/v2-core/contracts/interfaces/IUniswapV2Factory.sol\";\nimport \"@uniswap/v2-periphery/contracts/libraries/UniswapV2Library.sol\";\nimport \"@openzeppelin/contracts/utils/Address.sol\";\n\ncontract Token is ERC20, PauseOwners {\n\tevent LiquidityAdded(\n\t\taddress sender,\n\t\tuint256 amountETH,\n\t\tuint256 amountToken\n\t);\n\n\tuint256 public immutable MAX_TOTAL_FEE = 25; // We can never surpass this total fee\n\n\tbool public antiBotEnabled;\n\tbool private antiBotRanOnce; // We can only run antibot once, when initial liquidity is added\n\tuint256 public antiBotTaxesEndTime; // Time when antibot taxes end\n\tuint256 public antiBotBlockEndBlock; // Block when antibot blacklister no longer works\n\tuint256 private antiBotTaxesTimeInSeconds = 3600;\n\tuint256 private antiBotBlockTime = 2;\n\n\tuint256 private antiBotSellDevelopmentTax = 9;\n\tuint256 private antiBotSellMarketingTax = 9;\n\tuint256 private antiBotSellLiquidityTax = 3;\n\tuint256 private antiBotSellRewardsTax = 4;\n\n\tmapping(address => bool) public antiBotBlacklist;\n\n\tbool public liquidityTaxEnabled = true;\n\n\tuint256 private minBalanceToSwapAndTransfer;\n\tbool private inSwapAndTransfer;\n\tbool private addingLiquidity;\n\n\tuint256 public sellDevelopmentTax = 3;\n\tuint256 public sellMarketingTax = 3;\n\tuint256 public sellLiquidityTax = 2;\n\tuint256 public sellRewardsTax = 4;\n\n\tuint256 public buyDevelopmentTax = 2;\n\tuint256 public buyMarketingTax = 2;\n\tuint256 public buyLiquidityTax = 1;\n\tuint256 public buyRewardsTax = 2;\n\n\taddress payable public developmentAddress;\n\taddress payable public marketingAddress;\n\taddress payable public rewardsAddress;\n\taddress payable public gameAddress;\n\taddress payable public nftAddress;\n\n\tmapping(address => bool) public isExcludedFromTax;\n\n\tIUniswapV2Router02 private router;\n\tIUniswapV2Pair private pair;\n\n\tconstructor(\n\t\taddress gameAddress_,\n\t\taddress nftAddress_,\n\t\taddress rewardsAddress_,\n\t\taddress marketingAddress_,\n\t\taddress routerAddress_\n\t) ERC20(\"Token\", \"TKN\") {\n\t\tsetIsPaused(true); // Pause trading at the beginning until liquidity is added\n\t\tdevelopmentAddress = payable(msg.sender);\n\t\tgameAddress = payable(gameAddress_);\n\t\tnftAddress = payable(nftAddress_);\n\t\tmarketingAddress = payable(marketingAddress_);\n\t\trewardsAddress = payable(rewardsAddress_);\n\t\t_mint(developmentAddress, 3333 * 10**decimals()); // For adding liquidity and team tokens\n\t\t_mint(rewardsAddress, 6667 * 10**decimals()); // Game + NFT rewards\n\t\tminBalanceToSwapAndTransfer = totalSupply() / 1000; // If contract balance is minimum 0.1% of total supply, swap to BNB and transfer fees\n\t\tisExcludedFromTax[developmentAddress] = true;\n\t\tisExcludedFromTax[gameAddress] = true;\n\t\tisExcludedFromTax[nftAddress] = true;\n\t\tisExcludedFromTax[marketingAddress] = true;\n\t\tisExcludedFromTax[rewardsAddress] = true;\n\t\tisExcludedFromTax[address(this)] = true;\n\t\tcreateRouterPair(routerAddress_);\n\t}\n\n\tmodifier lockSwapAndTransfer() {\n\t\tinSwapAndTransfer = true;\n\t\t_;\n\t\tinSwapAndTransfer = false;\n\t}\n\n\tmodifier lockAddingLiquidity() {\n\t\trequire(!addingLiquidity, \"Currently adding liquidity\");\n\t\taddingLiquidity = true;\n\t\t_;\n\t\taddingLiquidity = false;\n\t}\n\n\tmodifier onlyInternalContracts() {\n\t\trequire(msg.sender == rewardsAddress);\n\t\t_;\n\t}\n\n\tfunction _transfer(\n\t\taddress sender,\n\t\taddress recipient,\n\t\tuint256 amount\n\t) internal virtual override checkPaused(tx.origin) {\n\t\t(\n\t\t\tuint256 sellDevelopmentTax_,\n\t\t\tuint256 sellMarketingTax_,\n\t\t\tuint256 sellLiquidityTax_,\n\t\t\tuint256 sellRewardsTax_,\n\t\t\tbool guardActivated\n\t\t) = antiBotGuard(sender, recipient);\n\t\tif (guardActivated) {\n\t\t\treturn;\n\t\t}\n\n\t\tif (amount == 0) {\n\t\t\tsuper._transfer(sender, recipient, 0);\n\t\t\treturn;\n\t\t}\n\n\t\tbool notExcludedFromTax = !isExcludedFromTax[sender] &&\n\t\t\t!isExcludedFromTax[recipient];\n\t\tuint256 tokenBalance = balanceOf(address(this));\n\t\tif (\n\t\t\t!inSwapAndTransfer &&\n\t\t\ttokenBalance >= minBalanceToSwapAndTransfer &&\n\t\t\trecipient == address(pair) && // Is a sell\n\t\t\tnotExcludedFromTax\n\t\t) {\n\t\t\tswapAndTransfer(\n\t\t\t\ttokenBalance,\n\t\t\t\tsellDevelopmentTax_,\n\t\t\t\tsellMarketingTax_,\n\t\t\t\tsellLiquidityTax_\n\t\t\t);\n\t\t}\n\n\t\tbool takeFee = !inSwapAndTransfer && notExcludedFromTax;\n\t\tif (takeFee) {\n\t\t\tuint256[] memory taxes = new uint256[](4); // Need to do this abomination because otherwise solidity compiler screams\n\t\t\ttaxes[0] = sellDevelopmentTax_;\n\t\t\ttaxes[1] = sellMarketingTax_;\n\t\t\ttaxes[2] = sellLiquidityTax_;\n\t\t\ttaxes[3] = sellRewardsTax_;\n\t\t\tamount = takeFees(amount, sender, recipient, taxes);\n\t\t}\n\n\t\tsuper._transfer(sender, recipient, amount);\n\t}\n\n\tfunction antiBotGuard(address sender, address recipient)\n\t\tprivate\n\t\treturns (\n\t\t\tuint256 sellDevelopmentTax_,\n\t\t\tuint256 sellMarketingTax_,\n\t\t\tuint256 sellLiquidityTax_,\n\t\t\tuint256 sellRewardsTax_,\n\t\t\tbool guardActivated\n\t\t)\n\t{\n\t\tif (!isOwner(tx.origin)) {\n\t\t\trequire(\n\t\t\t\t!antiBotBlacklist[sender] && !antiBotBlacklist[recipient],\n\t\t\t\t\"Sender or recipient blacklisted\"\n\t\t\t);\n\t\t\tif (antiBotEnabled) {\n\t\t\t\tif (block.number <= antiBotBlockEndBlock) {\n\t\t\t\t\tantiBotBlacklist[sender] = true;\n\t\t\t\t\tguardActivated = true;\n\t\t\t\t}\n\t\t\t\tif (block.timestamp <= antiBotTaxesEndTime) {\n\t\t\t\t\tsellDevelopmentTax_ = antiBotSellDevelopmentTax;\n\t\t\t\t\tsellMarketingTax_ = antiBotSellMarketingTax;\n\t\t\t\t\tsellLiquidityTax_ = antiBotSellLiquidityTax;\n\t\t\t\t\tsellRewardsTax_ = antiBotSellRewardsTax;\n\t\t\t\t} else {\n\t\t\t\t\tantiBotEnabled = false;\n\t\t\t\t}\n\t\t\t}\n\t\t}\n\t}\n\n\tfunction takeFees(\n\t\tuint256 amount,\n\t\taddress sender,\n\t\taddress recipient,\n\t\tuint256[] memory sellTaxes\n\t) private returns (uint256) {\n\t\tuint256 totalTax = 0;\n\t\tuint256 developmentTax = 0;\n\t\tuint256 marketingTax = 0;\n\t\tuint256 liquidityTax = 0;\n\t\tuint256 rewardsTax = 0;\n\n\t\tif (recipient == address(pair)) {\n\t\t\t// Selling\n\t\t\tdevelopmentTax = (amount * sellTaxes[0]) / 100;\n\t\t\tmarketingTax = (amount * sellTaxes[1]) / 100;\n\t\t\tliquidityTax = (amount * sellTaxes[2]) / 100;\n\t\t\trewardsTax = (amount * sellTaxes[3]) / 100;\n\t\t} else if (sender == address(pair)) {\n\t\t\t// Buying\n\t\t\tdevelopmentTax = (amount * buyDevelopmentTax) / 100;\n\t\t\tmarketingTax = (amount * buyMarketingTax) / 100;\n\t\t\tliquidityTax = (amount * buyLiquidityTax) / 100;\n\t\t\trewardsTax = (amount * buyRewardsTax) / 100;\n\t\t}\n\t\ttotalTax = developmentTax + marketingTax + liquidityTax + rewardsTax;\n\n\t\tif (totalTax > 0) {\n\t\t\tsuper._transfer(sender, address(this), totalTax);\n\t\t\tsuper._transfer(address(this), rewardsAddress, rewardsTax);\n\t\t\tamount -= totalTax;\n\t\t}\n\t\treturn amount;\n\t}\n\n\tfunction swapAndTransfer(\n\t\tuint256 tokenBalance,\n\t\tuint256 sellDevelopmentTax_,\n\t\tuint256 sellMarketingTax_,\n\t\tuint256 sellLiquidityTax_\n\t) private lockSwapAndTransfer {\n\t\tuint256 totalTax = sellDevelopmentTax_ + sellMarketingTax_;\n\t\tif (liquidityTaxEnabled) {\n\t\t\ttotalTax += sellLiquidityTax_;\n\t\t}\n\t\tuint256 developmentTax = (tokenBalance * sellDevelopmentTax_) /\n\t\t\ttotalTax;\n\t\tuint256 marketingTax = (tokenBalance * sellMarketingTax_) / totalTax;\n\n\t\tswapAndTransferFees(developmentTax, marketingTax);\n\n\t\tif (liquidityTaxEnabled && !addingLiquidity) {\n\t\t\tuint256 liquidityTax = (tokenBalance * sellLiquidityTax_) /\n\t\t\t\ttotalTax;\n\t\t\tswapAndLiquify(liquidityTax);\n\t\t}\n\t}\n\n\tfunction swapAndTransferFees(uint256 developmentTax, uint256 marketingTax)\n\t\tprivate\n\t{\n\t\tuint256 totalTax = developmentTax + marketingTax;\n\t\tuint256 ethBalance = swapTokensToETH(totalTax);\n\t\tuint256 ethForDevelopment = (ethBalance * developmentTax) / totalTax;\n\t\tuint256 ethForMarketing = (ethBalance * marketingTax) / totalTax;\n\n\t\t(bool devSuccess, ) = developmentAddress.call{\n\t\t\tvalue: ethForDevelopment\n\t\t}(\"\");\n\t\t(bool marSuccess, ) = marketingAddress.call{ value: ethForMarketing }(\n\t\t\t\"\"\n\t\t);\n\n\t\trequire(\n\t\t\tdevSuccess && marSuccess,\n\t\t\t\"Couldn't send to development or marketing wallet\"\n\t\t);\n\t}\n\n\tfunction swapAndLiquify(uint256 amountToken) private {\n\t\tuint256 half1Token = amountToken / 2;\n\t\tuint256 half2Token = amountToken - half1Token;\n\t\tuint256 balanceBeforeSwapETH = address(this).balance;\n\t\tuint256 balanceAfterSwapETH = swapTokensToETH(half1Token); // Swap half of the tokens to BNB\n\t\tuint256 swapDifferenceETH = balanceAfterSwapETH - balanceBeforeSwapETH;\n\t\taddLiquidity(swapDifferenceETH, half2Token); // Add the non-swapped tokens and the swapped BNB to liquidity\n\t}\n\n\tfunction addLiquidity(uint256 amountETH, uint256 amountToken) private {\n\t\t_approve(address(this), address(router), amountToken);\n\t\trouter.addLiquidityETH{ value: amountETH }(\n\t\t\taddress(this),\n\t\t\tamountToken,\n\t\t\t0,\n\t\t\t0,\n\t\t\tdevelopmentAddress,\n\t\t\tblock.timestamp + 1 minutes\n\t\t);\n\t\temit LiquidityAdded(tx.origin, amountETH, amountToken);\n\t}\n\n\tfunction swapTokensToETH(uint256 amountToken) private returns (uint256) {\n\t\taddress[] memory path = new address[](2);\n\t\tpath[0] = address(this);\n\t\tpath[1] = router.WETH();\n\t\t// approve(address(router), amountToken);\n\t\t_approve(address(this), address(router), amountToken);\n\t\trouter.swapExactTokensForETHSupportingFeeOnTransferTokens(\n\t\t\tamountToken,\n\t\t\t0, // Receive any amount\n\t\t\tpath,\n\t\t\taddress(this),\n\t\t\tblock.timestamp + 1 minutes\n\t\t);\n\t\treturn address(this).balance;\n\t}\n\n\tfunction createRouterPair(address routerAddress) private {\n\t\trouter = IUniswapV2Router02(routerAddress);\n\t\tpair = IUniswapV2Pair(\n\t\t\tIUniswapV2Factory(router.factory()).createPair(\n\t\t\t\taddress(this),\n\t\t\t\trouter.WETH()\n\t\t\t)\n\t\t);\n\t\tisExcludedFromTax[address(router)] = true;\n\t\tisExcludedFromTax[address(pair)] = true;\n\t}\n\n\t// This function is only to be used by the rewards contract when the rewards pool no longer has rewards\n\tfunction emergencyMintRewards() external onlyInternalContracts {\n\t\tuint256 amountToMint = totalSupply() / 10; // 10% of the supply\n\t\tsuper._mint(rewardsAddress, amountToMint);\n\t}\n\n\tfunction addLiquidity(uint256 amountToken)\n\t\texternal\n\t\tpayable\n\t\tonlyOwners\n\t\tlockAddingLiquidity\n\t{\n\t\t// Add initial liquidity and enabled the \"anti-bot\" feature\n\t\taddress routerAddress = address(router);\n\t\trequire(routerAddress != address(0), \"Router not set yet\");\n\t\trequire(\n\t\t\tbalanceOf(msg.sender) >= amountToken,\n\t\t\t\"Sender does not have enough token balance\"\n\t\t);\n\t\trequire(\n\t\t\tallowance(msg.sender, address(this)) >= amountToken,\n\t\t\t\"Not enough allowance given to the contract\"\n\t\t);\n\t\t_approve(msg.sender, routerAddress, amountToken);\n\t\tsuper._transfer(msg.sender, address(this), amountToken);\n\t\taddLiquidity(msg.value, amountToken);\n\t\tif (!antiBotRanOnce) {\n\t\t\tantiBotEnabled = true;\n\t\t\tantiBotRanOnce = true;\n\t\t\tantiBotTaxesEndTime = block.timestamp + antiBotTaxesTimeInSeconds;\n\t\t\tantiBotBlockEndBlock = block.number + antiBotBlockTime;\n\t\t\tsetIsPaused(false);\n\t\t}\n\t}\n\n\tfunction setAntiBotSellTaxes(\n\t\tuint256 sellDevelopmentTax_,\n\t\tuint256 sellMarketingTax_,\n\t\tuint256 sellLiquidityTax_,\n\t\tuint256 sellRewardsTax_\n\t) external onlyOwners {\n\t\trequire(antiBotEnabled, \"Antibot period has passed\");\n\t\trequire(\n\t\t\t(sellDevelopmentTax_ +\n\t\t\t\tsellMarketingTax_ +\n\t\t\t\tsellLiquidityTax_ +\n\t\t\t\tsellRewardsTax_) <= MAX_TOTAL_FEE,\n\t\t\t\"Total taxes are above the allowed amount\"\n\t\t);\n\t\tantiBotSellDevelopmentTax = sellDevelopmentTax_;\n\t\tantiBotSellMarketingTax = sellMarketingTax_;\n\t\tantiBotSellLiquidityTax = sellLiquidityTax_;\n\t\tantiBotSellRewardsTax = sellRewardsTax_;\n\t}\n\n\tfunction setSellTaxes(\n\t\tuint256 sellDevelopmentTax_,\n\t\tuint256 sellMarketingTax_,\n\t\tuint256 sellLiquidityTax_,\n\t\tuint256 sellRewardsTax_\n\t) external onlyOwners {\n\t\trequire(\n\t\t\t(sellDevelopmentTax_ +\n\t\t\t\tsellMarketingTax_ +\n\t\t\t\tsellLiquidityTax_ +\n\t\t\t\tsellRewardsTax_) <= MAX_TOTAL_FEE,\n\t\t\t\"Total taxes are above the allowed amount\"\n\t\t);\n\t\tsellDevelopmentTax = sellDevelopmentTax_;\n\t\tsellMarketingTax = sellMarketingTax_;\n\t\tsellLiquidityTax = sellLiquidityTax_;\n\t\tsellRewardsTax = sellRewardsTax_;\n\t}\n\n\tfunction setBuyTaxes(\n\t\tuint256 buyDevelopmentTax_,\n\t\tuint256 buyMarketingTax_,\n\t\tuint256 buyLiquidityTax_,\n\t\tuint256 buyRewardsTax_\n\t) external onlyOwners {\n\t\trequire(\n\t\t\t(buyDevelopmentTax_ +\n\t\t\t\tbuyMarketingTax_ +\n\t\t\t\tbuyLiquidityTax_ +\n\t\t\t\tbuyRewardsTax_) <= MAX_TOTAL_FEE,\n\t\t\t\"Total taxes are above the allowed amount\"\n\t\t);\n\t\tbuyDevelopmentTax = buyDevelopmentTax_;\n\t\tbuyMarketingTax = buyMarketingTax_;\n\t\tbuyLiquidityTax = buyLiquidityTax_;\n\t\tbuyRewardsTax = buyRewardsTax_;\n\t}\n\n\tfunction setTaxAddresses(\n\t\taddress developmentAddress_,\n\t\taddress marketingAddress_,\n\t\taddress rewardsAddress_\n\t) external onlyOwners {\n\t\trequire(\n\t\t\t!(developmentAddress_ == address(0) ||\n\t\t\t\tmarketingAddress_ == address(0) ||\n\t\t\t\trewardsAddress_ == address(0)),\n\t\t\t\"None of the addresses can't be zero addresses\"\n\t\t);\n\t\tdevelopmentAddress = payable(developmentAddress_);\n\t\tmarketingAddress = payable(marketingAddress_);\n\t\trewardsAddress = payable(rewardsAddress_);\n\t\tisExcludedFromTax[developmentAddress] = true;\n\t\tisExcludedFromTax[marketingAddress] = true;\n\t\tisExcludedFromTax[rewardsAddress] = true;\n\t}\n\n\tfunction removeBlacklistedAddress(address address_) external onlyOwners {\n\t\tantiBotBlacklist[address_] = false;\n\t}\n\n\tfunction setLiquidityTaxEnabled(bool enabled) external onlyOwners {\n\t\tliquidityTaxEnabled = enabled;\n\t}\n\n\tfunction addTaxExcludedAddress(address address_) external onlyOwners {\n\t\tisExcludedFromTax[address_] = true;\n\t}\n\n\tfunction removeTaxExcludedAddress(address address_) external onlyOwners {\n\t\tisExcludedFromTax[address_] = false;\n\t}\n\n\tfunction setRouter(address routerAddress) external onlyOwners {\n\t\tcreateRouterPair(routerAddress);\n\t}\n\n\treceive() external payable {} // Must be defined so the contract is able to receive ETH from swaps\n}\n",
  "sourcePath": "C:\\Users\\sants\\Desktop\\slimekeeper\\slimekeeper_contracts\\contracts\\Token.sol",
  "compiler": {
    "name": "solc",
    "version": "0.8.11+commit.d7f03943.Emscripten.clang"
  },
  "schemaVersion": "3.4.5",
  "updatedAt": "2022-02-26T22:11:09.737Z",
  "devdoc": {
    "kind": "dev",
    "methods": {
      "allowance(address,address)": {
        "details": "See {IERC20-allowance}."
      },
      "approve(address,uint256)": {
        "details": "See {IERC20-approve}. NOTE: If `amount` is the maximum `uint256`, the allowance is not updated on `transferFrom`. This is semantically equivalent to an infinite approval. Requirements: - `spender` cannot be the zero address."
      },
      "balanceOf(address)": {
        "details": "See {IERC20-balanceOf}."
      },
      "decimals()": {
        "details": "Returns the number of decimals used to get its user representation. For example, if `decimals` equals `2`, a balance of `505` tokens should be displayed to a user as `5.05` (`505 / 10 ** 2`). Tokens usually opt for a value of 18, imitating the relationship between Ether and Wei. This is the value {ERC20} uses, unless this function is overridden; NOTE: This information is only used for _display_ purposes: it in no way affects any of the arithmetic of the contract, including {IERC20-balanceOf} and {IERC20-transfer}."
      },
      "decreaseAllowance(address,uint256)": {
        "details": "Atomically decreases the allowance granted to `spender` by the caller. This is an alternative to {approve} that can be used as a mitigation for problems described in {IERC20-approve}. Emits an {Approval} event indicating the updated allowance. Requirements: - `spender` cannot be the zero address. - `spender` must have allowance for the caller of at least `subtractedValue`."
      },
      "increaseAllowance(address,uint256)": {
        "details": "Atomically increases the allowance granted to `spender` by the caller. This is an alternative to {approve} that can be used as a mitigation for problems described in {IERC20-approve}. Emits an {Approval} event indicating the updated allowance. Requirements: - `spender` cannot be the zero address."
      },
      "name()": {
        "details": "Returns the name of the token."
      },
      "symbol()": {
        "details": "Returns the symbol of the token, usually a shorter version of the name."
      },
      "totalSupply()": {
        "details": "See {IERC20-totalSupply}."
      },
      "transfer(address,uint256)": {
        "details": "See {IERC20-transfer}. Requirements: - `to` cannot be the zero address. - the caller must have a balance of at least `amount`."
      },
      "transferFrom(address,address,uint256)": {
        "details": "See {IERC20-transferFrom}. Emits an {Approval} event indicating the updated allowance. This is not required by the EIP. See the note at the beginning of {ERC20}. NOTE: Does not update the allowance if the current allowance is the maximum `uint256`. Requirements: - `from` and `to` cannot be the zero address. - `from` must have a balance of at least `amount`. - the caller must have allowance for ``from``'s tokens of at least `amount`."
      }
    },
    "version": 1
  },
  "userdoc": {
    "kind": "user",
    "methods": {},
    "version": 1
  }
}