{
  "contractName": "Token",
  "abi": [
    {
      "inputs": [
        {
          "internalType": "address",
          "name": "gameAddress_",
          "type": "address"
        },
        {
          "internalType": "address",
          "name": "nftAddress_",
          "type": "address"
        }
      ],
      "stateMutability": "nonpayable",
      "type": "constructor"
    },
    {
      "anonymous": false,
      "inputs": [
        {
          "indexed": true,
          "internalType": "address",
          "name": "owner",
          "type": "address"
        },
        {
          "indexed": true,
          "internalType": "address",
          "name": "spender",
          "type": "address"
        },
        {
          "indexed": false,
          "internalType": "uint256",
          "name": "value",
          "type": "uint256"
        }
      ],
      "name": "Approval",
      "type": "event"
    },
    {
      "anonymous": false,
      "inputs": [
        {
          "indexed": true,
          "internalType": "address",
          "name": "adder",
          "type": "address"
        },
        {
          "indexed": true,
          "internalType": "address",
          "name": "owner",
          "type": "address"
        },
        {
          "indexed": true,
          "internalType": "uint256",
          "name": "timestamp",
          "type": "uint256"
        }
      ],
      "name": "OwnerAdded",
      "type": "event"
    },
    {
      "anonymous": false,
      "inputs": [
        {
          "indexed": true,
          "internalType": "address",
          "name": "remover",
          "type": "address"
        },
        {
          "indexed": true,
          "internalType": "address",
          "name": "removed",
          "type": "address"
        },
        {
          "indexed": true,
          "internalType": "uint256",
          "name": "timestamp",
          "type": "uint256"
        }
      ],
      "name": "OwnerRemoved",
      "type": "event"
    },
    {
      "anonymous": false,
      "inputs": [
        {
          "indexed": true,
          "internalType": "address",
          "name": "from",
          "type": "address"
        },
        {
          "indexed": true,
          "internalType": "address",
          "name": "to",
          "type": "address"
        },
        {
          "indexed": false,
          "internalType": "uint256",
          "name": "value",
          "type": "uint256"
        }
      ],
      "name": "Transfer",
      "type": "event"
    },
    {
      "inputs": [],
      "name": "MAX_TOTAL_FEE",
      "outputs": [
        {
          "internalType": "uint256",
          "name": "",
          "type": "uint256"
        }
      ],
      "stateMutability": "view",
      "type": "function",
      "constant": true
    },
    {
      "inputs": [
        {
          "internalType": "address",
          "name": "owner",
          "type": "address"
        }
      ],
      "name": "addOwner",
      "outputs": [],
      "stateMutability": "nonpayable",
      "type": "function"
    },
    {
      "inputs": [
        {
          "internalType": "address",
          "name": "owner",
          "type": "address"
        },
        {
          "internalType": "address",
          "name": "spender",
          "type": "address"
        }
      ],
      "name": "allowance",
      "outputs": [
        {
          "internalType": "uint256",
          "name": "",
          "type": "uint256"
        }
      ],
      "stateMutability": "view",
      "type": "function",
      "constant": true
    },
    {
      "inputs": [],
      "name": "antiBotEnabled",
      "outputs": [
        {
          "internalType": "bool",
          "name": "",
          "type": "bool"
        }
      ],
      "stateMutability": "view",
      "type": "function",
      "constant": true
    },
    {
      "inputs": [
        {
          "internalType": "address",
          "name": "spender",
          "type": "address"
        },
        {
          "internalType": "uint256",
          "name": "amount",
          "type": "uint256"
        }
      ],
      "name": "approve",
      "outputs": [
        {
          "internalType": "bool",
          "name": "",
          "type": "bool"
        }
      ],
      "stateMutability": "nonpayable",
      "type": "function"
    },
    {
      "inputs": [
        {
          "internalType": "address",
          "name": "account",
          "type": "address"
        }
      ],
      "name": "balanceOf",
      "outputs": [
        {
          "internalType": "uint256",
          "name": "",
          "type": "uint256"
        }
      ],
      "stateMutability": "view",
      "type": "function",
      "constant": true
    },
    {
      "inputs": [],
      "name": "buyDevelopmentTax",
      "outputs": [
        {
          "internalType": "uint256",
          "name": "",
          "type": "uint256"
        }
      ],
      "stateMutability": "view",
      "type": "function",
      "constant": true
    },
    {
      "inputs": [],
      "name": "buyLiquidityTax",
      "outputs": [
        {
          "internalType": "uint256",
          "name": "",
          "type": "uint256"
        }
      ],
      "stateMutability": "view",
      "type": "function",
      "constant": true
    },
    {
      "inputs": [],
      "name": "buyMarketingTax",
      "outputs": [
        {
          "internalType": "uint256",
          "name": "",
          "type": "uint256"
        }
      ],
      "stateMutability": "view",
      "type": "function",
      "constant": true
    },
    {
      "inputs": [],
      "name": "decimals",
      "outputs": [
        {
          "internalType": "uint8",
          "name": "",
          "type": "uint8"
        }
      ],
      "stateMutability": "view",
      "type": "function",
      "constant": true
    },
    {
      "inputs": [
        {
          "internalType": "address",
          "name": "spender",
          "type": "address"
        },
        {
          "internalType": "uint256",
          "name": "subtractedValue",
          "type": "uint256"
        }
      ],
      "name": "decreaseAllowance",
      "outputs": [
        {
          "internalType": "bool",
          "name": "",
          "type": "bool"
        }
      ],
      "stateMutability": "nonpayable",
      "type": "function"
    },
    {
      "inputs": [],
      "name": "developmentAddress",
      "outputs": [
        {
          "internalType": "address payable",
          "name": "",
          "type": "address"
        }
      ],
      "stateMutability": "view",
      "type": "function",
      "constant": true
    },
    {
      "inputs": [],
      "name": "getOwners",
      "outputs": [
        {
          "internalType": "address[]",
          "name": "",
          "type": "address[]"
        }
      ],
      "stateMutability": "view",
      "type": "function",
      "constant": true
    },
    {
      "inputs": [
        {
          "internalType": "address",
          "name": "spender",
          "type": "address"
        },
        {
          "internalType": "uint256",
          "name": "addedValue",
          "type": "uint256"
        }
      ],
      "name": "increaseAllowance",
      "outputs": [
        {
          "internalType": "bool",
          "name": "",
          "type": "bool"
        }
      ],
      "stateMutability": "nonpayable",
      "type": "function"
    },
    {
      "inputs": [],
      "name": "initialLiquidityAdded",
      "outputs": [
        {
          "internalType": "bool",
          "name": "",
          "type": "bool"
        }
      ],
      "stateMutability": "view",
      "type": "function",
      "constant": true
    },
    {
      "inputs": [
        {
          "internalType": "address",
          "name": "",
          "type": "address"
        }
      ],
      "name": "isExcludedFromTax",
      "outputs": [
        {
          "internalType": "bool",
          "name": "",
          "type": "bool"
        }
      ],
      "stateMutability": "view",
      "type": "function",
      "constant": true
    },
    {
      "inputs": [
        {
          "internalType": "address",
          "name": "owner",
          "type": "address"
        }
      ],
      "name": "isOwner",
      "outputs": [
        {
          "internalType": "bool",
          "name": "",
          "type": "bool"
        }
      ],
      "stateMutability": "view",
      "type": "function",
      "constant": true
    },
    {
      "inputs": [],
      "name": "isPaused",
      "outputs": [
        {
          "internalType": "bool",
          "name": "",
          "type": "bool"
        }
      ],
      "stateMutability": "view",
      "type": "function",
      "constant": true
    },
    {
      "inputs": [],
      "name": "liquidityAddress",
      "outputs": [
        {
          "internalType": "address payable",
          "name": "",
          "type": "address"
        }
      ],
      "stateMutability": "view",
      "type": "function",
      "constant": true
    },
    {
      "inputs": [],
      "name": "liquidityTaxEnabled",
      "outputs": [
        {
          "internalType": "bool",
          "name": "",
          "type": "bool"
        }
      ],
      "stateMutability": "view",
      "type": "function",
      "constant": true
    },
    {
      "inputs": [],
      "name": "marketingAddress",
      "outputs": [
        {
          "internalType": "address payable",
          "name": "",
          "type": "address"
        }
      ],
      "stateMutability": "view",
      "type": "function",
      "constant": true
    },
    {
      "inputs": [],
      "name": "name",
      "outputs": [
        {
          "internalType": "string",
          "name": "",
          "type": "string"
        }
      ],
      "stateMutability": "view",
      "type": "function",
      "constant": true
    },
    {
      "inputs": [
        {
          "internalType": "address",
          "name": "owner",
          "type": "address"
        }
      ],
      "name": "removeOwner",
      "outputs": [],
      "stateMutability": "nonpayable",
      "type": "function"
    },
    {
      "inputs": [],
      "name": "sellDevelopmentTax",
      "outputs": [
        {
          "internalType": "uint256",
          "name": "",
          "type": "uint256"
        }
      ],
      "stateMutability": "view",
      "type": "function",
      "constant": true
    },
    {
      "inputs": [],
      "name": "sellLiquidityTax",
      "outputs": [
        {
          "internalType": "uint256",
          "name": "",
          "type": "uint256"
        }
      ],
      "stateMutability": "view",
      "type": "function",
      "constant": true
    },
    {
      "inputs": [],
      "name": "sellMarketingTax",
      "outputs": [
        {
          "internalType": "uint256",
          "name": "",
          "type": "uint256"
        }
      ],
      "stateMutability": "view",
      "type": "function",
      "constant": true
    },
    {
      "inputs": [
        {
          "internalType": "bool",
          "name": "newPaused",
          "type": "bool"
        }
      ],
      "name": "setIsPaused",
      "outputs": [],
      "stateMutability": "nonpayable",
      "type": "function"
    },
    {
      "inputs": [],
      "name": "symbol",
      "outputs": [
        {
          "internalType": "string",
          "name": "",
          "type": "string"
        }
      ],
      "stateMutability": "view",
      "type": "function",
      "constant": true
    },
    {
      "inputs": [],
      "name": "totalSupply",
      "outputs": [
        {
          "internalType": "uint256",
          "name": "",
          "type": "uint256"
        }
      ],
      "stateMutability": "view",
      "type": "function",
      "constant": true
    },
    {
      "inputs": [
        {
          "internalType": "address",
          "name": "recipient",
          "type": "address"
        },
        {
          "internalType": "uint256",
          "name": "amount",
          "type": "uint256"
        }
      ],
      "name": "transfer",
      "outputs": [
        {
          "internalType": "bool",
          "name": "",
          "type": "bool"
        }
      ],
      "stateMutability": "nonpayable",
      "type": "function"
    },
    {
      "inputs": [
        {
          "internalType": "address",
          "name": "sender",
          "type": "address"
        },
        {
          "internalType": "address",
          "name": "recipient",
          "type": "address"
        },
        {
          "internalType": "uint256",
          "name": "amount",
          "type": "uint256"
        }
      ],
      "name": "transferFrom",
      "outputs": [
        {
          "internalType": "bool",
          "name": "",
          "type": "bool"
        }
      ],
      "stateMutability": "nonpayable",
      "type": "function"
    },
    {
      "stateMutability": "payable",
      "type": "receive",
      "payable": true
    },
    {
      "inputs": [
        {
          "internalType": "uint256",
          "name": "amountToken",
          "type": "uint256"
        }
      ],
      "name": "addLiquidity",
      "outputs": [],
      "stateMutability": "payable",
      "type": "function",
      "payable": true
    },
    {
      "inputs": [
        {
          "internalType": "uint256",
          "name": "sellDevelopmentTax_",
          "type": "uint256"
        },
        {
          "internalType": "uint256",
          "name": "sellMarketingTax_",
          "type": "uint256"
        },
        {
          "internalType": "uint256",
          "name": "sellLiquidityTax_",
          "type": "uint256"
        }
      ],
      "name": "setSellTaxes",
      "outputs": [],
      "stateMutability": "nonpayable",
      "type": "function"
    },
    {
      "inputs": [
        {
          "internalType": "uint256",
          "name": "buyDevelopmentTax_",
          "type": "uint256"
        },
        {
          "internalType": "uint256",
          "name": "buyMarketingTax_",
          "type": "uint256"
        },
        {
          "internalType": "uint256",
          "name": "buyLiquidityTax_",
          "type": "uint256"
        }
      ],
      "name": "setBuyTaxes",
      "outputs": [],
      "stateMutability": "nonpayable",
      "type": "function"
    },
    {
      "inputs": [
        {
          "internalType": "address",
          "name": "developmentAddress_",
          "type": "address"
        },
        {
          "internalType": "address",
          "name": "marketingAddress_",
          "type": "address"
        },
        {
          "internalType": "address",
          "name": "liquidityAddress_",
          "type": "address"
        }
      ],
      "name": "setTaxAddresses",
      "outputs": [],
      "stateMutability": "nonpayable",
      "type": "function"
    },
    {
      "inputs": [
        {
          "internalType": "address",
          "name": "address_",
          "type": "address"
        }
      ],
      "name": "removeBlacklist",
      "outputs": [],
      "stateMutability": "nonpayable",
      "type": "function"
    },
    {
      "inputs": [
        {
          "internalType": "bool",
          "name": "enabled",
          "type": "bool"
        }
      ],
      "name": "setLiquidityTaxEnabled",
      "outputs": [],
      "stateMutability": "nonpayable",
      "type": "function"
    },
    {
      "inputs": [
        {
          "internalType": "address",
          "name": "address_",
          "type": "address"
        }
      ],
      "name": "addTaxExcludedAddress",
      "outputs": [],
      "stateMutability": "nonpayable",
      "type": "function"
    },
    {
      "inputs": [
        {
          "internalType": "address",
          "name": "address_",
          "type": "address"
        }
      ],
      "name": "removeTaxExcludedAddress",
      "outputs": [],
      "stateMutability": "nonpayable",
      "type": "function"
    },
    {
      "inputs": [
        {
          "internalType": "address",
          "name": "routerAddress",
          "type": "address"
        }
      ],
      "name": "setRouter",
      "outputs": [],
      "stateMutability": "nonpayable",
      "type": "function"
    }
  ],
  "bytecode": "0x60a06040526007805460ff199081169091556019608052610e106008556002600a818155600d819055600e8190556005600f5560108054909316600190811790935560115560046013819055601455601581905560168190556017556018553480156200006b57600080fd5b5060405162002bf338038062002bf38339810160408190526200008e9162000400565b604051806040016040528060058152602001642a37b5b2b760d91b815250604051806040016040528060038152602001622a25a760e91b8152508160039080519060200190620000e09291906200033d565b508051620000f69060049060208401906200033d565b50505033620001575760405162461bcd60e51b815260206004820152602260248201527f43616e277420696e697469616c697a652077697468207a65726f206164647265604482015261737360f01b60648201526084015b60405180910390fd5b336000818152600560205260408120805460ff191660019081179091556006805491820181559091527ff652222313e28459528d920b65115c16c04f3efc82aaedc97be59f3f377c0d3f0180546001600160a01b031990811683179091556019805490911682179055620001ef90620001ce601290565b620001db90600a6200054d565b620001e990610d0562000565565b62000258565b620001fc826012620001ce565b62000209816012620001ce565b6001600160a01b039182166000908152601c60205260408082208054600160ff1991821681179092559390941682528082208054841685179055308252902080549091169091179055620005df565b6001600160a01b038216620002b05760405162461bcd60e51b815260206004820152601f60248201527f45524332303a206d696e7420746f20746865207a65726f20616464726573730060448201526064016200014e565b8060026000828254620002c4919062000587565b90915550506001600160a01b03821660009081526020819052604081208054839290620002f390849062000587565b90915550506040518181526001600160a01b038316906000907fddf252ad1be2c89b69c2b068fc378daa952ba7f163c4a11628f55a4df523b3ef9060200160405180910390a35050565b8280546200034b90620005a2565b90600052602060002090601f0160209004810192826200036f5760008555620003ba565b82601f106200038a57805160ff1916838001178555620003ba565b82800160010185558215620003ba579182015b82811115620003ba5782518255916020019190600101906200039d565b50620003c8929150620003cc565b5090565b5b80821115620003c85760008155600101620003cd565b80516001600160a01b0381168114620003fb57600080fd5b919050565b600080604083850312156200041457600080fd5b6200041f83620003e3565b91506200042f60208401620003e3565b90509250929050565b634e487b7160e01b600052601160045260246000fd5b600181815b808511156200048f57816000190482111562000473576200047362000438565b808516156200048157918102915b93841c939080029062000453565b509250929050565b600082620004a85750600162000547565b81620004b75750600062000547565b8160018114620004d05760028114620004db57620004fb565b600191505062000547565b60ff841115620004ef57620004ef62000438565b50506001821b62000547565b5060208310610133831016604e8410600b841016171562000520575081810a62000547565b6200052c83836200044e565b806000190482111562000543576200054362000438565b0290505b92915050565b60006200055e60ff84168362000497565b9392505050565b600081600019048311821515161562000582576200058262000438565b500290565b600082198211156200059d576200059d62000438565b500190565b600181811c90821680620005b757607f821691505b60208210811415620005d957634e487b7160e01b600052602260045260246000fd5b50919050565b6080516125ea6200060960003960008181610534015281816108650152610b3a01526125ea6000f3fe60806040526004361061023f5760003560e01c806373bd699a1161012e578063ad8052bb116100ab578063cdca70831161006f578063cdca7083146106d9578063d8c6404b146106f9578063dd62ed3e14610718578063e96db1ef1461075e578063eb91e6511461077457600080fd5b8063ad8052bb14610639578063b187bd261461064f578063c0d7865514610669578063cb4ca63114610689578063cc9c49a6146106b957600080fd5b8063a0e67e2b116100f2578063a0e67e2b146105a1578063a2cbba28146105c3578063a457c2d7146105d9578063a5ece941146105f9578063a9059cbb1461061957600080fd5b806373bd699a146105035780637f635cc014610522578063887d63171461055657806395d89b4114610576578063993df94e1461058b57600080fd5b80632f54bf6e116101bc57806351c6590a1161018057806351c6590a14610464578063638b1b14146104775780636ab91206146104975780637065cb48146104ad57806370a08231146104cd57600080fd5b80632f54bf6e146103a1578063313ce567146103da5780633221c93f146103f6578063330124111461042e578063395093511461044457600080fd5b80631870517a116102035780631870517a146103075780631a9431a91461032757806323b872dd14610347578063240976bf146103675780632c505fb31461038757600080fd5b806306fdde031461024b5780630873321414610276578063095ea7b314610298578063173825d9146102c857806318160ddd146102e857600080fd5b3661024657005b600080fd5b34801561025757600080fd5b50610260610794565b60405161026d919061203f565b60405180910390f35b34801561028257600080fd5b50610296610291366004612094565b610826565b005b3480156102a457600080fd5b506102b86102b33660046120d8565b6108c5565b604051901515815260200161026d565b3480156102d457600080fd5b506102966102e3366004612104565b6108dc565b3480156102f457600080fd5b506002545b60405190815260200161026d565b34801561031357600080fd5b50610296610322366004612094565b610b04565b34801561033357600080fd5b50610296610342366004612128565b610b9a565b34801561035357600080fd5b506102b861036236600461214a565b610be1565b34801561037357600080fd5b50610296610382366004612128565b610c8b565b34801561039357600080fd5b506010546102b89060ff1681565b3480156103ad57600080fd5b506102b86103bc366004612104565b6001600160a01b031660009081526005602052604090205460ff1690565b3480156103e657600080fd5b506040516012815260200161026d565b34801561040257600080fd5b50601b54610416906001600160a01b031681565b6040516001600160a01b03909116815260200161026d565b34801561043a57600080fd5b506102f960175481565b34801561045057600080fd5b506102b861045f3660046120d8565b610cd2565b61029661047236600461218b565b610d0e565b34801561048357600080fd5b50601954610416906001600160a01b031681565b3480156104a357600080fd5b506102f960155481565b3480156104b957600080fd5b506102966104c8366004612104565b610f6d565b3480156104d957600080fd5b506102f96104e8366004612104565b6001600160a01b031660009081526020819052604090205490565b34801561050f57600080fd5b506010546102b890610100900460ff1681565b34801561052e57600080fd5b506102f97f000000000000000000000000000000000000000000000000000000000000000081565b34801561056257600080fd5b506102966105713660046121a4565b611032565b34801561058257600080fd5b50610260611137565b34801561059757600080fd5b506102f960165481565b3480156105ad57600080fd5b506105b6611146565b60405161026d9190612233565b3480156105cf57600080fd5b506102f960185481565b3480156105e557600080fd5b506102b86105f43660046120d8565b6111a7565b34801561060557600080fd5b50601a54610416906001600160a01b031681565b34801561062557600080fd5b506102b86106343660046120d8565b611240565b34801561064557600080fd5b506102f960135481565b34801561065b57600080fd5b506007546102b89060ff1681565b34801561067557600080fd5b50610296610684366004612104565b61124d565b34801561069557600080fd5b506102b86106a4366004612104565b601c6020526000908152604090205460ff1681565b3480156106c557600080fd5b506102966106d4366004612104565b611418565b3480156106e557600080fd5b506102966106f4366004612104565b61146d565b34801561070557600080fd5b506007546102b890610100900460ff1681565b34801561072457600080fd5b506102f9610733366004612246565b6001600160a01b03918216600090815260016020908152604080832093909416825291909152205490565b34801561076a57600080fd5b506102f960145481565b34801561078057600080fd5b5061029661078f366004612104565b6114c5565b6060600380546107a39061227f565b80601f01602080910402602001604051908101604052809291908181526020018280546107cf9061227f565b801561081c5780601f106107f15761010080835404028352916020019161081c565b820191906000526020600020905b8154815290600101906020018083116107ff57829003601f168201915b5050505050905090565b3360009081526005602052604090205460ff1615156001146108635760405162461bcd60e51b815260040161085a906122ba565b60405180910390fd5b7f00000000000000000000000000000000000000000000000000000000000000008161088f8486612300565b6108999190612300565b11156108b75760405162461bcd60e51b815260040161085a90612318565b506013829055601455601555565b60006108d233848461151a565b5060015b92915050565b3360009081526005602052604090205460ff1615156001146109105760405162461bcd60e51b815260040161085a906122ba565b6001600160a01b03811660009081526005602052604090205460ff16151560011461097d5760405162461bcd60e51b815260206004820152601760248201527f41646472657373206973206e6f7420616e206f776e6572000000000000000000604482015260640161085a565b60005b600654811015610b0057816001600160a01b0316600682815481106109a7576109a7612360565b6000918252602090912001546001600160a01b03161415610aee576001600160a01b0382166000908152600560205260409020805460ff19169055805b6006546109f390600190612376565b811015610a7e576006610a07836001612300565b81548110610a1757610a17612360565b600091825260209091200154600680546001600160a01b039092169184908110610a4357610a43612360565b600091825260209091200180546001600160a01b0319166001600160a01b039290921691909117905580610a768161238d565b9150506109e4565b506006805480610a9057610a906123a8565b600082815260208120820160001990810180546001600160a01b031916905590910190915560405142916001600160a01b0385169133917fecc5dd9888b87e7ed252d66b9c086ab819de6c8f8b96c8e5458e105bacfbb02791a45050565b80610af88161238d565b915050610980565b5050565b3360009081526005602052604090205460ff161515600114610b385760405162461bcd60e51b815260040161085a906122ba565b7f000000000000000000000000000000000000000000000000000000000000000081610b648486612300565b610b6e9190612300565b1115610b8c5760405162461bcd60e51b815260040161085a90612318565b601692909255601755601855565b3360009081526005602052604090205460ff161515600114610bce5760405162461bcd60e51b815260040161085a906122ba565b6010805460ff1916911515919091179055565b6000610bee84848461163e565b6001600160a01b038416600090815260016020908152604080832033845290915290205482811015610c735760405162461bcd60e51b815260206004820152602860248201527f45524332303a207472616e7366657220616d6f756e74206578636565647320616044820152676c6c6f77616e636560c01b606482015260840161085a565b610c80853385840361151a565b506001949350505050565b3360009081526005602052604090205460ff161515600114610cbf5760405162461bcd60e51b815260040161085a906122ba565b6007805460ff1916911515919091179055565b3360008181526001602090815260408083206001600160a01b038716845290915281205490916108d2918590610d09908690612300565b61151a565b3360009081526005602052604090205460ff161515600114610d425760405162461bcd60e51b815260040161085a906122ba565b601d546001600160a01b031680610d905760405162461bcd60e51b8152602060048201526012602482015271149bdd5d195c881b9bdd081cd95d081e595d60721b604482015260640161085a565b610d9c6012600a6124a2565b610da690836124b1565b33600090815260208190526040902054909250821115610e1a5760405162461bcd60e51b815260206004820152602960248201527f53656e64657220646f6573206e6f74206861766520656e6f75676820746f6b656044820152686e2062616c616e636560b81b606482015260840161085a565b336000908152600160209081526040808320308452909152902054821115610e7b5760405162461bcd60e51b81526020600482015260146024820152734e6f7420656e6f75676820616c6c6f77616e636560601b604482015260640161085a565b610e86333084611c09565b610e9081836108c5565b50601d546019546001600160a01b039182169163f305d719913491309187918291859116610ec042610e10612300565b6040518863ffffffff1660e01b8152600401610ee1969594939291906124d0565b60606040518083038185885af1158015610eff573d6000803e3d6000fd5b50505050506040513d601f19601f82011682018060405250810190610f24919061250b565b505060075462010000900460ff169050610b00576007805462ffff00191662010100179055600854610f569042612300565b600955600a54610f669043612300565b600b555050565b3360009081526005602052604090205460ff161515600114610fa15760405162461bcd60e51b815260040161085a906122ba565b6001600160a01b038116600081815260056020526040808220805460ff1916600190811790915560068054918201815583527ff652222313e28459528d920b65115c16c04f3efc82aaedc97be59f3f377c0d3f0180546001600160a01b031916841790555142929133917fa0b18fca933618876351ba2ef88bf4505c184d3e55064bec0d7fe236dd706d849190a450565b3360009081526005602052604090205460ff1615156001146110665760405162461bcd60e51b815260040161085a906122ba565b6001600160a01b038316158061108357506001600160a01b038216155b8061109557506001600160a01b038116155b156110f85760405162461bcd60e51b815260206004820152602d60248201527f4e6f6e65206f6620746865206164647265737365732063616e2774206265207a60448201526c65726f2061646472657373657360981b606482015260840161085a565b601980546001600160a01b039485166001600160a01b031991821617909155601a805493851693821693909317909255601b8054919093169116179055565b6060600480546107a39061227f565b6060600680548060200260200160405190810160405280929190818152602001828054801561081c57602002820191906000526020600020905b81546001600160a01b03168152600190910190602001808311611180575050505050905090565b3360009081526001602090815260408083206001600160a01b0386168452909152812054828110156112295760405162461bcd60e51b815260206004820152602560248201527f45524332303a2064656372656173656420616c6c6f77616e63652062656c6f77604482015264207a65726f60d81b606482015260840161085a565b611236338585840361151a565b5060019392505050565b60006108d233848461163e565b3360009081526005602052604090205460ff1615156001146112815760405162461bcd60e51b815260040161085a906122ba565b601d80546001600160a01b0319166001600160a01b0383169081179091556040805163c45a015560e01b8152905163c45a0155916004808201926020929091908290030181865afa1580156112da573d6000803e3d6000fd5b505050506040513d601f19601f820116820180604052508101906112fe9190612539565b6001600160a01b031663c9c6539630601d60009054906101000a90046001600160a01b03166001600160a01b031663ad5c46486040518163ffffffff1660e01b8152600401602060405180830381865afa158015611360573d6000803e3d6000fd5b505050506040513d601f19601f820116820180604052508101906113849190612539565b6040516001600160e01b031960e085901b1681526001600160a01b039283166004820152911660248201526044016020604051808303816000875af11580156113d1573d6000803e3d6000fd5b505050506040513d601f19601f820116820180604052508101906113f59190612539565b601e80546001600160a01b0319166001600160a01b039290921691909117905550565b3360009081526005602052604090205460ff16151560011461144c5760405162461bcd60e51b815260040161085a906122ba565b6001600160a01b03166000908152601c60205260409020805460ff19169055565b3360009081526005602052604090205460ff1615156001146114a15760405162461bcd60e51b815260040161085a906122ba565b6001600160a01b03166000908152601c60205260409020805460ff19166001179055565b3360009081526005602052604090205460ff1615156001146114f95760405162461bcd60e51b815260040161085a906122ba565b6001600160a01b03166000908152600c60205260409020805460ff19169055565b6001600160a01b03831661157c5760405162461bcd60e51b8152602060048201526024808201527f45524332303a20617070726f76652066726f6d20746865207a65726f206164646044820152637265737360e01b606482015260840161085a565b6001600160a01b0382166115dd5760405162461bcd60e51b815260206004820152602260248201527f45524332303a20617070726f766520746f20746865207a65726f206164647265604482015261737360f01b606482015260840161085a565b6001600160a01b0383811660008181526001602090815260408083209487168084529482529182902085905590518481527f8c5be1e5ebec7d5bd14f71427d1e84f3dd0314c0f7b2291e5b200ac8c7c3b925910160405180910390a3505050565b3360009081526005602052604090205460ff1661169a5760075460ff161561169a5760405162461bcd60e51b815260206004820152600f60248201526e10dbdb9d1c9858dd081c185d5cd959608a1b604482015260640161085a565b601054610100900460ff161580156116bc5750601d546001600160a01b031633145b156116eb576010805461ff0019166101001790556116db83338361151a565b6116e6838383611c09565b505050565b601054610100900460ff1661170a576010805461ff0019166101001790555b8061171b576116e683836000611c09565b601354601454601554600754610100900460ff161561178a57600b544311611761576001600160a01b0386166000908152600c60205260409020805460ff191660011790555b600954421161177e57600d549250600e549150600f54905061178a565b6007805461ff00191690555b6001600160a01b0386166000908152600c602052604090205460ff161580156117cc57506001600160a01b0385166000908152600c602052604090205460ff16155b6118185760405162461bcd60e51b815260206004820152601f60248201527f53656e646572206f7220726563697069656e7420626c61636b6c697374656400604482015260640161085a565b600080600080600061183f306001600160a01b031660009081526020819052604090205490565b60125490915060ff16158015611869575060115461186590670de0b6b3a76400006124b1565b8110155b80156118835750601e546001600160a01b038c8116911614155b15611a85576012805460ff19166001179055856118a0888a612300565b6118aa9190612300565b9450846118b789836124b1565b6118c19190612556565b9350846118ce88836124b1565b6118d89190612556565b9250846118e587836124b1565b6118ef9190612556565b915060006119056119008587612300565b611dd8565b905060006119138587612300565b61191d87846124b1565b6119279190612556565b905060006119358688612300565b61193f87856124b1565b6119499190612556565b6019546040519192506000916001600160a01b039091169084908381818185875af1925050503d806000811461199b576040519150601f19603f3d011682016040523d82523d6000602084013e6119a0565b606091505b5050601a546040519192506000916001600160a01b039091169084908381818185875af1925050503d80600081146119f4576040519150601f19603f3d011682016040523d82523d6000602084013e6119f9565b606091505b50509050611a0687611f42565b6012805460ff19169055818015611a1a5750805b611a7f5760405162461bcd60e51b815260206004820152603060248201527f436f756c646e27742073656e6420746f20646576656c6f706d656e74206f722060448201526f1b585c9ad95d1a5b99c81dd85b1b195d60821b606482015260840161085a565b50505050505b60125460009550859450849350839250829060ff16158015611ac057506001600160a01b038c166000908152601c602052604090205460ff16155b8015611ae557506001600160a01b038b166000908152601c602052604090205460ff16155b90508015611bf057601e546001600160a01b038c811691161415611b50576064611b0f8a8c6124b1565b611b199190612556565b94506064611b27898c6124b1565b611b319190612556565b93506064611b3f888c6124b1565b611b499190612556565b9250611bbb565b601e546001600160a01b038d811691161415611bbb5760646016548b611b7691906124b1565b611b809190612556565b945060646017548b611b9291906124b1565b611b9c9190612556565b935060646018548b611bae91906124b1565b611bb89190612556565b92505b82611bc68587612300565b611bd09190612300565b95508515611bf057611be38c3088611c09565b611bed868b612376565b99505b611bfb8c8c8c611c09565b505050505050505050505050565b6001600160a01b038316611c6d5760405162461bcd60e51b815260206004820152602560248201527f45524332303a207472616e736665722066726f6d20746865207a65726f206164604482015264647265737360d81b606482015260840161085a565b6001600160a01b038216611ccf5760405162461bcd60e51b815260206004820152602360248201527f45524332303a207472616e7366657220746f20746865207a65726f206164647260448201526265737360e81b606482015260840161085a565b6001600160a01b03831660009081526020819052604090205481811015611d475760405162461bcd60e51b815260206004820152602660248201527f45524332303a207472616e7366657220616d6f756e7420657863656564732062604482015265616c616e636560d01b606482015260840161085a565b6001600160a01b03808516600090815260208190526040808220858503905591851681529081208054849290611d7e908490612300565b92505081905550826001600160a01b0316846001600160a01b03167fddf252ad1be2c89b69c2b068fc378daa952ba7f163c4a11628f55a4df523b3ef84604051611dca91815260200190565b60405180910390a350505050565b604080516002808252606082018352600092839291906020830190803683370190505090503081600081518110611e1157611e11612360565b6001600160a01b03928316602091820292909201810191909152601d54604080516315ab88c960e31b81529051919093169263ad5c46489260048083019391928290030181865afa158015611e6a573d6000803e3d6000fd5b505050506040513d601f19601f82011682018060405250810190611e8e9190612539565b81600181518110611ea157611ea1612360565b6001600160a01b039283166020918202929092010152601d54611ec7913091168561151a565b601d546001600160a01b031663791ac9478460008430611ee842603c612300565b6040518663ffffffff1660e01b8152600401611f08959493929190612578565b600060405180830381600087803b158015611f2257600080fd5b505af1158015611f36573d6000803e3d6000fd5b50479695505050505050565b6000611f4f600283612556565b90506000611f5d8284612376565b9050476000611f6b84611dd8565b90506000611f798383612376565b9050611f858482611f8d565b505050505050565b601d54611fa59030906001600160a01b03168461151a565b601d546019546001600160a01b039182169163f305d71991849130918791600091829116611fd442603c612300565b6040518863ffffffff1660e01b8152600401611ff5969594939291906124d0565b60606040518083038185885af1158015612013573d6000803e3d6000fd5b50505050506040513d601f19601f82011682018060405250810190612038919061250b565b5050505050565b600060208083528351808285015260005b8181101561206c57858101830151858201604001528201612050565b8181111561207e576000604083870101525b50601f01601f1916929092016040019392505050565b6000806000606084860312156120a957600080fd5b505081359360208301359350604090920135919050565b6001600160a01b03811681146120d557600080fd5b50565b600080604083850312156120eb57600080fd5b82356120f6816120c0565b946020939093013593505050565b60006020828403121561211657600080fd5b8135612121816120c0565b9392505050565b60006020828403121561213a57600080fd5b8135801515811461212157600080fd5b60008060006060848603121561215f57600080fd5b833561216a816120c0565b9250602084013561217a816120c0565b929592945050506040919091013590565b60006020828403121561219d57600080fd5b5035919050565b6000806000606084860312156121b957600080fd5b83356121c4816120c0565b925060208401356121d4816120c0565b915060408401356121e4816120c0565b809150509250925092565b600081518084526020808501945080840160005b838110156122285781516001600160a01b031687529582019590820190600101612203565b509495945050505050565b60208152600061212160208301846121ef565b6000806040838503121561225957600080fd5b8235612264816120c0565b91506020830135612274816120c0565b809150509250929050565b600181811c9082168061229357607f821691505b602082108114156122b457634e487b7160e01b600052602260045260246000fd5b50919050565b60208082526016908201527521b0b63632b91034b9903737ba1030b71037bbb732b960511b604082015260600190565b634e487b7160e01b600052601160045260246000fd5b60008219821115612313576123136122ea565b500190565b60208082526028908201527f546f74616c207461786573206172652061626f76652074686520616c6c6f77656040820152671908185b5bdd5b9d60c21b606082015260800190565b634e487b7160e01b600052603260045260246000fd5b600082821015612388576123886122ea565b500390565b60006000198214156123a1576123a16122ea565b5060010190565b634e487b7160e01b600052603160045260246000fd5b600181815b808511156123f95781600019048211156123df576123df6122ea565b808516156123ec57918102915b93841c93908002906123c3565b509250929050565b600082612410575060016108d6565b8161241d575060006108d6565b8160018114612433576002811461243d57612459565b60019150506108d6565b60ff84111561244e5761244e6122ea565b50506001821b6108d6565b5060208310610133831016604e8410600b841016171561247c575081810a6108d6565b61248683836123be565b806000190482111561249a5761249a6122ea565b029392505050565b600061212160ff841683612401565b60008160001904831182151516156124cb576124cb6122ea565b500290565b6001600160a01b039687168152602081019590955260408501939093526060840191909152909216608082015260a081019190915260c00190565b60008060006060848603121561252057600080fd5b8351925060208401519150604084015190509250925092565b60006020828403121561254b57600080fd5b8151612121816120c0565b60008261257357634e487b7160e01b600052601260045260246000fd5b500490565b85815284602082015260a06040820152600061259760a08301866121ef565b6001600160a01b039490941660608301525060800152939250505056fea264697066735822122050e8503bebbedb987627062f3d3e2d83c5dcbd5ae08736295350984107a0220f64736f6c634300080b0033",
  "immutableReferences": {
    "5208": [
      {
        "length": 32,
        "start": 1332
      },
      {
        "length": 32,
        "start": 2149
      },
      {
        "length": 32,
        "start": 2874
      }
    ]
  },
  "source": "// SPDX-License-Identifier: MIT\n\npragma solidity >=0.4.22 <0.9.0;\n\nimport \"./PauseOwners.sol\";\nimport \"@openzeppelin/contracts/token/ERC20/ERC20.sol\";\nimport \"@uniswap/v2-periphery/contracts/interfaces/IUniswapV2Router02.sol\";\nimport \"@uniswap/v2-core/contracts/interfaces/IUniswapV2Pair.sol\";\nimport \"@uniswap/v2-core/contracts/interfaces/IUniswapV2Factory.sol\";\nimport \"@uniswap/v2-periphery/contracts/libraries/UniswapV2Library.sol\";\nimport \"@openzeppelin/contracts/utils/Address.sol\";\n\ncontract Token is ERC20, PauseOwners {\n\tuint256 public immutable MAX_TOTAL_FEE = 25; // We can never surpass this total fee\n\n\tbool public antiBotEnabled;\n\tbool private antiBotRanOnce; // We can only run antibot once, when initial liquidity is added\n\tuint256 private antiBotTaxesTimeInSeconds = 3600;\n\tuint256 private antiBotTaxesEndTime;\n\tuint256 private antiBotBlockTime = 2;\n\tuint256 private antiBotBlockEnd;\n\n\tmapping(address => bool) antiBotBlacklist;\n\n\tuint256 private antiBotSellDevelopmentTax = 10;\n\tuint256 private antiBotSellMarketingTax = 10;\n\tuint256 private antiBotSellLiquidityTax = 5;\n\n\tbool public liquidityTaxEnabled = true;\n\tbool public initialLiquidityAdded;\n\tuint256 private minBalanceToSwapAndTransfer = 10;\n\n\tbool private inSwapAndTransfer;\n\n\tuint256 public sellDevelopmentTax = 4;\n\tuint256 public sellMarketingTax = 4;\n\tuint256 public sellLiquidityTax = 2;\n\n\tuint256 public buyDevelopmentTax = 2;\n\tuint256 public buyMarketingTax = 2;\n\tuint256 public buyLiquidityTax = 1;\n\n\taddress payable public developmentAddress;\n\taddress payable public marketingAddress;\n\taddress payable public liquidityAddress;\n\n\tmapping(address => bool) public isExcludedFromTax;\n\n\tIUniswapV2Router02 private router;\n\tIUniswapV2Pair private pair;\n\n\tconstructor(address gameAddress_, address nftAddress_)\n\t\tERC20(\"Token\", \"TKN\")\n\t{\n\t\tdevelopmentAddress = payable(msg.sender);\n\t\t_mint(developmentAddress, 3333 * 10**decimals()); // For adding liquidity and team tokens\n\t\t_mint(gameAddress_, 3333 * 10**decimals()); // Used as game rewards\n\t\t_mint(nftAddress_, 3333 * 10**decimals()); // Used as NFT rewards\n\t\tisExcludedFromTax[gameAddress_] = true;\n\t\tisExcludedFromTax[nftAddress_] = true;\n\t\tisExcludedFromTax[address(this)] = true;\n\t}\n\n\treceive() external payable {} // Must be defined so the contract is able to receive ETH from swaps\n\n\tfunction addLiquidity(uint256 amountToken) external payable onlyOwners {\n\t\t// Add initial liquidity and enabled the \"anti-bot\" feature\n\t\taddress routerAddress = address(router);\n\t\trequire(routerAddress != address(0), \"Router not set yet\");\n\t\tamountToken *= (10**decimals());\n\t\trequire(\n\t\t\tbalanceOf(msg.sender) >= amountToken,\n\t\t\t\"Sender does not have enough token balance\"\n\t\t);\n\t\trequire(\n\t\t\tallowance(msg.sender, address(this)) >= amountToken,\n\t\t\t\"Not enough allowance\"\n\t\t);\n\t\tsuper._transfer(msg.sender, address(this), amountToken);\n\t\tapprove(routerAddress, amountToken);\n\t\trouter.addLiquidityETH{ value: msg.value }(\n\t\t\taddress(this),\n\t\t\tamountToken,\n\t\t\tamountToken,\n\t\t\tmsg.value,\n\t\t\tdevelopmentAddress,\n\t\t\tblock.timestamp + 1 hours\n\t\t);\n\t\tif (!antiBotRanOnce) {\n\t\t\tantiBotEnabled = true;\n\t\t\tantiBotRanOnce = true;\n\t\t\tantiBotTaxesEndTime = block.timestamp + antiBotTaxesTimeInSeconds;\n\t\t\tantiBotBlockEnd = block.number + antiBotBlockTime;\n\t\t}\n\t}\n\n\tfunction _transfer(\n\t\taddress sender,\n\t\taddress recipient,\n\t\tuint256 amount\n\t) internal virtual override checkPaused {\n\t\t//Initial liquidity transfer\n\t\tif (!initialLiquidityAdded && msg.sender == address(router)) {\n\t\t\tinitialLiquidityAdded = true;\n\t\t\t_approve(sender, msg.sender, amount);\n\t\t\tsuper._transfer(sender, recipient, amount);\n\t\t\treturn;\n\t\t} else if (!initialLiquidityAdded) {\n\t\t\tinitialLiquidityAdded = true;\n\t\t}\n\n\t\tif (amount == 0) {\n\t\t\tsuper._transfer(sender, recipient, 0);\n\t\t\treturn;\n\t\t}\n\n\t\t// Temporary local variables for setting antibot taxes\n\t\tuint256 sellDevelopmentTax_ = sellDevelopmentTax;\n\t\tuint256 sellMarketingTax_ = sellMarketingTax;\n\t\tuint256 sellLiquidityTax_ = sellLiquidityTax;\n\n\t\tif (antiBotEnabled) {\n\t\t\tif (block.number <= antiBotBlockEnd) {\n\t\t\t\tantiBotBlacklist[sender] = true;\n\t\t\t}\n\t\t\tif (block.timestamp <= antiBotTaxesEndTime) {\n\t\t\t\tsellDevelopmentTax_ = antiBotSellDevelopmentTax;\n\t\t\t\tsellMarketingTax_ = antiBotSellMarketingTax;\n\t\t\t\tsellLiquidityTax_ = antiBotSellLiquidityTax;\n\t\t\t} else {\n\t\t\t\tantiBotEnabled = false;\n\t\t\t}\n\t\t}\n\n\t\trequire(\n\t\t\t!antiBotBlacklist[sender] && !antiBotBlacklist[recipient],\n\t\t\t\"Sender or recipient blacklisted\"\n\t\t);\n\n\t\tuint256 totalTax = 0;\n\t\tuint256 developmentTax = 0;\n\t\tuint256 marketingTax = 0;\n\t\tuint256 liquidityTax = 0;\n\n\t\tuint256 tokenBalance = balanceOf(address(this));\n\t\tif (\n\t\t\t!inSwapAndTransfer &&\n\t\t\ttokenBalance >= (minBalanceToSwapAndTransfer * 10**18) &&\n\t\t\tsender != address(pair)\n\t\t) {\n\t\t\tinSwapAndTransfer = true;\n\n\t\t\ttotalTax =\n\t\t\t\tsellDevelopmentTax_ +\n\t\t\t\tsellMarketingTax_ +\n\t\t\t\tsellLiquidityTax_;\n\t\t\tdevelopmentTax = (tokenBalance * sellDevelopmentTax_) / totalTax;\n\t\t\tmarketingTax = (tokenBalance * sellMarketingTax_) / totalTax;\n\t\t\tliquidityTax = (tokenBalance * sellLiquidityTax_) / totalTax;\n\n\t\t\tuint256 ethBalance = swapTokensToETH(developmentTax + marketingTax);\n\t\t\tuint256 ethForDevelopment = (ethBalance * developmentTax) /\n\t\t\t\t(developmentTax + marketingTax);\n\t\t\tuint256 ethForMarketing = (ethBalance * marketingTax) /\n\t\t\t\t(developmentTax + marketingTax);\n\n\t\t\t(bool devSuccess, ) = developmentAddress.call{\n\t\t\t\tvalue: ethForDevelopment\n\t\t\t}(\"\");\n\t\t\t(bool marSuccess, ) = marketingAddress.call{\n\t\t\t\tvalue: ethForMarketing\n\t\t\t}(\"\");\n\n\t\t\tswapAndLiquify(liquidityTax);\n\n\t\t\tinSwapAndTransfer = false;\n\n\t\t\trequire(\n\t\t\t\tdevSuccess && marSuccess,\n\t\t\t\t\"Couldn't send to development or marketing wallet\"\n\t\t\t);\n\t\t}\n\n\t\ttotalTax = 0;\n\t\tdevelopmentTax = 0;\n\t\tmarketingTax = 0;\n\t\tliquidityTax = 0;\n\n\t\tbool takeFee = !inSwapAndTransfer &&\n\t\t\t!isExcludedFromTax[sender] &&\n\t\t\t!isExcludedFromTax[recipient];\n\n\t\tif (takeFee) {\n\t\t\tif (recipient == address(pair)) {\n\t\t\t\t// Selling\n\t\t\t\tdevelopmentTax = (amount * sellDevelopmentTax_) / 100;\n\t\t\t\tmarketingTax = (amount * sellMarketingTax_) / 100;\n\t\t\t\tliquidityTax = (amount * sellLiquidityTax_) / 100;\n\t\t\t} else if (sender == address(pair)) {\n\t\t\t\t// Buying\n\t\t\t\tdevelopmentTax = (amount * buyDevelopmentTax) / 100;\n\t\t\t\tmarketingTax = (amount * buyMarketingTax) / 100;\n\t\t\t\tliquidityTax = (amount * buyLiquidityTax) / 100;\n\t\t\t}\n\t\t\ttotalTax = developmentTax + marketingTax + liquidityTax;\n\n\t\t\tif (totalTax > 0) {\n\t\t\t\tsuper._transfer(sender, address(this), totalTax);\n\t\t\t\tamount -= totalTax;\n\t\t\t}\n\t\t}\n\n\t\tsuper._transfer(sender, recipient, amount);\n\t}\n\n\tfunction swapAndLiquify(uint256 amountToken) private {\n\t\tuint256 half1 = amountToken / 2;\n\t\tuint256 half2 = amountToken - half1;\n\t\tuint256 balanceBeforeSwap = address(this).balance;\n\t\tuint256 balanceAfterSwap = swapTokensToETH(half1); // Swap half of the tokens to BNB\n\t\tuint256 swapDifference = balanceAfterSwap - balanceBeforeSwap;\n\t\taddLiquidityTax(half2, swapDifference); // Add the non-swapped tokens and the swapped BNB to liquidity\n\t}\n\n\tfunction addLiquidityTax(uint256 amountToken, uint256 amountEth) private {\n\t\t// approve(address(router), amountToken);\n\t\t_approve(address(this), address(router), amountToken);\n\t\trouter.addLiquidityETH{ value: amountEth }(\n\t\t\taddress(this),\n\t\t\tamountToken,\n\t\t\t0,\n\t\t\t0,\n\t\t\tdevelopmentAddress,\n\t\t\tblock.timestamp + 1 minutes\n\t\t);\n\t}\n\n\tfunction swapTokensToETH(uint256 amountToken) private returns (uint256) {\n\t\taddress[] memory path = new address[](2);\n\t\tpath[0] = address(this);\n\t\tpath[1] = router.WETH();\n\t\t// approve(address(router), amountToken);\n\t\t_approve(address(this), address(router), amountToken);\n\t\trouter.swapExactTokensForETHSupportingFeeOnTransferTokens(\n\t\t\tamountToken,\n\t\t\t0, // Receive any amount\n\t\t\tpath,\n\t\t\taddress(this),\n\t\t\tblock.timestamp + 1 minutes\n\t\t);\n\t\treturn address(this).balance;\n\t}\n\n\tfunction setSellTaxes(\n\t\tuint256 sellDevelopmentTax_,\n\t\tuint256 sellMarketingTax_,\n\t\tuint256 sellLiquidityTax_\n\t) external onlyOwners {\n\t\trequire(\n\t\t\t(sellDevelopmentTax_ + sellMarketingTax_ + sellLiquidityTax_) <=\n\t\t\t\tMAX_TOTAL_FEE,\n\t\t\t\"Total taxes are above the allowed amount\"\n\t\t);\n\t\tsellDevelopmentTax = sellDevelopmentTax_;\n\t\tsellMarketingTax = sellMarketingTax_;\n\t\tsellLiquidityTax = sellDevelopmentTax_;\n\t}\n\n\tfunction setBuyTaxes(\n\t\tuint256 buyDevelopmentTax_,\n\t\tuint256 buyMarketingTax_,\n\t\tuint256 buyLiquidityTax_\n\t) external onlyOwners {\n\t\trequire(\n\t\t\t(buyDevelopmentTax_ + buyMarketingTax_ + buyLiquidityTax_) <=\n\t\t\t\tMAX_TOTAL_FEE,\n\t\t\t\"Total taxes are above the allowed amount\"\n\t\t);\n\t\tbuyDevelopmentTax = buyDevelopmentTax_;\n\t\tbuyMarketingTax = buyMarketingTax_;\n\t\tbuyLiquidityTax = buyLiquidityTax_;\n\t}\n\n\tfunction setTaxAddresses(\n\t\taddress developmentAddress_,\n\t\taddress marketingAddress_,\n\t\taddress liquidityAddress_\n\t) external onlyOwners {\n\t\trequire(\n\t\t\t!(developmentAddress_ == address(0) ||\n\t\t\t\tmarketingAddress_ == address(0) ||\n\t\t\t\tliquidityAddress_ == address(0)),\n\t\t\t\"None of the addresses can't be zero addresses\"\n\t\t);\n\t\tdevelopmentAddress = payable(developmentAddress_);\n\t\tmarketingAddress = payable(marketingAddress_);\n\t\tliquidityAddress = payable(liquidityAddress_);\n\t}\n\n\tfunction removeBlacklist(address address_) external onlyOwners {\n\t\tantiBotBlacklist[address_] = false;\n\t}\n\n\tfunction setLiquidityTaxEnabled(bool enabled) external onlyOwners {\n\t\tliquidityTaxEnabled = enabled;\n\t}\n\n\tfunction addTaxExcludedAddress(address address_) external onlyOwners {\n\t\tisExcludedFromTax[address_] = true;\n\t}\n\n\tfunction removeTaxExcludedAddress(address address_) external onlyOwners {\n\t\tisExcludedFromTax[address_] = false;\n\t}\n\n\tfunction setRouter(address routerAddress) external onlyOwners {\n\t\trouter = IUniswapV2Router02(routerAddress);\n\t\tpair = IUniswapV2Pair(\n\t\t\tIUniswapV2Factory(router.factory()).createPair(\n\t\t\t\taddress(this),\n\t\t\t\trouter.WETH()\n\t\t\t)\n\t\t);\n\t}\n}\n",
  "sourcePath": "C:\\Users\\sants\\Desktop\\slimekeeper\\slimekeeper_contracts\\contracts\\Token.sol",
  "compiler": {
    "name": "solc",
    "version": "0.8.11+commit.d7f03943.Emscripten.clang"
  },
  "schemaVersion": "3.4.4",
  "updatedAt": "2022-02-21T11:19:07.734Z",
  "networkType": "ethereum",
  "devdoc": {
    "kind": "dev",
    "methods": {
      "allowance(address,address)": {
        "details": "See {IERC20-allowance}."
      },
      "approve(address,uint256)": {
        "details": "See {IERC20-approve}. Requirements: - `spender` cannot be the zero address."
      },
      "balanceOf(address)": {
        "details": "See {IERC20-balanceOf}."
      },
      "decimals()": {
        "details": "Returns the number of decimals used to get its user representation. For example, if `decimals` equals `2`, a balance of `505` tokens should be displayed to a user as `5.05` (`505 / 10 ** 2`). Tokens usually opt for a value of 18, imitating the relationship between Ether and Wei. This is the value {ERC20} uses, unless this function is overridden; NOTE: This information is only used for _display_ purposes: it in no way affects any of the arithmetic of the contract, including {IERC20-balanceOf} and {IERC20-transfer}."
      },
      "decreaseAllowance(address,uint256)": {
        "details": "Atomically decreases the allowance granted to `spender` by the caller. This is an alternative to {approve} that can be used as a mitigation for problems described in {IERC20-approve}. Emits an {Approval} event indicating the updated allowance. Requirements: - `spender` cannot be the zero address. - `spender` must have allowance for the caller of at least `subtractedValue`."
      },
      "increaseAllowance(address,uint256)": {
        "details": "Atomically increases the allowance granted to `spender` by the caller. This is an alternative to {approve} that can be used as a mitigation for problems described in {IERC20-approve}. Emits an {Approval} event indicating the updated allowance. Requirements: - `spender` cannot be the zero address."
      },
      "name()": {
        "details": "Returns the name of the token."
      },
      "symbol()": {
        "details": "Returns the symbol of the token, usually a shorter version of the name."
      },
      "totalSupply()": {
        "details": "See {IERC20-totalSupply}."
      },
      "transfer(address,uint256)": {
        "details": "See {IERC20-transfer}. Requirements: - `recipient` cannot be the zero address. - the caller must have a balance of at least `amount`."
      },
      "transferFrom(address,address,uint256)": {
        "details": "See {IERC20-transferFrom}. Emits an {Approval} event indicating the updated allowance. This is not required by the EIP. See the note at the beginning of {ERC20}. Requirements: - `sender` and `recipient` cannot be the zero address. - `sender` must have a balance of at least `amount`. - the caller must have allowance for ``sender``'s tokens of at least `amount`."
      }
    },
    "version": 1
  },
  "userdoc": {
    "kind": "user",
    "methods": {},
    "version": 1
  }
}