{
  "contractName": "Token",
  "abi": [
    {
      "inputs": [
        {
          "internalType": "address",
          "name": "gameAddress_",
          "type": "address"
        },
        {
          "internalType": "address",
          "name": "nftAddress_",
          "type": "address"
        }
      ],
      "stateMutability": "nonpayable",
      "type": "constructor"
    },
    {
      "anonymous": false,
      "inputs": [
        {
          "indexed": true,
          "internalType": "address",
          "name": "owner",
          "type": "address"
        },
        {
          "indexed": true,
          "internalType": "address",
          "name": "spender",
          "type": "address"
        },
        {
          "indexed": false,
          "internalType": "uint256",
          "name": "value",
          "type": "uint256"
        }
      ],
      "name": "Approval",
      "type": "event"
    },
    {
      "anonymous": false,
      "inputs": [
        {
          "indexed": true,
          "internalType": "address",
          "name": "adder",
          "type": "address"
        },
        {
          "indexed": true,
          "internalType": "address",
          "name": "owner",
          "type": "address"
        },
        {
          "indexed": true,
          "internalType": "uint256",
          "name": "timestamp",
          "type": "uint256"
        }
      ],
      "name": "OwnerAdded",
      "type": "event"
    },
    {
      "anonymous": false,
      "inputs": [
        {
          "indexed": true,
          "internalType": "address",
          "name": "remover",
          "type": "address"
        },
        {
          "indexed": true,
          "internalType": "address",
          "name": "removed",
          "type": "address"
        },
        {
          "indexed": true,
          "internalType": "uint256",
          "name": "timestamp",
          "type": "uint256"
        }
      ],
      "name": "OwnerRemoved",
      "type": "event"
    },
    {
      "anonymous": false,
      "inputs": [
        {
          "indexed": true,
          "internalType": "address",
          "name": "from",
          "type": "address"
        },
        {
          "indexed": true,
          "internalType": "address",
          "name": "to",
          "type": "address"
        },
        {
          "indexed": false,
          "internalType": "uint256",
          "name": "value",
          "type": "uint256"
        }
      ],
      "name": "Transfer",
      "type": "event"
    },
    {
      "inputs": [],
      "name": "MAX_TOTAL_FEE",
      "outputs": [
        {
          "internalType": "uint256",
          "name": "",
          "type": "uint256"
        }
      ],
      "stateMutability": "view",
      "type": "function",
      "constant": true
    },
    {
      "inputs": [
        {
          "internalType": "address",
          "name": "owner",
          "type": "address"
        }
      ],
      "name": "addOwner",
      "outputs": [],
      "stateMutability": "nonpayable",
      "type": "function"
    },
    {
      "inputs": [
        {
          "internalType": "address",
          "name": "owner",
          "type": "address"
        },
        {
          "internalType": "address",
          "name": "spender",
          "type": "address"
        }
      ],
      "name": "allowance",
      "outputs": [
        {
          "internalType": "uint256",
          "name": "",
          "type": "uint256"
        }
      ],
      "stateMutability": "view",
      "type": "function",
      "constant": true
    },
    {
      "inputs": [],
      "name": "antiBotEnabled",
      "outputs": [
        {
          "internalType": "bool",
          "name": "",
          "type": "bool"
        }
      ],
      "stateMutability": "view",
      "type": "function",
      "constant": true
    },
    {
      "inputs": [
        {
          "internalType": "address",
          "name": "spender",
          "type": "address"
        },
        {
          "internalType": "uint256",
          "name": "amount",
          "type": "uint256"
        }
      ],
      "name": "approve",
      "outputs": [
        {
          "internalType": "bool",
          "name": "",
          "type": "bool"
        }
      ],
      "stateMutability": "nonpayable",
      "type": "function"
    },
    {
      "inputs": [
        {
          "internalType": "address",
          "name": "account",
          "type": "address"
        }
      ],
      "name": "balanceOf",
      "outputs": [
        {
          "internalType": "uint256",
          "name": "",
          "type": "uint256"
        }
      ],
      "stateMutability": "view",
      "type": "function",
      "constant": true
    },
    {
      "inputs": [],
      "name": "buyDevelopmentTax",
      "outputs": [
        {
          "internalType": "uint256",
          "name": "",
          "type": "uint256"
        }
      ],
      "stateMutability": "view",
      "type": "function",
      "constant": true
    },
    {
      "inputs": [],
      "name": "buyLiquidityTax",
      "outputs": [
        {
          "internalType": "uint256",
          "name": "",
          "type": "uint256"
        }
      ],
      "stateMutability": "view",
      "type": "function",
      "constant": true
    },
    {
      "inputs": [],
      "name": "buyMarketingTax",
      "outputs": [
        {
          "internalType": "uint256",
          "name": "",
          "type": "uint256"
        }
      ],
      "stateMutability": "view",
      "type": "function",
      "constant": true
    },
    {
      "inputs": [],
      "name": "decimals",
      "outputs": [
        {
          "internalType": "uint8",
          "name": "",
          "type": "uint8"
        }
      ],
      "stateMutability": "view",
      "type": "function",
      "constant": true
    },
    {
      "inputs": [
        {
          "internalType": "address",
          "name": "spender",
          "type": "address"
        },
        {
          "internalType": "uint256",
          "name": "subtractedValue",
          "type": "uint256"
        }
      ],
      "name": "decreaseAllowance",
      "outputs": [
        {
          "internalType": "bool",
          "name": "",
          "type": "bool"
        }
      ],
      "stateMutability": "nonpayable",
      "type": "function"
    },
    {
      "inputs": [],
      "name": "developmentAddress",
      "outputs": [
        {
          "internalType": "address payable",
          "name": "",
          "type": "address"
        }
      ],
      "stateMutability": "view",
      "type": "function",
      "constant": true
    },
    {
      "inputs": [],
      "name": "getOwners",
      "outputs": [
        {
          "internalType": "address[]",
          "name": "",
          "type": "address[]"
        }
      ],
      "stateMutability": "view",
      "type": "function",
      "constant": true
    },
    {
      "inputs": [
        {
          "internalType": "address",
          "name": "spender",
          "type": "address"
        },
        {
          "internalType": "uint256",
          "name": "addedValue",
          "type": "uint256"
        }
      ],
      "name": "increaseAllowance",
      "outputs": [
        {
          "internalType": "bool",
          "name": "",
          "type": "bool"
        }
      ],
      "stateMutability": "nonpayable",
      "type": "function"
    },
    {
      "inputs": [],
      "name": "initialLiquidityAdded",
      "outputs": [
        {
          "internalType": "bool",
          "name": "",
          "type": "bool"
        }
      ],
      "stateMutability": "view",
      "type": "function",
      "constant": true
    },
    {
      "inputs": [
        {
          "internalType": "address",
          "name": "",
          "type": "address"
        }
      ],
      "name": "isExcludedFromTax",
      "outputs": [
        {
          "internalType": "bool",
          "name": "",
          "type": "bool"
        }
      ],
      "stateMutability": "view",
      "type": "function",
      "constant": true
    },
    {
      "inputs": [
        {
          "internalType": "address",
          "name": "owner",
          "type": "address"
        }
      ],
      "name": "isOwner",
      "outputs": [
        {
          "internalType": "bool",
          "name": "",
          "type": "bool"
        }
      ],
      "stateMutability": "view",
      "type": "function",
      "constant": true
    },
    {
      "inputs": [],
      "name": "isPaused",
      "outputs": [
        {
          "internalType": "bool",
          "name": "",
          "type": "bool"
        }
      ],
      "stateMutability": "view",
      "type": "function",
      "constant": true
    },
    {
      "inputs": [],
      "name": "liquidityAddress",
      "outputs": [
        {
          "internalType": "address payable",
          "name": "",
          "type": "address"
        }
      ],
      "stateMutability": "view",
      "type": "function",
      "constant": true
    },
    {
      "inputs": [],
      "name": "liquidityTaxEnabled",
      "outputs": [
        {
          "internalType": "bool",
          "name": "",
          "type": "bool"
        }
      ],
      "stateMutability": "view",
      "type": "function",
      "constant": true
    },
    {
      "inputs": [],
      "name": "marketingAddress",
      "outputs": [
        {
          "internalType": "address payable",
          "name": "",
          "type": "address"
        }
      ],
      "stateMutability": "view",
      "type": "function",
      "constant": true
    },
    {
      "inputs": [],
      "name": "name",
      "outputs": [
        {
          "internalType": "string",
          "name": "",
          "type": "string"
        }
      ],
      "stateMutability": "view",
      "type": "function",
      "constant": true
    },
    {
      "inputs": [
        {
          "internalType": "address",
          "name": "owner",
          "type": "address"
        }
      ],
      "name": "removeOwner",
      "outputs": [],
      "stateMutability": "nonpayable",
      "type": "function"
    },
    {
      "inputs": [],
      "name": "sellDevelopmentTax",
      "outputs": [
        {
          "internalType": "uint256",
          "name": "",
          "type": "uint256"
        }
      ],
      "stateMutability": "view",
      "type": "function",
      "constant": true
    },
    {
      "inputs": [],
      "name": "sellLiquidityTax",
      "outputs": [
        {
          "internalType": "uint256",
          "name": "",
          "type": "uint256"
        }
      ],
      "stateMutability": "view",
      "type": "function",
      "constant": true
    },
    {
      "inputs": [],
      "name": "sellMarketingTax",
      "outputs": [
        {
          "internalType": "uint256",
          "name": "",
          "type": "uint256"
        }
      ],
      "stateMutability": "view",
      "type": "function",
      "constant": true
    },
    {
      "inputs": [
        {
          "internalType": "bool",
          "name": "newPaused",
          "type": "bool"
        }
      ],
      "name": "setIsPaused",
      "outputs": [],
      "stateMutability": "nonpayable",
      "type": "function"
    },
    {
      "inputs": [],
      "name": "symbol",
      "outputs": [
        {
          "internalType": "string",
          "name": "",
          "type": "string"
        }
      ],
      "stateMutability": "view",
      "type": "function",
      "constant": true
    },
    {
      "inputs": [],
      "name": "totalSupply",
      "outputs": [
        {
          "internalType": "uint256",
          "name": "",
          "type": "uint256"
        }
      ],
      "stateMutability": "view",
      "type": "function",
      "constant": true
    },
    {
      "inputs": [
        {
          "internalType": "address",
          "name": "recipient",
          "type": "address"
        },
        {
          "internalType": "uint256",
          "name": "amount",
          "type": "uint256"
        }
      ],
      "name": "transfer",
      "outputs": [
        {
          "internalType": "bool",
          "name": "",
          "type": "bool"
        }
      ],
      "stateMutability": "nonpayable",
      "type": "function"
    },
    {
      "inputs": [
        {
          "internalType": "address",
          "name": "sender",
          "type": "address"
        },
        {
          "internalType": "address",
          "name": "recipient",
          "type": "address"
        },
        {
          "internalType": "uint256",
          "name": "amount",
          "type": "uint256"
        }
      ],
      "name": "transferFrom",
      "outputs": [
        {
          "internalType": "bool",
          "name": "",
          "type": "bool"
        }
      ],
      "stateMutability": "nonpayable",
      "type": "function"
    },
    {
      "stateMutability": "payable",
      "type": "receive",
      "payable": true
    },
    {
      "inputs": [
        {
          "internalType": "uint256",
          "name": "amountToken",
          "type": "uint256"
        }
      ],
      "name": "addLiquidity",
      "outputs": [],
      "stateMutability": "payable",
      "type": "function",
      "payable": true
    },
    {
      "inputs": [
        {
          "internalType": "uint256",
          "name": "sellDevelopmentTax_",
          "type": "uint256"
        },
        {
          "internalType": "uint256",
          "name": "sellMarketingTax_",
          "type": "uint256"
        },
        {
          "internalType": "uint256",
          "name": "sellLiquidityTax_",
          "type": "uint256"
        }
      ],
      "name": "setSellTaxes",
      "outputs": [],
      "stateMutability": "nonpayable",
      "type": "function"
    },
    {
      "inputs": [
        {
          "internalType": "uint256",
          "name": "buyDevelopmentTax_",
          "type": "uint256"
        },
        {
          "internalType": "uint256",
          "name": "buyMarketingTax_",
          "type": "uint256"
        },
        {
          "internalType": "uint256",
          "name": "buyLiquidityTax_",
          "type": "uint256"
        }
      ],
      "name": "setBuyTaxes",
      "outputs": [],
      "stateMutability": "nonpayable",
      "type": "function"
    },
    {
      "inputs": [
        {
          "internalType": "address",
          "name": "developmentAddress_",
          "type": "address"
        },
        {
          "internalType": "address",
          "name": "marketingAddress_",
          "type": "address"
        },
        {
          "internalType": "address",
          "name": "liquidityAddress_",
          "type": "address"
        }
      ],
      "name": "setTaxAddresses",
      "outputs": [],
      "stateMutability": "nonpayable",
      "type": "function"
    },
    {
      "inputs": [
        {
          "internalType": "address",
          "name": "address_",
          "type": "address"
        }
      ],
      "name": "removeBlacklist",
      "outputs": [],
      "stateMutability": "nonpayable",
      "type": "function"
    },
    {
      "inputs": [
        {
          "internalType": "bool",
          "name": "enabled",
          "type": "bool"
        }
      ],
      "name": "setLiquidityTaxEnabled",
      "outputs": [],
      "stateMutability": "nonpayable",
      "type": "function"
    },
    {
      "inputs": [
        {
          "internalType": "address",
          "name": "address_",
          "type": "address"
        }
      ],
      "name": "addTaxExcludedAddress",
      "outputs": [],
      "stateMutability": "nonpayable",
      "type": "function"
    },
    {
      "inputs": [
        {
          "internalType": "address",
          "name": "address_",
          "type": "address"
        }
      ],
      "name": "removeTaxExcludedAddress",
      "outputs": [],
      "stateMutability": "nonpayable",
      "type": "function"
    },
    {
      "inputs": [
        {
          "internalType": "address",
          "name": "routerAddress",
          "type": "address"
        }
      ],
      "name": "setRouter",
      "outputs": [],
      "stateMutability": "nonpayable",
      "type": "function"
    }
  ],
  "bytecode": "0x60a06040526007805460ff199081169091556019608052610e106008556002600a818155600d819055600e8190556005600f5560108054909316600190811790935560115560046013819055601455601581905560168190556017556018553480156200006b57600080fd5b5060405162002d7238038062002d728339810160408190526200008e9162000400565b604051806040016040528060058152602001642a37b5b2b760d91b815250604051806040016040528060038152602001622a25a760e91b8152508160039080519060200190620000e09291906200033d565b508051620000f69060049060208401906200033d565b50505033620001575760405162461bcd60e51b815260206004820152602260248201527f43616e277420696e697469616c697a652077697468207a65726f206164647265604482015261737360f01b60648201526084015b60405180910390fd5b336000818152600560205260408120805460ff191660019081179091556006805491820181559091527ff652222313e28459528d920b65115c16c04f3efc82aaedc97be59f3f377c0d3f0180546001600160a01b031990811683179091556019805490911682179055620001ef90620001ce601290565b620001db90600a6200054d565b620001e990610d0562000565565b62000258565b620001fc826012620001ce565b62000209816012620001ce565b6001600160a01b039182166000908152601c60205260408082208054600160ff1991821681179092559390941682528082208054841685179055308252902080549091169091179055620005df565b6001600160a01b038216620002b05760405162461bcd60e51b815260206004820152601f60248201527f45524332303a206d696e7420746f20746865207a65726f20616464726573730060448201526064016200014e565b8060026000828254620002c4919062000587565b90915550506001600160a01b03821660009081526020819052604081208054839290620002f390849062000587565b90915550506040518181526001600160a01b038316906000907fddf252ad1be2c89b69c2b068fc378daa952ba7f163c4a11628f55a4df523b3ef9060200160405180910390a35050565b8280546200034b90620005a2565b90600052602060002090601f0160209004810192826200036f5760008555620003ba565b82601f106200038a57805160ff1916838001178555620003ba565b82800160010185558215620003ba579182015b82811115620003ba5782518255916020019190600101906200039d565b50620003c8929150620003cc565b5090565b5b80821115620003c85760008155600101620003cd565b80516001600160a01b0381168114620003fb57600080fd5b919050565b600080604083850312156200041457600080fd5b6200041f83620003e3565b91506200042f60208401620003e3565b90509250929050565b634e487b7160e01b600052601160045260246000fd5b600181815b808511156200048f57816000190482111562000473576200047362000438565b808516156200048157918102915b93841c939080029062000453565b509250929050565b600082620004a85750600162000547565b81620004b75750600062000547565b8160018114620004d05760028114620004db57620004fb565b600191505062000547565b60ff841115620004ef57620004ef62000438565b50506001821b62000547565b5060208310610133831016604e8410600b841016171562000520575081810a62000547565b6200052c83836200044e565b806000190482111562000543576200054362000438565b0290505b92915050565b60006200055e60ff84168362000497565b9392505050565b600081600019048311821515161562000582576200058262000438565b500290565b600082198211156200059d576200059d62000438565b500190565b600181811c90821680620005b757607f821691505b60208210811415620005d957634e487b7160e01b600052602260045260246000fd5b50919050565b6080516127696200060960003960008181610534015281816108650152610b3a01526127696000f3fe60806040526004361061023f5760003560e01c806373bd699a1161012e578063ad8052bb116100ab578063cdca70831161006f578063cdca7083146106d9578063d8c6404b146106f9578063dd62ed3e14610718578063e96db1ef1461075e578063eb91e6511461077457600080fd5b8063ad8052bb14610639578063b187bd261461064f578063c0d7865514610669578063cb4ca63114610689578063cc9c49a6146106b957600080fd5b8063a0e67e2b116100f2578063a0e67e2b146105a1578063a2cbba28146105c3578063a457c2d7146105d9578063a5ece941146105f9578063a9059cbb1461061957600080fd5b806373bd699a146105035780637f635cc014610522578063887d63171461055657806395d89b4114610576578063993df94e1461058b57600080fd5b80632f54bf6e116101bc57806351c6590a1161018057806351c6590a14610464578063638b1b14146104775780636ab91206146104975780637065cb48146104ad57806370a08231146104cd57600080fd5b80632f54bf6e146103a1578063313ce567146103da5780633221c93f146103f6578063330124111461042e578063395093511461044457600080fd5b80631870517a116102035780631870517a146103075780631a9431a91461032757806323b872dd14610347578063240976bf146103675780632c505fb31461038757600080fd5b806306fdde031461024b5780630873321414610276578063095ea7b314610298578063173825d9146102c857806318160ddd146102e857600080fd5b3661024657005b600080fd5b34801561025757600080fd5b50610260610794565b60405161026d91906121be565b60405180910390f35b34801561028257600080fd5b50610296610291366004612213565b610826565b005b3480156102a457600080fd5b506102b86102b3366004612257565b6108c5565b604051901515815260200161026d565b3480156102d457600080fd5b506102966102e3366004612283565b6108dc565b3480156102f457600080fd5b506002545b60405190815260200161026d565b34801561031357600080fd5b50610296610322366004612213565b610b04565b34801561033357600080fd5b506102966103423660046122a7565b610b9a565b34801561035357600080fd5b506102b86103623660046122c9565b610be1565b34801561037357600080fd5b506102966103823660046122a7565b610c8b565b34801561039357600080fd5b506010546102b89060ff1681565b3480156103ad57600080fd5b506102b86103bc366004612283565b6001600160a01b031660009081526005602052604090205460ff1690565b3480156103e657600080fd5b506040516012815260200161026d565b34801561040257600080fd5b50601b54610416906001600160a01b031681565b6040516001600160a01b03909116815260200161026d565b34801561043a57600080fd5b506102f960175481565b34801561045057600080fd5b506102b861045f366004612257565b610cd2565b61029661047236600461230a565b610d0e565b34801561048357600080fd5b50601954610416906001600160a01b031681565b3480156104a357600080fd5b506102f960155481565b3480156104b957600080fd5b506102966104c8366004612283565b610f6d565b3480156104d957600080fd5b506102f96104e8366004612283565b6001600160a01b031660009081526020819052604090205490565b34801561050f57600080fd5b506010546102b890610100900460ff1681565b34801561052e57600080fd5b506102f97f000000000000000000000000000000000000000000000000000000000000000081565b34801561056257600080fd5b50610296610571366004612323565b611032565b34801561058257600080fd5b50610260611137565b34801561059757600080fd5b506102f960165481565b3480156105ad57600080fd5b506105b6611146565b60405161026d91906123b2565b3480156105cf57600080fd5b506102f960185481565b3480156105e557600080fd5b506102b86105f4366004612257565b6111a7565b34801561060557600080fd5b50601a54610416906001600160a01b031681565b34801561062557600080fd5b506102b8610634366004612257565b611240565b34801561064557600080fd5b506102f960135481565b34801561065b57600080fd5b506007546102b89060ff1681565b34801561067557600080fd5b50610296610684366004612283565b61124d565b34801561069557600080fd5b506102b86106a4366004612283565b601c6020526000908152604090205460ff1681565b3480156106c557600080fd5b506102966106d4366004612283565b6112a3565b3480156106e557600080fd5b506102966106f4366004612283565b6112f8565b34801561070557600080fd5b506007546102b890610100900460ff1681565b34801561072457600080fd5b506102f96107333660046123c5565b6001600160a01b03918216600090815260016020908152604080832093909416825291909152205490565b34801561076a57600080fd5b506102f960145481565b34801561078057600080fd5b5061029661078f366004612283565b611350565b6060600380546107a3906123fe565b80601f01602080910402602001604051908101604052809291908181526020018280546107cf906123fe565b801561081c5780601f106107f15761010080835404028352916020019161081c565b820191906000526020600020905b8154815290600101906020018083116107ff57829003601f168201915b5050505050905090565b3360009081526005602052604090205460ff1615156001146108635760405162461bcd60e51b815260040161085a90612439565b60405180910390fd5b7f00000000000000000000000000000000000000000000000000000000000000008161088f848661247f565b610899919061247f565b11156108b75760405162461bcd60e51b815260040161085a90612497565b506013829055601455601555565b60006108d23384846113a5565b5060015b92915050565b3360009081526005602052604090205460ff1615156001146109105760405162461bcd60e51b815260040161085a90612439565b6001600160a01b03811660009081526005602052604090205460ff16151560011461097d5760405162461bcd60e51b815260206004820152601760248201527f41646472657373206973206e6f7420616e206f776e6572000000000000000000604482015260640161085a565b60005b600654811015610b0057816001600160a01b0316600682815481106109a7576109a76124df565b6000918252602090912001546001600160a01b03161415610aee576001600160a01b0382166000908152600560205260409020805460ff19169055805b6006546109f3906001906124f5565b811015610a7e576006610a0783600161247f565b81548110610a1757610a176124df565b600091825260209091200154600680546001600160a01b039092169184908110610a4357610a436124df565b600091825260209091200180546001600160a01b0319166001600160a01b039290921691909117905580610a768161250c565b9150506109e4565b506006805480610a9057610a90612527565b600082815260208120820160001990810180546001600160a01b031916905590910190915560405142916001600160a01b0385169133917fecc5dd9888b87e7ed252d66b9c086ab819de6c8f8b96c8e5458e105bacfbb02791a45050565b80610af88161250c565b915050610980565b5050565b3360009081526005602052604090205460ff161515600114610b385760405162461bcd60e51b815260040161085a90612439565b7f000000000000000000000000000000000000000000000000000000000000000081610b64848661247f565b610b6e919061247f565b1115610b8c5760405162461bcd60e51b815260040161085a90612497565b601692909255601755601855565b3360009081526005602052604090205460ff161515600114610bce5760405162461bcd60e51b815260040161085a90612439565b6010805460ff1916911515919091179055565b6000610bee8484846114c9565b6001600160a01b038416600090815260016020908152604080832033845290915290205482811015610c735760405162461bcd60e51b815260206004820152602860248201527f45524332303a207472616e7366657220616d6f756e74206578636565647320616044820152676c6c6f77616e636560c01b606482015260840161085a565b610c8085338584036113a5565b506001949350505050565b3360009081526005602052604090205460ff161515600114610cbf5760405162461bcd60e51b815260040161085a90612439565b6007805460ff1916911515919091179055565b3360008181526001602090815260408083206001600160a01b038716845290915281205490916108d2918590610d0990869061247f565b6113a5565b3360009081526005602052604090205460ff161515600114610d425760405162461bcd60e51b815260040161085a90612439565b601d546001600160a01b031680610d905760405162461bcd60e51b8152602060048201526012602482015271149bdd5d195c881b9bdd081cd95d081e595d60721b604482015260640161085a565b610d9c6012600a612621565b610da69083612630565b33600090815260208190526040902054909250821115610e1a5760405162461bcd60e51b815260206004820152602960248201527f53656e64657220646f6573206e6f74206861766520656e6f75676820746f6b656044820152686e2062616c616e636560b81b606482015260840161085a565b336000908152600160209081526040808320308452909152902054821115610e7b5760405162461bcd60e51b81526020600482015260146024820152734e6f7420656e6f75676820616c6c6f77616e636560601b604482015260640161085a565b610e8633308461187c565b610e9081836108c5565b50601d546019546001600160a01b039182169163f305d719913491309187918291859116610ec042610e1061247f565b6040518863ffffffff1660e01b8152600401610ee19695949392919061264f565b60606040518083038185885af1158015610eff573d6000803e3d6000fd5b50505050506040513d601f19601f82011682018060405250810190610f24919061268a565b505060075462010000900460ff169050610b00576007805462ffff00191662010100179055600854610f56904261247f565b600955600a54610f66904361247f565b600b555050565b3360009081526005602052604090205460ff161515600114610fa15760405162461bcd60e51b815260040161085a90612439565b6001600160a01b038116600081815260056020526040808220805460ff1916600190811790915560068054918201815583527ff652222313e28459528d920b65115c16c04f3efc82aaedc97be59f3f377c0d3f0180546001600160a01b031916841790555142929133917fa0b18fca933618876351ba2ef88bf4505c184d3e55064bec0d7fe236dd706d849190a450565b3360009081526005602052604090205460ff1615156001146110665760405162461bcd60e51b815260040161085a90612439565b6001600160a01b038316158061108357506001600160a01b038216155b8061109557506001600160a01b038116155b156110f85760405162461bcd60e51b815260206004820152602d60248201527f4e6f6e65206f6620746865206164647265737365732063616e2774206265207a60448201526c65726f2061646472657373657360981b606482015260840161085a565b601980546001600160a01b039485166001600160a01b031991821617909155601a805493851693821693909317909255601b8054919093169116179055565b6060600480546107a3906123fe565b6060600680548060200260200160405190810160405280929190818152602001828054801561081c57602002820191906000526020600020905b81546001600160a01b03168152600190910190602001808311611180575050505050905090565b3360009081526001602090815260408083206001600160a01b0386168452909152812054828110156112295760405162461bcd60e51b815260206004820152602560248201527f45524332303a2064656372656173656420616c6c6f77616e63652062656c6f77604482015264207a65726f60d81b606482015260840161085a565b61123633858584036113a5565b5060019392505050565b60006108d23384846114c9565b3360009081526005602052604090205460ff1615156001146112815760405162461bcd60e51b815260040161085a90612439565b601d80546001600160a01b0319166001600160a01b0392909216919091179055565b3360009081526005602052604090205460ff1615156001146112d75760405162461bcd60e51b815260040161085a90612439565b6001600160a01b03166000908152601c60205260409020805460ff19169055565b3360009081526005602052604090205460ff16151560011461132c5760405162461bcd60e51b815260040161085a90612439565b6001600160a01b03166000908152601c60205260409020805460ff19166001179055565b3360009081526005602052604090205460ff1615156001146113845760405162461bcd60e51b815260040161085a90612439565b6001600160a01b03166000908152600c60205260409020805460ff19169055565b6001600160a01b0383166114075760405162461bcd60e51b8152602060048201526024808201527f45524332303a20617070726f76652066726f6d20746865207a65726f206164646044820152637265737360e01b606482015260840161085a565b6001600160a01b0382166114685760405162461bcd60e51b815260206004820152602260248201527f45524332303a20617070726f766520746f20746865207a65726f206164647265604482015261737360f01b606482015260840161085a565b6001600160a01b0383811660008181526001602090815260408083209487168084529482529182902085905590518481527f8c5be1e5ebec7d5bd14f71427d1e84f3dd0314c0f7b2291e5b200ac8c7c3b925910160405180910390a3505050565b3360009081526005602052604090205460ff166115255760075460ff16156115255760405162461bcd60e51b815260206004820152600f60248201526e10dbdb9d1c9858dd081c185d5cd959608a1b604482015260640161085a565b601054610100900460ff161580156115475750601d546001600160a01b031633145b15611576576010805461ff0019166101001790556115668333836113a5565b61157183838361187c565b505050565b601354601454601554600754610100900460ff16156115e557600b5443116115bc576001600160a01b0386166000908152600c60205260409020805460ff191660011790555b60095442116115d957600d549250600e549150600f5490506115e5565b6007805461ff00191690555b6001600160a01b0386166000908152600c602052604090205460ff1615801561162757506001600160a01b0385166000908152600c602052604090205460ff16155b6116735760405162461bcd60e51b815260206004820152601f60248201527f53656e646572206f7220726563697069656e7420626c61636b6c697374656400604482015260640161085a565b6019546001906000906001600160a01b0316158061169a5750601a546001600160a01b0316155b806116ae5750601b546001600160a01b0316155b90506000883b1580156116c05750873b155b6001600160a01b038a166000908152601c602052604090205490915060ff168061170257506001600160a01b0388166000908152601c602052604090205460ff165b8061170a5750815b806117125750805b1561171c57600092505b6000831561185c576000611812601d60009054906101000a90046001600160a01b03166001600160a01b031663c45a01556040518163ffffffff1660e01b8152600401602060405180830381865afa15801561177c573d6000803e3d6000fd5b505050506040513d601f19601f820116820180604052508101906117a091906126b8565b601d54604080516315ab88c960e31b8152905130926001600160a01b03169163ad5c46489160048083019260209291908290030181865afa1580156117e9573d6000803e3d6000fd5b505050506040513d601f19601f8201168201806040525081019061180d91906126b8565b611a4c565b9050806001600160a01b03168a6001600160a01b031614156118435761183c8b828b8b8b8b611b25565b915061185a565b6118578b828b601654601754601854611b25565b91505b505b6118708a8a61186b848c6124f5565b61187c565b50505050505050505050565b6001600160a01b0383166118e05760405162461bcd60e51b815260206004820152602560248201527f45524332303a207472616e736665722066726f6d20746865207a65726f206164604482015264647265737360d81b606482015260840161085a565b6001600160a01b0382166119425760405162461bcd60e51b815260206004820152602360248201527f45524332303a207472616e7366657220746f20746865207a65726f206164647260448201526265737360e81b606482015260840161085a565b6001600160a01b038316600090815260208190526040902054818110156119ba5760405162461bcd60e51b815260206004820152602660248201527f45524332303a207472616e7366657220616d6f756e7420657863656564732062604482015265616c616e636560d01b606482015260840161085a565b6001600160a01b038085166000908152602081905260408082208585039055918516815290812080548492906119f190849061247f565b92505081905550826001600160a01b0316846001600160a01b03167fddf252ad1be2c89b69c2b068fc378daa952ba7f163c4a11628f55a4df523b3ef84604051611a3d91815260200190565b60405180910390a35b50505050565b6000806000611a5b8585611cb3565b6040516bffffffffffffffffffffffff19606084811b8216602084015283901b1660348201529193509150869060480160405160208183030381529060405280519060200120604051602001611b039291906001600160f81b0319815260609290921b6bffffffffffffffffffffffff1916600183015260158201527f96e8ac4277198ff8b6f785478aa9a39f403cb768dd02cbee326c3e7da348845f603582015260550190565b60408051601f1981840301815291905280516020909101209695505050505050565b6000806064611b34858761247f565b611b3e9088612630565b611b4891906126d5565b60105490915060009060ff1615611b72576064611b658589612630565b611b6f91906126d5565b90505b6000611b7e828461247f565b9050611b8b8a308361187c565b306000908152602081905260409020546001600160a01b038b8116908b1614801590611bcf5750611bbe6012600a612621565b601154611bcb9190612630565b8110155b15611ca557600086611be1898b61247f565b611beb919061247f565b611bf6836064612630565b611c0091906126d5565b9050600061271082611c128c86612630565b611c1c9190612630565b611c2691906126d5565b9050600061271083611c388c87612630565b611c429190612630565b611c4c91906126d5565b90506000612710611c5d8587612630565b611c6791906126d5565b9050611c7d611c76838561247f565b8d8d611dab565b60105460ff168015611c92575060125460ff16155b15611ca057611ca081611f40565b505050505b509998505050505050505050565b600080826001600160a01b0316846001600160a01b03161415611d265760405162461bcd60e51b815260206004820152602560248201527f556e697377617056324c6962726172793a204944454e544943414c5f41444452604482015264455353455360d81b606482015260840161085a565b826001600160a01b0316846001600160a01b031610611d46578284611d49565b83835b90925090506001600160a01b038216611da45760405162461bcd60e51b815260206004820152601e60248201527f556e697377617056324c6962726172793a205a45524f5f414444524553530000604482015260640161085a565b9250929050565b6000611db684611fa2565b90508015611a46576000611dca838561247f565b611dd5836064612630565b611ddf91906126d5565b9050600061271082611df18786612630565b611dfb9190612630565b611e0591906126d5565b9050600061271083611e178787612630565b611e219190612630565b611e2b91906126d5565b6019546040519192506000916001600160a01b039091169084908381818185875af1925050503d8060008114611e7d576040519150601f19603f3d011682016040523d82523d6000602084013e611e82565b606091505b5050601a546040519192506000916001600160a01b039091169084908381818185875af1925050503d8060008114611ed6576040519150601f19603f3d011682016040523d82523d6000602084013e611edb565b606091505b50509050818015611ee95750805b611f355760405162461bcd60e51b815260206004820152601d60248201527f436f756c646e2774207472616e736665722077616c6c65742066656573000000604482015260640161085a565b505050505050505050565b6012805460ff191660011790556000611f5a6002836126d5565b90506000611f6882846124f5565b9050476000611f7684611fa2565b90506000611f8483836124f5565b9050611f90848261210c565b50506012805460ff1916905550505050565b604080516002808252606082018352600092839291906020830190803683370190505090503081600081518110611fdb57611fdb6124df565b6001600160a01b03928316602091820292909201810191909152601d54604080516315ab88c960e31b81529051919093169263ad5c46489260048083019391928290030181865afa158015612034573d6000803e3d6000fd5b505050506040513d601f19601f8201168201806040525081019061205891906126b8565b8160018151811061206b5761206b6124df565b6001600160a01b039283166020918202929092010152601d5461209191309116856113a5565b601d546001600160a01b031663791ac94784600084306120b242603c61247f565b6040518663ffffffff1660e01b81526004016120d29594939291906126f7565b600060405180830381600087803b1580156120ec57600080fd5b505af1158015612100573d6000803e3d6000fd5b50479695505050505050565b601d546121249030906001600160a01b0316846113a5565b601d546019546001600160a01b039182169163f305d7199184913091879160009182911661215342603c61247f565b6040518863ffffffff1660e01b81526004016121749695949392919061264f565b60606040518083038185885af1158015612192573d6000803e3d6000fd5b50505050506040513d601f19601f820116820180604052508101906121b7919061268a565b5050505050565b600060208083528351808285015260005b818110156121eb578581018301518582016040015282016121cf565b818111156121fd576000604083870101525b50601f01601f1916929092016040019392505050565b60008060006060848603121561222857600080fd5b505081359360208301359350604090920135919050565b6001600160a01b038116811461225457600080fd5b50565b6000806040838503121561226a57600080fd5b82356122758161223f565b946020939093013593505050565b60006020828403121561229557600080fd5b81356122a08161223f565b9392505050565b6000602082840312156122b957600080fd5b813580151581146122a057600080fd5b6000806000606084860312156122de57600080fd5b83356122e98161223f565b925060208401356122f98161223f565b929592945050506040919091013590565b60006020828403121561231c57600080fd5b5035919050565b60008060006060848603121561233857600080fd5b83356123438161223f565b925060208401356123538161223f565b915060408401356123638161223f565b809150509250925092565b600081518084526020808501945080840160005b838110156123a75781516001600160a01b031687529582019590820190600101612382565b509495945050505050565b6020815260006122a0602083018461236e565b600080604083850312156123d857600080fd5b82356123e38161223f565b915060208301356123f38161223f565b809150509250929050565b600181811c9082168061241257607f821691505b6020821081141561243357634e487b7160e01b600052602260045260246000fd5b50919050565b60208082526016908201527521b0b63632b91034b9903737ba1030b71037bbb732b960511b604082015260600190565b634e487b7160e01b600052601160045260246000fd5b6000821982111561249257612492612469565b500190565b60208082526028908201527f546f74616c207461786573206172652061626f76652074686520616c6c6f77656040820152671908185b5bdd5b9d60c21b606082015260800190565b634e487b7160e01b600052603260045260246000fd5b60008282101561250757612507612469565b500390565b600060001982141561252057612520612469565b5060010190565b634e487b7160e01b600052603160045260246000fd5b600181815b8085111561257857816000190482111561255e5761255e612469565b8085161561256b57918102915b93841c9390800290612542565b509250929050565b60008261258f575060016108d6565b8161259c575060006108d6565b81600181146125b257600281146125bc576125d8565b60019150506108d6565b60ff8411156125cd576125cd612469565b50506001821b6108d6565b5060208310610133831016604e8410600b84101617156125fb575081810a6108d6565b612605838361253d565b806000190482111561261957612619612469565b029392505050565b60006122a060ff841683612580565b600081600019048311821515161561264a5761264a612469565b500290565b6001600160a01b039687168152602081019590955260408501939093526060840191909152909216608082015260a081019190915260c00190565b60008060006060848603121561269f57600080fd5b8351925060208401519150604084015190509250925092565b6000602082840312156126ca57600080fd5b81516122a08161223f565b6000826126f257634e487b7160e01b600052601260045260246000fd5b500490565b85815284602082015260a06040820152600061271660a083018661236e565b6001600160a01b039490941660608301525060800152939250505056fea26469706673582212200adcc289a4a8354e1e590500b8c5e290c07b3fda4c913340ffad6aa210179c7c64736f6c634300080b0033",
  "immutableReferences": {
    "5208": [
      {
        "length": 32,
        "start": 1332
      },
      {
        "length": 32,
        "start": 2149
      },
      {
        "length": 32,
        "start": 2874
      }
    ]
  },
  "source": "// SPDX-License-Identifier: MIT\n\npragma solidity >=0.4.22 <0.9.0;\n\nimport \"./PauseOwners.sol\";\nimport \"@openzeppelin/contracts/token/ERC20/ERC20.sol\";\nimport \"@uniswap/v2-periphery/contracts/interfaces/IUniswapV2Router02.sol\";\nimport \"@uniswap/v2-core/contracts/interfaces/IUniswapV2Pair.sol\";\nimport \"@uniswap/v2-core/contracts/interfaces/IUniswapV2Factory.sol\";\nimport \"@uniswap/v2-periphery/contracts/libraries/UniswapV2Library.sol\";\nimport \"@openzeppelin/contracts/utils/Address.sol\";\n\ncontract Token is ERC20, PauseOwners {\n\tuint256 public immutable MAX_TOTAL_FEE = 25; // We can never surpass this total fee\n\n\tbool public antiBotEnabled;\n\tbool private antiBotRanOnce; // We can only run antibot once, when initial liquidity is added\n\tuint256 private antiBotTaxesTimeInSeconds = 3600;\n\tuint256 private antiBotTaxesEndTime;\n\tuint256 private antiBotBlockTime = 2;\n\tuint256 private antiBotBlockEnd;\n\n\tmapping(address => bool) antiBotBlacklist;\n\n\tuint256 private antiBotSellDevelopmentTax = 10;\n\tuint256 private antiBotSellMarketingTax = 10;\n\tuint256 private antiBotSellLiquidityTax = 5;\n\n\tbool public liquidityTaxEnabled = true;\n\tbool public initialLiquidityAdded;\n\tuint256 private minBalanceToTransfer = 10;\n\n\tbool private inSwapAndLiquify;\n\n\tuint256 public sellDevelopmentTax = 4;\n\tuint256 public sellMarketingTax = 4;\n\tuint256 public sellLiquidityTax = 2;\n\n\tuint256 public buyDevelopmentTax = 2;\n\tuint256 public buyMarketingTax = 2;\n\tuint256 public buyLiquidityTax = 1;\n\n\taddress payable public developmentAddress;\n\taddress payable public marketingAddress;\n\taddress payable public liquidityAddress;\n\n\tmapping(address => bool) public isExcludedFromTax;\n\n\tIUniswapV2Router02 private router;\n\n\tconstructor(address gameAddress_, address nftAddress_)\n\t\tERC20(\"Token\", \"TKN\")\n\t{\n\t\tdevelopmentAddress = payable(msg.sender);\n\t\t_mint(developmentAddress, 3333 * 10**decimals()); // For adding liquidity and team tokens\n\t\t_mint(gameAddress_, 3333 * 10**decimals()); // Used as game rewards\n\t\t_mint(nftAddress_, 3333 * 10**decimals()); // Used as NFT rewards\n\t\tisExcludedFromTax[gameAddress_] = true;\n\t\tisExcludedFromTax[nftAddress_] = true;\n\t\tisExcludedFromTax[address(this)] = true;\n\t}\n\n\tmodifier lockSwapAndLiquify() {\n\t\tinSwapAndLiquify = true;\n\t\t_;\n\t\tinSwapAndLiquify = false;\n\t}\n\n\treceive() external payable {} // Must be defined so the contract is able to receive ETH from swaps\n\n\tfunction addLiquidity(uint256 amountToken) external payable onlyOwners {\n\t\t// Add initial liquidity and enabled the \"anti-bot\" feature\n\t\taddress routerAddress = address(router);\n\t\trequire(routerAddress != address(0), \"Router not set yet\");\n\t\tamountToken *= (10**decimals());\n\t\trequire(\n\t\t\tbalanceOf(msg.sender) >= amountToken,\n\t\t\t\"Sender does not have enough token balance\"\n\t\t);\n\t\trequire(\n\t\t\tallowance(msg.sender, address(this)) >= amountToken,\n\t\t\t\"Not enough allowance\"\n\t\t);\n\t\tsuper._transfer(msg.sender, address(this), amountToken);\n\t\tapprove(routerAddress, amountToken);\n\t\t// _approve(address(router), msg.sender, amountToken);\n\t\trouter.addLiquidityETH{ value: msg.value }(\n\t\t\taddress(this),\n\t\t\tamountToken,\n\t\t\tamountToken,\n\t\t\tmsg.value,\n\t\t\tdevelopmentAddress,\n\t\t\tblock.timestamp + 1 hours\n\t\t);\n\t\tif (!antiBotRanOnce) {\n\t\t\tantiBotEnabled = true;\n\t\t\tantiBotRanOnce = true;\n\t\t\tantiBotTaxesEndTime = block.timestamp + antiBotTaxesTimeInSeconds;\n\t\t\tantiBotBlockEnd = block.number + antiBotBlockTime;\n\t\t}\n\t}\n\n\tfunction _transfer(\n\t\taddress sender,\n\t\taddress recipient,\n\t\tuint256 amount\n\t) internal virtual override checkPaused {\n\t\t// Initial liquidity transfer\n\t\tif (!initialLiquidityAdded && msg.sender == address(router)) {\n\t\t\tinitialLiquidityAdded = true;\n\t\t\t_approve(sender, msg.sender, amount);\n\t\t\tsuper._transfer(sender, recipient, amount);\n\t\t\treturn;\n\t\t}\n\n\t\t// Temporary local variables for setting antibot taxes\n\t\tuint256 sellDevelopmentTax_ = sellDevelopmentTax;\n\t\tuint256 sellMarketingTax_ = sellMarketingTax;\n\t\tuint256 sellLiquidityTax_ = sellLiquidityTax;\n\n\t\tif (antiBotEnabled) {\n\t\t\tif (block.number <= antiBotBlockEnd) {\n\t\t\t\tantiBotBlacklist[sender] = true;\n\t\t\t}\n\t\t\tif (block.timestamp <= antiBotTaxesEndTime) {\n\t\t\t\tsellDevelopmentTax_ = antiBotSellDevelopmentTax;\n\t\t\t\tsellMarketingTax_ = antiBotSellMarketingTax;\n\t\t\t\tsellLiquidityTax_ = antiBotSellLiquidityTax;\n\t\t\t} else {\n\t\t\t\tantiBotEnabled = false;\n\t\t\t}\n\t\t}\n\n\t\trequire(\n\t\t\t!antiBotBlacklist[sender] && !antiBotBlacklist[recipient],\n\t\t\t\"Sender or recipient blacklisted\"\n\t\t);\n\n\t\tbool takeFee = true;\n\t\tbool anyTaxAddressNotSet = developmentAddress == address(0) ||\n\t\t\tmarketingAddress == address(0) ||\n\t\t\tliquidityAddress == address(0);\n\t\tbool isWalletToWalletTransfer = !Address.isContract(sender) &&\n\t\t\t!Address.isContract(recipient);\n\n\t\tif (\n\t\t\tisExcludedFromTax[sender] ||\n\t\t\tisExcludedFromTax[recipient] ||\n\t\t\tanyTaxAddressNotSet ||\n\t\t\tisWalletToWalletTransfer\n\t\t) {\n\t\t\ttakeFee = false;\n\t\t}\n\n\t\tuint256 totalFeeInTokens = 0;\n\t\tif (takeFee) {\n\t\t\taddress pair = UniswapV2Library.pairFor(\n\t\t\t\trouter.factory(),\n\t\t\t\taddress(this),\n\t\t\t\trouter.WETH()\n\t\t\t);\n\t\t\tif (recipient == pair) {\n\t\t\t\t// Selling\n\t\t\t\ttotalFeeInTokens = takeFees(\n\t\t\t\t\tsender,\n\t\t\t\t\tpair,\n\t\t\t\t\tamount,\n\t\t\t\t\tsellDevelopmentTax_,\n\t\t\t\t\tsellMarketingTax_,\n\t\t\t\t\tsellLiquidityTax_\n\t\t\t\t);\n\t\t\t} else {\n\t\t\t\t// Buying\n\t\t\t\ttotalFeeInTokens = takeFees(\n\t\t\t\t\tsender,\n\t\t\t\t\tpair,\n\t\t\t\t\tamount,\n\t\t\t\t\tbuyDevelopmentTax,\n\t\t\t\t\tbuyMarketingTax,\n\t\t\t\t\tbuyLiquidityTax\n\t\t\t\t);\n\t\t\t}\n\t\t}\n\t\tsuper._transfer(sender, recipient, amount - totalFeeInTokens);\n\t}\n\n\tfunction takeFees(\n\t\taddress sender,\n\t\taddress pair,\n\t\tuint256 amountToken,\n\t\tuint256 developmentFee,\n\t\tuint256 marketingFee,\n\t\tuint256 liquidityFee\n\t) private returns (uint256) {\n\t\tuint256 walletFeeInTokens = (amountToken *\n\t\t\t(developmentFee + marketingFee)) / 100;\n\t\tuint256 liquidityFeeInTokens = 0;\n\t\tif (liquidityTaxEnabled) {\n\t\t\tliquidityFeeInTokens = (amountToken * liquidityFee) / 100;\n\t\t}\n\t\tuint256 totalFeeInTokens = walletFeeInTokens + liquidityFeeInTokens;\n\n\t\tsuper._transfer(sender, address(this), totalFeeInTokens);\n\n\t\tuint256 tokenBalance = balanceOf(address(this));\n\t\tif (\n\t\t\tsender != pair &&\n\t\t\ttokenBalance >= minBalanceToTransfer * (10**decimals())\n\t\t) {\n\t\t\tuint256 proportion = (tokenBalance * 100) /\n\t\t\t\t(developmentFee + marketingFee + liquidityFee);\n\t\t\tuint256 devCut = (tokenBalance * developmentFee * proportion) /\n\t\t\t\t10000;\n\t\t\tuint256 marCut = (tokenBalance * marketingFee * proportion) / 10000;\n\t\t\tuint256 liqCut = (tokenBalance * proportion) / 10000;\n\n\t\t\tswapAndTransferWalletFees(\n\t\t\t\tdevCut + marCut,\n\t\t\t\tdevelopmentFee,\n\t\t\t\tmarketingFee\n\t\t\t);\n\n\t\t\tif (liquidityTaxEnabled && !inSwapAndLiquify) {\n\t\t\t\tswapAndLiquify(liqCut);\n\t\t\t}\n\t\t}\n\n\t\treturn totalFeeInTokens;\n\t}\n\n\tfunction swapAndTransferWalletFees(\n\t\tuint256 amountToken,\n\t\tuint256 developmentFee,\n\t\tuint256 marketingFee\n\t) private {\n\t\tuint256 balance = swapTokensToETH(amountToken);\n\t\tif (balance > 0) {\n\t\t\tuint256 proportion = (balance * 100) /\n\t\t\t\t(developmentFee + marketingFee);\n\t\t\tuint256 devCut = (balance * developmentFee * proportion) / 10000;\n\t\t\tuint256 marCut = (balance * marketingFee * proportion) / 10000;\n\n\t\t\t(bool devSent, ) = developmentAddress.call{ value: devCut }(\"\");\n\t\t\t(bool marSent, ) = marketingAddress.call{ value: marCut }(\"\");\n\t\t\trequire(devSent && marSent, \"Couldn't transfer wallet fees\");\n\t\t}\n\t}\n\n\tfunction swapAndLiquify(uint256 amountToken) private lockSwapAndLiquify {\n\t\tuint256 half1 = amountToken / 2;\n\t\tuint256 half2 = amountToken - half1;\n\t\tuint256 balanceBeforeSwap = address(this).balance;\n\t\tuint256 balanceAfterSwap = swapTokensToETH(half1); // Swap half of the tokens to BNB\n\t\tuint256 swapDifference = balanceAfterSwap - balanceBeforeSwap;\n\t\taddLiquidityTax(half2, swapDifference); // Add the non-swapped tokens and the swapped BNB to liquidity\n\t}\n\n\tfunction addLiquidityTax(uint256 amountToken, uint256 amountEth) private {\n\t\t// approve(address(router), amountToken);\n\t\t_approve(address(this), address(router), amountToken);\n\t\trouter.addLiquidityETH{ value: amountEth }(\n\t\t\taddress(this),\n\t\t\tamountToken,\n\t\t\t0,\n\t\t\t0,\n\t\t\tdevelopmentAddress,\n\t\t\tblock.timestamp + 1 minutes\n\t\t);\n\t}\n\n\tfunction swapTokensToETH(uint256 amountToken) private returns (uint256) {\n\t\taddress[] memory path = new address[](2);\n\t\tpath[0] = address(this);\n\t\tpath[1] = router.WETH();\n\t\t// approve(address(router), amountToken);\n\t\t_approve(address(this), address(router), amountToken);\n\t\trouter.swapExactTokensForETHSupportingFeeOnTransferTokens(\n\t\t\tamountToken,\n\t\t\t0, // Receive any amount\n\t\t\tpath,\n\t\t\taddress(this),\n\t\t\tblock.timestamp + 1 minutes\n\t\t);\n\t\treturn address(this).balance;\n\t}\n\n\tfunction setSellTaxes(\n\t\tuint256 sellDevelopmentTax_,\n\t\tuint256 sellMarketingTax_,\n\t\tuint256 sellLiquidityTax_\n\t) external onlyOwners {\n\t\trequire(\n\t\t\t(sellDevelopmentTax_ + sellMarketingTax_ + sellLiquidityTax_) <=\n\t\t\t\tMAX_TOTAL_FEE,\n\t\t\t\"Total taxes are above the allowed amount\"\n\t\t);\n\t\tsellDevelopmentTax = sellDevelopmentTax_;\n\t\tsellMarketingTax = sellMarketingTax_;\n\t\tsellLiquidityTax = sellDevelopmentTax_;\n\t}\n\n\tfunction setBuyTaxes(\n\t\tuint256 buyDevelopmentTax_,\n\t\tuint256 buyMarketingTax_,\n\t\tuint256 buyLiquidityTax_\n\t) external onlyOwners {\n\t\trequire(\n\t\t\t(buyDevelopmentTax_ + buyMarketingTax_ + buyLiquidityTax_) <=\n\t\t\t\tMAX_TOTAL_FEE,\n\t\t\t\"Total taxes are above the allowed amount\"\n\t\t);\n\t\tbuyDevelopmentTax = buyDevelopmentTax_;\n\t\tbuyMarketingTax = buyMarketingTax_;\n\t\tbuyLiquidityTax = buyLiquidityTax_;\n\t}\n\n\tfunction setTaxAddresses(\n\t\taddress developmentAddress_,\n\t\taddress marketingAddress_,\n\t\taddress liquidityAddress_\n\t) external onlyOwners {\n\t\trequire(\n\t\t\t!(developmentAddress_ == address(0) ||\n\t\t\t\tmarketingAddress_ == address(0) ||\n\t\t\t\tliquidityAddress_ == address(0)),\n\t\t\t\"None of the addresses can't be zero addresses\"\n\t\t);\n\t\tdevelopmentAddress = payable(developmentAddress_);\n\t\tmarketingAddress = payable(marketingAddress_);\n\t\tliquidityAddress = payable(liquidityAddress_);\n\t}\n\n\tfunction removeBlacklist(address address_) external onlyOwners {\n\t\tantiBotBlacklist[address_] = false;\n\t}\n\n\tfunction setLiquidityTaxEnabled(bool enabled) external onlyOwners {\n\t\tliquidityTaxEnabled = enabled;\n\t}\n\n\tfunction addTaxExcludedAddress(address address_) external onlyOwners {\n\t\tisExcludedFromTax[address_] = true;\n\t}\n\n\tfunction removeTaxExcludedAddress(address address_) external onlyOwners {\n\t\tisExcludedFromTax[address_] = false;\n\t}\n\n\tfunction setRouter(address routerAddress) external onlyOwners {\n\t\trouter = IUniswapV2Router02(routerAddress);\n\t}\n}\n",
  "sourcePath": "C:\\Users\\sants\\Desktop\\slimekeeper\\slimekeeper_contracts\\contracts\\Token.sol",
  "compiler": {
    "name": "solc",
    "version": "0.8.11+commit.d7f03943.Emscripten.clang"
  },
  "schemaVersion": "3.4.4",
  "updatedAt": "2022-02-20T21:33:15.626Z",
  "networkType": "ethereum",
  "devdoc": {
    "kind": "dev",
    "methods": {
      "allowance(address,address)": {
        "details": "See {IERC20-allowance}."
      },
      "approve(address,uint256)": {
        "details": "See {IERC20-approve}. Requirements: - `spender` cannot be the zero address."
      },
      "balanceOf(address)": {
        "details": "See {IERC20-balanceOf}."
      },
      "decimals()": {
        "details": "Returns the number of decimals used to get its user representation. For example, if `decimals` equals `2`, a balance of `505` tokens should be displayed to a user as `5.05` (`505 / 10 ** 2`). Tokens usually opt for a value of 18, imitating the relationship between Ether and Wei. This is the value {ERC20} uses, unless this function is overridden; NOTE: This information is only used for _display_ purposes: it in no way affects any of the arithmetic of the contract, including {IERC20-balanceOf} and {IERC20-transfer}."
      },
      "decreaseAllowance(address,uint256)": {
        "details": "Atomically decreases the allowance granted to `spender` by the caller. This is an alternative to {approve} that can be used as a mitigation for problems described in {IERC20-approve}. Emits an {Approval} event indicating the updated allowance. Requirements: - `spender` cannot be the zero address. - `spender` must have allowance for the caller of at least `subtractedValue`."
      },
      "increaseAllowance(address,uint256)": {
        "details": "Atomically increases the allowance granted to `spender` by the caller. This is an alternative to {approve} that can be used as a mitigation for problems described in {IERC20-approve}. Emits an {Approval} event indicating the updated allowance. Requirements: - `spender` cannot be the zero address."
      },
      "name()": {
        "details": "Returns the name of the token."
      },
      "symbol()": {
        "details": "Returns the symbol of the token, usually a shorter version of the name."
      },
      "totalSupply()": {
        "details": "See {IERC20-totalSupply}."
      },
      "transfer(address,uint256)": {
        "details": "See {IERC20-transfer}. Requirements: - `recipient` cannot be the zero address. - the caller must have a balance of at least `amount`."
      },
      "transferFrom(address,address,uint256)": {
        "details": "See {IERC20-transferFrom}. Emits an {Approval} event indicating the updated allowance. This is not required by the EIP. See the note at the beginning of {ERC20}. Requirements: - `sender` and `recipient` cannot be the zero address. - `sender` must have a balance of at least `amount`. - the caller must have allowance for ``sender``'s tokens of at least `amount`."
      }
    },
    "version": 1
  },
  "userdoc": {
    "kind": "user",
    "methods": {},
    "version": 1
  }
}