{
  "contractName": "Token",
  "abi": [
    {
      "inputs": [
        {
          "internalType": "address",
          "name": "gameAddress_",
          "type": "address"
        },
        {
          "internalType": "address",
          "name": "nftAddress_",
          "type": "address"
        }
      ],
      "stateMutability": "nonpayable",
      "type": "constructor"
    },
    {
      "anonymous": false,
      "inputs": [
        {
          "indexed": true,
          "internalType": "address",
          "name": "owner",
          "type": "address"
        },
        {
          "indexed": true,
          "internalType": "address",
          "name": "spender",
          "type": "address"
        },
        {
          "indexed": false,
          "internalType": "uint256",
          "name": "value",
          "type": "uint256"
        }
      ],
      "name": "Approval",
      "type": "event"
    },
    {
      "anonymous": false,
      "inputs": [
        {
          "indexed": true,
          "internalType": "address",
          "name": "adder",
          "type": "address"
        },
        {
          "indexed": true,
          "internalType": "address",
          "name": "owner",
          "type": "address"
        },
        {
          "indexed": true,
          "internalType": "uint256",
          "name": "timestamp",
          "type": "uint256"
        }
      ],
      "name": "OwnerAdded",
      "type": "event"
    },
    {
      "anonymous": false,
      "inputs": [
        {
          "indexed": true,
          "internalType": "address",
          "name": "remover",
          "type": "address"
        },
        {
          "indexed": true,
          "internalType": "address",
          "name": "removed",
          "type": "address"
        },
        {
          "indexed": true,
          "internalType": "uint256",
          "name": "timestamp",
          "type": "uint256"
        }
      ],
      "name": "OwnerRemoved",
      "type": "event"
    },
    {
      "anonymous": false,
      "inputs": [
        {
          "indexed": true,
          "internalType": "address",
          "name": "from",
          "type": "address"
        },
        {
          "indexed": true,
          "internalType": "address",
          "name": "to",
          "type": "address"
        },
        {
          "indexed": false,
          "internalType": "uint256",
          "name": "value",
          "type": "uint256"
        }
      ],
      "name": "Transfer",
      "type": "event"
    },
    {
      "inputs": [],
      "name": "MAX_TOTAL_FEE",
      "outputs": [
        {
          "internalType": "uint256",
          "name": "",
          "type": "uint256"
        }
      ],
      "stateMutability": "view",
      "type": "function"
    },
    {
      "inputs": [
        {
          "internalType": "address",
          "name": "owner",
          "type": "address"
        }
      ],
      "name": "addOwner",
      "outputs": [],
      "stateMutability": "nonpayable",
      "type": "function"
    },
    {
      "inputs": [
        {
          "internalType": "address",
          "name": "owner",
          "type": "address"
        },
        {
          "internalType": "address",
          "name": "spender",
          "type": "address"
        }
      ],
      "name": "allowance",
      "outputs": [
        {
          "internalType": "uint256",
          "name": "",
          "type": "uint256"
        }
      ],
      "stateMutability": "view",
      "type": "function"
    },
    {
      "inputs": [],
      "name": "antiBotEnabled",
      "outputs": [
        {
          "internalType": "bool",
          "name": "",
          "type": "bool"
        }
      ],
      "stateMutability": "view",
      "type": "function"
    },
    {
      "inputs": [
        {
          "internalType": "address",
          "name": "spender",
          "type": "address"
        },
        {
          "internalType": "uint256",
          "name": "amount",
          "type": "uint256"
        }
      ],
      "name": "approve",
      "outputs": [
        {
          "internalType": "bool",
          "name": "",
          "type": "bool"
        }
      ],
      "stateMutability": "nonpayable",
      "type": "function"
    },
    {
      "inputs": [
        {
          "internalType": "address",
          "name": "account",
          "type": "address"
        }
      ],
      "name": "balanceOf",
      "outputs": [
        {
          "internalType": "uint256",
          "name": "",
          "type": "uint256"
        }
      ],
      "stateMutability": "view",
      "type": "function"
    },
    {
      "inputs": [],
      "name": "buyDevelopmentTax",
      "outputs": [
        {
          "internalType": "uint256",
          "name": "",
          "type": "uint256"
        }
      ],
      "stateMutability": "view",
      "type": "function"
    },
    {
      "inputs": [],
      "name": "buyLiquidityTax",
      "outputs": [
        {
          "internalType": "uint256",
          "name": "",
          "type": "uint256"
        }
      ],
      "stateMutability": "view",
      "type": "function"
    },
    {
      "inputs": [],
      "name": "buyMarketingTax",
      "outputs": [
        {
          "internalType": "uint256",
          "name": "",
          "type": "uint256"
        }
      ],
      "stateMutability": "view",
      "type": "function"
    },
    {
      "inputs": [],
      "name": "decimals",
      "outputs": [
        {
          "internalType": "uint8",
          "name": "",
          "type": "uint8"
        }
      ],
      "stateMutability": "view",
      "type": "function"
    },
    {
      "inputs": [
        {
          "internalType": "address",
          "name": "spender",
          "type": "address"
        },
        {
          "internalType": "uint256",
          "name": "subtractedValue",
          "type": "uint256"
        }
      ],
      "name": "decreaseAllowance",
      "outputs": [
        {
          "internalType": "bool",
          "name": "",
          "type": "bool"
        }
      ],
      "stateMutability": "nonpayable",
      "type": "function"
    },
    {
      "inputs": [],
      "name": "developmentAddress",
      "outputs": [
        {
          "internalType": "address payable",
          "name": "",
          "type": "address"
        }
      ],
      "stateMutability": "view",
      "type": "function"
    },
    {
      "inputs": [],
      "name": "getOwners",
      "outputs": [
        {
          "internalType": "address[]",
          "name": "",
          "type": "address[]"
        }
      ],
      "stateMutability": "view",
      "type": "function"
    },
    {
      "inputs": [
        {
          "internalType": "address",
          "name": "spender",
          "type": "address"
        },
        {
          "internalType": "uint256",
          "name": "addedValue",
          "type": "uint256"
        }
      ],
      "name": "increaseAllowance",
      "outputs": [
        {
          "internalType": "bool",
          "name": "",
          "type": "bool"
        }
      ],
      "stateMutability": "nonpayable",
      "type": "function"
    },
    {
      "inputs": [
        {
          "internalType": "address",
          "name": "",
          "type": "address"
        }
      ],
      "name": "isExcludedFromTax",
      "outputs": [
        {
          "internalType": "bool",
          "name": "",
          "type": "bool"
        }
      ],
      "stateMutability": "view",
      "type": "function"
    },
    {
      "inputs": [
        {
          "internalType": "address",
          "name": "owner",
          "type": "address"
        }
      ],
      "name": "isOwner",
      "outputs": [
        {
          "internalType": "bool",
          "name": "",
          "type": "bool"
        }
      ],
      "stateMutability": "view",
      "type": "function"
    },
    {
      "inputs": [],
      "name": "isPaused",
      "outputs": [
        {
          "internalType": "bool",
          "name": "",
          "type": "bool"
        }
      ],
      "stateMutability": "view",
      "type": "function"
    },
    {
      "inputs": [],
      "name": "liquidityAddress",
      "outputs": [
        {
          "internalType": "address payable",
          "name": "",
          "type": "address"
        }
      ],
      "stateMutability": "view",
      "type": "function"
    },
    {
      "inputs": [],
      "name": "liquidityTaxEnabled",
      "outputs": [
        {
          "internalType": "bool",
          "name": "",
          "type": "bool"
        }
      ],
      "stateMutability": "view",
      "type": "function"
    },
    {
      "inputs": [],
      "name": "marketingAddress",
      "outputs": [
        {
          "internalType": "address payable",
          "name": "",
          "type": "address"
        }
      ],
      "stateMutability": "view",
      "type": "function"
    },
    {
      "inputs": [],
      "name": "name",
      "outputs": [
        {
          "internalType": "string",
          "name": "",
          "type": "string"
        }
      ],
      "stateMutability": "view",
      "type": "function"
    },
    {
      "inputs": [
        {
          "internalType": "address",
          "name": "owner",
          "type": "address"
        }
      ],
      "name": "removeOwner",
      "outputs": [],
      "stateMutability": "nonpayable",
      "type": "function"
    },
    {
      "inputs": [],
      "name": "sellDevelopmentTax",
      "outputs": [
        {
          "internalType": "uint256",
          "name": "",
          "type": "uint256"
        }
      ],
      "stateMutability": "view",
      "type": "function"
    },
    {
      "inputs": [],
      "name": "sellLiquidityTax",
      "outputs": [
        {
          "internalType": "uint256",
          "name": "",
          "type": "uint256"
        }
      ],
      "stateMutability": "view",
      "type": "function"
    },
    {
      "inputs": [],
      "name": "sellMarketingTax",
      "outputs": [
        {
          "internalType": "uint256",
          "name": "",
          "type": "uint256"
        }
      ],
      "stateMutability": "view",
      "type": "function"
    },
    {
      "inputs": [
        {
          "internalType": "bool",
          "name": "newPaused",
          "type": "bool"
        }
      ],
      "name": "setIsPaused",
      "outputs": [],
      "stateMutability": "nonpayable",
      "type": "function"
    },
    {
      "inputs": [],
      "name": "symbol",
      "outputs": [
        {
          "internalType": "string",
          "name": "",
          "type": "string"
        }
      ],
      "stateMutability": "view",
      "type": "function"
    },
    {
      "inputs": [],
      "name": "totalSupply",
      "outputs": [
        {
          "internalType": "uint256",
          "name": "",
          "type": "uint256"
        }
      ],
      "stateMutability": "view",
      "type": "function"
    },
    {
      "inputs": [
        {
          "internalType": "address",
          "name": "recipient",
          "type": "address"
        },
        {
          "internalType": "uint256",
          "name": "amount",
          "type": "uint256"
        }
      ],
      "name": "transfer",
      "outputs": [
        {
          "internalType": "bool",
          "name": "",
          "type": "bool"
        }
      ],
      "stateMutability": "nonpayable",
      "type": "function"
    },
    {
      "inputs": [
        {
          "internalType": "address",
          "name": "sender",
          "type": "address"
        },
        {
          "internalType": "address",
          "name": "recipient",
          "type": "address"
        },
        {
          "internalType": "uint256",
          "name": "amount",
          "type": "uint256"
        }
      ],
      "name": "transferFrom",
      "outputs": [
        {
          "internalType": "bool",
          "name": "",
          "type": "bool"
        }
      ],
      "stateMutability": "nonpayable",
      "type": "function"
    },
    {
      "stateMutability": "payable",
      "type": "receive"
    },
    {
      "inputs": [
        {
          "internalType": "uint256",
          "name": "amountToken",
          "type": "uint256"
        }
      ],
      "name": "addLiquidity",
      "outputs": [],
      "stateMutability": "payable",
      "type": "function"
    },
    {
      "inputs": [
        {
          "internalType": "uint256",
          "name": "sellDevelopmentTax_",
          "type": "uint256"
        },
        {
          "internalType": "uint256",
          "name": "sellMarketingTax_",
          "type": "uint256"
        },
        {
          "internalType": "uint256",
          "name": "sellLiquidityTax_",
          "type": "uint256"
        }
      ],
      "name": "setAntiBotSellTaxes",
      "outputs": [],
      "stateMutability": "nonpayable",
      "type": "function"
    },
    {
      "inputs": [
        {
          "internalType": "uint256",
          "name": "sellDevelopmentTax_",
          "type": "uint256"
        },
        {
          "internalType": "uint256",
          "name": "sellMarketingTax_",
          "type": "uint256"
        },
        {
          "internalType": "uint256",
          "name": "sellLiquidityTax_",
          "type": "uint256"
        }
      ],
      "name": "setSellTaxes",
      "outputs": [],
      "stateMutability": "nonpayable",
      "type": "function"
    },
    {
      "inputs": [
        {
          "internalType": "uint256",
          "name": "buyDevelopmentTax_",
          "type": "uint256"
        },
        {
          "internalType": "uint256",
          "name": "buyMarketingTax_",
          "type": "uint256"
        },
        {
          "internalType": "uint256",
          "name": "buyLiquidityTax_",
          "type": "uint256"
        }
      ],
      "name": "setBuyTaxes",
      "outputs": [],
      "stateMutability": "nonpayable",
      "type": "function"
    },
    {
      "inputs": [
        {
          "internalType": "address",
          "name": "developmentAddress_",
          "type": "address"
        },
        {
          "internalType": "address",
          "name": "marketingAddress_",
          "type": "address"
        },
        {
          "internalType": "address",
          "name": "liquidityAddress_",
          "type": "address"
        }
      ],
      "name": "setTaxAddresses",
      "outputs": [],
      "stateMutability": "nonpayable",
      "type": "function"
    },
    {
      "inputs": [
        {
          "internalType": "address",
          "name": "address_",
          "type": "address"
        }
      ],
      "name": "removeBlacklistedAddress",
      "outputs": [],
      "stateMutability": "nonpayable",
      "type": "function"
    },
    {
      "inputs": [
        {
          "internalType": "bool",
          "name": "enabled",
          "type": "bool"
        }
      ],
      "name": "setLiquidityTaxEnabled",
      "outputs": [],
      "stateMutability": "nonpayable",
      "type": "function"
    },
    {
      "inputs": [
        {
          "internalType": "address",
          "name": "address_",
          "type": "address"
        }
      ],
      "name": "addTaxExcludedAddress",
      "outputs": [],
      "stateMutability": "nonpayable",
      "type": "function"
    },
    {
      "inputs": [
        {
          "internalType": "address",
          "name": "address_",
          "type": "address"
        }
      ],
      "name": "removeTaxExcludedAddress",
      "outputs": [],
      "stateMutability": "nonpayable",
      "type": "function"
    },
    {
      "inputs": [
        {
          "internalType": "address",
          "name": "routerAddress",
          "type": "address"
        }
      ],
      "name": "setRouter",
      "outputs": [],
      "stateMutability": "nonpayable",
      "type": "function"
    }
  ],
  "bytecode": "0x60a06040526007805460ff199081169091556019608052610e106008556002600a818155600c819055600d556005600e5560108054909216600190811790925560046013819055601455601581905560168190556017556018553480156200006657600080fd5b5060405162002e8c38038062002e8c833981016040819052620000899162000578565b604051806040016040528060058152602001642a37b5b2b760d91b815250604051806040016040528060038152602001622a25a760e91b8152508160039080519060200190620000db929190620004b5565b508051620000f1906004906020840190620004b5565b50505033620001525760405162461bcd60e51b815260206004820152602260248201527f43616e277420696e697469616c697a652077697468207a65726f206164647265604482015261737360f01b60648201526084015b60405180910390fd5b336000818152600560205260408120805460ff1916600190811790915560068054918201815590915260008051602062002e6c8339815191520180546001600160a01b031990811683179091556019805490911682179055620001b5906200027b565b601954620001ea906001600160a01b031660125b620001d690600a620006c5565b620001e490610d05620006dd565b6200035c565b620001f7826012620001c9565b62000204816012620001c9565b6103e86200021160025490565b6200021d9190620006ff565b6011556001600160a01b038281166000908152601c60205260408082208054600160ff19918216811790925593851683528183208054851682179055308352912080549092168117909155620002739062000441565b50506200077a565b3360009081526005602052604090205460ff16620002dc5760405162461bcd60e51b815260206004820152601660248201527f43616c6c6572206973206e6f7420616e206f776e657200000000000000000000604482015260640162000149565b6001600160a01b038116600081815260056020526040808220805460ff19166001908117909155600680549182018155835260008051602062002e6c8339815191520180546001600160a01b031916841790555142929133917fa0b18fca933618876351ba2ef88bf4505c184d3e55064bec0d7fe236dd706d849190a450565b6001600160a01b038216620003b45760405162461bcd60e51b815260206004820152601f60248201527f45524332303a206d696e7420746f20746865207a65726f206164647265737300604482015260640162000149565b8060026000828254620003c8919062000722565b90915550506001600160a01b03821660009081526020819052604081208054839290620003f790849062000722565b90915550506040518181526001600160a01b038316906000907fddf252ad1be2c89b69c2b068fc378daa952ba7f163c4a11628f55a4df523b3ef9060200160405180910390a35050565b3360009081526005602052604090205460ff16620004a25760405162461bcd60e51b815260206004820152601660248201527f43616c6c6572206973206e6f7420616e206f776e657200000000000000000000604482015260640162000149565b6007805460ff1916911515919091179055565b828054620004c3906200073d565b90600052602060002090601f016020900481019282620004e7576000855562000532565b82601f106200050257805160ff191683800117855562000532565b8280016001018555821562000532579182015b828111156200053257825182559160200191906001019062000515565b506200054092915062000544565b5090565b5b8082111562000540576000815560010162000545565b80516001600160a01b03811681146200057357600080fd5b919050565b600080604083850312156200058c57600080fd5b62000597836200055b565b9150620005a7602084016200055b565b90509250929050565b634e487b7160e01b600052601160045260246000fd5b600181815b8085111562000607578160001904821115620005eb57620005eb620005b0565b80851615620005f957918102915b93841c9390800290620005cb565b509250929050565b6000826200062057506001620006bf565b816200062f57506000620006bf565b8160018114620006485760028114620006535762000673565b6001915050620006bf565b60ff841115620006675762000667620005b0565b50506001821b620006bf565b5060208310610133831016604e8410600b841016171562000698575081810a620006bf565b620006a48383620005c6565b8060001904821115620006bb57620006bb620005b0565b0290505b92915050565b6000620006d660ff8416836200060f565b9392505050565b6000816000190483118215151615620006fa57620006fa620005b0565b500290565b6000826200071d57634e487b7160e01b600052601260045260246000fd5b500490565b60008219821115620007385762000738620005b0565b500190565b600181811c908216806200075257607f821691505b602082108114156200077457634e487b7160e01b600052602260045260246000fd5b50919050565b6080516126c1620007ab6000396000818161055501528181610861015281816109490152610c0f01526126c16000f3fe60806040526004361061023f5760003560e01c80637065cb481161012e578063a9059cbb116100ab578063cc9c49a61161006f578063cc9c49a6146106da578063cdca7083146106fa578063d8c6404b1461071a578063dd62ed3e14610739578063e96db1ef1461077f57600080fd5b8063a9059cbb1461063a578063ad8052bb1461065a578063b187bd2614610670578063c0d786551461068a578063cb4ca631146106aa57600080fd5b8063993df94e116100f2578063993df94e146105ac578063a0e67e2b146105c2578063a2cbba28146105e4578063a457c2d7146105fa578063a5ece9411461061a57600080fd5b80637065cb48146104ed57806370a082311461050d5780637f635cc014610543578063887d63171461057757806395d89b411461059757600080fd5b80632c505fb3116101bc5780633328b721116101805780633328b72114610464578063395093511461048457806351c6590a146104a4578063638b1b14146104b75780636ab91206146104d757600080fd5b80632c505fb3146103a75780632f54bf6e146103c1578063313ce567146103fa5780633221c93f14610416578063330124111461044e57600080fd5b806318160ddd1161020357806318160ddd146103085780631870517a146103275780631a9431a91461034757806323b872dd14610367578063240976bf1461038757600080fd5b806306fdde031461024b5780630873321414610276578063092d276f14610298578063095ea7b3146102b8578063173825d9146102e857600080fd5b3661024657005b600080fd5b34801561025757600080fd5b50610260610795565b60405161026d9190612116565b60405180910390f35b34801561028257600080fd5b5061029661029136600461216b565b610827565b005b3480156102a457600080fd5b506102966102b336600461216b565b6108c1565b3480156102c457600080fd5b506102d86102d33660046121af565b6109a9565b604051901515815260200161026d565b3480156102f457600080fd5b506102966103033660046121db565b6109c0565b34801561031457600080fd5b506002545b60405190815260200161026d565b34801561033357600080fd5b5061029661034236600461216b565b610bde565b34801561035357600080fd5b506102966103623660046121ff565b610c6f565b34801561037357600080fd5b506102d8610382366004612221565b610cb1565b34801561039357600080fd5b506102966103a23660046121ff565b610d5b565b3480156103b357600080fd5b506010546102d89060ff1681565b3480156103cd57600080fd5b506102d86103dc3660046121db565b6001600160a01b031660009081526005602052604090205460ff1690565b34801561040657600080fd5b506040516012815260200161026d565b34801561042257600080fd5b50601b54610436906001600160a01b031681565b6040516001600160a01b03909116815260200161026d565b34801561045a57600080fd5b5061031960175481565b34801561047057600080fd5b5061029661047f3660046121db565b610d9d565b34801561049057600080fd5b506102d861049f3660046121af565b610ded565b6102966104b2366004612262565b610e29565b3480156104c357600080fd5b50601954610436906001600160a01b031681565b3480156104e357600080fd5b5061031960155481565b3480156104f957600080fd5b506102966105083660046121db565b6110a3565b34801561051957600080fd5b506103196105283660046121db565b6001600160a01b031660009081526020819052604090205490565b34801561054f57600080fd5b506103197f000000000000000000000000000000000000000000000000000000000000000081565b34801561058357600080fd5b5061029661059236600461227b565b611163565b3480156105a357600080fd5b50610260611263565b3480156105b857600080fd5b5061031960165481565b3480156105ce57600080fd5b506105d7611272565b60405161026d919061230a565b3480156105f057600080fd5b5061031960185481565b34801561060657600080fd5b506102d86106153660046121af565b6112d3565b34801561062657600080fd5b50601a54610436906001600160a01b031681565b34801561064657600080fd5b506102d86106553660046121af565b61136c565b34801561066657600080fd5b5061031960135481565b34801561067c57600080fd5b506007546102d89060ff1681565b34801561069657600080fd5b506102966106a53660046121db565b611379565b3480156106b657600080fd5b506102d86106c53660046121db565b601c6020526000908152604090205460ff1681565b3480156106e657600080fd5b506102966106f53660046121db565b61153f565b34801561070657600080fd5b506102966107153660046121db565b61158f565b34801561072657600080fd5b506007546102d890610100900460ff1681565b34801561074557600080fd5b5061031961075436600461231d565b6001600160a01b03918216600090815260016020908152604080832093909416825291909152205490565b34801561078b57600080fd5b5061031960145481565b6060600380546107a490612356565b80601f01602080910402602001604051908101604052809291908181526020018280546107d090612356565b801561081d5780601f106107f25761010080835404028352916020019161081d565b820191906000526020600020905b81548152906001019060200180831161080057829003601f168201915b5050505050905090565b3360009081526005602052604090205460ff1661085f5760405162461bcd60e51b815260040161085690612391565b60405180910390fd5b7f00000000000000000000000000000000000000000000000000000000000000008161088b84866123d7565b61089591906123d7565b11156108b35760405162461bcd60e51b8152600401610856906123ef565b601392909255601455601555565b3360009081526005602052604090205460ff166108f05760405162461bcd60e51b815260040161085690612391565b600754610100900460ff166109475760405162461bcd60e51b815260206004820152601960248201527f416e7469626f7420706572696f642068617320706173736564000000000000006044820152606401610856565b7f00000000000000000000000000000000000000000000000000000000000000008161097384866123d7565b61097d91906123d7565b111561099b5760405162461bcd60e51b8152600401610856906123ef565b600c92909255600d55600e55565b60006109b63384846115e2565b5060015b92915050565b3360009081526005602052604090205460ff166109ef5760405162461bcd60e51b815260040161085690612391565b6001600160a01b03811660009081526005602052604090205460ff16610a575760405162461bcd60e51b815260206004820152601760248201527f41646472657373206973206e6f7420616e206f776e65720000000000000000006044820152606401610856565b60005b600654811015610bda57816001600160a01b031660068281548110610a8157610a81612437565b6000918252602090912001546001600160a01b03161415610bc8576001600160a01b0382166000908152600560205260409020805460ff19169055805b600654610acd9060019061244d565b811015610b58576006610ae18360016123d7565b81548110610af157610af1612437565b600091825260209091200154600680546001600160a01b039092169184908110610b1d57610b1d612437565b600091825260209091200180546001600160a01b0319166001600160a01b039290921691909117905580610b5081612464565b915050610abe565b506006805480610b6a57610b6a61247f565b600082815260208120820160001990810180546001600160a01b031916905590910190915560405142916001600160a01b0385169133917fecc5dd9888b87e7ed252d66b9c086ab819de6c8f8b96c8e5458e105bacfbb02791a45050565b80610bd281612464565b915050610a5a565b5050565b3360009081526005602052604090205460ff16610c0d5760405162461bcd60e51b815260040161085690612391565b7f000000000000000000000000000000000000000000000000000000000000000081610c3984866123d7565b610c4391906123d7565b1115610c615760405162461bcd60e51b8152600401610856906123ef565b601692909255601755601855565b3360009081526005602052604090205460ff16610c9e5760405162461bcd60e51b815260040161085690612391565b6010805460ff1916911515919091179055565b6000610cbe848484611706565b6001600160a01b038416600090815260016020908152604080832033845290915290205482811015610d435760405162461bcd60e51b815260206004820152602860248201527f45524332303a207472616e7366657220616d6f756e74206578636565647320616044820152676c6c6f77616e636560c01b6064820152608401610856565b610d5085338584036115e2565b506001949350505050565b3360009081526005602052604090205460ff16610d8a5760405162461bcd60e51b815260040161085690612391565b6007805460ff1916911515919091179055565b3360009081526005602052604090205460ff16610dcc5760405162461bcd60e51b815260040161085690612391565b6001600160a01b03166000908152600f60205260409020805460ff19169055565b3360008181526001602090815260408083206001600160a01b038716845290915281205490916109b6918590610e249086906123d7565b6115e2565b3360009081526005602052604090205460ff16610e585760405162461bcd60e51b815260040161085690612391565b601d546001600160a01b031680610ea65760405162461bcd60e51b8152602060048201526012602482015271149bdd5d195c881b9bdd081cd95d081e595d60721b6044820152606401610856565b610eb26012600a612579565b610ebc9083612588565b33600090815260208190526040902054909250821115610f305760405162461bcd60e51b815260206004820152602960248201527f53656e64657220646f6573206e6f74206861766520656e6f75676820746f6b656044820152686e2062616c616e636560b81b6064820152608401610856565b336000908152600160209081526040808320308452909152902054821115610f915760405162461bcd60e51b81526020600482015260146024820152734e6f7420656e6f75676820616c6c6f77616e636560601b6044820152606401610856565b610f9c333084611889565b610fa681836109a9565b506012805461ff001916610100179055601d546019546001600160a01b039182169163f305d719913491309187918291859116610fe542610e106123d7565b6040518863ffffffff1660e01b8152600401611006969594939291906125a7565b60606040518083038185885af1158015611024573d6000803e3d6000fd5b50505050506040513d601f19601f8201168201806040525081019061104991906125e2565b50506012805461ff00191690555060075462010000900460ff16611099576007805462ffff0019166201010017905560085461108590426123d7565b600955600a5461109590436123d7565b600b555b610bda6000610d5b565b3360009081526005602052604090205460ff166110d25760405162461bcd60e51b815260040161085690612391565b6001600160a01b038116600081815260056020526040808220805460ff1916600190811790915560068054918201815583527ff652222313e28459528d920b65115c16c04f3efc82aaedc97be59f3f377c0d3f0180546001600160a01b031916841790555142929133917fa0b18fca933618876351ba2ef88bf4505c184d3e55064bec0d7fe236dd706d849190a450565b3360009081526005602052604090205460ff166111925760405162461bcd60e51b815260040161085690612391565b6001600160a01b03831615806111af57506001600160a01b038216155b806111c157506001600160a01b038116155b156112245760405162461bcd60e51b815260206004820152602d60248201527f4e6f6e65206f6620746865206164647265737365732063616e2774206265207a60448201526c65726f2061646472657373657360981b6064820152608401610856565b601980546001600160a01b039485166001600160a01b031991821617909155601a805493851693821693909317909255601b8054919093169116179055565b6060600480546107a490612356565b6060600680548060200260200160405190810160405280929190818152602001828054801561081d57602002820191906000526020600020905b81546001600160a01b031681526001909101906020018083116112ac575050505050905090565b3360009081526001602090815260408083206001600160a01b0386168452909152812054828110156113555760405162461bcd60e51b815260206004820152602560248201527f45524332303a2064656372656173656420616c6c6f77616e63652062656c6f77604482015264207a65726f60d81b6064820152608401610856565b61136233858584036115e2565b5060019392505050565b60006109b6338484611706565b3360009081526005602052604090205460ff166113a85760405162461bcd60e51b815260040161085690612391565b601d80546001600160a01b0319166001600160a01b0383169081179091556040805163c45a015560e01b8152905163c45a0155916004808201926020929091908290030181865afa158015611401573d6000803e3d6000fd5b505050506040513d601f19601f820116820180604052508101906114259190612610565b6001600160a01b031663c9c6539630601d60009054906101000a90046001600160a01b03166001600160a01b031663ad5c46486040518163ffffffff1660e01b8152600401602060405180830381865afa158015611487573d6000803e3d6000fd5b505050506040513d601f19601f820116820180604052508101906114ab9190612610565b6040516001600160e01b031960e085901b1681526001600160a01b039283166004820152911660248201526044016020604051808303816000875af11580156114f8573d6000803e3d6000fd5b505050506040513d601f19601f8201168201806040525081019061151c9190612610565b601e80546001600160a01b0319166001600160a01b039290921691909117905550565b3360009081526005602052604090205460ff1661156e5760405162461bcd60e51b815260040161085690612391565b6001600160a01b03166000908152601c60205260409020805460ff19169055565b3360009081526005602052604090205460ff166115be5760405162461bcd60e51b815260040161085690612391565b6001600160a01b03166000908152601c60205260409020805460ff19166001179055565b6001600160a01b0383166116445760405162461bcd60e51b8152602060048201526024808201527f45524332303a20617070726f76652066726f6d20746865207a65726f206164646044820152637265737360e01b6064820152608401610856565b6001600160a01b0382166116a55760405162461bcd60e51b815260206004820152602260248201527f45524332303a20617070726f766520746f20746865207a65726f206164647265604482015261737360f01b6064820152608401610856565b6001600160a01b0383811660008181526001602090815260408083209487168084529482529182902085905590518481527f8c5be1e5ebec7d5bd14f71427d1e84f3dd0314c0f7b2291e5b200ac8c7c3b925910160405180910390a3505050565b3260008181526005602052604090205460ff166117625760075460ff16156117625760405162461bcd60e51b815260206004820152600f60248201526e10dbdb9d1c9858dd081c185d5cd959608a1b6044820152606401610856565b601254610100900460ff161561178d5761177d8433846115e2565b611788848484611889565b611883565b8161179e5761178884846000611889565b60008060006117ad8787611a57565b3060009081526020819052604090205460125493965091945092509060ff161580156117db57506011548110155b80156117f45750601e546001600160a01b038881169116145b156118055761180581858585611b5c565b60125460009060ff1615801561183457506001600160a01b0389166000908152601c602052604090205460ff16155b801561185957506001600160a01b0388166000908152601c602052604090205460ff16155b905080156118725761186f878a8a888888611c0e565b96505b61187d898989611889565b50505050505b50505050565b6001600160a01b0383166118ed5760405162461bcd60e51b815260206004820152602560248201527f45524332303a207472616e736665722066726f6d20746865207a65726f206164604482015264647265737360d81b6064820152608401610856565b6001600160a01b03821661194f5760405162461bcd60e51b815260206004820152602360248201527f45524332303a207472616e7366657220746f20746865207a65726f206164647260448201526265737360e81b6064820152608401610856565b6001600160a01b038316600090815260208190526040902054818110156119c75760405162461bcd60e51b815260206004820152602660248201527f45524332303a207472616e7366657220616d6f756e7420657863656564732062604482015265616c616e636560d01b6064820152608401610856565b6001600160a01b038085166000908152602081905260408082208585039055918516815290812080548492906119fe9084906123d7565b92505081905550826001600160a01b0316846001600160a01b03167fddf252ad1be2c89b69c2b068fc378daa952ba7f163c4a11628f55a4df523b3ef84604051611a4a91815260200190565b60405180910390a3611883565b6000806000600760019054906101000a900460ff1615611ac757600b544311611a9e576001600160a01b0385166000908152600f60205260409020805460ff191660011790555b6009544211611abb57600c549250600d549150600e549050611ac7565b6007805461ff00191690555b6001600160a01b0385166000908152600f602052604090205460ff16158015611b0957506001600160a01b0384166000908152600f602052604090205460ff16155b611b555760405162461bcd60e51b815260206004820152601f60248201527f53656e646572206f7220726563697069656e7420626c61636b6c6973746564006044820152606401610856565b9250925092565b6012805460ff191660011790556000611b7583856123d7565b60105490915060ff1615611b9057611b8d82826123d7565b90505b600081611b9d8688612588565b611ba7919061262d565b9050600082611bb68689612588565b611bc0919061262d565b9050611bcc8282611d2b565b60105460ff1615611bfb57600083611be4868a612588565b611bee919061262d565b9050611bf981611eaf565b505b50506012805460ff191690555050505050565b601e5460009081908190819081906001600160a01b038a811691161415611c7c576064611c3b898d612588565b611c45919061262d565b92506064611c53888d612588565b611c5d919061262d565b91506064611c6b878d612588565b611c75919061262d565b9050611ce7565b601e546001600160a01b038b811691161415611ce75760646016548c611ca29190612588565b611cac919061262d565b925060646017548c611cbe9190612588565b611cc8919061262d565b915060646018548c611cda9190612588565b611ce4919061262d565b90505b80611cf283856123d7565b611cfc91906123d7565b93508315611d1c57611d0f8a3086611889565b611d19848c61244d565b9a505b50989998505050505050505050565b6000611d3f611d3a83856123d7565b611efa565b90506000611d4d83856123d7565b611d578584612588565b611d61919061262d565b90506000611d6f84866123d7565b611d798585612588565b611d83919061262d565b6019546040519192506000916001600160a01b039091169084908381818185875af1925050503d8060008114611dd5576040519150601f19603f3d011682016040523d82523d6000602084013e611dda565b606091505b5050601a546040519192506000916001600160a01b039091169084908381818185875af1925050503d8060008114611e2e576040519150601f19603f3d011682016040523d82523d6000602084013e611e33565b606091505b50509050818015611e415750805b611ea65760405162461bcd60e51b815260206004820152603060248201527f436f756c646e27742073656e6420746f20646576656c6f706d656e74206f722060448201526f1b585c9ad95d1a5b99c81dd85b1b195d60821b6064820152608401610856565b50505050505050565b6000611ebc60028361262d565b90506000611eca828461244d565b9050476000611ed884611efa565b90506000611ee6838361244d565b9050611ef28482612064565b505050505050565b604080516002808252606082018352600092839291906020830190803683370190505090503081600081518110611f3357611f33612437565b6001600160a01b03928316602091820292909201810191909152601d54604080516315ab88c960e31b81529051919093169263ad5c46489260048083019391928290030181865afa158015611f8c573d6000803e3d6000fd5b505050506040513d601f19601f82011682018060405250810190611fb09190612610565b81600181518110611fc357611fc3612437565b6001600160a01b039283166020918202929092010152601d54611fe991309116856115e2565b601d546001600160a01b031663791ac947846000843061200a42603c6123d7565b6040518663ffffffff1660e01b815260040161202a95949392919061264f565b600060405180830381600087803b15801561204457600080fd5b505af1158015612058573d6000803e3d6000fd5b50479695505050505050565b601d5461207c9030906001600160a01b0316846115e2565b601d546019546001600160a01b039182169163f305d719918491309187916000918291166120ab42603c6123d7565b6040518863ffffffff1660e01b81526004016120cc969594939291906125a7565b60606040518083038185885af11580156120ea573d6000803e3d6000fd5b50505050506040513d601f19601f8201168201806040525081019061210f91906125e2565b5050505050565b600060208083528351808285015260005b8181101561214357858101830151858201604001528201612127565b81811115612155576000604083870101525b50601f01601f1916929092016040019392505050565b60008060006060848603121561218057600080fd5b505081359360208301359350604090920135919050565b6001600160a01b03811681146121ac57600080fd5b50565b600080604083850312156121c257600080fd5b82356121cd81612197565b946020939093013593505050565b6000602082840312156121ed57600080fd5b81356121f881612197565b9392505050565b60006020828403121561221157600080fd5b813580151581146121f857600080fd5b60008060006060848603121561223657600080fd5b833561224181612197565b9250602084013561225181612197565b929592945050506040919091013590565b60006020828403121561227457600080fd5b5035919050565b60008060006060848603121561229057600080fd5b833561229b81612197565b925060208401356122ab81612197565b915060408401356122bb81612197565b809150509250925092565b600081518084526020808501945080840160005b838110156122ff5781516001600160a01b0316875295820195908201906001016122da565b509495945050505050565b6020815260006121f860208301846122c6565b6000806040838503121561233057600080fd5b823561233b81612197565b9150602083013561234b81612197565b809150509250929050565b600181811c9082168061236a57607f821691505b6020821081141561238b57634e487b7160e01b600052602260045260246000fd5b50919050565b60208082526016908201527521b0b63632b91034b9903737ba1030b71037bbb732b960511b604082015260600190565b634e487b7160e01b600052601160045260246000fd5b600082198211156123ea576123ea6123c1565b500190565b60208082526028908201527f546f74616c207461786573206172652061626f76652074686520616c6c6f77656040820152671908185b5bdd5b9d60c21b606082015260800190565b634e487b7160e01b600052603260045260246000fd5b60008282101561245f5761245f6123c1565b500390565b6000600019821415612478576124786123c1565b5060010190565b634e487b7160e01b600052603160045260246000fd5b600181815b808511156124d05781600019048211156124b6576124b66123c1565b808516156124c357918102915b93841c939080029061249a565b509250929050565b6000826124e7575060016109ba565b816124f4575060006109ba565b816001811461250a576002811461251457612530565b60019150506109ba565b60ff841115612525576125256123c1565b50506001821b6109ba565b5060208310610133831016604e8410600b8410161715612553575081810a6109ba565b61255d8383612495565b8060001904821115612571576125716123c1565b029392505050565b60006121f860ff8416836124d8565b60008160001904831182151516156125a2576125a26123c1565b500290565b6001600160a01b039687168152602081019590955260408501939093526060840191909152909216608082015260a081019190915260c00190565b6000806000606084860312156125f757600080fd5b8351925060208401519150604084015190509250925092565b60006020828403121561262257600080fd5b81516121f881612197565b60008261264a57634e487b7160e01b600052601260045260246000fd5b500490565b85815284602082015260a06040820152600061266e60a08301866122c6565b6001600160a01b039490941660608301525060800152939250505056fea2646970667358221220a142562bb31ff6a458f1bb2b825637d1184114de125218a575665f9553b2cee064736f6c634300080b0033f652222313e28459528d920b65115c16c04f3efc82aaedc97be59f3f377c0d3f",
  "immutableReferences": {
    "5211": [
      {
        "length": 32,
        "start": 1365
      },
      {
        "length": 32,
        "start": 2145
      },
      {
        "length": 32,
        "start": 2377
      },
      {
        "length": 32,
        "start": 3087
      }
    ]
  },
  "source": "// SPDX-License-Identifier: MIT\n\npragma solidity >=0.4.22 <0.9.0;\n\nimport \"./PauseOwners.sol\";\nimport \"@openzeppelin/contracts/token/ERC20/ERC20.sol\";\nimport \"@uniswap/v2-periphery/contracts/interfaces/IUniswapV2Router02.sol\";\nimport \"@uniswap/v2-core/contracts/interfaces/IUniswapV2Pair.sol\";\nimport \"@uniswap/v2-core/contracts/interfaces/IUniswapV2Factory.sol\";\nimport \"@uniswap/v2-periphery/contracts/libraries/UniswapV2Library.sol\";\nimport \"@openzeppelin/contracts/utils/Address.sol\";\n\ncontract Token is ERC20, PauseOwners {\n\tuint256 public immutable MAX_TOTAL_FEE = 25; // We can never surpass this total fee\n\n\tbool public antiBotEnabled;\n\tbool private antiBotRanOnce; // We can only run antibot once, when initial liquidity is added\n\tuint256 private antiBotTaxesTimeInSeconds = 3600;\n\tuint256 private antiBotTaxesEndTime;\n\tuint256 private antiBotBlockTime = 2;\n\tuint256 private antiBotBlockEnd;\n\n\tuint256 private antiBotSellDevelopmentTax = 10;\n\tuint256 private antiBotSellMarketingTax = 10;\n\tuint256 private antiBotSellLiquidityTax = 5;\n\n\tmapping(address => bool) antiBotBlacklist;\n\n\tbool public liquidityTaxEnabled = true;\n\n\tuint256 private minBalanceToSwapAndTransfer;\n\tbool private inSwapAndTransfer;\n\n\tbool private addingLiquidity;\n\n\tuint256 public sellDevelopmentTax = 4;\n\tuint256 public sellMarketingTax = 4;\n\tuint256 public sellLiquidityTax = 2;\n\n\tuint256 public buyDevelopmentTax = 2;\n\tuint256 public buyMarketingTax = 2;\n\tuint256 public buyLiquidityTax = 1;\n\n\taddress payable public developmentAddress;\n\taddress payable public marketingAddress;\n\taddress payable public liquidityAddress;\n\n\tmapping(address => bool) public isExcludedFromTax;\n\n\tIUniswapV2Router02 private router;\n\tIUniswapV2Pair private pair;\n\n\tconstructor(address gameAddress_, address nftAddress_)\n\t\tERC20(\"Token\", \"TKN\")\n\t{\n\t\tdevelopmentAddress = payable(msg.sender);\n\t\taddOwner(developmentAddress);\n\t\t_mint(developmentAddress, 3333 * 10**decimals()); // For adding liquidity and team tokens\n\t\t_mint(gameAddress_, 3333 * 10**decimals()); // Used as game rewards\n\t\t_mint(nftAddress_, 3333 * 10**decimals()); // Used as NFT rewards\n\t\tminBalanceToSwapAndTransfer = totalSupply() / 1000; // If contract balance is minimum 0.1% of total supply, swap to BNB and transfer fees\n\t\tisExcludedFromTax[gameAddress_] = true;\n\t\tisExcludedFromTax[nftAddress_] = true;\n\t\tisExcludedFromTax[address(this)] = true;\n\t\tsetIsPaused(true); // Pause trading at the beginning until liquidity is added\n\t}\n\n\tmodifier lockSwapAndTransfer() {\n\t\tinSwapAndTransfer = true;\n\t\t_;\n\t\tinSwapAndTransfer = false;\n\t}\n\n\treceive() external payable {} // Must be defined so the contract is able to receive ETH from swaps\n\n\tfunction addLiquidity(uint256 amountToken) external payable onlyOwners {\n\t\t// Add initial liquidity and enabled the \"anti-bot\" feature\n\t\taddress routerAddress = address(router);\n\t\trequire(routerAddress != address(0), \"Router not set yet\");\n\t\tamountToken *= (10**decimals());\n\t\trequire(\n\t\t\tbalanceOf(msg.sender) >= amountToken,\n\t\t\t\"Sender does not have enough token balance\"\n\t\t);\n\t\trequire(\n\t\t\tallowance(msg.sender, address(this)) >= amountToken,\n\t\t\t\"Not enough allowance\"\n\t\t);\n\t\tsuper._transfer(msg.sender, address(this), amountToken);\n\t\tapprove(routerAddress, amountToken);\n\t\taddingLiquidity = true;\n\t\trouter.addLiquidityETH{ value: msg.value }(\n\t\t\taddress(this),\n\t\t\tamountToken,\n\t\t\tamountToken,\n\t\t\tmsg.value,\n\t\t\tdevelopmentAddress,\n\t\t\tblock.timestamp + 1 hours\n\t\t);\n\t\taddingLiquidity = false;\n\t\tif (!antiBotRanOnce) {\n\t\t\tantiBotEnabled = true;\n\t\t\tantiBotRanOnce = true;\n\t\t\tantiBotTaxesEndTime = block.timestamp + antiBotTaxesTimeInSeconds;\n\t\t\tantiBotBlockEnd = block.number + antiBotBlockTime;\n\t\t}\n\t\tsetIsPaused(false);\n\t}\n\n\tfunction _transfer(\n\t\taddress sender,\n\t\taddress recipient,\n\t\tuint256 amount\n\t) internal virtual override checkPaused(tx.origin) {\n\t\tif (addingLiquidity) {\n\t\t\t//Initial liquidity transfer from development address\n\t\t\t_approve(sender, msg.sender, amount);\n\t\t\tsuper._transfer(sender, recipient, amount);\n\t\t\treturn;\n\t\t}\n\n\t\tif (amount == 0) {\n\t\t\tsuper._transfer(sender, recipient, 0);\n\t\t\treturn;\n\t\t}\n\n\t\t// Temporary local variables for setting antibot taxes\n\t\t(\n\t\t\tuint256 sellDevelopmentTax_,\n\t\t\tuint256 sellMarketingTax_,\n\t\t\tuint256 sellLiquidityTax_\n\t\t) = antiBotGuard(sender, recipient);\n\n\t\tuint256 tokenBalance = balanceOf(address(this));\n\t\tif (\n\t\t\t!inSwapAndTransfer &&\n\t\t\ttokenBalance >= minBalanceToSwapAndTransfer &&\n\t\t\trecipient == address(pair) // Is a sell\n\t\t) {\n\t\t\tswapAndTransfer(\n\t\t\t\ttokenBalance,\n\t\t\t\tsellDevelopmentTax_,\n\t\t\t\tsellMarketingTax_,\n\t\t\t\tsellLiquidityTax_\n\t\t\t);\n\t\t}\n\n\t\tbool takeFee = !inSwapAndTransfer &&\n\t\t\t!isExcludedFromTax[sender] &&\n\t\t\t!isExcludedFromTax[recipient];\n\t\tif (takeFee) {\n\t\t\tamount = takeFees(\n\t\t\t\tamount,\n\t\t\t\tsender,\n\t\t\t\trecipient,\n\t\t\t\tsellDevelopmentTax_,\n\t\t\t\tsellMarketingTax_,\n\t\t\t\tsellLiquidityTax_\n\t\t\t);\n\t\t}\n\n\t\tsuper._transfer(sender, recipient, amount);\n\t}\n\n\tfunction antiBotGuard(address sender, address recipient)\n\t\tprivate\n\t\treturns (\n\t\t\tuint256 sellDevelopmentTax_,\n\t\t\tuint256 sellMarketingTax_,\n\t\t\tuint256 sellLiquidityTax_\n\t\t)\n\t{\n\t\tif (antiBotEnabled) {\n\t\t\tif (block.number <= antiBotBlockEnd) {\n\t\t\t\tantiBotBlacklist[sender] = true;\n\t\t\t}\n\t\t\tif (block.timestamp <= antiBotTaxesEndTime) {\n\t\t\t\tsellDevelopmentTax_ = antiBotSellDevelopmentTax;\n\t\t\t\tsellMarketingTax_ = antiBotSellMarketingTax;\n\t\t\t\tsellLiquidityTax_ = antiBotSellLiquidityTax;\n\t\t\t} else {\n\t\t\t\tantiBotEnabled = false;\n\t\t\t}\n\t\t}\n\n\t\trequire(\n\t\t\t!antiBotBlacklist[sender] && !antiBotBlacklist[recipient],\n\t\t\t\"Sender or recipient blacklisted\"\n\t\t);\n\t}\n\n\tfunction swapAndTransfer(\n\t\tuint256 tokenBalance,\n\t\tuint256 sellDevelopmentTax_,\n\t\tuint256 sellMarketingTax_,\n\t\tuint256 sellLiquidityTax_\n\t) private lockSwapAndTransfer {\n\t\tuint256 totalTax = sellDevelopmentTax_ + sellMarketingTax_;\n\t\tif (liquidityTaxEnabled) {\n\t\t\ttotalTax += sellLiquidityTax_;\n\t\t}\n\t\tuint256 developmentTax = (tokenBalance * sellDevelopmentTax_) /\n\t\t\ttotalTax;\n\t\tuint256 marketingTax = (tokenBalance * sellMarketingTax_) / totalTax;\n\n\t\tswapAndTransferFees(developmentTax, marketingTax);\n\n\t\tif (liquidityTaxEnabled) {\n\t\t\tuint256 liquidityTax = (tokenBalance * sellLiquidityTax_) /\n\t\t\t\ttotalTax;\n\t\t\tswapAndLiquify(liquidityTax);\n\t\t}\n\t}\n\n\tfunction swapAndTransferFees(uint256 developmentTax, uint256 marketingTax)\n\t\tprivate\n\t{\n\t\tuint256 ethBalance = swapTokensToETH(developmentTax + marketingTax);\n\t\tuint256 ethForDevelopment = (ethBalance * developmentTax) /\n\t\t\t(developmentTax + marketingTax);\n\t\tuint256 ethForMarketing = (ethBalance * marketingTax) /\n\t\t\t(developmentTax + marketingTax);\n\n\t\t(bool devSuccess, ) = developmentAddress.call{\n\t\t\tvalue: ethForDevelopment\n\t\t}(\"\");\n\t\t(bool marSuccess, ) = marketingAddress.call{ value: ethForMarketing }(\n\t\t\t\"\"\n\t\t);\n\n\t\trequire(\n\t\t\tdevSuccess && marSuccess,\n\t\t\t\"Couldn't send to development or marketing wallet\"\n\t\t);\n\t}\n\n\tfunction swapAndLiquify(uint256 amountToken) private {\n\t\tuint256 half1 = amountToken / 2;\n\t\tuint256 half2 = amountToken - half1;\n\t\tuint256 balanceBeforeSwap = address(this).balance;\n\t\tuint256 balanceAfterSwap = swapTokensToETH(half1); // Swap half of the tokens to BNB\n\t\tuint256 swapDifference = balanceAfterSwap - balanceBeforeSwap;\n\t\taddLiquidityTax(half2, swapDifference); // Add the non-swapped tokens and the swapped BNB to liquidity\n\t}\n\n\tfunction addLiquidityTax(uint256 amountToken, uint256 amountEth) private {\n\t\t// approve(address(router), amountToken);\n\t\t_approve(address(this), address(router), amountToken);\n\t\trouter.addLiquidityETH{ value: amountEth }(\n\t\t\taddress(this),\n\t\t\tamountToken,\n\t\t\t0,\n\t\t\t0,\n\t\t\tdevelopmentAddress,\n\t\t\tblock.timestamp + 1 minutes\n\t\t);\n\t}\n\n\tfunction swapTokensToETH(uint256 amountToken) private returns (uint256) {\n\t\taddress[] memory path = new address[](2);\n\t\tpath[0] = address(this);\n\t\tpath[1] = router.WETH();\n\t\t// approve(address(router), amountToken);\n\t\t_approve(address(this), address(router), amountToken);\n\t\trouter.swapExactTokensForETHSupportingFeeOnTransferTokens(\n\t\t\tamountToken,\n\t\t\t0, // Receive any amount\n\t\t\tpath,\n\t\t\taddress(this),\n\t\t\tblock.timestamp + 1 minutes\n\t\t);\n\t\treturn address(this).balance;\n\t}\n\n\tfunction takeFees(\n\t\tuint256 amount,\n\t\taddress sender,\n\t\taddress recipient,\n\t\tuint256 sellDevelopmentTax_,\n\t\tuint256 sellMarketingTax_,\n\t\tuint256 sellLiquidityTax_\n\t) private returns (uint256) {\n\t\tuint256 totalTax = 0;\n\t\tuint256 developmentTax = 0;\n\t\tuint256 marketingTax = 0;\n\t\tuint256 liquidityTax = 0;\n\t\tif (recipient == address(pair)) {\n\t\t\t// Selling\n\t\t\tdevelopmentTax = (amount * sellDevelopmentTax_) / 100;\n\t\t\tmarketingTax = (amount * sellMarketingTax_) / 100;\n\t\t\tliquidityTax = (amount * sellLiquidityTax_) / 100;\n\t\t} else if (sender == address(pair)) {\n\t\t\t// Buying\n\t\t\tdevelopmentTax = (amount * buyDevelopmentTax) / 100;\n\t\t\tmarketingTax = (amount * buyMarketingTax) / 100;\n\t\t\tliquidityTax = (amount * buyLiquidityTax) / 100;\n\t\t}\n\t\ttotalTax = developmentTax + marketingTax + liquidityTax;\n\n\t\tif (totalTax > 0) {\n\t\t\tsuper._transfer(sender, address(this), totalTax);\n\t\t\tamount -= totalTax;\n\t\t}\n\t\treturn amount;\n\t}\n\n\tfunction setAntiBotSellTaxes(\n\t\tuint256 sellDevelopmentTax_,\n\t\tuint256 sellMarketingTax_,\n\t\tuint256 sellLiquidityTax_\n\t) external onlyOwners {\n\t\trequire(antiBotEnabled, \"Antibot period has passed\");\n\t\trequire(\n\t\t\t(sellDevelopmentTax_ + sellMarketingTax_ + sellLiquidityTax_) <=\n\t\t\t\tMAX_TOTAL_FEE,\n\t\t\t\"Total taxes are above the allowed amount\"\n\t\t);\n\t\tantiBotSellDevelopmentTax = sellDevelopmentTax_;\n\t\tantiBotSellMarketingTax = sellMarketingTax_;\n\t\tantiBotSellLiquidityTax = sellLiquidityTax_;\n\t}\n\n\tfunction setSellTaxes(\n\t\tuint256 sellDevelopmentTax_,\n\t\tuint256 sellMarketingTax_,\n\t\tuint256 sellLiquidityTax_\n\t) external onlyOwners {\n\t\trequire(\n\t\t\t(sellDevelopmentTax_ + sellMarketingTax_ + sellLiquidityTax_) <=\n\t\t\t\tMAX_TOTAL_FEE,\n\t\t\t\"Total taxes are above the allowed amount\"\n\t\t);\n\t\tsellDevelopmentTax = sellDevelopmentTax_;\n\t\tsellMarketingTax = sellMarketingTax_;\n\t\tsellLiquidityTax = sellLiquidityTax_;\n\t}\n\n\tfunction setBuyTaxes(\n\t\tuint256 buyDevelopmentTax_,\n\t\tuint256 buyMarketingTax_,\n\t\tuint256 buyLiquidityTax_\n\t) external onlyOwners {\n\t\trequire(\n\t\t\t(buyDevelopmentTax_ + buyMarketingTax_ + buyLiquidityTax_) <=\n\t\t\t\tMAX_TOTAL_FEE,\n\t\t\t\"Total taxes are above the allowed amount\"\n\t\t);\n\t\tbuyDevelopmentTax = buyDevelopmentTax_;\n\t\tbuyMarketingTax = buyMarketingTax_;\n\t\tbuyLiquidityTax = buyLiquidityTax_;\n\t}\n\n\tfunction setTaxAddresses(\n\t\taddress developmentAddress_,\n\t\taddress marketingAddress_,\n\t\taddress liquidityAddress_\n\t) external onlyOwners {\n\t\trequire(\n\t\t\t!(developmentAddress_ == address(0) ||\n\t\t\t\tmarketingAddress_ == address(0) ||\n\t\t\t\tliquidityAddress_ == address(0)),\n\t\t\t\"None of the addresses can't be zero addresses\"\n\t\t);\n\t\tdevelopmentAddress = payable(developmentAddress_);\n\t\tmarketingAddress = payable(marketingAddress_);\n\t\tliquidityAddress = payable(liquidityAddress_);\n\t}\n\n\tfunction removeBlacklistedAddress(address address_) external onlyOwners {\n\t\tantiBotBlacklist[address_] = false;\n\t}\n\n\tfunction setLiquidityTaxEnabled(bool enabled) external onlyOwners {\n\t\tliquidityTaxEnabled = enabled;\n\t}\n\n\tfunction addTaxExcludedAddress(address address_) external onlyOwners {\n\t\tisExcludedFromTax[address_] = true;\n\t}\n\n\tfunction removeTaxExcludedAddress(address address_) external onlyOwners {\n\t\tisExcludedFromTax[address_] = false;\n\t}\n\n\tfunction setRouter(address routerAddress) external onlyOwners {\n\t\trouter = IUniswapV2Router02(routerAddress);\n\t\tpair = IUniswapV2Pair(\n\t\t\tIUniswapV2Factory(router.factory()).createPair(\n\t\t\t\taddress(this),\n\t\t\t\trouter.WETH()\n\t\t\t)\n\t\t);\n\t}\n}\n",
  "sourcePath": "C:\\Users\\sants\\Desktop\\slimekeeper\\slimekeeper_contracts\\contracts\\Token.sol",
  "compiler": {
    "name": "solc",
    "version": "0.8.11+commit.d7f03943.Emscripten.clang"
  },
  "schemaVersion": "3.4.4",
  "updatedAt": "2022-02-21T14:45:22.726Z",
  "devdoc": {
    "kind": "dev",
    "methods": {
      "allowance(address,address)": {
        "details": "See {IERC20-allowance}."
      },
      "approve(address,uint256)": {
        "details": "See {IERC20-approve}. Requirements: - `spender` cannot be the zero address."
      },
      "balanceOf(address)": {
        "details": "See {IERC20-balanceOf}."
      },
      "decimals()": {
        "details": "Returns the number of decimals used to get its user representation. For example, if `decimals` equals `2`, a balance of `505` tokens should be displayed to a user as `5.05` (`505 / 10 ** 2`). Tokens usually opt for a value of 18, imitating the relationship between Ether and Wei. This is the value {ERC20} uses, unless this function is overridden; NOTE: This information is only used for _display_ purposes: it in no way affects any of the arithmetic of the contract, including {IERC20-balanceOf} and {IERC20-transfer}."
      },
      "decreaseAllowance(address,uint256)": {
        "details": "Atomically decreases the allowance granted to `spender` by the caller. This is an alternative to {approve} that can be used as a mitigation for problems described in {IERC20-approve}. Emits an {Approval} event indicating the updated allowance. Requirements: - `spender` cannot be the zero address. - `spender` must have allowance for the caller of at least `subtractedValue`."
      },
      "increaseAllowance(address,uint256)": {
        "details": "Atomically increases the allowance granted to `spender` by the caller. This is an alternative to {approve} that can be used as a mitigation for problems described in {IERC20-approve}. Emits an {Approval} event indicating the updated allowance. Requirements: - `spender` cannot be the zero address."
      },
      "name()": {
        "details": "Returns the name of the token."
      },
      "symbol()": {
        "details": "Returns the symbol of the token, usually a shorter version of the name."
      },
      "totalSupply()": {
        "details": "See {IERC20-totalSupply}."
      },
      "transfer(address,uint256)": {
        "details": "See {IERC20-transfer}. Requirements: - `recipient` cannot be the zero address. - the caller must have a balance of at least `amount`."
      },
      "transferFrom(address,address,uint256)": {
        "details": "See {IERC20-transferFrom}. Emits an {Approval} event indicating the updated allowance. This is not required by the EIP. See the note at the beginning of {ERC20}. Requirements: - `sender` and `recipient` cannot be the zero address. - `sender` must have a balance of at least `amount`. - the caller must have allowance for ``sender``'s tokens of at least `amount`."
      }
    },
    "version": 1
  },
  "userdoc": {
    "kind": "user",
    "methods": {},
    "version": 1
  }
}