{
  "contractName": "Token",
  "abi": [
    {
      "inputs": [
        {
          "internalType": "address",
          "name": "gameAddress_",
          "type": "address"
        },
        {
          "internalType": "address",
          "name": "nftAddress_",
          "type": "address"
        },
        {
          "internalType": "address",
          "name": "rewardsAddress_",
          "type": "address"
        },
        {
          "internalType": "address",
          "name": "marketingAddress_",
          "type": "address"
        },
        {
          "internalType": "address",
          "name": "routerAddress_",
          "type": "address"
        }
      ],
      "stateMutability": "nonpayable",
      "type": "constructor"
    },
    {
      "anonymous": false,
      "inputs": [
        {
          "indexed": true,
          "internalType": "address",
          "name": "owner",
          "type": "address"
        },
        {
          "indexed": true,
          "internalType": "address",
          "name": "spender",
          "type": "address"
        },
        {
          "indexed": false,
          "internalType": "uint256",
          "name": "value",
          "type": "uint256"
        }
      ],
      "name": "Approval",
      "type": "event"
    },
    {
      "anonymous": false,
      "inputs": [
        {
          "indexed": false,
          "internalType": "address",
          "name": "address_",
          "type": "address"
        },
        {
          "indexed": false,
          "internalType": "uint256",
          "name": "block",
          "type": "uint256"
        },
        {
          "indexed": false,
          "internalType": "uint256",
          "name": "timestamp",
          "type": "uint256"
        }
      ],
      "name": "Blacklisted",
      "type": "event"
    },
    {
      "anonymous": false,
      "inputs": [
        {
          "indexed": false,
          "internalType": "address",
          "name": "sender",
          "type": "address"
        },
        {
          "indexed": false,
          "internalType": "uint256",
          "name": "amountETH",
          "type": "uint256"
        },
        {
          "indexed": false,
          "internalType": "uint256",
          "name": "amountToken",
          "type": "uint256"
        }
      ],
      "name": "LiquidityAdded",
      "type": "event"
    },
    {
      "anonymous": false,
      "inputs": [
        {
          "indexed": true,
          "internalType": "address",
          "name": "adder",
          "type": "address"
        },
        {
          "indexed": true,
          "internalType": "address",
          "name": "owner",
          "type": "address"
        },
        {
          "indexed": true,
          "internalType": "uint256",
          "name": "timestamp",
          "type": "uint256"
        }
      ],
      "name": "OwnerAdded",
      "type": "event"
    },
    {
      "anonymous": false,
      "inputs": [
        {
          "indexed": true,
          "internalType": "address",
          "name": "remover",
          "type": "address"
        },
        {
          "indexed": true,
          "internalType": "address",
          "name": "owner",
          "type": "address"
        },
        {
          "indexed": true,
          "internalType": "uint256",
          "name": "timestamp",
          "type": "uint256"
        }
      ],
      "name": "OwnerRemoved",
      "type": "event"
    },
    {
      "anonymous": false,
      "inputs": [
        {
          "indexed": false,
          "internalType": "uint256",
          "name": "timestamp",
          "type": "uint256"
        }
      ],
      "name": "OwnershipRenounced",
      "type": "event"
    },
    {
      "anonymous": false,
      "inputs": [
        {
          "indexed": true,
          "internalType": "address",
          "name": "from",
          "type": "address"
        },
        {
          "indexed": true,
          "internalType": "address",
          "name": "to",
          "type": "address"
        },
        {
          "indexed": false,
          "internalType": "uint256",
          "name": "value",
          "type": "uint256"
        }
      ],
      "name": "Transfer",
      "type": "event"
    },
    {
      "inputs": [],
      "name": "MAX_TOTAL_FEE",
      "outputs": [
        {
          "internalType": "uint256",
          "name": "",
          "type": "uint256"
        }
      ],
      "stateMutability": "view",
      "type": "function"
    },
    {
      "inputs": [
        {
          "internalType": "address",
          "name": "owner",
          "type": "address"
        }
      ],
      "name": "addOwner",
      "outputs": [],
      "stateMutability": "nonpayable",
      "type": "function"
    },
    {
      "inputs": [
        {
          "internalType": "address",
          "name": "owner",
          "type": "address"
        },
        {
          "internalType": "address",
          "name": "spender",
          "type": "address"
        }
      ],
      "name": "allowance",
      "outputs": [
        {
          "internalType": "uint256",
          "name": "",
          "type": "uint256"
        }
      ],
      "stateMutability": "view",
      "type": "function"
    },
    {
      "inputs": [
        {
          "internalType": "address",
          "name": "",
          "type": "address"
        }
      ],
      "name": "antiBotBlacklist",
      "outputs": [
        {
          "internalType": "bool",
          "name": "",
          "type": "bool"
        }
      ],
      "stateMutability": "view",
      "type": "function"
    },
    {
      "inputs": [],
      "name": "antiBotSellDevelopmentTax",
      "outputs": [
        {
          "internalType": "uint256",
          "name": "",
          "type": "uint256"
        }
      ],
      "stateMutability": "view",
      "type": "function"
    },
    {
      "inputs": [],
      "name": "antiBotSellLiquidityTax",
      "outputs": [
        {
          "internalType": "uint256",
          "name": "",
          "type": "uint256"
        }
      ],
      "stateMutability": "view",
      "type": "function"
    },
    {
      "inputs": [],
      "name": "antiBotSellMarketingTax",
      "outputs": [
        {
          "internalType": "uint256",
          "name": "",
          "type": "uint256"
        }
      ],
      "stateMutability": "view",
      "type": "function"
    },
    {
      "inputs": [],
      "name": "antiBotSellRewardsTax",
      "outputs": [
        {
          "internalType": "uint256",
          "name": "",
          "type": "uint256"
        }
      ],
      "stateMutability": "view",
      "type": "function"
    },
    {
      "inputs": [
        {
          "internalType": "address",
          "name": "spender",
          "type": "address"
        },
        {
          "internalType": "uint256",
          "name": "amount",
          "type": "uint256"
        }
      ],
      "name": "approve",
      "outputs": [
        {
          "internalType": "bool",
          "name": "",
          "type": "bool"
        }
      ],
      "stateMutability": "nonpayable",
      "type": "function"
    },
    {
      "inputs": [
        {
          "internalType": "address",
          "name": "account",
          "type": "address"
        }
      ],
      "name": "balanceOf",
      "outputs": [
        {
          "internalType": "uint256",
          "name": "",
          "type": "uint256"
        }
      ],
      "stateMutability": "view",
      "type": "function"
    },
    {
      "inputs": [],
      "name": "buyDevelopmentTax",
      "outputs": [
        {
          "internalType": "uint256",
          "name": "",
          "type": "uint256"
        }
      ],
      "stateMutability": "view",
      "type": "function"
    },
    {
      "inputs": [],
      "name": "buyLiquidityTax",
      "outputs": [
        {
          "internalType": "uint256",
          "name": "",
          "type": "uint256"
        }
      ],
      "stateMutability": "view",
      "type": "function"
    },
    {
      "inputs": [],
      "name": "buyMarketingTax",
      "outputs": [
        {
          "internalType": "uint256",
          "name": "",
          "type": "uint256"
        }
      ],
      "stateMutability": "view",
      "type": "function"
    },
    {
      "inputs": [],
      "name": "buyRewardsTax",
      "outputs": [
        {
          "internalType": "uint256",
          "name": "",
          "type": "uint256"
        }
      ],
      "stateMutability": "view",
      "type": "function"
    },
    {
      "inputs": [],
      "name": "decimals",
      "outputs": [
        {
          "internalType": "uint8",
          "name": "",
          "type": "uint8"
        }
      ],
      "stateMutability": "view",
      "type": "function"
    },
    {
      "inputs": [
        {
          "internalType": "address",
          "name": "spender",
          "type": "address"
        },
        {
          "internalType": "uint256",
          "name": "subtractedValue",
          "type": "uint256"
        }
      ],
      "name": "decreaseAllowance",
      "outputs": [
        {
          "internalType": "bool",
          "name": "",
          "type": "bool"
        }
      ],
      "stateMutability": "nonpayable",
      "type": "function"
    },
    {
      "inputs": [],
      "name": "developmentAddress",
      "outputs": [
        {
          "internalType": "address payable",
          "name": "",
          "type": "address"
        }
      ],
      "stateMutability": "view",
      "type": "function"
    },
    {
      "inputs": [],
      "name": "gameAddress",
      "outputs": [
        {
          "internalType": "address payable",
          "name": "",
          "type": "address"
        }
      ],
      "stateMutability": "view",
      "type": "function"
    },
    {
      "inputs": [],
      "name": "getOwners",
      "outputs": [
        {
          "internalType": "address[]",
          "name": "",
          "type": "address[]"
        }
      ],
      "stateMutability": "view",
      "type": "function"
    },
    {
      "inputs": [
        {
          "internalType": "address",
          "name": "spender",
          "type": "address"
        },
        {
          "internalType": "uint256",
          "name": "addedValue",
          "type": "uint256"
        }
      ],
      "name": "increaseAllowance",
      "outputs": [
        {
          "internalType": "bool",
          "name": "",
          "type": "bool"
        }
      ],
      "stateMutability": "nonpayable",
      "type": "function"
    },
    {
      "inputs": [
        {
          "internalType": "address",
          "name": "",
          "type": "address"
        }
      ],
      "name": "isExcludedFromTax",
      "outputs": [
        {
          "internalType": "bool",
          "name": "",
          "type": "bool"
        }
      ],
      "stateMutability": "view",
      "type": "function"
    },
    {
      "inputs": [
        {
          "internalType": "address",
          "name": "owner",
          "type": "address"
        }
      ],
      "name": "isOwner",
      "outputs": [
        {
          "internalType": "bool",
          "name": "",
          "type": "bool"
        }
      ],
      "stateMutability": "view",
      "type": "function"
    },
    {
      "inputs": [],
      "name": "isPaused",
      "outputs": [
        {
          "internalType": "bool",
          "name": "",
          "type": "bool"
        }
      ],
      "stateMutability": "view",
      "type": "function"
    },
    {
      "inputs": [],
      "name": "liquidityTaxEnabled",
      "outputs": [
        {
          "internalType": "bool",
          "name": "",
          "type": "bool"
        }
      ],
      "stateMutability": "view",
      "type": "function"
    },
    {
      "inputs": [],
      "name": "marketingAddress",
      "outputs": [
        {
          "internalType": "address payable",
          "name": "",
          "type": "address"
        }
      ],
      "stateMutability": "view",
      "type": "function"
    },
    {
      "inputs": [],
      "name": "name",
      "outputs": [
        {
          "internalType": "string",
          "name": "",
          "type": "string"
        }
      ],
      "stateMutability": "view",
      "type": "function"
    },
    {
      "inputs": [],
      "name": "nftAddress",
      "outputs": [
        {
          "internalType": "address payable",
          "name": "",
          "type": "address"
        }
      ],
      "stateMutability": "view",
      "type": "function"
    },
    {
      "inputs": [
        {
          "internalType": "address",
          "name": "owner",
          "type": "address"
        }
      ],
      "name": "removeOwner",
      "outputs": [],
      "stateMutability": "nonpayable",
      "type": "function"
    },
    {
      "inputs": [],
      "name": "renounceOwnership",
      "outputs": [],
      "stateMutability": "nonpayable",
      "type": "function"
    },
    {
      "inputs": [],
      "name": "renounced",
      "outputs": [
        {
          "internalType": "bool",
          "name": "",
          "type": "bool"
        }
      ],
      "stateMutability": "view",
      "type": "function"
    },
    {
      "inputs": [],
      "name": "rewardsAddress",
      "outputs": [
        {
          "internalType": "address payable",
          "name": "",
          "type": "address"
        }
      ],
      "stateMutability": "view",
      "type": "function"
    },
    {
      "inputs": [],
      "name": "sellDevelopmentTax",
      "outputs": [
        {
          "internalType": "uint256",
          "name": "",
          "type": "uint256"
        }
      ],
      "stateMutability": "view",
      "type": "function"
    },
    {
      "inputs": [],
      "name": "sellLiquidityTax",
      "outputs": [
        {
          "internalType": "uint256",
          "name": "",
          "type": "uint256"
        }
      ],
      "stateMutability": "view",
      "type": "function"
    },
    {
      "inputs": [],
      "name": "sellMarketingTax",
      "outputs": [
        {
          "internalType": "uint256",
          "name": "",
          "type": "uint256"
        }
      ],
      "stateMutability": "view",
      "type": "function"
    },
    {
      "inputs": [],
      "name": "sellRewardsTax",
      "outputs": [
        {
          "internalType": "uint256",
          "name": "",
          "type": "uint256"
        }
      ],
      "stateMutability": "view",
      "type": "function"
    },
    {
      "inputs": [
        {
          "internalType": "bool",
          "name": "isPaused_",
          "type": "bool"
        }
      ],
      "name": "setIsPaused",
      "outputs": [],
      "stateMutability": "nonpayable",
      "type": "function"
    },
    {
      "inputs": [],
      "name": "symbol",
      "outputs": [
        {
          "internalType": "string",
          "name": "",
          "type": "string"
        }
      ],
      "stateMutability": "view",
      "type": "function"
    },
    {
      "inputs": [],
      "name": "totalSupply",
      "outputs": [
        {
          "internalType": "uint256",
          "name": "",
          "type": "uint256"
        }
      ],
      "stateMutability": "view",
      "type": "function"
    },
    {
      "inputs": [
        {
          "internalType": "address",
          "name": "to",
          "type": "address"
        },
        {
          "internalType": "uint256",
          "name": "amount",
          "type": "uint256"
        }
      ],
      "name": "transfer",
      "outputs": [
        {
          "internalType": "bool",
          "name": "",
          "type": "bool"
        }
      ],
      "stateMutability": "nonpayable",
      "type": "function"
    },
    {
      "inputs": [
        {
          "internalType": "address",
          "name": "from",
          "type": "address"
        },
        {
          "internalType": "address",
          "name": "to",
          "type": "address"
        },
        {
          "internalType": "uint256",
          "name": "amount",
          "type": "uint256"
        }
      ],
      "name": "transferFrom",
      "outputs": [
        {
          "internalType": "bool",
          "name": "",
          "type": "bool"
        }
      ],
      "stateMutability": "nonpayable",
      "type": "function"
    },
    {
      "stateMutability": "payable",
      "type": "receive"
    },
    {
      "inputs": [],
      "name": "emergencyMintRewards",
      "outputs": [],
      "stateMutability": "nonpayable",
      "type": "function"
    },
    {
      "inputs": [
        {
          "internalType": "uint256",
          "name": "amountToken",
          "type": "uint256"
        }
      ],
      "name": "addInitialLiquidity",
      "outputs": [],
      "stateMutability": "payable",
      "type": "function"
    },
    {
      "inputs": [],
      "name": "activateTradeWithAntibot",
      "outputs": [],
      "stateMutability": "nonpayable",
      "type": "function"
    },
    {
      "inputs": [
        {
          "internalType": "uint256",
          "name": "sellDevelopmentTax_",
          "type": "uint256"
        },
        {
          "internalType": "uint256",
          "name": "sellMarketingTax_",
          "type": "uint256"
        },
        {
          "internalType": "uint256",
          "name": "sellLiquidityTax_",
          "type": "uint256"
        },
        {
          "internalType": "uint256",
          "name": "sellRewardsTax_",
          "type": "uint256"
        }
      ],
      "name": "setAntiBotSellTaxes",
      "outputs": [],
      "stateMutability": "nonpayable",
      "type": "function"
    },
    {
      "inputs": [
        {
          "internalType": "uint256",
          "name": "sellDevelopmentTax_",
          "type": "uint256"
        },
        {
          "internalType": "uint256",
          "name": "sellMarketingTax_",
          "type": "uint256"
        },
        {
          "internalType": "uint256",
          "name": "sellLiquidityTax_",
          "type": "uint256"
        },
        {
          "internalType": "uint256",
          "name": "sellRewardsTax_",
          "type": "uint256"
        }
      ],
      "name": "setSellTaxes",
      "outputs": [],
      "stateMutability": "nonpayable",
      "type": "function"
    },
    {
      "inputs": [
        {
          "internalType": "uint256",
          "name": "buyDevelopmentTax_",
          "type": "uint256"
        },
        {
          "internalType": "uint256",
          "name": "buyMarketingTax_",
          "type": "uint256"
        },
        {
          "internalType": "uint256",
          "name": "buyLiquidityTax_",
          "type": "uint256"
        },
        {
          "internalType": "uint256",
          "name": "buyRewardsTax_",
          "type": "uint256"
        }
      ],
      "name": "setBuyTaxes",
      "outputs": [],
      "stateMutability": "nonpayable",
      "type": "function"
    },
    {
      "inputs": [
        {
          "internalType": "address",
          "name": "developmentAddress_",
          "type": "address"
        },
        {
          "internalType": "address",
          "name": "marketingAddress_",
          "type": "address"
        },
        {
          "internalType": "address",
          "name": "rewardsAddress_",
          "type": "address"
        }
      ],
      "name": "setTaxAddresses",
      "outputs": [],
      "stateMutability": "nonpayable",
      "type": "function"
    },
    {
      "inputs": [
        {
          "internalType": "address",
          "name": "routerAddress",
          "type": "address"
        }
      ],
      "name": "setRouter",
      "outputs": [],
      "stateMutability": "nonpayable",
      "type": "function"
    },
    {
      "inputs": [
        {
          "internalType": "address",
          "name": "gameAddress_",
          "type": "address"
        },
        {
          "internalType": "address",
          "name": "nftAddress_",
          "type": "address"
        }
      ],
      "name": "setInternalAddresses",
      "outputs": [],
      "stateMutability": "nonpayable",
      "type": "function"
    },
    {
      "inputs": [
        {
          "internalType": "address",
          "name": "address_",
          "type": "address"
        }
      ],
      "name": "removeBlacklistedAddress",
      "outputs": [],
      "stateMutability": "nonpayable",
      "type": "function"
    },
    {
      "inputs": [
        {
          "internalType": "bool",
          "name": "liquidityTaxEnabled_",
          "type": "bool"
        }
      ],
      "name": "setLiquidityTaxEnabled",
      "outputs": [],
      "stateMutability": "nonpayable",
      "type": "function"
    },
    {
      "inputs": [
        {
          "internalType": "address",
          "name": "address_",
          "type": "address"
        }
      ],
      "name": "addTaxExcludedAddress",
      "outputs": [],
      "stateMutability": "nonpayable",
      "type": "function"
    },
    {
      "inputs": [
        {
          "internalType": "address",
          "name": "address_",
          "type": "address"
        }
      ],
      "name": "removeTaxExcludedAddress",
      "outputs": [],
      "stateMutability": "nonpayable",
      "type": "function"
    },
    {
      "inputs": [
        {
          "internalType": "uint256",
          "name": "emergencyMintAmount_",
          "type": "uint256"
        }
      ],
      "name": "setEmergencyMintAmount",
      "outputs": [],
      "stateMutability": "nonpayable",
      "type": "function"
    },
    {
      "inputs": [
        {
          "internalType": "uint256",
          "name": "minBalanceForSwapAndTransfer_",
          "type": "uint256"
        }
      ],
      "name": "setMinBalanceForSwapAndTransfer",
      "outputs": [],
      "stateMutability": "nonpayable",
      "type": "function"
    }
  ],
  "bytecode": "0x60a06040526109c4608052610e10600c556002600d5568056bc75e2d63100000600e819055610384600f819055601055610190601181905561012c60128190556014805460ff19166001179055678ac7230489e80000601555601781905560185560195560c8601a819055601b819055601c819055601d556064601e556025553480156200008c57600080fd5b5060405162003b2338038062003b23833981016040819052620000af9162000771565b604051806040016040528060058152602001642a37b5b2b760d91b815250604051806040016040528060038152602001622a25a760e91b815250816003908051906020019062000101929190620006ae565b50805162000117906004906020840190620006ae565b50505033620001785760405162461bcd60e51b815260206004820152602260248201527f43616e277420696e697469616c697a652077697468207a65726f206164647265604482015261737360f01b60648201526084015b60405180910390fd5b60058054610100600160a81b031916336101008102919091179091556000818152600660205260408120805460ff1916600190811790915560078054808301825592527fa66cc928b5edb82af9bd49922954155ab7b0942694bea4ce44661d9a8736c68890910180546001600160a01b031916909217909155620001fc9062000347565b601f8054336001600160a01b031991821681179092556020805482166001600160a01b0386811691909117909155602180548316878316179055602280548316898316179055602380549092169087161790556200027e906200025d601290565b6200026a90600a620008f6565b6200027890610d056200090e565b62000410565b602154620002ab906001600160a01b03166200029d6012600a620008f6565b6200027890611a0b6200090e565b601f546001600160a01b0390811660009081526024602090815260408083208054600160ff199182168117909255925485168452818420805484168217905560215485168452818420805484168217905560225485168452818420805484168217905560235490941683528083208054831685179055308352909120805490911690911790556200033c81620004f5565b5050505050620009a6565b60055460ff16156200039c5760405162461bcd60e51b815260206004820152601360248201527f4f776e6572736869702072656e6f756e6365640000000000000000000000000060448201526064016200016f565b3360009081526006602052604090205460ff16620003fd5760405162461bcd60e51b815260206004820152601660248201527f43616c6c6572206973206e6f7420616e206f776e65720000000000000000000060448201526064016200016f565b6008805460ff1916911515919091179055565b6001600160a01b038216620004685760405162461bcd60e51b815260206004820152601f60248201527f45524332303a206d696e7420746f20746865207a65726f20616464726573730060448201526064016200016f565b80600260008282546200047c919062000930565b90915550506001600160a01b03821660009081526020819052604081208054839290620004ab90849062000930565b90915550506040518181526001600160a01b038316906000907fddf252ad1be2c89b69c2b068fc378daa952ba7f163c4a11628f55a4df523b3ef9060200160405180910390a35050565b602680546001600160a01b0319166001600160a01b0383169081179091556040805163c45a015560e01b8152905163c45a0155916004808201926020929091908290030181865afa1580156200054f573d6000803e3d6000fd5b505050506040513d601f19601f820116820180604052508101906200057591906200094b565b6001600160a01b031663c9c6539630602660009054906101000a90046001600160a01b03166001600160a01b031663ad5c46486040518163ffffffff1660e01b8152600401602060405180830381865afa158015620005d8573d6000803e3d6000fd5b505050506040513d601f19601f82011682018060405250810190620005fe91906200094b565b6040516001600160e01b031960e085901b1681526001600160a01b039283166004820152911660248201526044016020604051808303816000875af11580156200064c573d6000803e3d6000fd5b505050506040513d601f19601f820116820180604052508101906200067291906200094b565b602780546001600160a01b0319166001600160a01b03928316179055602654166000908152602460205260409020805460ff1916600117905550565b828054620006bc9062000969565b90600052602060002090601f016020900481019282620006e057600085556200072b565b82601f10620006fb57805160ff19168380011785556200072b565b828001600101855582156200072b579182015b828111156200072b5782518255916020019190600101906200070e565b50620007399291506200073d565b5090565b5b808211156200073957600081556001016200073e565b80516001600160a01b03811681146200076c57600080fd5b919050565b600080600080600060a086880312156200078a57600080fd5b620007958662000754565b9450620007a56020870162000754565b9350620007b56040870162000754565b9250620007c56060870162000754565b9150620007d56080870162000754565b90509295509295909350565b634e487b7160e01b600052601160045260246000fd5b600181815b80851115620008385781600019048211156200081c576200081c620007e1565b808516156200082a57918102915b93841c9390800290620007fc565b509250929050565b6000826200085157506001620008f0565b816200086057506000620008f0565b81600181146200087957600281146200088457620008a4565b6001915050620008f0565b60ff841115620008985762000898620007e1565b50506001821b620008f0565b5060208310610133831016604e8410600b8410161715620008c9575081810a620008f0565b620008d58383620007f7565b8060001904821115620008ec57620008ec620007e1565b0290505b92915050565b60006200090760ff84168362000840565b9392505050565b60008160001904831182151516156200092b576200092b620007e1565b500290565b60008219821115620009465762000946620007e1565b500190565b6000602082840312156200095e57600080fd5b620009078262000754565b600181811c908216806200097e57607f821691505b60208210811415620009a057634e487b7160e01b600052602260045260246000fd5b50919050565b60805161314c620009d7600039600081816105c7015281816113e7015281816118980152611a47015261314c6000f3fe6080604052600436106102745760003560e01c806306fdde0314610280578063095ea7b3146102ab5780631267f2a6146102db578063173825d9146102fd57806318160ddd1461031d5780631a9431a91461033c57806323b872dd1461035c578063240976bf1461037c5780632c505fb31461039c5780632f54bf6e146103b6578063313ce567146103d657806333012411146103f25780633328b72114610408578063395093511461042857806341a22cc21461044857806358fd44a51461045b5780635a686d541461047b5780635bf8633a146104915780636053b881146104c9578063638b1b14146104df5780636ab91206146104ff5780636eee2b46146105155780637065cb481461052a57806370a082311461054a578063715018a61461056a578063738c865c1461057f5780637c546d80146105955780637f635cc0146105b5578063810a71a3146105e9578063887d63171461061957806395d89b4114610639578063993df94e1461064e578063a0e67e2b14610664578063a168d87314610686578063a2cbba28146106a6578063a457c2d7146106bc578063a5ece941146106dc578063a9059cbb146106fc578063ad8052bb1461071c578063b187bd2614610732578063c0973eed1461074c578063c0d786551461076c578063cb1485b41461078c578063cb4ca631146107a2578063cc9c49a6146107d2578063cdca7083146107f2578063d16c99c014610812578063d232c22014610828578063dd62ed3e14610842578063de439fcc14610862578063e4bf1bed14610878578063e6c0329514610898578063e96db1ef146108ad578063f480fec2146108c3578063fd0b8449146108e357600080fd5b3661027b57005b600080fd5b34801561028c57600080fd5b50610295610903565b6040516102a29190612c5e565b60405180910390f35b3480156102b757600080fd5b506102cb6102c6366004612cc8565b610995565b60405190151581526020016102a2565b3480156102e757600080fd5b506102fb6102f6366004612cf4565b6109ad565b005b34801561030957600080fd5b506102fb610318366004612d0d565b610a0d565b34801561032957600080fd5b506002545b6040519081526020016102a2565b34801561034857600080fd5b506102fb610357366004612d31565b610d0c565b34801561036857600080fd5b506102cb610377366004612d53565b610d71565b34801561038857600080fd5b506102fb610397366004612d31565b610d95565b3480156103a857600080fd5b506014546102cb9060ff1681565b3480156103c257600080fd5b506102cb6103d1366004612d0d565b610dfa565b3480156103e257600080fd5b50604051601281526020016102a2565b3480156103fe57600080fd5b5061032e601c5481565b34801561041457600080fd5b506102fb610423366004612d0d565b610e18565b34801561043457600080fd5b506102cb610443366004612cc8565b610e8b565b6102fb610456366004612cf4565b610eca565b34801561046757600080fd5b506102fb610476366004612d94565b611064565b34801561048757600080fd5b5061032e601d5481565b34801561049d57600080fd5b506023546104b1906001600160a01b031681565b6040516001600160a01b0390911681526020016102a2565b3480156104d557600080fd5b5061032e60195481565b3480156104eb57600080fd5b50601f546104b1906001600160a01b031681565b34801561050b57600080fd5b5061032e601a5481565b34801561052157600080fd5b506102fb61111b565b34801561053657600080fd5b506102fb610545366004612d0d565b611189565b34801561055657600080fd5b5061032e610565366004612d0d565b61126c565b34801561057657600080fd5b506102fb611287565b34801561058b57600080fd5b5061032e600f5481565b3480156105a157600080fd5b506102fb6105b0366004612dcd565b611340565b3480156105c157600080fd5b5061032e7f000000000000000000000000000000000000000000000000000000000000000081565b3480156105f557600080fd5b506102cb610604366004612d0d565b60136020526000908152604090205460ff1681565b34801561062557600080fd5b506102fb610634366004612dff565b611458565b34801561064557600080fd5b506102956115c2565b34801561065a57600080fd5b5061032e601b5481565b34801561067057600080fd5b506106796115d1565b6040516102a29190612e8e565b34801561069257600080fd5b506022546104b1906001600160a01b031681565b3480156106b257600080fd5b5061032e601e5481565b3480156106c857600080fd5b506102cb6106d7366004612cc8565b611632565b3480156106e857600080fd5b506020546104b1906001600160a01b031681565b34801561070857600080fd5b506102cb610717366004612cc8565b6116c4565b34801561072857600080fd5b5061032e60175481565b34801561073e57600080fd5b506008546102cb9060ff1681565b34801561075857600080fd5b506021546104b1906001600160a01b031681565b34801561077857600080fd5b506102fb610787366004612d0d565b6116d2565b34801561079857600080fd5b5061032e60105481565b3480156107ae57600080fd5b506102cb6107bd366004612d0d565b60246020526000908152604090205460ff1681565b3480156107de57600080fd5b506102fb6107ed366004612d0d565b611730565b3480156107fe57600080fd5b506102fb61080d366004612d0d565b6117a3565b34801561081e57600080fd5b5061032e60115481565b34801561083457600080fd5b506005546102cb9060ff1681565b34801561084e57600080fd5b5061032e61085d366004612d94565b611819565b34801561086e57600080fd5b5061032e60125481565b34801561088457600080fd5b506102fb610893366004612dcd565b611844565b3480156108a457600080fd5b506102fb611909565b3480156108b957600080fd5b5061032e60185481565b3480156108cf57600080fd5b506102fb6108de366004612dcd565b6119f3565b3480156108ef57600080fd5b506102fb6108fe366004612cf4565b611ab8565b60606003805461091290612ea1565b80601f016020809104026020016040519081016040528092919081815260200182805461093e90612ea1565b801561098b5780601f106109605761010080835404028352916020019161098b565b820191906000526020600020905b81548152906001019060200180831161096e57829003601f168201915b5050505050905090565b6000336109a3818585611b0f565b5060019392505050565b60055460ff16156109d95760405162461bcd60e51b81526004016109d090612edc565b60405180910390fd5b3360009081526006602052604090205460ff16610a085760405162461bcd60e51b81526004016109d090612f09565b602555565b60055460ff1615610a305760405162461bcd60e51b81526004016109d090612edc565b3360009081526006602052604090205460ff16610a5f5760405162461bcd60e51b81526004016109d090612f09565b6001600160a01b03811660009081526006602052604090205460ff16610ac15760405162461bcd60e51b815260206004820152601760248201527620b2323932b9b99034b9903737ba1030b71037bbb732b960491b60448201526064016109d0565b60055461010090046001600160a01b0316331415610b215760405162461bcd60e51b815260206004820152601d60248201527f4d6173746572206f776e65722063616e27742062652072656d6f76656400000060448201526064016109d0565b60075460005b600754811015610ca857826001600160a01b031660078281548110610b4e57610b4e612f39565b6000918252602090912001546001600160a01b03161415610c96576001600160a01b0383166000908152600660205260409020805460ff19169055805b600754610b9a90600190612f65565b811015610c25576007610bae836001612f7c565b81548110610bbe57610bbe612f39565b600091825260209091200154600780546001600160a01b039092169184908110610bea57610bea612f39565b600091825260209091200180546001600160a01b0319166001600160a01b039290921691909117905580610c1d81612f94565b915050610b8b565b506007805480610c3757610c37612faf565b600082815260208120820160001990810180546001600160a01b031916905590910190915560405142916001600160a01b0386169133917fecc5dd9888b87e7ed252d66b9c086ab819de6c8f8b96c8e5458e105bacfbb02791a4610ca8565b80610ca081612f94565b915050610b27565b50600754818110610d075760405162461bcd60e51b8152602060048201526024808201527f536f6d657468696e672077656e742077726f6e672072656d6f76696e67206f776044820152636e65727360e01b60648201526084016109d0565b505050565b60055460ff1615610d2f5760405162461bcd60e51b81526004016109d090612edc565b3360009081526006602052604090205460ff16610d5e5760405162461bcd60e51b81526004016109d090612f09565b6014805460ff1916911515919091179055565b600033610d7f858285611c33565b610d8a858585611cad565b506001949350505050565b60055460ff1615610db85760405162461bcd60e51b81526004016109d090612edc565b3360009081526006602052604090205460ff16610de75760405162461bcd60e51b81526004016109d090612f09565b6008805460ff1916911515919091179055565b6001600160a01b031660009081526006602052604090205460ff1690565b60055460ff1615610e3b5760405162461bcd60e51b81526004016109d090612edc565b3360009081526006602052604090205460ff16610e6a5760405162461bcd60e51b81526004016109d090612f09565b6001600160a01b03166000908152601360205260409020805460ff19169055565b3360008181526001602090815260408083206001600160a01b03871684529091528120549091906109a39082908690610ec5908790612f7c565b611b0f565b60055460ff1615610eed5760405162461bcd60e51b81526004016109d090612edc565b3360009081526006602052604090205460ff16610f1c5760405162461bcd60e51b81526004016109d090612f09565b6026546001600160a01b031680610f6a5760405162461bcd60e51b8152602060048201526012602482015271149bdd5d195c881b9bdd081cd95d081e595d60721b60448201526064016109d0565b81610f743361126c565b1015610fd45760405162461bcd60e51b815260206004820152602960248201527f53656e64657220646f6573206e6f74206861766520656e6f75676820746f6b656044820152686e2062616c616e636560b81b60648201526084016109d0565b81610fdf3330611819565b10156110405760405162461bcd60e51b815260206004820152602a60248201527f4e6f7420656e6f75676820616c6c6f77616e636520676976656e20746f207468604482015269194818dbdb9d1c9858dd60b21b60648201526084016109d0565b61104b338284611b0f565b611056333084611ec9565b6110603483612085565b5050565b60055460ff16156110875760405162461bcd60e51b81526004016109d090612edc565b3360009081526006602052604090205460ff166110b65760405162461bcd60e51b81526004016109d090612f09565b602280546001600160a01b039384166001600160a01b031991821681179092556023805493851693909116929092178255600090815260246020526040808220805460ff19908116600190811790925593549094168252902080549091169091179055565b6021546001600160a01b0316331461116e5760405162461bcd60e51b81526020600482015260166024820152751059191c995cdcc81b9bdd08185d5d1a1bdc9a5e995960521b60448201526064016109d0565b602154602554611187916001600160a01b0316906121a0565b565b60055460ff16156111ac5760405162461bcd60e51b81526004016109d090612edc565b3360009081526006602052604090205460ff166111db5760405162461bcd60e51b81526004016109d090612f09565b6001600160a01b038116600081815260066020526040808220805460ff1916600190811790915560078054918201815583527fa66cc928b5edb82af9bd49922954155ab7b0942694bea4ce44661d9a8736c6880180546001600160a01b031916841790555142929133917fa0b18fca933618876351ba2ef88bf4505c184d3e55064bec0d7fe236dd706d849190a450565b6001600160a01b031660009081526020819052604090205490565b60055461010090046001600160a01b031633146112f75760405162461bcd60e51b815260206004820152602860248201527f4f6e6c79206d6173746572206f776e65722063616e2072656e6f756e6365206f6044820152670776e6572736869760c41b60648201526084016109d0565b6005805460ff191660011790556040517f7738dc8b7a10a5636dceada812073a582b717ce047d82cd0e4918662b2e7c773906113369042815260200190565b60405180910390a1565b60055460ff16156113635760405162461bcd60e51b81526004016109d090612edc565b3360009081526006602052604090205460ff166113925760405162461bcd60e51b81526004016109d090612f09565b600854610100900460ff166113e55760405162461bcd60e51b8152602060048201526019602482015278105b9d1a589bdd081c195c9a5bd9081a185cc81c185cdcd959603a1b60448201526064016109d0565b7f000000000000000000000000000000000000000000000000000000000000000081836114128688612f7c565b61141c9190612f7c565b6114269190612f7c565b11156114445760405162461bcd60e51b81526004016109d090612fc5565b600f93909355601091909155601255601155565b60055460ff161561147b5760405162461bcd60e51b81526004016109d090612edc565b3360009081526006602052604090205460ff166114aa5760405162461bcd60e51b81526004016109d090612f09565b6001600160a01b03831615806114c757506001600160a01b038216155b806114d957506001600160a01b038116155b1561153c5760405162461bcd60e51b815260206004820152602d60248201527f4e6f6e65206f6620746865206164647265737365732063616e2774206265207a60448201526c65726f2061646472657373657360981b60648201526084016109d0565b601f80546001600160a01b03199081166001600160a01b03958616908117909255602080548216948616949094178455602180549091169285169290921782556000908152602483526040808220805460ff1990811660019081179092559454861683528183208054861682179055925490941681529290922080549091169091179055565b60606004805461091290612ea1565b6060600780548060200260200160405190810160405280929190818152602001828054801561098b57602002820191906000526020600020905b81546001600160a01b0316815260019091019060200180831161160b575050505050905090565b3360008181526001602090815260408083206001600160a01b0387168452909152812054909190838110156116b75760405162461bcd60e51b815260206004820152602560248201527f45524332303a2064656372656173656420616c6c6f77616e63652062656c6f77604482015264207a65726f60d81b60648201526084016109d0565b610d8a8286868403611b0f565b6000336109a3818585611cad565b60055460ff16156116f55760405162461bcd60e51b81526004016109d090612edc565b3360009081526006602052604090205460ff166117245760405162461bcd60e51b81526004016109d090612f09565b61172d8161226d565b50565b60055460ff16156117535760405162461bcd60e51b81526004016109d090612edc565b3360009081526006602052604090205460ff166117825760405162461bcd60e51b81526004016109d090612f09565b6001600160a01b03166000908152602460205260409020805460ff19169055565b60055460ff16156117c65760405162461bcd60e51b81526004016109d090612edc565b3360009081526006602052604090205460ff166117f55760405162461bcd60e51b81526004016109d090612f09565b6001600160a01b03166000908152602460205260409020805460ff19166001179055565b6001600160a01b03918216600090815260016020908152604080832093909416825291909152205490565b60055460ff16156118675760405162461bcd60e51b81526004016109d090612edc565b3360009081526006602052604090205460ff166118965760405162461bcd60e51b81526004016109d090612f09565b7f000000000000000000000000000000000000000000000000000000000000000081836118c38688612f7c565b6118cd9190612f7c565b6118d79190612f7c565b11156118f55760405162461bcd60e51b81526004016109d090612fc5565b601b93909355601c91909155601e55601d55565b60055460ff161561192c5760405162461bcd60e51b81526004016109d090612edc565b3360009081526006602052604090205460ff1661195b5760405162461bcd60e51b81526004016109d090612f09565b60085462010000900460ff16156119b35760405162461bcd60e51b815260206004820152601c60248201527b20b73a34b137ba103430b99030b63932b0b23c903132b2b7103930b760211b60448201526064016109d0565b6008805462ffff00191662010100179055426009819055600c546119d691612f7c565b600a55600d546119e69043612f7c565b600b556111876000610d95565b60055460ff1615611a165760405162461bcd60e51b81526004016109d090612edc565b3360009081526006602052604090205460ff16611a455760405162461bcd60e51b81526004016109d090612f09565b7f00000000000000000000000000000000000000000000000000000000000000008183611a728688612f7c565b611a7c9190612f7c565b611a869190612f7c565b1115611aa45760405162461bcd60e51b81526004016109d090612fc5565b601793909355601891909155601a55601955565b60055460ff1615611adb5760405162461bcd60e51b81526004016109d090612edc565b3360009081526006602052604090205460ff16611b0a5760405162461bcd60e51b81526004016109d090612f09565b601555565b6001600160a01b038316611b715760405162461bcd60e51b8152602060048201526024808201527f45524332303a20617070726f76652066726f6d20746865207a65726f206164646044820152637265737360e01b60648201526084016109d0565b6001600160a01b038216611bd25760405162461bcd60e51b815260206004820152602260248201527f45524332303a20617070726f766520746f20746865207a65726f206164647265604482015261737360f01b60648201526084016109d0565b6001600160a01b0383811660008181526001602090815260408083209487168084529482529182902085905590518481527f8c5be1e5ebec7d5bd14f71427d1e84f3dd0314c0f7b2291e5b200ac8c7c3b925910160405180910390a3505050565b6000611c3f8484611819565b90506000198114611ca75781811015611c9a5760405162461bcd60e51b815260206004820152601d60248201527f45524332303a20696e73756666696369656e7420616c6c6f77616e636500000060448201526064016109d0565b611ca78484848403611b0f565b50505050565b32611cb781610dfa565b611d005760085460ff1615611d005760405162461bcd60e51b815260206004820152600f60248201526e10dbdb9d1c9858dd081c185d5cd959608a1b60448201526064016109d0565b6000806000806000611d1389898961241d565b945094509450945094508015611d2d575050505050611ca7565b86611d4857611d3e89896000611ec9565b5050505050611ca7565b6001600160a01b03891660009081526024602052604081205460ff16158015611d8a57506001600160a01b03891660009081526024602052604090205460ff16155b90506000611d973061126c565b60165490915060ff16158015611daf57506015548110155b8015611dc857506027546001600160a01b038b81169116145b8015611dd15750815b15611de257611de281888888612635565b60165460009060ff16158015611df55750825b90508015611eb05760408051600480825260a08201909252600091602082016080803683370190505090508881600081518110611e3457611e34612f39565b6020026020010181815250508781600181518110611e5457611e54612f39565b6020026020010181815250508681600281518110611e7457611e74612f39565b6020026020010181815250508581600381518110611e9457611e94612f39565b602002602001018181525050611eac8b8e8e846126e7565b9a50505b611ebb8c8c8c611ec9565b505050505050505050505050565b6001600160a01b038316611f2d5760405162461bcd60e51b815260206004820152602560248201527f45524332303a207472616e736665722066726f6d20746865207a65726f206164604482015264647265737360d81b60648201526084016109d0565b6001600160a01b038216611f8f5760405162461bcd60e51b815260206004820152602360248201527f45524332303a207472616e7366657220746f20746865207a65726f206164647260448201526265737360e81b60648201526084016109d0565b6001600160a01b038316600090815260208190526040902054818110156120075760405162461bcd60e51b815260206004820152602660248201527f45524332303a207472616e7366657220616d6f756e7420657863656564732062604482015265616c616e636560d01b60648201526084016109d0565b6001600160a01b0380851660009081526020819052604080822085850390559185168152908120805484929061203e908490612f7c565b92505081905550826001600160a01b0316846001600160a01b03166000805160206130f78339815191528460405161207891815260200190565b60405180910390a3611ca7565b60265461209d9030906001600160a01b031683611b0f565b602654601f546001600160a01b039182169163f305d719918591309186916000918291166120cc42603c612f7c565b60405160e089901b6001600160e01b03191681526001600160a01b039687166004820152602481019590955260448501939093526064840191909152909216608482015260a481019190915260c40160606040518083038185885af1158015612139573d6000803e3d6000fd5b50505050506040513d601f19601f8201168201806040525081019061215e919061300d565b5050507fac1d76749e5447b7b16f5ab61447e1bd502f3bb4807af3b28e620d1700a6ee453283836040516121949392919061303b565b60405180910390a15050565b6001600160a01b0382166121f65760405162461bcd60e51b815260206004820152601f60248201527f45524332303a206d696e7420746f20746865207a65726f20616464726573730060448201526064016109d0565b80600260008282546122089190612f7c565b90915550506001600160a01b03821660009081526020819052604081208054839290612235908490612f7c565b90915550506040518181526001600160a01b038316906000906000805160206130f78339815191529060200160405180910390a35050565b602680546001600160a01b0319166001600160a01b0383169081179091556040805163c45a015560e01b8152905163c45a0155916004808201926020929091908290030181865afa1580156122c6573d6000803e3d6000fd5b505050506040513d601f19601f820116820180604052508101906122ea919061305c565b6001600160a01b031663c9c6539630602660009054906101000a90046001600160a01b03166001600160a01b031663ad5c46486040518163ffffffff1660e01b8152600401602060405180830381865afa15801561234c573d6000803e3d6000fd5b505050506040513d601f19601f82011682018060405250810190612370919061305c565b6040516001600160e01b031960e085901b1681526001600160a01b039283166004820152911660248201526044016020604051808303816000875af11580156123bd573d6000803e3d6000fd5b505050506040513d601f19601f820116820180604052508101906123e1919061305c565b602780546001600160a01b0319166001600160a01b03928316179055602654166000908152602460205260409020805460ff1916600117905550565b601754601854601a54601954600061243432610dfa565b61262a576001600160a01b03881660009081526013602052604090205460ff1615801561247a57506001600160a01b03871660009081526013602052604090205460ff16155b6124c65760405162461bcd60e51b815260206004820152601f60248201527f53656e646572206f7220726563697069656e7420626c61636b6c69737465640060448201526064016109d0565b600854610100900460ff161561262a57600e548611156125285760405162461bcd60e51b815260206004820152601f60248201527f5472616e73616374696f6e206578636565646564206d617820616d6f756e740060448201526064016109d0565b600b54431161259a57506001600160a01b03871660009081526013602052604090819020805460ff1916600190811790915590517f7aec99f3e4d2abbc174b60cf76fe98b889aed9caec7f65d42215573c5dd230649061258d908a904390429061303b565b60405180910390a161262a565b600a54421161261e576009546000906125b4426001612f7c565b6125be9190612f65565b90506125d4816001600c54601754600f546128d4565b95506125ea816001600c546018546010546128d4565b9450612600816001600c54601a546012546128d4565b9350612616816001600c546019546011546128d4565b92505061262a565b6008805461ff00191690555b939792965093509350565b6016805460ff19166001179055600061264e8385612f7c565b60145490915060ff1615612669576126668282612f7c565b90505b6000816126768688613079565b6126809190613098565b905060008261268f8689613079565b6126999190613098565b90506126a58282612931565b60145460ff16156126d4576000836126bd868a613079565b6126c79190613098565b90506126d281612aa9565b505b50506016805460ff191690555050505050565b602754600090819081908190819081906001600160a01b03898116911614156127e3576127108760008151811061272057612720612f39565b60200260200101518b6127339190613079565b61273d9190613098565b93506127108760018151811061275557612755612f39565b60200260200101518b6127689190613079565b6127729190613098565b92506127108760028151811061278a5761278a612f39565b60200260200101518b61279d9190613079565b6127a79190613098565b9150612710876003815181106127bf576127bf612f39565b60200260200101518b6127d29190613079565b6127dc9190613098565b905061286e565b6027546001600160a01b038a81169116141561286e57612710601b548b61280a9190613079565b6128149190613098565b9350612710601c548b6128279190613079565b6128319190613098565b9250612710601e548b6128449190613079565b61284e9190613098565b9150612710601d548b6128619190613079565b61286b9190613098565b90505b808261287a8587612f7c565b6128849190612f7c565b61288e9190612f7c565b945084156128c6576128a1893087611ec9565b6021546128b99030906001600160a01b031683611ec9565b6128c3858b612f65565b99505b509798975050505050505050565b6000826128e18686612f65565b6128eb8789612f65565b6128f59190613098565b6128ff8585612f65565b6129099190613079565b6129139190612f7c565b61291d8385612f7c565b6129279190612f65565b9695505050505050565b600061293d8284612f7c565b9050600061294a82612af4565b90506000826129598684613079565b6129639190613098565b90506000836129728685613079565b61297c9190613098565b601f546040519192506000916001600160a01b039091169084908381818185875af1925050503d80600081146129ce576040519150601f19603f3d011682016040523d82523d6000602084013e6129d3565b606091505b50506020546040519192506000916001600160a01b039091169084908381818185875af1925050503d8060008114612a27576040519150601f19603f3d011682016040523d82523d6000602084013e612a2c565b606091505b50509050818015612a3a5750805b612a9f5760405162461bcd60e51b815260206004820152603060248201527f436f756c646e27742073656e6420746f20646576656c6f706d656e74206f722060448201526f1b585c9ad95d1a5b99c81dd85b1b195d60821b60648201526084016109d0565b5050505050505050565b6000612ab6600283613098565b90506000612ac48284612f65565b9050476000612ad283612af4565b90506000612ae08383612f65565b9050612aec8186612085565b505050505050565b604080516002808252606082018352600092839291906020830190803683370190505090503081600081518110612b2d57612b2d612f39565b6001600160a01b03928316602091820292909201810191909152602654604080516315ab88c960e31b81529051919093169263ad5c46489260048083019391928290030181865afa158015612b86573d6000803e3d6000fd5b505050506040513d601f19601f82011682018060405250810190612baa919061305c565b81600181518110612bbd57612bbd612f39565b6001600160a01b039283166020918202929092010152602654612be39130911685611b0f565b6026546001600160a01b031663791ac9478460008430612c0442603c612f7c565b6040518663ffffffff1660e01b8152600401612c249594939291906130ba565b600060405180830381600087803b158015612c3e57600080fd5b505af1158015612c52573d6000803e3d6000fd5b50479695505050505050565b600060208083528351808285015260005b81811015612c8b57858101830151858201604001528201612c6f565b81811115612c9d576000604083870101525b50601f01601f1916929092016040019392505050565b6001600160a01b038116811461172d57600080fd5b60008060408385031215612cdb57600080fd5b8235612ce681612cb3565b946020939093013593505050565b600060208284031215612d0657600080fd5b5035919050565b600060208284031215612d1f57600080fd5b8135612d2a81612cb3565b9392505050565b600060208284031215612d4357600080fd5b81358015158114612d2a57600080fd5b600080600060608486031215612d6857600080fd5b8335612d7381612cb3565b92506020840135612d8381612cb3565b929592945050506040919091013590565b60008060408385031215612da757600080fd5b8235612db281612cb3565b91506020830135612dc281612cb3565b809150509250929050565b60008060008060808587031215612de357600080fd5b5050823594602084013594506040840135936060013592509050565b600080600060608486031215612e1457600080fd5b8335612e1f81612cb3565b92506020840135612e2f81612cb3565b91506040840135612e3f81612cb3565b809150509250925092565b600081518084526020808501945080840160005b83811015612e835781516001600160a01b031687529582019590820190600101612e5e565b509495945050505050565b602081526000612d2a6020830184612e4a565b600181811c90821680612eb557607f821691505b60208210811415612ed657634e487b7160e01b600052602260045260246000fd5b50919050565b60208082526013908201527213dddb995c9cda1a5c081c995b9bdd5b98d959606a1b604082015260600190565b60208082526016908201527521b0b63632b91034b9903737ba1030b71037bbb732b960511b604082015260600190565b634e487b7160e01b600052603260045260246000fd5b634e487b7160e01b600052601160045260246000fd5b600082821015612f7757612f77612f4f565b500390565b60008219821115612f8f57612f8f612f4f565b500190565b6000600019821415612fa857612fa8612f4f565b5060010190565b634e487b7160e01b600052603160045260246000fd5b60208082526028908201527f546f74616c207461786573206172652061626f76652074686520616c6c6f77656040820152671908185b5bdd5b9d60c21b606082015260800190565b60008060006060848603121561302257600080fd5b8351925060208401519150604084015190509250925092565b6001600160a01b039390931683526020830191909152604082015260600190565b60006020828403121561306e57600080fd5b8151612d2a81612cb3565b600081600019048311821515161561309357613093612f4f565b500290565b6000826130b557634e487b7160e01b600052601260045260246000fd5b500490565b85815284602082015260a0604082015260006130d960a0830186612e4a565b6001600160a01b039490941660608301525060800152939250505056feddf252ad1be2c89b69c2b068fc378daa952ba7f163c4a11628f55a4df523b3efa264697066735822122053919f22f63edbf792db61d5ff69a884714cd9e9c35db448d5f67728289ce0d964736f6c634300080b0033",
  "immutableReferences": {
    "5645": [
      {
        "length": 32,
        "start": 1479
      },
      {
        "length": 32,
        "start": 5095
      },
      {
        "length": 32,
        "start": 6296
      },
      {
        "length": 32,
        "start": 6727
      }
    ]
  },
  "source": "// SPDX-License-Identifier: MIT\r\n// @boughtthetopkms on Telegram\r\n\r\npragma solidity >=0.4.22 <0.9.0;\r\n\r\nimport \"./PauseOwners.sol\";\r\nimport \"./Rewards.sol\";\r\nimport \"@openzeppelin/contracts/token/ERC20/ERC20.sol\";\r\nimport \"@openzeppelin/contracts/utils/Address.sol\";\r\nimport \"@uniswap/v2-periphery/contracts/interfaces/IUniswapV2Router02.sol\";\r\nimport \"@uniswap/v2-core/contracts/interfaces/IUniswapV2Pair.sol\";\r\nimport \"@uniswap/v2-core/contracts/interfaces/IUniswapV2Factory.sol\";\r\nimport \"@uniswap/v2-periphery/contracts/libraries/UniswapV2Library.sol\";\r\n\r\ncontract Token is ERC20, PauseOwners {\r\n\tevent LiquidityAdded(\r\n\t\taddress sender,\r\n\t\tuint256 amountETH,\r\n\t\tuint256 amountToken\r\n\t);\r\n\tevent Blacklisted(address address_, uint256 block, uint256 timestamp);\r\n\r\n\tuint256 public immutable MAX_TOTAL_FEE = 2500; // We can never surpass this total fee\r\n\r\n\tbool private antiBotEnabled;\r\n\tbool private antiBotRanOnce; // We can only run antibot once, when initial liquidity is added\r\n\tuint256 private antiBotTaxesStartTime; // When when antibot taxes start\r\n\tuint256 private antiBotTaxesEndTime; // Time when antibot taxes end\r\n\tuint256 private antiBotBlockEndBlock; // Block when antibot blacklister no longer works\r\n\tuint256 private antiBotTaxesTimeInSeconds = 3600;\r\n\tuint256 private antiBotBlockTimeInBlocks = 2;\r\n\tuint256 private antiBotMaxTX = 100000000000000000000; // 1% percent of the supply\r\n\r\n\tuint256 public antiBotSellDevelopmentTax = 900;\r\n\tuint256 public antiBotSellMarketingTax = 900;\r\n\tuint256 public antiBotSellRewardsTax = 400;\r\n\tuint256 public antiBotSellLiquidityTax = 300;\r\n\r\n\tmapping(address => bool) public antiBotBlacklist;\r\n\r\n\tbool public liquidityTaxEnabled = true;\r\n\r\n\tuint256 private minBalanceForSwapAndTransfer = 10000000000000000000;\r\n\tbool private inSwapAndTransfer;\r\n\r\n\tuint256 public sellDevelopmentTax = 300;\r\n\tuint256 public sellMarketingTax = 300;\r\n\tuint256 public sellRewardsTax = 400;\r\n\tuint256 public sellLiquidityTax = 200;\r\n\r\n\tuint256 public buyDevelopmentTax = 200;\r\n\tuint256 public buyMarketingTax = 200;\r\n\tuint256 public buyRewardsTax = 200;\r\n\tuint256 public buyLiquidityTax = 100;\r\n\r\n\taddress payable public developmentAddress;\r\n\taddress payable public marketingAddress;\r\n\taddress payable public rewardsAddress;\r\n\taddress payable public gameAddress;\r\n\taddress payable public nftAddress;\r\n\r\n\tmapping(address => bool) public isExcludedFromTax;\r\n\r\n\tuint256 private emergencyMintAmount = 100000000000000000000; // 1% of initial supply\r\n\r\n\tIUniswapV2Router02 private router;\r\n\tIUniswapV2Pair private pair;\r\n\r\n\tconstructor(\r\n\t\taddress gameAddress_,\r\n\t\taddress nftAddress_,\r\n\t\taddress rewardsAddress_,\r\n\t\taddress marketingAddress_,\r\n\t\taddress routerAddress_\r\n\t) ERC20(\"Token\", \"TKN\") {\r\n\t\tsetIsPaused(true);\r\n\t\tdevelopmentAddress = payable(msg.sender);\r\n\t\tmarketingAddress = payable(marketingAddress_);\r\n\t\trewardsAddress = payable(rewardsAddress_);\r\n\t\tgameAddress = payable(gameAddress_);\r\n\t\tnftAddress = payable(nftAddress_);\r\n\t\t_mint(developmentAddress, 3333 * 10**decimals()); // For adding liquidity and team tokens\r\n\t\t_mint(rewardsAddress, 6667 * 10**decimals()); // Game + NFT rewards\r\n\t\tisExcludedFromTax[developmentAddress] = true;\r\n\t\tisExcludedFromTax[marketingAddress] = true;\r\n\t\tisExcludedFromTax[rewardsAddress] = true;\r\n\t\tisExcludedFromTax[gameAddress] = true;\r\n\t\tisExcludedFromTax[nftAddress] = true;\r\n\t\tisExcludedFromTax[address(this)] = true;\r\n\t\tcreateRouterPair(routerAddress_);\r\n\t}\r\n\r\n\tmodifier lockSwapAndTransfer() {\r\n\t\tinSwapAndTransfer = true;\r\n\t\t_;\r\n\t\tinSwapAndTransfer = false;\r\n\t}\r\n\r\n\tfunction _transfer(\r\n\t\taddress sender,\r\n\t\taddress recipient,\r\n\t\tuint256 amount\r\n\t) internal virtual override checkPaused(tx.origin) {\r\n\t\t(\r\n\t\t\tuint256 sellDevelopmentTax_,\r\n\t\t\tuint256 sellMarketingTax_,\r\n\t\t\tuint256 sellLiquidityTax_,\r\n\t\t\tuint256 sellRewardsTax_,\r\n\t\t\tbool guardActivated\r\n\t\t) = antiBotGuard(sender, recipient, amount);\r\n\t\tif (guardActivated) {\r\n\t\t\treturn;\r\n\t\t}\r\n\r\n\t\tif (amount == 0) {\r\n\t\t\tsuper._transfer(sender, recipient, 0);\r\n\t\t\treturn;\r\n\t\t}\r\n\r\n\t\tbool notExcludedFromTax = !isExcludedFromTax[sender] &&\r\n\t\t\t!isExcludedFromTax[recipient];\r\n\t\tuint256 tokenBalance = balanceOf(address(this));\r\n\t\tif (\r\n\t\t\t!inSwapAndTransfer &&\r\n\t\t\ttokenBalance >= minBalanceForSwapAndTransfer &&\r\n\t\t\trecipient == address(pair) && // Is a sell\r\n\t\t\tnotExcludedFromTax\r\n\t\t) {\r\n\t\t\tswapAndTransfer(\r\n\t\t\t\ttokenBalance,\r\n\t\t\t\tsellDevelopmentTax_,\r\n\t\t\t\tsellMarketingTax_,\r\n\t\t\t\tsellLiquidityTax_\r\n\t\t\t);\r\n\t\t}\r\n\r\n\t\tbool takeFee = !inSwapAndTransfer && notExcludedFromTax;\r\n\t\tif (takeFee) {\r\n\t\t\tuint256[] memory taxes = new uint256[](4); // Need to do this abomination because otherwise solidity compiler screams\r\n\t\t\ttaxes[0] = sellDevelopmentTax_;\r\n\t\t\ttaxes[1] = sellMarketingTax_;\r\n\t\t\ttaxes[2] = sellLiquidityTax_;\r\n\t\t\ttaxes[3] = sellRewardsTax_;\r\n\t\t\tamount = takeFees(amount, sender, recipient, taxes);\r\n\t\t}\r\n\r\n\t\tsuper._transfer(sender, recipient, amount);\r\n\t}\r\n\r\n\tfunction antiBotGuard(\r\n\t\taddress sender,\r\n\t\taddress recipient,\r\n\t\tuint256 amount\r\n\t)\r\n\t\tprivate\r\n\t\treturns (\r\n\t\t\tuint256 sellDevelopmentTax_,\r\n\t\t\tuint256 sellMarketingTax_,\r\n\t\t\tuint256 sellLiquidityTax_,\r\n\t\t\tuint256 sellRewardsTax_,\r\n\t\t\tbool guardActivated\r\n\t\t)\r\n\t{\r\n\t\tsellDevelopmentTax_ = sellDevelopmentTax;\r\n\t\tsellMarketingTax_ = sellMarketingTax;\r\n\t\tsellLiquidityTax_ = sellLiquidityTax;\r\n\t\tsellRewardsTax_ = sellRewardsTax;\r\n\t\tif (!isOwner(tx.origin)) {\r\n\t\t\trequire(\r\n\t\t\t\t!antiBotBlacklist[sender] && !antiBotBlacklist[recipient],\r\n\t\t\t\t\"Sender or recipient blacklisted\"\r\n\t\t\t);\r\n\t\t\tif (antiBotEnabled) {\r\n\t\t\t\trequire(\r\n\t\t\t\t\tamount <= antiBotMaxTX,\r\n\t\t\t\t\t\"Transaction exceeded max amount\"\r\n\t\t\t\t);\r\n\t\t\t\tif (block.number <= antiBotBlockEndBlock) {\r\n\t\t\t\t\tantiBotBlacklist[sender] = true;\r\n\t\t\t\t\tguardActivated = true;\r\n\t\t\t\t\temit Blacklisted(sender, block.number, block.timestamp);\r\n\t\t\t\t} else if (block.timestamp <= antiBotTaxesEndTime) {\r\n\t\t\t\t\tuint256 timePassed = 1 +\r\n\t\t\t\t\t\tblock.timestamp -\r\n\t\t\t\t\t\tantiBotTaxesStartTime;\r\n\t\t\t\t\tsellDevelopmentTax_ = scaleToRangeAndReverse(\r\n\t\t\t\t\t\ttimePassed,\r\n\t\t\t\t\t\t1,\r\n\t\t\t\t\t\tantiBotTaxesTimeInSeconds,\r\n\t\t\t\t\t\tsellDevelopmentTax,\r\n\t\t\t\t\t\tantiBotSellDevelopmentTax\r\n\t\t\t\t\t);\r\n\t\t\t\t\tsellMarketingTax_ = scaleToRangeAndReverse(\r\n\t\t\t\t\t\ttimePassed,\r\n\t\t\t\t\t\t1,\r\n\t\t\t\t\t\tantiBotTaxesTimeInSeconds,\r\n\t\t\t\t\t\tsellMarketingTax,\r\n\t\t\t\t\t\tantiBotSellMarketingTax\r\n\t\t\t\t\t);\r\n\t\t\t\t\tsellLiquidityTax_ = scaleToRangeAndReverse(\r\n\t\t\t\t\t\ttimePassed,\r\n\t\t\t\t\t\t1,\r\n\t\t\t\t\t\tantiBotTaxesTimeInSeconds,\r\n\t\t\t\t\t\tsellLiquidityTax,\r\n\t\t\t\t\t\tantiBotSellLiquidityTax\r\n\t\t\t\t\t);\r\n\t\t\t\t\tsellRewardsTax_ = scaleToRangeAndReverse(\r\n\t\t\t\t\t\ttimePassed,\r\n\t\t\t\t\t\t1,\r\n\t\t\t\t\t\tantiBotTaxesTimeInSeconds,\r\n\t\t\t\t\t\tsellRewardsTax,\r\n\t\t\t\t\t\tantiBotSellRewardsTax\r\n\t\t\t\t\t);\r\n\t\t\t\t} else {\r\n\t\t\t\t\tantiBotEnabled = false;\r\n\t\t\t\t}\r\n\t\t\t}\r\n\t\t}\r\n\t}\r\n\r\n\tfunction scaleToRangeAndReverse(\r\n\t\t// Helper function which scales a value to a range and reverses it\r\n\t\tuint256 x, // Value to scale\r\n\t\tuint256 minX, // Minimum value of x\r\n\t\tuint256 maxX, // Maximum value of x\r\n\t\tuint256 a, // Range start\r\n\t\tuint256 b // Range end\r\n\t) private pure returns (uint256) {\r\n\t\treturn (a + b) - ((b - a) * ((x - minX) / (maxX - minX)) + a);\r\n\t}\r\n\r\n\tfunction takeFees(\r\n\t\tuint256 amount,\r\n\t\taddress sender,\r\n\t\taddress recipient,\r\n\t\tuint256[] memory sellTaxes\r\n\t) private returns (uint256) {\r\n\t\tuint256 totalTax = 0;\r\n\t\tuint256 developmentTax = 0;\r\n\t\tuint256 marketingTax = 0;\r\n\t\tuint256 liquidityTax = 0;\r\n\t\tuint256 rewardsTax = 0;\r\n\r\n\t\tif (recipient == address(pair)) {\r\n\t\t\t// Selling\r\n\t\t\tdevelopmentTax = (amount * sellTaxes[0]) / 10000;\r\n\t\t\tmarketingTax = (amount * sellTaxes[1]) / 10000;\r\n\t\t\tliquidityTax = (amount * sellTaxes[2]) / 10000;\r\n\t\t\trewardsTax = (amount * sellTaxes[3]) / 10000;\r\n\t\t} else if (sender == address(pair)) {\r\n\t\t\t// Buying\r\n\t\t\tdevelopmentTax = (amount * buyDevelopmentTax) / 10000;\r\n\t\t\tmarketingTax = (amount * buyMarketingTax) / 10000;\r\n\t\t\tliquidityTax = (amount * buyLiquidityTax) / 10000;\r\n\t\t\trewardsTax = (amount * buyRewardsTax) / 10000;\r\n\t\t}\r\n\t\ttotalTax = developmentTax + marketingTax + liquidityTax + rewardsTax;\r\n\r\n\t\tif (totalTax > 0) {\r\n\t\t\tsuper._transfer(sender, address(this), totalTax);\r\n\t\t\tsuper._transfer(address(this), rewardsAddress, rewardsTax);\r\n\t\t\tamount -= totalTax;\r\n\t\t}\r\n\t\treturn amount;\r\n\t}\r\n\r\n\tfunction swapAndTransfer(\r\n\t\tuint256 tokenBalance,\r\n\t\tuint256 sellDevelopmentTax_,\r\n\t\tuint256 sellMarketingTax_,\r\n\t\tuint256 sellLiquidityTax_\r\n\t) private lockSwapAndTransfer {\r\n\t\tuint256 totalTax = sellDevelopmentTax_ + sellMarketingTax_;\r\n\t\tif (liquidityTaxEnabled) {\r\n\t\t\ttotalTax += sellLiquidityTax_;\r\n\t\t}\r\n\t\tuint256 developmentTax = (tokenBalance * sellDevelopmentTax_) /\r\n\t\t\ttotalTax;\r\n\t\tuint256 marketingTax = (tokenBalance * sellMarketingTax_) / totalTax;\r\n\r\n\t\tswapAndTransferFees(developmentTax, marketingTax);\r\n\r\n\t\tif (liquidityTaxEnabled) {\r\n\t\t\tuint256 liquidityTax = (tokenBalance * sellLiquidityTax_) /\r\n\t\t\t\ttotalTax;\r\n\t\t\tswapAndLiquify(liquidityTax);\r\n\t\t}\r\n\t}\r\n\r\n\tfunction swapAndTransferFees(uint256 developmentTax, uint256 marketingTax)\r\n\t\tprivate\r\n\t{\r\n\t\tuint256 totalTax = developmentTax + marketingTax;\r\n\t\tuint256 ethBalance = swapTokensToETH(totalTax);\r\n\t\tuint256 ethForDevelopment = (ethBalance * developmentTax) / totalTax;\r\n\t\tuint256 ethForMarketing = (ethBalance * marketingTax) / totalTax;\r\n\r\n\t\t(bool developmentSuccess, ) = developmentAddress.call{\r\n\t\t\tvalue: ethForDevelopment\r\n\t\t}(\"\");\r\n\t\t(bool marketingSuccess, ) = marketingAddress.call{\r\n\t\t\tvalue: ethForMarketing\r\n\t\t}(\"\");\r\n\r\n\t\trequire(\r\n\t\t\tdevelopmentSuccess && marketingSuccess,\r\n\t\t\t\"Couldn't send to development or marketing wallet\"\r\n\t\t);\r\n\t}\r\n\r\n\tfunction swapAndLiquify(uint256 amountToken) private {\r\n\t\tuint256 half1Token = amountToken / 2;\r\n\t\tuint256 half2Token = amountToken - half1Token;\r\n\t\tuint256 balanceBeforeSwapETH = address(this).balance;\r\n\t\tuint256 balanceAfterSwapETH = swapTokensToETH(half2Token); // Swap half of the tokens to BNB\r\n\t\tuint256 swapDifferenceETH = balanceAfterSwapETH - balanceBeforeSwapETH;\r\n\t\taddLiquidity(swapDifferenceETH, half1Token); // Add the non-swapped tokens and the swapped BNB to liquidity\r\n\t}\r\n\r\n\tfunction addLiquidity(uint256 amountETH, uint256 amountToken) private {\r\n\t\t_approve(address(this), address(router), amountToken);\r\n\t\trouter.addLiquidityETH{ value: amountETH }(\r\n\t\t\taddress(this),\r\n\t\t\tamountToken,\r\n\t\t\t0,\r\n\t\t\t0,\r\n\t\t\tdevelopmentAddress,\r\n\t\t\tblock.timestamp + 1 minutes\r\n\t\t);\r\n\t\temit LiquidityAdded(tx.origin, amountETH, amountToken);\r\n\t}\r\n\r\n\tfunction swapTokensToETH(uint256 amountToken) private returns (uint256) {\r\n\t\taddress[] memory path = new address[](2);\r\n\t\tpath[0] = address(this);\r\n\t\tpath[1] = router.WETH();\r\n\t\t_approve(address(this), address(router), amountToken);\r\n\t\trouter.swapExactTokensForETHSupportingFeeOnTransferTokens(\r\n\t\t\tamountToken,\r\n\t\t\t0, // Receive any amount\r\n\t\t\tpath,\r\n\t\t\taddress(this),\r\n\t\t\tblock.timestamp + 1 minutes\r\n\t\t);\r\n\t\treturn address(this).balance;\r\n\t}\r\n\r\n\tfunction createRouterPair(address routerAddress) private {\r\n\t\trouter = IUniswapV2Router02(routerAddress);\r\n\t\tpair = IUniswapV2Pair(\r\n\t\t\tIUniswapV2Factory(router.factory()).createPair(\r\n\t\t\t\taddress(this),\r\n\t\t\t\trouter.WETH()\r\n\t\t\t)\r\n\t\t);\r\n\t\tisExcludedFromTax[address(router)] = true;\r\n\t}\r\n\r\n\t// This function is only to be used by the rewards contract when the rewards pool no longer has rewards\r\n\tfunction emergencyMintRewards() external {\r\n\t\trequire(msg.sender == rewardsAddress, \"Address not authorized\");\r\n\t\tsuper._mint(rewardsAddress, emergencyMintAmount);\r\n\t}\r\n\r\n\tfunction addInitialLiquidity(uint256 amountToken)\r\n\t\texternal\r\n\t\tpayable\r\n\t\tonlyOwners\r\n\t{\r\n\t\t// Add initial liquidity and enabled the \"anti-bot\" feature\r\n\t\taddress routerAddress = address(router);\r\n\t\trequire(routerAddress != address(0), \"Router not set yet\");\r\n\t\trequire(\r\n\t\t\tbalanceOf(msg.sender) >= amountToken,\r\n\t\t\t\"Sender does not have enough token balance\"\r\n\t\t);\r\n\t\trequire(\r\n\t\t\tallowance(msg.sender, address(this)) >= amountToken,\r\n\t\t\t\"Not enough allowance given to the contract\"\r\n\t\t);\r\n\t\t_approve(msg.sender, routerAddress, amountToken);\r\n\t\tsuper._transfer(msg.sender, address(this), amountToken);\r\n\t\taddLiquidity(msg.value, amountToken);\r\n\t}\r\n\r\n\tfunction activateTradeWithAntibot() external onlyOwners {\r\n\t\trequire(!antiBotRanOnce, \"Antibot has already been ran\");\r\n\t\tantiBotEnabled = true;\r\n\t\tantiBotRanOnce = true;\r\n\t\tantiBotTaxesStartTime = block.timestamp;\r\n\t\tantiBotTaxesEndTime = antiBotTaxesStartTime + antiBotTaxesTimeInSeconds;\r\n\t\tantiBotBlockEndBlock = block.number + antiBotBlockTimeInBlocks;\r\n\t\tsetIsPaused(false);\r\n\t}\r\n\r\n\tfunction setAntiBotSellTaxes(\r\n\t\tuint256 sellDevelopmentTax_,\r\n\t\tuint256 sellMarketingTax_,\r\n\t\tuint256 sellLiquidityTax_,\r\n\t\tuint256 sellRewardsTax_\r\n\t) external onlyOwners {\r\n\t\trequire(antiBotEnabled, \"Antibot period has passed\");\r\n\t\trequire(\r\n\t\t\t(sellDevelopmentTax_ +\r\n\t\t\t\tsellMarketingTax_ +\r\n\t\t\t\tsellLiquidityTax_ +\r\n\t\t\t\tsellRewardsTax_) <= MAX_TOTAL_FEE,\r\n\t\t\t\"Total taxes are above the allowed amount\"\r\n\t\t);\r\n\t\tantiBotSellDevelopmentTax = sellDevelopmentTax_;\r\n\t\tantiBotSellMarketingTax = sellMarketingTax_;\r\n\t\tantiBotSellLiquidityTax = sellLiquidityTax_;\r\n\t\tantiBotSellRewardsTax = sellRewardsTax_;\r\n\t}\r\n\r\n\tfunction setSellTaxes(\r\n\t\tuint256 sellDevelopmentTax_,\r\n\t\tuint256 sellMarketingTax_,\r\n\t\tuint256 sellLiquidityTax_,\r\n\t\tuint256 sellRewardsTax_\r\n\t) external onlyOwners {\r\n\t\trequire(\r\n\t\t\t(sellDevelopmentTax_ +\r\n\t\t\t\tsellMarketingTax_ +\r\n\t\t\t\tsellLiquidityTax_ +\r\n\t\t\t\tsellRewardsTax_) <= MAX_TOTAL_FEE,\r\n\t\t\t\"Total taxes are above the allowed amount\"\r\n\t\t);\r\n\t\tsellDevelopmentTax = sellDevelopmentTax_;\r\n\t\tsellMarketingTax = sellMarketingTax_;\r\n\t\tsellLiquidityTax = sellLiquidityTax_;\r\n\t\tsellRewardsTax = sellRewardsTax_;\r\n\t}\r\n\r\n\tfunction setBuyTaxes(\r\n\t\tuint256 buyDevelopmentTax_,\r\n\t\tuint256 buyMarketingTax_,\r\n\t\tuint256 buyLiquidityTax_,\r\n\t\tuint256 buyRewardsTax_\r\n\t) external onlyOwners {\r\n\t\trequire(\r\n\t\t\t(buyDevelopmentTax_ +\r\n\t\t\t\tbuyMarketingTax_ +\r\n\t\t\t\tbuyLiquidityTax_ +\r\n\t\t\t\tbuyRewardsTax_) <= MAX_TOTAL_FEE,\r\n\t\t\t\"Total taxes are above the allowed amount\"\r\n\t\t);\r\n\t\tbuyDevelopmentTax = buyDevelopmentTax_;\r\n\t\tbuyMarketingTax = buyMarketingTax_;\r\n\t\tbuyLiquidityTax = buyLiquidityTax_;\r\n\t\tbuyRewardsTax = buyRewardsTax_;\r\n\t}\r\n\r\n\tfunction setTaxAddresses(\r\n\t\taddress developmentAddress_,\r\n\t\taddress marketingAddress_,\r\n\t\taddress rewardsAddress_\r\n\t) external onlyOwners {\r\n\t\trequire(\r\n\t\t\t!(developmentAddress_ == address(0) ||\r\n\t\t\t\tmarketingAddress_ == address(0) ||\r\n\t\t\t\trewardsAddress_ == address(0)),\r\n\t\t\t\"None of the addresses can't be zero addresses\"\r\n\t\t);\r\n\t\tdevelopmentAddress = payable(developmentAddress_);\r\n\t\tmarketingAddress = payable(marketingAddress_);\r\n\t\trewardsAddress = payable(rewardsAddress_);\r\n\t\tisExcludedFromTax[developmentAddress] = true;\r\n\t\tisExcludedFromTax[marketingAddress] = true;\r\n\t\tisExcludedFromTax[rewardsAddress] = true;\r\n\t}\r\n\r\n\tfunction setRouter(address routerAddress) external onlyOwners {\r\n\t\tcreateRouterPair(routerAddress);\r\n\t}\r\n\r\n\tfunction setInternalAddresses(address gameAddress_, address nftAddress_)\r\n\t\texternal\r\n\t\tonlyOwners\r\n\t{\r\n\t\tgameAddress = payable(gameAddress_);\r\n\t\tnftAddress = payable(nftAddress_);\r\n\t\tisExcludedFromTax[gameAddress] = true;\r\n\t\tisExcludedFromTax[nftAddress] = true;\r\n\t}\r\n\r\n\tfunction removeBlacklistedAddress(address address_) external onlyOwners {\r\n\t\tantiBotBlacklist[address_] = false;\r\n\t}\r\n\r\n\tfunction setLiquidityTaxEnabled(bool liquidityTaxEnabled_)\r\n\t\texternal\r\n\t\tonlyOwners\r\n\t{\r\n\t\tliquidityTaxEnabled = liquidityTaxEnabled_;\r\n\t}\r\n\r\n\tfunction addTaxExcludedAddress(address address_) external onlyOwners {\r\n\t\tisExcludedFromTax[address_] = true;\r\n\t}\r\n\r\n\tfunction removeTaxExcludedAddress(address address_) external onlyOwners {\r\n\t\tisExcludedFromTax[address_] = false;\r\n\t}\r\n\r\n\tfunction setEmergencyMintAmount(uint256 emergencyMintAmount_)\r\n\t\texternal\r\n\t\tonlyOwners\r\n\t{\r\n\t\temergencyMintAmount = emergencyMintAmount_;\r\n\t}\r\n\r\n\tfunction setMinBalanceForSwapAndTransfer(\r\n\t\tuint256 minBalanceForSwapAndTransfer_\r\n\t) external onlyOwners {\r\n\t\tminBalanceForSwapAndTransfer = minBalanceForSwapAndTransfer_;\r\n\t}\r\n\r\n\treceive() external payable {} // Must be defined so the contract is able to receive ETH from swaps\r\n}\r\n",
  "sourcePath": "C:\\Users\\sants\\Desktop\\slimekeeper\\slimekeeper_contracts\\contracts\\Token.sol",
  "compiler": {
    "name": "solc",
    "version": "0.8.11+commit.d7f03943.Emscripten.clang"
  },
  "schemaVersion": "3.4.5",
  "updatedAt": "2022-03-02T18:54:07.184Z",
  "devdoc": {
    "kind": "dev",
    "methods": {
      "allowance(address,address)": {
        "details": "See {IERC20-allowance}."
      },
      "approve(address,uint256)": {
        "details": "See {IERC20-approve}. NOTE: If `amount` is the maximum `uint256`, the allowance is not updated on `transferFrom`. This is semantically equivalent to an infinite approval. Requirements: - `spender` cannot be the zero address."
      },
      "balanceOf(address)": {
        "details": "See {IERC20-balanceOf}."
      },
      "decimals()": {
        "details": "Returns the number of decimals used to get its user representation. For example, if `decimals` equals `2`, a balance of `505` tokens should be displayed to a user as `5.05` (`505 / 10 ** 2`). Tokens usually opt for a value of 18, imitating the relationship between Ether and Wei. This is the value {ERC20} uses, unless this function is overridden; NOTE: This information is only used for _display_ purposes: it in no way affects any of the arithmetic of the contract, including {IERC20-balanceOf} and {IERC20-transfer}."
      },
      "decreaseAllowance(address,uint256)": {
        "details": "Atomically decreases the allowance granted to `spender` by the caller. This is an alternative to {approve} that can be used as a mitigation for problems described in {IERC20-approve}. Emits an {Approval} event indicating the updated allowance. Requirements: - `spender` cannot be the zero address. - `spender` must have allowance for the caller of at least `subtractedValue`."
      },
      "increaseAllowance(address,uint256)": {
        "details": "Atomically increases the allowance granted to `spender` by the caller. This is an alternative to {approve} that can be used as a mitigation for problems described in {IERC20-approve}. Emits an {Approval} event indicating the updated allowance. Requirements: - `spender` cannot be the zero address."
      },
      "name()": {
        "details": "Returns the name of the token."
      },
      "symbol()": {
        "details": "Returns the symbol of the token, usually a shorter version of the name."
      },
      "totalSupply()": {
        "details": "See {IERC20-totalSupply}."
      },
      "transfer(address,uint256)": {
        "details": "See {IERC20-transfer}. Requirements: - `to` cannot be the zero address. - the caller must have a balance of at least `amount`."
      },
      "transferFrom(address,address,uint256)": {
        "details": "See {IERC20-transferFrom}. Emits an {Approval} event indicating the updated allowance. This is not required by the EIP. See the note at the beginning of {ERC20}. NOTE: Does not update the allowance if the current allowance is the maximum `uint256`. Requirements: - `from` and `to` cannot be the zero address. - `from` must have a balance of at least `amount`. - the caller must have allowance for ``from``'s tokens of at least `amount`."
      }
    },
    "version": 1
  },
  "userdoc": {
    "kind": "user",
    "methods": {},
    "version": 1
  }
}