{
  "contractName": "Token",
  "abi": [
    {
      "inputs": [
        {
          "internalType": "address",
          "name": "gameAddress",
          "type": "address"
        },
        {
          "internalType": "address",
          "name": "nftAddress",
          "type": "address"
        }
      ],
      "stateMutability": "nonpayable",
      "type": "constructor"
    },
    {
      "anonymous": false,
      "inputs": [
        {
          "indexed": true,
          "internalType": "address",
          "name": "owner",
          "type": "address"
        },
        {
          "indexed": true,
          "internalType": "address",
          "name": "spender",
          "type": "address"
        },
        {
          "indexed": false,
          "internalType": "uint256",
          "name": "value",
          "type": "uint256"
        }
      ],
      "name": "Approval",
      "type": "event"
    },
    {
      "anonymous": false,
      "inputs": [
        {
          "indexed": true,
          "internalType": "address",
          "name": "adder",
          "type": "address"
        },
        {
          "indexed": true,
          "internalType": "address",
          "name": "owner",
          "type": "address"
        },
        {
          "indexed": true,
          "internalType": "uint256",
          "name": "timestamp",
          "type": "uint256"
        }
      ],
      "name": "OwnerAdded",
      "type": "event"
    },
    {
      "anonymous": false,
      "inputs": [
        {
          "indexed": true,
          "internalType": "address",
          "name": "remover",
          "type": "address"
        },
        {
          "indexed": true,
          "internalType": "address",
          "name": "removed",
          "type": "address"
        },
        {
          "indexed": true,
          "internalType": "uint256",
          "name": "timestamp",
          "type": "uint256"
        }
      ],
      "name": "OwnerRemoved",
      "type": "event"
    },
    {
      "anonymous": false,
      "inputs": [
        {
          "indexed": true,
          "internalType": "address",
          "name": "from",
          "type": "address"
        },
        {
          "indexed": true,
          "internalType": "address",
          "name": "to",
          "type": "address"
        },
        {
          "indexed": false,
          "internalType": "uint256",
          "name": "value",
          "type": "uint256"
        }
      ],
      "name": "Transfer",
      "type": "event"
    },
    {
      "inputs": [],
      "name": "MAX_TOTAL_FEE",
      "outputs": [
        {
          "internalType": "uint256",
          "name": "",
          "type": "uint256"
        }
      ],
      "stateMutability": "view",
      "type": "function",
      "constant": true
    },
    {
      "inputs": [
        {
          "internalType": "address",
          "name": "owner",
          "type": "address"
        }
      ],
      "name": "addOwner",
      "outputs": [],
      "stateMutability": "nonpayable",
      "type": "function"
    },
    {
      "inputs": [
        {
          "internalType": "address",
          "name": "owner",
          "type": "address"
        },
        {
          "internalType": "address",
          "name": "spender",
          "type": "address"
        }
      ],
      "name": "allowance",
      "outputs": [
        {
          "internalType": "uint256",
          "name": "",
          "type": "uint256"
        }
      ],
      "stateMutability": "view",
      "type": "function",
      "constant": true
    },
    {
      "inputs": [],
      "name": "antiBotEnabled",
      "outputs": [
        {
          "internalType": "bool",
          "name": "",
          "type": "bool"
        }
      ],
      "stateMutability": "view",
      "type": "function",
      "constant": true
    },
    {
      "inputs": [
        {
          "internalType": "address",
          "name": "spender",
          "type": "address"
        },
        {
          "internalType": "uint256",
          "name": "amount",
          "type": "uint256"
        }
      ],
      "name": "approve",
      "outputs": [
        {
          "internalType": "bool",
          "name": "",
          "type": "bool"
        }
      ],
      "stateMutability": "nonpayable",
      "type": "function"
    },
    {
      "inputs": [
        {
          "internalType": "address",
          "name": "account",
          "type": "address"
        }
      ],
      "name": "balanceOf",
      "outputs": [
        {
          "internalType": "uint256",
          "name": "",
          "type": "uint256"
        }
      ],
      "stateMutability": "view",
      "type": "function",
      "constant": true
    },
    {
      "inputs": [],
      "name": "buyDevelopmentTax",
      "outputs": [
        {
          "internalType": "uint256",
          "name": "",
          "type": "uint256"
        }
      ],
      "stateMutability": "view",
      "type": "function",
      "constant": true
    },
    {
      "inputs": [],
      "name": "buyLiquidityTax",
      "outputs": [
        {
          "internalType": "uint256",
          "name": "",
          "type": "uint256"
        }
      ],
      "stateMutability": "view",
      "type": "function",
      "constant": true
    },
    {
      "inputs": [],
      "name": "buyMarketingTax",
      "outputs": [
        {
          "internalType": "uint256",
          "name": "",
          "type": "uint256"
        }
      ],
      "stateMutability": "view",
      "type": "function",
      "constant": true
    },
    {
      "inputs": [],
      "name": "decimals",
      "outputs": [
        {
          "internalType": "uint8",
          "name": "",
          "type": "uint8"
        }
      ],
      "stateMutability": "view",
      "type": "function",
      "constant": true
    },
    {
      "inputs": [
        {
          "internalType": "address",
          "name": "spender",
          "type": "address"
        },
        {
          "internalType": "uint256",
          "name": "subtractedValue",
          "type": "uint256"
        }
      ],
      "name": "decreaseAllowance",
      "outputs": [
        {
          "internalType": "bool",
          "name": "",
          "type": "bool"
        }
      ],
      "stateMutability": "nonpayable",
      "type": "function"
    },
    {
      "inputs": [],
      "name": "developmentAddress",
      "outputs": [
        {
          "internalType": "address payable",
          "name": "",
          "type": "address"
        }
      ],
      "stateMutability": "view",
      "type": "function",
      "constant": true
    },
    {
      "inputs": [],
      "name": "getOwners",
      "outputs": [
        {
          "internalType": "address[]",
          "name": "",
          "type": "address[]"
        }
      ],
      "stateMutability": "view",
      "type": "function",
      "constant": true
    },
    {
      "inputs": [
        {
          "internalType": "address",
          "name": "spender",
          "type": "address"
        },
        {
          "internalType": "uint256",
          "name": "addedValue",
          "type": "uint256"
        }
      ],
      "name": "increaseAllowance",
      "outputs": [
        {
          "internalType": "bool",
          "name": "",
          "type": "bool"
        }
      ],
      "stateMutability": "nonpayable",
      "type": "function"
    },
    {
      "inputs": [
        {
          "internalType": "address",
          "name": "",
          "type": "address"
        }
      ],
      "name": "isExcludedFromTax",
      "outputs": [
        {
          "internalType": "bool",
          "name": "",
          "type": "bool"
        }
      ],
      "stateMutability": "view",
      "type": "function",
      "constant": true
    },
    {
      "inputs": [
        {
          "internalType": "address",
          "name": "owner",
          "type": "address"
        }
      ],
      "name": "isOwner",
      "outputs": [
        {
          "internalType": "bool",
          "name": "",
          "type": "bool"
        }
      ],
      "stateMutability": "view",
      "type": "function",
      "constant": true
    },
    {
      "inputs": [],
      "name": "liquidityAddress",
      "outputs": [
        {
          "internalType": "address payable",
          "name": "",
          "type": "address"
        }
      ],
      "stateMutability": "view",
      "type": "function",
      "constant": true
    },
    {
      "inputs": [],
      "name": "liquidityTaxEnabled",
      "outputs": [
        {
          "internalType": "bool",
          "name": "",
          "type": "bool"
        }
      ],
      "stateMutability": "view",
      "type": "function",
      "constant": true
    },
    {
      "inputs": [],
      "name": "marketingAddress",
      "outputs": [
        {
          "internalType": "address payable",
          "name": "",
          "type": "address"
        }
      ],
      "stateMutability": "view",
      "type": "function",
      "constant": true
    },
    {
      "inputs": [],
      "name": "name",
      "outputs": [
        {
          "internalType": "string",
          "name": "",
          "type": "string"
        }
      ],
      "stateMutability": "view",
      "type": "function",
      "constant": true
    },
    {
      "inputs": [
        {
          "internalType": "address",
          "name": "owner",
          "type": "address"
        }
      ],
      "name": "removeOwner",
      "outputs": [],
      "stateMutability": "nonpayable",
      "type": "function"
    },
    {
      "inputs": [],
      "name": "sellDevelopmentTax",
      "outputs": [
        {
          "internalType": "uint256",
          "name": "",
          "type": "uint256"
        }
      ],
      "stateMutability": "view",
      "type": "function",
      "constant": true
    },
    {
      "inputs": [],
      "name": "sellLiquidityTax",
      "outputs": [
        {
          "internalType": "uint256",
          "name": "",
          "type": "uint256"
        }
      ],
      "stateMutability": "view",
      "type": "function",
      "constant": true
    },
    {
      "inputs": [],
      "name": "sellMarketingTax",
      "outputs": [
        {
          "internalType": "uint256",
          "name": "",
          "type": "uint256"
        }
      ],
      "stateMutability": "view",
      "type": "function",
      "constant": true
    },
    {
      "inputs": [
        {
          "internalType": "bool",
          "name": "newPaused",
          "type": "bool"
        }
      ],
      "name": "setIsPaused",
      "outputs": [],
      "stateMutability": "nonpayable",
      "type": "function"
    },
    {
      "inputs": [],
      "name": "symbol",
      "outputs": [
        {
          "internalType": "string",
          "name": "",
          "type": "string"
        }
      ],
      "stateMutability": "view",
      "type": "function",
      "constant": true
    },
    {
      "inputs": [],
      "name": "totalSupply",
      "outputs": [
        {
          "internalType": "uint256",
          "name": "",
          "type": "uint256"
        }
      ],
      "stateMutability": "view",
      "type": "function",
      "constant": true
    },
    {
      "inputs": [
        {
          "internalType": "address",
          "name": "recipient",
          "type": "address"
        },
        {
          "internalType": "uint256",
          "name": "amount",
          "type": "uint256"
        }
      ],
      "name": "transfer",
      "outputs": [
        {
          "internalType": "bool",
          "name": "",
          "type": "bool"
        }
      ],
      "stateMutability": "nonpayable",
      "type": "function"
    },
    {
      "inputs": [
        {
          "internalType": "address",
          "name": "sender",
          "type": "address"
        },
        {
          "internalType": "address",
          "name": "recipient",
          "type": "address"
        },
        {
          "internalType": "uint256",
          "name": "amount",
          "type": "uint256"
        }
      ],
      "name": "transferFrom",
      "outputs": [
        {
          "internalType": "bool",
          "name": "",
          "type": "bool"
        }
      ],
      "stateMutability": "nonpayable",
      "type": "function"
    },
    {
      "stateMutability": "payable",
      "type": "receive",
      "payable": true
    },
    {
      "inputs": [
        {
          "internalType": "uint256",
          "name": "amountToken",
          "type": "uint256"
        }
      ],
      "name": "addLiquidity",
      "outputs": [],
      "stateMutability": "payable",
      "type": "function",
      "payable": true
    },
    {
      "inputs": [
        {
          "internalType": "uint256",
          "name": "sellDevelopmentTax_",
          "type": "uint256"
        },
        {
          "internalType": "uint256",
          "name": "sellMarketingTax_",
          "type": "uint256"
        },
        {
          "internalType": "uint256",
          "name": "sellLiquidityTax_",
          "type": "uint256"
        }
      ],
      "name": "setSellTaxes",
      "outputs": [],
      "stateMutability": "nonpayable",
      "type": "function"
    },
    {
      "inputs": [
        {
          "internalType": "uint256",
          "name": "buyDevelopmentTax_",
          "type": "uint256"
        },
        {
          "internalType": "uint256",
          "name": "buyMarketingTax_",
          "type": "uint256"
        },
        {
          "internalType": "uint256",
          "name": "buyLiquidityTax_",
          "type": "uint256"
        }
      ],
      "name": "setBuyTaxes",
      "outputs": [],
      "stateMutability": "nonpayable",
      "type": "function"
    },
    {
      "inputs": [
        {
          "internalType": "address",
          "name": "developmentAddress_",
          "type": "address"
        },
        {
          "internalType": "address",
          "name": "marketingAddress_",
          "type": "address"
        },
        {
          "internalType": "address",
          "name": "liquidityAddress_",
          "type": "address"
        }
      ],
      "name": "setTaxAddresses",
      "outputs": [],
      "stateMutability": "nonpayable",
      "type": "function"
    },
    {
      "inputs": [
        {
          "internalType": "address",
          "name": "address_",
          "type": "address"
        }
      ],
      "name": "removeBlacklist",
      "outputs": [],
      "stateMutability": "nonpayable",
      "type": "function"
    },
    {
      "inputs": [
        {
          "internalType": "bool",
          "name": "enabled",
          "type": "bool"
        }
      ],
      "name": "setLiquidityTaxEnabled",
      "outputs": [],
      "stateMutability": "nonpayable",
      "type": "function"
    },
    {
      "inputs": [
        {
          "internalType": "address",
          "name": "address_",
          "type": "address"
        }
      ],
      "name": "addTaxExcludedAddress",
      "outputs": [],
      "stateMutability": "nonpayable",
      "type": "function"
    },
    {
      "inputs": [
        {
          "internalType": "address",
          "name": "address_",
          "type": "address"
        }
      ],
      "name": "removeTaxExcludedAddress",
      "outputs": [],
      "stateMutability": "nonpayable",
      "type": "function"
    },
    {
      "inputs": [
        {
          "internalType": "address",
          "name": "routerAddress",
          "type": "address"
        }
      ],
      "name": "setRouter",
      "outputs": [],
      "stateMutability": "nonpayable",
      "type": "function"
    }
  ],
  "bytecode": "0x60a060405260196080526007805462ffff0019169055610e106008556002600a818155600d819055600e556005600f556010805460ff1916600190811790915560046011819055601255601382905560148290556015919091556016553480156200006957600080fd5b50604051620028a9380380620028a98339810160408190526200008c91620003f0565b604051806040016040528060058152602001642a37b5b2b760d91b815250604051806040016040528060038152602001622a25a760e91b8152508160039080519060200190620000de9291906200032d565b508051620000f49060049060208401906200032d565b50505033620001555760405162461bcd60e51b815260206004820152602260248201527f43616e277420696e697469616c697a652077697468207a65726f206164647265604482015261737360f01b60648201526084015b60405180910390fd5b336000818152600560205260408120805460ff191660019081179091556006805491820181559091527ff652222313e28459528d920b65115c16c04f3efc82aaedc97be59f3f377c0d3f0180546001600160a01b031990811683179091556017805490911682179055620001ed90620001cc601290565b620001d990600a6200053d565b620001e790610d0562000555565b62000248565b620001fa826012620001cc565b62000207816012620001cc565b6001600160a01b039182166000908152601a60205260408082208054600160ff199182168117909255939094168252902080549091169091179055620005cf565b6001600160a01b038216620002a05760405162461bcd60e51b815260206004820152601f60248201527f45524332303a206d696e7420746f20746865207a65726f20616464726573730060448201526064016200014c565b8060026000828254620002b4919062000577565b90915550506001600160a01b03821660009081526020819052604081208054839290620002e390849062000577565b90915550506040518181526001600160a01b038316906000907fddf252ad1be2c89b69c2b068fc378daa952ba7f163c4a11628f55a4df523b3ef9060200160405180910390a35050565b8280546200033b9062000592565b90600052602060002090601f0160209004810192826200035f5760008555620003aa565b82601f106200037a57805160ff1916838001178555620003aa565b82800160010185558215620003aa579182015b82811115620003aa5782518255916020019190600101906200038d565b50620003b8929150620003bc565b5090565b5b80821115620003b85760008155600101620003bd565b80516001600160a01b0381168114620003eb57600080fd5b919050565b600080604083850312156200040457600080fd5b6200040f83620003d3565b91506200041f60208401620003d3565b90509250929050565b634e487b7160e01b600052601160045260246000fd5b600181815b808511156200047f57816000190482111562000463576200046362000428565b808516156200047157918102915b93841c939080029062000443565b509250929050565b600082620004985750600162000537565b81620004a75750600062000537565b8160018114620004c05760028114620004cb57620004eb565b600191505062000537565b60ff841115620004df57620004df62000428565b50506001821b62000537565b5060208310610133831016604e8410600b841016171562000510575081810a62000537565b6200051c83836200043e565b806000190482111562000533576200053362000428565b0290505b92915050565b60006200054e60ff84168362000487565b9392505050565b600081600019048311821515161562000572576200057262000428565b500290565b600082198211156200058d576200058d62000428565b500190565b600181811c90821680620005a757607f821691505b60208210811415620005c957634e487b7160e01b600052602260045260246000fd5b50919050565b6080516122b0620005f9600039600081816104ff015281816108160152610aeb01526122b06000f3fe6080604052600436106102295760003560e01c806370a0823111610123578063a9059cbb116100ab578063cdca70831161006f578063cdca70831461068a578063d8c6404b146106aa578063dd62ed3e146106c9578063e96db1ef1461070f578063eb91e6511461072557600080fd5b8063a9059cbb146105e4578063ad8052bb14610604578063c0d786551461061a578063cb4ca6311461063a578063cc9c49a61461066a57600080fd5b8063993df94e116100f2578063993df94e14610556578063a0e67e2b1461056c578063a2cbba281461058e578063a457c2d7146105a4578063a5ece941146105c457600080fd5b806370a08231146104b75780637f635cc0146104ed578063887d63171461052157806395d89b411461054157600080fd5b80632c505fb3116101b15780633950935111610175578063395093511461042e57806351c6590a1461044e578063638b1b14146104615780636ab91206146104815780637065cb481461049757600080fd5b80632c505fb3146103715780632f54bf6e1461038b578063313ce567146103c45780633221c93f146103e0578063330124111461041857600080fd5b806318160ddd116101f857806318160ddd146102d25780631870517a146102f15780631a9431a91461031157806323b872dd14610331578063240976bf1461035157600080fd5b806306fdde03146102355780630873321414610260578063095ea7b314610282578063173825d9146102b257600080fd5b3661023057005b600080fd5b34801561024157600080fd5b5061024a610745565b6040516102579190611c3d565b60405180910390f35b34801561026c57600080fd5b5061028061027b366004611c92565b6107d7565b005b34801561028e57600080fd5b506102a261029d366004611cd6565b610876565b6040519015158152602001610257565b3480156102be57600080fd5b506102806102cd366004611d02565b61088d565b3480156102de57600080fd5b506002545b604051908152602001610257565b3480156102fd57600080fd5b5061028061030c366004611c92565b610ab5565b34801561031d57600080fd5b5061028061032c366004611d26565b610b4b565b34801561033d57600080fd5b506102a261034c366004611d48565b610b92565b34801561035d57600080fd5b5061028061036c366004611d26565b610c3c565b34801561037d57600080fd5b506010546102a29060ff1681565b34801561039757600080fd5b506102a26103a6366004611d02565b6001600160a01b031660009081526005602052604090205460ff1690565b3480156103d057600080fd5b5060405160128152602001610257565b3480156103ec57600080fd5b50601954610400906001600160a01b031681565b6040516001600160a01b039091168152602001610257565b34801561042457600080fd5b506102e360155481565b34801561043a57600080fd5b506102a2610449366004611cd6565b610c83565b61028061045c366004611d89565b610cbf565b34801561046d57600080fd5b50601754610400906001600160a01b031681565b34801561048d57600080fd5b506102e360135481565b3480156104a357600080fd5b506102806104b2366004611d02565b610e98565b3480156104c357600080fd5b506102e36104d2366004611d02565b6001600160a01b031660009081526020819052604090205490565b3480156104f957600080fd5b506102e37f000000000000000000000000000000000000000000000000000000000000000081565b34801561052d57600080fd5b5061028061053c366004611da2565b610f5d565b34801561054d57600080fd5b5061024a611062565b34801561056257600080fd5b506102e360145481565b34801561057857600080fd5b50610581611071565b6040516102579190611e31565b34801561059a57600080fd5b506102e360165481565b3480156105b057600080fd5b506102a26105bf366004611cd6565b6110d2565b3480156105d057600080fd5b50601854610400906001600160a01b031681565b3480156105f057600080fd5b506102a26105ff366004611cd6565b61116b565b34801561061057600080fd5b506102e360115481565b34801561062657600080fd5b50610280610635366004611d02565b611178565b34801561064657600080fd5b506102a2610655366004611d02565b601a6020526000908152604090205460ff1681565b34801561067657600080fd5b50610280610685366004611d02565b6111ce565b34801561069657600080fd5b506102806106a5366004611d02565b611223565b3480156106b657600080fd5b506007546102a290610100900460ff1681565b3480156106d557600080fd5b506102e36106e4366004611e44565b6001600160a01b03918216600090815260016020908152604080832093909416825291909152205490565b34801561071b57600080fd5b506102e360125481565b34801561073157600080fd5b50610280610740366004611d02565b61127b565b60606003805461075490611e7d565b80601f016020809104026020016040519081016040528092919081815260200182805461078090611e7d565b80156107cd5780601f106107a2576101008083540402835291602001916107cd565b820191906000526020600020905b8154815290600101906020018083116107b057829003601f168201915b5050505050905090565b3360009081526005602052604090205460ff1615156001146108145760405162461bcd60e51b815260040161080b90611eb8565b60405180910390fd5b7f0000000000000000000000000000000000000000000000000000000000000000816108408486611efe565b61084a9190611efe565b11156108685760405162461bcd60e51b815260040161080b90611f16565b506011829055601255601355565b60006108833384846112d0565b5060015b92915050565b3360009081526005602052604090205460ff1615156001146108c15760405162461bcd60e51b815260040161080b90611eb8565b6001600160a01b03811660009081526005602052604090205460ff16151560011461092e5760405162461bcd60e51b815260206004820152601760248201527f41646472657373206973206e6f7420616e206f776e6572000000000000000000604482015260640161080b565b60005b600654811015610ab157816001600160a01b03166006828154811061095857610958611f5e565b6000918252602090912001546001600160a01b03161415610a9f576001600160a01b0382166000908152600560205260409020805460ff19169055805b6006546109a490600190611f74565b811015610a2f5760066109b8836001611efe565b815481106109c8576109c8611f5e565b600091825260209091200154600680546001600160a01b0390921691849081106109f4576109f4611f5e565b600091825260209091200180546001600160a01b0319166001600160a01b039290921691909117905580610a2781611f8b565b915050610995565b506006805480610a4157610a41611fa6565b600082815260208120820160001990810180546001600160a01b031916905590910190915560405142916001600160a01b0385169133917fecc5dd9888b87e7ed252d66b9c086ab819de6c8f8b96c8e5458e105bacfbb02791a45050565b80610aa981611f8b565b915050610931565b5050565b3360009081526005602052604090205460ff161515600114610ae95760405162461bcd60e51b815260040161080b90611eb8565b7f000000000000000000000000000000000000000000000000000000000000000081610b158486611efe565b610b1f9190611efe565b1115610b3d5760405162461bcd60e51b815260040161080b90611f16565b601492909255601555601655565b3360009081526005602052604090205460ff161515600114610b7f5760405162461bcd60e51b815260040161080b90611eb8565b6010805460ff1916911515919091179055565b6000610b9f8484846113f4565b6001600160a01b038416600090815260016020908152604080832033845290915290205482811015610c245760405162461bcd60e51b815260206004820152602860248201527f45524332303a207472616e7366657220616d6f756e74206578636565647320616044820152676c6c6f77616e636560c01b606482015260840161080b565b610c3185338584036112d0565b506001949350505050565b3360009081526005602052604090205460ff161515600114610c705760405162461bcd60e51b815260040161080b90611eb8565b6007805460ff1916911515919091179055565b3360008181526001602090815260408083206001600160a01b03871684529091528120549091610883918590610cba908690611efe565b6112d0565b3360009081526005602052604090205460ff161515600114610cf35760405162461bcd60e51b815260040161080b90611eb8565b601b546001600160a01b0316610d405760405162461bcd60e51b8152602060048201526012602482015271149bdd5d195c881b9bdd081cd95d081e595d60721b604482015260640161080b565b6000610d4e6012600a6120a0565b610d5890836120af565b33600090815260208190526040902054909150811115610dcc5760405162461bcd60e51b815260206004820152602960248201527f53656e64657220646f6573206e6f74206861766520656e6f75676820746f6b656044820152686e2062616c616e636560b81b606482015260840161080b565b601b5460175460405163f305d71960e01b81526001600160a01b039283169263f305d719923492610e0c92309288926000928392169042906004016120ce565b60606040518083038185885af1158015610e2a573d6000803e3d6000fd5b50505050506040513d601f19601f82011682018060405250810190610e4f9190612109565b505060075462010000900460ff169050610ab1576007805462ffff00191662010100179055600854610e819042611efe565b600955600a54610e919043611efe565b600b555050565b3360009081526005602052604090205460ff161515600114610ecc5760405162461bcd60e51b815260040161080b90611eb8565b6001600160a01b038116600081815260056020526040808220805460ff1916600190811790915560068054918201815583527ff652222313e28459528d920b65115c16c04f3efc82aaedc97be59f3f377c0d3f0180546001600160a01b031916841790555142929133917fa0b18fca933618876351ba2ef88bf4505c184d3e55064bec0d7fe236dd706d849190a450565b3360009081526005602052604090205460ff161515600114610f915760405162461bcd60e51b815260040161080b90611eb8565b6001600160a01b0383161580610fae57506001600160a01b038216155b80610fc057506001600160a01b038116155b156110235760405162461bcd60e51b815260206004820152602d60248201527f4e6f6e65206f6620746865206164647265737365732063616e2774206265207a60448201526c65726f2061646472657373657360981b606482015260840161080b565b601780546001600160a01b039485166001600160a01b031991821617909155601880549385169382169390931790925560198054919093169116179055565b60606004805461075490611e7d565b606060068054806020026020016040519081016040528092919081815260200182805480156107cd57602002820191906000526020600020905b81546001600160a01b031681526001909101906020018083116110ab575050505050905090565b3360009081526001602090815260408083206001600160a01b0386168452909152812054828110156111545760405162461bcd60e51b815260206004820152602560248201527f45524332303a2064656372656173656420616c6c6f77616e63652062656c6f77604482015264207a65726f60d81b606482015260840161080b565b61116133858584036112d0565b5060019392505050565b60006108833384846113f4565b3360009081526005602052604090205460ff1615156001146111ac5760405162461bcd60e51b815260040161080b90611eb8565b601b80546001600160a01b0319166001600160a01b0392909216919091179055565b3360009081526005602052604090205460ff1615156001146112025760405162461bcd60e51b815260040161080b90611eb8565b6001600160a01b03166000908152601a60205260409020805460ff19169055565b3360009081526005602052604090205460ff1615156001146112575760405162461bcd60e51b815260040161080b90611eb8565b6001600160a01b03166000908152601a60205260409020805460ff19166001179055565b3360009081526005602052604090205460ff1615156001146112af5760405162461bcd60e51b815260040161080b90611eb8565b6001600160a01b03166000908152600c60205260409020805460ff19169055565b6001600160a01b0383166113325760405162461bcd60e51b8152602060048201526024808201527f45524332303a20617070726f76652066726f6d20746865207a65726f206164646044820152637265737360e01b606482015260840161080b565b6001600160a01b0382166113935760405162461bcd60e51b815260206004820152602260248201527f45524332303a20617070726f766520746f20746865207a65726f206164647265604482015261737360f01b606482015260840161080b565b6001600160a01b0383811660008181526001602090815260408083209487168084529482529182902085905590518481527f8c5be1e5ebec7d5bd14f71427d1e84f3dd0314c0f7b2291e5b200ac8c7c3b925910160405180910390a3505050565b3360009081526005602052604090205460ff166114505760075460ff16156114505760405162461bcd60e51b815260206004820152600f60248201526e10dbdb9d1c9858dd081c185d5cd959608a1b604482015260640161080b565b601154601254601354600754610100900460ff16156114bf57600b544311611496576001600160a01b0386166000908152600c60205260409020805460ff191660011790555b60095442116114b357600d549250600e549150600f5490506114bf565b6007805461ff00191690555b6001600160a01b0386166000908152600c602052604090205460ff166115f557601b546017546001600160a01b039182169160019160009116158061150d57506018546001600160a01b0316155b8061152157506019546001600160a01b0316155b90506000836001600160a01b03168a6001600160a01b03161480156115575750836001600160a01b0316896001600160a01b0316145b6001600160a01b038b166000908152601a60205260409020549015915060ff168061157f5750815b806115875750805b1561159157600092505b600083156115db57846001600160a01b03168a6001600160a01b031614156115c6576115bf898989896115fd565b90506115db565b6115d8896014546015546016546115fd565b90505b6115ef8b8b6115ea848d611f74565b61168c565b50505050505b505050505050565b6000808261160b8587611efe565b6116159190611efe565b9050600060646116258688611efe565b61162f90896120af565b6116399190612137565b90506116478183888861185b565b60105460009060ff1615611676576064611661868a6120af565b61166b9190612137565b9050611676816119bc565b6116808183611efe565b98975050505050505050565b6001600160a01b0383166116f05760405162461bcd60e51b815260206004820152602560248201527f45524332303a207472616e736665722066726f6d20746865207a65726f206164604482015264647265737360d81b606482015260840161080b565b6001600160a01b0382166117525760405162461bcd60e51b815260206004820152602360248201527f45524332303a207472616e7366657220746f20746865207a65726f206164647260448201526265737360e81b606482015260840161080b565b6001600160a01b038316600090815260208190526040902054818110156117ca5760405162461bcd60e51b815260206004820152602660248201527f45524332303a207472616e7366657220616d6f756e7420657863656564732062604482015265616c616e636560d01b606482015260840161080b565b6001600160a01b03808516600090815260208190526040808220858503905591851681529081208054849290611801908490611efe565b92505081905550826001600160a01b0316846001600160a01b03167fddf252ad1be2c89b69c2b068fc378daa952ba7f163c4a11628f55a4df523b3ef8460405161184d91815260200190565b60405180910390a350505050565b6000611866856119ff565b905080156119b5576017546000906001600160a01b0316611891838761188c8789611efe565b611b77565b604051600081818185875af1925050503d80600081146118cd576040519150601f19603f3d011682016040523d82523d6000602084013e6118d2565b606091505b50506018549091506000906001600160a01b03166118f1848887611b77565b604051600081818185875af1925050503d806000811461192d576040519150601f19603f3d011682016040523d82523d6000602084013e611932565b606091505b505090508180156119405750805b6119b25760405162461bcd60e51b815260206004820152603860248201527f436f756c646e27742073656e6420746f2065697468657220646576656c6f706d60448201527f656e74206f72206d61726b6574696e6720616464726573730000000000000000606482015260840161080b565b50505b5050505050565b60006119c9600283612137565b905060006119d78284611f74565b90504760006119e5846119ff565b905060006119f38383611f74565b90506115f58482611ba2565b604080516002808252606082018352600092839291906020830190803683370190505090503081600081518110611a3857611a38611f5e565b6001600160a01b03928316602091820292909201810191909152601b54604080516315ab88c960e31b81529051919093169263ad5c46489260048083019391928290030181865afa158015611a91573d6000803e3d6000fd5b505050506040513d601f19601f82011682018060405250810190611ab5919061216f565b81600181518110611ac857611ac8611f5e565b6001600160a01b039283166020918202929092010152601b54611aee91309116856112d0565b601b546040516318cbafe560e01b81526001600160a01b03909116906318cbafe590611b2790869060009086903090429060040161218c565b6000604051808303816000875af1158015611b46573d6000803e3d6000fd5b505050506040513d6000823e601f3d908101601f19168201604052611b6e91908101906121c8565b50479392505050565b6000606482611b8685876120af565b611b9091906120af565b611b9a9190612137565b949350505050565b601b54611bba9030906001600160a01b0316846112d0565b601b5460175460405163f305d71960e01b81526001600160a01b039283169263f305d719928592611bfa92309289926000928392169042906004016120ce565b60606040518083038185885af1158015611c18573d6000803e3d6000fd5b50505050506040513d601f19601f820116820180604052508101906119b59190612109565b600060208083528351808285015260005b81811015611c6a57858101830151858201604001528201611c4e565b81811115611c7c576000604083870101525b50601f01601f1916929092016040019392505050565b600080600060608486031215611ca757600080fd5b505081359360208301359350604090920135919050565b6001600160a01b0381168114611cd357600080fd5b50565b60008060408385031215611ce957600080fd5b8235611cf481611cbe565b946020939093013593505050565b600060208284031215611d1457600080fd5b8135611d1f81611cbe565b9392505050565b600060208284031215611d3857600080fd5b81358015158114611d1f57600080fd5b600080600060608486031215611d5d57600080fd5b8335611d6881611cbe565b92506020840135611d7881611cbe565b929592945050506040919091013590565b600060208284031215611d9b57600080fd5b5035919050565b600080600060608486031215611db757600080fd5b8335611dc281611cbe565b92506020840135611dd281611cbe565b91506040840135611de281611cbe565b809150509250925092565b600081518084526020808501945080840160005b83811015611e265781516001600160a01b031687529582019590820190600101611e01565b509495945050505050565b602081526000611d1f6020830184611ded565b60008060408385031215611e5757600080fd5b8235611e6281611cbe565b91506020830135611e7281611cbe565b809150509250929050565b600181811c90821680611e9157607f821691505b60208210811415611eb257634e487b7160e01b600052602260045260246000fd5b50919050565b60208082526016908201527521b0b63632b91034b9903737ba1030b71037bbb732b960511b604082015260600190565b634e487b7160e01b600052601160045260246000fd5b60008219821115611f1157611f11611ee8565b500190565b60208082526028908201527f546f74616c207461786573206172652061626f76652074686520616c6c6f77656040820152671908185b5bdd5b9d60c21b606082015260800190565b634e487b7160e01b600052603260045260246000fd5b600082821015611f8657611f86611ee8565b500390565b6000600019821415611f9f57611f9f611ee8565b5060010190565b634e487b7160e01b600052603160045260246000fd5b600181815b80851115611ff7578160001904821115611fdd57611fdd611ee8565b80851615611fea57918102915b93841c9390800290611fc1565b509250929050565b60008261200e57506001610887565b8161201b57506000610887565b8160018114612031576002811461203b57612057565b6001915050610887565b60ff84111561204c5761204c611ee8565b50506001821b610887565b5060208310610133831016604e8410600b841016171561207a575081810a610887565b6120848383611fbc565b806000190482111561209857612098611ee8565b029392505050565b6000611d1f60ff841683611fff565b60008160001904831182151516156120c9576120c9611ee8565b500290565b6001600160a01b039687168152602081019590955260408501939093526060840191909152909216608082015260a081019190915260c00190565b60008060006060848603121561211e57600080fd5b8351925060208401519150604084015190509250925092565b60008261215457634e487b7160e01b600052601260045260246000fd5b500490565b634e487b7160e01b600052604160045260246000fd5b60006020828403121561218157600080fd5b8151611d1f81611cbe565b85815284602082015260a0604082015260006121ab60a0830186611ded565b6001600160a01b0394909416606083015250608001529392505050565b600060208083850312156121db57600080fd5b825167ffffffffffffffff808211156121f357600080fd5b818501915085601f83011261220757600080fd5b81518181111561221957612219612159565b8060051b604051601f19603f8301168101818110858211171561223e5761223e612159565b60405291825284820192508381018501918883111561225c57600080fd5b938501935b828510156116805784518452938501939285019261226156fea2646970667358221220bcde0194dc23d74c749317b9a85dcd81652a1123419c0049f1fcc8bb994e086564736f6c634300080b0033",
  "immutableReferences": {
    "5142": [
      {
        "length": 32,
        "start": 1279
      },
      {
        "length": 32,
        "start": 2070
      },
      {
        "length": 32,
        "start": 2795
      }
    ]
  },
  "source": "// SPDX-License-Identifier: MIT\r\n\r\npragma solidity >=0.4.22 <0.9.0;\r\n\r\nimport \"./PauseOwners.sol\";\r\nimport \"@openzeppelin/contracts/token/ERC20/ERC20.sol\";\r\nimport \"@uniswap/v2-periphery/contracts/interfaces/IUniswapV2Router02.sol\";\r\nimport \"@uniswap/v2-core/contracts/interfaces/IUniswapV2Pair.sol\";\r\nimport \"@uniswap/v2-periphery/contracts/libraries/UniswapV2Library.sol\";\r\n\r\ncontract Token is ERC20, PauseOwners {\r\n\tuint256 public immutable MAX_TOTAL_FEE = 25; // We can never surpass this total fee\r\n\r\n\tbool public antiBotEnabled = false;\r\n\tbool private antiBotRanOnce = false; // We can only run antibot once, when initial liquidity is added\r\n\tuint256 private antiBotTaxesTimeInSeconds = 3600;\r\n\tuint256 private antiBotTaxesEndTime;\r\n\tuint256 private antiBotBlockTime = 2;\r\n\tuint256 private antiBotBlockEnd;\r\n\r\n\tmapping(address => bool) antiBotBlacklist;\r\n\r\n\tuint256 private antiBotSellDevelopmentTax = 10;\r\n\tuint256 private antiBotSellMarketingTax = 10;\r\n\tuint256 private antiBotSellLiquidityTax = 5;\r\n\r\n\tbool public liquidityTaxEnabled = true;\r\n\r\n\tuint256 public sellDevelopmentTax = 4;\r\n\tuint256 public sellMarketingTax = 4;\r\n\tuint256 public sellLiquidityTax = 2;\r\n\r\n\tuint256 public buyDevelopmentTax = 2;\r\n\tuint256 public buyMarketingTax = 2;\r\n\tuint256 public buyLiquidityTax = 1;\r\n\r\n\taddress payable public developmentAddress;\r\n\taddress payable public marketingAddress;\r\n\taddress payable public liquidityAddress;\r\n\r\n\tmapping(address => bool) public isExcludedFromTax;\r\n\r\n\tIUniswapV2Router02 private router;\r\n\r\n\tconstructor(address gameAddress, address nftAddress) ERC20(\"Token\", \"TKN\") {\r\n\t\tdevelopmentAddress = payable(msg.sender);\r\n\t\t_mint(developmentAddress, 3333 * 10**decimals()); // For adding liquidity and team tokens\r\n\t\t_mint(gameAddress, 3333 * 10**decimals()); // Used as game rewards\r\n\t\t_mint(nftAddress, 3333 * 10**decimals()); // Used as NFT rewards\r\n\t\tisExcludedFromTax[gameAddress] = true;\r\n\t\tisExcludedFromTax[nftAddress] = true;\r\n\t}\r\n\r\n\treceive() external payable {} // Must be defined so the contract is able to receive ETH from swaps\r\n\r\n\tfunction addLiquidity(uint256 amountToken) external payable onlyOwners {\r\n\t\t// Add initial liquidity and enabled the \"anti-bot\" feature\r\n\t\trequire(address(router) != address(0), \"Router not set yet\");\r\n\t\tuint256 amountTokenDecimals = amountToken * (10**decimals());\r\n\t\trequire(\r\n\t\t\tbalanceOf(msg.sender) >= amountTokenDecimals,\r\n\t\t\t\"Sender does not have enough token balance\"\r\n\t\t);\r\n\t\trouter.addLiquidityETH{ value: msg.value }(\r\n\t\t\taddress(this),\r\n\t\t\tamountTokenDecimals,\r\n\t\t\t0,\r\n\t\t\t0,\r\n\t\t\tdevelopmentAddress,\r\n\t\t\tblock.timestamp\r\n\t\t);\r\n\t\tif (!antiBotRanOnce) {\r\n\t\t\tantiBotEnabled = true;\r\n\t\t\tantiBotRanOnce = true;\r\n\t\t\tantiBotTaxesEndTime = block.timestamp + antiBotTaxesTimeInSeconds;\r\n\t\t\tantiBotBlockEnd = block.number + antiBotBlockTime;\r\n\t\t}\r\n\t}\r\n\r\n\tfunction _transfer(\r\n\t\taddress sender,\r\n\t\taddress recipient,\r\n\t\tuint256 amount\r\n\t) internal virtual override checkPaused {\r\n\t\t// Temporary local variables for setting antibot taxes\r\n\t\tuint256 sellDevelopmentTax_ = sellDevelopmentTax;\r\n\t\tuint256 sellMarketingTax_ = sellMarketingTax;\r\n\t\tuint256 sellLiquidityTax_ = sellLiquidityTax;\r\n\r\n\t\tif (antiBotEnabled) {\r\n\t\t\tif (block.number <= antiBotBlockEnd) {\r\n\t\t\t\tantiBotBlacklist[sender] = true;\r\n\t\t\t}\r\n\t\t\tif (block.timestamp <= antiBotTaxesEndTime) {\r\n\t\t\t\tsellDevelopmentTax_ = antiBotSellDevelopmentTax;\r\n\t\t\t\tsellMarketingTax_ = antiBotSellMarketingTax;\r\n\t\t\t\tsellLiquidityTax_ = antiBotSellLiquidityTax;\r\n\t\t\t} else {\r\n\t\t\t\tantiBotEnabled = false;\r\n\t\t\t}\r\n\t\t}\r\n\r\n\t\tif (!antiBotBlacklist[sender]) {\r\n\t\t\taddress routerAddress = address(router);\r\n\r\n\t\t\tbool takeFee = true;\r\n\t\t\tbool anyTaxAddressNotSet = developmentAddress == address(0) ||\r\n\t\t\t\tmarketingAddress == address(0) ||\r\n\t\t\t\tliquidityAddress == address(0);\r\n\t\t\tbool isWalletToWalletTransfer = !(sender == routerAddress &&\r\n\t\t\t\trecipient == routerAddress);\r\n\r\n\t\t\tif (\r\n\t\t\t\tisExcludedFromTax[sender] ||\r\n\t\t\t\tanyTaxAddressNotSet ||\r\n\t\t\t\tisWalletToWalletTransfer\r\n\t\t\t) {\r\n\t\t\t\ttakeFee = false;\r\n\t\t\t}\r\n\r\n\t\t\tuint256 totalFeeInTokens = 0;\r\n\t\t\tif (takeFee) {\r\n\t\t\t\tif (recipient == routerAddress) {\r\n\t\t\t\t\t// Selling\r\n\t\t\t\t\ttotalFeeInTokens = takeFees(\r\n\t\t\t\t\t\tamount,\r\n\t\t\t\t\t\tsellDevelopmentTax_,\r\n\t\t\t\t\t\tsellMarketingTax_,\r\n\t\t\t\t\t\tsellLiquidityTax_\r\n\t\t\t\t\t);\r\n\t\t\t\t} else {\r\n\t\t\t\t\t// Buying\r\n\t\t\t\t\ttotalFeeInTokens = takeFees(\r\n\t\t\t\t\t\tamount,\r\n\t\t\t\t\t\tbuyDevelopmentTax,\r\n\t\t\t\t\t\tbuyMarketingTax,\r\n\t\t\t\t\t\tbuyLiquidityTax\r\n\t\t\t\t\t);\r\n\t\t\t\t}\r\n\t\t\t}\r\n\t\t\tsuper._transfer(sender, recipient, amount - totalFeeInTokens);\r\n\t\t}\r\n\t}\r\n\r\n\tfunction takeFees(\r\n\t\tuint256 amountToken,\r\n\t\tuint256 developmentFee,\r\n\t\tuint256 marketingFee,\r\n\t\tuint256 liquidityFee\r\n\t) private returns (uint256) {\r\n\t\tuint256 totalFee = developmentFee + marketingFee + liquidityFee;\r\n\r\n\t\tuint256 walletFeeInTokens = (amountToken *\r\n\t\t\t(developmentFee + marketingFee)) / 100;\r\n\t\tswapAndTransferFees(\r\n\t\t\twalletFeeInTokens,\r\n\t\t\ttotalFee,\r\n\t\t\tdevelopmentFee,\r\n\t\t\tmarketingFee\r\n\t\t);\r\n\r\n\t\tuint256 liquidityFeeInTokens = 0;\r\n\t\tif (liquidityTaxEnabled) {\r\n\t\t\tliquidityFeeInTokens = (amountToken * liquidityFee) / 100;\r\n\t\t\tswapAndLiquify(liquidityFeeInTokens);\r\n\t\t}\r\n\r\n\t\treturn walletFeeInTokens + liquidityFeeInTokens;\r\n\t}\r\n\r\n\tfunction swapAndTransferFees(\r\n\t\tuint256 amountToken,\r\n\t\tuint256 totalFee,\r\n\t\tuint256 developmentFee,\r\n\t\tuint256 marketingFee\r\n\t) private {\r\n\t\tuint256 balance = swapTokensToETH(amountToken);\r\n\t\tif (balance > 0) {\r\n\t\t\t// No point in trying to send if swapped 0\r\n\t\t\t(bool devSent, ) = developmentAddress.call{\r\n\t\t\t\tvalue: getEthFromBalanceWithFees(\r\n\t\t\t\t\tbalance,\r\n\t\t\t\t\ttotalFee,\r\n\t\t\t\t\tdevelopmentFee + marketingFee\r\n\t\t\t\t)\r\n\t\t\t}(\"\");\r\n\t\t\t(bool marSent, ) = marketingAddress.call{\r\n\t\t\t\tvalue: getEthFromBalanceWithFees(\r\n\t\t\t\t\tbalance,\r\n\t\t\t\t\ttotalFee,\r\n\t\t\t\t\tmarketingFee\r\n\t\t\t\t)\r\n\t\t\t}(\"\");\r\n\t\t\trequire(\r\n\t\t\t\tdevSent && marSent,\r\n\t\t\t\t\"Couldn't send to either development or marketing address\"\r\n\t\t\t);\r\n\t\t}\r\n\t}\r\n\r\n\tfunction getEthFromBalanceWithFees(\r\n\t\tuint256 balance,\r\n\t\tuint256 withFee,\r\n\t\tuint256 totalFees\r\n\t) private pure returns (uint256) {\r\n\t\treturn (balance * withFee * totalFees) / 100;\r\n\t}\r\n\r\n\tfunction swapAndLiquify(uint256 amountToken) private {\r\n\t\tuint256 half1 = amountToken / 2;\r\n\t\tuint256 half2 = amountToken - half1;\r\n\t\tuint256 balanceBeforeSwap = address(this).balance;\r\n\t\tuint256 balanceAfterSwap = swapTokensToETH(half1); // Swap half of the tokens to BNB\r\n\t\tuint256 swapDifference = balanceAfterSwap - balanceBeforeSwap;\r\n\t\taddLiquidityTax(half2, swapDifference); // Add the non-swapped tokens and the swapped BNB to liquidity\r\n\t}\r\n\r\n\tfunction swapTokensToETH(uint256 amountToken) private returns (uint256) {\r\n\t\taddress[] memory path = new address[](2);\r\n\t\tpath[0] = address(this);\r\n\t\tpath[1] = router.WETH();\r\n\t\t_approve(address(this), address(router), amountToken);\r\n\t\trouter.swapExactTokensForETH(\r\n\t\t\tamountToken,\r\n\t\t\t0, // Receive any amount\r\n\t\t\tpath,\r\n\t\t\taddress(this),\r\n\t\t\tblock.timestamp\r\n\t\t);\r\n\t\treturn address(this).balance; // Balance in wei after taking fees\r\n\t}\r\n\r\n\tfunction addLiquidityTax(uint256 amountToken, uint256 amountEth) private {\r\n\t\t_approve(address(this), address(router), amountToken);\r\n\t\trouter.addLiquidityETH{ value: amountEth }(\r\n\t\t\taddress(this),\r\n\t\t\tamountToken,\r\n\t\t\t0,\r\n\t\t\t0,\r\n\t\t\tdevelopmentAddress,\r\n\t\t\tblock.timestamp\r\n\t\t);\r\n\t}\r\n\r\n\tfunction setSellTaxes(\r\n\t\tuint256 sellDevelopmentTax_,\r\n\t\tuint256 sellMarketingTax_,\r\n\t\tuint256 sellLiquidityTax_\r\n\t) external onlyOwners {\r\n\t\trequire(\r\n\t\t\t(sellDevelopmentTax_ + sellMarketingTax_ + sellLiquidityTax_) <=\r\n\t\t\t\tMAX_TOTAL_FEE,\r\n\t\t\t\"Total taxes are above the allowed amount\"\r\n\t\t);\r\n\t\tsellDevelopmentTax = sellDevelopmentTax_;\r\n\t\tsellMarketingTax = sellMarketingTax_;\r\n\t\tsellLiquidityTax = sellDevelopmentTax_;\r\n\t}\r\n\r\n\tfunction setBuyTaxes(\r\n\t\tuint256 buyDevelopmentTax_,\r\n\t\tuint256 buyMarketingTax_,\r\n\t\tuint256 buyLiquidityTax_\r\n\t) external onlyOwners {\r\n\t\trequire(\r\n\t\t\t(buyDevelopmentTax_ + buyMarketingTax_ + buyLiquidityTax_) <=\r\n\t\t\t\tMAX_TOTAL_FEE,\r\n\t\t\t\"Total taxes are above the allowed amount\"\r\n\t\t);\r\n\t\tbuyDevelopmentTax = buyDevelopmentTax_;\r\n\t\tbuyMarketingTax = buyMarketingTax_;\r\n\t\tbuyLiquidityTax = buyLiquidityTax_;\r\n\t}\r\n\r\n\tfunction setTaxAddresses(\r\n\t\taddress developmentAddress_,\r\n\t\taddress marketingAddress_,\r\n\t\taddress liquidityAddress_\r\n\t) external onlyOwners {\r\n\t\trequire(\r\n\t\t\t!(developmentAddress_ == address(0) ||\r\n\t\t\t\tmarketingAddress_ == address(0) ||\r\n\t\t\t\tliquidityAddress_ == address(0)),\r\n\t\t\t\"None of the addresses can't be zero addresses\"\r\n\t\t);\r\n\t\tdevelopmentAddress = payable(developmentAddress_);\r\n\t\tmarketingAddress = payable(marketingAddress_);\r\n\t\tliquidityAddress = payable(liquidityAddress_);\r\n\t}\r\n\r\n\tfunction removeBlacklist(address address_) external onlyOwners {\r\n\t\tantiBotBlacklist[address_] = false;\r\n\t}\r\n\r\n\tfunction setLiquidityTaxEnabled(bool enabled) external onlyOwners {\r\n\t\tliquidityTaxEnabled = enabled;\r\n\t}\r\n\r\n\tfunction addTaxExcludedAddress(address address_) external onlyOwners {\r\n\t\tisExcludedFromTax[address_] = true;\r\n\t}\r\n\r\n\tfunction removeTaxExcludedAddress(address address_) external onlyOwners {\r\n\t\tisExcludedFromTax[address_] = false;\r\n\t}\r\n\r\n\tfunction setRouter(address routerAddress) external onlyOwners {\r\n\t\trouter = IUniswapV2Router02(routerAddress);\r\n\t}\r\n}\r\n",
  "sourcePath": "C:\\Users\\razor\\Desktop\\slimekeeper_contracts\\contracts\\Token.sol",
  "compiler": {
    "name": "solc",
    "version": "0.8.11+commit.d7f03943.Emscripten.clang"
  },
  "schemaVersion": "3.4.3",
  "updatedAt": "2022-02-19T00:55:19.637Z",
  "networkType": "ethereum",
  "devdoc": {
    "kind": "dev",
    "methods": {
      "allowance(address,address)": {
        "details": "See {IERC20-allowance}."
      },
      "approve(address,uint256)": {
        "details": "See {IERC20-approve}. Requirements: - `spender` cannot be the zero address."
      },
      "balanceOf(address)": {
        "details": "See {IERC20-balanceOf}."
      },
      "decimals()": {
        "details": "Returns the number of decimals used to get its user representation. For example, if `decimals` equals `2`, a balance of `505` tokens should be displayed to a user as `5.05` (`505 / 10 ** 2`). Tokens usually opt for a value of 18, imitating the relationship between Ether and Wei. This is the value {ERC20} uses, unless this function is overridden; NOTE: This information is only used for _display_ purposes: it in no way affects any of the arithmetic of the contract, including {IERC20-balanceOf} and {IERC20-transfer}."
      },
      "decreaseAllowance(address,uint256)": {
        "details": "Atomically decreases the allowance granted to `spender` by the caller. This is an alternative to {approve} that can be used as a mitigation for problems described in {IERC20-approve}. Emits an {Approval} event indicating the updated allowance. Requirements: - `spender` cannot be the zero address. - `spender` must have allowance for the caller of at least `subtractedValue`."
      },
      "increaseAllowance(address,uint256)": {
        "details": "Atomically increases the allowance granted to `spender` by the caller. This is an alternative to {approve} that can be used as a mitigation for problems described in {IERC20-approve}. Emits an {Approval} event indicating the updated allowance. Requirements: - `spender` cannot be the zero address."
      },
      "name()": {
        "details": "Returns the name of the token."
      },
      "symbol()": {
        "details": "Returns the symbol of the token, usually a shorter version of the name."
      },
      "totalSupply()": {
        "details": "See {IERC20-totalSupply}."
      },
      "transfer(address,uint256)": {
        "details": "See {IERC20-transfer}. Requirements: - `recipient` cannot be the zero address. - the caller must have a balance of at least `amount`."
      },
      "transferFrom(address,address,uint256)": {
        "details": "See {IERC20-transferFrom}. Emits an {Approval} event indicating the updated allowance. This is not required by the EIP. See the note at the beginning of {ERC20}. Requirements: - `sender` and `recipient` cannot be the zero address. - `sender` must have a balance of at least `amount`. - the caller must have allowance for ``sender``'s tokens of at least `amount`."
      }
    },
    "version": 1
  },
  "userdoc": {
    "kind": "user",
    "methods": {},
    "version": 1
  }
}