{
  "contractName": "Token",
  "abi": [
    {
      "inputs": [
        {
          "internalType": "address",
          "name": "gameAddress_",
          "type": "address"
        },
        {
          "internalType": "address",
          "name": "nftAddress_",
          "type": "address"
        }
      ],
      "stateMutability": "nonpayable",
      "type": "constructor"
    },
    {
      "anonymous": false,
      "inputs": [
        {
          "indexed": true,
          "internalType": "address",
          "name": "owner",
          "type": "address"
        },
        {
          "indexed": true,
          "internalType": "address",
          "name": "spender",
          "type": "address"
        },
        {
          "indexed": false,
          "internalType": "uint256",
          "name": "value",
          "type": "uint256"
        }
      ],
      "name": "Approval",
      "type": "event"
    },
    {
      "anonymous": false,
      "inputs": [
        {
          "indexed": true,
          "internalType": "address",
          "name": "adder",
          "type": "address"
        },
        {
          "indexed": true,
          "internalType": "address",
          "name": "owner",
          "type": "address"
        },
        {
          "indexed": true,
          "internalType": "uint256",
          "name": "timestamp",
          "type": "uint256"
        }
      ],
      "name": "OwnerAdded",
      "type": "event"
    },
    {
      "anonymous": false,
      "inputs": [
        {
          "indexed": true,
          "internalType": "address",
          "name": "remover",
          "type": "address"
        },
        {
          "indexed": true,
          "internalType": "address",
          "name": "removed",
          "type": "address"
        },
        {
          "indexed": true,
          "internalType": "uint256",
          "name": "timestamp",
          "type": "uint256"
        }
      ],
      "name": "OwnerRemoved",
      "type": "event"
    },
    {
      "anonymous": false,
      "inputs": [],
      "name": "OwnershipRenounced",
      "type": "event"
    },
    {
      "anonymous": false,
      "inputs": [
        {
          "indexed": true,
          "internalType": "address",
          "name": "from",
          "type": "address"
        },
        {
          "indexed": true,
          "internalType": "address",
          "name": "to",
          "type": "address"
        },
        {
          "indexed": false,
          "internalType": "uint256",
          "name": "value",
          "type": "uint256"
        }
      ],
      "name": "Transfer",
      "type": "event"
    },
    {
      "inputs": [],
      "name": "MAX_TOTAL_FEE",
      "outputs": [
        {
          "internalType": "uint256",
          "name": "",
          "type": "uint256"
        }
      ],
      "stateMutability": "view",
      "type": "function",
      "constant": true
    },
    {
      "inputs": [
        {
          "internalType": "address",
          "name": "owner",
          "type": "address"
        }
      ],
      "name": "addOwner",
      "outputs": [],
      "stateMutability": "nonpayable",
      "type": "function"
    },
    {
      "inputs": [
        {
          "internalType": "address",
          "name": "owner",
          "type": "address"
        },
        {
          "internalType": "address",
          "name": "spender",
          "type": "address"
        }
      ],
      "name": "allowance",
      "outputs": [
        {
          "internalType": "uint256",
          "name": "",
          "type": "uint256"
        }
      ],
      "stateMutability": "view",
      "type": "function",
      "constant": true
    },
    {
      "inputs": [],
      "name": "antiBotEnabled",
      "outputs": [
        {
          "internalType": "bool",
          "name": "",
          "type": "bool"
        }
      ],
      "stateMutability": "view",
      "type": "function",
      "constant": true
    },
    {
      "inputs": [
        {
          "internalType": "address",
          "name": "spender",
          "type": "address"
        },
        {
          "internalType": "uint256",
          "name": "amount",
          "type": "uint256"
        }
      ],
      "name": "approve",
      "outputs": [
        {
          "internalType": "bool",
          "name": "",
          "type": "bool"
        }
      ],
      "stateMutability": "nonpayable",
      "type": "function"
    },
    {
      "inputs": [
        {
          "internalType": "address",
          "name": "account",
          "type": "address"
        }
      ],
      "name": "balanceOf",
      "outputs": [
        {
          "internalType": "uint256",
          "name": "",
          "type": "uint256"
        }
      ],
      "stateMutability": "view",
      "type": "function",
      "constant": true
    },
    {
      "inputs": [],
      "name": "buyDevelopmentTax",
      "outputs": [
        {
          "internalType": "uint256",
          "name": "",
          "type": "uint256"
        }
      ],
      "stateMutability": "view",
      "type": "function",
      "constant": true
    },
    {
      "inputs": [],
      "name": "buyLiquidityTax",
      "outputs": [
        {
          "internalType": "uint256",
          "name": "",
          "type": "uint256"
        }
      ],
      "stateMutability": "view",
      "type": "function",
      "constant": true
    },
    {
      "inputs": [],
      "name": "buyMarketingTax",
      "outputs": [
        {
          "internalType": "uint256",
          "name": "",
          "type": "uint256"
        }
      ],
      "stateMutability": "view",
      "type": "function",
      "constant": true
    },
    {
      "inputs": [],
      "name": "decimals",
      "outputs": [
        {
          "internalType": "uint8",
          "name": "",
          "type": "uint8"
        }
      ],
      "stateMutability": "view",
      "type": "function",
      "constant": true
    },
    {
      "inputs": [
        {
          "internalType": "address",
          "name": "spender",
          "type": "address"
        },
        {
          "internalType": "uint256",
          "name": "subtractedValue",
          "type": "uint256"
        }
      ],
      "name": "decreaseAllowance",
      "outputs": [
        {
          "internalType": "bool",
          "name": "",
          "type": "bool"
        }
      ],
      "stateMutability": "nonpayable",
      "type": "function"
    },
    {
      "inputs": [],
      "name": "developmentAddress",
      "outputs": [
        {
          "internalType": "address payable",
          "name": "",
          "type": "address"
        }
      ],
      "stateMutability": "view",
      "type": "function",
      "constant": true
    },
    {
      "inputs": [],
      "name": "getOwners",
      "outputs": [
        {
          "internalType": "address[]",
          "name": "",
          "type": "address[]"
        }
      ],
      "stateMutability": "view",
      "type": "function",
      "constant": true
    },
    {
      "inputs": [
        {
          "internalType": "address",
          "name": "spender",
          "type": "address"
        },
        {
          "internalType": "uint256",
          "name": "addedValue",
          "type": "uint256"
        }
      ],
      "name": "increaseAllowance",
      "outputs": [
        {
          "internalType": "bool",
          "name": "",
          "type": "bool"
        }
      ],
      "stateMutability": "nonpayable",
      "type": "function"
    },
    {
      "inputs": [
        {
          "internalType": "address",
          "name": "",
          "type": "address"
        }
      ],
      "name": "isExcludedFromTax",
      "outputs": [
        {
          "internalType": "bool",
          "name": "",
          "type": "bool"
        }
      ],
      "stateMutability": "view",
      "type": "function",
      "constant": true
    },
    {
      "inputs": [
        {
          "internalType": "address",
          "name": "owner",
          "type": "address"
        }
      ],
      "name": "isOwner",
      "outputs": [
        {
          "internalType": "bool",
          "name": "",
          "type": "bool"
        }
      ],
      "stateMutability": "view",
      "type": "function",
      "constant": true
    },
    {
      "inputs": [],
      "name": "isPaused",
      "outputs": [
        {
          "internalType": "bool",
          "name": "",
          "type": "bool"
        }
      ],
      "stateMutability": "view",
      "type": "function",
      "constant": true
    },
    {
      "inputs": [],
      "name": "liquidityAddress",
      "outputs": [
        {
          "internalType": "address payable",
          "name": "",
          "type": "address"
        }
      ],
      "stateMutability": "view",
      "type": "function",
      "constant": true
    },
    {
      "inputs": [],
      "name": "liquidityTaxEnabled",
      "outputs": [
        {
          "internalType": "bool",
          "name": "",
          "type": "bool"
        }
      ],
      "stateMutability": "view",
      "type": "function",
      "constant": true
    },
    {
      "inputs": [],
      "name": "marketingAddress",
      "outputs": [
        {
          "internalType": "address payable",
          "name": "",
          "type": "address"
        }
      ],
      "stateMutability": "view",
      "type": "function",
      "constant": true
    },
    {
      "inputs": [],
      "name": "name",
      "outputs": [
        {
          "internalType": "string",
          "name": "",
          "type": "string"
        }
      ],
      "stateMutability": "view",
      "type": "function",
      "constant": true
    },
    {
      "inputs": [
        {
          "internalType": "address",
          "name": "owner",
          "type": "address"
        }
      ],
      "name": "removeOwner",
      "outputs": [],
      "stateMutability": "nonpayable",
      "type": "function"
    },
    {
      "inputs": [],
      "name": "renounceOwnership",
      "outputs": [],
      "stateMutability": "nonpayable",
      "type": "function"
    },
    {
      "inputs": [],
      "name": "renounced",
      "outputs": [
        {
          "internalType": "bool",
          "name": "",
          "type": "bool"
        }
      ],
      "stateMutability": "view",
      "type": "function",
      "constant": true
    },
    {
      "inputs": [],
      "name": "sellDevelopmentTax",
      "outputs": [
        {
          "internalType": "uint256",
          "name": "",
          "type": "uint256"
        }
      ],
      "stateMutability": "view",
      "type": "function",
      "constant": true
    },
    {
      "inputs": [],
      "name": "sellLiquidityTax",
      "outputs": [
        {
          "internalType": "uint256",
          "name": "",
          "type": "uint256"
        }
      ],
      "stateMutability": "view",
      "type": "function",
      "constant": true
    },
    {
      "inputs": [],
      "name": "sellMarketingTax",
      "outputs": [
        {
          "internalType": "uint256",
          "name": "",
          "type": "uint256"
        }
      ],
      "stateMutability": "view",
      "type": "function",
      "constant": true
    },
    {
      "inputs": [
        {
          "internalType": "bool",
          "name": "isPaused_",
          "type": "bool"
        }
      ],
      "name": "setIsPaused",
      "outputs": [],
      "stateMutability": "nonpayable",
      "type": "function"
    },
    {
      "inputs": [],
      "name": "symbol",
      "outputs": [
        {
          "internalType": "string",
          "name": "",
          "type": "string"
        }
      ],
      "stateMutability": "view",
      "type": "function",
      "constant": true
    },
    {
      "inputs": [],
      "name": "totalSupply",
      "outputs": [
        {
          "internalType": "uint256",
          "name": "",
          "type": "uint256"
        }
      ],
      "stateMutability": "view",
      "type": "function",
      "constant": true
    },
    {
      "inputs": [
        {
          "internalType": "address",
          "name": "to",
          "type": "address"
        },
        {
          "internalType": "uint256",
          "name": "amount",
          "type": "uint256"
        }
      ],
      "name": "transfer",
      "outputs": [
        {
          "internalType": "bool",
          "name": "",
          "type": "bool"
        }
      ],
      "stateMutability": "nonpayable",
      "type": "function"
    },
    {
      "inputs": [
        {
          "internalType": "address",
          "name": "from",
          "type": "address"
        },
        {
          "internalType": "address",
          "name": "to",
          "type": "address"
        },
        {
          "internalType": "uint256",
          "name": "amount",
          "type": "uint256"
        }
      ],
      "name": "transferFrom",
      "outputs": [
        {
          "internalType": "bool",
          "name": "",
          "type": "bool"
        }
      ],
      "stateMutability": "nonpayable",
      "type": "function"
    },
    {
      "stateMutability": "payable",
      "type": "receive",
      "payable": true
    },
    {
      "inputs": [
        {
          "internalType": "uint256",
          "name": "amountToken",
          "type": "uint256"
        }
      ],
      "name": "addLiquidity",
      "outputs": [],
      "stateMutability": "payable",
      "type": "function",
      "payable": true
    },
    {
      "inputs": [
        {
          "internalType": "uint256",
          "name": "sellDevelopmentTax_",
          "type": "uint256"
        },
        {
          "internalType": "uint256",
          "name": "sellMarketingTax_",
          "type": "uint256"
        },
        {
          "internalType": "uint256",
          "name": "sellLiquidityTax_",
          "type": "uint256"
        }
      ],
      "name": "setAntiBotSellTaxes",
      "outputs": [],
      "stateMutability": "nonpayable",
      "type": "function"
    },
    {
      "inputs": [
        {
          "internalType": "uint256",
          "name": "sellDevelopmentTax_",
          "type": "uint256"
        },
        {
          "internalType": "uint256",
          "name": "sellMarketingTax_",
          "type": "uint256"
        },
        {
          "internalType": "uint256",
          "name": "sellLiquidityTax_",
          "type": "uint256"
        }
      ],
      "name": "setSellTaxes",
      "outputs": [],
      "stateMutability": "nonpayable",
      "type": "function"
    },
    {
      "inputs": [
        {
          "internalType": "uint256",
          "name": "buyDevelopmentTax_",
          "type": "uint256"
        },
        {
          "internalType": "uint256",
          "name": "buyMarketingTax_",
          "type": "uint256"
        },
        {
          "internalType": "uint256",
          "name": "buyLiquidityTax_",
          "type": "uint256"
        }
      ],
      "name": "setBuyTaxes",
      "outputs": [],
      "stateMutability": "nonpayable",
      "type": "function"
    },
    {
      "inputs": [
        {
          "internalType": "address",
          "name": "developmentAddress_",
          "type": "address"
        },
        {
          "internalType": "address",
          "name": "marketingAddress_",
          "type": "address"
        },
        {
          "internalType": "address",
          "name": "liquidityAddress_",
          "type": "address"
        }
      ],
      "name": "setTaxAddresses",
      "outputs": [],
      "stateMutability": "nonpayable",
      "type": "function"
    },
    {
      "inputs": [
        {
          "internalType": "address",
          "name": "address_",
          "type": "address"
        }
      ],
      "name": "removeBlacklistedAddress",
      "outputs": [],
      "stateMutability": "nonpayable",
      "type": "function"
    },
    {
      "inputs": [
        {
          "internalType": "bool",
          "name": "enabled",
          "type": "bool"
        }
      ],
      "name": "setLiquidityTaxEnabled",
      "outputs": [],
      "stateMutability": "nonpayable",
      "type": "function"
    },
    {
      "inputs": [
        {
          "internalType": "address",
          "name": "address_",
          "type": "address"
        }
      ],
      "name": "addTaxExcludedAddress",
      "outputs": [],
      "stateMutability": "nonpayable",
      "type": "function"
    },
    {
      "inputs": [
        {
          "internalType": "address",
          "name": "address_",
          "type": "address"
        }
      ],
      "name": "removeTaxExcludedAddress",
      "outputs": [],
      "stateMutability": "nonpayable",
      "type": "function"
    },
    {
      "inputs": [
        {
          "internalType": "address",
          "name": "routerAddress",
          "type": "address"
        }
      ],
      "name": "setRouter",
      "outputs": [],
      "stateMutability": "nonpayable",
      "type": "function"
    }
  ],
  "bytecode": "0x60a060405260196080819052610e106009556002600b819055600a600d819055600e556005600f556011805460ff19166001908117909155600460148190556015556016829055601782905560189190915590553480156200006057600080fd5b506040516200311138038062003111833981016040819052620000839162000501565b604051806040016040528060058152602001642a37b5b2b760d91b815250604051806040016040528060038152602001622a25a760e91b8152508160039080519060200190620000d59291906200043e565b508051620000eb9060049060208401906200043e565b505050336200014c5760405162461bcd60e51b815260206004820152602260248201527f43616e277420696e697469616c697a652077697468207a65726f206164647265604482015261737360f01b60648201526084015b60405180910390fd5b60058054610100600160a81b031916336101008102919091179091556000818152600660205260408120805460ff191660019081179091556007805491820181559091527fa66cc928b5edb82af9bd49922954155ab7b0942694bea4ce44661d9a8736c6880180546001600160a01b03199081168317909155601a805490911682179055620001ff90620001de601290565b620001eb90600a6200064e565b620001f990610d0562000666565b62000290565b6200020c826012620001de565b62000219816012620001de565b6103e86200022660025490565b62000232919062000688565b6012556001600160a01b038281166000908152601d60205260408082208054600160ff19918216811790925593851683528183208054851682179055308352912080549092168117909155620002889062000375565b505062000703565b6001600160a01b038216620002e85760405162461bcd60e51b815260206004820152601f60248201527f45524332303a206d696e7420746f20746865207a65726f206164647265737300604482015260640162000143565b8060026000828254620002fc9190620006ab565b90915550506001600160a01b038216600090815260208190526040812080548392906200032b908490620006ab565b90915550506040518181526001600160a01b038316906000907fddf252ad1be2c89b69c2b068fc378daa952ba7f163c4a11628f55a4df523b3ef9060200160405180910390a35050565b60055460ff1615620003ca5760405162461bcd60e51b815260206004820152601360248201527f4f776e6572736869702072656e6f756e63656400000000000000000000000000604482015260640162000143565b3360009081526006602052604090205460ff166200042b5760405162461bcd60e51b815260206004820152601660248201527f43616c6c6572206973206e6f7420616e206f776e657200000000000000000000604482015260640162000143565b6008805460ff1916911515919091179055565b8280546200044c90620006c6565b90600052602060002090601f016020900481019282620004705760008555620004bb565b82601f106200048b57805160ff1916838001178555620004bb565b82800160010185558215620004bb579182015b82811115620004bb5782518255916020019190600101906200049e565b50620004c9929150620004cd565b5090565b5b80821115620004c95760008155600101620004ce565b80516001600160a01b0381168114620004fc57600080fd5b919050565b600080604083850312156200051557600080fd5b6200052083620004e4565b91506200053060208401620004e4565b90509250929050565b634e487b7160e01b600052601160045260246000fd5b600181815b808511156200059057816000190482111562000574576200057462000539565b808516156200058257918102915b93841c939080029062000554565b509250929050565b600082620005a95750600162000648565b81620005b85750600062000648565b8160018114620005d15760028114620005dc57620005fc565b600191505062000648565b60ff841115620005f057620005f062000539565b50506001821b62000648565b5060208310610133831016604e8410600b841016171562000621575081810a62000648565b6200062d83836200054f565b806000190482111562000644576200064462000539565b0290505b92915050565b60006200065f60ff84168362000598565b9392505050565b600081600019048311821515161562000683576200068362000539565b500290565b600082620006a657634e487b7160e01b600052601260045260246000fd5b500490565b60008219821115620006c157620006c162000539565b500190565b600181811c90821680620006db57607f821691505b60208210811415620006fd57634e487b7160e01b600052602260045260246000fd5b50919050565b6080516129dd6200073460003960008181610580015281816108a3015281816109ae0152610d1d01526129dd6000f3fe6080604052600436106102555760003560e01c806370a0823111610139578063a9059cbb116100b6578063cc9c49a61161007a578063cc9c49a614610705578063cdca708314610725578063d232c22014610745578063d8c6404b1461075f578063dd62ed3e1461077e578063e96db1ef1461079e57600080fd5b8063a9059cbb14610665578063ad8052bb14610685578063b187bd261461069b578063c0d78655146106b5578063cb4ca631146106d557600080fd5b8063993df94e116100fd578063993df94e146105d7578063a0e67e2b146105ed578063a2cbba281461060f578063a457c2d714610625578063a5ece9411461064557600080fd5b806370a0823114610523578063715018a6146105595780637f635cc01461056e578063887d6317146105a257806395d89b41146105c257600080fd5b80632c505fb3116101d25780633328b721116101965780633328b7211461047a578063395093511461049a57806351c6590a146104ba578063638b1b14146104cd5780636ab91206146104ed5780637065cb481461050357600080fd5b80632c505fb3146103bd5780632f54bf6e146103d7578063313ce567146104105780633221c93f1461042c578063330124111461046457600080fd5b806318160ddd1161021957806318160ddd1461031e5780631870517a1461033d5780631a9431a91461035d57806323b872dd1461037d578063240976bf1461039d57600080fd5b806306fdde0314610261578063087332141461028c578063092d276f146102ae578063095ea7b3146102ce578063173825d9146102fe57600080fd5b3661025c57005b600080fd5b34801561026d57600080fd5b506102766107b4565b6040516102839190612405565b60405180910390f35b34801561029857600080fd5b506102ac6102a736600461245a565b610846565b005b3480156102ba57600080fd5b506102ac6102c936600461245a565b610903565b3480156102da57600080fd5b506102ee6102e936600461249e565b610a0e565b6040519015158152602001610283565b34801561030a57600080fd5b506102ac6103193660046124ca565b610a28565b34801561032a57600080fd5b506002545b604051908152602001610283565b34801561034957600080fd5b506102ac61035836600461245a565b610cc9565b34801561036957600080fd5b506102ac6103783660046124ee565b610d7d565b34801561038957600080fd5b506102ee610398366004612510565b610de2565b3480156103a957600080fd5b506102ac6103b83660046124ee565b610e06565b3480156103c957600080fd5b506011546102ee9060ff1681565b3480156103e357600080fd5b506102ee6103f23660046124ca565b6001600160a01b031660009081526006602052604090205460ff1690565b34801561041c57600080fd5b5060405160128152602001610283565b34801561043857600080fd5b50601c5461044c906001600160a01b031681565b6040516001600160a01b039091168152602001610283565b34801561047057600080fd5b5061032f60185481565b34801561048657600080fd5b506102ac6104953660046124ca565b610e6b565b3480156104a657600080fd5b506102ee6104b536600461249e565b610ede565b6102ac6104c8366004612551565b610f1d565b3480156104d957600080fd5b50601a5461044c906001600160a01b031681565b3480156104f957600080fd5b5061032f60165481565b34801561050f57600080fd5b506102ac61051e3660046124ca565b6111b4565b34801561052f57600080fd5b5061032f61053e3660046124ca565b6001600160a01b031660009081526020819052604090205490565b34801561056557600080fd5b506102ac611297565b34801561057a57600080fd5b5061032f7f000000000000000000000000000000000000000000000000000000000000000081565b3480156105ae57600080fd5b506102ac6105bd36600461256a565b61133f565b3480156105ce57600080fd5b50610276611462565b3480156105e357600080fd5b5061032f60175481565b3480156105f957600080fd5b50610602611471565b60405161028391906125f9565b34801561061b57600080fd5b5061032f60195481565b34801561063157600080fd5b506102ee61064036600461249e565b6114d2565b34801561065157600080fd5b50601b5461044c906001600160a01b031681565b34801561067157600080fd5b506102ee61068036600461249e565b611564565b34801561069157600080fd5b5061032f60145481565b3480156106a757600080fd5b506008546102ee9060ff1681565b3480156106c157600080fd5b506102ac6106d03660046124ca565b611572565b3480156106e157600080fd5b506102ee6106f03660046124ca565b601d6020526000908152604090205460ff1681565b34801561071157600080fd5b506102ac6107203660046124ca565b61175b565b34801561073157600080fd5b506102ac6107403660046124ca565b6117ce565b34801561075157600080fd5b506005546102ee9060ff1681565b34801561076b57600080fd5b506008546102ee90610100900460ff1681565b34801561078a57600080fd5b5061032f61079936600461260c565b611844565b3480156107aa57600080fd5b5061032f60155481565b6060600380546107c390612645565b80601f01602080910402602001604051908101604052809291908181526020018280546107ef90612645565b801561083c5780601f106108115761010080835404028352916020019161083c565b820191906000526020600020905b81548152906001019060200180831161081f57829003601f168201915b5050505050905090565b60055460ff16156108725760405162461bcd60e51b815260040161086990612680565b60405180910390fd5b3360009081526006602052604090205460ff166108a15760405162461bcd60e51b8152600401610869906126ad565b7f0000000000000000000000000000000000000000000000000000000000000000816108cd84866126f3565b6108d791906126f3565b11156108f55760405162461bcd60e51b81526004016108699061270b565b601492909255601555601655565b60055460ff16156109265760405162461bcd60e51b815260040161086990612680565b3360009081526006602052604090205460ff166109555760405162461bcd60e51b8152600401610869906126ad565b600854610100900460ff166109ac5760405162461bcd60e51b815260206004820152601960248201527f416e7469626f7420706572696f642068617320706173736564000000000000006044820152606401610869565b7f0000000000000000000000000000000000000000000000000000000000000000816109d884866126f3565b6109e291906126f3565b1115610a005760405162461bcd60e51b81526004016108699061270b565b600d92909255600e55600f55565b600033610a1c81858561186f565b60019150505b92915050565b60055460ff1615610a4b5760405162461bcd60e51b815260040161086990612680565b3360009081526006602052604090205460ff16610a7a5760405162461bcd60e51b8152600401610869906126ad565b6001600160a01b03811660009081526006602052604090205460ff16610ae25760405162461bcd60e51b815260206004820152601760248201527f41646472657373206973206e6f7420616e206f776e65720000000000000000006044820152606401610869565b60055461010090046001600160a01b0316331415610b425760405162461bcd60e51b815260206004820152601d60248201527f4d6173746572206f776e65722063616e27742062652072656d6f7665640000006044820152606401610869565b60005b600754811015610cc557816001600160a01b031660078281548110610b6c57610b6c612753565b6000918252602090912001546001600160a01b03161415610cb3576001600160a01b0382166000908152600660205260409020805460ff19169055805b600754610bb890600190612769565b811015610c43576007610bcc8360016126f3565b81548110610bdc57610bdc612753565b600091825260209091200154600780546001600160a01b039092169184908110610c0857610c08612753565b600091825260209091200180546001600160a01b0319166001600160a01b039290921691909117905580610c3b81612780565b915050610ba9565b506007805480610c5557610c5561279b565b600082815260208120820160001990810180546001600160a01b031916905590910190915560405142916001600160a01b0385169133917fecc5dd9888b87e7ed252d66b9c086ab819de6c8f8b96c8e5458e105bacfbb02791a45050565b80610cbd81612780565b915050610b45565b5050565b60055460ff1615610cec5760405162461bcd60e51b815260040161086990612680565b3360009081526006602052604090205460ff16610d1b5760405162461bcd60e51b8152600401610869906126ad565b7f000000000000000000000000000000000000000000000000000000000000000081610d4784866126f3565b610d5191906126f3565b1115610d6f5760405162461bcd60e51b81526004016108699061270b565b601792909255601855601955565b60055460ff1615610da05760405162461bcd60e51b815260040161086990612680565b3360009081526006602052604090205460ff16610dcf5760405162461bcd60e51b8152600401610869906126ad565b6011805460ff1916911515919091179055565b600033610df0858285611993565b610dfb858585611a0d565b506001949350505050565b60055460ff1615610e295760405162461bcd60e51b815260040161086990612680565b3360009081526006602052604090205460ff16610e585760405162461bcd60e51b8152600401610869906126ad565b6008805460ff1916911515919091179055565b60055460ff1615610e8e5760405162461bcd60e51b815260040161086990612680565b3360009081526006602052604090205460ff16610ebd5760405162461bcd60e51b8152600401610869906126ad565b6001600160a01b03166000908152601060205260409020805460ff19169055565b3360008181526001602090815260408083206001600160a01b0387168452909152812054909190610a1c9082908690610f189087906126f3565b61186f565b60055460ff1615610f405760405162461bcd60e51b815260040161086990612680565b3360009081526006602052604090205460ff16610f6f5760405162461bcd60e51b8152600401610869906126ad565b601e546001600160a01b031680610fbd5760405162461bcd60e51b8152602060048201526012602482015271149bdd5d195c881b9bdd081cd95d081e595d60721b6044820152606401610869565b610fc96012600a612895565b610fd390836128a4565b336000908152602081905260409020549092508211156110475760405162461bcd60e51b815260206004820152602960248201527f53656e64657220646f6573206e6f74206861766520656e6f75676820746f6b656044820152686e2062616c616e636560b81b6064820152608401610869565b816110523330611844565b10156110975760405162461bcd60e51b81526020600482015260146024820152734e6f7420656e6f75676820616c6c6f77616e636560601b6044820152606401610869565b6110a230828461186f565b6110ad33828461186f565b6110b8333084611b78565b6011805461ff001916610100179055601e54601a546001600160a01b039182169163f305d7199134913091879182918591166110f642610e106126f3565b6040518863ffffffff1660e01b8152600401611117969594939291906128c3565b60606040518083038185885af1158015611135573d6000803e3d6000fd5b50505050506040513d601f19601f8201168201806040525081019061115a91906128fe565b50506011805461ff00191690555060085462010000900460ff166111aa576008805462ffff0019166201010017905560095461119690426126f3565b600a55600b546111a690436126f3565b600c555b610cc56000610e06565b60055460ff16156111d75760405162461bcd60e51b815260040161086990612680565b3360009081526006602052604090205460ff166112065760405162461bcd60e51b8152600401610869906126ad565b6001600160a01b038116600081815260066020526040808220805460ff1916600190811790915560078054918201815583527fa66cc928b5edb82af9bd49922954155ab7b0942694bea4ce44661d9a8736c6880180546001600160a01b031916841790555142929133917fa0b18fca933618876351ba2ef88bf4505c184d3e55064bec0d7fe236dd706d849190a450565b60055461010090046001600160a01b031633146113075760405162461bcd60e51b815260206004820152602860248201527f4f6e6c79206d6173746572206f776e65722063616e2072656e6f756e6365206f6044820152670776e6572736869760c41b6064820152608401610869565b6005805460ff191660011790556040517fd1f66c3d2bc1993a86be5e3d33709d98f0442381befcedd29f578b9b2506b1ce90600090a1565b60055460ff16156113625760405162461bcd60e51b815260040161086990612680565b3360009081526006602052604090205460ff166113915760405162461bcd60e51b8152600401610869906126ad565b6001600160a01b03831615806113ae57506001600160a01b038216155b806113c057506001600160a01b038116155b156114235760405162461bcd60e51b815260206004820152602d60248201527f4e6f6e65206f6620746865206164647265737365732063616e2774206265207a60448201526c65726f2061646472657373657360981b6064820152608401610869565b601a80546001600160a01b039485166001600160a01b031991821617909155601b805493851693821693909317909255601c8054919093169116179055565b6060600480546107c390612645565b6060600780548060200260200160405190810160405280929190818152602001828054801561083c57602002820191906000526020600020905b81546001600160a01b031681526001909101906020018083116114ab575050505050905090565b3360008181526001602090815260408083206001600160a01b0387168452909152812054909190838110156115575760405162461bcd60e51b815260206004820152602560248201527f45524332303a2064656372656173656420616c6c6f77616e63652062656c6f77604482015264207a65726f60d81b6064820152608401610869565b610dfb828686840361186f565b600033610a1c818585611a0d565b60055460ff16156115955760405162461bcd60e51b815260040161086990612680565b3360009081526006602052604090205460ff166115c45760405162461bcd60e51b8152600401610869906126ad565b601e80546001600160a01b0319166001600160a01b0383169081179091556040805163c45a015560e01b8152905163c45a0155916004808201926020929091908290030181865afa15801561161d573d6000803e3d6000fd5b505050506040513d601f19601f82011682018060405250810190611641919061292c565b6001600160a01b031663c9c6539630601e60009054906101000a90046001600160a01b03166001600160a01b031663ad5c46486040518163ffffffff1660e01b8152600401602060405180830381865afa1580156116a3573d6000803e3d6000fd5b505050506040513d601f19601f820116820180604052508101906116c7919061292c565b6040516001600160e01b031960e085901b1681526001600160a01b039283166004820152911660248201526044016020604051808303816000875af1158015611714573d6000803e3d6000fd5b505050506040513d601f19601f82011682018060405250810190611738919061292c565b601f80546001600160a01b0319166001600160a01b039290921691909117905550565b60055460ff161561177e5760405162461bcd60e51b815260040161086990612680565b3360009081526006602052604090205460ff166117ad5760405162461bcd60e51b8152600401610869906126ad565b6001600160a01b03166000908152601d60205260409020805460ff19169055565b60055460ff16156117f15760405162461bcd60e51b815260040161086990612680565b3360009081526006602052604090205460ff166118205760405162461bcd60e51b8152600401610869906126ad565b6001600160a01b03166000908152601d60205260409020805460ff19166001179055565b6001600160a01b03918216600090815260016020908152604080832093909416825291909152205490565b6001600160a01b0383166118d15760405162461bcd60e51b8152602060048201526024808201527f45524332303a20617070726f76652066726f6d20746865207a65726f206164646044820152637265737360e01b6064820152608401610869565b6001600160a01b0382166119325760405162461bcd60e51b815260206004820152602260248201527f45524332303a20617070726f766520746f20746865207a65726f206164647265604482015261737360f01b6064820152608401610869565b6001600160a01b0383811660008181526001602090815260408083209487168084529482529182902085905590518481527f8c5be1e5ebec7d5bd14f71427d1e84f3dd0314c0f7b2291e5b200ac8c7c3b925910160405180910390a3505050565b600061199f8484611844565b90506000198114611a0757818110156119fa5760405162461bcd60e51b815260206004820152601d60248201527f45524332303a20696e73756666696369656e7420616c6c6f77616e63650000006044820152606401610869565b611a07848484840361186f565b50505050565b3260008181526006602052604090205460ff16611a695760085460ff1615611a695760405162461bcd60e51b815260206004820152600f60248201526e10dbdb9d1c9858dd081c185d5cd959608a1b6044820152606401610869565b81611a7f57611a7a84846000611b78565b611a07565b6000806000611a8e8787611d46565b6001600160a01b038a166000908152601d602052604081205493965091945092509060ff16158015611ad957506001600160a01b0387166000908152601d602052604090205460ff16155b306000908152602081905260409020546013549192509060ff16158015611b0257506012548110155b8015611b1b5750601f546001600160a01b038981169116145b8015611b245750815b15611b3557611b3581868686611e4b565b60135460009060ff16158015611b485750825b90508015611b6157611b5e888b8b898989611efd565b97505b611b6c8a8a8a611b78565b50505050505050505050565b6001600160a01b038316611bdc5760405162461bcd60e51b815260206004820152602560248201527f45524332303a207472616e736665722066726f6d20746865207a65726f206164604482015264647265737360d81b6064820152608401610869565b6001600160a01b038216611c3e5760405162461bcd60e51b815260206004820152602360248201527f45524332303a207472616e7366657220746f20746865207a65726f206164647260448201526265737360e81b6064820152608401610869565b6001600160a01b03831660009081526020819052604090205481811015611cb65760405162461bcd60e51b815260206004820152602660248201527f45524332303a207472616e7366657220616d6f756e7420657863656564732062604482015265616c616e636560d01b6064820152608401610869565b6001600160a01b03808516600090815260208190526040808220858503905591851681529081208054849290611ced9084906126f3565b92505081905550826001600160a01b0316846001600160a01b03167fddf252ad1be2c89b69c2b068fc378daa952ba7f163c4a11628f55a4df523b3ef84604051611d3991815260200190565b60405180910390a3611a07565b6000806000600860019054906101000a900460ff1615611db657600c544311611d8d576001600160a01b0385166000908152601060205260409020805460ff191660011790555b600a544211611daa57600d549250600e549150600f549050611db6565b6008805461ff00191690555b6001600160a01b03851660009081526010602052604090205460ff16158015611df857506001600160a01b03841660009081526010602052604090205460ff16155b611e445760405162461bcd60e51b815260206004820152601f60248201527f53656e646572206f7220726563697069656e7420626c61636b6c6973746564006044820152606401610869565b9250925092565b6013805460ff191660011790556000611e6483856126f3565b60115490915060ff1615611e7f57611e7c82826126f3565b90505b600081611e8c86886128a4565b611e969190612949565b9050600082611ea586896128a4565b611eaf9190612949565b9050611ebb828261201a565b60115460ff1615611eea57600083611ed3868a6128a4565b611edd9190612949565b9050611ee88161219e565b505b50506013805460ff191690555050505050565b601f5460009081908190819081906001600160a01b038a811691161415611f6b576064611f2a898d6128a4565b611f349190612949565b92506064611f42888d6128a4565b611f4c9190612949565b91506064611f5a878d6128a4565b611f649190612949565b9050611fd6565b601f546001600160a01b038b811691161415611fd65760646017548c611f9191906128a4565b611f9b9190612949565b925060646018548c611fad91906128a4565b611fb79190612949565b915060646019548c611fc991906128a4565b611fd39190612949565b90505b80611fe183856126f3565b611feb91906126f3565b9350831561200b57611ffe8a3086611b78565b612008848c612769565b9a505b50989998505050505050505050565b600061202e61202983856126f3565b6121e9565b9050600061203c83856126f3565b61204685846128a4565b6120509190612949565b9050600061205e84866126f3565b61206885856128a4565b6120729190612949565b601a546040519192506000916001600160a01b039091169084908381818185875af1925050503d80600081146120c4576040519150601f19603f3d011682016040523d82523d6000602084013e6120c9565b606091505b5050601b546040519192506000916001600160a01b039091169084908381818185875af1925050503d806000811461211d576040519150601f19603f3d011682016040523d82523d6000602084013e612122565b606091505b505090508180156121305750805b6121955760405162461bcd60e51b815260206004820152603060248201527f436f756c646e27742073656e6420746f20646576656c6f706d656e74206f722060448201526f1b585c9ad95d1a5b99c81dd85b1b195d60821b6064820152608401610869565b50505050505050565b60006121ab600283612949565b905060006121b98284612769565b90504760006121c7846121e9565b905060006121d58383612769565b90506121e18482612353565b505050505050565b60408051600280825260608201835260009283929190602083019080368337019050509050308160008151811061222257612222612753565b6001600160a01b03928316602091820292909201810191909152601e54604080516315ab88c960e31b81529051919093169263ad5c46489260048083019391928290030181865afa15801561227b573d6000803e3d6000fd5b505050506040513d601f19601f8201168201806040525081019061229f919061292c565b816001815181106122b2576122b2612753565b6001600160a01b039283166020918202929092010152601e546122d8913091168561186f565b601e546001600160a01b031663791ac94784600084306122f942603c6126f3565b6040518663ffffffff1660e01b815260040161231995949392919061296b565b600060405180830381600087803b15801561233357600080fd5b505af1158015612347573d6000803e3d6000fd5b50479695505050505050565b601e5461236b9030906001600160a01b03168461186f565b601e54601a546001600160a01b039182169163f305d7199184913091879160009182911661239a42603c6126f3565b6040518863ffffffff1660e01b81526004016123bb969594939291906128c3565b60606040518083038185885af11580156123d9573d6000803e3d6000fd5b50505050506040513d601f19601f820116820180604052508101906123fe91906128fe565b5050505050565b600060208083528351808285015260005b8181101561243257858101830151858201604001528201612416565b81811115612444576000604083870101525b50601f01601f1916929092016040019392505050565b60008060006060848603121561246f57600080fd5b505081359360208301359350604090920135919050565b6001600160a01b038116811461249b57600080fd5b50565b600080604083850312156124b157600080fd5b82356124bc81612486565b946020939093013593505050565b6000602082840312156124dc57600080fd5b81356124e781612486565b9392505050565b60006020828403121561250057600080fd5b813580151581146124e757600080fd5b60008060006060848603121561252557600080fd5b833561253081612486565b9250602084013561254081612486565b929592945050506040919091013590565b60006020828403121561256357600080fd5b5035919050565b60008060006060848603121561257f57600080fd5b833561258a81612486565b9250602084013561259a81612486565b915060408401356125aa81612486565b809150509250925092565b600081518084526020808501945080840160005b838110156125ee5781516001600160a01b0316875295820195908201906001016125c9565b509495945050505050565b6020815260006124e760208301846125b5565b6000806040838503121561261f57600080fd5b823561262a81612486565b9150602083013561263a81612486565b809150509250929050565b600181811c9082168061265957607f821691505b6020821081141561267a57634e487b7160e01b600052602260045260246000fd5b50919050565b60208082526013908201527213dddb995c9cda1a5c081c995b9bdd5b98d959606a1b604082015260600190565b60208082526016908201527521b0b63632b91034b9903737ba1030b71037bbb732b960511b604082015260600190565b634e487b7160e01b600052601160045260246000fd5b60008219821115612706576127066126dd565b500190565b60208082526028908201527f546f74616c207461786573206172652061626f76652074686520616c6c6f77656040820152671908185b5bdd5b9d60c21b606082015260800190565b634e487b7160e01b600052603260045260246000fd5b60008282101561277b5761277b6126dd565b500390565b6000600019821415612794576127946126dd565b5060010190565b634e487b7160e01b600052603160045260246000fd5b600181815b808511156127ec5781600019048211156127d2576127d26126dd565b808516156127df57918102915b93841c93908002906127b6565b509250929050565b60008261280357506001610a22565b8161281057506000610a22565b816001811461282657600281146128305761284c565b6001915050610a22565b60ff841115612841576128416126dd565b50506001821b610a22565b5060208310610133831016604e8410600b841016171561286f575081810a610a22565b61287983836127b1565b806000190482111561288d5761288d6126dd565b029392505050565b60006124e760ff8416836127f4565b60008160001904831182151516156128be576128be6126dd565b500290565b6001600160a01b039687168152602081019590955260408501939093526060840191909152909216608082015260a081019190915260c00190565b60008060006060848603121561291357600080fd5b8351925060208401519150604084015190509250925092565b60006020828403121561293e57600080fd5b81516124e781612486565b60008261296657634e487b7160e01b600052601260045260246000fd5b500490565b85815284602082015260a06040820152600061298a60a08301866125b5565b6001600160a01b039490941660608301525060800152939250505056fea264697066735822122089e6b0707ef6d6b7f853a7c1fc0100ebec734375ba036ecf77bde0a5f03669e264736f6c634300080b0033",
  "immutableReferences": {
    "5329": [
      {
        "length": 32,
        "start": 1408
      },
      {
        "length": 32,
        "start": 2211
      },
      {
        "length": 32,
        "start": 2478
      },
      {
        "length": 32,
        "start": 3357
      }
    ]
  },
  "source": "// SPDX-License-Identifier: MIT\n\npragma solidity >=0.4.22 <0.9.0;\n\nimport \"./PauseOwners.sol\";\nimport \"@openzeppelin/contracts/token/ERC20/ERC20.sol\";\nimport \"@uniswap/v2-periphery/contracts/interfaces/IUniswapV2Router02.sol\";\nimport \"@uniswap/v2-core/contracts/interfaces/IUniswapV2Pair.sol\";\nimport \"@uniswap/v2-core/contracts/interfaces/IUniswapV2Factory.sol\";\nimport \"@uniswap/v2-periphery/contracts/libraries/UniswapV2Library.sol\";\nimport \"@openzeppelin/contracts/utils/Address.sol\";\n\ncontract Token is ERC20, PauseOwners {\n\tuint256 public immutable MAX_TOTAL_FEE = 25; // We can never surpass this total fee\n\n\tbool public antiBotEnabled;\n\tbool private antiBotRanOnce; // We can only run antibot once, when initial liquidity is added\n\tuint256 private antiBotTaxesTimeInSeconds = 3600;\n\tuint256 private antiBotTaxesEndTime;\n\tuint256 private antiBotBlockTime = 2;\n\tuint256 private antiBotBlockEnd;\n\n\tuint256 private antiBotSellDevelopmentTax = 10;\n\tuint256 private antiBotSellMarketingTax = 10;\n\tuint256 private antiBotSellLiquidityTax = 5;\n\n\tmapping(address => bool) antiBotBlacklist;\n\n\tbool public liquidityTaxEnabled = true;\n\tbool private addingLiquidity;\n\n\tuint256 private minBalanceToSwapAndTransfer;\n\tbool private inSwapAndTransfer;\n\n\tuint256 public sellDevelopmentTax = 4;\n\tuint256 public sellMarketingTax = 4;\n\tuint256 public sellLiquidityTax = 2;\n\n\tuint256 public buyDevelopmentTax = 2;\n\tuint256 public buyMarketingTax = 2;\n\tuint256 public buyLiquidityTax = 1;\n\n\taddress payable public developmentAddress;\n\taddress payable public marketingAddress;\n\taddress payable public liquidityAddress;\n\n\tmapping(address => bool) public isExcludedFromTax;\n\n\tIUniswapV2Router02 private router;\n\tIUniswapV2Pair private pair;\n\n\tconstructor(address gameAddress_, address nftAddress_)\n\t\tERC20(\"Token\", \"TKN\")\n\t{\n\t\tdevelopmentAddress = payable(msg.sender);\n\t\t_mint(developmentAddress, 3333 * 10**decimals()); // For adding liquidity and team tokens\n\t\t_mint(gameAddress_, 3333 * 10**decimals()); // Used as game rewards\n\t\t_mint(nftAddress_, 3333 * 10**decimals()); // Used as NFT rewards\n\t\tminBalanceToSwapAndTransfer = totalSupply() / 1000; // If contract balance is minimum 0.1% of total supply, swap to BNB and transfer fees\n\t\tisExcludedFromTax[gameAddress_] = true;\n\t\tisExcludedFromTax[nftAddress_] = true;\n\t\tisExcludedFromTax[address(this)] = true;\n\t\tsetIsPaused(true); // Pause trading at the beginning until liquidity is added\n\t}\n\n\tmodifier lockSwapAndTransfer() {\n\t\tinSwapAndTransfer = true;\n\t\t_;\n\t\tinSwapAndTransfer = false;\n\t}\n\n\treceive() external payable {} // Must be defined so the contract is able to receive ETH from swaps\n\n\tfunction addLiquidity(uint256 amountToken) external payable onlyOwners {\n\t\t// Add initial liquidity and enabled the \"anti-bot\" feature\n\t\taddress routerAddress = address(router);\n\t\trequire(routerAddress != address(0), \"Router not set yet\");\n\t\tamountToken *= (10**decimals());\n\t\trequire(\n\t\t\tbalanceOf(msg.sender) >= amountToken,\n\t\t\t\"Sender does not have enough token balance\"\n\t\t);\n\t\trequire(\n\t\t\tallowance(msg.sender, address(this)) >= amountToken,\n\t\t\t\"Not enough allowance\"\n\t\t);\n\t\t_approve(address(this), routerAddress, amountToken);\n\t\t_approve(msg.sender, routerAddress, amountToken);\n\t\tsuper._transfer(msg.sender, address(this), amountToken);\n\t\taddingLiquidity = true;\n\t\trouter.addLiquidityETH{ value: msg.value }(\n\t\t\taddress(this),\n\t\t\tamountToken,\n\t\t\tamountToken,\n\t\t\tmsg.value,\n\t\t\tdevelopmentAddress,\n\t\t\tblock.timestamp + 1 hours\n\t\t);\n\t\taddingLiquidity = false;\n\t\tif (!antiBotRanOnce) {\n\t\t\tantiBotEnabled = true;\n\t\t\tantiBotRanOnce = true;\n\t\t\tantiBotTaxesEndTime = block.timestamp + antiBotTaxesTimeInSeconds;\n\t\t\tantiBotBlockEnd = block.number + antiBotBlockTime;\n\t\t}\n\t\tsetIsPaused(false);\n\t}\n\n\tfunction _transfer(\n\t\taddress sender,\n\t\taddress recipient,\n\t\tuint256 amount\n\t) internal virtual override checkPaused(tx.origin) {\n\t\t// if (addingLiquidity) {\n\t\t// \t// Liquidity transfer from development address\n\t\t// \t_approve(sender, msg.sender, amount);\n\t\t// \tsuper._transfer(sender, recipient, amount);\n\t\t// \treturn;\n\t\t// }\n\n\t\tif (amount == 0) {\n\t\t\tsuper._transfer(sender, recipient, 0);\n\t\t\treturn;\n\t\t}\n\n\t\t// Temporary local variables for setting antibot taxes\n\t\t(\n\t\t\tuint256 sellDevelopmentTax_,\n\t\t\tuint256 sellMarketingTax_,\n\t\t\tuint256 sellLiquidityTax_\n\t\t) = antiBotGuard(sender, recipient);\n\n\t\tbool notExcludedFromTax = !isExcludedFromTax[sender] &&\n\t\t\t!isExcludedFromTax[recipient];\n\t\tuint256 tokenBalance = balanceOf(address(this));\n\t\tif (\n\t\t\t!inSwapAndTransfer &&\n\t\t\ttokenBalance >= minBalanceToSwapAndTransfer &&\n\t\t\trecipient == address(pair) && // Is a sell\n\t\t\tnotExcludedFromTax\n\t\t) {\n\t\t\tswapAndTransfer(\n\t\t\t\ttokenBalance,\n\t\t\t\tsellDevelopmentTax_,\n\t\t\t\tsellMarketingTax_,\n\t\t\t\tsellLiquidityTax_\n\t\t\t);\n\t\t}\n\n\t\tbool takeFee = !inSwapAndTransfer && notExcludedFromTax;\n\t\tif (takeFee) {\n\t\t\tamount = takeFees(\n\t\t\t\tamount,\n\t\t\t\tsender,\n\t\t\t\trecipient,\n\t\t\t\tsellDevelopmentTax_,\n\t\t\t\tsellMarketingTax_,\n\t\t\t\tsellLiquidityTax_\n\t\t\t);\n\t\t}\n\n\t\tsuper._transfer(sender, recipient, amount);\n\t}\n\n\tfunction antiBotGuard(address sender, address recipient)\n\t\tprivate\n\t\treturns (\n\t\t\tuint256 sellDevelopmentTax_,\n\t\t\tuint256 sellMarketingTax_,\n\t\t\tuint256 sellLiquidityTax_\n\t\t)\n\t{\n\t\tif (antiBotEnabled) {\n\t\t\tif (block.number <= antiBotBlockEnd) {\n\t\t\t\tantiBotBlacklist[sender] = true;\n\t\t\t}\n\t\t\tif (block.timestamp <= antiBotTaxesEndTime) {\n\t\t\t\tsellDevelopmentTax_ = antiBotSellDevelopmentTax;\n\t\t\t\tsellMarketingTax_ = antiBotSellMarketingTax;\n\t\t\t\tsellLiquidityTax_ = antiBotSellLiquidityTax;\n\t\t\t} else {\n\t\t\t\tantiBotEnabled = false;\n\t\t\t}\n\t\t}\n\n\t\trequire(\n\t\t\t!antiBotBlacklist[sender] && !antiBotBlacklist[recipient],\n\t\t\t\"Sender or recipient blacklisted\"\n\t\t);\n\t}\n\n\tfunction swapAndTransfer(\n\t\tuint256 tokenBalance,\n\t\tuint256 sellDevelopmentTax_,\n\t\tuint256 sellMarketingTax_,\n\t\tuint256 sellLiquidityTax_\n\t) private lockSwapAndTransfer {\n\t\tuint256 totalTax = sellDevelopmentTax_ + sellMarketingTax_;\n\t\tif (liquidityTaxEnabled) {\n\t\t\ttotalTax += sellLiquidityTax_;\n\t\t}\n\t\tuint256 developmentTax = (tokenBalance * sellDevelopmentTax_) /\n\t\t\ttotalTax;\n\t\tuint256 marketingTax = (tokenBalance * sellMarketingTax_) / totalTax;\n\n\t\tswapAndTransferFees(developmentTax, marketingTax);\n\n\t\tif (liquidityTaxEnabled) {\n\t\t\tuint256 liquidityTax = (tokenBalance * sellLiquidityTax_) /\n\t\t\t\ttotalTax;\n\t\t\tswapAndLiquify(liquidityTax);\n\t\t}\n\t}\n\n\tfunction swapAndTransferFees(uint256 developmentTax, uint256 marketingTax)\n\t\tprivate\n\t{\n\t\tuint256 ethBalance = swapTokensToETH(developmentTax + marketingTax);\n\t\tuint256 ethForDevelopment = (ethBalance * developmentTax) /\n\t\t\t(developmentTax + marketingTax);\n\t\tuint256 ethForMarketing = (ethBalance * marketingTax) /\n\t\t\t(developmentTax + marketingTax);\n\n\t\t(bool devSuccess, ) = developmentAddress.call{\n\t\t\tvalue: ethForDevelopment\n\t\t}(\"\");\n\t\t(bool marSuccess, ) = marketingAddress.call{ value: ethForMarketing }(\n\t\t\t\"\"\n\t\t);\n\n\t\trequire(\n\t\t\tdevSuccess && marSuccess,\n\t\t\t\"Couldn't send to development or marketing wallet\"\n\t\t);\n\t}\n\n\tfunction swapAndLiquify(uint256 amountToken) private {\n\t\tuint256 half1 = amountToken / 2;\n\t\tuint256 half2 = amountToken - half1;\n\t\tuint256 balanceBeforeSwap = address(this).balance;\n\t\tuint256 balanceAfterSwap = swapTokensToETH(half1); // Swap half of the tokens to BNB\n\t\tuint256 swapDifference = balanceAfterSwap - balanceBeforeSwap;\n\t\taddLiquidityTax(half2, swapDifference); // Add the non-swapped tokens and the swapped BNB to liquidity\n\t}\n\n\tfunction addLiquidityTax(uint256 amountToken, uint256 amountEth) private {\n\t\t// approve(address(router), amountToken);\n\t\t_approve(address(this), address(router), amountToken);\n\t\trouter.addLiquidityETH{ value: amountEth }(\n\t\t\taddress(this),\n\t\t\tamountToken,\n\t\t\t0,\n\t\t\t0,\n\t\t\tdevelopmentAddress,\n\t\t\tblock.timestamp + 1 minutes\n\t\t);\n\t}\n\n\tfunction swapTokensToETH(uint256 amountToken) private returns (uint256) {\n\t\taddress[] memory path = new address[](2);\n\t\tpath[0] = address(this);\n\t\tpath[1] = router.WETH();\n\t\t// approve(address(router), amountToken);\n\t\t_approve(address(this), address(router), amountToken);\n\t\trouter.swapExactTokensForETHSupportingFeeOnTransferTokens(\n\t\t\tamountToken,\n\t\t\t0, // Receive any amount\n\t\t\tpath,\n\t\t\taddress(this),\n\t\t\tblock.timestamp + 1 minutes\n\t\t);\n\t\treturn address(this).balance;\n\t}\n\n\tfunction takeFees(\n\t\tuint256 amount,\n\t\taddress sender,\n\t\taddress recipient,\n\t\tuint256 sellDevelopmentTax_,\n\t\tuint256 sellMarketingTax_,\n\t\tuint256 sellLiquidityTax_\n\t) private returns (uint256) {\n\t\tuint256 totalTax = 0;\n\t\tuint256 developmentTax = 0;\n\t\tuint256 marketingTax = 0;\n\t\tuint256 liquidityTax = 0;\n\t\tif (recipient == address(pair)) {\n\t\t\t// Selling\n\t\t\tdevelopmentTax = (amount * sellDevelopmentTax_) / 100;\n\t\t\tmarketingTax = (amount * sellMarketingTax_) / 100;\n\t\t\tliquidityTax = (amount * sellLiquidityTax_) / 100;\n\t\t} else if (sender == address(pair)) {\n\t\t\t// Buying\n\t\t\tdevelopmentTax = (amount * buyDevelopmentTax) / 100;\n\t\t\tmarketingTax = (amount * buyMarketingTax) / 100;\n\t\t\tliquidityTax = (amount * buyLiquidityTax) / 100;\n\t\t}\n\t\ttotalTax = developmentTax + marketingTax + liquidityTax;\n\n\t\tif (totalTax > 0) {\n\t\t\tsuper._transfer(sender, address(this), totalTax);\n\t\t\tamount -= totalTax;\n\t\t}\n\t\treturn amount;\n\t}\n\n\tfunction setAntiBotSellTaxes(\n\t\tuint256 sellDevelopmentTax_,\n\t\tuint256 sellMarketingTax_,\n\t\tuint256 sellLiquidityTax_\n\t) external onlyOwners {\n\t\trequire(antiBotEnabled, \"Antibot period has passed\");\n\t\trequire(\n\t\t\t(sellDevelopmentTax_ + sellMarketingTax_ + sellLiquidityTax_) <=\n\t\t\t\tMAX_TOTAL_FEE,\n\t\t\t\"Total taxes are above the allowed amount\"\n\t\t);\n\t\tantiBotSellDevelopmentTax = sellDevelopmentTax_;\n\t\tantiBotSellMarketingTax = sellMarketingTax_;\n\t\tantiBotSellLiquidityTax = sellLiquidityTax_;\n\t}\n\n\tfunction setSellTaxes(\n\t\tuint256 sellDevelopmentTax_,\n\t\tuint256 sellMarketingTax_,\n\t\tuint256 sellLiquidityTax_\n\t) external onlyOwners {\n\t\trequire(\n\t\t\t(sellDevelopmentTax_ + sellMarketingTax_ + sellLiquidityTax_) <=\n\t\t\t\tMAX_TOTAL_FEE,\n\t\t\t\"Total taxes are above the allowed amount\"\n\t\t);\n\t\tsellDevelopmentTax = sellDevelopmentTax_;\n\t\tsellMarketingTax = sellMarketingTax_;\n\t\tsellLiquidityTax = sellLiquidityTax_;\n\t}\n\n\tfunction setBuyTaxes(\n\t\tuint256 buyDevelopmentTax_,\n\t\tuint256 buyMarketingTax_,\n\t\tuint256 buyLiquidityTax_\n\t) external onlyOwners {\n\t\trequire(\n\t\t\t(buyDevelopmentTax_ + buyMarketingTax_ + buyLiquidityTax_) <=\n\t\t\t\tMAX_TOTAL_FEE,\n\t\t\t\"Total taxes are above the allowed amount\"\n\t\t);\n\t\tbuyDevelopmentTax = buyDevelopmentTax_;\n\t\tbuyMarketingTax = buyMarketingTax_;\n\t\tbuyLiquidityTax = buyLiquidityTax_;\n\t}\n\n\tfunction setTaxAddresses(\n\t\taddress developmentAddress_,\n\t\taddress marketingAddress_,\n\t\taddress liquidityAddress_\n\t) external onlyOwners {\n\t\trequire(\n\t\t\t!(developmentAddress_ == address(0) ||\n\t\t\t\tmarketingAddress_ == address(0) ||\n\t\t\t\tliquidityAddress_ == address(0)),\n\t\t\t\"None of the addresses can't be zero addresses\"\n\t\t);\n\t\tdevelopmentAddress = payable(developmentAddress_);\n\t\tmarketingAddress = payable(marketingAddress_);\n\t\tliquidityAddress = payable(liquidityAddress_);\n\t}\n\n\tfunction removeBlacklistedAddress(address address_) external onlyOwners {\n\t\tantiBotBlacklist[address_] = false;\n\t}\n\n\tfunction setLiquidityTaxEnabled(bool enabled) external onlyOwners {\n\t\tliquidityTaxEnabled = enabled;\n\t}\n\n\tfunction addTaxExcludedAddress(address address_) external onlyOwners {\n\t\tisExcludedFromTax[address_] = true;\n\t}\n\n\tfunction removeTaxExcludedAddress(address address_) external onlyOwners {\n\t\tisExcludedFromTax[address_] = false;\n\t}\n\n\tfunction setRouter(address routerAddress) external onlyOwners {\n\t\trouter = IUniswapV2Router02(routerAddress);\n\t\tpair = IUniswapV2Pair(\n\t\t\tIUniswapV2Factory(router.factory()).createPair(\n\t\t\t\taddress(this),\n\t\t\t\trouter.WETH()\n\t\t\t)\n\t\t);\n\t}\n}\n",
  "sourcePath": "C:\\Users\\sants\\Desktop\\slimekeeper\\slimekeeper_contracts\\contracts\\Token.sol",
  "compiler": {
    "name": "solc",
    "version": "0.8.11+commit.d7f03943.Emscripten.clang"
  },
  "schemaVersion": "3.4.4",
  "updatedAt": "2022-02-23T00:12:46.538Z",
  "networkType": "ethereum",
  "devdoc": {
    "kind": "dev",
    "methods": {
      "allowance(address,address)": {
        "details": "See {IERC20-allowance}."
      },
      "approve(address,uint256)": {
        "details": "See {IERC20-approve}. NOTE: If `amount` is the maximum `uint256`, the allowance is not updated on `transferFrom`. This is semantically equivalent to an infinite approval. Requirements: - `spender` cannot be the zero address."
      },
      "balanceOf(address)": {
        "details": "See {IERC20-balanceOf}."
      },
      "decimals()": {
        "details": "Returns the number of decimals used to get its user representation. For example, if `decimals` equals `2`, a balance of `505` tokens should be displayed to a user as `5.05` (`505 / 10 ** 2`). Tokens usually opt for a value of 18, imitating the relationship between Ether and Wei. This is the value {ERC20} uses, unless this function is overridden; NOTE: This information is only used for _display_ purposes: it in no way affects any of the arithmetic of the contract, including {IERC20-balanceOf} and {IERC20-transfer}."
      },
      "decreaseAllowance(address,uint256)": {
        "details": "Atomically decreases the allowance granted to `spender` by the caller. This is an alternative to {approve} that can be used as a mitigation for problems described in {IERC20-approve}. Emits an {Approval} event indicating the updated allowance. Requirements: - `spender` cannot be the zero address. - `spender` must have allowance for the caller of at least `subtractedValue`."
      },
      "increaseAllowance(address,uint256)": {
        "details": "Atomically increases the allowance granted to `spender` by the caller. This is an alternative to {approve} that can be used as a mitigation for problems described in {IERC20-approve}. Emits an {Approval} event indicating the updated allowance. Requirements: - `spender` cannot be the zero address."
      },
      "name()": {
        "details": "Returns the name of the token."
      },
      "symbol()": {
        "details": "Returns the symbol of the token, usually a shorter version of the name."
      },
      "totalSupply()": {
        "details": "See {IERC20-totalSupply}."
      },
      "transfer(address,uint256)": {
        "details": "See {IERC20-transfer}. Requirements: - `to` cannot be the zero address. - the caller must have a balance of at least `amount`."
      },
      "transferFrom(address,address,uint256)": {
        "details": "See {IERC20-transferFrom}. Emits an {Approval} event indicating the updated allowance. This is not required by the EIP. See the note at the beginning of {ERC20}. NOTE: Does not update the allowance if the current allowance is the maximum `uint256`. Requirements: - `from` and `to` cannot be the zero address. - `from` must have a balance of at least `amount`. - the caller must have allowance for ``from``'s tokens of at least `amount`."
      }
    },
    "version": 1
  },
  "userdoc": {
    "kind": "user",
    "methods": {},
    "version": 1
  }
}